{
	"data": {
		"bytecode": {
			"linkReferences": {},
			"object": "6080604052348015600e575f80fd5b50600a5f819055506105bd806100235f395ff3fe608060405234801561000f575f80fd5b506004361061004a575f3560e01c80633f3108f71461004e5780634dd6c730146100585780634e70b1dc14610076578063993a04b714610094575b5f80fd5b6100566100b2565b005b6100606100f9565b60405161006d9190610240565b60405180910390f35b61007e61013b565b60405161008b9190610278565b60405180910390f35b61009c610140565b6040516100a99190610240565b60405180910390f35b6040518060400160405280600681526020017f48756e61696e0000000000000000000000000000000000000000000000000000815250600190816100f691906104b8565b50565b60605f6040518060400160405280600c81526020017f48756e61696e205061736861000000000000000000000000000000000000000081525090508091505090565b5f5481565b60606001805461014f906102eb565b80601f016020809104026020016040519081016040528092919081815260200182805461017b906102eb565b80156101c65780601f1061019d576101008083540402835291602001916101c6565b820191905f5260205f20905b8154815290600101906020018083116101a957829003601f168201915b5050505050905090565b5f81519050919050565b5f82825260208201905092915050565b8281835e5f83830152505050565b5f601f19601f8301169050919050565b5f610212826101d0565b61021c81856101da565b935061022c8185602086016101ea565b610235816101f8565b840191505092915050565b5f6020820190508181035f8301526102588184610208565b905092915050565b5f819050919050565b61027281610260565b82525050565b5f60208201905061028b5f830184610269565b92915050565b7f4e487b71000000000000000000000000000000000000000000000000000000005f52604160045260245ffd5b7f4e487b71000000000000000000000000000000000000000000000000000000005f52602260045260245ffd5b5f600282049050600182168061030257607f821691505b602082108103610315576103146102be565b5b50919050565b5f819050815f5260205f209050919050565b5f6020601f8301049050919050565b5f82821b905092915050565b5f600883026103777fffffffffffffffffffffffffffffffffffffffffffffffffffffffffffffffff8261033c565b610381868361033c565b95508019841693508086168417925050509392505050565b5f819050919050565b5f6103bc6103b76103b284610260565b610399565b610260565b9050919050565b5f819050919050565b6103d5836103a2565b6103e96103e1826103c3565b848454610348565b825550505050565b5f90565b6103fd6103f1565b6104088184846103cc565b505050565b5b8181101561042b576104205f826103f5565b60018101905061040e565b5050565b601f821115610470576104418161031b565b61044a8461032d565b81016020851015610459578190505b61046d6104658561032d565b83018261040d565b50505b505050565b5f82821c905092915050565b5f6104905f1984600802610475565b1980831691505092915050565b5f6104a88383610481565b9150826002028217905092915050565b6104c1826101d0565b67ffffffffffffffff8111156104da576104d9610291565b5b6104e482546102eb565b6104ef82828561042f565b5f60209050601f831160018114610520575f841561050e578287015190505b610518858261049d565b86555061057f565b601f19841661052e8661031b565b5f5b8281101561055557848901518255600182019150602085019450602081019050610530565b86831015610572578489015161056e601f891682610481565b8355505b6001600288020188555050505b50505050505056fea264697066735822122060e290deeeed1d28ad23714ced548568b61be55becda4f75419bd4e3dfebfee264736f6c634300081a0033",
			"opcodes": "PUSH1 0x80 PUSH1 0x40 MSTORE CALLVALUE DUP1 ISZERO PUSH1 0xE JUMPI PUSH0 DUP1 REVERT JUMPDEST POP PUSH1 0xA PUSH0 DUP2 SWAP1 SSTORE POP PUSH2 0x5BD DUP1 PUSH2 0x23 PUSH0 CODECOPY PUSH0 RETURN INVALID PUSH1 0x80 PUSH1 0x40 MSTORE CALLVALUE DUP1 ISZERO PUSH2 0xF JUMPI PUSH0 DUP1 REVERT JUMPDEST POP PUSH1 0x4 CALLDATASIZE LT PUSH2 0x4A JUMPI PUSH0 CALLDATALOAD PUSH1 0xE0 SHR DUP1 PUSH4 0x3F3108F7 EQ PUSH2 0x4E JUMPI DUP1 PUSH4 0x4DD6C730 EQ PUSH2 0x58 JUMPI DUP1 PUSH4 0x4E70B1DC EQ PUSH2 0x76 JUMPI DUP1 PUSH4 0x993A04B7 EQ PUSH2 0x94 JUMPI JUMPDEST PUSH0 DUP1 REVERT JUMPDEST PUSH2 0x56 PUSH2 0xB2 JUMP JUMPDEST STOP JUMPDEST PUSH2 0x60 PUSH2 0xF9 JUMP JUMPDEST PUSH1 0x40 MLOAD PUSH2 0x6D SWAP2 SWAP1 PUSH2 0x240 JUMP JUMPDEST PUSH1 0x40 MLOAD DUP1 SWAP2 SUB SWAP1 RETURN JUMPDEST PUSH2 0x7E PUSH2 0x13B JUMP JUMPDEST PUSH1 0x40 MLOAD PUSH2 0x8B SWAP2 SWAP1 PUSH2 0x278 JUMP JUMPDEST PUSH1 0x40 MLOAD DUP1 SWAP2 SUB SWAP1 RETURN JUMPDEST PUSH2 0x9C PUSH2 0x140 JUMP JUMPDEST PUSH1 0x40 MLOAD PUSH2 0xA9 SWAP2 SWAP1 PUSH2 0x240 JUMP JUMPDEST PUSH1 0x40 MLOAD DUP1 SWAP2 SUB SWAP1 RETURN JUMPDEST PUSH1 0x40 MLOAD DUP1 PUSH1 0x40 ADD PUSH1 0x40 MSTORE DUP1 PUSH1 0x6 DUP2 MSTORE PUSH1 0x20 ADD PUSH32 0x48756E61696E0000000000000000000000000000000000000000000000000000 DUP2 MSTORE POP PUSH1 0x1 SWAP1 DUP2 PUSH2 0xF6 SWAP2 SWAP1 PUSH2 0x4B8 JUMP JUMPDEST POP JUMP JUMPDEST PUSH1 0x60 PUSH0 PUSH1 0x40 MLOAD DUP1 PUSH1 0x40 ADD PUSH1 0x40 MSTORE DUP1 PUSH1 0xC DUP2 MSTORE PUSH1 0x20 ADD PUSH32 0x48756E61696E2050617368610000000000000000000000000000000000000000 DUP2 MSTORE POP SWAP1 POP DUP1 SWAP2 POP POP SWAP1 JUMP JUMPDEST PUSH0 SLOAD DUP2 JUMP JUMPDEST PUSH1 0x60 PUSH1 0x1 DUP1 SLOAD PUSH2 0x14F SWAP1 PUSH2 0x2EB JUMP JUMPDEST DUP1 PUSH1 0x1F ADD PUSH1 0x20 DUP1 SWAP2 DIV MUL PUSH1 0x20 ADD PUSH1 0x40 MLOAD SWAP1 DUP2 ADD PUSH1 0x40 MSTORE DUP1 SWAP3 SWAP2 SWAP1 DUP2 DUP2 MSTORE PUSH1 0x20 ADD DUP3 DUP1 SLOAD PUSH2 0x17B SWAP1 PUSH2 0x2EB JUMP JUMPDEST DUP1 ISZERO PUSH2 0x1C6 JUMPI DUP1 PUSH1 0x1F LT PUSH2 0x19D JUMPI PUSH2 0x100 DUP1 DUP4 SLOAD DIV MUL DUP4 MSTORE SWAP2 PUSH1 0x20 ADD SWAP2 PUSH2 0x1C6 JUMP JUMPDEST DUP3 ADD SWAP2 SWAP1 PUSH0 MSTORE PUSH1 0x20 PUSH0 KECCAK256 SWAP1 JUMPDEST DUP2 SLOAD DUP2 MSTORE SWAP1 PUSH1 0x1 ADD SWAP1 PUSH1 0x20 ADD DUP1 DUP4 GT PUSH2 0x1A9 JUMPI DUP3 SWAP1 SUB PUSH1 0x1F AND DUP3 ADD SWAP2 JUMPDEST POP POP POP POP POP SWAP1 POP SWAP1 JUMP JUMPDEST PUSH0 DUP2 MLOAD SWAP1 POP SWAP2 SWAP1 POP JUMP JUMPDEST PUSH0 DUP3 DUP3 MSTORE PUSH1 0x20 DUP3 ADD SWAP1 POP SWAP3 SWAP2 POP POP JUMP JUMPDEST DUP3 DUP2 DUP4 MCOPY PUSH0 DUP4 DUP4 ADD MSTORE POP POP POP JUMP JUMPDEST PUSH0 PUSH1 0x1F NOT PUSH1 0x1F DUP4 ADD AND SWAP1 POP SWAP2 SWAP1 POP JUMP JUMPDEST PUSH0 PUSH2 0x212 DUP3 PUSH2 0x1D0 JUMP JUMPDEST PUSH2 0x21C DUP2 DUP6 PUSH2 0x1DA JUMP JUMPDEST SWAP4 POP PUSH2 0x22C DUP2 DUP6 PUSH1 0x20 DUP7 ADD PUSH2 0x1EA JUMP JUMPDEST PUSH2 0x235 DUP2 PUSH2 0x1F8 JUMP JUMPDEST DUP5 ADD SWAP2 POP POP SWAP3 SWAP2 POP POP JUMP JUMPDEST PUSH0 PUSH1 0x20 DUP3 ADD SWAP1 POP DUP2 DUP2 SUB PUSH0 DUP4 ADD MSTORE PUSH2 0x258 DUP2 DUP5 PUSH2 0x208 JUMP JUMPDEST SWAP1 POP SWAP3 SWAP2 POP POP JUMP JUMPDEST PUSH0 DUP2 SWAP1 POP SWAP2 SWAP1 POP JUMP JUMPDEST PUSH2 0x272 DUP2 PUSH2 0x260 JUMP JUMPDEST DUP3 MSTORE POP POP JUMP JUMPDEST PUSH0 PUSH1 0x20 DUP3 ADD SWAP1 POP PUSH2 0x28B PUSH0 DUP4 ADD DUP5 PUSH2 0x269 JUMP JUMPDEST SWAP3 SWAP2 POP POP JUMP JUMPDEST PUSH32 0x4E487B7100000000000000000000000000000000000000000000000000000000 PUSH0 MSTORE PUSH1 0x41 PUSH1 0x4 MSTORE PUSH1 0x24 PUSH0 REVERT JUMPDEST PUSH32 0x4E487B7100000000000000000000000000000000000000000000000000000000 PUSH0 MSTORE PUSH1 0x22 PUSH1 0x4 MSTORE PUSH1 0x24 PUSH0 REVERT JUMPDEST PUSH0 PUSH1 0x2 DUP3 DIV SWAP1 POP PUSH1 0x1 DUP3 AND DUP1 PUSH2 0x302 JUMPI PUSH1 0x7F DUP3 AND SWAP2 POP JUMPDEST PUSH1 0x20 DUP3 LT DUP2 SUB PUSH2 0x315 JUMPI PUSH2 0x314 PUSH2 0x2BE JUMP JUMPDEST JUMPDEST POP SWAP2 SWAP1 POP JUMP JUMPDEST PUSH0 DUP2 SWAP1 POP DUP2 PUSH0 MSTORE PUSH1 0x20 PUSH0 KECCAK256 SWAP1 POP SWAP2 SWAP1 POP JUMP JUMPDEST PUSH0 PUSH1 0x20 PUSH1 0x1F DUP4 ADD DIV SWAP1 POP SWAP2 SWAP1 POP JUMP JUMPDEST PUSH0 DUP3 DUP3 SHL SWAP1 POP SWAP3 SWAP2 POP POP JUMP JUMPDEST PUSH0 PUSH1 0x8 DUP4 MUL PUSH2 0x377 PUSH32 0xFFFFFFFFFFFFFFFFFFFFFFFFFFFFFFFFFFFFFFFFFFFFFFFFFFFFFFFFFFFFFFFF DUP3 PUSH2 0x33C JUMP JUMPDEST PUSH2 0x381 DUP7 DUP4 PUSH2 0x33C JUMP JUMPDEST SWAP6 POP DUP1 NOT DUP5 AND SWAP4 POP DUP1 DUP7 AND DUP5 OR SWAP3 POP POP POP SWAP4 SWAP3 POP POP POP JUMP JUMPDEST PUSH0 DUP2 SWAP1 POP SWAP2 SWAP1 POP JUMP JUMPDEST PUSH0 PUSH2 0x3BC PUSH2 0x3B7 PUSH2 0x3B2 DUP5 PUSH2 0x260 JUMP JUMPDEST PUSH2 0x399 JUMP JUMPDEST PUSH2 0x260 JUMP JUMPDEST SWAP1 POP SWAP2 SWAP1 POP JUMP JUMPDEST PUSH0 DUP2 SWAP1 POP SWAP2 SWAP1 POP JUMP JUMPDEST PUSH2 0x3D5 DUP4 PUSH2 0x3A2 JUMP JUMPDEST PUSH2 0x3E9 PUSH2 0x3E1 DUP3 PUSH2 0x3C3 JUMP JUMPDEST DUP5 DUP5 SLOAD PUSH2 0x348 JUMP JUMPDEST DUP3 SSTORE POP POP POP POP JUMP JUMPDEST PUSH0 SWAP1 JUMP JUMPDEST PUSH2 0x3FD PUSH2 0x3F1 JUMP JUMPDEST PUSH2 0x408 DUP2 DUP5 DUP5 PUSH2 0x3CC JUMP JUMPDEST POP POP POP JUMP JUMPDEST JUMPDEST DUP2 DUP2 LT ISZERO PUSH2 0x42B JUMPI PUSH2 0x420 PUSH0 DUP3 PUSH2 0x3F5 JUMP JUMPDEST PUSH1 0x1 DUP2 ADD SWAP1 POP PUSH2 0x40E JUMP JUMPDEST POP POP JUMP JUMPDEST PUSH1 0x1F DUP3 GT ISZERO PUSH2 0x470 JUMPI PUSH2 0x441 DUP2 PUSH2 0x31B JUMP JUMPDEST PUSH2 0x44A DUP5 PUSH2 0x32D JUMP JUMPDEST DUP2 ADD PUSH1 0x20 DUP6 LT ISZERO PUSH2 0x459 JUMPI DUP2 SWAP1 POP JUMPDEST PUSH2 0x46D PUSH2 0x465 DUP6 PUSH2 0x32D JUMP JUMPDEST DUP4 ADD DUP3 PUSH2 0x40D JUMP JUMPDEST POP POP JUMPDEST POP POP POP JUMP JUMPDEST PUSH0 DUP3 DUP3 SHR SWAP1 POP SWAP3 SWAP2 POP POP JUMP JUMPDEST PUSH0 PUSH2 0x490 PUSH0 NOT DUP5 PUSH1 0x8 MUL PUSH2 0x475 JUMP JUMPDEST NOT DUP1 DUP4 AND SWAP2 POP POP SWAP3 SWAP2 POP POP JUMP JUMPDEST PUSH0 PUSH2 0x4A8 DUP4 DUP4 PUSH2 0x481 JUMP JUMPDEST SWAP2 POP DUP3 PUSH1 0x2 MUL DUP3 OR SWAP1 POP SWAP3 SWAP2 POP POP JUMP JUMPDEST PUSH2 0x4C1 DUP3 PUSH2 0x1D0 JUMP JUMPDEST PUSH8 0xFFFFFFFFFFFFFFFF DUP2 GT ISZERO PUSH2 0x4DA JUMPI PUSH2 0x4D9 PUSH2 0x291 JUMP JUMPDEST JUMPDEST PUSH2 0x4E4 DUP3 SLOAD PUSH2 0x2EB JUMP JUMPDEST PUSH2 0x4EF DUP3 DUP3 DUP6 PUSH2 0x42F JUMP JUMPDEST PUSH0 PUSH1 0x20 SWAP1 POP PUSH1 0x1F DUP4 GT PUSH1 0x1 DUP2 EQ PUSH2 0x520 JUMPI PUSH0 DUP5 ISZERO PUSH2 0x50E JUMPI DUP3 DUP8 ADD MLOAD SWAP1 POP JUMPDEST PUSH2 0x518 DUP6 DUP3 PUSH2 0x49D JUMP JUMPDEST DUP7 SSTORE POP PUSH2 0x57F JUMP JUMPDEST PUSH1 0x1F NOT DUP5 AND PUSH2 0x52E DUP7 PUSH2 0x31B JUMP JUMPDEST PUSH0 JUMPDEST DUP3 DUP2 LT ISZERO PUSH2 0x555 JUMPI DUP5 DUP10 ADD MLOAD DUP3 SSTORE PUSH1 0x1 DUP3 ADD SWAP2 POP PUSH1 0x20 DUP6 ADD SWAP5 POP PUSH1 0x20 DUP2 ADD SWAP1 POP PUSH2 0x530 JUMP JUMPDEST DUP7 DUP4 LT ISZERO PUSH2 0x572 JUMPI DUP5 DUP10 ADD MLOAD PUSH2 0x56E PUSH1 0x1F DUP10 AND DUP3 PUSH2 0x481 JUMP JUMPDEST DUP4 SSTORE POP JUMPDEST PUSH1 0x1 PUSH1 0x2 DUP9 MUL ADD DUP9 SSTORE POP POP POP JUMPDEST POP POP POP POP POP POP JUMP INVALID LOG2 PUSH5 0x6970667358 0x22 SLT KECCAK256 PUSH1 0xE2 SWAP1 0xDE 0xEE 0xED SAR 0x28 0xAD 0x23 PUSH18 0x4CED548568B61BE55BECDA4F75419BD4E3DF 0xEB INVALID 0xE2 PUSH5 0x736F6C6343 STOP ADDMOD BYTE STOP CALLER "
		},
		"gasEstimates": {
			"creation": {
				"codeDepositCost": "293800",
				"executionCost": "22442",
				"totalCost": "316242"
			},
			"external": {
				"getter()": "infinite",
				"num()": "2446",
				"purer()": "infinite",
				"setter()": "infinite"
			}
		},
		"methodIdentifiers": {
			"getter()": "993a04b7",
			"num()": "4e70b1dc",
			"purer()": "4dd6c730",
			"setter()": "3f3108f7"
		}
	},
	"abi": [
		{
			"inputs": [],
			"stateMutability": "nonpayable",
			"type": "constructor"
		},
		{
			"inputs": [],
			"name": "getter",
			"outputs": [
				{
					"internalType": "string",
					"name": "",
					"type": "string"
				}
			],
			"stateMutability": "view",
			"type": "function"
		},
		{
			"inputs": [],
			"name": "num",
			"outputs": [
				{
					"internalType": "uint256",
					"name": "",
					"type": "uint256"
				}
			],
			"stateMutability": "view",
			"type": "function"
		},
		{
			"inputs": [],
			"name": "purer",
			"outputs": [
				{
					"internalType": "string",
					"name": "",
					"type": "string"
				}
			],
			"stateMutability": "pure",
			"type": "function"
		},
		{
			"inputs": [],
			"name": "setter",
			"outputs": [],
			"stateMutability": "nonpayable",
			"type": "function"
		}
	]
}