{
	"contracts/event_organisation2.sol": {
		"event_organisation2": {
			"abi": [
				{
					"inputs": [
						{
							"internalType": "string",
							"name": "_organizer_name",
							"type": "string"
						},
						{
							"internalType": "string",
							"name": "_event_name",
							"type": "string"
						},
						{
							"internalType": "uint256",
							"name": "_ticket_price",
							"type": "uint256"
						}
					],
					"name": "addEvents",
					"outputs": [],
					"stateMutability": "nonpayable",
					"type": "function"
				},
				{
					"inputs": [
						{
							"internalType": "address",
							"name": "_organizerAddress",
							"type": "address"
						}
					],
					"name": "getEvents",
					"outputs": [
						{
							"components": [
								{
									"components": [
										{
											"internalType": "string",
											"name": "organizer_name",
											"type": "string"
										},
										{
											"internalType": "string",
											"name": "event_name",
											"type": "string"
										},
										{
											"internalType": "uint256",
											"name": "ticket_price",
											"type": "uint256"
										}
									],
									"internalType": "struct event_organisation2.Event[]",
									"name": "events_array",
									"type": "tuple[]"
								}
							],
							"internalType": "struct event_organisation2.Event_Modal",
							"name": "",
							"type": "tuple"
						}
					],
					"stateMutability": "view",
					"type": "function"
				}
			],
			"devdoc": {
				"kind": "dev",
				"methods": {},
				"version": 1
			},
			"evm": {
				"assembly": "    /* \"contracts/event_organisation2.sol\":62:789  contract event_organisation2 {\r... */\n  mstore(0x40, 0x80)\n  callvalue\n  dup1\n  iszero\n  tag_1\n  jumpi\n  0x00\n  dup1\n  revert\ntag_1:\n  pop\n  dataSize(sub_0)\n  dup1\n  dataOffset(sub_0)\n  0x00\n  codecopy\n  0x00\n  return\nstop\n\nsub_0: assembly {\n        /* \"contracts/event_organisation2.sol\":62:789  contract event_organisation2 {\r... */\n      mstore(0x40, 0x80)\n      callvalue\n      dup1\n      iszero\n      tag_1\n      jumpi\n      0x00\n      dup1\n      revert\n    tag_1:\n      pop\n      jumpi(tag_2, lt(calldatasize, 0x04))\n      shr(0xe0, calldataload(0x00))\n      dup1\n      0x45fb5367\n      eq\n      tag_3\n      jumpi\n      dup1\n      0xa4c8b6e3\n      eq\n      tag_4\n      jumpi\n    tag_2:\n      0x00\n      dup1\n      revert\n        /* \"contracts/event_organisation2.sol\":341:612  function addEvents(string memory _organizer_name,string memory _event_name,uint _ticket_price)\r... */\n    tag_3:\n      tag_5\n      0x04\n      dup1\n      calldatasize\n      sub\n      dup2\n      add\n      swap1\n      tag_6\n      swap2\n      swap1\n      tag_7\n      jump\t// in\n    tag_6:\n      tag_8\n      jump\t// in\n    tag_5:\n      stop\n        /* \"contracts/event_organisation2.sol\":620:770  function getEvents(address _organizerAddress) view public returns(Event_Modal memory)\r... */\n    tag_4:\n      tag_9\n      0x04\n      dup1\n      calldatasize\n      sub\n      dup2\n      add\n      swap1\n      tag_10\n      swap2\n      swap1\n      tag_11\n      jump\t// in\n    tag_10:\n      tag_12\n      jump\t// in\n    tag_9:\n      mload(0x40)\n      tag_13\n      swap2\n      swap1\n      tag_14\n      jump\t// in\n    tag_13:\n      mload(0x40)\n      dup1\n      swap2\n      sub\n      swap1\n      return\n        /* \"contracts/event_organisation2.sol\":341:612  function addEvents(string memory _organizer_name,string memory _event_name,uint _ticket_price)\r... */\n    tag_8:\n        /* \"contracts/event_organisation2.sol\":465:485  Event memory _events */\n      0x00\n        /* \"contracts/event_organisation2.sol\":488:540  Event(_organizer_name , _event_name , _ticket_price) */\n      mload(0x40)\n      dup1\n      0x60\n      add\n      0x40\n      mstore\n      dup1\n        /* \"contracts/event_organisation2.sol\":494:509  _organizer_name */\n      dup6\n        /* \"contracts/event_organisation2.sol\":488:540  Event(_organizer_name , _event_name , _ticket_price) */\n      dup2\n      mstore\n      0x20\n      add\n        /* \"contracts/event_organisation2.sol\":512:523  _event_name */\n      dup5\n        /* \"contracts/event_organisation2.sol\":488:540  Event(_organizer_name , _event_name , _ticket_price) */\n      dup2\n      mstore\n      0x20\n      add\n        /* \"contracts/event_organisation2.sol\":526:539  _ticket_price */\n      dup4\n        /* \"contracts/event_organisation2.sol\":488:540  Event(_organizer_name , _event_name , _ticket_price) */\n      dup2\n      mstore\n      pop\n        /* \"contracts/event_organisation2.sol\":465:540  Event memory _events = Event(_organizer_name , _event_name , _ticket_price) */\n      swap1\n      pop\n        /* \"contracts/event_organisation2.sol\":551:565  events_mapping */\n      0x00\n        /* \"contracts/event_organisation2.sol\":551:577  events_mapping[msg.sender] */\n      dup1\n        /* \"contracts/event_organisation2.sol\":566:576  msg.sender */\n      caller\n        /* \"contracts/event_organisation2.sol\":551:577  events_mapping[msg.sender] */\n      0xffffffffffffffffffffffffffffffffffffffff\n      and\n      0xffffffffffffffffffffffffffffffffffffffff\n      and\n      dup2\n      mstore\n      0x20\n      add\n      swap1\n      dup2\n      mstore\n      0x20\n      add\n      0x00\n      keccak256\n        /* \"contracts/event_organisation2.sol\":551:590  events_mapping[msg.sender].events_array */\n      0x00\n      add\n        /* \"contracts/event_organisation2.sol\":596:603  _events */\n      dup2\n        /* \"contracts/event_organisation2.sol\":551:604  events_mapping[msg.sender].events_array.push(_events) */\n      swap1\n      dup1\n      0x01\n      dup2\n      sload\n      add\n      dup1\n      dup3\n      sstore\n      dup1\n      swap2\n      pop\n      pop\n      0x01\n      swap1\n      sub\n      swap1\n      0x00\n      mstore\n      keccak256(0x00, 0x20)\n      swap1\n      0x03\n      mul\n      add\n      0x00\n      swap1\n      swap2\n      swap1\n      swap2\n      swap1\n      swap2\n      pop\n      0x00\n      dup3\n      add\n      mload\n      dup2\n      0x00\n      add\n      swap1\n      dup1\n      mload\n      swap1\n      0x20\n      add\n      swap1\n      tag_17\n      swap3\n      swap2\n      swap1\n      tag_18\n      jump\t// in\n    tag_17:\n      pop\n      0x20\n      dup3\n      add\n      mload\n      dup2\n      0x01\n      add\n      swap1\n      dup1\n      mload\n      swap1\n      0x20\n      add\n      swap1\n      tag_19\n      swap3\n      swap2\n      swap1\n      tag_18\n      jump\t// in\n    tag_19:\n      pop\n      0x40\n      dup3\n      add\n      mload\n      dup2\n      0x02\n      add\n      sstore\n      pop\n      pop\n        /* \"contracts/event_organisation2.sol\":454:612  {\r... */\n      pop\n        /* \"contracts/event_organisation2.sol\":341:612  function addEvents(string memory _organizer_name,string memory _event_name,uint _ticket_price)\r... */\n      pop\n      pop\n      pop\n      jump\t// out\n        /* \"contracts/event_organisation2.sol\":620:770  function getEvents(address _organizerAddress) view public returns(Event_Modal memory)\r... */\n    tag_12:\n        /* \"contracts/event_organisation2.sol\":686:704  Event_Modal memory */\n      tag_20\n      tag_21\n      jump\t// in\n    tag_20:\n        /* \"contracts/event_organisation2.sol\":729:743  events_mapping */\n      0x00\n        /* \"contracts/event_organisation2.sol\":729:762  events_mapping[_organizerAddress] */\n      dup1\n        /* \"contracts/event_organisation2.sol\":744:761  _organizerAddress */\n      dup4\n        /* \"contracts/event_organisation2.sol\":729:762  events_mapping[_organizerAddress] */\n      0xffffffffffffffffffffffffffffffffffffffff\n      and\n      0xffffffffffffffffffffffffffffffffffffffff\n      and\n      dup2\n      mstore\n      0x20\n      add\n      swap1\n      dup2\n      mstore\n      0x20\n      add\n      0x00\n      keccak256\n        /* \"contracts/event_organisation2.sol\":722:762  return events_mapping[_organizerAddress] */\n      mload(0x40)\n      dup1\n      0x20\n      add\n      0x40\n      mstore\n      swap1\n      dup2\n      0x00\n      dup3\n      add\n      dup1\n      sload\n      dup1\n      0x20\n      mul\n      0x20\n      add\n      mload(0x40)\n      swap1\n      dup2\n      add\n      0x40\n      mstore\n      dup1\n      swap3\n      swap2\n      swap1\n      dup2\n      dup2\n      mstore\n      0x20\n      add\n      0x00\n      swap1\n    tag_23:\n      dup3\n      dup3\n      lt\n      iszero\n      tag_24\n      jumpi\n      dup4\n      dup3\n      swap1\n      0x00\n      mstore\n      keccak256(0x00, 0x20)\n      swap1\n      0x03\n      mul\n      add\n      mload(0x40)\n      dup1\n      0x60\n      add\n      0x40\n      mstore\n      swap1\n      dup2\n      0x00\n      dup3\n      add\n      dup1\n      sload\n      tag_26\n      swap1\n      tag_27\n      jump\t// in\n    tag_26:\n      dup1\n      0x1f\n      add\n      0x20\n      dup1\n      swap2\n      div\n      mul\n      0x20\n      add\n      mload(0x40)\n      swap1\n      dup2\n      add\n      0x40\n      mstore\n      dup1\n      swap3\n      swap2\n      swap1\n      dup2\n      dup2\n      mstore\n      0x20\n      add\n      dup3\n      dup1\n      sload\n      tag_28\n      swap1\n      tag_27\n      jump\t// in\n    tag_28:\n      dup1\n      iszero\n      tag_29\n      jumpi\n      dup1\n      0x1f\n      lt\n      tag_30\n      jumpi\n      0x0100\n      dup1\n      dup4\n      sload\n      div\n      mul\n      dup4\n      mstore\n      swap2\n      0x20\n      add\n      swap2\n      jump(tag_29)\n    tag_30:\n      dup3\n      add\n      swap2\n      swap1\n      0x00\n      mstore\n      keccak256(0x00, 0x20)\n      swap1\n    tag_31:\n      dup2\n      sload\n      dup2\n      mstore\n      swap1\n      0x01\n      add\n      swap1\n      0x20\n      add\n      dup1\n      dup4\n      gt\n      tag_31\n      jumpi\n      dup3\n      swap1\n      sub\n      0x1f\n      and\n      dup3\n      add\n      swap2\n    tag_29:\n      pop\n      pop\n      pop\n      pop\n      pop\n      dup2\n      mstore\n      0x20\n      add\n      0x01\n      dup3\n      add\n      dup1\n      sload\n      tag_32\n      swap1\n      tag_27\n      jump\t// in\n    tag_32:\n      dup1\n      0x1f\n      add\n      0x20\n      dup1\n      swap2\n      div\n      mul\n      0x20\n      add\n      mload(0x40)\n      swap1\n      dup2\n      add\n      0x40\n      mstore\n      dup1\n      swap3\n      swap2\n      swap1\n      dup2\n      dup2\n      mstore\n      0x20\n      add\n      dup3\n      dup1\n      sload\n      tag_33\n      swap1\n      tag_27\n      jump\t// in\n    tag_33:\n      dup1\n      iszero\n      tag_34\n      jumpi\n      dup1\n      0x1f\n      lt\n      tag_35\n      jumpi\n      0x0100\n      dup1\n      dup4\n      sload\n      div\n      mul\n      dup4\n      mstore\n      swap2\n      0x20\n      add\n      swap2\n      jump(tag_34)\n    tag_35:\n      dup3\n      add\n      swap2\n      swap1\n      0x00\n      mstore\n      keccak256(0x00, 0x20)\n      swap1\n    tag_36:\n      dup2\n      sload\n      dup2\n      mstore\n      swap1\n      0x01\n      add\n      swap1\n      0x20\n      add\n      dup1\n      dup4\n      gt\n      tag_36\n      jumpi\n      dup3\n      swap1\n      sub\n      0x1f\n      and\n      dup3\n      add\n      swap2\n    tag_34:\n      pop\n      pop\n      pop\n      pop\n      pop\n      dup2\n      mstore\n      0x20\n      add\n      0x02\n      dup3\n      add\n      sload\n      dup2\n      mstore\n      pop\n      pop\n      dup2\n      mstore\n      0x20\n      add\n      swap1\n      0x01\n      add\n      swap1\n      jump(tag_23)\n    tag_24:\n      pop\n      pop\n      pop\n      pop\n      dup2\n      mstore\n      pop\n      pop\n      swap1\n      pop\n        /* \"contracts/event_organisation2.sol\":620:770  function getEvents(address _organizerAddress) view public returns(Event_Modal memory)\r... */\n      swap2\n      swap1\n      pop\n      jump\t// out\n    tag_18:\n      dup3\n      dup1\n      sload\n      tag_37\n      swap1\n      tag_27\n      jump\t// in\n    tag_37:\n      swap1\n      0x00\n      mstore\n      keccak256(0x00, 0x20)\n      swap1\n      0x1f\n      add\n      0x20\n      swap1\n      div\n      dup2\n      add\n      swap3\n      dup3\n      tag_39\n      jumpi\n      0x00\n      dup6\n      sstore\n      jump(tag_38)\n    tag_39:\n      dup3\n      0x1f\n      lt\n      tag_40\n      jumpi\n      dup1\n      mload\n      not(0xff)\n      and\n      dup4\n      dup1\n      add\n      or\n      dup6\n      sstore\n      jump(tag_38)\n    tag_40:\n      dup3\n      dup1\n      add\n      0x01\n      add\n      dup6\n      sstore\n      dup3\n      iszero\n      tag_38\n      jumpi\n      swap2\n      dup3\n      add\n    tag_41:\n      dup3\n      dup2\n      gt\n      iszero\n      tag_42\n      jumpi\n      dup3\n      mload\n      dup3\n      sstore\n      swap2\n      0x20\n      add\n      swap2\n      swap1\n      0x01\n      add\n      swap1\n      jump(tag_41)\n    tag_42:\n    tag_38:\n      pop\n      swap1\n      pop\n      tag_43\n      swap2\n      swap1\n      tag_44\n      jump\t// in\n    tag_43:\n      pop\n      swap1\n      jump\t// out\n    tag_21:\n      mload(0x40)\n      dup1\n      0x20\n      add\n      0x40\n      mstore\n      dup1\n      0x60\n      dup2\n      mstore\n      pop\n      swap1\n      jump\t// out\n    tag_44:\n    tag_45:\n      dup1\n      dup3\n      gt\n      iszero\n      tag_46\n      jumpi\n      0x00\n      dup2\n      0x00\n      swap1\n      sstore\n      pop\n      0x01\n      add\n      jump(tag_45)\n    tag_46:\n      pop\n      swap1\n      jump\t// out\n        /* \"#utility.yul\":7:419   */\n    tag_48:\n        /* \"#utility.yul\":85:90   */\n      0x00\n        /* \"#utility.yul\":110:176   */\n      tag_50\n        /* \"#utility.yul\":126:175   */\n      tag_51\n        /* \"#utility.yul\":168:174   */\n      dup5\n        /* \"#utility.yul\":126:175   */\n      tag_52\n      jump\t// in\n    tag_51:\n        /* \"#utility.yul\":110:176   */\n      tag_53\n      jump\t// in\n    tag_50:\n        /* \"#utility.yul\":101:176   */\n      swap1\n      pop\n        /* \"#utility.yul\":199:205   */\n      dup3\n        /* \"#utility.yul\":192:197   */\n      dup2\n        /* \"#utility.yul\":185:206   */\n      mstore\n        /* \"#utility.yul\":237:241   */\n      0x20\n        /* \"#utility.yul\":230:235   */\n      dup2\n        /* \"#utility.yul\":226:242   */\n      add\n        /* \"#utility.yul\":275:278   */\n      dup5\n        /* \"#utility.yul\":266:272   */\n      dup5\n        /* \"#utility.yul\":261:264   */\n      dup5\n        /* \"#utility.yul\":257:273   */\n      add\n        /* \"#utility.yul\":254:279   */\n      gt\n        /* \"#utility.yul\":251:363   */\n      iszero\n      tag_54\n      jumpi\n        /* \"#utility.yul\":282:361   */\n      tag_55\n      tag_56\n      jump\t// in\n    tag_55:\n        /* \"#utility.yul\":251:363   */\n    tag_54:\n        /* \"#utility.yul\":372:413   */\n      tag_57\n        /* \"#utility.yul\":406:412   */\n      dup5\n        /* \"#utility.yul\":401:404   */\n      dup3\n        /* \"#utility.yul\":396:399   */\n      dup6\n        /* \"#utility.yul\":372:413   */\n      tag_58\n      jump\t// in\n    tag_57:\n        /* \"#utility.yul\":91:419   */\n      pop\n        /* \"#utility.yul\":7:419   */\n      swap4\n      swap3\n      pop\n      pop\n      pop\n      jump\t// out\n        /* \"#utility.yul\":425:564   */\n    tag_59:\n        /* \"#utility.yul\":471:476   */\n      0x00\n        /* \"#utility.yul\":509:515   */\n      dup2\n        /* \"#utility.yul\":496:516   */\n      calldataload\n        /* \"#utility.yul\":487:516   */\n      swap1\n      pop\n        /* \"#utility.yul\":525:558   */\n      tag_61\n        /* \"#utility.yul\":552:557   */\n      dup2\n        /* \"#utility.yul\":525:558   */\n      tag_62\n      jump\t// in\n    tag_61:\n        /* \"#utility.yul\":425:564   */\n      swap3\n      swap2\n      pop\n      pop\n      jump\t// out\n        /* \"#utility.yul\":584:924   */\n    tag_63:\n        /* \"#utility.yul\":640:645   */\n      0x00\n        /* \"#utility.yul\":689:692   */\n      dup3\n        /* \"#utility.yul\":682:686   */\n      0x1f\n        /* \"#utility.yul\":674:680   */\n      dup4\n        /* \"#utility.yul\":670:687   */\n      add\n        /* \"#utility.yul\":666:693   */\n      slt\n        /* \"#utility.yul\":656:778   */\n      tag_65\n      jumpi\n        /* \"#utility.yul\":697:776   */\n      tag_66\n      tag_67\n      jump\t// in\n    tag_66:\n        /* \"#utility.yul\":656:778   */\n    tag_65:\n        /* \"#utility.yul\":814:820   */\n      dup2\n        /* \"#utility.yul\":801:821   */\n      calldataload\n        /* \"#utility.yul\":839:918   */\n      tag_68\n        /* \"#utility.yul\":914:917   */\n      dup5\n        /* \"#utility.yul\":906:912   */\n      dup3\n        /* \"#utility.yul\":899:903   */\n      0x20\n        /* \"#utility.yul\":891:897   */\n      dup7\n        /* \"#utility.yul\":887:904   */\n      add\n        /* \"#utility.yul\":839:918   */\n      tag_48\n      jump\t// in\n    tag_68:\n        /* \"#utility.yul\":830:918   */\n      swap2\n      pop\n        /* \"#utility.yul\":646:924   */\n      pop\n        /* \"#utility.yul\":584:924   */\n      swap3\n      swap2\n      pop\n      pop\n      jump\t// out\n        /* \"#utility.yul\":930:1069   */\n    tag_69:\n        /* \"#utility.yul\":976:981   */\n      0x00\n        /* \"#utility.yul\":1014:1020   */\n      dup2\n        /* \"#utility.yul\":1001:1021   */\n      calldataload\n        /* \"#utility.yul\":992:1021   */\n      swap1\n      pop\n        /* \"#utility.yul\":1030:1063   */\n      tag_71\n        /* \"#utility.yul\":1057:1062   */\n      dup2\n        /* \"#utility.yul\":1030:1063   */\n      tag_72\n      jump\t// in\n    tag_71:\n        /* \"#utility.yul\":930:1069   */\n      swap3\n      swap2\n      pop\n      pop\n      jump\t// out\n        /* \"#utility.yul\":1075:1404   */\n    tag_11:\n        /* \"#utility.yul\":1134:1140   */\n      0x00\n        /* \"#utility.yul\":1183:1185   */\n      0x20\n        /* \"#utility.yul\":1171:1180   */\n      dup3\n        /* \"#utility.yul\":1162:1169   */\n      dup5\n        /* \"#utility.yul\":1158:1181   */\n      sub\n        /* \"#utility.yul\":1154:1186   */\n      slt\n        /* \"#utility.yul\":1151:1270   */\n      iszero\n      tag_74\n      jumpi\n        /* \"#utility.yul\":1189:1268   */\n      tag_75\n      tag_76\n      jump\t// in\n    tag_75:\n        /* \"#utility.yul\":1151:1270   */\n    tag_74:\n        /* \"#utility.yul\":1309:1310   */\n      0x00\n        /* \"#utility.yul\":1334:1387   */\n      tag_77\n        /* \"#utility.yul\":1379:1386   */\n      dup5\n        /* \"#utility.yul\":1370:1376   */\n      dup3\n        /* \"#utility.yul\":1359:1368   */\n      dup6\n        /* \"#utility.yul\":1355:1377   */\n      add\n        /* \"#utility.yul\":1334:1387   */\n      tag_59\n      jump\t// in\n    tag_77:\n        /* \"#utility.yul\":1324:1387   */\n      swap2\n      pop\n        /* \"#utility.yul\":1280:1397   */\n      pop\n        /* \"#utility.yul\":1075:1404   */\n      swap3\n      swap2\n      pop\n      pop\n      jump\t// out\n        /* \"#utility.yul\":1410:2389   */\n    tag_7:\n        /* \"#utility.yul\":1507:1513   */\n      0x00\n        /* \"#utility.yul\":1515:1521   */\n      dup1\n        /* \"#utility.yul\":1523:1529   */\n      0x00\n        /* \"#utility.yul\":1572:1574   */\n      0x60\n        /* \"#utility.yul\":1560:1569   */\n      dup5\n        /* \"#utility.yul\":1551:1558   */\n      dup7\n        /* \"#utility.yul\":1547:1570   */\n      sub\n        /* \"#utility.yul\":1543:1575   */\n      slt\n        /* \"#utility.yul\":1540:1659   */\n      iszero\n      tag_79\n      jumpi\n        /* \"#utility.yul\":1578:1657   */\n      tag_80\n      tag_76\n      jump\t// in\n    tag_80:\n        /* \"#utility.yul\":1540:1659   */\n    tag_79:\n        /* \"#utility.yul\":1726:1727   */\n      0x00\n        /* \"#utility.yul\":1715:1724   */\n      dup5\n        /* \"#utility.yul\":1711:1728   */\n      add\n        /* \"#utility.yul\":1698:1729   */\n      calldataload\n        /* \"#utility.yul\":1756:1774   */\n      0xffffffffffffffff\n        /* \"#utility.yul\":1748:1754   */\n      dup2\n        /* \"#utility.yul\":1745:1775   */\n      gt\n        /* \"#utility.yul\":1742:1859   */\n      iszero\n      tag_81\n      jumpi\n        /* \"#utility.yul\":1778:1857   */\n      tag_82\n      tag_83\n      jump\t// in\n    tag_82:\n        /* \"#utility.yul\":1742:1859   */\n    tag_81:\n        /* \"#utility.yul\":1883:1946   */\n      tag_84\n        /* \"#utility.yul\":1938:1945   */\n      dup7\n        /* \"#utility.yul\":1929:1935   */\n      dup3\n        /* \"#utility.yul\":1918:1927   */\n      dup8\n        /* \"#utility.yul\":1914:1936   */\n      add\n        /* \"#utility.yul\":1883:1946   */\n      tag_63\n      jump\t// in\n    tag_84:\n        /* \"#utility.yul\":1873:1946   */\n      swap4\n      pop\n        /* \"#utility.yul\":1669:1956   */\n      pop\n        /* \"#utility.yul\":2023:2025   */\n      0x20\n        /* \"#utility.yul\":2012:2021   */\n      dup5\n        /* \"#utility.yul\":2008:2026   */\n      add\n        /* \"#utility.yul\":1995:2027   */\n      calldataload\n        /* \"#utility.yul\":2054:2072   */\n      0xffffffffffffffff\n        /* \"#utility.yul\":2046:2052   */\n      dup2\n        /* \"#utility.yul\":2043:2073   */\n      gt\n        /* \"#utility.yul\":2040:2157   */\n      iszero\n      tag_85\n      jumpi\n        /* \"#utility.yul\":2076:2155   */\n      tag_86\n      tag_83\n      jump\t// in\n    tag_86:\n        /* \"#utility.yul\":2040:2157   */\n    tag_85:\n        /* \"#utility.yul\":2181:2244   */\n      tag_87\n        /* \"#utility.yul\":2236:2243   */\n      dup7\n        /* \"#utility.yul\":2227:2233   */\n      dup3\n        /* \"#utility.yul\":2216:2225   */\n      dup8\n        /* \"#utility.yul\":2212:2234   */\n      add\n        /* \"#utility.yul\":2181:2244   */\n      tag_63\n      jump\t// in\n    tag_87:\n        /* \"#utility.yul\":2171:2244   */\n      swap3\n      pop\n        /* \"#utility.yul\":1966:2254   */\n      pop\n        /* \"#utility.yul\":2293:2295   */\n      0x40\n        /* \"#utility.yul\":2319:2372   */\n      tag_88\n        /* \"#utility.yul\":2364:2371   */\n      dup7\n        /* \"#utility.yul\":2355:2361   */\n      dup3\n        /* \"#utility.yul\":2344:2353   */\n      dup8\n        /* \"#utility.yul\":2340:2362   */\n      add\n        /* \"#utility.yul\":2319:2372   */\n      tag_69\n      jump\t// in\n    tag_88:\n        /* \"#utility.yul\":2309:2372   */\n      swap2\n      pop\n        /* \"#utility.yul\":2264:2382   */\n      pop\n        /* \"#utility.yul\":1410:2389   */\n      swap3\n      pop\n      swap3\n      pop\n      swap3\n      jump\t// out\n        /* \"#utility.yul\":2395:2631   */\n    tag_89:\n        /* \"#utility.yul\":2504:2514   */\n      0x00\n        /* \"#utility.yul\":2539:2625   */\n      tag_91\n        /* \"#utility.yul\":2621:2624   */\n      dup4\n        /* \"#utility.yul\":2613:2619   */\n      dup4\n        /* \"#utility.yul\":2539:2625   */\n      tag_92\n      jump\t// in\n    tag_91:\n        /* \"#utility.yul\":2525:2625   */\n      swap1\n      pop\n        /* \"#utility.yul\":2395:2631   */\n      swap3\n      swap2\n      pop\n      pop\n      jump\t// out\n        /* \"#utility.yul\":2717:3768   */\n    tag_93:\n        /* \"#utility.yul\":2866:2869   */\n      0x00\n        /* \"#utility.yul\":2895:2969   */\n      tag_95\n        /* \"#utility.yul\":2963:2968   */\n      dup3\n        /* \"#utility.yul\":2895:2969   */\n      tag_96\n      jump\t// in\n    tag_95:\n        /* \"#utility.yul\":2985:3081   */\n      tag_97\n        /* \"#utility.yul\":3074:3080   */\n      dup2\n        /* \"#utility.yul\":3069:3072   */\n      dup6\n        /* \"#utility.yul\":2985:3081   */\n      tag_98\n      jump\t// in\n    tag_97:\n        /* \"#utility.yul\":2978:3081   */\n      swap4\n      pop\n        /* \"#utility.yul\":3107:3110   */\n      dup4\n        /* \"#utility.yul\":3152:3156   */\n      0x20\n        /* \"#utility.yul\":3144:3150   */\n      dup3\n        /* \"#utility.yul\":3140:3157   */\n      mul\n        /* \"#utility.yul\":3135:3138   */\n      dup6\n        /* \"#utility.yul\":3131:3158   */\n      add\n        /* \"#utility.yul\":3182:3258   */\n      tag_99\n        /* \"#utility.yul\":3252:3257   */\n      dup6\n        /* \"#utility.yul\":3182:3258   */\n      tag_100\n      jump\t// in\n    tag_99:\n        /* \"#utility.yul\":3281:3288   */\n      dup1\n        /* \"#utility.yul\":3312:3313   */\n      0x00\n        /* \"#utility.yul\":3297:3723   */\n    tag_101:\n        /* \"#utility.yul\":3322:3328   */\n      dup6\n        /* \"#utility.yul\":3319:3320   */\n      dup2\n        /* \"#utility.yul\":3316:3329   */\n      lt\n        /* \"#utility.yul\":3297:3723   */\n      iszero\n      tag_103\n      jumpi\n        /* \"#utility.yul\":3393:3402   */\n      dup5\n        /* \"#utility.yul\":3387:3391   */\n      dup5\n        /* \"#utility.yul\":3383:3403   */\n      sub\n        /* \"#utility.yul\":3378:3381   */\n      dup10\n        /* \"#utility.yul\":3371:3404   */\n      mstore\n        /* \"#utility.yul\":3444:3450   */\n      dup2\n        /* \"#utility.yul\":3438:3451   */\n      mload\n        /* \"#utility.yul\":3472:3576   */\n      tag_104\n        /* \"#utility.yul\":3571:3575   */\n      dup6\n        /* \"#utility.yul\":3556:3569   */\n      dup3\n        /* \"#utility.yul\":3472:3576   */\n      tag_89\n      jump\t// in\n    tag_104:\n        /* \"#utility.yul\":3464:3576   */\n      swap5\n      pop\n        /* \"#utility.yul\":3599:3679   */\n      tag_105\n        /* \"#utility.yul\":3672:3678   */\n      dup4\n        /* \"#utility.yul\":3599:3679   */\n      tag_106\n      jump\t// in\n    tag_105:\n        /* \"#utility.yul\":3589:3679   */\n      swap3\n      pop\n        /* \"#utility.yul\":3708:3712   */\n      0x20\n        /* \"#utility.yul\":3703:3706   */\n      dup11\n        /* \"#utility.yul\":3699:3713   */\n      add\n        /* \"#utility.yul\":3692:3713   */\n      swap10\n      pop\n        /* \"#utility.yul\":3357:3723   */\n      pop\n        /* \"#utility.yul\":3344:3345   */\n      0x01\n        /* \"#utility.yul\":3341:3342   */\n      dup2\n        /* \"#utility.yul\":3337:3346   */\n      add\n        /* \"#utility.yul\":3332:3346   */\n      swap1\n      pop\n        /* \"#utility.yul\":3297:3723   */\n      jump(tag_101)\n    tag_103:\n        /* \"#utility.yul\":3301:3315   */\n      pop\n        /* \"#utility.yul\":3739:3743   */\n      dup3\n        /* \"#utility.yul\":3732:3743   */\n      swap8\n      pop\n        /* \"#utility.yul\":3759:3762   */\n      dup8\n        /* \"#utility.yul\":3752:3762   */\n      swap6\n      pop\n        /* \"#utility.yul\":2871:3768   */\n      pop\n      pop\n      pop\n      pop\n      pop\n        /* \"#utility.yul\":2717:3768   */\n      swap3\n      swap2\n      pop\n      pop\n      jump\t// out\n        /* \"#utility.yul\":3774:4118   */\n    tag_107:\n        /* \"#utility.yul\":3852:3855   */\n      0x00\n        /* \"#utility.yul\":3880:3919   */\n      tag_109\n        /* \"#utility.yul\":3913:3918   */\n      dup3\n        /* \"#utility.yul\":3880:3919   */\n      tag_110\n      jump\t// in\n    tag_109:\n        /* \"#utility.yul\":3935:3996   */\n      tag_111\n        /* \"#utility.yul\":3989:3995   */\n      dup2\n        /* \"#utility.yul\":3984:3987   */\n      dup6\n        /* \"#utility.yul\":3935:3996   */\n      tag_112\n      jump\t// in\n    tag_111:\n        /* \"#utility.yul\":3928:3996   */\n      swap4\n      pop\n        /* \"#utility.yul\":4005:4057   */\n      tag_113\n        /* \"#utility.yul\":4050:4056   */\n      dup2\n        /* \"#utility.yul\":4045:4048   */\n      dup6\n        /* \"#utility.yul\":4038:4042   */\n      0x20\n        /* \"#utility.yul\":4031:4036   */\n      dup7\n        /* \"#utility.yul\":4027:4043   */\n      add\n        /* \"#utility.yul\":4005:4057   */\n      tag_114\n      jump\t// in\n    tag_113:\n        /* \"#utility.yul\":4082:4111   */\n      tag_115\n        /* \"#utility.yul\":4104:4110   */\n      dup2\n        /* \"#utility.yul\":4082:4111   */\n      tag_116\n      jump\t// in\n    tag_115:\n        /* \"#utility.yul\":4077:4080   */\n      dup5\n        /* \"#utility.yul\":4073:4112   */\n      add\n        /* \"#utility.yul\":4066:4112   */\n      swap2\n      pop\n        /* \"#utility.yul\":3856:4118   */\n      pop\n        /* \"#utility.yul\":3774:4118   */\n      swap3\n      swap2\n      pop\n      pop\n      jump\t// out\n        /* \"#utility.yul\":4200:5055   */\n    tag_92:\n        /* \"#utility.yul\":4299:4302   */\n      0x00\n        /* \"#utility.yul\":4335:4339   */\n      0x60\n        /* \"#utility.yul\":4330:4333   */\n      dup4\n        /* \"#utility.yul\":4326:4340   */\n      add\n        /* \"#utility.yul\":4432:4436   */\n      0x00\n        /* \"#utility.yul\":4425:4430   */\n      dup4\n        /* \"#utility.yul\":4421:4437   */\n      add\n        /* \"#utility.yul\":4415:4438   */\n      mload\n        /* \"#utility.yul\":4485:4488   */\n      dup5\n        /* \"#utility.yul\":4479:4483   */\n      dup3\n        /* \"#utility.yul\":4475:4489   */\n      sub\n        /* \"#utility.yul\":4468:4472   */\n      0x00\n        /* \"#utility.yul\":4463:4466   */\n      dup7\n        /* \"#utility.yul\":4459:4473   */\n      add\n        /* \"#utility.yul\":4452:4490   */\n      mstore\n        /* \"#utility.yul\":4511:4584   */\n      tag_118\n        /* \"#utility.yul\":4579:4583   */\n      dup3\n        /* \"#utility.yul\":4565:4577   */\n      dup3\n        /* \"#utility.yul\":4511:4584   */\n      tag_107\n      jump\t// in\n    tag_118:\n        /* \"#utility.yul\":4503:4584   */\n      swap2\n      pop\n        /* \"#utility.yul\":4350:4595   */\n      pop\n        /* \"#utility.yul\":4683:4687   */\n      0x20\n        /* \"#utility.yul\":4676:4681   */\n      dup4\n        /* \"#utility.yul\":4672:4688   */\n      add\n        /* \"#utility.yul\":4666:4689   */\n      mload\n        /* \"#utility.yul\":4736:4739   */\n      dup5\n        /* \"#utility.yul\":4730:4734   */\n      dup3\n        /* \"#utility.yul\":4726:4740   */\n      sub\n        /* \"#utility.yul\":4719:4723   */\n      0x20\n        /* \"#utility.yul\":4714:4717   */\n      dup7\n        /* \"#utility.yul\":4710:4724   */\n      add\n        /* \"#utility.yul\":4703:4741   */\n      mstore\n        /* \"#utility.yul\":4762:4835   */\n      tag_119\n        /* \"#utility.yul\":4830:4834   */\n      dup3\n        /* \"#utility.yul\":4816:4828   */\n      dup3\n        /* \"#utility.yul\":4762:4835   */\n      tag_107\n      jump\t// in\n    tag_119:\n        /* \"#utility.yul\":4754:4835   */\n      swap2\n      pop\n        /* \"#utility.yul\":4605:4846   */\n      pop\n        /* \"#utility.yul\":4936:4940   */\n      0x40\n        /* \"#utility.yul\":4929:4934   */\n      dup4\n        /* \"#utility.yul\":4925:4941   */\n      add\n        /* \"#utility.yul\":4919:4942   */\n      mload\n        /* \"#utility.yul\":4955:5018   */\n      tag_120\n        /* \"#utility.yul\":5012:5016   */\n      0x40\n        /* \"#utility.yul\":5007:5010   */\n      dup7\n        /* \"#utility.yul\":5003:5017   */\n      add\n        /* \"#utility.yul\":4989:5001   */\n      dup3\n        /* \"#utility.yul\":4955:5018   */\n      tag_121\n      jump\t// in\n    tag_120:\n        /* \"#utility.yul\":4856:5028   */\n      pop\n        /* \"#utility.yul\":5045:5049   */\n      dup1\n        /* \"#utility.yul\":5038:5049   */\n      swap2\n      pop\n        /* \"#utility.yul\":4304:5055   */\n      pop\n        /* \"#utility.yul\":4200:5055   */\n      swap3\n      swap2\n      pop\n      pop\n      jump\t// out\n        /* \"#utility.yul\":5149:5663   */\n    tag_122:\n        /* \"#utility.yul\":5272:5275   */\n      0x00\n        /* \"#utility.yul\":5308:5312   */\n      0x20\n        /* \"#utility.yul\":5303:5306   */\n      dup4\n        /* \"#utility.yul\":5299:5313   */\n      add\n        /* \"#utility.yul\":5403:5407   */\n      0x00\n        /* \"#utility.yul\":5396:5401   */\n      dup4\n        /* \"#utility.yul\":5392:5408   */\n      add\n        /* \"#utility.yul\":5386:5409   */\n      mload\n        /* \"#utility.yul\":5456:5459   */\n      dup5\n        /* \"#utility.yul\":5450:5454   */\n      dup3\n        /* \"#utility.yul\":5446:5460   */\n      sub\n        /* \"#utility.yul\":5439:5443   */\n      0x00\n        /* \"#utility.yul\":5434:5437   */\n      dup7\n        /* \"#utility.yul\":5430:5444   */\n      add\n        /* \"#utility.yul\":5423:5461   */\n      mstore\n        /* \"#utility.yul\":5482:5625   */\n      tag_124\n        /* \"#utility.yul\":5620:5624   */\n      dup3\n        /* \"#utility.yul\":5606:5618   */\n      dup3\n        /* \"#utility.yul\":5482:5625   */\n      tag_93\n      jump\t// in\n    tag_124:\n        /* \"#utility.yul\":5474:5625   */\n      swap2\n      pop\n        /* \"#utility.yul\":5323:5636   */\n      pop\n        /* \"#utility.yul\":5653:5657   */\n      dup1\n        /* \"#utility.yul\":5646:5657   */\n      swap2\n      pop\n        /* \"#utility.yul\":5277:5663   */\n      pop\n        /* \"#utility.yul\":5149:5663   */\n      swap3\n      swap2\n      pop\n      pop\n      jump\t// out\n        /* \"#utility.yul\":5669:5777   */\n    tag_121:\n        /* \"#utility.yul\":5746:5770   */\n      tag_126\n        /* \"#utility.yul\":5764:5769   */\n      dup2\n        /* \"#utility.yul\":5746:5770   */\n      tag_127\n      jump\t// in\n    tag_126:\n        /* \"#utility.yul\":5741:5744   */\n      dup3\n        /* \"#utility.yul\":5734:5771   */\n      mstore\n        /* \"#utility.yul\":5669:5777   */\n      pop\n      pop\n      jump\t// out\n        /* \"#utility.yul\":5783:6164   */\n    tag_14:\n        /* \"#utility.yul\":5930:5934   */\n      0x00\n        /* \"#utility.yul\":5968:5970   */\n      0x20\n        /* \"#utility.yul\":5957:5966   */\n      dup3\n        /* \"#utility.yul\":5953:5971   */\n      add\n        /* \"#utility.yul\":5945:5971   */\n      swap1\n      pop\n        /* \"#utility.yul\":6017:6026   */\n      dup2\n        /* \"#utility.yul\":6011:6015   */\n      dup2\n        /* \"#utility.yul\":6007:6027   */\n      sub\n        /* \"#utility.yul\":6003:6004   */\n      0x00\n        /* \"#utility.yul\":5992:6001   */\n      dup4\n        /* \"#utility.yul\":5988:6005   */\n      add\n        /* \"#utility.yul\":5981:6028   */\n      mstore\n        /* \"#utility.yul\":6045:6157   */\n      tag_129\n        /* \"#utility.yul\":6152:6156   */\n      dup2\n        /* \"#utility.yul\":6143:6149   */\n      dup5\n        /* \"#utility.yul\":6045:6157   */\n      tag_122\n      jump\t// in\n    tag_129:\n        /* \"#utility.yul\":6037:6157   */\n      swap1\n      pop\n        /* \"#utility.yul\":5783:6164   */\n      swap3\n      swap2\n      pop\n      pop\n      jump\t// out\n        /* \"#utility.yul\":6170:6299   */\n    tag_53:\n        /* \"#utility.yul\":6204:6210   */\n      0x00\n        /* \"#utility.yul\":6231:6251   */\n      tag_131\n      tag_132\n      jump\t// in\n    tag_131:\n        /* \"#utility.yul\":6221:6251   */\n      swap1\n      pop\n        /* \"#utility.yul\":6260:6293   */\n      tag_133\n        /* \"#utility.yul\":6288:6292   */\n      dup3\n        /* \"#utility.yul\":6280:6286   */\n      dup3\n        /* \"#utility.yul\":6260:6293   */\n      tag_134\n      jump\t// in\n    tag_133:\n        /* \"#utility.yul\":6170:6299   */\n      swap2\n      swap1\n      pop\n      jump\t// out\n        /* \"#utility.yul\":6305:6380   */\n    tag_132:\n        /* \"#utility.yul\":6338:6344   */\n      0x00\n        /* \"#utility.yul\":6371:6373   */\n      0x40\n        /* \"#utility.yul\":6365:6374   */\n      mload\n        /* \"#utility.yul\":6355:6374   */\n      swap1\n      pop\n        /* \"#utility.yul\":6305:6380   */\n      swap1\n      jump\t// out\n        /* \"#utility.yul\":6386:6694   */\n    tag_52:\n        /* \"#utility.yul\":6448:6452   */\n      0x00\n        /* \"#utility.yul\":6538:6556   */\n      0xffffffffffffffff\n        /* \"#utility.yul\":6530:6536   */\n      dup3\n        /* \"#utility.yul\":6527:6557   */\n      gt\n        /* \"#utility.yul\":6524:6580   */\n      iszero\n      tag_137\n      jumpi\n        /* \"#utility.yul\":6560:6578   */\n      tag_138\n      tag_139\n      jump\t// in\n    tag_138:\n        /* \"#utility.yul\":6524:6580   */\n    tag_137:\n        /* \"#utility.yul\":6598:6627   */\n      tag_140\n        /* \"#utility.yul\":6620:6626   */\n      dup3\n        /* \"#utility.yul\":6598:6627   */\n      tag_116\n      jump\t// in\n    tag_140:\n        /* \"#utility.yul\":6590:6627   */\n      swap1\n      pop\n        /* \"#utility.yul\":6682:6686   */\n      0x20\n        /* \"#utility.yul\":6676:6680   */\n      dup2\n        /* \"#utility.yul\":6672:6687   */\n      add\n        /* \"#utility.yul\":6664:6687   */\n      swap1\n      pop\n        /* \"#utility.yul\":6386:6694   */\n      swap2\n      swap1\n      pop\n      jump\t// out\n        /* \"#utility.yul\":6700:6852   */\n    tag_100:\n        /* \"#utility.yul\":6787:6791   */\n      0x00\n        /* \"#utility.yul\":6810:6813   */\n      dup2\n        /* \"#utility.yul\":6802:6813   */\n      swap1\n      pop\n        /* \"#utility.yul\":6840:6844   */\n      0x20\n        /* \"#utility.yul\":6835:6838   */\n      dup3\n        /* \"#utility.yul\":6831:6845   */\n      add\n        /* \"#utility.yul\":6823:6845   */\n      swap1\n      pop\n        /* \"#utility.yul\":6700:6852   */\n      swap2\n      swap1\n      pop\n      jump\t// out\n        /* \"#utility.yul\":6858:6992   */\n    tag_96:\n        /* \"#utility.yul\":6945:6951   */\n      0x00\n        /* \"#utility.yul\":6979:6984   */\n      dup2\n        /* \"#utility.yul\":6973:6985   */\n      mload\n        /* \"#utility.yul\":6963:6985   */\n      swap1\n      pop\n        /* \"#utility.yul\":6858:6992   */\n      swap2\n      swap1\n      pop\n      jump\t// out\n        /* \"#utility.yul\":6998:7097   */\n    tag_110:\n        /* \"#utility.yul\":7050:7056   */\n      0x00\n        /* \"#utility.yul\":7084:7089   */\n      dup2\n        /* \"#utility.yul\":7078:7090   */\n      mload\n        /* \"#utility.yul\":7068:7090   */\n      swap1\n      pop\n        /* \"#utility.yul\":6998:7097   */\n      swap2\n      swap1\n      pop\n      jump\t// out\n        /* \"#utility.yul\":7103:7236   */\n    tag_106:\n        /* \"#utility.yul\":7193:7197   */\n      0x00\n        /* \"#utility.yul\":7225:7229   */\n      0x20\n        /* \"#utility.yul\":7220:7223   */\n      dup3\n        /* \"#utility.yul\":7216:7230   */\n      add\n        /* \"#utility.yul\":7208:7230   */\n      swap1\n      pop\n        /* \"#utility.yul\":7103:7236   */\n      swap2\n      swap1\n      pop\n      jump\t// out\n        /* \"#utility.yul\":7242:7436   */\n    tag_98:\n        /* \"#utility.yul\":7351:7362   */\n      0x00\n        /* \"#utility.yul\":7385:7391   */\n      dup3\n        /* \"#utility.yul\":7380:7383   */\n      dup3\n        /* \"#utility.yul\":7373:7392   */\n      mstore\n        /* \"#utility.yul\":7425:7429   */\n      0x20\n        /* \"#utility.yul\":7420:7423   */\n      dup3\n        /* \"#utility.yul\":7416:7430   */\n      add\n        /* \"#utility.yul\":7401:7430   */\n      swap1\n      pop\n        /* \"#utility.yul\":7242:7436   */\n      swap3\n      swap2\n      pop\n      pop\n      jump\t// out\n        /* \"#utility.yul\":7442:7601   */\n    tag_112:\n        /* \"#utility.yul\":7516:7527   */\n      0x00\n        /* \"#utility.yul\":7550:7556   */\n      dup3\n        /* \"#utility.yul\":7545:7548   */\n      dup3\n        /* \"#utility.yul\":7538:7557   */\n      mstore\n        /* \"#utility.yul\":7590:7594   */\n      0x20\n        /* \"#utility.yul\":7585:7588   */\n      dup3\n        /* \"#utility.yul\":7581:7595   */\n      add\n        /* \"#utility.yul\":7566:7595   */\n      swap1\n      pop\n        /* \"#utility.yul\":7442:7601   */\n      swap3\n      swap2\n      pop\n      pop\n      jump\t// out\n        /* \"#utility.yul\":7607:7703   */\n    tag_147:\n        /* \"#utility.yul\":7644:7651   */\n      0x00\n        /* \"#utility.yul\":7673:7697   */\n      tag_149\n        /* \"#utility.yul\":7691:7696   */\n      dup3\n        /* \"#utility.yul\":7673:7697   */\n      tag_150\n      jump\t// in\n    tag_149:\n        /* \"#utility.yul\":7662:7697   */\n      swap1\n      pop\n        /* \"#utility.yul\":7607:7703   */\n      swap2\n      swap1\n      pop\n      jump\t// out\n        /* \"#utility.yul\":7709:7835   */\n    tag_150:\n        /* \"#utility.yul\":7746:7753   */\n      0x00\n        /* \"#utility.yul\":7786:7828   */\n      0xffffffffffffffffffffffffffffffffffffffff\n        /* \"#utility.yul\":7779:7784   */\n      dup3\n        /* \"#utility.yul\":7775:7829   */\n      and\n        /* \"#utility.yul\":7764:7829   */\n      swap1\n      pop\n        /* \"#utility.yul\":7709:7835   */\n      swap2\n      swap1\n      pop\n      jump\t// out\n        /* \"#utility.yul\":7841:7918   */\n    tag_127:\n        /* \"#utility.yul\":7878:7885   */\n      0x00\n        /* \"#utility.yul\":7907:7912   */\n      dup2\n        /* \"#utility.yul\":7896:7912   */\n      swap1\n      pop\n        /* \"#utility.yul\":7841:7918   */\n      swap2\n      swap1\n      pop\n      jump\t// out\n        /* \"#utility.yul\":7924:8078   */\n    tag_58:\n        /* \"#utility.yul\":8008:8014   */\n      dup3\n        /* \"#utility.yul\":8003:8006   */\n      dup2\n        /* \"#utility.yul\":7998:8001   */\n      dup4\n        /* \"#utility.yul\":7985:8015   */\n      calldatacopy\n        /* \"#utility.yul\":8070:8071   */\n      0x00\n        /* \"#utility.yul\":8061:8067   */\n      dup4\n        /* \"#utility.yul\":8056:8059   */\n      dup4\n        /* \"#utility.yul\":8052:8068   */\n      add\n        /* \"#utility.yul\":8045:8072   */\n      mstore\n        /* \"#utility.yul\":7924:8078   */\n      pop\n      pop\n      pop\n      jump\t// out\n        /* \"#utility.yul\":8084:8391   */\n    tag_114:\n        /* \"#utility.yul\":8152:8153   */\n      0x00\n        /* \"#utility.yul\":8162:8275   */\n    tag_155:\n        /* \"#utility.yul\":8176:8182   */\n      dup4\n        /* \"#utility.yul\":8173:8174   */\n      dup2\n        /* \"#utility.yul\":8170:8183   */\n      lt\n        /* \"#utility.yul\":8162:8275   */\n      iszero\n      tag_157\n      jumpi\n        /* \"#utility.yul\":8261:8262   */\n      dup1\n        /* \"#utility.yul\":8256:8259   */\n      dup3\n        /* \"#utility.yul\":8252:8263   */\n      add\n        /* \"#utility.yul\":8246:8264   */\n      mload\n        /* \"#utility.yul\":8242:8243   */\n      dup2\n        /* \"#utility.yul\":8237:8240   */\n      dup5\n        /* \"#utility.yul\":8233:8244   */\n      add\n        /* \"#utility.yul\":8226:8265   */\n      mstore\n        /* \"#utility.yul\":8198:8200   */\n      0x20\n        /* \"#utility.yul\":8195:8196   */\n      dup2\n        /* \"#utility.yul\":8191:8201   */\n      add\n        /* \"#utility.yul\":8186:8201   */\n      swap1\n      pop\n        /* \"#utility.yul\":8162:8275   */\n      jump(tag_155)\n    tag_157:\n        /* \"#utility.yul\":8293:8299   */\n      dup4\n        /* \"#utility.yul\":8290:8291   */\n      dup2\n        /* \"#utility.yul\":8287:8300   */\n      gt\n        /* \"#utility.yul\":8284:8385   */\n      iszero\n      tag_158\n      jumpi\n        /* \"#utility.yul\":8373:8374   */\n      0x00\n        /* \"#utility.yul\":8364:8370   */\n      dup5\n        /* \"#utility.yul\":8359:8362   */\n      dup5\n        /* \"#utility.yul\":8355:8371   */\n      add\n        /* \"#utility.yul\":8348:8375   */\n      mstore\n        /* \"#utility.yul\":8284:8385   */\n    tag_158:\n        /* \"#utility.yul\":8133:8391   */\n      pop\n        /* \"#utility.yul\":8084:8391   */\n      pop\n      pop\n      pop\n      jump\t// out\n        /* \"#utility.yul\":8397:8717   */\n    tag_27:\n        /* \"#utility.yul\":8441:8447   */\n      0x00\n        /* \"#utility.yul\":8478:8479   */\n      0x02\n        /* \"#utility.yul\":8472:8476   */\n      dup3\n        /* \"#utility.yul\":8468:8480   */\n      div\n        /* \"#utility.yul\":8458:8480   */\n      swap1\n      pop\n        /* \"#utility.yul\":8525:8526   */\n      0x01\n        /* \"#utility.yul\":8519:8523   */\n      dup3\n        /* \"#utility.yul\":8515:8527   */\n      and\n        /* \"#utility.yul\":8546:8564   */\n      dup1\n        /* \"#utility.yul\":8536:8617   */\n      tag_160\n      jumpi\n        /* \"#utility.yul\":8602:8606   */\n      0x7f\n        /* \"#utility.yul\":8594:8600   */\n      dup3\n        /* \"#utility.yul\":8590:8607   */\n      and\n        /* \"#utility.yul\":8580:8607   */\n      swap2\n      pop\n        /* \"#utility.yul\":8536:8617   */\n    tag_160:\n        /* \"#utility.yul\":8664:8666   */\n      0x20\n        /* \"#utility.yul\":8656:8662   */\n      dup3\n        /* \"#utility.yul\":8653:8667   */\n      lt\n        /* \"#utility.yul\":8633:8651   */\n      dup2\n        /* \"#utility.yul\":8630:8668   */\n      eq\n        /* \"#utility.yul\":8627:8711   */\n      iszero\n      tag_161\n      jumpi\n        /* \"#utility.yul\":8683:8701   */\n      tag_162\n      tag_163\n      jump\t// in\n    tag_162:\n        /* \"#utility.yul\":8627:8711   */\n    tag_161:\n        /* \"#utility.yul\":8448:8717   */\n      pop\n        /* \"#utility.yul\":8397:8717   */\n      swap2\n      swap1\n      pop\n      jump\t// out\n        /* \"#utility.yul\":8723:9004   */\n    tag_134:\n        /* \"#utility.yul\":8806:8833   */\n      tag_165\n        /* \"#utility.yul\":8828:8832   */\n      dup3\n        /* \"#utility.yul\":8806:8833   */\n      tag_116\n      jump\t// in\n    tag_165:\n        /* \"#utility.yul\":8798:8804   */\n      dup2\n        /* \"#utility.yul\":8794:8834   */\n      add\n        /* \"#utility.yul\":8936:8942   */\n      dup2\n        /* \"#utility.yul\":8924:8934   */\n      dup2\n        /* \"#utility.yul\":8921:8943   */\n      lt\n        /* \"#utility.yul\":8900:8918   */\n      0xffffffffffffffff\n        /* \"#utility.yul\":8888:8898   */\n      dup3\n        /* \"#utility.yul\":8885:8919   */\n      gt\n        /* \"#utility.yul\":8882:8944   */\n      or\n        /* \"#utility.yul\":8879:8967   */\n      iszero\n      tag_166\n      jumpi\n        /* \"#utility.yul\":8947:8965   */\n      tag_167\n      tag_139\n      jump\t// in\n    tag_167:\n        /* \"#utility.yul\":8879:8967   */\n    tag_166:\n        /* \"#utility.yul\":8987:8997   */\n      dup1\n        /* \"#utility.yul\":8983:8985   */\n      0x40\n        /* \"#utility.yul\":8976:8998   */\n      mstore\n        /* \"#utility.yul\":8766:9004   */\n      pop\n        /* \"#utility.yul\":8723:9004   */\n      pop\n      pop\n      jump\t// out\n        /* \"#utility.yul\":9010:9190   */\n    tag_163:\n        /* \"#utility.yul\":9058:9135   */\n      0x4e487b7100000000000000000000000000000000000000000000000000000000\n        /* \"#utility.yul\":9055:9056   */\n      0x00\n        /* \"#utility.yul\":9048:9136   */\n      mstore\n        /* \"#utility.yul\":9155:9159   */\n      0x22\n        /* \"#utility.yul\":9152:9153   */\n      0x04\n        /* \"#utility.yul\":9145:9160   */\n      mstore\n        /* \"#utility.yul\":9179:9183   */\n      0x24\n        /* \"#utility.yul\":9176:9177   */\n      0x00\n        /* \"#utility.yul\":9169:9184   */\n      revert\n        /* \"#utility.yul\":9196:9376   */\n    tag_139:\n        /* \"#utility.yul\":9244:9321   */\n      0x4e487b7100000000000000000000000000000000000000000000000000000000\n        /* \"#utility.yul\":9241:9242   */\n      0x00\n        /* \"#utility.yul\":9234:9322   */\n      mstore\n        /* \"#utility.yul\":9341:9345   */\n      0x41\n        /* \"#utility.yul\":9338:9339   */\n      0x04\n        /* \"#utility.yul\":9331:9346   */\n      mstore\n        /* \"#utility.yul\":9365:9369   */\n      0x24\n        /* \"#utility.yul\":9362:9363   */\n      0x00\n        /* \"#utility.yul\":9355:9370   */\n      revert\n        /* \"#utility.yul\":9382:9499   */\n    tag_67:\n        /* \"#utility.yul\":9491:9492   */\n      0x00\n        /* \"#utility.yul\":9488:9489   */\n      dup1\n        /* \"#utility.yul\":9481:9493   */\n      revert\n        /* \"#utility.yul\":9505:9622   */\n    tag_56:\n        /* \"#utility.yul\":9614:9615   */\n      0x00\n        /* \"#utility.yul\":9611:9612   */\n      dup1\n        /* \"#utility.yul\":9604:9616   */\n      revert\n        /* \"#utility.yul\":9628:9745   */\n    tag_83:\n        /* \"#utility.yul\":9737:9738   */\n      0x00\n        /* \"#utility.yul\":9734:9735   */\n      dup1\n        /* \"#utility.yul\":9727:9739   */\n      revert\n        /* \"#utility.yul\":9751:9868   */\n    tag_76:\n        /* \"#utility.yul\":9860:9861   */\n      0x00\n        /* \"#utility.yul\":9857:9858   */\n      dup1\n        /* \"#utility.yul\":9850:9862   */\n      revert\n        /* \"#utility.yul\":9874:9976   */\n    tag_116:\n        /* \"#utility.yul\":9915:9921   */\n      0x00\n        /* \"#utility.yul\":9966:9968   */\n      0x1f\n        /* \"#utility.yul\":9962:9969   */\n      not\n        /* \"#utility.yul\":9957:9959   */\n      0x1f\n        /* \"#utility.yul\":9950:9955   */\n      dup4\n        /* \"#utility.yul\":9946:9960   */\n      add\n        /* \"#utility.yul\":9942:9970   */\n      and\n        /* \"#utility.yul\":9932:9970   */\n      swap1\n      pop\n        /* \"#utility.yul\":9874:9976   */\n      swap2\n      swap1\n      pop\n      jump\t// out\n        /* \"#utility.yul\":9982:10104   */\n    tag_62:\n        /* \"#utility.yul\":10055:10079   */\n      tag_176\n        /* \"#utility.yul\":10073:10078   */\n      dup2\n        /* \"#utility.yul\":10055:10079   */\n      tag_147\n      jump\t// in\n    tag_176:\n        /* \"#utility.yul\":10048:10053   */\n      dup2\n        /* \"#utility.yul\":10045:10080   */\n      eq\n        /* \"#utility.yul\":10035:10098   */\n      tag_177\n      jumpi\n        /* \"#utility.yul\":10094:10095   */\n      0x00\n        /* \"#utility.yul\":10091:10092   */\n      dup1\n        /* \"#utility.yul\":10084:10096   */\n      revert\n        /* \"#utility.yul\":10035:10098   */\n    tag_177:\n        /* \"#utility.yul\":9982:10104   */\n      pop\n      jump\t// out\n        /* \"#utility.yul\":10110:10232   */\n    tag_72:\n        /* \"#utility.yul\":10183:10207   */\n      tag_179\n        /* \"#utility.yul\":10201:10206   */\n      dup2\n        /* \"#utility.yul\":10183:10207   */\n      tag_127\n      jump\t// in\n    tag_179:\n        /* \"#utility.yul\":10176:10181   */\n      dup2\n        /* \"#utility.yul\":10173:10208   */\n      eq\n        /* \"#utility.yul\":10163:10226   */\n      tag_180\n      jumpi\n        /* \"#utility.yul\":10222:10223   */\n      0x00\n        /* \"#utility.yul\":10219:10220   */\n      dup1\n        /* \"#utility.yul\":10212:10224   */\n      revert\n        /* \"#utility.yul\":10163:10226   */\n    tag_180:\n        /* \"#utility.yul\":10110:10232   */\n      pop\n      jump\t// out\n\n    auxdata: 0xa26469706673582212200231a4253eeadd2477c99d22dd72921a2b177f22a748ebf3e29ff28fed4fca0c64736f6c63430008070033\n}\n",
				"bytecode": {
					"linkReferences": {},
					"object": "608060405234801561001057600080fd5b50610931806100206000396000f3fe608060405234801561001057600080fd5b50600436106100365760003560e01c806345fb53671461003b578063a4c8b6e314610057575b600080fd5b610055600480360381019061005091906104bf565b610087565b005b610071600480360381019061006c9190610492565b61015d565b60405161007e919061069c565b60405180910390f35b600060405180606001604052808581526020018481526020018381525090506000803373ffffffffffffffffffffffffffffffffffffffff1673ffffffffffffffffffffffffffffffffffffffff168152602001908152602001600020600001819080600181540180825580915050600190039060005260206000209060030201600090919091909150600082015181600001908051906020019061012d929190610342565b50602082015181600101908051906020019061014a929190610342565b5060408201518160020155505050505050565b6101656103c8565b6000808373ffffffffffffffffffffffffffffffffffffffff1673ffffffffffffffffffffffffffffffffffffffff16815260200190815260200160002060405180602001604052908160008201805480602002602001604051908101604052809291908181526020016000905b828210156103335783829060005260206000209060030201604051806060016040529081600082018054610206906107e7565b80601f0160208091040260200160405190810160405280929190818152602001828054610232906107e7565b801561027f5780601f106102545761010080835404028352916020019161027f565b820191906000526020600020905b81548152906001019060200180831161026257829003601f168201915b50505050508152602001600182018054610298906107e7565b80601f01602080910402602001604051908101604052809291908181526020018280546102c4906107e7565b80156103115780601f106102e657610100808354040283529160200191610311565b820191906000526020600020905b8154815290600101906020018083116102f457829003601f168201915b50505050508152602001600282015481525050815260200190600101906101d3565b50505050815250509050919050565b82805461034e906107e7565b90600052602060002090601f01602090048101928261037057600085556103b7565b82601f1061038957805160ff19168380011785556103b7565b828001600101855582156103b7579182015b828111156103b657825182559160200191906001019061039b565b5b5090506103c491906103db565b5090565b6040518060200160405280606081525090565b5b808211156103f45760008160009055506001016103dc565b5090565b600061040b610406846106e3565b6106be565b905082815260208101848484011115610427576104266108ad565b5b6104328482856107a5565b509392505050565b600081359050610449816108cd565b92915050565b600082601f830112610464576104636108a8565b5b81356104748482602086016103f8565b91505092915050565b60008135905061048c816108e4565b92915050565b6000602082840312156104a8576104a76108b7565b5b60006104b68482850161043a565b91505092915050565b6000806000606084860312156104d8576104d76108b7565b5b600084013567ffffffffffffffff8111156104f6576104f56108b2565b5b6105028682870161044f565b935050602084013567ffffffffffffffff811115610523576105226108b2565b5b61052f8682870161044f565b92505060406105408682870161047d565b9150509250925092565b6000610556838361060c565b905092915050565b600061056982610724565b6105738185610747565b93508360208202850161058585610714565b8060005b858110156105c157848403895281516105a2858261054a565b94506105ad8361073a565b925060208a01995050600181019050610589565b50829750879550505050505092915050565b60006105de8261072f565b6105e88185610758565b93506105f88185602086016107b4565b610601816108bc565b840191505092915050565b6000606083016000830151848203600086015261062982826105d3565b9150506020830151848203602086015261064382826105d3565b9150506040830151610658604086018261068d565b508091505092915050565b60006020830160008301518482036000860152610680828261055e565b9150508091505092915050565b6106968161079b565b82525050565b600060208201905081810360008301526106b68184610663565b905092915050565b60006106c86106d9565b90506106d48282610819565b919050565b6000604051905090565b600067ffffffffffffffff8211156106fe576106fd610879565b5b610707826108bc565b9050602081019050919050565b6000819050602082019050919050565b600081519050919050565b600081519050919050565b6000602082019050919050565b600082825260208201905092915050565b600082825260208201905092915050565b60006107748261077b565b9050919050565b600073ffffffffffffffffffffffffffffffffffffffff82169050919050565b6000819050919050565b82818337600083830152505050565b60005b838110156107d25780820151818401526020810190506107b7565b838111156107e1576000848401525b50505050565b600060028204905060018216806107ff57607f821691505b602082108114156108135761081261084a565b5b50919050565b610822826108bc565b810181811067ffffffffffffffff8211171561084157610840610879565b5b80604052505050565b7f4e487b7100000000000000000000000000000000000000000000000000000000600052602260045260246000fd5b7f4e487b7100000000000000000000000000000000000000000000000000000000600052604160045260246000fd5b600080fd5b600080fd5b600080fd5b600080fd5b6000601f19601f8301169050919050565b6108d681610769565b81146108e157600080fd5b50565b6108ed8161079b565b81146108f857600080fd5b5056fea26469706673582212200231a4253eeadd2477c99d22dd72921a2b177f22a748ebf3e29ff28fed4fca0c64736f6c63430008070033",
					"opcodes": "PUSH1 0x80 PUSH1 0x40 MSTORE CALLVALUE DUP1 ISZERO PUSH2 0x10 JUMPI PUSH1 0x0 DUP1 REVERT JUMPDEST POP PUSH2 0x931 DUP1 PUSH2 0x20 PUSH1 0x0 CODECOPY PUSH1 0x0 RETURN INVALID PUSH1 0x80 PUSH1 0x40 MSTORE CALLVALUE DUP1 ISZERO PUSH2 0x10 JUMPI PUSH1 0x0 DUP1 REVERT JUMPDEST POP PUSH1 0x4 CALLDATASIZE LT PUSH2 0x36 JUMPI PUSH1 0x0 CALLDATALOAD PUSH1 0xE0 SHR DUP1 PUSH4 0x45FB5367 EQ PUSH2 0x3B JUMPI DUP1 PUSH4 0xA4C8B6E3 EQ PUSH2 0x57 JUMPI JUMPDEST PUSH1 0x0 DUP1 REVERT JUMPDEST PUSH2 0x55 PUSH1 0x4 DUP1 CALLDATASIZE SUB DUP2 ADD SWAP1 PUSH2 0x50 SWAP2 SWAP1 PUSH2 0x4BF JUMP JUMPDEST PUSH2 0x87 JUMP JUMPDEST STOP JUMPDEST PUSH2 0x71 PUSH1 0x4 DUP1 CALLDATASIZE SUB DUP2 ADD SWAP1 PUSH2 0x6C SWAP2 SWAP1 PUSH2 0x492 JUMP JUMPDEST PUSH2 0x15D JUMP JUMPDEST PUSH1 0x40 MLOAD PUSH2 0x7E SWAP2 SWAP1 PUSH2 0x69C JUMP JUMPDEST PUSH1 0x40 MLOAD DUP1 SWAP2 SUB SWAP1 RETURN JUMPDEST PUSH1 0x0 PUSH1 0x40 MLOAD DUP1 PUSH1 0x60 ADD PUSH1 0x40 MSTORE DUP1 DUP6 DUP2 MSTORE PUSH1 0x20 ADD DUP5 DUP2 MSTORE PUSH1 0x20 ADD DUP4 DUP2 MSTORE POP SWAP1 POP PUSH1 0x0 DUP1 CALLER PUSH20 0xFFFFFFFFFFFFFFFFFFFFFFFFFFFFFFFFFFFFFFFF AND PUSH20 0xFFFFFFFFFFFFFFFFFFFFFFFFFFFFFFFFFFFFFFFF AND DUP2 MSTORE PUSH1 0x20 ADD SWAP1 DUP2 MSTORE PUSH1 0x20 ADD PUSH1 0x0 KECCAK256 PUSH1 0x0 ADD DUP2 SWAP1 DUP1 PUSH1 0x1 DUP2 SLOAD ADD DUP1 DUP3 SSTORE DUP1 SWAP2 POP POP PUSH1 0x1 SWAP1 SUB SWAP1 PUSH1 0x0 MSTORE PUSH1 0x20 PUSH1 0x0 KECCAK256 SWAP1 PUSH1 0x3 MUL ADD PUSH1 0x0 SWAP1 SWAP2 SWAP1 SWAP2 SWAP1 SWAP2 POP PUSH1 0x0 DUP3 ADD MLOAD DUP2 PUSH1 0x0 ADD SWAP1 DUP1 MLOAD SWAP1 PUSH1 0x20 ADD SWAP1 PUSH2 0x12D SWAP3 SWAP2 SWAP1 PUSH2 0x342 JUMP JUMPDEST POP PUSH1 0x20 DUP3 ADD MLOAD DUP2 PUSH1 0x1 ADD SWAP1 DUP1 MLOAD SWAP1 PUSH1 0x20 ADD SWAP1 PUSH2 0x14A SWAP3 SWAP2 SWAP1 PUSH2 0x342 JUMP JUMPDEST POP PUSH1 0x40 DUP3 ADD MLOAD DUP2 PUSH1 0x2 ADD SSTORE POP POP POP POP POP POP JUMP JUMPDEST PUSH2 0x165 PUSH2 0x3C8 JUMP JUMPDEST PUSH1 0x0 DUP1 DUP4 PUSH20 0xFFFFFFFFFFFFFFFFFFFFFFFFFFFFFFFFFFFFFFFF AND PUSH20 0xFFFFFFFFFFFFFFFFFFFFFFFFFFFFFFFFFFFFFFFF AND DUP2 MSTORE PUSH1 0x20 ADD SWAP1 DUP2 MSTORE PUSH1 0x20 ADD PUSH1 0x0 KECCAK256 PUSH1 0x40 MLOAD DUP1 PUSH1 0x20 ADD PUSH1 0x40 MSTORE SWAP1 DUP2 PUSH1 0x0 DUP3 ADD DUP1 SLOAD DUP1 PUSH1 0x20 MUL PUSH1 0x20 ADD PUSH1 0x40 MLOAD SWAP1 DUP2 ADD PUSH1 0x40 MSTORE DUP1 SWAP3 SWAP2 SWAP1 DUP2 DUP2 MSTORE PUSH1 0x20 ADD PUSH1 0x0 SWAP1 JUMPDEST DUP3 DUP3 LT ISZERO PUSH2 0x333 JUMPI DUP4 DUP3 SWAP1 PUSH1 0x0 MSTORE PUSH1 0x20 PUSH1 0x0 KECCAK256 SWAP1 PUSH1 0x3 MUL ADD PUSH1 0x40 MLOAD DUP1 PUSH1 0x60 ADD PUSH1 0x40 MSTORE SWAP1 DUP2 PUSH1 0x0 DUP3 ADD DUP1 SLOAD PUSH2 0x206 SWAP1 PUSH2 0x7E7 JUMP JUMPDEST DUP1 PUSH1 0x1F ADD PUSH1 0x20 DUP1 SWAP2 DIV MUL PUSH1 0x20 ADD PUSH1 0x40 MLOAD SWAP1 DUP2 ADD PUSH1 0x40 MSTORE DUP1 SWAP3 SWAP2 SWAP1 DUP2 DUP2 MSTORE PUSH1 0x20 ADD DUP3 DUP1 SLOAD PUSH2 0x232 SWAP1 PUSH2 0x7E7 JUMP JUMPDEST DUP1 ISZERO PUSH2 0x27F JUMPI DUP1 PUSH1 0x1F LT PUSH2 0x254 JUMPI PUSH2 0x100 DUP1 DUP4 SLOAD DIV MUL DUP4 MSTORE SWAP2 PUSH1 0x20 ADD SWAP2 PUSH2 0x27F JUMP JUMPDEST DUP3 ADD SWAP2 SWAP1 PUSH1 0x0 MSTORE PUSH1 0x20 PUSH1 0x0 KECCAK256 SWAP1 JUMPDEST DUP2 SLOAD DUP2 MSTORE SWAP1 PUSH1 0x1 ADD SWAP1 PUSH1 0x20 ADD DUP1 DUP4 GT PUSH2 0x262 JUMPI DUP3 SWAP1 SUB PUSH1 0x1F AND DUP3 ADD SWAP2 JUMPDEST POP POP POP POP POP DUP2 MSTORE PUSH1 0x20 ADD PUSH1 0x1 DUP3 ADD DUP1 SLOAD PUSH2 0x298 SWAP1 PUSH2 0x7E7 JUMP JUMPDEST DUP1 PUSH1 0x1F ADD PUSH1 0x20 DUP1 SWAP2 DIV MUL PUSH1 0x20 ADD PUSH1 0x40 MLOAD SWAP1 DUP2 ADD PUSH1 0x40 MSTORE DUP1 SWAP3 SWAP2 SWAP1 DUP2 DUP2 MSTORE PUSH1 0x20 ADD DUP3 DUP1 SLOAD PUSH2 0x2C4 SWAP1 PUSH2 0x7E7 JUMP JUMPDEST DUP1 ISZERO PUSH2 0x311 JUMPI DUP1 PUSH1 0x1F LT PUSH2 0x2E6 JUMPI PUSH2 0x100 DUP1 DUP4 SLOAD DIV MUL DUP4 MSTORE SWAP2 PUSH1 0x20 ADD SWAP2 PUSH2 0x311 JUMP JUMPDEST DUP3 ADD SWAP2 SWAP1 PUSH1 0x0 MSTORE PUSH1 0x20 PUSH1 0x0 KECCAK256 SWAP1 JUMPDEST DUP2 SLOAD DUP2 MSTORE SWAP1 PUSH1 0x1 ADD SWAP1 PUSH1 0x20 ADD DUP1 DUP4 GT PUSH2 0x2F4 JUMPI DUP3 SWAP1 SUB PUSH1 0x1F AND DUP3 ADD SWAP2 JUMPDEST POP POP POP POP POP DUP2 MSTORE PUSH1 0x20 ADD PUSH1 0x2 DUP3 ADD SLOAD DUP2 MSTORE POP POP DUP2 MSTORE PUSH1 0x20 ADD SWAP1 PUSH1 0x1 ADD SWAP1 PUSH2 0x1D3 JUMP JUMPDEST POP POP POP POP DUP2 MSTORE POP POP SWAP1 POP SWAP2 SWAP1 POP JUMP JUMPDEST DUP3 DUP1 SLOAD PUSH2 0x34E SWAP1 PUSH2 0x7E7 JUMP JUMPDEST SWAP1 PUSH1 0x0 MSTORE PUSH1 0x20 PUSH1 0x0 KECCAK256 SWAP1 PUSH1 0x1F ADD PUSH1 0x20 SWAP1 DIV DUP2 ADD SWAP3 DUP3 PUSH2 0x370 JUMPI PUSH1 0x0 DUP6 SSTORE PUSH2 0x3B7 JUMP JUMPDEST DUP3 PUSH1 0x1F LT PUSH2 0x389 JUMPI DUP1 MLOAD PUSH1 0xFF NOT AND DUP4 DUP1 ADD OR DUP6 SSTORE PUSH2 0x3B7 JUMP JUMPDEST DUP3 DUP1 ADD PUSH1 0x1 ADD DUP6 SSTORE DUP3 ISZERO PUSH2 0x3B7 JUMPI SWAP2 DUP3 ADD JUMPDEST DUP3 DUP2 GT ISZERO PUSH2 0x3B6 JUMPI DUP3 MLOAD DUP3 SSTORE SWAP2 PUSH1 0x20 ADD SWAP2 SWAP1 PUSH1 0x1 ADD SWAP1 PUSH2 0x39B JUMP JUMPDEST JUMPDEST POP SWAP1 POP PUSH2 0x3C4 SWAP2 SWAP1 PUSH2 0x3DB JUMP JUMPDEST POP SWAP1 JUMP JUMPDEST PUSH1 0x40 MLOAD DUP1 PUSH1 0x20 ADD PUSH1 0x40 MSTORE DUP1 PUSH1 0x60 DUP2 MSTORE POP SWAP1 JUMP JUMPDEST JUMPDEST DUP1 DUP3 GT ISZERO PUSH2 0x3F4 JUMPI PUSH1 0x0 DUP2 PUSH1 0x0 SWAP1 SSTORE POP PUSH1 0x1 ADD PUSH2 0x3DC JUMP JUMPDEST POP SWAP1 JUMP JUMPDEST PUSH1 0x0 PUSH2 0x40B PUSH2 0x406 DUP5 PUSH2 0x6E3 JUMP JUMPDEST PUSH2 0x6BE JUMP JUMPDEST SWAP1 POP DUP3 DUP2 MSTORE PUSH1 0x20 DUP2 ADD DUP5 DUP5 DUP5 ADD GT ISZERO PUSH2 0x427 JUMPI PUSH2 0x426 PUSH2 0x8AD JUMP JUMPDEST JUMPDEST PUSH2 0x432 DUP5 DUP3 DUP6 PUSH2 0x7A5 JUMP JUMPDEST POP SWAP4 SWAP3 POP POP POP JUMP JUMPDEST PUSH1 0x0 DUP2 CALLDATALOAD SWAP1 POP PUSH2 0x449 DUP2 PUSH2 0x8CD JUMP JUMPDEST SWAP3 SWAP2 POP POP JUMP JUMPDEST PUSH1 0x0 DUP3 PUSH1 0x1F DUP4 ADD SLT PUSH2 0x464 JUMPI PUSH2 0x463 PUSH2 0x8A8 JUMP JUMPDEST JUMPDEST DUP2 CALLDATALOAD PUSH2 0x474 DUP5 DUP3 PUSH1 0x20 DUP7 ADD PUSH2 0x3F8 JUMP JUMPDEST SWAP2 POP POP SWAP3 SWAP2 POP POP JUMP JUMPDEST PUSH1 0x0 DUP2 CALLDATALOAD SWAP1 POP PUSH2 0x48C DUP2 PUSH2 0x8E4 JUMP JUMPDEST SWAP3 SWAP2 POP POP JUMP JUMPDEST PUSH1 0x0 PUSH1 0x20 DUP3 DUP5 SUB SLT ISZERO PUSH2 0x4A8 JUMPI PUSH2 0x4A7 PUSH2 0x8B7 JUMP JUMPDEST JUMPDEST PUSH1 0x0 PUSH2 0x4B6 DUP5 DUP3 DUP6 ADD PUSH2 0x43A JUMP JUMPDEST SWAP2 POP POP SWAP3 SWAP2 POP POP JUMP JUMPDEST PUSH1 0x0 DUP1 PUSH1 0x0 PUSH1 0x60 DUP5 DUP7 SUB SLT ISZERO PUSH2 0x4D8 JUMPI PUSH2 0x4D7 PUSH2 0x8B7 JUMP JUMPDEST JUMPDEST PUSH1 0x0 DUP5 ADD CALLDATALOAD PUSH8 0xFFFFFFFFFFFFFFFF DUP2 GT ISZERO PUSH2 0x4F6 JUMPI PUSH2 0x4F5 PUSH2 0x8B2 JUMP JUMPDEST JUMPDEST PUSH2 0x502 DUP7 DUP3 DUP8 ADD PUSH2 0x44F JUMP JUMPDEST SWAP4 POP POP PUSH1 0x20 DUP5 ADD CALLDATALOAD PUSH8 0xFFFFFFFFFFFFFFFF DUP2 GT ISZERO PUSH2 0x523 JUMPI PUSH2 0x522 PUSH2 0x8B2 JUMP JUMPDEST JUMPDEST PUSH2 0x52F DUP7 DUP3 DUP8 ADD PUSH2 0x44F JUMP JUMPDEST SWAP3 POP POP PUSH1 0x40 PUSH2 0x540 DUP7 DUP3 DUP8 ADD PUSH2 0x47D JUMP JUMPDEST SWAP2 POP POP SWAP3 POP SWAP3 POP SWAP3 JUMP JUMPDEST PUSH1 0x0 PUSH2 0x556 DUP4 DUP4 PUSH2 0x60C JUMP JUMPDEST SWAP1 POP SWAP3 SWAP2 POP POP JUMP JUMPDEST PUSH1 0x0 PUSH2 0x569 DUP3 PUSH2 0x724 JUMP JUMPDEST PUSH2 0x573 DUP2 DUP6 PUSH2 0x747 JUMP JUMPDEST SWAP4 POP DUP4 PUSH1 0x20 DUP3 MUL DUP6 ADD PUSH2 0x585 DUP6 PUSH2 0x714 JUMP JUMPDEST DUP1 PUSH1 0x0 JUMPDEST DUP6 DUP2 LT ISZERO PUSH2 0x5C1 JUMPI DUP5 DUP5 SUB DUP10 MSTORE DUP2 MLOAD PUSH2 0x5A2 DUP6 DUP3 PUSH2 0x54A JUMP JUMPDEST SWAP5 POP PUSH2 0x5AD DUP4 PUSH2 0x73A JUMP JUMPDEST SWAP3 POP PUSH1 0x20 DUP11 ADD SWAP10 POP POP PUSH1 0x1 DUP2 ADD SWAP1 POP PUSH2 0x589 JUMP JUMPDEST POP DUP3 SWAP8 POP DUP8 SWAP6 POP POP POP POP POP POP SWAP3 SWAP2 POP POP JUMP JUMPDEST PUSH1 0x0 PUSH2 0x5DE DUP3 PUSH2 0x72F JUMP JUMPDEST PUSH2 0x5E8 DUP2 DUP6 PUSH2 0x758 JUMP JUMPDEST SWAP4 POP PUSH2 0x5F8 DUP2 DUP6 PUSH1 0x20 DUP7 ADD PUSH2 0x7B4 JUMP JUMPDEST PUSH2 0x601 DUP2 PUSH2 0x8BC JUMP JUMPDEST DUP5 ADD SWAP2 POP POP SWAP3 SWAP2 POP POP JUMP JUMPDEST PUSH1 0x0 PUSH1 0x60 DUP4 ADD PUSH1 0x0 DUP4 ADD MLOAD DUP5 DUP3 SUB PUSH1 0x0 DUP7 ADD MSTORE PUSH2 0x629 DUP3 DUP3 PUSH2 0x5D3 JUMP JUMPDEST SWAP2 POP POP PUSH1 0x20 DUP4 ADD MLOAD DUP5 DUP3 SUB PUSH1 0x20 DUP7 ADD MSTORE PUSH2 0x643 DUP3 DUP3 PUSH2 0x5D3 JUMP JUMPDEST SWAP2 POP POP PUSH1 0x40 DUP4 ADD MLOAD PUSH2 0x658 PUSH1 0x40 DUP7 ADD DUP3 PUSH2 0x68D JUMP JUMPDEST POP DUP1 SWAP2 POP POP SWAP3 SWAP2 POP POP JUMP JUMPDEST PUSH1 0x0 PUSH1 0x20 DUP4 ADD PUSH1 0x0 DUP4 ADD MLOAD DUP5 DUP3 SUB PUSH1 0x0 DUP7 ADD MSTORE PUSH2 0x680 DUP3 DUP3 PUSH2 0x55E JUMP JUMPDEST SWAP2 POP POP DUP1 SWAP2 POP POP SWAP3 SWAP2 POP POP JUMP JUMPDEST PUSH2 0x696 DUP2 PUSH2 0x79B JUMP JUMPDEST DUP3 MSTORE POP POP JUMP JUMPDEST PUSH1 0x0 PUSH1 0x20 DUP3 ADD SWAP1 POP DUP2 DUP2 SUB PUSH1 0x0 DUP4 ADD MSTORE PUSH2 0x6B6 DUP2 DUP5 PUSH2 0x663 JUMP JUMPDEST SWAP1 POP SWAP3 SWAP2 POP POP JUMP JUMPDEST PUSH1 0x0 PUSH2 0x6C8 PUSH2 0x6D9 JUMP JUMPDEST SWAP1 POP PUSH2 0x6D4 DUP3 DUP3 PUSH2 0x819 JUMP JUMPDEST SWAP2 SWAP1 POP JUMP JUMPDEST PUSH1 0x0 PUSH1 0x40 MLOAD SWAP1 POP SWAP1 JUMP JUMPDEST PUSH1 0x0 PUSH8 0xFFFFFFFFFFFFFFFF DUP3 GT ISZERO PUSH2 0x6FE JUMPI PUSH2 0x6FD PUSH2 0x879 JUMP JUMPDEST JUMPDEST PUSH2 0x707 DUP3 PUSH2 0x8BC JUMP JUMPDEST SWAP1 POP PUSH1 0x20 DUP2 ADD SWAP1 POP SWAP2 SWAP1 POP JUMP JUMPDEST PUSH1 0x0 DUP2 SWAP1 POP PUSH1 0x20 DUP3 ADD SWAP1 POP SWAP2 SWAP1 POP JUMP JUMPDEST PUSH1 0x0 DUP2 MLOAD SWAP1 POP SWAP2 SWAP1 POP JUMP JUMPDEST PUSH1 0x0 DUP2 MLOAD SWAP1 POP SWAP2 SWAP1 POP JUMP JUMPDEST PUSH1 0x0 PUSH1 0x20 DUP3 ADD SWAP1 POP SWAP2 SWAP1 POP JUMP JUMPDEST PUSH1 0x0 DUP3 DUP3 MSTORE PUSH1 0x20 DUP3 ADD SWAP1 POP SWAP3 SWAP2 POP POP JUMP JUMPDEST PUSH1 0x0 DUP3 DUP3 MSTORE PUSH1 0x20 DUP3 ADD SWAP1 POP SWAP3 SWAP2 POP POP JUMP JUMPDEST PUSH1 0x0 PUSH2 0x774 DUP3 PUSH2 0x77B JUMP JUMPDEST SWAP1 POP SWAP2 SWAP1 POP JUMP JUMPDEST PUSH1 0x0 PUSH20 0xFFFFFFFFFFFFFFFFFFFFFFFFFFFFFFFFFFFFFFFF DUP3 AND SWAP1 POP SWAP2 SWAP1 POP JUMP JUMPDEST PUSH1 0x0 DUP2 SWAP1 POP SWAP2 SWAP1 POP JUMP JUMPDEST DUP3 DUP2 DUP4 CALLDATACOPY PUSH1 0x0 DUP4 DUP4 ADD MSTORE POP POP POP JUMP JUMPDEST PUSH1 0x0 JUMPDEST DUP4 DUP2 LT ISZERO PUSH2 0x7D2 JUMPI DUP1 DUP3 ADD MLOAD DUP2 DUP5 ADD MSTORE PUSH1 0x20 DUP2 ADD SWAP1 POP PUSH2 0x7B7 JUMP JUMPDEST DUP4 DUP2 GT ISZERO PUSH2 0x7E1 JUMPI PUSH1 0x0 DUP5 DUP5 ADD MSTORE JUMPDEST POP POP POP POP JUMP JUMPDEST PUSH1 0x0 PUSH1 0x2 DUP3 DIV SWAP1 POP PUSH1 0x1 DUP3 AND DUP1 PUSH2 0x7FF JUMPI PUSH1 0x7F DUP3 AND SWAP2 POP JUMPDEST PUSH1 0x20 DUP3 LT DUP2 EQ ISZERO PUSH2 0x813 JUMPI PUSH2 0x812 PUSH2 0x84A JUMP JUMPDEST JUMPDEST POP SWAP2 SWAP1 POP JUMP JUMPDEST PUSH2 0x822 DUP3 PUSH2 0x8BC JUMP JUMPDEST DUP2 ADD DUP2 DUP2 LT PUSH8 0xFFFFFFFFFFFFFFFF DUP3 GT OR ISZERO PUSH2 0x841 JUMPI PUSH2 0x840 PUSH2 0x879 JUMP JUMPDEST JUMPDEST DUP1 PUSH1 0x40 MSTORE POP POP POP JUMP JUMPDEST PUSH32 0x4E487B7100000000000000000000000000000000000000000000000000000000 PUSH1 0x0 MSTORE PUSH1 0x22 PUSH1 0x4 MSTORE PUSH1 0x24 PUSH1 0x0 REVERT JUMPDEST PUSH32 0x4E487B7100000000000000000000000000000000000000000000000000000000 PUSH1 0x0 MSTORE PUSH1 0x41 PUSH1 0x4 MSTORE PUSH1 0x24 PUSH1 0x0 REVERT JUMPDEST PUSH1 0x0 DUP1 REVERT JUMPDEST PUSH1 0x0 DUP1 REVERT JUMPDEST PUSH1 0x0 DUP1 REVERT JUMPDEST PUSH1 0x0 DUP1 REVERT JUMPDEST PUSH1 0x0 PUSH1 0x1F NOT PUSH1 0x1F DUP4 ADD AND SWAP1 POP SWAP2 SWAP1 POP JUMP JUMPDEST PUSH2 0x8D6 DUP2 PUSH2 0x769 JUMP JUMPDEST DUP2 EQ PUSH2 0x8E1 JUMPI PUSH1 0x0 DUP1 REVERT JUMPDEST POP JUMP JUMPDEST PUSH2 0x8ED DUP2 PUSH2 0x79B JUMP JUMPDEST DUP2 EQ PUSH2 0x8F8 JUMPI PUSH1 0x0 DUP1 REVERT JUMPDEST POP JUMP INVALID LOG2 PUSH5 0x6970667358 0x22 SLT KECCAK256 MUL BALANCE LOG4 0x25 RETURNDATACOPY 0xEA 0xDD 0x24 PUSH24 0xC99D22DD72921A2B177F22A748EBF3E29FF28FED4FCA0C64 PUSH20 0x6F6C634300080700330000000000000000000000 "
				},
				"gasEstimates": {
					"creation": {
						"codeDepositCost": "470600",
						"executionCost": "505",
						"totalCost": "471105"
					},
					"external": {
						"addEvents(string,string,uint256)": "infinite",
						"getEvents(address)": "infinite"
					}
				},
				"methodIdentifiers": {
					"addEvents(string,string,uint256)": "45fb5367",
					"getEvents(address)": "a4c8b6e3"
				}
			},
			"storageLayout": {
				"storage": [
					{
						"astId": 18,
						"contract": "contracts/event_organisation2.sol:event_organisation2",
						"label": "events_mapping",
						"offset": 0,
						"slot": "0",
						"type": "t_mapping(t_address,t_struct(Event_Modal)13_storage)"
					}
				],
				"types": {
					"t_address": {
						"encoding": "inplace",
						"label": "address",
						"numberOfBytes": "20"
					},
					"t_array(t_struct(Event)8_storage)dyn_storage": {
						"base": "t_struct(Event)8_storage",
						"encoding": "dynamic_array",
						"label": "struct event_organisation2.Event[]",
						"numberOfBytes": "32"
					},
					"t_mapping(t_address,t_struct(Event_Modal)13_storage)": {
						"encoding": "mapping",
						"key": "t_address",
						"label": "mapping(address => struct event_organisation2.Event_Modal)",
						"numberOfBytes": "32",
						"value": "t_struct(Event_Modal)13_storage"
					},
					"t_string_storage": {
						"encoding": "bytes",
						"label": "string",
						"numberOfBytes": "32"
					},
					"t_struct(Event)8_storage": {
						"encoding": "inplace",
						"label": "struct event_organisation2.Event",
						"members": [
							{
								"astId": 3,
								"contract": "contracts/event_organisation2.sol:event_organisation2",
								"label": "organizer_name",
								"offset": 0,
								"slot": "0",
								"type": "t_string_storage"
							},
							{
								"astId": 5,
								"contract": "contracts/event_organisation2.sol:event_organisation2",
								"label": "event_name",
								"offset": 0,
								"slot": "1",
								"type": "t_string_storage"
							},
							{
								"astId": 7,
								"contract": "contracts/event_organisation2.sol:event_organisation2",
								"label": "ticket_price",
								"offset": 0,
								"slot": "2",
								"type": "t_uint256"
							}
						],
						"numberOfBytes": "96"
					},
					"t_struct(Event_Modal)13_storage": {
						"encoding": "inplace",
						"label": "struct event_organisation2.Event_Modal",
						"members": [
							{
								"astId": 12,
								"contract": "contracts/event_organisation2.sol:event_organisation2",
								"label": "events_array",
								"offset": 0,
								"slot": "0",
								"type": "t_array(t_struct(Event)8_storage)dyn_storage"
							}
						],
						"numberOfBytes": "32"
					},
					"t_uint256": {
						"encoding": "inplace",
						"label": "uint256",
						"numberOfBytes": "32"
					}
				}
			},
			"userdoc": {
				"kind": "user",
				"methods": {},
				"version": 1
			}
		}
	}
}