{
	"contracts/event_organisation2.sol": {
		"event_organisation2": {
			"abi": [
				{
					"inputs": [
						{
							"internalType": "string",
							"name": "_organizer_name",
							"type": "string"
						},
						{
							"internalType": "string",
							"name": "_event_name",
							"type": "string"
						},
						{
							"internalType": "uint256",
							"name": "_ticket_price",
							"type": "uint256"
						}
					],
					"name": "addEvents",
					"outputs": [],
					"stateMutability": "nonpayable",
					"type": "function"
				},
				{
					"inputs": [
						{
							"internalType": "address",
							"name": "_organizerAddress",
							"type": "address"
						}
					],
					"name": "getEvents",
					"outputs": [
						{
							"components": [
								{
									"components": [
										{
											"internalType": "string",
											"name": "organizer_name",
											"type": "string"
										},
										{
											"internalType": "string",
											"name": "event_name",
											"type": "string"
										},
										{
											"internalType": "uint256",
											"name": "ticket_price",
											"type": "uint256"
										}
									],
									"internalType": "struct event_organisation2.Event[]",
									"name": "events_array",
									"type": "tuple[]"
								}
							],
							"internalType": "struct event_organisation2.Event_Modal",
							"name": "",
							"type": "tuple"
						}
					],
					"stateMutability": "view",
					"type": "function"
				}
			],
			"devdoc": {
				"kind": "dev",
				"methods": {},
				"version": 1
			},
			"evm": {
				"assembly": "    /* \"contracts/event_organisation2.sol\":62:789  contract event_organisation2 {... */\n  mstore(0x40, 0x80)\n  callvalue\n  dup1\n  iszero\n  tag_1\n  jumpi\n  0x00\n  dup1\n  revert\ntag_1:\n  pop\n  dataSize(sub_0)\n  dup1\n  dataOffset(sub_0)\n  0x00\n  codecopy\n  0x00\n  return\nstop\n\nsub_0: assembly {\n        /* \"contracts/event_organisation2.sol\":62:789  contract event_organisation2 {... */\n      mstore(0x40, 0x80)\n      callvalue\n      dup1\n      iszero\n      tag_1\n      jumpi\n      0x00\n      dup1\n      revert\n    tag_1:\n      pop\n      jumpi(tag_2, lt(calldatasize, 0x04))\n      shr(0xe0, calldataload(0x00))\n      dup1\n      0x45fb5367\n      eq\n      tag_3\n      jumpi\n      dup1\n      0xa4c8b6e3\n      eq\n      tag_4\n      jumpi\n    tag_2:\n      0x00\n      dup1\n      revert\n        /* \"contracts/event_organisation2.sol\":341:612  function addEvents(string memory _organizer_name,string memory _event_name,uint _ticket_price)... */\n    tag_3:\n      tag_5\n      0x04\n      dup1\n      calldatasize\n      sub\n      dup2\n      add\n      swap1\n      tag_6\n      swap2\n      swap1\n      tag_7\n      jump\t// in\n    tag_6:\n      tag_8\n      jump\t// in\n    tag_5:\n      stop\n        /* \"contracts/event_organisation2.sol\":620:770  function getEvents(address _organizerAddress) view public returns(Event_Modal memory)... */\n    tag_4:\n      tag_9\n      0x04\n      dup1\n      calldatasize\n      sub\n      dup2\n      add\n      swap1\n      tag_10\n      swap2\n      swap1\n      tag_11\n      jump\t// in\n    tag_10:\n      tag_12\n      jump\t// in\n    tag_9:\n      mload(0x40)\n      tag_13\n      swap2\n      swap1\n      tag_14\n      jump\t// in\n    tag_13:\n      mload(0x40)\n      dup1\n      swap2\n      sub\n      swap1\n      return\n        /* \"contracts/event_organisation2.sol\":341:612  function addEvents(string memory _organizer_name,string memory _event_name,uint _ticket_price)... */\n    tag_8:\n        /* \"contracts/event_organisation2.sol\":465:485  Event memory _events */\n      0x00\n        /* \"contracts/event_organisation2.sol\":488:540  Event(_organizer_name , _event_name , _ticket_price) */\n      mload(0x40)\n      dup1\n      0x60\n      add\n      0x40\n      mstore\n      dup1\n        /* \"contracts/event_organisation2.sol\":494:509  _organizer_name */\n      dup6\n        /* \"contracts/event_organisation2.sol\":488:540  Event(_organizer_name , _event_name , _ticket_price) */\n      dup2\n      mstore\n      0x20\n      add\n        /* \"contracts/event_organisation2.sol\":512:523  _event_name */\n      dup5\n        /* \"contracts/event_organisation2.sol\":488:540  Event(_organizer_name , _event_name , _ticket_price) */\n      dup2\n      mstore\n      0x20\n      add\n        /* \"contracts/event_organisation2.sol\":526:539  _ticket_price */\n      dup4\n        /* \"contracts/event_organisation2.sol\":488:540  Event(_organizer_name , _event_name , _ticket_price) */\n      dup2\n      mstore\n      pop\n        /* \"contracts/event_organisation2.sol\":465:540  Event memory _events = Event(_organizer_name , _event_name , _ticket_price) */\n      swap1\n      pop\n        /* \"contracts/event_organisation2.sol\":551:565  events_mapping */\n      0x00\n        /* \"contracts/event_organisation2.sol\":551:577  events_mapping[msg.sender] */\n      dup1\n        /* \"contracts/event_organisation2.sol\":566:576  msg.sender */\n      caller\n        /* \"contracts/event_organisation2.sol\":551:577  events_mapping[msg.sender] */\n      0xffffffffffffffffffffffffffffffffffffffff\n      and\n      0xffffffffffffffffffffffffffffffffffffffff\n      and\n      dup2\n      mstore\n      0x20\n      add\n      swap1\n      dup2\n      mstore\n      0x20\n      add\n      0x00\n      keccak256\n        /* \"contracts/event_organisation2.sol\":551:590  events_mapping[msg.sender].events_array */\n      0x00\n      add\n        /* \"contracts/event_organisation2.sol\":596:603  _events */\n      dup2\n        /* \"contracts/event_organisation2.sol\":551:604  events_mapping[msg.sender].events_array.push(_events) */\n      swap1\n      dup1\n      0x01\n      dup2\n      sload\n      add\n      dup1\n      dup3\n      sstore\n      dup1\n      swap2\n      pop\n      pop\n      0x01\n      swap1\n      sub\n      swap1\n      0x00\n      mstore\n      keccak256(0x00, 0x20)\n      swap1\n      0x03\n      mul\n      add\n      0x00\n      swap1\n      swap2\n      swap1\n      swap2\n      swap1\n      swap2\n      pop\n      0x00\n      dup3\n      add\n      mload\n      dup2\n      0x00\n      add\n      swap1\n      dup2\n      tag_17\n      swap2\n      swap1\n      tag_18\n      jump\t// in\n    tag_17:\n      pop\n      0x20\n      dup3\n      add\n      mload\n      dup2\n      0x01\n      add\n      swap1\n      dup2\n      tag_19\n      swap2\n      swap1\n      tag_18\n      jump\t// in\n    tag_19:\n      pop\n      0x40\n      dup3\n      add\n      mload\n      dup2\n      0x02\n      add\n      sstore\n      pop\n      pop\n        /* \"contracts/event_organisation2.sol\":454:612  {... */\n      pop\n        /* \"contracts/event_organisation2.sol\":341:612  function addEvents(string memory _organizer_name,string memory _event_name,uint _ticket_price)... */\n      pop\n      pop\n      pop\n      jump\t// out\n        /* \"contracts/event_organisation2.sol\":620:770  function getEvents(address _organizerAddress) view public returns(Event_Modal memory)... */\n    tag_12:\n        /* \"contracts/event_organisation2.sol\":686:704  Event_Modal memory */\n      tag_20\n      tag_21\n      jump\t// in\n    tag_20:\n        /* \"contracts/event_organisation2.sol\":729:743  events_mapping */\n      0x00\n        /* \"contracts/event_organisation2.sol\":729:762  events_mapping[_organizerAddress] */\n      dup1\n        /* \"contracts/event_organisation2.sol\":744:761  _organizerAddress */\n      dup4\n        /* \"contracts/event_organisation2.sol\":729:762  events_mapping[_organizerAddress] */\n      0xffffffffffffffffffffffffffffffffffffffff\n      and\n      0xffffffffffffffffffffffffffffffffffffffff\n      and\n      dup2\n      mstore\n      0x20\n      add\n      swap1\n      dup2\n      mstore\n      0x20\n      add\n      0x00\n      keccak256\n        /* \"contracts/event_organisation2.sol\":722:762  return events_mapping[_organizerAddress] */\n      mload(0x40)\n      dup1\n      0x20\n      add\n      0x40\n      mstore\n      swap1\n      dup2\n      0x00\n      dup3\n      add\n      dup1\n      sload\n      dup1\n      0x20\n      mul\n      0x20\n      add\n      mload(0x40)\n      swap1\n      dup2\n      add\n      0x40\n      mstore\n      dup1\n      swap3\n      swap2\n      swap1\n      dup2\n      dup2\n      mstore\n      0x20\n      add\n      0x00\n      swap1\n    tag_23:\n      dup3\n      dup3\n      lt\n      iszero\n      tag_24\n      jumpi\n      dup4\n      dup3\n      swap1\n      0x00\n      mstore\n      keccak256(0x00, 0x20)\n      swap1\n      0x03\n      mul\n      add\n      mload(0x40)\n      dup1\n      0x60\n      add\n      0x40\n      mstore\n      swap1\n      dup2\n      0x00\n      dup3\n      add\n      dup1\n      sload\n      tag_26\n      swap1\n      tag_27\n      jump\t// in\n    tag_26:\n      dup1\n      0x1f\n      add\n      0x20\n      dup1\n      swap2\n      div\n      mul\n      0x20\n      add\n      mload(0x40)\n      swap1\n      dup2\n      add\n      0x40\n      mstore\n      dup1\n      swap3\n      swap2\n      swap1\n      dup2\n      dup2\n      mstore\n      0x20\n      add\n      dup3\n      dup1\n      sload\n      tag_28\n      swap1\n      tag_27\n      jump\t// in\n    tag_28:\n      dup1\n      iszero\n      tag_29\n      jumpi\n      dup1\n      0x1f\n      lt\n      tag_30\n      jumpi\n      0x0100\n      dup1\n      dup4\n      sload\n      div\n      mul\n      dup4\n      mstore\n      swap2\n      0x20\n      add\n      swap2\n      jump(tag_29)\n    tag_30:\n      dup3\n      add\n      swap2\n      swap1\n      0x00\n      mstore\n      keccak256(0x00, 0x20)\n      swap1\n    tag_31:\n      dup2\n      sload\n      dup2\n      mstore\n      swap1\n      0x01\n      add\n      swap1\n      0x20\n      add\n      dup1\n      dup4\n      gt\n      tag_31\n      jumpi\n      dup3\n      swap1\n      sub\n      0x1f\n      and\n      dup3\n      add\n      swap2\n    tag_29:\n      pop\n      pop\n      pop\n      pop\n      pop\n      dup2\n      mstore\n      0x20\n      add\n      0x01\n      dup3\n      add\n      dup1\n      sload\n      tag_32\n      swap1\n      tag_27\n      jump\t// in\n    tag_32:\n      dup1\n      0x1f\n      add\n      0x20\n      dup1\n      swap2\n      div\n      mul\n      0x20\n      add\n      mload(0x40)\n      swap1\n      dup2\n      add\n      0x40\n      mstore\n      dup1\n      swap3\n      swap2\n      swap1\n      dup2\n      dup2\n      mstore\n      0x20\n      add\n      dup3\n      dup1\n      sload\n      tag_33\n      swap1\n      tag_27\n      jump\t// in\n    tag_33:\n      dup1\n      iszero\n      tag_34\n      jumpi\n      dup1\n      0x1f\n      lt\n      tag_35\n      jumpi\n      0x0100\n      dup1\n      dup4\n      sload\n      div\n      mul\n      dup4\n      mstore\n      swap2\n      0x20\n      add\n      swap2\n      jump(tag_34)\n    tag_35:\n      dup3\n      add\n      swap2\n      swap1\n      0x00\n      mstore\n      keccak256(0x00, 0x20)\n      swap1\n    tag_36:\n      dup2\n      sload\n      dup2\n      mstore\n      swap1\n      0x01\n      add\n      swap1\n      0x20\n      add\n      dup1\n      dup4\n      gt\n      tag_36\n      jumpi\n      dup3\n      swap1\n      sub\n      0x1f\n      and\n      dup3\n      add\n      swap2\n    tag_34:\n      pop\n      pop\n      pop\n      pop\n      pop\n      dup2\n      mstore\n      0x20\n      add\n      0x02\n      dup3\n      add\n      sload\n      dup2\n      mstore\n      pop\n      pop\n      dup2\n      mstore\n      0x20\n      add\n      swap1\n      0x01\n      add\n      swap1\n      jump(tag_23)\n    tag_24:\n      pop\n      pop\n      pop\n      pop\n      dup2\n      mstore\n      pop\n      pop\n      swap1\n      pop\n        /* \"contracts/event_organisation2.sol\":620:770  function getEvents(address _organizerAddress) view public returns(Event_Modal memory)... */\n      swap2\n      swap1\n      pop\n      jump\t// out\n    tag_21:\n      mload(0x40)\n      dup1\n      0x20\n      add\n      0x40\n      mstore\n      dup1\n      0x60\n      dup2\n      mstore\n      pop\n      swap1\n      jump\t// out\n        /* \"#utility.yul\":7:82   */\n    tag_37:\n        /* \"#utility.yul\":40:46   */\n      0x00\n        /* \"#utility.yul\":73:75   */\n      0x40\n        /* \"#utility.yul\":67:76   */\n      mload\n        /* \"#utility.yul\":57:76   */\n      swap1\n      pop\n        /* \"#utility.yul\":7:82   */\n      swap1\n      jump\t// out\n        /* \"#utility.yul\":88:205   */\n    tag_38:\n        /* \"#utility.yul\":197:198   */\n      0x00\n        /* \"#utility.yul\":194:195   */\n      dup1\n        /* \"#utility.yul\":187:199   */\n      revert\n        /* \"#utility.yul\":211:328   */\n    tag_39:\n        /* \"#utility.yul\":320:321   */\n      0x00\n        /* \"#utility.yul\":317:318   */\n      dup1\n        /* \"#utility.yul\":310:322   */\n      revert\n        /* \"#utility.yul\":334:451   */\n    tag_40:\n        /* \"#utility.yul\":443:444   */\n      0x00\n        /* \"#utility.yul\":440:441   */\n      dup1\n        /* \"#utility.yul\":433:445   */\n      revert\n        /* \"#utility.yul\":457:574   */\n    tag_41:\n        /* \"#utility.yul\":566:567   */\n      0x00\n        /* \"#utility.yul\":563:564   */\n      dup1\n        /* \"#utility.yul\":556:568   */\n      revert\n        /* \"#utility.yul\":580:682   */\n    tag_42:\n        /* \"#utility.yul\":621:627   */\n      0x00\n        /* \"#utility.yul\":672:674   */\n      0x1f\n        /* \"#utility.yul\":668:675   */\n      not\n        /* \"#utility.yul\":663:665   */\n      0x1f\n        /* \"#utility.yul\":656:661   */\n      dup4\n        /* \"#utility.yul\":652:666   */\n      add\n        /* \"#utility.yul\":648:676   */\n      and\n        /* \"#utility.yul\":638:676   */\n      swap1\n      pop\n        /* \"#utility.yul\":580:682   */\n      swap2\n      swap1\n      pop\n      jump\t// out\n        /* \"#utility.yul\":688:868   */\n    tag_43:\n        /* \"#utility.yul\":736:813   */\n      0x4e487b7100000000000000000000000000000000000000000000000000000000\n        /* \"#utility.yul\":733:734   */\n      0x00\n        /* \"#utility.yul\":726:814   */\n      mstore\n        /* \"#utility.yul\":833:837   */\n      0x41\n        /* \"#utility.yul\":830:831   */\n      0x04\n        /* \"#utility.yul\":823:838   */\n      mstore\n        /* \"#utility.yul\":857:861   */\n      0x24\n        /* \"#utility.yul\":854:855   */\n      0x00\n        /* \"#utility.yul\":847:862   */\n      revert\n        /* \"#utility.yul\":874:1155   */\n    tag_44:\n        /* \"#utility.yul\":957:984   */\n      tag_95\n        /* \"#utility.yul\":979:983   */\n      dup3\n        /* \"#utility.yul\":957:984   */\n      tag_42\n      jump\t// in\n    tag_95:\n        /* \"#utility.yul\":949:955   */\n      dup2\n        /* \"#utility.yul\":945:985   */\n      add\n        /* \"#utility.yul\":1087:1093   */\n      dup2\n        /* \"#utility.yul\":1075:1085   */\n      dup2\n        /* \"#utility.yul\":1072:1094   */\n      lt\n        /* \"#utility.yul\":1051:1069   */\n      0xffffffffffffffff\n        /* \"#utility.yul\":1039:1049   */\n      dup3\n        /* \"#utility.yul\":1036:1070   */\n      gt\n        /* \"#utility.yul\":1033:1095   */\n      or\n        /* \"#utility.yul\":1030:1118   */\n      iszero\n      tag_96\n      jumpi\n        /* \"#utility.yul\":1098:1116   */\n      tag_97\n      tag_43\n      jump\t// in\n    tag_97:\n        /* \"#utility.yul\":1030:1118   */\n    tag_96:\n        /* \"#utility.yul\":1138:1148   */\n      dup1\n        /* \"#utility.yul\":1134:1136   */\n      0x40\n        /* \"#utility.yul\":1127:1149   */\n      mstore\n        /* \"#utility.yul\":917:1155   */\n      pop\n        /* \"#utility.yul\":874:1155   */\n      pop\n      pop\n      jump\t// out\n        /* \"#utility.yul\":1161:1290   */\n    tag_45:\n        /* \"#utility.yul\":1195:1201   */\n      0x00\n        /* \"#utility.yul\":1222:1242   */\n      tag_99\n      tag_37\n      jump\t// in\n    tag_99:\n        /* \"#utility.yul\":1212:1242   */\n      swap1\n      pop\n        /* \"#utility.yul\":1251:1284   */\n      tag_100\n        /* \"#utility.yul\":1279:1283   */\n      dup3\n        /* \"#utility.yul\":1271:1277   */\n      dup3\n        /* \"#utility.yul\":1251:1284   */\n      tag_44\n      jump\t// in\n    tag_100:\n        /* \"#utility.yul\":1161:1290   */\n      swap2\n      swap1\n      pop\n      jump\t// out\n        /* \"#utility.yul\":1296:1604   */\n    tag_46:\n        /* \"#utility.yul\":1358:1362   */\n      0x00\n        /* \"#utility.yul\":1448:1466   */\n      0xffffffffffffffff\n        /* \"#utility.yul\":1440:1446   */\n      dup3\n        /* \"#utility.yul\":1437:1467   */\n      gt\n        /* \"#utility.yul\":1434:1490   */\n      iszero\n      tag_102\n      jumpi\n        /* \"#utility.yul\":1470:1488   */\n      tag_103\n      tag_43\n      jump\t// in\n    tag_103:\n        /* \"#utility.yul\":1434:1490   */\n    tag_102:\n        /* \"#utility.yul\":1508:1537   */\n      tag_104\n        /* \"#utility.yul\":1530:1536   */\n      dup3\n        /* \"#utility.yul\":1508:1537   */\n      tag_42\n      jump\t// in\n    tag_104:\n        /* \"#utility.yul\":1500:1537   */\n      swap1\n      pop\n        /* \"#utility.yul\":1592:1596   */\n      0x20\n        /* \"#utility.yul\":1586:1590   */\n      dup2\n        /* \"#utility.yul\":1582:1597   */\n      add\n        /* \"#utility.yul\":1574:1597   */\n      swap1\n      pop\n        /* \"#utility.yul\":1296:1604   */\n      swap2\n      swap1\n      pop\n      jump\t// out\n        /* \"#utility.yul\":1610:1758   */\n    tag_47:\n        /* \"#utility.yul\":1708:1714   */\n      dup3\n        /* \"#utility.yul\":1703:1706   */\n      dup2\n        /* \"#utility.yul\":1698:1701   */\n      dup4\n        /* \"#utility.yul\":1685:1715   */\n      calldatacopy\n        /* \"#utility.yul\":1749:1750   */\n      0x00\n        /* \"#utility.yul\":1740:1746   */\n      dup4\n        /* \"#utility.yul\":1735:1738   */\n      dup4\n        /* \"#utility.yul\":1731:1747   */\n      add\n        /* \"#utility.yul\":1724:1751   */\n      mstore\n        /* \"#utility.yul\":1610:1758   */\n      pop\n      pop\n      pop\n      jump\t// out\n        /* \"#utility.yul\":1764:2189   */\n    tag_48:\n        /* \"#utility.yul\":1842:1847   */\n      0x00\n        /* \"#utility.yul\":1867:1933   */\n      tag_107\n        /* \"#utility.yul\":1883:1932   */\n      tag_108\n        /* \"#utility.yul\":1925:1931   */\n      dup5\n        /* \"#utility.yul\":1883:1932   */\n      tag_46\n      jump\t// in\n    tag_108:\n        /* \"#utility.yul\":1867:1933   */\n      tag_45\n      jump\t// in\n    tag_107:\n        /* \"#utility.yul\":1858:1933   */\n      swap1\n      pop\n        /* \"#utility.yul\":1956:1962   */\n      dup3\n        /* \"#utility.yul\":1949:1954   */\n      dup2\n        /* \"#utility.yul\":1942:1963   */\n      mstore\n        /* \"#utility.yul\":1994:1998   */\n      0x20\n        /* \"#utility.yul\":1987:1992   */\n      dup2\n        /* \"#utility.yul\":1983:1999   */\n      add\n        /* \"#utility.yul\":2032:2035   */\n      dup5\n        /* \"#utility.yul\":2023:2029   */\n      dup5\n        /* \"#utility.yul\":2018:2021   */\n      dup5\n        /* \"#utility.yul\":2014:2030   */\n      add\n        /* \"#utility.yul\":2011:2036   */\n      gt\n        /* \"#utility.yul\":2008:2120   */\n      iszero\n      tag_109\n      jumpi\n        /* \"#utility.yul\":2039:2118   */\n      tag_110\n      tag_41\n      jump\t// in\n    tag_110:\n        /* \"#utility.yul\":2008:2120   */\n    tag_109:\n        /* \"#utility.yul\":2129:2183   */\n      tag_111\n        /* \"#utility.yul\":2176:2182   */\n      dup5\n        /* \"#utility.yul\":2171:2174   */\n      dup3\n        /* \"#utility.yul\":2166:2169   */\n      dup6\n        /* \"#utility.yul\":2129:2183   */\n      tag_47\n      jump\t// in\n    tag_111:\n        /* \"#utility.yul\":1848:2189   */\n      pop\n        /* \"#utility.yul\":1764:2189   */\n      swap4\n      swap3\n      pop\n      pop\n      pop\n      jump\t// out\n        /* \"#utility.yul\":2209:2549   */\n    tag_49:\n        /* \"#utility.yul\":2265:2270   */\n      0x00\n        /* \"#utility.yul\":2314:2317   */\n      dup3\n        /* \"#utility.yul\":2307:2311   */\n      0x1f\n        /* \"#utility.yul\":2299:2305   */\n      dup4\n        /* \"#utility.yul\":2295:2312   */\n      add\n        /* \"#utility.yul\":2291:2318   */\n      slt\n        /* \"#utility.yul\":2281:2403   */\n      tag_113\n      jumpi\n        /* \"#utility.yul\":2322:2401   */\n      tag_114\n      tag_40\n      jump\t// in\n    tag_114:\n        /* \"#utility.yul\":2281:2403   */\n    tag_113:\n        /* \"#utility.yul\":2439:2445   */\n      dup2\n        /* \"#utility.yul\":2426:2446   */\n      calldataload\n        /* \"#utility.yul\":2464:2543   */\n      tag_115\n        /* \"#utility.yul\":2539:2542   */\n      dup5\n        /* \"#utility.yul\":2531:2537   */\n      dup3\n        /* \"#utility.yul\":2524:2528   */\n      0x20\n        /* \"#utility.yul\":2516:2522   */\n      dup7\n        /* \"#utility.yul\":2512:2529   */\n      add\n        /* \"#utility.yul\":2464:2543   */\n      tag_48\n      jump\t// in\n    tag_115:\n        /* \"#utility.yul\":2455:2543   */\n      swap2\n      pop\n        /* \"#utility.yul\":2271:2549   */\n      pop\n        /* \"#utility.yul\":2209:2549   */\n      swap3\n      swap2\n      pop\n      pop\n      jump\t// out\n        /* \"#utility.yul\":2555:2632   */\n    tag_50:\n        /* \"#utility.yul\":2592:2599   */\n      0x00\n        /* \"#utility.yul\":2621:2626   */\n      dup2\n        /* \"#utility.yul\":2610:2626   */\n      swap1\n      pop\n        /* \"#utility.yul\":2555:2632   */\n      swap2\n      swap1\n      pop\n      jump\t// out\n        /* \"#utility.yul\":2638:2760   */\n    tag_51:\n        /* \"#utility.yul\":2711:2735   */\n      tag_118\n        /* \"#utility.yul\":2729:2734   */\n      dup2\n        /* \"#utility.yul\":2711:2735   */\n      tag_50\n      jump\t// in\n    tag_118:\n        /* \"#utility.yul\":2704:2709   */\n      dup2\n        /* \"#utility.yul\":2701:2736   */\n      eq\n        /* \"#utility.yul\":2691:2754   */\n      tag_119\n      jumpi\n        /* \"#utility.yul\":2750:2751   */\n      0x00\n        /* \"#utility.yul\":2747:2748   */\n      dup1\n        /* \"#utility.yul\":2740:2752   */\n      revert\n        /* \"#utility.yul\":2691:2754   */\n    tag_119:\n        /* \"#utility.yul\":2638:2760   */\n      pop\n      jump\t// out\n        /* \"#utility.yul\":2766:2905   */\n    tag_52:\n        /* \"#utility.yul\":2812:2817   */\n      0x00\n        /* \"#utility.yul\":2850:2856   */\n      dup2\n        /* \"#utility.yul\":2837:2857   */\n      calldataload\n        /* \"#utility.yul\":2828:2857   */\n      swap1\n      pop\n        /* \"#utility.yul\":2866:2899   */\n      tag_121\n        /* \"#utility.yul\":2893:2898   */\n      dup2\n        /* \"#utility.yul\":2866:2899   */\n      tag_51\n      jump\t// in\n    tag_121:\n        /* \"#utility.yul\":2766:2905   */\n      swap3\n      swap2\n      pop\n      pop\n      jump\t// out\n        /* \"#utility.yul\":2911:3890   */\n    tag_7:\n        /* \"#utility.yul\":3008:3014   */\n      0x00\n        /* \"#utility.yul\":3016:3022   */\n      dup1\n        /* \"#utility.yul\":3024:3030   */\n      0x00\n        /* \"#utility.yul\":3073:3075   */\n      0x60\n        /* \"#utility.yul\":3061:3070   */\n      dup5\n        /* \"#utility.yul\":3052:3059   */\n      dup7\n        /* \"#utility.yul\":3048:3071   */\n      sub\n        /* \"#utility.yul\":3044:3076   */\n      slt\n        /* \"#utility.yul\":3041:3160   */\n      iszero\n      tag_123\n      jumpi\n        /* \"#utility.yul\":3079:3158   */\n      tag_124\n      tag_38\n      jump\t// in\n    tag_124:\n        /* \"#utility.yul\":3041:3160   */\n    tag_123:\n        /* \"#utility.yul\":3227:3228   */\n      0x00\n        /* \"#utility.yul\":3216:3225   */\n      dup5\n        /* \"#utility.yul\":3212:3229   */\n      add\n        /* \"#utility.yul\":3199:3230   */\n      calldataload\n        /* \"#utility.yul\":3257:3275   */\n      0xffffffffffffffff\n        /* \"#utility.yul\":3249:3255   */\n      dup2\n        /* \"#utility.yul\":3246:3276   */\n      gt\n        /* \"#utility.yul\":3243:3360   */\n      iszero\n      tag_125\n      jumpi\n        /* \"#utility.yul\":3279:3358   */\n      tag_126\n      tag_39\n      jump\t// in\n    tag_126:\n        /* \"#utility.yul\":3243:3360   */\n    tag_125:\n        /* \"#utility.yul\":3384:3447   */\n      tag_127\n        /* \"#utility.yul\":3439:3446   */\n      dup7\n        /* \"#utility.yul\":3430:3436   */\n      dup3\n        /* \"#utility.yul\":3419:3428   */\n      dup8\n        /* \"#utility.yul\":3415:3437   */\n      add\n        /* \"#utility.yul\":3384:3447   */\n      tag_49\n      jump\t// in\n    tag_127:\n        /* \"#utility.yul\":3374:3447   */\n      swap4\n      pop\n        /* \"#utility.yul\":3170:3457   */\n      pop\n        /* \"#utility.yul\":3524:3526   */\n      0x20\n        /* \"#utility.yul\":3513:3522   */\n      dup5\n        /* \"#utility.yul\":3509:3527   */\n      add\n        /* \"#utility.yul\":3496:3528   */\n      calldataload\n        /* \"#utility.yul\":3555:3573   */\n      0xffffffffffffffff\n        /* \"#utility.yul\":3547:3553   */\n      dup2\n        /* \"#utility.yul\":3544:3574   */\n      gt\n        /* \"#utility.yul\":3541:3658   */\n      iszero\n      tag_128\n      jumpi\n        /* \"#utility.yul\":3577:3656   */\n      tag_129\n      tag_39\n      jump\t// in\n    tag_129:\n        /* \"#utility.yul\":3541:3658   */\n    tag_128:\n        /* \"#utility.yul\":3682:3745   */\n      tag_130\n        /* \"#utility.yul\":3737:3744   */\n      dup7\n        /* \"#utility.yul\":3728:3734   */\n      dup3\n        /* \"#utility.yul\":3717:3726   */\n      dup8\n        /* \"#utility.yul\":3713:3735   */\n      add\n        /* \"#utility.yul\":3682:3745   */\n      tag_49\n      jump\t// in\n    tag_130:\n        /* \"#utility.yul\":3672:3745   */\n      swap3\n      pop\n        /* \"#utility.yul\":3467:3755   */\n      pop\n        /* \"#utility.yul\":3794:3796   */\n      0x40\n        /* \"#utility.yul\":3820:3873   */\n      tag_131\n        /* \"#utility.yul\":3865:3872   */\n      dup7\n        /* \"#utility.yul\":3856:3862   */\n      dup3\n        /* \"#utility.yul\":3845:3854   */\n      dup8\n        /* \"#utility.yul\":3841:3863   */\n      add\n        /* \"#utility.yul\":3820:3873   */\n      tag_52\n      jump\t// in\n    tag_131:\n        /* \"#utility.yul\":3810:3873   */\n      swap2\n      pop\n        /* \"#utility.yul\":3765:3883   */\n      pop\n        /* \"#utility.yul\":2911:3890   */\n      swap3\n      pop\n      swap3\n      pop\n      swap3\n      jump\t// out\n        /* \"#utility.yul\":3896:4022   */\n    tag_53:\n        /* \"#utility.yul\":3933:3940   */\n      0x00\n        /* \"#utility.yul\":3973:4015   */\n      0xffffffffffffffffffffffffffffffffffffffff\n        /* \"#utility.yul\":3966:3971   */\n      dup3\n        /* \"#utility.yul\":3962:4016   */\n      and\n        /* \"#utility.yul\":3951:4016   */\n      swap1\n      pop\n        /* \"#utility.yul\":3896:4022   */\n      swap2\n      swap1\n      pop\n      jump\t// out\n        /* \"#utility.yul\":4028:4124   */\n    tag_54:\n        /* \"#utility.yul\":4065:4072   */\n      0x00\n        /* \"#utility.yul\":4094:4118   */\n      tag_134\n        /* \"#utility.yul\":4112:4117   */\n      dup3\n        /* \"#utility.yul\":4094:4118   */\n      tag_53\n      jump\t// in\n    tag_134:\n        /* \"#utility.yul\":4083:4118   */\n      swap1\n      pop\n        /* \"#utility.yul\":4028:4124   */\n      swap2\n      swap1\n      pop\n      jump\t// out\n        /* \"#utility.yul\":4130:4252   */\n    tag_55:\n        /* \"#utility.yul\":4203:4227   */\n      tag_136\n        /* \"#utility.yul\":4221:4226   */\n      dup2\n        /* \"#utility.yul\":4203:4227   */\n      tag_54\n      jump\t// in\n    tag_136:\n        /* \"#utility.yul\":4196:4201   */\n      dup2\n        /* \"#utility.yul\":4193:4228   */\n      eq\n        /* \"#utility.yul\":4183:4246   */\n      tag_137\n      jumpi\n        /* \"#utility.yul\":4242:4243   */\n      0x00\n        /* \"#utility.yul\":4239:4240   */\n      dup1\n        /* \"#utility.yul\":4232:4244   */\n      revert\n        /* \"#utility.yul\":4183:4246   */\n    tag_137:\n        /* \"#utility.yul\":4130:4252   */\n      pop\n      jump\t// out\n        /* \"#utility.yul\":4258:4397   */\n    tag_56:\n        /* \"#utility.yul\":4304:4309   */\n      0x00\n        /* \"#utility.yul\":4342:4348   */\n      dup2\n        /* \"#utility.yul\":4329:4349   */\n      calldataload\n        /* \"#utility.yul\":4320:4349   */\n      swap1\n      pop\n        /* \"#utility.yul\":4358:4391   */\n      tag_139\n        /* \"#utility.yul\":4385:4390   */\n      dup2\n        /* \"#utility.yul\":4358:4391   */\n      tag_55\n      jump\t// in\n    tag_139:\n        /* \"#utility.yul\":4258:4397   */\n      swap3\n      swap2\n      pop\n      pop\n      jump\t// out\n        /* \"#utility.yul\":4403:4732   */\n    tag_11:\n        /* \"#utility.yul\":4462:4468   */\n      0x00\n        /* \"#utility.yul\":4511:4513   */\n      0x20\n        /* \"#utility.yul\":4499:4508   */\n      dup3\n        /* \"#utility.yul\":4490:4497   */\n      dup5\n        /* \"#utility.yul\":4486:4509   */\n      sub\n        /* \"#utility.yul\":4482:4514   */\n      slt\n        /* \"#utility.yul\":4479:4598   */\n      iszero\n      tag_141\n      jumpi\n        /* \"#utility.yul\":4517:4596   */\n      tag_142\n      tag_38\n      jump\t// in\n    tag_142:\n        /* \"#utility.yul\":4479:4598   */\n    tag_141:\n        /* \"#utility.yul\":4637:4638   */\n      0x00\n        /* \"#utility.yul\":4662:4715   */\n      tag_143\n        /* \"#utility.yul\":4707:4714   */\n      dup5\n        /* \"#utility.yul\":4698:4704   */\n      dup3\n        /* \"#utility.yul\":4687:4696   */\n      dup6\n        /* \"#utility.yul\":4683:4705   */\n      add\n        /* \"#utility.yul\":4662:4715   */\n      tag_56\n      jump\t// in\n    tag_143:\n        /* \"#utility.yul\":4652:4715   */\n      swap2\n      pop\n        /* \"#utility.yul\":4608:4725   */\n      pop\n        /* \"#utility.yul\":4403:4732   */\n      swap3\n      swap2\n      pop\n      pop\n      jump\t// out\n        /* \"#utility.yul\":4738:4872   */\n    tag_57:\n        /* \"#utility.yul\":4825:4831   */\n      0x00\n        /* \"#utility.yul\":4859:4864   */\n      dup2\n        /* \"#utility.yul\":4853:4865   */\n      mload\n        /* \"#utility.yul\":4843:4865   */\n      swap1\n      pop\n        /* \"#utility.yul\":4738:4872   */\n      swap2\n      swap1\n      pop\n      jump\t// out\n        /* \"#utility.yul\":4878:5072   */\n    tag_58:\n        /* \"#utility.yul\":4987:4998   */\n      0x00\n        /* \"#utility.yul\":5021:5027   */\n      dup3\n        /* \"#utility.yul\":5016:5019   */\n      dup3\n        /* \"#utility.yul\":5009:5028   */\n      mstore\n        /* \"#utility.yul\":5061:5065   */\n      0x20\n        /* \"#utility.yul\":5056:5059   */\n      dup3\n        /* \"#utility.yul\":5052:5066   */\n      add\n        /* \"#utility.yul\":5037:5066   */\n      swap1\n      pop\n        /* \"#utility.yul\":4878:5072   */\n      swap3\n      swap2\n      pop\n      pop\n      jump\t// out\n        /* \"#utility.yul\":5078:5230   */\n    tag_59:\n        /* \"#utility.yul\":5165:5169   */\n      0x00\n        /* \"#utility.yul\":5188:5191   */\n      dup2\n        /* \"#utility.yul\":5180:5191   */\n      swap1\n      pop\n        /* \"#utility.yul\":5218:5222   */\n      0x20\n        /* \"#utility.yul\":5213:5216   */\n      dup3\n        /* \"#utility.yul\":5209:5223   */\n      add\n        /* \"#utility.yul\":5201:5223   */\n      swap1\n      pop\n        /* \"#utility.yul\":5078:5230   */\n      swap2\n      swap1\n      pop\n      jump\t// out\n        /* \"#utility.yul\":5236:5335   */\n    tag_60:\n        /* \"#utility.yul\":5288:5294   */\n      0x00\n        /* \"#utility.yul\":5322:5327   */\n      dup2\n        /* \"#utility.yul\":5316:5328   */\n      mload\n        /* \"#utility.yul\":5306:5328   */\n      swap1\n      pop\n        /* \"#utility.yul\":5236:5335   */\n      swap2\n      swap1\n      pop\n      jump\t// out\n        /* \"#utility.yul\":5341:5500   */\n    tag_61:\n        /* \"#utility.yul\":5415:5426   */\n      0x00\n        /* \"#utility.yul\":5449:5455   */\n      dup3\n        /* \"#utility.yul\":5444:5447   */\n      dup3\n        /* \"#utility.yul\":5437:5456   */\n      mstore\n        /* \"#utility.yul\":5489:5493   */\n      0x20\n        /* \"#utility.yul\":5484:5487   */\n      dup3\n        /* \"#utility.yul\":5480:5494   */\n      add\n        /* \"#utility.yul\":5465:5494   */\n      swap1\n      pop\n        /* \"#utility.yul\":5341:5500   */\n      swap3\n      swap2\n      pop\n      pop\n      jump\t// out\n        /* \"#utility.yul\":5506:5645   */\n    tag_62:\n        /* \"#utility.yul\":5595:5601   */\n      dup3\n        /* \"#utility.yul\":5590:5593   */\n      dup2\n        /* \"#utility.yul\":5585:5588   */\n      dup4\n        /* \"#utility.yul\":5579:5602   */\n      mcopy\n        /* \"#utility.yul\":5636:5637   */\n      0x00\n        /* \"#utility.yul\":5627:5633   */\n      dup4\n        /* \"#utility.yul\":5622:5625   */\n      dup4\n        /* \"#utility.yul\":5618:5634   */\n      add\n        /* \"#utility.yul\":5611:5638   */\n      mstore\n        /* \"#utility.yul\":5506:5645   */\n      pop\n      pop\n      pop\n      jump\t// out\n        /* \"#utility.yul\":5651:6008   */\n    tag_63:\n        /* \"#utility.yul\":5729:5732   */\n      0x00\n        /* \"#utility.yul\":5757:5796   */\n      tag_151\n        /* \"#utility.yul\":5790:5795   */\n      dup3\n        /* \"#utility.yul\":5757:5796   */\n      tag_60\n      jump\t// in\n    tag_151:\n        /* \"#utility.yul\":5812:5873   */\n      tag_152\n        /* \"#utility.yul\":5866:5872   */\n      dup2\n        /* \"#utility.yul\":5861:5864   */\n      dup6\n        /* \"#utility.yul\":5812:5873   */\n      tag_61\n      jump\t// in\n    tag_152:\n        /* \"#utility.yul\":5805:5873   */\n      swap4\n      pop\n        /* \"#utility.yul\":5882:5947   */\n      tag_153\n        /* \"#utility.yul\":5940:5946   */\n      dup2\n        /* \"#utility.yul\":5935:5938   */\n      dup6\n        /* \"#utility.yul\":5928:5932   */\n      0x20\n        /* \"#utility.yul\":5921:5926   */\n      dup7\n        /* \"#utility.yul\":5917:5933   */\n      add\n        /* \"#utility.yul\":5882:5947   */\n      tag_62\n      jump\t// in\n    tag_153:\n        /* \"#utility.yul\":5972:6001   */\n      tag_154\n        /* \"#utility.yul\":5994:6000   */\n      dup2\n        /* \"#utility.yul\":5972:6001   */\n      tag_42\n      jump\t// in\n    tag_154:\n        /* \"#utility.yul\":5967:5970   */\n      dup5\n        /* \"#utility.yul\":5963:6002   */\n      add\n        /* \"#utility.yul\":5956:6002   */\n      swap2\n      pop\n        /* \"#utility.yul\":5733:6008   */\n      pop\n        /* \"#utility.yul\":5651:6008   */\n      swap3\n      swap2\n      pop\n      pop\n      jump\t// out\n        /* \"#utility.yul\":6014:6122   */\n    tag_64:\n        /* \"#utility.yul\":6091:6115   */\n      tag_156\n        /* \"#utility.yul\":6109:6114   */\n      dup2\n        /* \"#utility.yul\":6091:6115   */\n      tag_50\n      jump\t// in\n    tag_156:\n        /* \"#utility.yul\":6086:6089   */\n      dup3\n        /* \"#utility.yul\":6079:6116   */\n      mstore\n        /* \"#utility.yul\":6014:6122   */\n      pop\n      pop\n      jump\t// out\n        /* \"#utility.yul\":6204:7059   */\n    tag_65:\n        /* \"#utility.yul\":6303:6306   */\n      0x00\n        /* \"#utility.yul\":6339:6343   */\n      0x60\n        /* \"#utility.yul\":6334:6337   */\n      dup4\n        /* \"#utility.yul\":6330:6344   */\n      add\n        /* \"#utility.yul\":6436:6440   */\n      0x00\n        /* \"#utility.yul\":6429:6434   */\n      dup4\n        /* \"#utility.yul\":6425:6441   */\n      add\n        /* \"#utility.yul\":6419:6442   */\n      mload\n        /* \"#utility.yul\":6489:6492   */\n      dup5\n        /* \"#utility.yul\":6483:6487   */\n      dup3\n        /* \"#utility.yul\":6479:6493   */\n      sub\n        /* \"#utility.yul\":6472:6476   */\n      0x00\n        /* \"#utility.yul\":6467:6470   */\n      dup7\n        /* \"#utility.yul\":6463:6477   */\n      add\n        /* \"#utility.yul\":6456:6494   */\n      mstore\n        /* \"#utility.yul\":6515:6588   */\n      tag_158\n        /* \"#utility.yul\":6583:6587   */\n      dup3\n        /* \"#utility.yul\":6569:6581   */\n      dup3\n        /* \"#utility.yul\":6515:6588   */\n      tag_63\n      jump\t// in\n    tag_158:\n        /* \"#utility.yul\":6507:6588   */\n      swap2\n      pop\n        /* \"#utility.yul\":6354:6599   */\n      pop\n        /* \"#utility.yul\":6687:6691   */\n      0x20\n        /* \"#utility.yul\":6680:6685   */\n      dup4\n        /* \"#utility.yul\":6676:6692   */\n      add\n        /* \"#utility.yul\":6670:6693   */\n      mload\n        /* \"#utility.yul\":6740:6743   */\n      dup5\n        /* \"#utility.yul\":6734:6738   */\n      dup3\n        /* \"#utility.yul\":6730:6744   */\n      sub\n        /* \"#utility.yul\":6723:6727   */\n      0x20\n        /* \"#utility.yul\":6718:6721   */\n      dup7\n        /* \"#utility.yul\":6714:6728   */\n      add\n        /* \"#utility.yul\":6707:6745   */\n      mstore\n        /* \"#utility.yul\":6766:6839   */\n      tag_159\n        /* \"#utility.yul\":6834:6838   */\n      dup3\n        /* \"#utility.yul\":6820:6832   */\n      dup3\n        /* \"#utility.yul\":6766:6839   */\n      tag_63\n      jump\t// in\n    tag_159:\n        /* \"#utility.yul\":6758:6839   */\n      swap2\n      pop\n        /* \"#utility.yul\":6609:6850   */\n      pop\n        /* \"#utility.yul\":6940:6944   */\n      0x40\n        /* \"#utility.yul\":6933:6938   */\n      dup4\n        /* \"#utility.yul\":6929:6945   */\n      add\n        /* \"#utility.yul\":6923:6946   */\n      mload\n        /* \"#utility.yul\":6959:7022   */\n      tag_160\n        /* \"#utility.yul\":7016:7020   */\n      0x40\n        /* \"#utility.yul\":7011:7014   */\n      dup7\n        /* \"#utility.yul\":7007:7021   */\n      add\n        /* \"#utility.yul\":6993:7005   */\n      dup3\n        /* \"#utility.yul\":6959:7022   */\n      tag_64\n      jump\t// in\n    tag_160:\n        /* \"#utility.yul\":6860:7032   */\n      pop\n        /* \"#utility.yul\":7049:7053   */\n      dup1\n        /* \"#utility.yul\":7042:7053   */\n      swap2\n      pop\n        /* \"#utility.yul\":6308:7059   */\n      pop\n        /* \"#utility.yul\":6204:7059   */\n      swap3\n      swap2\n      pop\n      pop\n      jump\t// out\n        /* \"#utility.yul\":7065:7301   */\n    tag_66:\n        /* \"#utility.yul\":7174:7184   */\n      0x00\n        /* \"#utility.yul\":7209:7295   */\n      tag_162\n        /* \"#utility.yul\":7291:7294   */\n      dup4\n        /* \"#utility.yul\":7283:7289   */\n      dup4\n        /* \"#utility.yul\":7209:7295   */\n      tag_65\n      jump\t// in\n    tag_162:\n        /* \"#utility.yul\":7195:7295   */\n      swap1\n      pop\n        /* \"#utility.yul\":7065:7301   */\n      swap3\n      swap2\n      pop\n      pop\n      jump\t// out\n        /* \"#utility.yul\":7307:7440   */\n    tag_67:\n        /* \"#utility.yul\":7397:7401   */\n      0x00\n        /* \"#utility.yul\":7429:7433   */\n      0x20\n        /* \"#utility.yul\":7424:7427   */\n      dup3\n        /* \"#utility.yul\":7420:7434   */\n      add\n        /* \"#utility.yul\":7412:7434   */\n      swap1\n      pop\n        /* \"#utility.yul\":7307:7440   */\n      swap2\n      swap1\n      pop\n      jump\t// out\n        /* \"#utility.yul\":7526:8577   */\n    tag_68:\n        /* \"#utility.yul\":7675:7678   */\n      0x00\n        /* \"#utility.yul\":7704:7778   */\n      tag_165\n        /* \"#utility.yul\":7772:7777   */\n      dup3\n        /* \"#utility.yul\":7704:7778   */\n      tag_57\n      jump\t// in\n    tag_165:\n        /* \"#utility.yul\":7794:7890   */\n      tag_166\n        /* \"#utility.yul\":7883:7889   */\n      dup2\n        /* \"#utility.yul\":7878:7881   */\n      dup6\n        /* \"#utility.yul\":7794:7890   */\n      tag_58\n      jump\t// in\n    tag_166:\n        /* \"#utility.yul\":7787:7890   */\n      swap4\n      pop\n        /* \"#utility.yul\":7916:7919   */\n      dup4\n        /* \"#utility.yul\":7961:7965   */\n      0x20\n        /* \"#utility.yul\":7953:7959   */\n      dup3\n        /* \"#utility.yul\":7949:7966   */\n      mul\n        /* \"#utility.yul\":7944:7947   */\n      dup6\n        /* \"#utility.yul\":7940:7967   */\n      add\n        /* \"#utility.yul\":7991:8067   */\n      tag_167\n        /* \"#utility.yul\":8061:8066   */\n      dup6\n        /* \"#utility.yul\":7991:8067   */\n      tag_59\n      jump\t// in\n    tag_167:\n        /* \"#utility.yul\":8090:8097   */\n      dup1\n        /* \"#utility.yul\":8121:8122   */\n      0x00\n        /* \"#utility.yul\":8106:8532   */\n    tag_168:\n        /* \"#utility.yul\":8131:8137   */\n      dup6\n        /* \"#utility.yul\":8128:8129   */\n      dup2\n        /* \"#utility.yul\":8125:8138   */\n      lt\n        /* \"#utility.yul\":8106:8532   */\n      iszero\n      tag_170\n      jumpi\n        /* \"#utility.yul\":8202:8211   */\n      dup5\n        /* \"#utility.yul\":8196:8200   */\n      dup5\n        /* \"#utility.yul\":8192:8212   */\n      sub\n        /* \"#utility.yul\":8187:8190   */\n      dup10\n        /* \"#utility.yul\":8180:8213   */\n      mstore\n        /* \"#utility.yul\":8253:8259   */\n      dup2\n        /* \"#utility.yul\":8247:8260   */\n      mload\n        /* \"#utility.yul\":8281:8385   */\n      tag_171\n        /* \"#utility.yul\":8380:8384   */\n      dup6\n        /* \"#utility.yul\":8365:8378   */\n      dup3\n        /* \"#utility.yul\":8281:8385   */\n      tag_66\n      jump\t// in\n    tag_171:\n        /* \"#utility.yul\":8273:8385   */\n      swap5\n      pop\n        /* \"#utility.yul\":8408:8488   */\n      tag_172\n        /* \"#utility.yul\":8481:8487   */\n      dup4\n        /* \"#utility.yul\":8408:8488   */\n      tag_67\n      jump\t// in\n    tag_172:\n        /* \"#utility.yul\":8398:8488   */\n      swap3\n      pop\n        /* \"#utility.yul\":8517:8521   */\n      0x20\n        /* \"#utility.yul\":8512:8515   */\n      dup11\n        /* \"#utility.yul\":8508:8522   */\n      add\n        /* \"#utility.yul\":8501:8522   */\n      swap10\n      pop\n        /* \"#utility.yul\":8166:8532   */\n      pop\n        /* \"#utility.yul\":8153:8154   */\n      0x01\n        /* \"#utility.yul\":8150:8151   */\n      dup2\n        /* \"#utility.yul\":8146:8155   */\n      add\n        /* \"#utility.yul\":8141:8155   */\n      swap1\n      pop\n        /* \"#utility.yul\":8106:8532   */\n      jump(tag_168)\n    tag_170:\n        /* \"#utility.yul\":8110:8124   */\n      pop\n        /* \"#utility.yul\":8548:8552   */\n      dup3\n        /* \"#utility.yul\":8541:8552   */\n      swap8\n      pop\n        /* \"#utility.yul\":8568:8571   */\n      dup8\n        /* \"#utility.yul\":8561:8571   */\n      swap6\n      pop\n        /* \"#utility.yul\":7680:8577   */\n      pop\n      pop\n      pop\n      pop\n      pop\n        /* \"#utility.yul\":7526:8577   */\n      swap3\n      swap2\n      pop\n      pop\n      jump\t// out\n        /* \"#utility.yul\":8671:9185   */\n    tag_69:\n        /* \"#utility.yul\":8794:8797   */\n      0x00\n        /* \"#utility.yul\":8830:8834   */\n      0x20\n        /* \"#utility.yul\":8825:8828   */\n      dup4\n        /* \"#utility.yul\":8821:8835   */\n      add\n        /* \"#utility.yul\":8925:8929   */\n      0x00\n        /* \"#utility.yul\":8918:8923   */\n      dup4\n        /* \"#utility.yul\":8914:8930   */\n      add\n        /* \"#utility.yul\":8908:8931   */\n      mload\n        /* \"#utility.yul\":8978:8981   */\n      dup5\n        /* \"#utility.yul\":8972:8976   */\n      dup3\n        /* \"#utility.yul\":8968:8982   */\n      sub\n        /* \"#utility.yul\":8961:8965   */\n      0x00\n        /* \"#utility.yul\":8956:8959   */\n      dup7\n        /* \"#utility.yul\":8952:8966   */\n      add\n        /* \"#utility.yul\":8945:8983   */\n      mstore\n        /* \"#utility.yul\":9004:9147   */\n      tag_174\n        /* \"#utility.yul\":9142:9146   */\n      dup3\n        /* \"#utility.yul\":9128:9140   */\n      dup3\n        /* \"#utility.yul\":9004:9147   */\n      tag_68\n      jump\t// in\n    tag_174:\n        /* \"#utility.yul\":8996:9147   */\n      swap2\n      pop\n        /* \"#utility.yul\":8845:9158   */\n      pop\n        /* \"#utility.yul\":9175:9179   */\n      dup1\n        /* \"#utility.yul\":9168:9179   */\n      swap2\n      pop\n        /* \"#utility.yul\":8799:9185   */\n      pop\n        /* \"#utility.yul\":8671:9185   */\n      swap3\n      swap2\n      pop\n      pop\n      jump\t// out\n        /* \"#utility.yul\":9191:9572   */\n    tag_14:\n        /* \"#utility.yul\":9338:9342   */\n      0x00\n        /* \"#utility.yul\":9376:9378   */\n      0x20\n        /* \"#utility.yul\":9365:9374   */\n      dup3\n        /* \"#utility.yul\":9361:9379   */\n      add\n        /* \"#utility.yul\":9353:9379   */\n      swap1\n      pop\n        /* \"#utility.yul\":9425:9434   */\n      dup2\n        /* \"#utility.yul\":9419:9423   */\n      dup2\n        /* \"#utility.yul\":9415:9435   */\n      sub\n        /* \"#utility.yul\":9411:9412   */\n      0x00\n        /* \"#utility.yul\":9400:9409   */\n      dup4\n        /* \"#utility.yul\":9396:9413   */\n      add\n        /* \"#utility.yul\":9389:9436   */\n      mstore\n        /* \"#utility.yul\":9453:9565   */\n      tag_176\n        /* \"#utility.yul\":9560:9564   */\n      dup2\n        /* \"#utility.yul\":9551:9557   */\n      dup5\n        /* \"#utility.yul\":9453:9565   */\n      tag_69\n      jump\t// in\n    tag_176:\n        /* \"#utility.yul\":9445:9565   */\n      swap1\n      pop\n        /* \"#utility.yul\":9191:9572   */\n      swap3\n      swap2\n      pop\n      pop\n      jump\t// out\n        /* \"#utility.yul\":9578:9758   */\n    tag_70:\n        /* \"#utility.yul\":9626:9703   */\n      0x4e487b7100000000000000000000000000000000000000000000000000000000\n        /* \"#utility.yul\":9623:9624   */\n      0x00\n        /* \"#utility.yul\":9616:9704   */\n      mstore\n        /* \"#utility.yul\":9723:9727   */\n      0x22\n        /* \"#utility.yul\":9720:9721   */\n      0x04\n        /* \"#utility.yul\":9713:9728   */\n      mstore\n        /* \"#utility.yul\":9747:9751   */\n      0x24\n        /* \"#utility.yul\":9744:9745   */\n      0x00\n        /* \"#utility.yul\":9737:9752   */\n      revert\n        /* \"#utility.yul\":9764:10084   */\n    tag_27:\n        /* \"#utility.yul\":9808:9814   */\n      0x00\n        /* \"#utility.yul\":9845:9846   */\n      0x02\n        /* \"#utility.yul\":9839:9843   */\n      dup3\n        /* \"#utility.yul\":9835:9847   */\n      div\n        /* \"#utility.yul\":9825:9847   */\n      swap1\n      pop\n        /* \"#utility.yul\":9892:9893   */\n      0x01\n        /* \"#utility.yul\":9886:9890   */\n      dup3\n        /* \"#utility.yul\":9882:9894   */\n      and\n        /* \"#utility.yul\":9913:9931   */\n      dup1\n        /* \"#utility.yul\":9903:9984   */\n      tag_179\n      jumpi\n        /* \"#utility.yul\":9969:9973   */\n      0x7f\n        /* \"#utility.yul\":9961:9967   */\n      dup3\n        /* \"#utility.yul\":9957:9974   */\n      and\n        /* \"#utility.yul\":9947:9974   */\n      swap2\n      pop\n        /* \"#utility.yul\":9903:9984   */\n    tag_179:\n        /* \"#utility.yul\":10031:10033   */\n      0x20\n        /* \"#utility.yul\":10023:10029   */\n      dup3\n        /* \"#utility.yul\":10020:10034   */\n      lt\n        /* \"#utility.yul\":10000:10018   */\n      dup2\n        /* \"#utility.yul\":9997:10035   */\n      sub\n        /* \"#utility.yul\":9994:10078   */\n      tag_180\n      jumpi\n        /* \"#utility.yul\":10050:10068   */\n      tag_181\n      tag_70\n      jump\t// in\n    tag_181:\n        /* \"#utility.yul\":9994:10078   */\n    tag_180:\n        /* \"#utility.yul\":9815:10084   */\n      pop\n        /* \"#utility.yul\":9764:10084   */\n      swap2\n      swap1\n      pop\n      jump\t// out\n        /* \"#utility.yul\":10090:10231   */\n    tag_71:\n        /* \"#utility.yul\":10139:10143   */\n      0x00\n        /* \"#utility.yul\":10162:10165   */\n      dup2\n        /* \"#utility.yul\":10154:10165   */\n      swap1\n      pop\n        /* \"#utility.yul\":10185:10188   */\n      dup2\n        /* \"#utility.yul\":10182:10183   */\n      0x00\n        /* \"#utility.yul\":10175:10189   */\n      mstore\n        /* \"#utility.yul\":10219:10223   */\n      0x20\n        /* \"#utility.yul\":10216:10217   */\n      0x00\n        /* \"#utility.yul\":10206:10224   */\n      keccak256\n        /* \"#utility.yul\":10198:10224   */\n      swap1\n      pop\n        /* \"#utility.yul\":10090:10231   */\n      swap2\n      swap1\n      pop\n      jump\t// out\n        /* \"#utility.yul\":10237:10330   */\n    tag_72:\n        /* \"#utility.yul\":10274:10280   */\n      0x00\n        /* \"#utility.yul\":10321:10323   */\n      0x20\n        /* \"#utility.yul\":10316:10318   */\n      0x1f\n        /* \"#utility.yul\":10309:10314   */\n      dup4\n        /* \"#utility.yul\":10305:10319   */\n      add\n        /* \"#utility.yul\":10301:10324   */\n      div\n        /* \"#utility.yul\":10291:10324   */\n      swap1\n      pop\n        /* \"#utility.yul\":10237:10330   */\n      swap2\n      swap1\n      pop\n      jump\t// out\n        /* \"#utility.yul\":10336:10443   */\n    tag_73:\n        /* \"#utility.yul\":10380:10388   */\n      0x00\n        /* \"#utility.yul\":10430:10435   */\n      dup3\n        /* \"#utility.yul\":10424:10428   */\n      dup3\n        /* \"#utility.yul\":10420:10436   */\n      shl\n        /* \"#utility.yul\":10399:10436   */\n      swap1\n      pop\n        /* \"#utility.yul\":10336:10443   */\n      swap3\n      swap2\n      pop\n      pop\n      jump\t// out\n        /* \"#utility.yul\":10449:10842   */\n    tag_74:\n        /* \"#utility.yul\":10518:10524   */\n      0x00\n        /* \"#utility.yul\":10568:10569   */\n      0x08\n        /* \"#utility.yul\":10556:10566   */\n      dup4\n        /* \"#utility.yul\":10552:10570   */\n      mul\n        /* \"#utility.yul\":10591:10688   */\n      tag_186\n        /* \"#utility.yul\":10621:10687   */\n      0xffffffffffffffffffffffffffffffffffffffffffffffffffffffffffffffff\n        /* \"#utility.yul\":10610:10619   */\n      dup3\n        /* \"#utility.yul\":10591:10688   */\n      tag_73\n      jump\t// in\n    tag_186:\n        /* \"#utility.yul\":10709:10748   */\n      tag_187\n        /* \"#utility.yul\":10739:10747   */\n      dup7\n        /* \"#utility.yul\":10728:10737   */\n      dup4\n        /* \"#utility.yul\":10709:10748   */\n      tag_73\n      jump\t// in\n    tag_187:\n        /* \"#utility.yul\":10697:10748   */\n      swap6\n      pop\n        /* \"#utility.yul\":10781:10785   */\n      dup1\n        /* \"#utility.yul\":10777:10786   */\n      not\n        /* \"#utility.yul\":10770:10775   */\n      dup5\n        /* \"#utility.yul\":10766:10787   */\n      and\n        /* \"#utility.yul\":10757:10787   */\n      swap4\n      pop\n        /* \"#utility.yul\":10830:10834   */\n      dup1\n        /* \"#utility.yul\":10820:10828   */\n      dup7\n        /* \"#utility.yul\":10816:10835   */\n      and\n        /* \"#utility.yul\":10809:10814   */\n      dup5\n        /* \"#utility.yul\":10806:10836   */\n      or\n        /* \"#utility.yul\":10796:10836   */\n      swap3\n      pop\n        /* \"#utility.yul\":10525:10842   */\n      pop\n      pop\n        /* \"#utility.yul\":10449:10842   */\n      swap4\n      swap3\n      pop\n      pop\n      pop\n      jump\t// out\n        /* \"#utility.yul\":10848:10908   */\n    tag_75:\n        /* \"#utility.yul\":10876:10879   */\n      0x00\n        /* \"#utility.yul\":10897:10902   */\n      dup2\n        /* \"#utility.yul\":10890:10902   */\n      swap1\n      pop\n        /* \"#utility.yul\":10848:10908   */\n      swap2\n      swap1\n      pop\n      jump\t// out\n        /* \"#utility.yul\":10914:11056   */\n    tag_76:\n        /* \"#utility.yul\":10964:10973   */\n      0x00\n        /* \"#utility.yul\":10997:11050   */\n      tag_190\n        /* \"#utility.yul\":11015:11049   */\n      tag_191\n        /* \"#utility.yul\":11024:11048   */\n      tag_192\n        /* \"#utility.yul\":11042:11047   */\n      dup5\n        /* \"#utility.yul\":11024:11048   */\n      tag_50\n      jump\t// in\n    tag_192:\n        /* \"#utility.yul\":11015:11049   */\n      tag_75\n      jump\t// in\n    tag_191:\n        /* \"#utility.yul\":10997:11050   */\n      tag_50\n      jump\t// in\n    tag_190:\n        /* \"#utility.yul\":10984:11050   */\n      swap1\n      pop\n        /* \"#utility.yul\":10914:11056   */\n      swap2\n      swap1\n      pop\n      jump\t// out\n        /* \"#utility.yul\":11062:11137   */\n    tag_77:\n        /* \"#utility.yul\":11105:11108   */\n      0x00\n        /* \"#utility.yul\":11126:11131   */\n      dup2\n        /* \"#utility.yul\":11119:11131   */\n      swap1\n      pop\n        /* \"#utility.yul\":11062:11137   */\n      swap2\n      swap1\n      pop\n      jump\t// out\n        /* \"#utility.yul\":11143:11412   */\n    tag_78:\n        /* \"#utility.yul\":11253:11292   */\n      tag_195\n        /* \"#utility.yul\":11284:11291   */\n      dup4\n        /* \"#utility.yul\":11253:11292   */\n      tag_76\n      jump\t// in\n    tag_195:\n        /* \"#utility.yul\":11314:11405   */\n      tag_196\n        /* \"#utility.yul\":11363:11404   */\n      tag_197\n        /* \"#utility.yul\":11387:11403   */\n      dup3\n        /* \"#utility.yul\":11363:11404   */\n      tag_77\n      jump\t// in\n    tag_197:\n        /* \"#utility.yul\":11355:11361   */\n      dup5\n        /* \"#utility.yul\":11348:11352   */\n      dup5\n        /* \"#utility.yul\":11342:11353   */\n      sload\n        /* \"#utility.yul\":11314:11405   */\n      tag_74\n      jump\t// in\n    tag_196:\n        /* \"#utility.yul\":11308:11312   */\n      dup3\n        /* \"#utility.yul\":11301:11406   */\n      sstore\n        /* \"#utility.yul\":11219:11412   */\n      pop\n        /* \"#utility.yul\":11143:11412   */\n      pop\n      pop\n      pop\n      jump\t// out\n        /* \"#utility.yul\":11418:11491   */\n    tag_79:\n        /* \"#utility.yul\":11463:11466   */\n      0x00\n        /* \"#utility.yul\":11418:11491   */\n      swap1\n      jump\t// out\n        /* \"#utility.yul\":11497:11686   */\n    tag_80:\n        /* \"#utility.yul\":11574:11606   */\n      tag_200\n      tag_79\n      jump\t// in\n    tag_200:\n        /* \"#utility.yul\":11615:11680   */\n      tag_201\n        /* \"#utility.yul\":11673:11679   */\n      dup2\n        /* \"#utility.yul\":11665:11671   */\n      dup5\n        /* \"#utility.yul\":11659:11663   */\n      dup5\n        /* \"#utility.yul\":11615:11680   */\n      tag_78\n      jump\t// in\n    tag_201:\n        /* \"#utility.yul\":11550:11686   */\n      pop\n        /* \"#utility.yul\":11497:11686   */\n      pop\n      pop\n      jump\t// out\n        /* \"#utility.yul\":11692:11878   */\n    tag_81:\n        /* \"#utility.yul\":11752:11872   */\n    tag_203:\n        /* \"#utility.yul\":11769:11772   */\n      dup2\n        /* \"#utility.yul\":11762:11767   */\n      dup2\n        /* \"#utility.yul\":11759:11773   */\n      lt\n        /* \"#utility.yul\":11752:11872   */\n      iszero\n      tag_205\n      jumpi\n        /* \"#utility.yul\":11823:11862   */\n      tag_206\n        /* \"#utility.yul\":11860:11861   */\n      0x00\n        /* \"#utility.yul\":11853:11858   */\n      dup3\n        /* \"#utility.yul\":11823:11862   */\n      tag_80\n      jump\t// in\n    tag_206:\n        /* \"#utility.yul\":11796:11797   */\n      0x01\n        /* \"#utility.yul\":11789:11794   */\n      dup2\n        /* \"#utility.yul\":11785:11798   */\n      add\n        /* \"#utility.yul\":11776:11798   */\n      swap1\n      pop\n        /* \"#utility.yul\":11752:11872   */\n      jump(tag_203)\n    tag_205:\n        /* \"#utility.yul\":11692:11878   */\n      pop\n      pop\n      jump\t// out\n        /* \"#utility.yul\":11884:12427   */\n    tag_82:\n        /* \"#utility.yul\":11985:11987   */\n      0x1f\n        /* \"#utility.yul\":11980:11983   */\n      dup3\n        /* \"#utility.yul\":11977:11988   */\n      gt\n        /* \"#utility.yul\":11974:12420   */\n      iszero\n      tag_208\n      jumpi\n        /* \"#utility.yul\":12019:12057   */\n      tag_209\n        /* \"#utility.yul\":12051:12056   */\n      dup2\n        /* \"#utility.yul\":12019:12057   */\n      tag_71\n      jump\t// in\n    tag_209:\n        /* \"#utility.yul\":12103:12132   */\n      tag_210\n        /* \"#utility.yul\":12121:12131   */\n      dup5\n        /* \"#utility.yul\":12103:12132   */\n      tag_72\n      jump\t// in\n    tag_210:\n        /* \"#utility.yul\":12093:12101   */\n      dup2\n        /* \"#utility.yul\":12089:12133   */\n      add\n        /* \"#utility.yul\":12286:12288   */\n      0x20\n        /* \"#utility.yul\":12274:12284   */\n      dup6\n        /* \"#utility.yul\":12271:12289   */\n      lt\n        /* \"#utility.yul\":12268:12317   */\n      iszero\n      tag_211\n      jumpi\n        /* \"#utility.yul\":12307:12315   */\n      dup2\n        /* \"#utility.yul\":12292:12315   */\n      swap1\n      pop\n        /* \"#utility.yul\":12268:12317   */\n    tag_211:\n        /* \"#utility.yul\":12330:12410   */\n      tag_212\n        /* \"#utility.yul\":12386:12408   */\n      tag_213\n        /* \"#utility.yul\":12404:12407   */\n      dup6\n        /* \"#utility.yul\":12386:12408   */\n      tag_72\n      jump\t// in\n    tag_213:\n        /* \"#utility.yul\":12376:12384   */\n      dup4\n        /* \"#utility.yul\":12372:12409   */\n      add\n        /* \"#utility.yul\":12359:12370   */\n      dup3\n        /* \"#utility.yul\":12330:12410   */\n      tag_81\n      jump\t// in\n    tag_212:\n        /* \"#utility.yul\":11989:12420   */\n      pop\n      pop\n        /* \"#utility.yul\":11974:12420   */\n    tag_208:\n        /* \"#utility.yul\":11884:12427   */\n      pop\n      pop\n      pop\n      jump\t// out\n        /* \"#utility.yul\":12433:12550   */\n    tag_83:\n        /* \"#utility.yul\":12487:12495   */\n      0x00\n        /* \"#utility.yul\":12537:12542   */\n      dup3\n        /* \"#utility.yul\":12531:12535   */\n      dup3\n        /* \"#utility.yul\":12527:12543   */\n      shr\n        /* \"#utility.yul\":12506:12543   */\n      swap1\n      pop\n        /* \"#utility.yul\":12433:12550   */\n      swap3\n      swap2\n      pop\n      pop\n      jump\t// out\n        /* \"#utility.yul\":12556:12725   */\n    tag_84:\n        /* \"#utility.yul\":12600:12606   */\n      0x00\n        /* \"#utility.yul\":12633:12684   */\n      tag_216\n        /* \"#utility.yul\":12681:12682   */\n      0x00\n        /* \"#utility.yul\":12677:12683   */\n      not\n        /* \"#utility.yul\":12669:12674   */\n      dup5\n        /* \"#utility.yul\":12666:12667   */\n      0x08\n        /* \"#utility.yul\":12662:12675   */\n      mul\n        /* \"#utility.yul\":12633:12684   */\n      tag_83\n      jump\t// in\n    tag_216:\n        /* \"#utility.yul\":12629:12685   */\n      not\n        /* \"#utility.yul\":12714:12718   */\n      dup1\n        /* \"#utility.yul\":12708:12712   */\n      dup4\n        /* \"#utility.yul\":12704:12719   */\n      and\n        /* \"#utility.yul\":12694:12719   */\n      swap2\n      pop\n        /* \"#utility.yul\":12607:12725   */\n      pop\n        /* \"#utility.yul\":12556:12725   */\n      swap3\n      swap2\n      pop\n      pop\n      jump\t// out\n        /* \"#utility.yul\":12730:13025   */\n    tag_85:\n        /* \"#utility.yul\":12806:12810   */\n      0x00\n        /* \"#utility.yul\":12952:12981   */\n      tag_218\n        /* \"#utility.yul\":12977:12980   */\n      dup4\n        /* \"#utility.yul\":12971:12975   */\n      dup4\n        /* \"#utility.yul\":12952:12981   */\n      tag_84\n      jump\t// in\n    tag_218:\n        /* \"#utility.yul\":12944:12981   */\n      swap2\n      pop\n        /* \"#utility.yul\":13014:13017   */\n      dup3\n        /* \"#utility.yul\":13011:13012   */\n      0x02\n        /* \"#utility.yul\":13007:13018   */\n      mul\n        /* \"#utility.yul\":13001:13005   */\n      dup3\n        /* \"#utility.yul\":12998:13019   */\n      or\n        /* \"#utility.yul\":12990:13019   */\n      swap1\n      pop\n        /* \"#utility.yul\":12730:13025   */\n      swap3\n      swap2\n      pop\n      pop\n      jump\t// out\n        /* \"#utility.yul\":13030:14425   */\n    tag_18:\n        /* \"#utility.yul\":13147:13184   */\n      tag_220\n        /* \"#utility.yul\":13180:13183   */\n      dup3\n        /* \"#utility.yul\":13147:13184   */\n      tag_60\n      jump\t// in\n    tag_220:\n        /* \"#utility.yul\":13249:13267   */\n      0xffffffffffffffff\n        /* \"#utility.yul\":13241:13247   */\n      dup2\n        /* \"#utility.yul\":13238:13268   */\n      gt\n        /* \"#utility.yul\":13235:13291   */\n      iszero\n      tag_221\n      jumpi\n        /* \"#utility.yul\":13271:13289   */\n      tag_222\n      tag_43\n      jump\t// in\n    tag_222:\n        /* \"#utility.yul\":13235:13291   */\n    tag_221:\n        /* \"#utility.yul\":13315:13353   */\n      tag_223\n        /* \"#utility.yul\":13347:13351   */\n      dup3\n        /* \"#utility.yul\":13341:13352   */\n      sload\n        /* \"#utility.yul\":13315:13353   */\n      tag_27\n      jump\t// in\n    tag_223:\n        /* \"#utility.yul\":13400:13467   */\n      tag_224\n        /* \"#utility.yul\":13460:13466   */\n      dup3\n        /* \"#utility.yul\":13452:13458   */\n      dup3\n        /* \"#utility.yul\":13446:13450   */\n      dup6\n        /* \"#utility.yul\":13400:13467   */\n      tag_82\n      jump\t// in\n    tag_224:\n        /* \"#utility.yul\":13494:13495   */\n      0x00\n        /* \"#utility.yul\":13518:13522   */\n      0x20\n        /* \"#utility.yul\":13505:13522   */\n      swap1\n      pop\n        /* \"#utility.yul\":13550:13552   */\n      0x1f\n        /* \"#utility.yul\":13542:13548   */\n      dup4\n        /* \"#utility.yul\":13539:13553   */\n      gt\n        /* \"#utility.yul\":13567:13568   */\n      0x01\n        /* \"#utility.yul\":13562:14180   */\n      dup2\n      eq\n      tag_226\n      jumpi\n        /* \"#utility.yul\":14224:14225   */\n      0x00\n        /* \"#utility.yul\":14241:14247   */\n      dup5\n        /* \"#utility.yul\":14238:14315   */\n      iszero\n      tag_227\n      jumpi\n        /* \"#utility.yul\":14290:14299   */\n      dup3\n        /* \"#utility.yul\":14285:14288   */\n      dup8\n        /* \"#utility.yul\":14281:14300   */\n      add\n        /* \"#utility.yul\":14275:14301   */\n      mload\n        /* \"#utility.yul\":14266:14301   */\n      swap1\n      pop\n        /* \"#utility.yul\":14238:14315   */\n    tag_227:\n        /* \"#utility.yul\":14341:14408   */\n      tag_228\n        /* \"#utility.yul\":14401:14407   */\n      dup6\n        /* \"#utility.yul\":14394:14399   */\n      dup3\n        /* \"#utility.yul\":14341:14408   */\n      tag_85\n      jump\t// in\n    tag_228:\n        /* \"#utility.yul\":14335:14339   */\n      dup7\n        /* \"#utility.yul\":14328:14409   */\n      sstore\n        /* \"#utility.yul\":14197:14419   */\n      pop\n        /* \"#utility.yul\":13532:14419   */\n      jump(tag_225)\n        /* \"#utility.yul\":13562:14180   */\n    tag_226:\n        /* \"#utility.yul\":13614:13618   */\n      0x1f\n        /* \"#utility.yul\":13610:13619   */\n      not\n        /* \"#utility.yul\":13602:13608   */\n      dup5\n        /* \"#utility.yul\":13598:13620   */\n      and\n        /* \"#utility.yul\":13648:13685   */\n      tag_229\n        /* \"#utility.yul\":13680:13684   */\n      dup7\n        /* \"#utility.yul\":13648:13685   */\n      tag_71\n      jump\t// in\n    tag_229:\n        /* \"#utility.yul\":13707:13708   */\n      0x00\n        /* \"#utility.yul\":13721:13929   */\n    tag_230:\n        /* \"#utility.yul\":13735:13742   */\n      dup3\n        /* \"#utility.yul\":13732:13733   */\n      dup2\n        /* \"#utility.yul\":13729:13743   */\n      lt\n        /* \"#utility.yul\":13721:13929   */\n      iszero\n      tag_232\n      jumpi\n        /* \"#utility.yul\":13814:13823   */\n      dup5\n        /* \"#utility.yul\":13809:13812   */\n      dup10\n        /* \"#utility.yul\":13805:13824   */\n      add\n        /* \"#utility.yul\":13799:13825   */\n      mload\n        /* \"#utility.yul\":13791:13797   */\n      dup3\n        /* \"#utility.yul\":13784:13826   */\n      sstore\n        /* \"#utility.yul\":13865:13866   */\n      0x01\n        /* \"#utility.yul\":13857:13863   */\n      dup3\n        /* \"#utility.yul\":13853:13867   */\n      add\n        /* \"#utility.yul\":13843:13867   */\n      swap2\n      pop\n        /* \"#utility.yul\":13912:13914   */\n      0x20\n        /* \"#utility.yul\":13901:13910   */\n      dup6\n        /* \"#utility.yul\":13897:13915   */\n      add\n        /* \"#utility.yul\":13884:13915   */\n      swap5\n      pop\n        /* \"#utility.yul\":13758:13762   */\n      0x20\n        /* \"#utility.yul\":13755:13756   */\n      dup2\n        /* \"#utility.yul\":13751:13763   */\n      add\n        /* \"#utility.yul\":13746:13763   */\n      swap1\n      pop\n        /* \"#utility.yul\":13721:13929   */\n      jump(tag_230)\n    tag_232:\n        /* \"#utility.yul\":13957:13963   */\n      dup7\n        /* \"#utility.yul\":13948:13955   */\n      dup4\n        /* \"#utility.yul\":13945:13964   */\n      lt\n        /* \"#utility.yul\":13942:14121   */\n      iszero\n      tag_233\n      jumpi\n        /* \"#utility.yul\":14015:14024   */\n      dup5\n        /* \"#utility.yul\":14010:14013   */\n      dup10\n        /* \"#utility.yul\":14006:14025   */\n      add\n        /* \"#utility.yul\":14000:14026   */\n      mload\n        /* \"#utility.yul\":14058:14106   */\n      tag_234\n        /* \"#utility.yul\":14100:14104   */\n      0x1f\n        /* \"#utility.yul\":14092:14098   */\n      dup10\n        /* \"#utility.yul\":14088:14105   */\n      and\n        /* \"#utility.yul\":14077:14086   */\n      dup3\n        /* \"#utility.yul\":14058:14106   */\n      tag_84\n      jump\t// in\n    tag_234:\n        /* \"#utility.yul\":14050:14056   */\n      dup4\n        /* \"#utility.yul\":14043:14107   */\n      sstore\n        /* \"#utility.yul\":13965:14121   */\n      pop\n        /* \"#utility.yul\":13942:14121   */\n    tag_233:\n        /* \"#utility.yul\":14167:14168   */\n      0x01\n        /* \"#utility.yul\":14163:14164   */\n      0x02\n        /* \"#utility.yul\":14155:14161   */\n      dup9\n        /* \"#utility.yul\":14151:14165   */\n      mul\n        /* \"#utility.yul\":14147:14169   */\n      add\n        /* \"#utility.yul\":14141:14145   */\n      dup9\n        /* \"#utility.yul\":14134:14170   */\n      sstore\n        /* \"#utility.yul\":13569:14180   */\n      pop\n      pop\n      pop\n        /* \"#utility.yul\":13532:14419   */\n    tag_225:\n      pop\n        /* \"#utility.yul\":13122:14425   */\n      pop\n      pop\n      pop\n        /* \"#utility.yul\":13030:14425   */\n      pop\n      pop\n      jump\t// out\n\n    auxdata: 0xa2646970667358221220e7199b1436acc8255eaa8ce0407604ac573781bc295028dac78273458cad6cd064736f6c634300081a0033\n}\n",
				"bytecode": {
					"linkReferences": {},
					"object": "6080604052348015600e575f80fd5b50610a818061001c5f395ff3fe608060405234801561000f575f80fd5b5060043610610034575f3560e01c806345fb536714610038578063a4c8b6e314610054575b5f80fd5b610052600480360381019061004d91906104b0565b610084565b005b61006e60048036038101906100699190610592565b610143565b60405161007b9190610762565b60405180910390f35b5f60405180606001604052808581526020018481526020018381525090505f803373ffffffffffffffffffffffffffffffffffffffff1673ffffffffffffffffffffffffffffffffffffffff1681526020019081526020015f205f0181908060018154018082558091505060019003905f5260205f2090600302015f909190919091505f820151815f01908161011a919061097c565b506020820151816001019081610130919061097c565b5060408201518160020155505050505050565b61014b61031d565b5f808373ffffffffffffffffffffffffffffffffffffffff1673ffffffffffffffffffffffffffffffffffffffff1681526020019081526020015f206040518060200160405290815f8201805480602002602001604051908101604052809291908181526020015f905b8282101561030e578382905f5260205f2090600302016040518060600160405290815f820180546101e5906107af565b80601f0160208091040260200160405190810160405280929190818152602001828054610211906107af565b801561025c5780601f106102335761010080835404028352916020019161025c565b820191905f5260205f20905b81548152906001019060200180831161023f57829003601f168201915b50505050508152602001600182018054610275906107af565b80601f01602080910402602001604051908101604052809291908181526020018280546102a1906107af565b80156102ec5780601f106102c3576101008083540402835291602001916102ec565b820191905f5260205f20905b8154815290600101906020018083116102cf57829003601f168201915b50505050508152602001600282015481525050815260200190600101906101b5565b50505050815250509050919050565b6040518060200160405280606081525090565b5f604051905090565b5f80fd5b5f80fd5b5f80fd5b5f80fd5b5f601f19601f8301169050919050565b7f4e487b71000000000000000000000000000000000000000000000000000000005f52604160045260245ffd5b61038f82610349565b810181811067ffffffffffffffff821117156103ae576103ad610359565b5b80604052505050565b5f6103c0610330565b90506103cc8282610386565b919050565b5f67ffffffffffffffff8211156103eb576103ea610359565b5b6103f482610349565b9050602081019050919050565b828183375f83830152505050565b5f61042161041c846103d1565b6103b7565b90508281526020810184848401111561043d5761043c610345565b5b610448848285610401565b509392505050565b5f82601f83011261046457610463610341565b5b813561047484826020860161040f565b91505092915050565b5f819050919050565b61048f8161047d565b8114610499575f80fd5b50565b5f813590506104aa81610486565b92915050565b5f805f606084860312156104c7576104c6610339565b5b5f84013567ffffffffffffffff8111156104e4576104e361033d565b5b6104f086828701610450565b935050602084013567ffffffffffffffff8111156105115761051061033d565b5b61051d86828701610450565b925050604061052e8682870161049c565b9150509250925092565b5f73ffffffffffffffffffffffffffffffffffffffff82169050919050565b5f61056182610538565b9050919050565b61057181610557565b811461057b575f80fd5b50565b5f8135905061058c81610568565b92915050565b5f602082840312156105a7576105a6610339565b5b5f6105b48482850161057e565b91505092915050565b5f81519050919050565b5f82825260208201905092915050565b5f819050602082019050919050565b5f81519050919050565b5f82825260208201905092915050565b8281835e5f83830152505050565b5f610618826105e6565b61062281856105f0565b9350610632818560208601610600565b61063b81610349565b840191505092915050565b61064f8161047d565b82525050565b5f606083015f8301518482035f86015261066f828261060e565b91505060208301518482036020860152610689828261060e565b915050604083015161069e6040860182610646565b508091505092915050565b5f6106b48383610655565b905092915050565b5f602082019050919050565b5f6106d2826105bd565b6106dc81856105c7565b9350836020820285016106ee856105d7565b805f5b85811015610729578484038952815161070a85826106a9565b9450610715836106bc565b925060208a019950506001810190506106f1565b50829750879550505050505092915050565b5f602083015f8301518482035f86015261075582826106c8565b9150508091505092915050565b5f6020820190508181035f83015261077a818461073b565b905092915050565b7f4e487b71000000000000000000000000000000000000000000000000000000005f52602260045260245ffd5b5f60028204905060018216806107c657607f821691505b6020821081036107d9576107d8610782565b5b50919050565b5f819050815f5260205f209050919050565b5f6020601f8301049050919050565b5f82821b905092915050565b5f6008830261083b7fffffffffffffffffffffffffffffffffffffffffffffffffffffffffffffffff82610800565b6108458683610800565b95508019841693508086168417925050509392505050565b5f819050919050565b5f61088061087b6108768461047d565b61085d565b61047d565b9050919050565b5f819050919050565b61089983610866565b6108ad6108a582610887565b84845461080c565b825550505050565b5f90565b6108c16108b5565b6108cc818484610890565b505050565b5b818110156108ef576108e45f826108b9565b6001810190506108d2565b5050565b601f82111561093457610905816107df565b61090e846107f1565b8101602085101561091d578190505b610931610929856107f1565b8301826108d1565b50505b505050565b5f82821c905092915050565b5f6109545f1984600802610939565b1980831691505092915050565b5f61096c8383610945565b9150826002028217905092915050565b610985826105e6565b67ffffffffffffffff81111561099e5761099d610359565b5b6109a882546107af565b6109b38282856108f3565b5f60209050601f8311600181146109e4575f84156109d2578287015190505b6109dc8582610961565b865550610a43565b601f1984166109f2866107df565b5f5b82811015610a19578489015182556001820191506020850194506020810190506109f4565b86831015610a365784890151610a32601f891682610945565b8355505b6001600288020188555050505b50505050505056fea2646970667358221220e7199b1436acc8255eaa8ce0407604ac573781bc295028dac78273458cad6cd064736f6c634300081a0033",
					"opcodes": "PUSH1 0x80 PUSH1 0x40 MSTORE CALLVALUE DUP1 ISZERO PUSH1 0xE JUMPI PUSH0 DUP1 REVERT JUMPDEST POP PUSH2 0xA81 DUP1 PUSH2 0x1C PUSH0 CODECOPY PUSH0 RETURN INVALID PUSH1 0x80 PUSH1 0x40 MSTORE CALLVALUE DUP1 ISZERO PUSH2 0xF JUMPI PUSH0 DUP1 REVERT JUMPDEST POP PUSH1 0x4 CALLDATASIZE LT PUSH2 0x34 JUMPI PUSH0 CALLDATALOAD PUSH1 0xE0 SHR DUP1 PUSH4 0x45FB5367 EQ PUSH2 0x38 JUMPI DUP1 PUSH4 0xA4C8B6E3 EQ PUSH2 0x54 JUMPI JUMPDEST PUSH0 DUP1 REVERT JUMPDEST PUSH2 0x52 PUSH1 0x4 DUP1 CALLDATASIZE SUB DUP2 ADD SWAP1 PUSH2 0x4D SWAP2 SWAP1 PUSH2 0x4B0 JUMP JUMPDEST PUSH2 0x84 JUMP JUMPDEST STOP JUMPDEST PUSH2 0x6E PUSH1 0x4 DUP1 CALLDATASIZE SUB DUP2 ADD SWAP1 PUSH2 0x69 SWAP2 SWAP1 PUSH2 0x592 JUMP JUMPDEST PUSH2 0x143 JUMP JUMPDEST PUSH1 0x40 MLOAD PUSH2 0x7B SWAP2 SWAP1 PUSH2 0x762 JUMP JUMPDEST PUSH1 0x40 MLOAD DUP1 SWAP2 SUB SWAP1 RETURN JUMPDEST PUSH0 PUSH1 0x40 MLOAD DUP1 PUSH1 0x60 ADD PUSH1 0x40 MSTORE DUP1 DUP6 DUP2 MSTORE PUSH1 0x20 ADD DUP5 DUP2 MSTORE PUSH1 0x20 ADD DUP4 DUP2 MSTORE POP SWAP1 POP PUSH0 DUP1 CALLER PUSH20 0xFFFFFFFFFFFFFFFFFFFFFFFFFFFFFFFFFFFFFFFF AND PUSH20 0xFFFFFFFFFFFFFFFFFFFFFFFFFFFFFFFFFFFFFFFF AND DUP2 MSTORE PUSH1 0x20 ADD SWAP1 DUP2 MSTORE PUSH1 0x20 ADD PUSH0 KECCAK256 PUSH0 ADD DUP2 SWAP1 DUP1 PUSH1 0x1 DUP2 SLOAD ADD DUP1 DUP3 SSTORE DUP1 SWAP2 POP POP PUSH1 0x1 SWAP1 SUB SWAP1 PUSH0 MSTORE PUSH1 0x20 PUSH0 KECCAK256 SWAP1 PUSH1 0x3 MUL ADD PUSH0 SWAP1 SWAP2 SWAP1 SWAP2 SWAP1 SWAP2 POP PUSH0 DUP3 ADD MLOAD DUP2 PUSH0 ADD SWAP1 DUP2 PUSH2 0x11A SWAP2 SWAP1 PUSH2 0x97C JUMP JUMPDEST POP PUSH1 0x20 DUP3 ADD MLOAD DUP2 PUSH1 0x1 ADD SWAP1 DUP2 PUSH2 0x130 SWAP2 SWAP1 PUSH2 0x97C JUMP JUMPDEST POP PUSH1 0x40 DUP3 ADD MLOAD DUP2 PUSH1 0x2 ADD SSTORE POP POP POP POP POP POP JUMP JUMPDEST PUSH2 0x14B PUSH2 0x31D JUMP JUMPDEST PUSH0 DUP1 DUP4 PUSH20 0xFFFFFFFFFFFFFFFFFFFFFFFFFFFFFFFFFFFFFFFF AND PUSH20 0xFFFFFFFFFFFFFFFFFFFFFFFFFFFFFFFFFFFFFFFF AND DUP2 MSTORE PUSH1 0x20 ADD SWAP1 DUP2 MSTORE PUSH1 0x20 ADD PUSH0 KECCAK256 PUSH1 0x40 MLOAD DUP1 PUSH1 0x20 ADD PUSH1 0x40 MSTORE SWAP1 DUP2 PUSH0 DUP3 ADD DUP1 SLOAD DUP1 PUSH1 0x20 MUL PUSH1 0x20 ADD PUSH1 0x40 MLOAD SWAP1 DUP2 ADD PUSH1 0x40 MSTORE DUP1 SWAP3 SWAP2 SWAP1 DUP2 DUP2 MSTORE PUSH1 0x20 ADD PUSH0 SWAP1 JUMPDEST DUP3 DUP3 LT ISZERO PUSH2 0x30E JUMPI DUP4 DUP3 SWAP1 PUSH0 MSTORE PUSH1 0x20 PUSH0 KECCAK256 SWAP1 PUSH1 0x3 MUL ADD PUSH1 0x40 MLOAD DUP1 PUSH1 0x60 ADD PUSH1 0x40 MSTORE SWAP1 DUP2 PUSH0 DUP3 ADD DUP1 SLOAD PUSH2 0x1E5 SWAP1 PUSH2 0x7AF JUMP JUMPDEST DUP1 PUSH1 0x1F ADD PUSH1 0x20 DUP1 SWAP2 DIV MUL PUSH1 0x20 ADD PUSH1 0x40 MLOAD SWAP1 DUP2 ADD PUSH1 0x40 MSTORE DUP1 SWAP3 SWAP2 SWAP1 DUP2 DUP2 MSTORE PUSH1 0x20 ADD DUP3 DUP1 SLOAD PUSH2 0x211 SWAP1 PUSH2 0x7AF JUMP JUMPDEST DUP1 ISZERO PUSH2 0x25C JUMPI DUP1 PUSH1 0x1F LT PUSH2 0x233 JUMPI PUSH2 0x100 DUP1 DUP4 SLOAD DIV MUL DUP4 MSTORE SWAP2 PUSH1 0x20 ADD SWAP2 PUSH2 0x25C JUMP JUMPDEST DUP3 ADD SWAP2 SWAP1 PUSH0 MSTORE PUSH1 0x20 PUSH0 KECCAK256 SWAP1 JUMPDEST DUP2 SLOAD DUP2 MSTORE SWAP1 PUSH1 0x1 ADD SWAP1 PUSH1 0x20 ADD DUP1 DUP4 GT PUSH2 0x23F JUMPI DUP3 SWAP1 SUB PUSH1 0x1F AND DUP3 ADD SWAP2 JUMPDEST POP POP POP POP POP DUP2 MSTORE PUSH1 0x20 ADD PUSH1 0x1 DUP3 ADD DUP1 SLOAD PUSH2 0x275 SWAP1 PUSH2 0x7AF JUMP JUMPDEST DUP1 PUSH1 0x1F ADD PUSH1 0x20 DUP1 SWAP2 DIV MUL PUSH1 0x20 ADD PUSH1 0x40 MLOAD SWAP1 DUP2 ADD PUSH1 0x40 MSTORE DUP1 SWAP3 SWAP2 SWAP1 DUP2 DUP2 MSTORE PUSH1 0x20 ADD DUP3 DUP1 SLOAD PUSH2 0x2A1 SWAP1 PUSH2 0x7AF JUMP JUMPDEST DUP1 ISZERO PUSH2 0x2EC JUMPI DUP1 PUSH1 0x1F LT PUSH2 0x2C3 JUMPI PUSH2 0x100 DUP1 DUP4 SLOAD DIV MUL DUP4 MSTORE SWAP2 PUSH1 0x20 ADD SWAP2 PUSH2 0x2EC JUMP JUMPDEST DUP3 ADD SWAP2 SWAP1 PUSH0 MSTORE PUSH1 0x20 PUSH0 KECCAK256 SWAP1 JUMPDEST DUP2 SLOAD DUP2 MSTORE SWAP1 PUSH1 0x1 ADD SWAP1 PUSH1 0x20 ADD DUP1 DUP4 GT PUSH2 0x2CF JUMPI DUP3 SWAP1 SUB PUSH1 0x1F AND DUP3 ADD SWAP2 JUMPDEST POP POP POP POP POP DUP2 MSTORE PUSH1 0x20 ADD PUSH1 0x2 DUP3 ADD SLOAD DUP2 MSTORE POP POP DUP2 MSTORE PUSH1 0x20 ADD SWAP1 PUSH1 0x1 ADD SWAP1 PUSH2 0x1B5 JUMP JUMPDEST POP POP POP POP DUP2 MSTORE POP POP SWAP1 POP SWAP2 SWAP1 POP JUMP JUMPDEST PUSH1 0x40 MLOAD DUP1 PUSH1 0x20 ADD PUSH1 0x40 MSTORE DUP1 PUSH1 0x60 DUP2 MSTORE POP SWAP1 JUMP JUMPDEST PUSH0 PUSH1 0x40 MLOAD SWAP1 POP SWAP1 JUMP JUMPDEST PUSH0 DUP1 REVERT JUMPDEST PUSH0 DUP1 REVERT JUMPDEST PUSH0 DUP1 REVERT JUMPDEST PUSH0 DUP1 REVERT JUMPDEST PUSH0 PUSH1 0x1F NOT PUSH1 0x1F DUP4 ADD AND SWAP1 POP SWAP2 SWAP1 POP JUMP JUMPDEST PUSH32 0x4E487B7100000000000000000000000000000000000000000000000000000000 PUSH0 MSTORE PUSH1 0x41 PUSH1 0x4 MSTORE PUSH1 0x24 PUSH0 REVERT JUMPDEST PUSH2 0x38F DUP3 PUSH2 0x349 JUMP JUMPDEST DUP2 ADD DUP2 DUP2 LT PUSH8 0xFFFFFFFFFFFFFFFF DUP3 GT OR ISZERO PUSH2 0x3AE JUMPI PUSH2 0x3AD PUSH2 0x359 JUMP JUMPDEST JUMPDEST DUP1 PUSH1 0x40 MSTORE POP POP POP JUMP JUMPDEST PUSH0 PUSH2 0x3C0 PUSH2 0x330 JUMP JUMPDEST SWAP1 POP PUSH2 0x3CC DUP3 DUP3 PUSH2 0x386 JUMP JUMPDEST SWAP2 SWAP1 POP JUMP JUMPDEST PUSH0 PUSH8 0xFFFFFFFFFFFFFFFF DUP3 GT ISZERO PUSH2 0x3EB JUMPI PUSH2 0x3EA PUSH2 0x359 JUMP JUMPDEST JUMPDEST PUSH2 0x3F4 DUP3 PUSH2 0x349 JUMP JUMPDEST SWAP1 POP PUSH1 0x20 DUP2 ADD SWAP1 POP SWAP2 SWAP1 POP JUMP JUMPDEST DUP3 DUP2 DUP4 CALLDATACOPY PUSH0 DUP4 DUP4 ADD MSTORE POP POP POP JUMP JUMPDEST PUSH0 PUSH2 0x421 PUSH2 0x41C DUP5 PUSH2 0x3D1 JUMP JUMPDEST PUSH2 0x3B7 JUMP JUMPDEST SWAP1 POP DUP3 DUP2 MSTORE PUSH1 0x20 DUP2 ADD DUP5 DUP5 DUP5 ADD GT ISZERO PUSH2 0x43D JUMPI PUSH2 0x43C PUSH2 0x345 JUMP JUMPDEST JUMPDEST PUSH2 0x448 DUP5 DUP3 DUP6 PUSH2 0x401 JUMP JUMPDEST POP SWAP4 SWAP3 POP POP POP JUMP JUMPDEST PUSH0 DUP3 PUSH1 0x1F DUP4 ADD SLT PUSH2 0x464 JUMPI PUSH2 0x463 PUSH2 0x341 JUMP JUMPDEST JUMPDEST DUP2 CALLDATALOAD PUSH2 0x474 DUP5 DUP3 PUSH1 0x20 DUP7 ADD PUSH2 0x40F JUMP JUMPDEST SWAP2 POP POP SWAP3 SWAP2 POP POP JUMP JUMPDEST PUSH0 DUP2 SWAP1 POP SWAP2 SWAP1 POP JUMP JUMPDEST PUSH2 0x48F DUP2 PUSH2 0x47D JUMP JUMPDEST DUP2 EQ PUSH2 0x499 JUMPI PUSH0 DUP1 REVERT JUMPDEST POP JUMP JUMPDEST PUSH0 DUP2 CALLDATALOAD SWAP1 POP PUSH2 0x4AA DUP2 PUSH2 0x486 JUMP JUMPDEST SWAP3 SWAP2 POP POP JUMP JUMPDEST PUSH0 DUP1 PUSH0 PUSH1 0x60 DUP5 DUP7 SUB SLT ISZERO PUSH2 0x4C7 JUMPI PUSH2 0x4C6 PUSH2 0x339 JUMP JUMPDEST JUMPDEST PUSH0 DUP5 ADD CALLDATALOAD PUSH8 0xFFFFFFFFFFFFFFFF DUP2 GT ISZERO PUSH2 0x4E4 JUMPI PUSH2 0x4E3 PUSH2 0x33D JUMP JUMPDEST JUMPDEST PUSH2 0x4F0 DUP7 DUP3 DUP8 ADD PUSH2 0x450 JUMP JUMPDEST SWAP4 POP POP PUSH1 0x20 DUP5 ADD CALLDATALOAD PUSH8 0xFFFFFFFFFFFFFFFF DUP2 GT ISZERO PUSH2 0x511 JUMPI PUSH2 0x510 PUSH2 0x33D JUMP JUMPDEST JUMPDEST PUSH2 0x51D DUP7 DUP3 DUP8 ADD PUSH2 0x450 JUMP JUMPDEST SWAP3 POP POP PUSH1 0x40 PUSH2 0x52E DUP7 DUP3 DUP8 ADD PUSH2 0x49C JUMP JUMPDEST SWAP2 POP POP SWAP3 POP SWAP3 POP SWAP3 JUMP JUMPDEST PUSH0 PUSH20 0xFFFFFFFFFFFFFFFFFFFFFFFFFFFFFFFFFFFFFFFF DUP3 AND SWAP1 POP SWAP2 SWAP1 POP JUMP JUMPDEST PUSH0 PUSH2 0x561 DUP3 PUSH2 0x538 JUMP JUMPDEST SWAP1 POP SWAP2 SWAP1 POP JUMP JUMPDEST PUSH2 0x571 DUP2 PUSH2 0x557 JUMP JUMPDEST DUP2 EQ PUSH2 0x57B JUMPI PUSH0 DUP1 REVERT JUMPDEST POP JUMP JUMPDEST PUSH0 DUP2 CALLDATALOAD SWAP1 POP PUSH2 0x58C DUP2 PUSH2 0x568 JUMP JUMPDEST SWAP3 SWAP2 POP POP JUMP JUMPDEST PUSH0 PUSH1 0x20 DUP3 DUP5 SUB SLT ISZERO PUSH2 0x5A7 JUMPI PUSH2 0x5A6 PUSH2 0x339 JUMP JUMPDEST JUMPDEST PUSH0 PUSH2 0x5B4 DUP5 DUP3 DUP6 ADD PUSH2 0x57E JUMP JUMPDEST SWAP2 POP POP SWAP3 SWAP2 POP POP JUMP JUMPDEST PUSH0 DUP2 MLOAD SWAP1 POP SWAP2 SWAP1 POP JUMP JUMPDEST PUSH0 DUP3 DUP3 MSTORE PUSH1 0x20 DUP3 ADD SWAP1 POP SWAP3 SWAP2 POP POP JUMP JUMPDEST PUSH0 DUP2 SWAP1 POP PUSH1 0x20 DUP3 ADD SWAP1 POP SWAP2 SWAP1 POP JUMP JUMPDEST PUSH0 DUP2 MLOAD SWAP1 POP SWAP2 SWAP1 POP JUMP JUMPDEST PUSH0 DUP3 DUP3 MSTORE PUSH1 0x20 DUP3 ADD SWAP1 POP SWAP3 SWAP2 POP POP JUMP JUMPDEST DUP3 DUP2 DUP4 MCOPY PUSH0 DUP4 DUP4 ADD MSTORE POP POP POP JUMP JUMPDEST PUSH0 PUSH2 0x618 DUP3 PUSH2 0x5E6 JUMP JUMPDEST PUSH2 0x622 DUP2 DUP6 PUSH2 0x5F0 JUMP JUMPDEST SWAP4 POP PUSH2 0x632 DUP2 DUP6 PUSH1 0x20 DUP7 ADD PUSH2 0x600 JUMP JUMPDEST PUSH2 0x63B DUP2 PUSH2 0x349 JUMP JUMPDEST DUP5 ADD SWAP2 POP POP SWAP3 SWAP2 POP POP JUMP JUMPDEST PUSH2 0x64F DUP2 PUSH2 0x47D JUMP JUMPDEST DUP3 MSTORE POP POP JUMP JUMPDEST PUSH0 PUSH1 0x60 DUP4 ADD PUSH0 DUP4 ADD MLOAD DUP5 DUP3 SUB PUSH0 DUP7 ADD MSTORE PUSH2 0x66F DUP3 DUP3 PUSH2 0x60E JUMP JUMPDEST SWAP2 POP POP PUSH1 0x20 DUP4 ADD MLOAD DUP5 DUP3 SUB PUSH1 0x20 DUP7 ADD MSTORE PUSH2 0x689 DUP3 DUP3 PUSH2 0x60E JUMP JUMPDEST SWAP2 POP POP PUSH1 0x40 DUP4 ADD MLOAD PUSH2 0x69E PUSH1 0x40 DUP7 ADD DUP3 PUSH2 0x646 JUMP JUMPDEST POP DUP1 SWAP2 POP POP SWAP3 SWAP2 POP POP JUMP JUMPDEST PUSH0 PUSH2 0x6B4 DUP4 DUP4 PUSH2 0x655 JUMP JUMPDEST SWAP1 POP SWAP3 SWAP2 POP POP JUMP JUMPDEST PUSH0 PUSH1 0x20 DUP3 ADD SWAP1 POP SWAP2 SWAP1 POP JUMP JUMPDEST PUSH0 PUSH2 0x6D2 DUP3 PUSH2 0x5BD JUMP JUMPDEST PUSH2 0x6DC DUP2 DUP6 PUSH2 0x5C7 JUMP JUMPDEST SWAP4 POP DUP4 PUSH1 0x20 DUP3 MUL DUP6 ADD PUSH2 0x6EE DUP6 PUSH2 0x5D7 JUMP JUMPDEST DUP1 PUSH0 JUMPDEST DUP6 DUP2 LT ISZERO PUSH2 0x729 JUMPI DUP5 DUP5 SUB DUP10 MSTORE DUP2 MLOAD PUSH2 0x70A DUP6 DUP3 PUSH2 0x6A9 JUMP JUMPDEST SWAP5 POP PUSH2 0x715 DUP4 PUSH2 0x6BC JUMP JUMPDEST SWAP3 POP PUSH1 0x20 DUP11 ADD SWAP10 POP POP PUSH1 0x1 DUP2 ADD SWAP1 POP PUSH2 0x6F1 JUMP JUMPDEST POP DUP3 SWAP8 POP DUP8 SWAP6 POP POP POP POP POP POP SWAP3 SWAP2 POP POP JUMP JUMPDEST PUSH0 PUSH1 0x20 DUP4 ADD PUSH0 DUP4 ADD MLOAD DUP5 DUP3 SUB PUSH0 DUP7 ADD MSTORE PUSH2 0x755 DUP3 DUP3 PUSH2 0x6C8 JUMP JUMPDEST SWAP2 POP POP DUP1 SWAP2 POP POP SWAP3 SWAP2 POP POP JUMP JUMPDEST PUSH0 PUSH1 0x20 DUP3 ADD SWAP1 POP DUP2 DUP2 SUB PUSH0 DUP4 ADD MSTORE PUSH2 0x77A DUP2 DUP5 PUSH2 0x73B JUMP JUMPDEST SWAP1 POP SWAP3 SWAP2 POP POP JUMP JUMPDEST PUSH32 0x4E487B7100000000000000000000000000000000000000000000000000000000 PUSH0 MSTORE PUSH1 0x22 PUSH1 0x4 MSTORE PUSH1 0x24 PUSH0 REVERT JUMPDEST PUSH0 PUSH1 0x2 DUP3 DIV SWAP1 POP PUSH1 0x1 DUP3 AND DUP1 PUSH2 0x7C6 JUMPI PUSH1 0x7F DUP3 AND SWAP2 POP JUMPDEST PUSH1 0x20 DUP3 LT DUP2 SUB PUSH2 0x7D9 JUMPI PUSH2 0x7D8 PUSH2 0x782 JUMP JUMPDEST JUMPDEST POP SWAP2 SWAP1 POP JUMP JUMPDEST PUSH0 DUP2 SWAP1 POP DUP2 PUSH0 MSTORE PUSH1 0x20 PUSH0 KECCAK256 SWAP1 POP SWAP2 SWAP1 POP JUMP JUMPDEST PUSH0 PUSH1 0x20 PUSH1 0x1F DUP4 ADD DIV SWAP1 POP SWAP2 SWAP1 POP JUMP JUMPDEST PUSH0 DUP3 DUP3 SHL SWAP1 POP SWAP3 SWAP2 POP POP JUMP JUMPDEST PUSH0 PUSH1 0x8 DUP4 MUL PUSH2 0x83B PUSH32 0xFFFFFFFFFFFFFFFFFFFFFFFFFFFFFFFFFFFFFFFFFFFFFFFFFFFFFFFFFFFFFFFF DUP3 PUSH2 0x800 JUMP JUMPDEST PUSH2 0x845 DUP7 DUP4 PUSH2 0x800 JUMP JUMPDEST SWAP6 POP DUP1 NOT DUP5 AND SWAP4 POP DUP1 DUP7 AND DUP5 OR SWAP3 POP POP POP SWAP4 SWAP3 POP POP POP JUMP JUMPDEST PUSH0 DUP2 SWAP1 POP SWAP2 SWAP1 POP JUMP JUMPDEST PUSH0 PUSH2 0x880 PUSH2 0x87B PUSH2 0x876 DUP5 PUSH2 0x47D JUMP JUMPDEST PUSH2 0x85D JUMP JUMPDEST PUSH2 0x47D JUMP JUMPDEST SWAP1 POP SWAP2 SWAP1 POP JUMP JUMPDEST PUSH0 DUP2 SWAP1 POP SWAP2 SWAP1 POP JUMP JUMPDEST PUSH2 0x899 DUP4 PUSH2 0x866 JUMP JUMPDEST PUSH2 0x8AD PUSH2 0x8A5 DUP3 PUSH2 0x887 JUMP JUMPDEST DUP5 DUP5 SLOAD PUSH2 0x80C JUMP JUMPDEST DUP3 SSTORE POP POP POP POP JUMP JUMPDEST PUSH0 SWAP1 JUMP JUMPDEST PUSH2 0x8C1 PUSH2 0x8B5 JUMP JUMPDEST PUSH2 0x8CC DUP2 DUP5 DUP5 PUSH2 0x890 JUMP JUMPDEST POP POP POP JUMP JUMPDEST JUMPDEST DUP2 DUP2 LT ISZERO PUSH2 0x8EF JUMPI PUSH2 0x8E4 PUSH0 DUP3 PUSH2 0x8B9 JUMP JUMPDEST PUSH1 0x1 DUP2 ADD SWAP1 POP PUSH2 0x8D2 JUMP JUMPDEST POP POP JUMP JUMPDEST PUSH1 0x1F DUP3 GT ISZERO PUSH2 0x934 JUMPI PUSH2 0x905 DUP2 PUSH2 0x7DF JUMP JUMPDEST PUSH2 0x90E DUP5 PUSH2 0x7F1 JUMP JUMPDEST DUP2 ADD PUSH1 0x20 DUP6 LT ISZERO PUSH2 0x91D JUMPI DUP2 SWAP1 POP JUMPDEST PUSH2 0x931 PUSH2 0x929 DUP6 PUSH2 0x7F1 JUMP JUMPDEST DUP4 ADD DUP3 PUSH2 0x8D1 JUMP JUMPDEST POP POP JUMPDEST POP POP POP JUMP JUMPDEST PUSH0 DUP3 DUP3 SHR SWAP1 POP SWAP3 SWAP2 POP POP JUMP JUMPDEST PUSH0 PUSH2 0x954 PUSH0 NOT DUP5 PUSH1 0x8 MUL PUSH2 0x939 JUMP JUMPDEST NOT DUP1 DUP4 AND SWAP2 POP POP SWAP3 SWAP2 POP POP JUMP JUMPDEST PUSH0 PUSH2 0x96C DUP4 DUP4 PUSH2 0x945 JUMP JUMPDEST SWAP2 POP DUP3 PUSH1 0x2 MUL DUP3 OR SWAP1 POP SWAP3 SWAP2 POP POP JUMP JUMPDEST PUSH2 0x985 DUP3 PUSH2 0x5E6 JUMP JUMPDEST PUSH8 0xFFFFFFFFFFFFFFFF DUP2 GT ISZERO PUSH2 0x99E JUMPI PUSH2 0x99D PUSH2 0x359 JUMP JUMPDEST JUMPDEST PUSH2 0x9A8 DUP3 SLOAD PUSH2 0x7AF JUMP JUMPDEST PUSH2 0x9B3 DUP3 DUP3 DUP6 PUSH2 0x8F3 JUMP JUMPDEST PUSH0 PUSH1 0x20 SWAP1 POP PUSH1 0x1F DUP4 GT PUSH1 0x1 DUP2 EQ PUSH2 0x9E4 JUMPI PUSH0 DUP5 ISZERO PUSH2 0x9D2 JUMPI DUP3 DUP8 ADD MLOAD SWAP1 POP JUMPDEST PUSH2 0x9DC DUP6 DUP3 PUSH2 0x961 JUMP JUMPDEST DUP7 SSTORE POP PUSH2 0xA43 JUMP JUMPDEST PUSH1 0x1F NOT DUP5 AND PUSH2 0x9F2 DUP7 PUSH2 0x7DF JUMP JUMPDEST PUSH0 JUMPDEST DUP3 DUP2 LT ISZERO PUSH2 0xA19 JUMPI DUP5 DUP10 ADD MLOAD DUP3 SSTORE PUSH1 0x1 DUP3 ADD SWAP2 POP PUSH1 0x20 DUP6 ADD SWAP5 POP PUSH1 0x20 DUP2 ADD SWAP1 POP PUSH2 0x9F4 JUMP JUMPDEST DUP7 DUP4 LT ISZERO PUSH2 0xA36 JUMPI DUP5 DUP10 ADD MLOAD PUSH2 0xA32 PUSH1 0x1F DUP10 AND DUP3 PUSH2 0x945 JUMP JUMPDEST DUP4 SSTORE POP JUMPDEST PUSH1 0x1 PUSH1 0x2 DUP9 MUL ADD DUP9 SSTORE POP POP POP JUMPDEST POP POP POP POP POP POP JUMP INVALID LOG2 PUSH5 0x6970667358 0x22 SLT KECCAK256 0xE7 NOT SWAP12 EQ CALLDATASIZE 0xAC 0xC8 0x25 MCOPY 0xAA DUP13 0xE0 BLOCKHASH PUSH23 0x4AC573781BC295028DAC78273458CAD6CD064736F6C63 NUMBER STOP ADDMOD BYTE STOP CALLER "
				},
				"gasEstimates": {
					"creation": {
						"codeDepositCost": "537800",
						"executionCost": "573",
						"totalCost": "538373"
					},
					"external": {
						"addEvents(string,string,uint256)": "infinite",
						"getEvents(address)": "infinite"
					}
				},
				"methodIdentifiers": {
					"addEvents(string,string,uint256)": "45fb5367",
					"getEvents(address)": "a4c8b6e3"
				}
			},
			"storageLayout": {
				"storage": [
					{
						"astId": 18,
						"contract": "contracts/event_organisation2.sol:event_organisation2",
						"label": "events_mapping",
						"offset": 0,
						"slot": "0",
						"type": "t_mapping(t_address,t_struct(Event_Modal)13_storage)"
					}
				],
				"types": {
					"t_address": {
						"encoding": "inplace",
						"label": "address",
						"numberOfBytes": "20"
					},
					"t_array(t_struct(Event)8_storage)dyn_storage": {
						"base": "t_struct(Event)8_storage",
						"encoding": "dynamic_array",
						"label": "struct event_organisation2.Event[]",
						"numberOfBytes": "32"
					},
					"t_mapping(t_address,t_struct(Event_Modal)13_storage)": {
						"encoding": "mapping",
						"key": "t_address",
						"label": "mapping(address => struct event_organisation2.Event_Modal)",
						"numberOfBytes": "32",
						"value": "t_struct(Event_Modal)13_storage"
					},
					"t_string_storage": {
						"encoding": "bytes",
						"label": "string",
						"numberOfBytes": "32"
					},
					"t_struct(Event)8_storage": {
						"encoding": "inplace",
						"label": "struct event_organisation2.Event",
						"members": [
							{
								"astId": 3,
								"contract": "contracts/event_organisation2.sol:event_organisation2",
								"label": "organizer_name",
								"offset": 0,
								"slot": "0",
								"type": "t_string_storage"
							},
							{
								"astId": 5,
								"contract": "contracts/event_organisation2.sol:event_organisation2",
								"label": "event_name",
								"offset": 0,
								"slot": "1",
								"type": "t_string_storage"
							},
							{
								"astId": 7,
								"contract": "contracts/event_organisation2.sol:event_organisation2",
								"label": "ticket_price",
								"offset": 0,
								"slot": "2",
								"type": "t_uint256"
							}
						],
						"numberOfBytes": "96"
					},
					"t_struct(Event_Modal)13_storage": {
						"encoding": "inplace",
						"label": "struct event_organisation2.Event_Modal",
						"members": [
							{
								"astId": 12,
								"contract": "contracts/event_organisation2.sol:event_organisation2",
								"label": "events_array",
								"offset": 0,
								"slot": "0",
								"type": "t_array(t_struct(Event)8_storage)dyn_storage"
							}
						],
						"numberOfBytes": "32"
					},
					"t_uint256": {
						"encoding": "inplace",
						"label": "uint256",
						"numberOfBytes": "32"
					}
				}
			},
			"userdoc": {
				"kind": "user",
				"methods": {},
				"version": 1
			}
		}
	}
}