{
	"contracts/event_organization.sol": {
		"event_organization": {
			"abi": [
				{
					"inputs": [
						{
							"internalType": "string",
							"name": "_name",
							"type": "string"
						},
						{
							"internalType": "uint256",
							"name": "_ticketPrice",
							"type": "uint256"
						}
					],
					"name": "addEvent",
					"outputs": [
						{
							"internalType": "string",
							"name": "",
							"type": "string"
						}
					],
					"stateMutability": "payable",
					"type": "function"
				},
				{
					"inputs": [
						{
							"internalType": "address",
							"name": "_organizer",
							"type": "address"
						}
					],
					"name": "getEventDetails",
					"outputs": [
						{
							"internalType": "string",
							"name": "",
							"type": "string"
						},
						{
							"internalType": "uint256",
							"name": "",
							"type": "uint256"
						}
					],
					"stateMutability": "view",
					"type": "function"
				},
				{
					"inputs": [
						{
							"internalType": "address",
							"name": "_address",
							"type": "address"
						}
					],
					"name": "getFullEvent",
					"outputs": [
						{
							"components": [
								{
									"components": [
										{
											"internalType": "string",
											"name": "name",
											"type": "string"
										},
										{
											"internalType": "address",
											"name": "organizer",
											"type": "address"
										},
										{
											"internalType": "uint256",
											"name": "ticketPrice",
											"type": "uint256"
										}
									],
									"internalType": "struct event_organization.Event[]",
									"name": "EventsArray",
									"type": "tuple[]"
								}
							],
							"internalType": "struct event_organization.Event_Modal",
							"name": "",
							"type": "tuple"
						}
					],
					"stateMutability": "view",
					"type": "function"
				}
			],
			"devdoc": {
				"kind": "dev",
				"methods": {},
				"version": 1
			},
			"evm": {
				"assembly": "    /* \"contracts/event_organization.sol\":64:1161  contract event_organization {\r... */\n  mstore(0x40, 0x80)\n  callvalue\n  dup1\n  iszero\n  tag_1\n  jumpi\n  0x00\n  dup1\n  revert\ntag_1:\n  pop\n  dataSize(sub_0)\n  dup1\n  dataOffset(sub_0)\n  0x00\n  codecopy\n  0x00\n  return\nstop\n\nsub_0: assembly {\n        /* \"contracts/event_organization.sol\":64:1161  contract event_organization {\r... */\n      mstore(0x40, 0x80)\n      jumpi(tag_1, lt(calldatasize, 0x04))\n      shr(0xe0, calldataload(0x00))\n      dup1\n      0xa64ee206\n      eq\n      tag_2\n      jumpi\n      dup1\n      0xd43f036b\n      eq\n      tag_3\n      jumpi\n      dup1\n      0xf0e1691a\n      eq\n      tag_4\n      jumpi\n    tag_1:\n      0x00\n      dup1\n      revert\n        /* \"contracts/event_organization.sol\":703:829  function getFullEvent(address _address) public view returns(Event_Modal memory) {\r... */\n    tag_2:\n      callvalue\n      dup1\n      iszero\n      tag_5\n      jumpi\n      0x00\n      dup1\n      revert\n    tag_5:\n      pop\n      tag_6\n      0x04\n      dup1\n      calldatasize\n      sub\n      dup2\n      add\n      swap1\n      tag_7\n      swap2\n      swap1\n      tag_8\n      jump\t// in\n    tag_7:\n      tag_9\n      jump\t// in\n    tag_6:\n      mload(0x40)\n      tag_10\n      swap2\n      swap1\n      tag_11\n      jump\t// in\n    tag_10:\n      mload(0x40)\n      dup1\n      swap2\n      sub\n      swap1\n      return\n        /* \"contracts/event_organization.sol\":845:1156  function getEventDetails(address _organizer) view public returns(string memory,uint){\r... */\n    tag_3:\n      callvalue\n      dup1\n      iszero\n      tag_12\n      jumpi\n      0x00\n      dup1\n      revert\n    tag_12:\n      pop\n      tag_13\n      0x04\n      dup1\n      calldatasize\n      sub\n      dup2\n      add\n      swap1\n      tag_14\n      swap2\n      swap1\n      tag_8\n      jump\t// in\n    tag_14:\n      tag_15\n      jump\t// in\n    tag_13:\n      mload(0x40)\n      tag_16\n      swap3\n      swap2\n      swap1\n      tag_17\n      jump\t// in\n    tag_16:\n      mload(0x40)\n      dup1\n      swap2\n      sub\n      swap1\n      return\n        /* \"contracts/event_organization.sol\":321:695  function addEvent(string memory _name, uint256 _ticketPrice) public payable returns(string memory) {\r... */\n    tag_4:\n      tag_18\n      0x04\n      dup1\n      calldatasize\n      sub\n      dup2\n      add\n      swap1\n      tag_19\n      swap2\n      swap1\n      tag_20\n      jump\t// in\n    tag_19:\n      tag_21\n      jump\t// in\n    tag_18:\n      mload(0x40)\n      tag_22\n      swap2\n      swap1\n      tag_23\n      jump\t// in\n    tag_22:\n      mload(0x40)\n      dup1\n      swap2\n      sub\n      swap1\n      return\n        /* \"contracts/event_organization.sol\":703:829  function getFullEvent(address _address) public view returns(Event_Modal memory) {\r... */\n    tag_9:\n        /* \"contracts/event_organization.sol\":763:781  Event_Modal memory */\n      tag_24\n      tag_25\n      jump\t// in\n    tag_24:\n        /* \"contracts/event_organization.sol\":801:811  events_map */\n      0x00\n        /* \"contracts/event_organization.sol\":801:821  events_map[_address] */\n      dup1\n        /* \"contracts/event_organization.sol\":812:820  _address */\n      dup4\n        /* \"contracts/event_organization.sol\":801:821  events_map[_address] */\n      0xffffffffffffffffffffffffffffffffffffffff\n      and\n      0xffffffffffffffffffffffffffffffffffffffff\n      and\n      dup2\n      mstore\n      0x20\n      add\n      swap1\n      dup2\n      mstore\n      0x20\n      add\n      0x00\n      keccak256\n        /* \"contracts/event_organization.sol\":794:821  return events_map[_address] */\n      mload(0x40)\n      dup1\n      0x20\n      add\n      0x40\n      mstore\n      swap1\n      dup2\n      0x00\n      dup3\n      add\n      dup1\n      sload\n      dup1\n      0x20\n      mul\n      0x20\n      add\n      mload(0x40)\n      swap1\n      dup2\n      add\n      0x40\n      mstore\n      dup1\n      swap3\n      swap2\n      swap1\n      dup2\n      dup2\n      mstore\n      0x20\n      add\n      0x00\n      swap1\n    tag_27:\n      dup3\n      dup3\n      lt\n      iszero\n      tag_28\n      jumpi\n      dup4\n      dup3\n      swap1\n      0x00\n      mstore\n      keccak256(0x00, 0x20)\n      swap1\n      0x03\n      mul\n      add\n      mload(0x40)\n      dup1\n      0x60\n      add\n      0x40\n      mstore\n      swap1\n      dup2\n      0x00\n      dup3\n      add\n      dup1\n      sload\n      tag_30\n      swap1\n      tag_31\n      jump\t// in\n    tag_30:\n      dup1\n      0x1f\n      add\n      0x20\n      dup1\n      swap2\n      div\n      mul\n      0x20\n      add\n      mload(0x40)\n      swap1\n      dup2\n      add\n      0x40\n      mstore\n      dup1\n      swap3\n      swap2\n      swap1\n      dup2\n      dup2\n      mstore\n      0x20\n      add\n      dup3\n      dup1\n      sload\n      tag_32\n      swap1\n      tag_31\n      jump\t// in\n    tag_32:\n      dup1\n      iszero\n      tag_33\n      jumpi\n      dup1\n      0x1f\n      lt\n      tag_34\n      jumpi\n      0x0100\n      dup1\n      dup4\n      sload\n      div\n      mul\n      dup4\n      mstore\n      swap2\n      0x20\n      add\n      swap2\n      jump(tag_33)\n    tag_34:\n      dup3\n      add\n      swap2\n      swap1\n      0x00\n      mstore\n      keccak256(0x00, 0x20)\n      swap1\n    tag_35:\n      dup2\n      sload\n      dup2\n      mstore\n      swap1\n      0x01\n      add\n      swap1\n      0x20\n      add\n      dup1\n      dup4\n      gt\n      tag_35\n      jumpi\n      dup3\n      swap1\n      sub\n      0x1f\n      and\n      dup3\n      add\n      swap2\n    tag_33:\n      pop\n      pop\n      pop\n      pop\n      pop\n      dup2\n      mstore\n      0x20\n      add\n      0x01\n      dup3\n      add\n      0x00\n      swap1\n      sload\n      swap1\n      0x0100\n      exp\n      swap1\n      div\n      0xffffffffffffffffffffffffffffffffffffffff\n      and\n      0xffffffffffffffffffffffffffffffffffffffff\n      and\n      0xffffffffffffffffffffffffffffffffffffffff\n      and\n      dup2\n      mstore\n      0x20\n      add\n      0x02\n      dup3\n      add\n      sload\n      dup2\n      mstore\n      pop\n      pop\n      dup2\n      mstore\n      0x20\n      add\n      swap1\n      0x01\n      add\n      swap1\n      jump(tag_27)\n    tag_28:\n      pop\n      pop\n      pop\n      pop\n      dup2\n      mstore\n      pop\n      pop\n      swap1\n      pop\n        /* \"contracts/event_organization.sol\":703:829  function getFullEvent(address _address) public view returns(Event_Modal memory) {\r... */\n      swap2\n      swap1\n      pop\n      jump\t// out\n        /* \"contracts/event_organization.sol\":845:1156  function getEventDetails(address _organizer) view public returns(string memory,uint){\r... */\n    tag_15:\n        /* \"contracts/event_organization.sol\":910:923  string memory */\n      0x60\n        /* \"contracts/event_organization.sol\":924:928  uint */\n      0x00\n        /* \"contracts/event_organization.sol\":957:967  events_map */\n      dup1\n        /* \"contracts/event_organization.sol\":957:979  events_map[_organizer] */\n      0x00\n        /* \"contracts/event_organization.sol\":968:978  _organizer */\n      dup5\n        /* \"contracts/event_organization.sol\":957:979  events_map[_organizer] */\n      0xffffffffffffffffffffffffffffffffffffffff\n      and\n      0xffffffffffffffffffffffffffffffffffffffff\n      and\n      dup2\n      mstore\n      0x20\n      add\n      swap1\n      dup2\n      mstore\n      0x20\n      add\n      0x00\n      keccak256\n        /* \"contracts/event_organization.sol\":957:991  events_map[_organizer].EventsArray */\n      0x00\n      add\n        /* \"contracts/event_organization.sol\":1036:1037  1 */\n      0x01\n        /* \"contracts/event_organization.sol\":992:1002  events_map */\n      0x00\n        /* \"contracts/event_organization.sol\":992:1014  events_map[_organizer] */\n      dup1\n        /* \"contracts/event_organization.sol\":1003:1013  _organizer */\n      dup7\n        /* \"contracts/event_organization.sol\":992:1014  events_map[_organizer] */\n      0xffffffffffffffffffffffffffffffffffffffff\n      and\n      0xffffffffffffffffffffffffffffffffffffffff\n      and\n      dup2\n      mstore\n      0x20\n      add\n      swap1\n      dup2\n      mstore\n      0x20\n      add\n      0x00\n      keccak256\n        /* \"contracts/event_organization.sol\":992:1026  events_map[_organizer].EventsArray */\n      0x00\n      add\n        /* \"contracts/event_organization.sol\":992:1033  events_map[_organizer].EventsArray.length */\n      dup1\n      sload\n      swap1\n      pop\n        /* \"contracts/event_organization.sol\":992:1037  events_map[_organizer].EventsArray.length - 1 */\n      tag_37\n      swap2\n      swap1\n      tag_38\n      jump\t// in\n    tag_37:\n        /* \"contracts/event_organization.sol\":957:1038  events_map[_organizer].EventsArray[events_map[_organizer].EventsArray.length - 1] */\n      dup2\n      sload\n      dup2\n      lt\n      tag_39\n      jumpi\n      tag_40\n      tag_41\n      jump\t// in\n    tag_40:\n    tag_39:\n      swap1\n      0x00\n      mstore\n      keccak256(0x00, 0x20)\n      swap1\n      0x03\n      mul\n      add\n        /* \"contracts/event_organization.sol\":957:1043  events_map[_organizer].EventsArray[events_map[_organizer].EventsArray.length - 1].name */\n      0x00\n      add\n        /* \"contracts/event_organization.sol\":1044:1054  events_map */\n      0x00\n        /* \"contracts/event_organization.sol\":1044:1066  events_map[_organizer] */\n      dup1\n        /* \"contracts/event_organization.sol\":1055:1065  _organizer */\n      dup6\n        /* \"contracts/event_organization.sol\":1044:1066  events_map[_organizer] */\n      0xffffffffffffffffffffffffffffffffffffffff\n      and\n      0xffffffffffffffffffffffffffffffffffffffff\n      and\n      dup2\n      mstore\n      0x20\n      add\n      swap1\n      dup2\n      mstore\n      0x20\n      add\n      0x00\n      keccak256\n        /* \"contracts/event_organization.sol\":1044:1078  events_map[_organizer].EventsArray */\n      0x00\n      add\n        /* \"contracts/event_organization.sol\":1123:1124  1 */\n      0x01\n        /* \"contracts/event_organization.sol\":1079:1089  events_map */\n      0x00\n        /* \"contracts/event_organization.sol\":1079:1101  events_map[_organizer] */\n      dup1\n        /* \"contracts/event_organization.sol\":1090:1100  _organizer */\n      dup8\n        /* \"contracts/event_organization.sol\":1079:1101  events_map[_organizer] */\n      0xffffffffffffffffffffffffffffffffffffffff\n      and\n      0xffffffffffffffffffffffffffffffffffffffff\n      and\n      dup2\n      mstore\n      0x20\n      add\n      swap1\n      dup2\n      mstore\n      0x20\n      add\n      0x00\n      keccak256\n        /* \"contracts/event_organization.sol\":1079:1113  events_map[_organizer].EventsArray */\n      0x00\n      add\n        /* \"contracts/event_organization.sol\":1079:1120  events_map[_organizer].EventsArray.length */\n      dup1\n      sload\n      swap1\n      pop\n        /* \"contracts/event_organization.sol\":1079:1124  events_map[_organizer].EventsArray.length - 1 */\n      tag_43\n      swap2\n      swap1\n      tag_38\n      jump\t// in\n    tag_43:\n        /* \"contracts/event_organization.sol\":1044:1125  events_map[_organizer].EventsArray[events_map[_organizer].EventsArray.length - 1] */\n      dup2\n      sload\n      dup2\n      lt\n      tag_44\n      jumpi\n      tag_45\n      tag_41\n      jump\t// in\n    tag_45:\n    tag_44:\n      swap1\n      0x00\n      mstore\n      keccak256(0x00, 0x20)\n      swap1\n      0x03\n      mul\n      add\n        /* \"contracts/event_organization.sol\":1044:1137  events_map[_organizer].EventsArray[events_map[_organizer].EventsArray.length - 1].ticketPrice */\n      0x02\n      add\n      sload\n        /* \"contracts/event_organization.sol\":950:1138  return(events_map[_organizer].EventsArray[events_map[_organizer].EventsArray.length - 1].name,events_map[_organizer].EventsArray[events_map[_organizer].EventsArray.length - 1].ticketPrice) */\n      dup2\n      dup1\n      sload\n      tag_47\n      swap1\n      tag_31\n      jump\t// in\n    tag_47:\n      dup1\n      0x1f\n      add\n      0x20\n      dup1\n      swap2\n      div\n      mul\n      0x20\n      add\n      mload(0x40)\n      swap1\n      dup2\n      add\n      0x40\n      mstore\n      dup1\n      swap3\n      swap2\n      swap1\n      dup2\n      dup2\n      mstore\n      0x20\n      add\n      dup3\n      dup1\n      sload\n      tag_48\n      swap1\n      tag_31\n      jump\t// in\n    tag_48:\n      dup1\n      iszero\n      tag_49\n      jumpi\n      dup1\n      0x1f\n      lt\n      tag_50\n      jumpi\n      0x0100\n      dup1\n      dup4\n      sload\n      div\n      mul\n      dup4\n      mstore\n      swap2\n      0x20\n      add\n      swap2\n      jump(tag_49)\n    tag_50:\n      dup3\n      add\n      swap2\n      swap1\n      0x00\n      mstore\n      keccak256(0x00, 0x20)\n      swap1\n    tag_51:\n      dup2\n      sload\n      dup2\n      mstore\n      swap1\n      0x01\n      add\n      swap1\n      0x20\n      add\n      dup1\n      dup4\n      gt\n      tag_51\n      jumpi\n      dup3\n      swap1\n      sub\n      0x1f\n      and\n      dup3\n      add\n      swap2\n    tag_49:\n      pop\n      pop\n      pop\n      pop\n      pop\n      swap2\n      pop\n      swap2\n      pop\n      swap2\n      pop\n        /* \"contracts/event_organization.sol\":845:1156  function getEventDetails(address _organizer) view public returns(string memory,uint){\r... */\n      swap2\n      pop\n      swap2\n      jump\t// out\n        /* \"contracts/event_organization.sol\":321:695  function addEvent(string memory _name, uint256 _ticketPrice) public payable returns(string memory) {\r... */\n    tag_21:\n        /* \"contracts/event_organization.sol\":405:418  string memory */\n      0x60\n        /* \"contracts/event_organization.sol\":452:459  1 ether */\n      0x0de0b6b3a7640000\n        /* \"contracts/event_organization.sol\":439:448  msg.value */\n      callvalue\n        /* \"contracts/event_organization.sol\":439:459  msg.value == 1 ether */\n      eq\n        /* \"contracts/event_organization.sol\":431:509  require(msg.value == 1 ether, \"You must send exactly 1 ether to add an event\") */\n      tag_53\n      jumpi\n      mload(0x40)\n      0x08c379a000000000000000000000000000000000000000000000000000000000\n      dup2\n      mstore\n      0x04\n      add\n      tag_54\n      swap1\n      tag_55\n      jump\t// in\n    tag_54:\n      mload(0x40)\n      dup1\n      swap2\n      sub\n      swap1\n      revert\n    tag_53:\n        /* \"contracts/event_organization.sol\":520:541  Event memory newEvent */\n      0x00\n        /* \"contracts/event_organization.sol\":544:581  Event(_name, msg.sender,_ticketPrice) */\n      mload(0x40)\n      dup1\n      0x60\n      add\n      0x40\n      mstore\n      dup1\n        /* \"contracts/event_organization.sol\":550:555  _name */\n      dup6\n        /* \"contracts/event_organization.sol\":544:581  Event(_name, msg.sender,_ticketPrice) */\n      dup2\n      mstore\n      0x20\n      add\n        /* \"contracts/event_organization.sol\":557:567  msg.sender */\n      caller\n        /* \"contracts/event_organization.sol\":544:581  Event(_name, msg.sender,_ticketPrice) */\n      0xffffffffffffffffffffffffffffffffffffffff\n      and\n      dup2\n      mstore\n      0x20\n      add\n        /* \"contracts/event_organization.sol\":568:580  _ticketPrice */\n      dup5\n        /* \"contracts/event_organization.sol\":544:581  Event(_name, msg.sender,_ticketPrice) */\n      dup2\n      mstore\n      pop\n        /* \"contracts/event_organization.sol\":520:581  Event memory newEvent = Event(_name, msg.sender,_ticketPrice) */\n      swap1\n      pop\n        /* \"contracts/event_organization.sol\":592:602  events_map */\n      0x00\n        /* \"contracts/event_organization.sol\":592:614  events_map[msg.sender] */\n      dup1\n        /* \"contracts/event_organization.sol\":603:613  msg.sender */\n      caller\n        /* \"contracts/event_organization.sol\":592:614  events_map[msg.sender] */\n      0xffffffffffffffffffffffffffffffffffffffff\n      and\n      0xffffffffffffffffffffffffffffffffffffffff\n      and\n      dup2\n      mstore\n      0x20\n      add\n      swap1\n      dup2\n      mstore\n      0x20\n      add\n      0x00\n      keccak256\n        /* \"contracts/event_organization.sol\":592:626  events_map[msg.sender].EventsArray */\n      0x00\n      add\n        /* \"contracts/event_organization.sol\":632:640  newEvent */\n      dup2\n        /* \"contracts/event_organization.sol\":592:641  events_map[msg.sender].EventsArray.push(newEvent) */\n      swap1\n      dup1\n      0x01\n      dup2\n      sload\n      add\n      dup1\n      dup3\n      sstore\n      dup1\n      swap2\n      pop\n      pop\n      0x01\n      swap1\n      sub\n      swap1\n      0x00\n      mstore\n      keccak256(0x00, 0x20)\n      swap1\n      0x03\n      mul\n      add\n      0x00\n      swap1\n      swap2\n      swap1\n      swap2\n      swap1\n      swap2\n      pop\n      0x00\n      dup3\n      add\n      mload\n      dup2\n      0x00\n      add\n      swap1\n      dup1\n      mload\n      swap1\n      0x20\n      add\n      swap1\n      tag_57\n      swap3\n      swap2\n      swap1\n      tag_58\n      jump\t// in\n    tag_57:\n      pop\n      0x20\n      dup3\n      add\n      mload\n      dup2\n      0x01\n      add\n      exp(0x0100, 0x00)\n      dup2\n      sload\n      dup2\n      0xffffffffffffffffffffffffffffffffffffffff\n      mul\n      not\n      and\n      swap1\n      dup4\n      0xffffffffffffffffffffffffffffffffffffffff\n      and\n      mul\n      or\n      swap1\n      sstore\n      pop\n      0x40\n      dup3\n      add\n      mload\n      dup2\n      0x02\n      add\n      sstore\n      pop\n      pop\n        /* \"contracts/event_organization.sol\":652:677  return \"Event Registered\" */\n      mload(0x40)\n      dup1\n      0x40\n      add\n      0x40\n      mstore\n      dup1\n      0x10\n      dup2\n      mstore\n      0x20\n      add\n      0x4576656e74205265676973746572656400000000000000000000000000000000\n      dup2\n      mstore\n      pop\n      swap2\n      pop\n      pop\n        /* \"contracts/event_organization.sol\":321:695  function addEvent(string memory _name, uint256 _ticketPrice) public payable returns(string memory) {\r... */\n      swap3\n      swap2\n      pop\n      pop\n      jump\t// out\n    tag_25:\n      mload(0x40)\n      dup1\n      0x20\n      add\n      0x40\n      mstore\n      dup1\n      0x60\n      dup2\n      mstore\n      pop\n      swap1\n      jump\t// out\n    tag_58:\n      dup3\n      dup1\n      sload\n      tag_59\n      swap1\n      tag_31\n      jump\t// in\n    tag_59:\n      swap1\n      0x00\n      mstore\n      keccak256(0x00, 0x20)\n      swap1\n      0x1f\n      add\n      0x20\n      swap1\n      div\n      dup2\n      add\n      swap3\n      dup3\n      tag_61\n      jumpi\n      0x00\n      dup6\n      sstore\n      jump(tag_60)\n    tag_61:\n      dup3\n      0x1f\n      lt\n      tag_62\n      jumpi\n      dup1\n      mload\n      not(0xff)\n      and\n      dup4\n      dup1\n      add\n      or\n      dup6\n      sstore\n      jump(tag_60)\n    tag_62:\n      dup3\n      dup1\n      add\n      0x01\n      add\n      dup6\n      sstore\n      dup3\n      iszero\n      tag_60\n      jumpi\n      swap2\n      dup3\n      add\n    tag_63:\n      dup3\n      dup2\n      gt\n      iszero\n      tag_64\n      jumpi\n      dup3\n      mload\n      dup3\n      sstore\n      swap2\n      0x20\n      add\n      swap2\n      swap1\n      0x01\n      add\n      swap1\n      jump(tag_63)\n    tag_64:\n    tag_60:\n      pop\n      swap1\n      pop\n      tag_65\n      swap2\n      swap1\n      tag_66\n      jump\t// in\n    tag_65:\n      pop\n      swap1\n      jump\t// out\n    tag_66:\n    tag_67:\n      dup1\n      dup3\n      gt\n      iszero\n      tag_68\n      jumpi\n      0x00\n      dup2\n      0x00\n      swap1\n      sstore\n      pop\n      0x01\n      add\n      jump(tag_67)\n    tag_68:\n      pop\n      swap1\n      jump\t// out\n        /* \"#utility.yul\":7:419   */\n    tag_70:\n        /* \"#utility.yul\":85:90   */\n      0x00\n        /* \"#utility.yul\":110:176   */\n      tag_72\n        /* \"#utility.yul\":126:175   */\n      tag_73\n        /* \"#utility.yul\":168:174   */\n      dup5\n        /* \"#utility.yul\":126:175   */\n      tag_74\n      jump\t// in\n    tag_73:\n        /* \"#utility.yul\":110:176   */\n      tag_75\n      jump\t// in\n    tag_72:\n        /* \"#utility.yul\":101:176   */\n      swap1\n      pop\n        /* \"#utility.yul\":199:205   */\n      dup3\n        /* \"#utility.yul\":192:197   */\n      dup2\n        /* \"#utility.yul\":185:206   */\n      mstore\n        /* \"#utility.yul\":237:241   */\n      0x20\n        /* \"#utility.yul\":230:235   */\n      dup2\n        /* \"#utility.yul\":226:242   */\n      add\n        /* \"#utility.yul\":275:278   */\n      dup5\n        /* \"#utility.yul\":266:272   */\n      dup5\n        /* \"#utility.yul\":261:264   */\n      dup5\n        /* \"#utility.yul\":257:273   */\n      add\n        /* \"#utility.yul\":254:279   */\n      gt\n        /* \"#utility.yul\":251:363   */\n      iszero\n      tag_76\n      jumpi\n        /* \"#utility.yul\":282:361   */\n      tag_77\n      tag_78\n      jump\t// in\n    tag_77:\n        /* \"#utility.yul\":251:363   */\n    tag_76:\n        /* \"#utility.yul\":372:413   */\n      tag_79\n        /* \"#utility.yul\":406:412   */\n      dup5\n        /* \"#utility.yul\":401:404   */\n      dup3\n        /* \"#utility.yul\":396:399   */\n      dup6\n        /* \"#utility.yul\":372:413   */\n      tag_80\n      jump\t// in\n    tag_79:\n        /* \"#utility.yul\":91:419   */\n      pop\n        /* \"#utility.yul\":7:419   */\n      swap4\n      swap3\n      pop\n      pop\n      pop\n      jump\t// out\n        /* \"#utility.yul\":425:564   */\n    tag_81:\n        /* \"#utility.yul\":471:476   */\n      0x00\n        /* \"#utility.yul\":509:515   */\n      dup2\n        /* \"#utility.yul\":496:516   */\n      calldataload\n        /* \"#utility.yul\":487:516   */\n      swap1\n      pop\n        /* \"#utility.yul\":525:558   */\n      tag_83\n        /* \"#utility.yul\":552:557   */\n      dup2\n        /* \"#utility.yul\":525:558   */\n      tag_84\n      jump\t// in\n    tag_83:\n        /* \"#utility.yul\":425:564   */\n      swap3\n      swap2\n      pop\n      pop\n      jump\t// out\n        /* \"#utility.yul\":584:924   */\n    tag_85:\n        /* \"#utility.yul\":640:645   */\n      0x00\n        /* \"#utility.yul\":689:692   */\n      dup3\n        /* \"#utility.yul\":682:686   */\n      0x1f\n        /* \"#utility.yul\":674:680   */\n      dup4\n        /* \"#utility.yul\":670:687   */\n      add\n        /* \"#utility.yul\":666:693   */\n      slt\n        /* \"#utility.yul\":656:778   */\n      tag_87\n      jumpi\n        /* \"#utility.yul\":697:776   */\n      tag_88\n      tag_89\n      jump\t// in\n    tag_88:\n        /* \"#utility.yul\":656:778   */\n    tag_87:\n        /* \"#utility.yul\":814:820   */\n      dup2\n        /* \"#utility.yul\":801:821   */\n      calldataload\n        /* \"#utility.yul\":839:918   */\n      tag_90\n        /* \"#utility.yul\":914:917   */\n      dup5\n        /* \"#utility.yul\":906:912   */\n      dup3\n        /* \"#utility.yul\":899:903   */\n      0x20\n        /* \"#utility.yul\":891:897   */\n      dup7\n        /* \"#utility.yul\":887:904   */\n      add\n        /* \"#utility.yul\":839:918   */\n      tag_70\n      jump\t// in\n    tag_90:\n        /* \"#utility.yul\":830:918   */\n      swap2\n      pop\n        /* \"#utility.yul\":646:924   */\n      pop\n        /* \"#utility.yul\":584:924   */\n      swap3\n      swap2\n      pop\n      pop\n      jump\t// out\n        /* \"#utility.yul\":930:1069   */\n    tag_91:\n        /* \"#utility.yul\":976:981   */\n      0x00\n        /* \"#utility.yul\":1014:1020   */\n      dup2\n        /* \"#utility.yul\":1001:1021   */\n      calldataload\n        /* \"#utility.yul\":992:1021   */\n      swap1\n      pop\n        /* \"#utility.yul\":1030:1063   */\n      tag_93\n        /* \"#utility.yul\":1057:1062   */\n      dup2\n        /* \"#utility.yul\":1030:1063   */\n      tag_94\n      jump\t// in\n    tag_93:\n        /* \"#utility.yul\":930:1069   */\n      swap3\n      swap2\n      pop\n      pop\n      jump\t// out\n        /* \"#utility.yul\":1075:1404   */\n    tag_8:\n        /* \"#utility.yul\":1134:1140   */\n      0x00\n        /* \"#utility.yul\":1183:1185   */\n      0x20\n        /* \"#utility.yul\":1171:1180   */\n      dup3\n        /* \"#utility.yul\":1162:1169   */\n      dup5\n        /* \"#utility.yul\":1158:1181   */\n      sub\n        /* \"#utility.yul\":1154:1186   */\n      slt\n        /* \"#utility.yul\":1151:1270   */\n      iszero\n      tag_96\n      jumpi\n        /* \"#utility.yul\":1189:1268   */\n      tag_97\n      tag_98\n      jump\t// in\n    tag_97:\n        /* \"#utility.yul\":1151:1270   */\n    tag_96:\n        /* \"#utility.yul\":1309:1310   */\n      0x00\n        /* \"#utility.yul\":1334:1387   */\n      tag_99\n        /* \"#utility.yul\":1379:1386   */\n      dup5\n        /* \"#utility.yul\":1370:1376   */\n      dup3\n        /* \"#utility.yul\":1359:1368   */\n      dup6\n        /* \"#utility.yul\":1355:1377   */\n      add\n        /* \"#utility.yul\":1334:1387   */\n      tag_81\n      jump\t// in\n    tag_99:\n        /* \"#utility.yul\":1324:1387   */\n      swap2\n      pop\n        /* \"#utility.yul\":1280:1397   */\n      pop\n        /* \"#utility.yul\":1075:1404   */\n      swap3\n      swap2\n      pop\n      pop\n      jump\t// out\n        /* \"#utility.yul\":1410:2064   */\n    tag_20:\n        /* \"#utility.yul\":1488:1494   */\n      0x00\n        /* \"#utility.yul\":1496:1502   */\n      dup1\n        /* \"#utility.yul\":1545:1547   */\n      0x40\n        /* \"#utility.yul\":1533:1542   */\n      dup4\n        /* \"#utility.yul\":1524:1531   */\n      dup6\n        /* \"#utility.yul\":1520:1543   */\n      sub\n        /* \"#utility.yul\":1516:1548   */\n      slt\n        /* \"#utility.yul\":1513:1632   */\n      iszero\n      tag_101\n      jumpi\n        /* \"#utility.yul\":1551:1630   */\n      tag_102\n      tag_98\n      jump\t// in\n    tag_102:\n        /* \"#utility.yul\":1513:1632   */\n    tag_101:\n        /* \"#utility.yul\":1699:1700   */\n      0x00\n        /* \"#utility.yul\":1688:1697   */\n      dup4\n        /* \"#utility.yul\":1684:1701   */\n      add\n        /* \"#utility.yul\":1671:1702   */\n      calldataload\n        /* \"#utility.yul\":1729:1747   */\n      0xffffffffffffffff\n        /* \"#utility.yul\":1721:1727   */\n      dup2\n        /* \"#utility.yul\":1718:1748   */\n      gt\n        /* \"#utility.yul\":1715:1832   */\n      iszero\n      tag_103\n      jumpi\n        /* \"#utility.yul\":1751:1830   */\n      tag_104\n      tag_105\n      jump\t// in\n    tag_104:\n        /* \"#utility.yul\":1715:1832   */\n    tag_103:\n        /* \"#utility.yul\":1856:1919   */\n      tag_106\n        /* \"#utility.yul\":1911:1918   */\n      dup6\n        /* \"#utility.yul\":1902:1908   */\n      dup3\n        /* \"#utility.yul\":1891:1900   */\n      dup7\n        /* \"#utility.yul\":1887:1909   */\n      add\n        /* \"#utility.yul\":1856:1919   */\n      tag_85\n      jump\t// in\n    tag_106:\n        /* \"#utility.yul\":1846:1919   */\n      swap3\n      pop\n        /* \"#utility.yul\":1642:1929   */\n      pop\n        /* \"#utility.yul\":1968:1970   */\n      0x20\n        /* \"#utility.yul\":1994:2047   */\n      tag_107\n        /* \"#utility.yul\":2039:2046   */\n      dup6\n        /* \"#utility.yul\":2030:2036   */\n      dup3\n        /* \"#utility.yul\":2019:2028   */\n      dup7\n        /* \"#utility.yul\":2015:2037   */\n      add\n        /* \"#utility.yul\":1994:2047   */\n      tag_91\n      jump\t// in\n    tag_107:\n        /* \"#utility.yul\":1984:2047   */\n      swap2\n      pop\n        /* \"#utility.yul\":1939:2057   */\n      pop\n        /* \"#utility.yul\":1410:2064   */\n      swap3\n      pop\n      swap3\n      swap1\n      pop\n      jump\t// out\n        /* \"#utility.yul\":2070:2306   */\n    tag_108:\n        /* \"#utility.yul\":2179:2189   */\n      0x00\n        /* \"#utility.yul\":2214:2300   */\n      tag_110\n        /* \"#utility.yul\":2296:2299   */\n      dup4\n        /* \"#utility.yul\":2288:2294   */\n      dup4\n        /* \"#utility.yul\":2214:2300   */\n      tag_111\n      jump\t// in\n    tag_110:\n        /* \"#utility.yul\":2200:2300   */\n      swap1\n      pop\n        /* \"#utility.yul\":2070:2306   */\n      swap3\n      swap2\n      pop\n      pop\n      jump\t// out\n        /* \"#utility.yul\":2312:2420   */\n    tag_112:\n        /* \"#utility.yul\":2389:2413   */\n      tag_114\n        /* \"#utility.yul\":2407:2412   */\n      dup2\n        /* \"#utility.yul\":2389:2413   */\n      tag_115\n      jump\t// in\n    tag_114:\n        /* \"#utility.yul\":2384:2387   */\n      dup3\n        /* \"#utility.yul\":2377:2414   */\n      mstore\n        /* \"#utility.yul\":2312:2420   */\n      pop\n      pop\n      jump\t// out\n        /* \"#utility.yul\":2504:3555   */\n    tag_116:\n        /* \"#utility.yul\":2653:2656   */\n      0x00\n        /* \"#utility.yul\":2682:2756   */\n      tag_118\n        /* \"#utility.yul\":2750:2755   */\n      dup3\n        /* \"#utility.yul\":2682:2756   */\n      tag_119\n      jump\t// in\n    tag_118:\n        /* \"#utility.yul\":2772:2868   */\n      tag_120\n        /* \"#utility.yul\":2861:2867   */\n      dup2\n        /* \"#utility.yul\":2856:2859   */\n      dup6\n        /* \"#utility.yul\":2772:2868   */\n      tag_121\n      jump\t// in\n    tag_120:\n        /* \"#utility.yul\":2765:2868   */\n      swap4\n      pop\n        /* \"#utility.yul\":2894:2897   */\n      dup4\n        /* \"#utility.yul\":2939:2943   */\n      0x20\n        /* \"#utility.yul\":2931:2937   */\n      dup3\n        /* \"#utility.yul\":2927:2944   */\n      mul\n        /* \"#utility.yul\":2922:2925   */\n      dup6\n        /* \"#utility.yul\":2918:2945   */\n      add\n        /* \"#utility.yul\":2969:3045   */\n      tag_122\n        /* \"#utility.yul\":3039:3044   */\n      dup6\n        /* \"#utility.yul\":2969:3045   */\n      tag_123\n      jump\t// in\n    tag_122:\n        /* \"#utility.yul\":3068:3075   */\n      dup1\n        /* \"#utility.yul\":3099:3100   */\n      0x00\n        /* \"#utility.yul\":3084:3510   */\n    tag_124:\n        /* \"#utility.yul\":3109:3115   */\n      dup6\n        /* \"#utility.yul\":3106:3107   */\n      dup2\n        /* \"#utility.yul\":3103:3116   */\n      lt\n        /* \"#utility.yul\":3084:3510   */\n      iszero\n      tag_126\n      jumpi\n        /* \"#utility.yul\":3180:3189   */\n      dup5\n        /* \"#utility.yul\":3174:3178   */\n      dup5\n        /* \"#utility.yul\":3170:3190   */\n      sub\n        /* \"#utility.yul\":3165:3168   */\n      dup10\n        /* \"#utility.yul\":3158:3191   */\n      mstore\n        /* \"#utility.yul\":3231:3237   */\n      dup2\n        /* \"#utility.yul\":3225:3238   */\n      mload\n        /* \"#utility.yul\":3259:3363   */\n      tag_127\n        /* \"#utility.yul\":3358:3362   */\n      dup6\n        /* \"#utility.yul\":3343:3356   */\n      dup3\n        /* \"#utility.yul\":3259:3363   */\n      tag_108\n      jump\t// in\n    tag_127:\n        /* \"#utility.yul\":3251:3363   */\n      swap5\n      pop\n        /* \"#utility.yul\":3386:3466   */\n      tag_128\n        /* \"#utility.yul\":3459:3465   */\n      dup4\n        /* \"#utility.yul\":3386:3466   */\n      tag_129\n      jump\t// in\n    tag_128:\n        /* \"#utility.yul\":3376:3466   */\n      swap3\n      pop\n        /* \"#utility.yul\":3495:3499   */\n      0x20\n        /* \"#utility.yul\":3490:3493   */\n      dup11\n        /* \"#utility.yul\":3486:3500   */\n      add\n        /* \"#utility.yul\":3479:3500   */\n      swap10\n      pop\n        /* \"#utility.yul\":3144:3510   */\n      pop\n        /* \"#utility.yul\":3131:3132   */\n      0x01\n        /* \"#utility.yul\":3128:3129   */\n      dup2\n        /* \"#utility.yul\":3124:3133   */\n      add\n        /* \"#utility.yul\":3119:3133   */\n      swap1\n      pop\n        /* \"#utility.yul\":3084:3510   */\n      jump(tag_124)\n    tag_126:\n        /* \"#utility.yul\":3088:3102   */\n      pop\n        /* \"#utility.yul\":3526:3530   */\n      dup3\n        /* \"#utility.yul\":3519:3530   */\n      swap8\n      pop\n        /* \"#utility.yul\":3546:3549   */\n      dup8\n        /* \"#utility.yul\":3539:3549   */\n      swap6\n      pop\n        /* \"#utility.yul\":2658:3555   */\n      pop\n      pop\n      pop\n      pop\n      pop\n        /* \"#utility.yul\":2504:3555   */\n      swap3\n      swap2\n      pop\n      pop\n      jump\t// out\n        /* \"#utility.yul\":3561:3905   */\n    tag_130:\n        /* \"#utility.yul\":3639:3642   */\n      0x00\n        /* \"#utility.yul\":3667:3706   */\n      tag_132\n        /* \"#utility.yul\":3700:3705   */\n      dup3\n        /* \"#utility.yul\":3667:3706   */\n      tag_133\n      jump\t// in\n    tag_132:\n        /* \"#utility.yul\":3722:3783   */\n      tag_134\n        /* \"#utility.yul\":3776:3782   */\n      dup2\n        /* \"#utility.yul\":3771:3774   */\n      dup6\n        /* \"#utility.yul\":3722:3783   */\n      tag_135\n      jump\t// in\n    tag_134:\n        /* \"#utility.yul\":3715:3783   */\n      swap4\n      pop\n        /* \"#utility.yul\":3792:3844   */\n      tag_136\n        /* \"#utility.yul\":3837:3843   */\n      dup2\n        /* \"#utility.yul\":3832:3835   */\n      dup6\n        /* \"#utility.yul\":3825:3829   */\n      0x20\n        /* \"#utility.yul\":3818:3823   */\n      dup7\n        /* \"#utility.yul\":3814:3830   */\n      add\n        /* \"#utility.yul\":3792:3844   */\n      tag_137\n      jump\t// in\n    tag_136:\n        /* \"#utility.yul\":3869:3898   */\n      tag_138\n        /* \"#utility.yul\":3891:3897   */\n      dup2\n        /* \"#utility.yul\":3869:3898   */\n      tag_139\n      jump\t// in\n    tag_138:\n        /* \"#utility.yul\":3864:3867   */\n      dup5\n        /* \"#utility.yul\":3860:3899   */\n      add\n        /* \"#utility.yul\":3853:3899   */\n      swap2\n      pop\n        /* \"#utility.yul\":3643:3905   */\n      pop\n        /* \"#utility.yul\":3561:3905   */\n      swap3\n      swap2\n      pop\n      pop\n      jump\t// out\n        /* \"#utility.yul\":3911:4275   */\n    tag_140:\n        /* \"#utility.yul\":3999:4002   */\n      0x00\n        /* \"#utility.yul\":4027:4066   */\n      tag_142\n        /* \"#utility.yul\":4060:4065   */\n      dup3\n        /* \"#utility.yul\":4027:4066   */\n      tag_133\n      jump\t// in\n    tag_142:\n        /* \"#utility.yul\":4082:4153   */\n      tag_143\n        /* \"#utility.yul\":4146:4152   */\n      dup2\n        /* \"#utility.yul\":4141:4144   */\n      dup6\n        /* \"#utility.yul\":4082:4153   */\n      tag_144\n      jump\t// in\n    tag_143:\n        /* \"#utility.yul\":4075:4153   */\n      swap4\n      pop\n        /* \"#utility.yul\":4162:4214   */\n      tag_145\n        /* \"#utility.yul\":4207:4213   */\n      dup2\n        /* \"#utility.yul\":4202:4205   */\n      dup6\n        /* \"#utility.yul\":4195:4199   */\n      0x20\n        /* \"#utility.yul\":4188:4193   */\n      dup7\n        /* \"#utility.yul\":4184:4200   */\n      add\n        /* \"#utility.yul\":4162:4214   */\n      tag_137\n      jump\t// in\n    tag_145:\n        /* \"#utility.yul\":4239:4268   */\n      tag_146\n        /* \"#utility.yul\":4261:4267   */\n      dup2\n        /* \"#utility.yul\":4239:4268   */\n      tag_139\n      jump\t// in\n    tag_146:\n        /* \"#utility.yul\":4234:4237   */\n      dup5\n        /* \"#utility.yul\":4230:4269   */\n      add\n        /* \"#utility.yul\":4223:4269   */\n      swap2\n      pop\n        /* \"#utility.yul\":4003:4275   */\n      pop\n        /* \"#utility.yul\":3911:4275   */\n      swap3\n      swap2\n      pop\n      pop\n      jump\t// out\n        /* \"#utility.yul\":4281:4647   */\n    tag_147:\n        /* \"#utility.yul\":4423:4426   */\n      0x00\n        /* \"#utility.yul\":4444:4511   */\n      tag_149\n        /* \"#utility.yul\":4508:4510   */\n      0x2d\n        /* \"#utility.yul\":4503:4506   */\n      dup4\n        /* \"#utility.yul\":4444:4511   */\n      tag_144\n      jump\t// in\n    tag_149:\n        /* \"#utility.yul\":4437:4511   */\n      swap2\n      pop\n        /* \"#utility.yul\":4520:4613   */\n      tag_150\n        /* \"#utility.yul\":4609:4612   */\n      dup3\n        /* \"#utility.yul\":4520:4613   */\n      tag_151\n      jump\t// in\n    tag_150:\n        /* \"#utility.yul\":4638:4640   */\n      0x40\n        /* \"#utility.yul\":4633:4636   */\n      dup3\n        /* \"#utility.yul\":4629:4641   */\n      add\n        /* \"#utility.yul\":4622:4641   */\n      swap1\n      pop\n        /* \"#utility.yul\":4281:4647   */\n      swap2\n      swap1\n      pop\n      jump\t// out\n        /* \"#utility.yul\":4727:5499   */\n    tag_111:\n        /* \"#utility.yul\":4826:4829   */\n      0x00\n        /* \"#utility.yul\":4862:4866   */\n      0x60\n        /* \"#utility.yul\":4857:4860   */\n      dup4\n        /* \"#utility.yul\":4853:4867   */\n      add\n        /* \"#utility.yul\":4949:4953   */\n      0x00\n        /* \"#utility.yul\":4942:4947   */\n      dup4\n        /* \"#utility.yul\":4938:4954   */\n      add\n        /* \"#utility.yul\":4932:4955   */\n      mload\n        /* \"#utility.yul\":5002:5005   */\n      dup5\n        /* \"#utility.yul\":4996:5000   */\n      dup3\n        /* \"#utility.yul\":4992:5006   */\n      sub\n        /* \"#utility.yul\":4985:4989   */\n      0x00\n        /* \"#utility.yul\":4980:4983   */\n      dup7\n        /* \"#utility.yul\":4976:4990   */\n      add\n        /* \"#utility.yul\":4969:5007   */\n      mstore\n        /* \"#utility.yul\":5028:5101   */\n      tag_153\n        /* \"#utility.yul\":5096:5100   */\n      dup3\n        /* \"#utility.yul\":5082:5094   */\n      dup3\n        /* \"#utility.yul\":5028:5101   */\n      tag_130\n      jump\t// in\n    tag_153:\n        /* \"#utility.yul\":5020:5101   */\n      swap2\n      pop\n        /* \"#utility.yul\":4877:5112   */\n      pop\n        /* \"#utility.yul\":5199:5203   */\n      0x20\n        /* \"#utility.yul\":5192:5197   */\n      dup4\n        /* \"#utility.yul\":5188:5204   */\n      add\n        /* \"#utility.yul\":5182:5205   */\n      mload\n        /* \"#utility.yul\":5218:5281   */\n      tag_154\n        /* \"#utility.yul\":5275:5279   */\n      0x20\n        /* \"#utility.yul\":5270:5273   */\n      dup7\n        /* \"#utility.yul\":5266:5280   */\n      add\n        /* \"#utility.yul\":5252:5264   */\n      dup3\n        /* \"#utility.yul\":5218:5281   */\n      tag_112\n      jump\t// in\n    tag_154:\n        /* \"#utility.yul\":5122:5291   */\n      pop\n        /* \"#utility.yul\":5380:5384   */\n      0x40\n        /* \"#utility.yul\":5373:5378   */\n      dup4\n        /* \"#utility.yul\":5369:5385   */\n      add\n        /* \"#utility.yul\":5363:5386   */\n      mload\n        /* \"#utility.yul\":5399:5462   */\n      tag_155\n        /* \"#utility.yul\":5456:5460   */\n      0x40\n        /* \"#utility.yul\":5451:5454   */\n      dup7\n        /* \"#utility.yul\":5447:5461   */\n      add\n        /* \"#utility.yul\":5433:5445   */\n      dup3\n        /* \"#utility.yul\":5399:5462   */\n      tag_156\n      jump\t// in\n    tag_155:\n        /* \"#utility.yul\":5301:5472   */\n      pop\n        /* \"#utility.yul\":5489:5493   */\n      dup1\n        /* \"#utility.yul\":5482:5493   */\n      swap2\n      pop\n        /* \"#utility.yul\":4831:5499   */\n      pop\n        /* \"#utility.yul\":4727:5499   */\n      swap3\n      swap2\n      pop\n      pop\n      jump\t// out\n        /* \"#utility.yul\":5591:6104   */\n    tag_157:\n        /* \"#utility.yul\":5714:5717   */\n      0x00\n        /* \"#utility.yul\":5750:5754   */\n      0x20\n        /* \"#utility.yul\":5745:5748   */\n      dup4\n        /* \"#utility.yul\":5741:5755   */\n      add\n        /* \"#utility.yul\":5844:5848   */\n      0x00\n        /* \"#utility.yul\":5837:5842   */\n      dup4\n        /* \"#utility.yul\":5833:5849   */\n      add\n        /* \"#utility.yul\":5827:5850   */\n      mload\n        /* \"#utility.yul\":5897:5900   */\n      dup5\n        /* \"#utility.yul\":5891:5895   */\n      dup3\n        /* \"#utility.yul\":5887:5901   */\n      sub\n        /* \"#utility.yul\":5880:5884   */\n      0x00\n        /* \"#utility.yul\":5875:5878   */\n      dup7\n        /* \"#utility.yul\":5871:5885   */\n      add\n        /* \"#utility.yul\":5864:5902   */\n      mstore\n        /* \"#utility.yul\":5923:6066   */\n      tag_159\n        /* \"#utility.yul\":6061:6065   */\n      dup3\n        /* \"#utility.yul\":6047:6059   */\n      dup3\n        /* \"#utility.yul\":5923:6066   */\n      tag_116\n      jump\t// in\n    tag_159:\n        /* \"#utility.yul\":5915:6066   */\n      swap2\n      pop\n        /* \"#utility.yul\":5765:6077   */\n      pop\n        /* \"#utility.yul\":6094:6098   */\n      dup1\n        /* \"#utility.yul\":6087:6098   */\n      swap2\n      pop\n        /* \"#utility.yul\":5719:6104   */\n      pop\n        /* \"#utility.yul\":5591:6104   */\n      swap3\n      swap2\n      pop\n      pop\n      jump\t// out\n        /* \"#utility.yul\":6110:6218   */\n    tag_156:\n        /* \"#utility.yul\":6187:6211   */\n      tag_161\n        /* \"#utility.yul\":6205:6210   */\n      dup2\n        /* \"#utility.yul\":6187:6211   */\n      tag_162\n      jump\t// in\n    tag_161:\n        /* \"#utility.yul\":6182:6185   */\n      dup3\n        /* \"#utility.yul\":6175:6212   */\n      mstore\n        /* \"#utility.yul\":6110:6218   */\n      pop\n      pop\n      jump\t// out\n        /* \"#utility.yul\":6224:6342   */\n    tag_163:\n        /* \"#utility.yul\":6311:6335   */\n      tag_165\n        /* \"#utility.yul\":6329:6334   */\n      dup2\n        /* \"#utility.yul\":6311:6335   */\n      tag_162\n      jump\t// in\n    tag_165:\n        /* \"#utility.yul\":6306:6309   */\n      dup3\n        /* \"#utility.yul\":6299:6336   */\n      mstore\n        /* \"#utility.yul\":6224:6342   */\n      pop\n      pop\n      jump\t// out\n        /* \"#utility.yul\":6348:6661   */\n    tag_23:\n        /* \"#utility.yul\":6461:6465   */\n      0x00\n        /* \"#utility.yul\":6499:6501   */\n      0x20\n        /* \"#utility.yul\":6488:6497   */\n      dup3\n        /* \"#utility.yul\":6484:6502   */\n      add\n        /* \"#utility.yul\":6476:6502   */\n      swap1\n      pop\n        /* \"#utility.yul\":6548:6557   */\n      dup2\n        /* \"#utility.yul\":6542:6546   */\n      dup2\n        /* \"#utility.yul\":6538:6558   */\n      sub\n        /* \"#utility.yul\":6534:6535   */\n      0x00\n        /* \"#utility.yul\":6523:6532   */\n      dup4\n        /* \"#utility.yul\":6519:6536   */\n      add\n        /* \"#utility.yul\":6512:6559   */\n      mstore\n        /* \"#utility.yul\":6576:6654   */\n      tag_167\n        /* \"#utility.yul\":6649:6653   */\n      dup2\n        /* \"#utility.yul\":6640:6646   */\n      dup5\n        /* \"#utility.yul\":6576:6654   */\n      tag_140\n      jump\t// in\n    tag_167:\n        /* \"#utility.yul\":6568:6654   */\n      swap1\n      pop\n        /* \"#utility.yul\":6348:6661   */\n      swap3\n      swap2\n      pop\n      pop\n      jump\t// out\n        /* \"#utility.yul\":6667:7090   */\n    tag_17:\n        /* \"#utility.yul\":6808:6812   */\n      0x00\n        /* \"#utility.yul\":6846:6848   */\n      0x40\n        /* \"#utility.yul\":6835:6844   */\n      dup3\n        /* \"#utility.yul\":6831:6849   */\n      add\n        /* \"#utility.yul\":6823:6849   */\n      swap1\n      pop\n        /* \"#utility.yul\":6895:6904   */\n      dup2\n        /* \"#utility.yul\":6889:6893   */\n      dup2\n        /* \"#utility.yul\":6885:6905   */\n      sub\n        /* \"#utility.yul\":6881:6882   */\n      0x00\n        /* \"#utility.yul\":6870:6879   */\n      dup4\n        /* \"#utility.yul\":6866:6883   */\n      add\n        /* \"#utility.yul\":6859:6906   */\n      mstore\n        /* \"#utility.yul\":6923:7001   */\n      tag_169\n        /* \"#utility.yul\":6996:7000   */\n      dup2\n        /* \"#utility.yul\":6987:6993   */\n      dup6\n        /* \"#utility.yul\":6923:7001   */\n      tag_140\n      jump\t// in\n    tag_169:\n        /* \"#utility.yul\":6915:7001   */\n      swap1\n      pop\n        /* \"#utility.yul\":7011:7083   */\n      tag_170\n        /* \"#utility.yul\":7079:7081   */\n      0x20\n        /* \"#utility.yul\":7068:7077   */\n      dup4\n        /* \"#utility.yul\":7064:7082   */\n      add\n        /* \"#utility.yul\":7055:7061   */\n      dup5\n        /* \"#utility.yul\":7011:7083   */\n      tag_163\n      jump\t// in\n    tag_170:\n        /* \"#utility.yul\":6667:7090   */\n      swap4\n      swap3\n      pop\n      pop\n      pop\n      jump\t// out\n        /* \"#utility.yul\":7096:7515   */\n    tag_55:\n        /* \"#utility.yul\":7262:7266   */\n      0x00\n        /* \"#utility.yul\":7300:7302   */\n      0x20\n        /* \"#utility.yul\":7289:7298   */\n      dup3\n        /* \"#utility.yul\":7285:7303   */\n      add\n        /* \"#utility.yul\":7277:7303   */\n      swap1\n      pop\n        /* \"#utility.yul\":7349:7358   */\n      dup2\n        /* \"#utility.yul\":7343:7347   */\n      dup2\n        /* \"#utility.yul\":7339:7359   */\n      sub\n        /* \"#utility.yul\":7335:7336   */\n      0x00\n        /* \"#utility.yul\":7324:7333   */\n      dup4\n        /* \"#utility.yul\":7320:7337   */\n      add\n        /* \"#utility.yul\":7313:7360   */\n      mstore\n        /* \"#utility.yul\":7377:7508   */\n      tag_172\n        /* \"#utility.yul\":7503:7507   */\n      dup2\n        /* \"#utility.yul\":7377:7508   */\n      tag_147\n      jump\t// in\n    tag_172:\n        /* \"#utility.yul\":7369:7508   */\n      swap1\n      pop\n        /* \"#utility.yul\":7096:7515   */\n      swap2\n      swap1\n      pop\n      jump\t// out\n        /* \"#utility.yul\":7521:7902   */\n    tag_11:\n        /* \"#utility.yul\":7668:7672   */\n      0x00\n        /* \"#utility.yul\":7706:7708   */\n      0x20\n        /* \"#utility.yul\":7695:7704   */\n      dup3\n        /* \"#utility.yul\":7691:7709   */\n      add\n        /* \"#utility.yul\":7683:7709   */\n      swap1\n      pop\n        /* \"#utility.yul\":7755:7764   */\n      dup2\n        /* \"#utility.yul\":7749:7753   */\n      dup2\n        /* \"#utility.yul\":7745:7765   */\n      sub\n        /* \"#utility.yul\":7741:7742   */\n      0x00\n        /* \"#utility.yul\":7730:7739   */\n      dup4\n        /* \"#utility.yul\":7726:7743   */\n      add\n        /* \"#utility.yul\":7719:7766   */\n      mstore\n        /* \"#utility.yul\":7783:7895   */\n      tag_174\n        /* \"#utility.yul\":7890:7894   */\n      dup2\n        /* \"#utility.yul\":7881:7887   */\n      dup5\n        /* \"#utility.yul\":7783:7895   */\n      tag_157\n      jump\t// in\n    tag_174:\n        /* \"#utility.yul\":7775:7895   */\n      swap1\n      pop\n        /* \"#utility.yul\":7521:7902   */\n      swap3\n      swap2\n      pop\n      pop\n      jump\t// out\n        /* \"#utility.yul\":7908:8037   */\n    tag_75:\n        /* \"#utility.yul\":7942:7948   */\n      0x00\n        /* \"#utility.yul\":7969:7989   */\n      tag_176\n      tag_177\n      jump\t// in\n    tag_176:\n        /* \"#utility.yul\":7959:7989   */\n      swap1\n      pop\n        /* \"#utility.yul\":7998:8031   */\n      tag_178\n        /* \"#utility.yul\":8026:8030   */\n      dup3\n        /* \"#utility.yul\":8018:8024   */\n      dup3\n        /* \"#utility.yul\":7998:8031   */\n      tag_179\n      jump\t// in\n    tag_178:\n        /* \"#utility.yul\":7908:8037   */\n      swap2\n      swap1\n      pop\n      jump\t// out\n        /* \"#utility.yul\":8043:8118   */\n    tag_177:\n        /* \"#utility.yul\":8076:8082   */\n      0x00\n        /* \"#utility.yul\":8109:8111   */\n      0x40\n        /* \"#utility.yul\":8103:8112   */\n      mload\n        /* \"#utility.yul\":8093:8112   */\n      swap1\n      pop\n        /* \"#utility.yul\":8043:8118   */\n      swap1\n      jump\t// out\n        /* \"#utility.yul\":8124:8432   */\n    tag_74:\n        /* \"#utility.yul\":8186:8190   */\n      0x00\n        /* \"#utility.yul\":8276:8294   */\n      0xffffffffffffffff\n        /* \"#utility.yul\":8268:8274   */\n      dup3\n        /* \"#utility.yul\":8265:8295   */\n      gt\n        /* \"#utility.yul\":8262:8318   */\n      iszero\n      tag_182\n      jumpi\n        /* \"#utility.yul\":8298:8316   */\n      tag_183\n      tag_184\n      jump\t// in\n    tag_183:\n        /* \"#utility.yul\":8262:8318   */\n    tag_182:\n        /* \"#utility.yul\":8336:8365   */\n      tag_185\n        /* \"#utility.yul\":8358:8364   */\n      dup3\n        /* \"#utility.yul\":8336:8365   */\n      tag_139\n      jump\t// in\n    tag_185:\n        /* \"#utility.yul\":8328:8365   */\n      swap1\n      pop\n        /* \"#utility.yul\":8420:8424   */\n      0x20\n        /* \"#utility.yul\":8414:8418   */\n      dup2\n        /* \"#utility.yul\":8410:8425   */\n      add\n        /* \"#utility.yul\":8402:8425   */\n      swap1\n      pop\n        /* \"#utility.yul\":8124:8432   */\n      swap2\n      swap1\n      pop\n      jump\t// out\n        /* \"#utility.yul\":8438:8590   */\n    tag_123:\n        /* \"#utility.yul\":8525:8529   */\n      0x00\n        /* \"#utility.yul\":8548:8551   */\n      dup2\n        /* \"#utility.yul\":8540:8551   */\n      swap1\n      pop\n        /* \"#utility.yul\":8578:8582   */\n      0x20\n        /* \"#utility.yul\":8573:8576   */\n      dup3\n        /* \"#utility.yul\":8569:8583   */\n      add\n        /* \"#utility.yul\":8561:8583   */\n      swap1\n      pop\n        /* \"#utility.yul\":8438:8590   */\n      swap2\n      swap1\n      pop\n      jump\t// out\n        /* \"#utility.yul\":8596:8730   */\n    tag_119:\n        /* \"#utility.yul\":8683:8689   */\n      0x00\n        /* \"#utility.yul\":8717:8722   */\n      dup2\n        /* \"#utility.yul\":8711:8723   */\n      mload\n        /* \"#utility.yul\":8701:8723   */\n      swap1\n      pop\n        /* \"#utility.yul\":8596:8730   */\n      swap2\n      swap1\n      pop\n      jump\t// out\n        /* \"#utility.yul\":8736:8835   */\n    tag_133:\n        /* \"#utility.yul\":8788:8794   */\n      0x00\n        /* \"#utility.yul\":8822:8827   */\n      dup2\n        /* \"#utility.yul\":8816:8828   */\n      mload\n        /* \"#utility.yul\":8806:8828   */\n      swap1\n      pop\n        /* \"#utility.yul\":8736:8835   */\n      swap2\n      swap1\n      pop\n      jump\t// out\n        /* \"#utility.yul\":8841:8974   */\n    tag_129:\n        /* \"#utility.yul\":8931:8935   */\n      0x00\n        /* \"#utility.yul\":8963:8967   */\n      0x20\n        /* \"#utility.yul\":8958:8961   */\n      dup3\n        /* \"#utility.yul\":8954:8968   */\n      add\n        /* \"#utility.yul\":8946:8968   */\n      swap1\n      pop\n        /* \"#utility.yul\":8841:8974   */\n      swap2\n      swap1\n      pop\n      jump\t// out\n        /* \"#utility.yul\":8980:9174   */\n    tag_121:\n        /* \"#utility.yul\":9089:9100   */\n      0x00\n        /* \"#utility.yul\":9123:9129   */\n      dup3\n        /* \"#utility.yul\":9118:9121   */\n      dup3\n        /* \"#utility.yul\":9111:9130   */\n      mstore\n        /* \"#utility.yul\":9163:9167   */\n      0x20\n        /* \"#utility.yul\":9158:9161   */\n      dup3\n        /* \"#utility.yul\":9154:9168   */\n      add\n        /* \"#utility.yul\":9139:9168   */\n      swap1\n      pop\n        /* \"#utility.yul\":8980:9174   */\n      swap3\n      swap2\n      pop\n      pop\n      jump\t// out\n        /* \"#utility.yul\":9180:9339   */\n    tag_135:\n        /* \"#utility.yul\":9254:9265   */\n      0x00\n        /* \"#utility.yul\":9288:9294   */\n      dup3\n        /* \"#utility.yul\":9283:9286   */\n      dup3\n        /* \"#utility.yul\":9276:9295   */\n      mstore\n        /* \"#utility.yul\":9328:9332   */\n      0x20\n        /* \"#utility.yul\":9323:9326   */\n      dup3\n        /* \"#utility.yul\":9319:9333   */\n      add\n        /* \"#utility.yul\":9304:9333   */\n      swap1\n      pop\n        /* \"#utility.yul\":9180:9339   */\n      swap3\n      swap2\n      pop\n      pop\n      jump\t// out\n        /* \"#utility.yul\":9345:9514   */\n    tag_144:\n        /* \"#utility.yul\":9429:9440   */\n      0x00\n        /* \"#utility.yul\":9463:9469   */\n      dup3\n        /* \"#utility.yul\":9458:9461   */\n      dup3\n        /* \"#utility.yul\":9451:9470   */\n      mstore\n        /* \"#utility.yul\":9503:9507   */\n      0x20\n        /* \"#utility.yul\":9498:9501   */\n      dup3\n        /* \"#utility.yul\":9494:9508   */\n      add\n        /* \"#utility.yul\":9479:9508   */\n      swap1\n      pop\n        /* \"#utility.yul\":9345:9514   */\n      swap3\n      swap2\n      pop\n      pop\n      jump\t// out\n        /* \"#utility.yul\":9520:9711   */\n    tag_38:\n        /* \"#utility.yul\":9560:9564   */\n      0x00\n        /* \"#utility.yul\":9580:9600   */\n      tag_194\n        /* \"#utility.yul\":9598:9599   */\n      dup3\n        /* \"#utility.yul\":9580:9600   */\n      tag_162\n      jump\t// in\n    tag_194:\n        /* \"#utility.yul\":9575:9600   */\n      swap2\n      pop\n        /* \"#utility.yul\":9614:9634   */\n      tag_195\n        /* \"#utility.yul\":9632:9633   */\n      dup4\n        /* \"#utility.yul\":9614:9634   */\n      tag_162\n      jump\t// in\n    tag_195:\n        /* \"#utility.yul\":9609:9634   */\n      swap3\n      pop\n        /* \"#utility.yul\":9653:9654   */\n      dup3\n        /* \"#utility.yul\":9650:9651   */\n      dup3\n        /* \"#utility.yul\":9647:9655   */\n      lt\n        /* \"#utility.yul\":9644:9678   */\n      iszero\n      tag_196\n      jumpi\n        /* \"#utility.yul\":9658:9676   */\n      tag_197\n      tag_198\n      jump\t// in\n    tag_197:\n        /* \"#utility.yul\":9644:9678   */\n    tag_196:\n        /* \"#utility.yul\":9703:9704   */\n      dup3\n        /* \"#utility.yul\":9700:9701   */\n      dup3\n        /* \"#utility.yul\":9696:9705   */\n      sub\n        /* \"#utility.yul\":9688:9705   */\n      swap1\n      pop\n        /* \"#utility.yul\":9520:9711   */\n      swap3\n      swap2\n      pop\n      pop\n      jump\t// out\n        /* \"#utility.yul\":9717:9813   */\n    tag_115:\n        /* \"#utility.yul\":9754:9761   */\n      0x00\n        /* \"#utility.yul\":9783:9807   */\n      tag_200\n        /* \"#utility.yul\":9801:9806   */\n      dup3\n        /* \"#utility.yul\":9783:9807   */\n      tag_201\n      jump\t// in\n    tag_200:\n        /* \"#utility.yul\":9772:9807   */\n      swap1\n      pop\n        /* \"#utility.yul\":9717:9813   */\n      swap2\n      swap1\n      pop\n      jump\t// out\n        /* \"#utility.yul\":9819:9945   */\n    tag_201:\n        /* \"#utility.yul\":9856:9863   */\n      0x00\n        /* \"#utility.yul\":9896:9938   */\n      0xffffffffffffffffffffffffffffffffffffffff\n        /* \"#utility.yul\":9889:9894   */\n      dup3\n        /* \"#utility.yul\":9885:9939   */\n      and\n        /* \"#utility.yul\":9874:9939   */\n      swap1\n      pop\n        /* \"#utility.yul\":9819:9945   */\n      swap2\n      swap1\n      pop\n      jump\t// out\n        /* \"#utility.yul\":9951:10028   */\n    tag_162:\n        /* \"#utility.yul\":9988:9995   */\n      0x00\n        /* \"#utility.yul\":10017:10022   */\n      dup2\n        /* \"#utility.yul\":10006:10022   */\n      swap1\n      pop\n        /* \"#utility.yul\":9951:10028   */\n      swap2\n      swap1\n      pop\n      jump\t// out\n        /* \"#utility.yul\":10034:10188   */\n    tag_80:\n        /* \"#utility.yul\":10118:10124   */\n      dup3\n        /* \"#utility.yul\":10113:10116   */\n      dup2\n        /* \"#utility.yul\":10108:10111   */\n      dup4\n        /* \"#utility.yul\":10095:10125   */\n      calldatacopy\n        /* \"#utility.yul\":10180:10181   */\n      0x00\n        /* \"#utility.yul\":10171:10177   */\n      dup4\n        /* \"#utility.yul\":10166:10169   */\n      dup4\n        /* \"#utility.yul\":10162:10178   */\n      add\n        /* \"#utility.yul\":10155:10182   */\n      mstore\n        /* \"#utility.yul\":10034:10188   */\n      pop\n      pop\n      pop\n      jump\t// out\n        /* \"#utility.yul\":10194:10501   */\n    tag_137:\n        /* \"#utility.yul\":10262:10263   */\n      0x00\n        /* \"#utility.yul\":10272:10385   */\n    tag_206:\n        /* \"#utility.yul\":10286:10292   */\n      dup4\n        /* \"#utility.yul\":10283:10284   */\n      dup2\n        /* \"#utility.yul\":10280:10293   */\n      lt\n        /* \"#utility.yul\":10272:10385   */\n      iszero\n      tag_208\n      jumpi\n        /* \"#utility.yul\":10371:10372   */\n      dup1\n        /* \"#utility.yul\":10366:10369   */\n      dup3\n        /* \"#utility.yul\":10362:10373   */\n      add\n        /* \"#utility.yul\":10356:10374   */\n      mload\n        /* \"#utility.yul\":10352:10353   */\n      dup2\n        /* \"#utility.yul\":10347:10350   */\n      dup5\n        /* \"#utility.yul\":10343:10354   */\n      add\n        /* \"#utility.yul\":10336:10375   */\n      mstore\n        /* \"#utility.yul\":10308:10310   */\n      0x20\n        /* \"#utility.yul\":10305:10306   */\n      dup2\n        /* \"#utility.yul\":10301:10311   */\n      add\n        /* \"#utility.yul\":10296:10311   */\n      swap1\n      pop\n        /* \"#utility.yul\":10272:10385   */\n      jump(tag_206)\n    tag_208:\n        /* \"#utility.yul\":10403:10409   */\n      dup4\n        /* \"#utility.yul\":10400:10401   */\n      dup2\n        /* \"#utility.yul\":10397:10410   */\n      gt\n        /* \"#utility.yul\":10394:10495   */\n      iszero\n      tag_209\n      jumpi\n        /* \"#utility.yul\":10483:10484   */\n      0x00\n        /* \"#utility.yul\":10474:10480   */\n      dup5\n        /* \"#utility.yul\":10469:10472   */\n      dup5\n        /* \"#utility.yul\":10465:10481   */\n      add\n        /* \"#utility.yul\":10458:10485   */\n      mstore\n        /* \"#utility.yul\":10394:10495   */\n    tag_209:\n        /* \"#utility.yul\":10243:10501   */\n      pop\n        /* \"#utility.yul\":10194:10501   */\n      pop\n      pop\n      pop\n      jump\t// out\n        /* \"#utility.yul\":10507:10827   */\n    tag_31:\n        /* \"#utility.yul\":10551:10557   */\n      0x00\n        /* \"#utility.yul\":10588:10589   */\n      0x02\n        /* \"#utility.yul\":10582:10586   */\n      dup3\n        /* \"#utility.yul\":10578:10590   */\n      div\n        /* \"#utility.yul\":10568:10590   */\n      swap1\n      pop\n        /* \"#utility.yul\":10635:10636   */\n      0x01\n        /* \"#utility.yul\":10629:10633   */\n      dup3\n        /* \"#utility.yul\":10625:10637   */\n      and\n        /* \"#utility.yul\":10656:10674   */\n      dup1\n        /* \"#utility.yul\":10646:10727   */\n      tag_211\n      jumpi\n        /* \"#utility.yul\":10712:10716   */\n      0x7f\n        /* \"#utility.yul\":10704:10710   */\n      dup3\n        /* \"#utility.yul\":10700:10717   */\n      and\n        /* \"#utility.yul\":10690:10717   */\n      swap2\n      pop\n        /* \"#utility.yul\":10646:10727   */\n    tag_211:\n        /* \"#utility.yul\":10774:10776   */\n      0x20\n        /* \"#utility.yul\":10766:10772   */\n      dup3\n        /* \"#utility.yul\":10763:10777   */\n      lt\n        /* \"#utility.yul\":10743:10761   */\n      dup2\n        /* \"#utility.yul\":10740:10778   */\n      eq\n        /* \"#utility.yul\":10737:10821   */\n      iszero\n      tag_212\n      jumpi\n        /* \"#utility.yul\":10793:10811   */\n      tag_213\n      tag_214\n      jump\t// in\n    tag_213:\n        /* \"#utility.yul\":10737:10821   */\n    tag_212:\n        /* \"#utility.yul\":10558:10827   */\n      pop\n        /* \"#utility.yul\":10507:10827   */\n      swap2\n      swap1\n      pop\n      jump\t// out\n        /* \"#utility.yul\":10833:11114   */\n    tag_179:\n        /* \"#utility.yul\":10916:10943   */\n      tag_216\n        /* \"#utility.yul\":10938:10942   */\n      dup3\n        /* \"#utility.yul\":10916:10943   */\n      tag_139\n      jump\t// in\n    tag_216:\n        /* \"#utility.yul\":10908:10914   */\n      dup2\n        /* \"#utility.yul\":10904:10944   */\n      add\n        /* \"#utility.yul\":11046:11052   */\n      dup2\n        /* \"#utility.yul\":11034:11044   */\n      dup2\n        /* \"#utility.yul\":11031:11053   */\n      lt\n        /* \"#utility.yul\":11010:11028   */\n      0xffffffffffffffff\n        /* \"#utility.yul\":10998:11008   */\n      dup3\n        /* \"#utility.yul\":10995:11029   */\n      gt\n        /* \"#utility.yul\":10992:11054   */\n      or\n        /* \"#utility.yul\":10989:11077   */\n      iszero\n      tag_217\n      jumpi\n        /* \"#utility.yul\":11057:11075   */\n      tag_218\n      tag_184\n      jump\t// in\n    tag_218:\n        /* \"#utility.yul\":10989:11077   */\n    tag_217:\n        /* \"#utility.yul\":11097:11107   */\n      dup1\n        /* \"#utility.yul\":11093:11095   */\n      0x40\n        /* \"#utility.yul\":11086:11108   */\n      mstore\n        /* \"#utility.yul\":10876:11114   */\n      pop\n        /* \"#utility.yul\":10833:11114   */\n      pop\n      pop\n      jump\t// out\n        /* \"#utility.yul\":11120:11300   */\n    tag_198:\n        /* \"#utility.yul\":11168:11245   */\n      0x4e487b7100000000000000000000000000000000000000000000000000000000\n        /* \"#utility.yul\":11165:11166   */\n      0x00\n        /* \"#utility.yul\":11158:11246   */\n      mstore\n        /* \"#utility.yul\":11265:11269   */\n      0x11\n        /* \"#utility.yul\":11262:11263   */\n      0x04\n        /* \"#utility.yul\":11255:11270   */\n      mstore\n        /* \"#utility.yul\":11289:11293   */\n      0x24\n        /* \"#utility.yul\":11286:11287   */\n      0x00\n        /* \"#utility.yul\":11279:11294   */\n      revert\n        /* \"#utility.yul\":11306:11486   */\n    tag_214:\n        /* \"#utility.yul\":11354:11431   */\n      0x4e487b7100000000000000000000000000000000000000000000000000000000\n        /* \"#utility.yul\":11351:11352   */\n      0x00\n        /* \"#utility.yul\":11344:11432   */\n      mstore\n        /* \"#utility.yul\":11451:11455   */\n      0x22\n        /* \"#utility.yul\":11448:11449   */\n      0x04\n        /* \"#utility.yul\":11441:11456   */\n      mstore\n        /* \"#utility.yul\":11475:11479   */\n      0x24\n        /* \"#utility.yul\":11472:11473   */\n      0x00\n        /* \"#utility.yul\":11465:11480   */\n      revert\n        /* \"#utility.yul\":11492:11672   */\n    tag_41:\n        /* \"#utility.yul\":11540:11617   */\n      0x4e487b7100000000000000000000000000000000000000000000000000000000\n        /* \"#utility.yul\":11537:11538   */\n      0x00\n        /* \"#utility.yul\":11530:11618   */\n      mstore\n        /* \"#utility.yul\":11637:11641   */\n      0x32\n        /* \"#utility.yul\":11634:11635   */\n      0x04\n        /* \"#utility.yul\":11627:11642   */\n      mstore\n        /* \"#utility.yul\":11661:11665   */\n      0x24\n        /* \"#utility.yul\":11658:11659   */\n      0x00\n        /* \"#utility.yul\":11651:11666   */\n      revert\n        /* \"#utility.yul\":11678:11858   */\n    tag_184:\n        /* \"#utility.yul\":11726:11803   */\n      0x4e487b7100000000000000000000000000000000000000000000000000000000\n        /* \"#utility.yul\":11723:11724   */\n      0x00\n        /* \"#utility.yul\":11716:11804   */\n      mstore\n        /* \"#utility.yul\":11823:11827   */\n      0x41\n        /* \"#utility.yul\":11820:11821   */\n      0x04\n        /* \"#utility.yul\":11813:11828   */\n      mstore\n        /* \"#utility.yul\":11847:11851   */\n      0x24\n        /* \"#utility.yul\":11844:11845   */\n      0x00\n        /* \"#utility.yul\":11837:11852   */\n      revert\n        /* \"#utility.yul\":11864:11981   */\n    tag_89:\n        /* \"#utility.yul\":11973:11974   */\n      0x00\n        /* \"#utility.yul\":11970:11971   */\n      dup1\n        /* \"#utility.yul\":11963:11975   */\n      revert\n        /* \"#utility.yul\":11987:12104   */\n    tag_78:\n        /* \"#utility.yul\":12096:12097   */\n      0x00\n        /* \"#utility.yul\":12093:12094   */\n      dup1\n        /* \"#utility.yul\":12086:12098   */\n      revert\n        /* \"#utility.yul\":12110:12227   */\n    tag_105:\n        /* \"#utility.yul\":12219:12220   */\n      0x00\n        /* \"#utility.yul\":12216:12217   */\n      dup1\n        /* \"#utility.yul\":12209:12221   */\n      revert\n        /* \"#utility.yul\":12233:12350   */\n    tag_98:\n        /* \"#utility.yul\":12342:12343   */\n      0x00\n        /* \"#utility.yul\":12339:12340   */\n      dup1\n        /* \"#utility.yul\":12332:12344   */\n      revert\n        /* \"#utility.yul\":12356:12458   */\n    tag_139:\n        /* \"#utility.yul\":12397:12403   */\n      0x00\n        /* \"#utility.yul\":12448:12450   */\n      0x1f\n        /* \"#utility.yul\":12444:12451   */\n      not\n        /* \"#utility.yul\":12439:12441   */\n      0x1f\n        /* \"#utility.yul\":12432:12437   */\n      dup4\n        /* \"#utility.yul\":12428:12442   */\n      add\n        /* \"#utility.yul\":12424:12452   */\n      and\n        /* \"#utility.yul\":12414:12452   */\n      swap1\n      pop\n        /* \"#utility.yul\":12356:12458   */\n      swap2\n      swap1\n      pop\n      jump\t// out\n        /* \"#utility.yul\":12464:12696   */\n    tag_151:\n        /* \"#utility.yul\":12604:12638   */\n      0x596f75206d7573742073656e642065786163746c79203120657468657220746f\n        /* \"#utility.yul\":12600:12601   */\n      0x00\n        /* \"#utility.yul\":12592:12598   */\n      dup3\n        /* \"#utility.yul\":12588:12602   */\n      add\n        /* \"#utility.yul\":12581:12639   */\n      mstore\n        /* \"#utility.yul\":12673:12688   */\n      0x2061646420616e206576656e7400000000000000000000000000000000000000\n        /* \"#utility.yul\":12668:12670   */\n      0x20\n        /* \"#utility.yul\":12660:12666   */\n      dup3\n        /* \"#utility.yul\":12656:12671   */\n      add\n        /* \"#utility.yul\":12649:12689   */\n      mstore\n        /* \"#utility.yul\":12464:12696   */\n      pop\n      jump\t// out\n        /* \"#utility.yul\":12702:12824   */\n    tag_84:\n        /* \"#utility.yul\":12775:12799   */\n      tag_230\n        /* \"#utility.yul\":12793:12798   */\n      dup2\n        /* \"#utility.yul\":12775:12799   */\n      tag_115\n      jump\t// in\n    tag_230:\n        /* \"#utility.yul\":12768:12773   */\n      dup2\n        /* \"#utility.yul\":12765:12800   */\n      eq\n        /* \"#utility.yul\":12755:12818   */\n      tag_231\n      jumpi\n        /* \"#utility.yul\":12814:12815   */\n      0x00\n        /* \"#utility.yul\":12811:12812   */\n      dup1\n        /* \"#utility.yul\":12804:12816   */\n      revert\n        /* \"#utility.yul\":12755:12818   */\n    tag_231:\n        /* \"#utility.yul\":12702:12824   */\n      pop\n      jump\t// out\n        /* \"#utility.yul\":12830:12952   */\n    tag_94:\n        /* \"#utility.yul\":12903:12927   */\n      tag_233\n        /* \"#utility.yul\":12921:12926   */\n      dup2\n        /* \"#utility.yul\":12903:12927   */\n      tag_162\n      jump\t// in\n    tag_233:\n        /* \"#utility.yul\":12896:12901   */\n      dup2\n        /* \"#utility.yul\":12893:12928   */\n      eq\n        /* \"#utility.yul\":12883:12946   */\n      tag_234\n      jumpi\n        /* \"#utility.yul\":12942:12943   */\n      0x00\n        /* \"#utility.yul\":12939:12940   */\n      dup1\n        /* \"#utility.yul\":12932:12944   */\n      revert\n        /* \"#utility.yul\":12883:12946   */\n    tag_234:\n        /* \"#utility.yul\":12830:12952   */\n      pop\n      jump\t// out\n\n    auxdata: 0xa2646970667358221220ff1e0ea7bdb7d39e4adda3e1437ef02f3236d29c1a1ec0cdd15ed04fd8bce6cb64736f6c63430008070033\n}\n",
				"bytecode": {
					"linkReferences": {},
					"object": "608060405234801561001057600080fd5b50610dc1806100206000396000f3fe6080604052600436106100345760003560e01c8063a64ee20614610039578063d43f036b14610076578063f0e1691a146100b4575b600080fd5b34801561004557600080fd5b50610060600480360381019061005b919061077a565b6100e4565b60405161006d9190610a3a565b60405180910390f35b34801561008257600080fd5b5061009d6004803603810190610098919061077a565b61028d565b6040516100ab9291906109ea565b60405180910390f35b6100ce60048036038101906100c991906107a7565b61048f565b6040516100db91906109c8565b60405180910390f35b6100ec61062a565b6000808373ffffffffffffffffffffffffffffffffffffffff1673ffffffffffffffffffffffffffffffffffffffff16815260200190815260200160002060405180602001604052908160008201805480602002602001604051908101604052809291908181526020016000905b8282101561027e578382906000526020600020906003020160405180606001604052908160008201805461018d90610bca565b80601f01602080910402602001604051908101604052809291908181526020018280546101b990610bca565b80156102065780601f106101db57610100808354040283529160200191610206565b820191906000526020600020905b8154815290600101906020018083116101e957829003601f168201915b505050505081526020016001820160009054906101000a900473ffffffffffffffffffffffffffffffffffffffff1673ffffffffffffffffffffffffffffffffffffffff1673ffffffffffffffffffffffffffffffffffffffff1681526020016002820154815250508152602001906001019061015a565b50505050815250509050919050565b606060008060008473ffffffffffffffffffffffffffffffffffffffff1673ffffffffffffffffffffffffffffffffffffffff16815260200190815260200160002060000160016000808673ffffffffffffffffffffffffffffffffffffffff1673ffffffffffffffffffffffffffffffffffffffff168152602001908152602001600020600001805490506103239190610b18565b8154811061033457610333610c8b565b5b90600052602060002090600302016000016000808573ffffffffffffffffffffffffffffffffffffffff1673ffffffffffffffffffffffffffffffffffffffff16815260200190815260200160002060000160016000808773ffffffffffffffffffffffffffffffffffffffff1673ffffffffffffffffffffffffffffffffffffffff168152602001908152602001600020600001805490506103d79190610b18565b815481106103e8576103e7610c8b565b5b90600052602060002090600302016002015481805461040690610bca565b80601f016020809104026020016040519081016040528092919081815260200182805461043290610bca565b801561047f5780601f106104545761010080835404028352916020019161047f565b820191906000526020600020905b81548152906001019060200180831161046257829003601f168201915b5050505050915091509150915091565b6060670de0b6b3a764000034146104db576040517f08c379a00000000000000000000000000000000000000000000000000000000081526004016104d290610a1a565b60405180910390fd5b600060405180606001604052808581526020013373ffffffffffffffffffffffffffffffffffffffff1681526020018481525090506000803373ffffffffffffffffffffffffffffffffffffffff1673ffffffffffffffffffffffffffffffffffffffff168152602001908152602001600020600001819080600181540180825580915050600190039060005260206000209060030201600090919091909150600082015181600001908051906020019061059792919061063d565b5060208201518160010160006101000a81548173ffffffffffffffffffffffffffffffffffffffff021916908373ffffffffffffffffffffffffffffffffffffffff1602179055506040820151816002015550506040518060400160405280601081526020017f4576656e7420526567697374657265640000000000000000000000000000000081525091505092915050565b6040518060200160405280606081525090565b82805461064990610bca565b90600052602060002090601f01602090048101928261066b57600085556106b2565b82601f1061068457805160ff19168380011785556106b2565b828001600101855582156106b2579182015b828111156106b1578251825591602001919060010190610696565b5b5090506106bf91906106c3565b5090565b5b808211156106dc5760008160009055506001016106c4565b5090565b60006106f36106ee84610a81565b610a5c565b90508281526020810184848401111561070f5761070e610cee565b5b61071a848285610b88565b509392505050565b60008135905061073181610d5d565b92915050565b600082601f83011261074c5761074b610ce9565b5b813561075c8482602086016106e0565b91505092915050565b60008135905061077481610d74565b92915050565b6000602082840312156107905761078f610cf8565b5b600061079e84828501610722565b91505092915050565b600080604083850312156107be576107bd610cf8565b5b600083013567ffffffffffffffff8111156107dc576107db610cf3565b5b6107e885828601610737565b92505060206107f985828601610765565b9150509250929050565b600061080f8383610930565b905092915050565b61082081610b4c565b82525050565b600061083182610ac2565b61083b8185610ae5565b93508360208202850161084d85610ab2565b8060005b85811015610889578484038952815161086a8582610803565b945061087583610ad8565b925060208a01995050600181019050610851565b50829750879550505050505092915050565b60006108a682610acd565b6108b08185610af6565b93506108c0818560208601610b97565b6108c981610cfd565b840191505092915050565b60006108df82610acd565b6108e98185610b07565b93506108f9818560208601610b97565b61090281610cfd565b840191505092915050565b600061091a602d83610b07565b915061092582610d0e565b604082019050919050565b6000606083016000830151848203600086015261094d828261089b565b91505060208301516109626020860182610817565b50604083015161097560408601826109aa565b508091505092915050565b6000602083016000830151848203600086015261099d8282610826565b9150508091505092915050565b6109b381610b7e565b82525050565b6109c281610b7e565b82525050565b600060208201905081810360008301526109e281846108d4565b905092915050565b60006040820190508181036000830152610a0481856108d4565b9050610a1360208301846109b9565b9392505050565b60006020820190508181036000830152610a338161090d565b9050919050565b60006020820190508181036000830152610a548184610980565b905092915050565b6000610a66610a77565b9050610a728282610bfc565b919050565b6000604051905090565b600067ffffffffffffffff821115610a9c57610a9b610cba565b5b610aa582610cfd565b9050602081019050919050565b6000819050602082019050919050565b600081519050919050565b600081519050919050565b6000602082019050919050565b600082825260208201905092915050565b600082825260208201905092915050565b600082825260208201905092915050565b6000610b2382610b7e565b9150610b2e83610b7e565b925082821015610b4157610b40610c2d565b5b828203905092915050565b6000610b5782610b5e565b9050919050565b600073ffffffffffffffffffffffffffffffffffffffff82169050919050565b6000819050919050565b82818337600083830152505050565b60005b83811015610bb5578082015181840152602081019050610b9a565b83811115610bc4576000848401525b50505050565b60006002820490506001821680610be257607f821691505b60208210811415610bf657610bf5610c5c565b5b50919050565b610c0582610cfd565b810181811067ffffffffffffffff82111715610c2457610c23610cba565b5b80604052505050565b7f4e487b7100000000000000000000000000000000000000000000000000000000600052601160045260246000fd5b7f4e487b7100000000000000000000000000000000000000000000000000000000600052602260045260246000fd5b7f4e487b7100000000000000000000000000000000000000000000000000000000600052603260045260246000fd5b7f4e487b7100000000000000000000000000000000000000000000000000000000600052604160045260246000fd5b600080fd5b600080fd5b600080fd5b600080fd5b6000601f19601f8301169050919050565b7f596f75206d7573742073656e642065786163746c79203120657468657220746f60008201527f2061646420616e206576656e7400000000000000000000000000000000000000602082015250565b610d6681610b4c565b8114610d7157600080fd5b50565b610d7d81610b7e565b8114610d8857600080fd5b5056fea2646970667358221220ff1e0ea7bdb7d39e4adda3e1437ef02f3236d29c1a1ec0cdd15ed04fd8bce6cb64736f6c63430008070033",
					"opcodes": "PUSH1 0x80 PUSH1 0x40 MSTORE CALLVALUE DUP1 ISZERO PUSH2 0x10 JUMPI PUSH1 0x0 DUP1 REVERT JUMPDEST POP PUSH2 0xDC1 DUP1 PUSH2 0x20 PUSH1 0x0 CODECOPY PUSH1 0x0 RETURN INVALID PUSH1 0x80 PUSH1 0x40 MSTORE PUSH1 0x4 CALLDATASIZE LT PUSH2 0x34 JUMPI PUSH1 0x0 CALLDATALOAD PUSH1 0xE0 SHR DUP1 PUSH4 0xA64EE206 EQ PUSH2 0x39 JUMPI DUP1 PUSH4 0xD43F036B EQ PUSH2 0x76 JUMPI DUP1 PUSH4 0xF0E1691A EQ PUSH2 0xB4 JUMPI JUMPDEST PUSH1 0x0 DUP1 REVERT JUMPDEST CALLVALUE DUP1 ISZERO PUSH2 0x45 JUMPI PUSH1 0x0 DUP1 REVERT JUMPDEST POP PUSH2 0x60 PUSH1 0x4 DUP1 CALLDATASIZE SUB DUP2 ADD SWAP1 PUSH2 0x5B SWAP2 SWAP1 PUSH2 0x77A JUMP JUMPDEST PUSH2 0xE4 JUMP JUMPDEST PUSH1 0x40 MLOAD PUSH2 0x6D SWAP2 SWAP1 PUSH2 0xA3A JUMP JUMPDEST PUSH1 0x40 MLOAD DUP1 SWAP2 SUB SWAP1 RETURN JUMPDEST CALLVALUE DUP1 ISZERO PUSH2 0x82 JUMPI PUSH1 0x0 DUP1 REVERT JUMPDEST POP PUSH2 0x9D PUSH1 0x4 DUP1 CALLDATASIZE SUB DUP2 ADD SWAP1 PUSH2 0x98 SWAP2 SWAP1 PUSH2 0x77A JUMP JUMPDEST PUSH2 0x28D JUMP JUMPDEST PUSH1 0x40 MLOAD PUSH2 0xAB SWAP3 SWAP2 SWAP1 PUSH2 0x9EA JUMP JUMPDEST PUSH1 0x40 MLOAD DUP1 SWAP2 SUB SWAP1 RETURN JUMPDEST PUSH2 0xCE PUSH1 0x4 DUP1 CALLDATASIZE SUB DUP2 ADD SWAP1 PUSH2 0xC9 SWAP2 SWAP1 PUSH2 0x7A7 JUMP JUMPDEST PUSH2 0x48F JUMP JUMPDEST PUSH1 0x40 MLOAD PUSH2 0xDB SWAP2 SWAP1 PUSH2 0x9C8 JUMP JUMPDEST PUSH1 0x40 MLOAD DUP1 SWAP2 SUB SWAP1 RETURN JUMPDEST PUSH2 0xEC PUSH2 0x62A JUMP JUMPDEST PUSH1 0x0 DUP1 DUP4 PUSH20 0xFFFFFFFFFFFFFFFFFFFFFFFFFFFFFFFFFFFFFFFF AND PUSH20 0xFFFFFFFFFFFFFFFFFFFFFFFFFFFFFFFFFFFFFFFF AND DUP2 MSTORE PUSH1 0x20 ADD SWAP1 DUP2 MSTORE PUSH1 0x20 ADD PUSH1 0x0 KECCAK256 PUSH1 0x40 MLOAD DUP1 PUSH1 0x20 ADD PUSH1 0x40 MSTORE SWAP1 DUP2 PUSH1 0x0 DUP3 ADD DUP1 SLOAD DUP1 PUSH1 0x20 MUL PUSH1 0x20 ADD PUSH1 0x40 MLOAD SWAP1 DUP2 ADD PUSH1 0x40 MSTORE DUP1 SWAP3 SWAP2 SWAP1 DUP2 DUP2 MSTORE PUSH1 0x20 ADD PUSH1 0x0 SWAP1 JUMPDEST DUP3 DUP3 LT ISZERO PUSH2 0x27E JUMPI DUP4 DUP3 SWAP1 PUSH1 0x0 MSTORE PUSH1 0x20 PUSH1 0x0 KECCAK256 SWAP1 PUSH1 0x3 MUL ADD PUSH1 0x40 MLOAD DUP1 PUSH1 0x60 ADD PUSH1 0x40 MSTORE SWAP1 DUP2 PUSH1 0x0 DUP3 ADD DUP1 SLOAD PUSH2 0x18D SWAP1 PUSH2 0xBCA JUMP JUMPDEST DUP1 PUSH1 0x1F ADD PUSH1 0x20 DUP1 SWAP2 DIV MUL PUSH1 0x20 ADD PUSH1 0x40 MLOAD SWAP1 DUP2 ADD PUSH1 0x40 MSTORE DUP1 SWAP3 SWAP2 SWAP1 DUP2 DUP2 MSTORE PUSH1 0x20 ADD DUP3 DUP1 SLOAD PUSH2 0x1B9 SWAP1 PUSH2 0xBCA JUMP JUMPDEST DUP1 ISZERO PUSH2 0x206 JUMPI DUP1 PUSH1 0x1F LT PUSH2 0x1DB JUMPI PUSH2 0x100 DUP1 DUP4 SLOAD DIV MUL DUP4 MSTORE SWAP2 PUSH1 0x20 ADD SWAP2 PUSH2 0x206 JUMP JUMPDEST DUP3 ADD SWAP2 SWAP1 PUSH1 0x0 MSTORE PUSH1 0x20 PUSH1 0x0 KECCAK256 SWAP1 JUMPDEST DUP2 SLOAD DUP2 MSTORE SWAP1 PUSH1 0x1 ADD SWAP1 PUSH1 0x20 ADD DUP1 DUP4 GT PUSH2 0x1E9 JUMPI DUP3 SWAP1 SUB PUSH1 0x1F AND DUP3 ADD SWAP2 JUMPDEST POP POP POP POP POP DUP2 MSTORE PUSH1 0x20 ADD PUSH1 0x1 DUP3 ADD PUSH1 0x0 SWAP1 SLOAD SWAP1 PUSH2 0x100 EXP SWAP1 DIV PUSH20 0xFFFFFFFFFFFFFFFFFFFFFFFFFFFFFFFFFFFFFFFF AND PUSH20 0xFFFFFFFFFFFFFFFFFFFFFFFFFFFFFFFFFFFFFFFF AND PUSH20 0xFFFFFFFFFFFFFFFFFFFFFFFFFFFFFFFFFFFFFFFF AND DUP2 MSTORE PUSH1 0x20 ADD PUSH1 0x2 DUP3 ADD SLOAD DUP2 MSTORE POP POP DUP2 MSTORE PUSH1 0x20 ADD SWAP1 PUSH1 0x1 ADD SWAP1 PUSH2 0x15A JUMP JUMPDEST POP POP POP POP DUP2 MSTORE POP POP SWAP1 POP SWAP2 SWAP1 POP JUMP JUMPDEST PUSH1 0x60 PUSH1 0x0 DUP1 PUSH1 0x0 DUP5 PUSH20 0xFFFFFFFFFFFFFFFFFFFFFFFFFFFFFFFFFFFFFFFF AND PUSH20 0xFFFFFFFFFFFFFFFFFFFFFFFFFFFFFFFFFFFFFFFF AND DUP2 MSTORE PUSH1 0x20 ADD SWAP1 DUP2 MSTORE PUSH1 0x20 ADD PUSH1 0x0 KECCAK256 PUSH1 0x0 ADD PUSH1 0x1 PUSH1 0x0 DUP1 DUP7 PUSH20 0xFFFFFFFFFFFFFFFFFFFFFFFFFFFFFFFFFFFFFFFF AND PUSH20 0xFFFFFFFFFFFFFFFFFFFFFFFFFFFFFFFFFFFFFFFF AND DUP2 MSTORE PUSH1 0x20 ADD SWAP1 DUP2 MSTORE PUSH1 0x20 ADD PUSH1 0x0 KECCAK256 PUSH1 0x0 ADD DUP1 SLOAD SWAP1 POP PUSH2 0x323 SWAP2 SWAP1 PUSH2 0xB18 JUMP JUMPDEST DUP2 SLOAD DUP2 LT PUSH2 0x334 JUMPI PUSH2 0x333 PUSH2 0xC8B JUMP JUMPDEST JUMPDEST SWAP1 PUSH1 0x0 MSTORE PUSH1 0x20 PUSH1 0x0 KECCAK256 SWAP1 PUSH1 0x3 MUL ADD PUSH1 0x0 ADD PUSH1 0x0 DUP1 DUP6 PUSH20 0xFFFFFFFFFFFFFFFFFFFFFFFFFFFFFFFFFFFFFFFF AND PUSH20 0xFFFFFFFFFFFFFFFFFFFFFFFFFFFFFFFFFFFFFFFF AND DUP2 MSTORE PUSH1 0x20 ADD SWAP1 DUP2 MSTORE PUSH1 0x20 ADD PUSH1 0x0 KECCAK256 PUSH1 0x0 ADD PUSH1 0x1 PUSH1 0x0 DUP1 DUP8 PUSH20 0xFFFFFFFFFFFFFFFFFFFFFFFFFFFFFFFFFFFFFFFF AND PUSH20 0xFFFFFFFFFFFFFFFFFFFFFFFFFFFFFFFFFFFFFFFF AND DUP2 MSTORE PUSH1 0x20 ADD SWAP1 DUP2 MSTORE PUSH1 0x20 ADD PUSH1 0x0 KECCAK256 PUSH1 0x0 ADD DUP1 SLOAD SWAP1 POP PUSH2 0x3D7 SWAP2 SWAP1 PUSH2 0xB18 JUMP JUMPDEST DUP2 SLOAD DUP2 LT PUSH2 0x3E8 JUMPI PUSH2 0x3E7 PUSH2 0xC8B JUMP JUMPDEST JUMPDEST SWAP1 PUSH1 0x0 MSTORE PUSH1 0x20 PUSH1 0x0 KECCAK256 SWAP1 PUSH1 0x3 MUL ADD PUSH1 0x2 ADD SLOAD DUP2 DUP1 SLOAD PUSH2 0x406 SWAP1 PUSH2 0xBCA JUMP JUMPDEST DUP1 PUSH1 0x1F ADD PUSH1 0x20 DUP1 SWAP2 DIV MUL PUSH1 0x20 ADD PUSH1 0x40 MLOAD SWAP1 DUP2 ADD PUSH1 0x40 MSTORE DUP1 SWAP3 SWAP2 SWAP1 DUP2 DUP2 MSTORE PUSH1 0x20 ADD DUP3 DUP1 SLOAD PUSH2 0x432 SWAP1 PUSH2 0xBCA JUMP JUMPDEST DUP1 ISZERO PUSH2 0x47F JUMPI DUP1 PUSH1 0x1F LT PUSH2 0x454 JUMPI PUSH2 0x100 DUP1 DUP4 SLOAD DIV MUL DUP4 MSTORE SWAP2 PUSH1 0x20 ADD SWAP2 PUSH2 0x47F JUMP JUMPDEST DUP3 ADD SWAP2 SWAP1 PUSH1 0x0 MSTORE PUSH1 0x20 PUSH1 0x0 KECCAK256 SWAP1 JUMPDEST DUP2 SLOAD DUP2 MSTORE SWAP1 PUSH1 0x1 ADD SWAP1 PUSH1 0x20 ADD DUP1 DUP4 GT PUSH2 0x462 JUMPI DUP3 SWAP1 SUB PUSH1 0x1F AND DUP3 ADD SWAP2 JUMPDEST POP POP POP POP POP SWAP2 POP SWAP2 POP SWAP2 POP SWAP2 POP SWAP2 JUMP JUMPDEST PUSH1 0x60 PUSH8 0xDE0B6B3A7640000 CALLVALUE EQ PUSH2 0x4DB JUMPI PUSH1 0x40 MLOAD PUSH32 0x8C379A000000000000000000000000000000000000000000000000000000000 DUP2 MSTORE PUSH1 0x4 ADD PUSH2 0x4D2 SWAP1 PUSH2 0xA1A JUMP JUMPDEST PUSH1 0x40 MLOAD DUP1 SWAP2 SUB SWAP1 REVERT JUMPDEST PUSH1 0x0 PUSH1 0x40 MLOAD DUP1 PUSH1 0x60 ADD PUSH1 0x40 MSTORE DUP1 DUP6 DUP2 MSTORE PUSH1 0x20 ADD CALLER PUSH20 0xFFFFFFFFFFFFFFFFFFFFFFFFFFFFFFFFFFFFFFFF AND DUP2 MSTORE PUSH1 0x20 ADD DUP5 DUP2 MSTORE POP SWAP1 POP PUSH1 0x0 DUP1 CALLER PUSH20 0xFFFFFFFFFFFFFFFFFFFFFFFFFFFFFFFFFFFFFFFF AND PUSH20 0xFFFFFFFFFFFFFFFFFFFFFFFFFFFFFFFFFFFFFFFF AND DUP2 MSTORE PUSH1 0x20 ADD SWAP1 DUP2 MSTORE PUSH1 0x20 ADD PUSH1 0x0 KECCAK256 PUSH1 0x0 ADD DUP2 SWAP1 DUP1 PUSH1 0x1 DUP2 SLOAD ADD DUP1 DUP3 SSTORE DUP1 SWAP2 POP POP PUSH1 0x1 SWAP1 SUB SWAP1 PUSH1 0x0 MSTORE PUSH1 0x20 PUSH1 0x0 KECCAK256 SWAP1 PUSH1 0x3 MUL ADD PUSH1 0x0 SWAP1 SWAP2 SWAP1 SWAP2 SWAP1 SWAP2 POP PUSH1 0x0 DUP3 ADD MLOAD DUP2 PUSH1 0x0 ADD SWAP1 DUP1 MLOAD SWAP1 PUSH1 0x20 ADD SWAP1 PUSH2 0x597 SWAP3 SWAP2 SWAP1 PUSH2 0x63D JUMP JUMPDEST POP PUSH1 0x20 DUP3 ADD MLOAD DUP2 PUSH1 0x1 ADD PUSH1 0x0 PUSH2 0x100 EXP DUP2 SLOAD DUP2 PUSH20 0xFFFFFFFFFFFFFFFFFFFFFFFFFFFFFFFFFFFFFFFF MUL NOT AND SWAP1 DUP4 PUSH20 0xFFFFFFFFFFFFFFFFFFFFFFFFFFFFFFFFFFFFFFFF AND MUL OR SWAP1 SSTORE POP PUSH1 0x40 DUP3 ADD MLOAD DUP2 PUSH1 0x2 ADD SSTORE POP POP PUSH1 0x40 MLOAD DUP1 PUSH1 0x40 ADD PUSH1 0x40 MSTORE DUP1 PUSH1 0x10 DUP2 MSTORE PUSH1 0x20 ADD PUSH32 0x4576656E74205265676973746572656400000000000000000000000000000000 DUP2 MSTORE POP SWAP2 POP POP SWAP3 SWAP2 POP POP JUMP JUMPDEST PUSH1 0x40 MLOAD DUP1 PUSH1 0x20 ADD PUSH1 0x40 MSTORE DUP1 PUSH1 0x60 DUP2 MSTORE POP SWAP1 JUMP JUMPDEST DUP3 DUP1 SLOAD PUSH2 0x649 SWAP1 PUSH2 0xBCA JUMP JUMPDEST SWAP1 PUSH1 0x0 MSTORE PUSH1 0x20 PUSH1 0x0 KECCAK256 SWAP1 PUSH1 0x1F ADD PUSH1 0x20 SWAP1 DIV DUP2 ADD SWAP3 DUP3 PUSH2 0x66B JUMPI PUSH1 0x0 DUP6 SSTORE PUSH2 0x6B2 JUMP JUMPDEST DUP3 PUSH1 0x1F LT PUSH2 0x684 JUMPI DUP1 MLOAD PUSH1 0xFF NOT AND DUP4 DUP1 ADD OR DUP6 SSTORE PUSH2 0x6B2 JUMP JUMPDEST DUP3 DUP1 ADD PUSH1 0x1 ADD DUP6 SSTORE DUP3 ISZERO PUSH2 0x6B2 JUMPI SWAP2 DUP3 ADD JUMPDEST DUP3 DUP2 GT ISZERO PUSH2 0x6B1 JUMPI DUP3 MLOAD DUP3 SSTORE SWAP2 PUSH1 0x20 ADD SWAP2 SWAP1 PUSH1 0x1 ADD SWAP1 PUSH2 0x696 JUMP JUMPDEST JUMPDEST POP SWAP1 POP PUSH2 0x6BF SWAP2 SWAP1 PUSH2 0x6C3 JUMP JUMPDEST POP SWAP1 JUMP JUMPDEST JUMPDEST DUP1 DUP3 GT ISZERO PUSH2 0x6DC JUMPI PUSH1 0x0 DUP2 PUSH1 0x0 SWAP1 SSTORE POP PUSH1 0x1 ADD PUSH2 0x6C4 JUMP JUMPDEST POP SWAP1 JUMP JUMPDEST PUSH1 0x0 PUSH2 0x6F3 PUSH2 0x6EE DUP5 PUSH2 0xA81 JUMP JUMPDEST PUSH2 0xA5C JUMP JUMPDEST SWAP1 POP DUP3 DUP2 MSTORE PUSH1 0x20 DUP2 ADD DUP5 DUP5 DUP5 ADD GT ISZERO PUSH2 0x70F JUMPI PUSH2 0x70E PUSH2 0xCEE JUMP JUMPDEST JUMPDEST PUSH2 0x71A DUP5 DUP3 DUP6 PUSH2 0xB88 JUMP JUMPDEST POP SWAP4 SWAP3 POP POP POP JUMP JUMPDEST PUSH1 0x0 DUP2 CALLDATALOAD SWAP1 POP PUSH2 0x731 DUP2 PUSH2 0xD5D JUMP JUMPDEST SWAP3 SWAP2 POP POP JUMP JUMPDEST PUSH1 0x0 DUP3 PUSH1 0x1F DUP4 ADD SLT PUSH2 0x74C JUMPI PUSH2 0x74B PUSH2 0xCE9 JUMP JUMPDEST JUMPDEST DUP2 CALLDATALOAD PUSH2 0x75C DUP5 DUP3 PUSH1 0x20 DUP7 ADD PUSH2 0x6E0 JUMP JUMPDEST SWAP2 POP POP SWAP3 SWAP2 POP POP JUMP JUMPDEST PUSH1 0x0 DUP2 CALLDATALOAD SWAP1 POP PUSH2 0x774 DUP2 PUSH2 0xD74 JUMP JUMPDEST SWAP3 SWAP2 POP POP JUMP JUMPDEST PUSH1 0x0 PUSH1 0x20 DUP3 DUP5 SUB SLT ISZERO PUSH2 0x790 JUMPI PUSH2 0x78F PUSH2 0xCF8 JUMP JUMPDEST JUMPDEST PUSH1 0x0 PUSH2 0x79E DUP5 DUP3 DUP6 ADD PUSH2 0x722 JUMP JUMPDEST SWAP2 POP POP SWAP3 SWAP2 POP POP JUMP JUMPDEST PUSH1 0x0 DUP1 PUSH1 0x40 DUP4 DUP6 SUB SLT ISZERO PUSH2 0x7BE JUMPI PUSH2 0x7BD PUSH2 0xCF8 JUMP JUMPDEST JUMPDEST PUSH1 0x0 DUP4 ADD CALLDATALOAD PUSH8 0xFFFFFFFFFFFFFFFF DUP2 GT ISZERO PUSH2 0x7DC JUMPI PUSH2 0x7DB PUSH2 0xCF3 JUMP JUMPDEST JUMPDEST PUSH2 0x7E8 DUP6 DUP3 DUP7 ADD PUSH2 0x737 JUMP JUMPDEST SWAP3 POP POP PUSH1 0x20 PUSH2 0x7F9 DUP6 DUP3 DUP7 ADD PUSH2 0x765 JUMP JUMPDEST SWAP2 POP POP SWAP3 POP SWAP3 SWAP1 POP JUMP JUMPDEST PUSH1 0x0 PUSH2 0x80F DUP4 DUP4 PUSH2 0x930 JUMP JUMPDEST SWAP1 POP SWAP3 SWAP2 POP POP JUMP JUMPDEST PUSH2 0x820 DUP2 PUSH2 0xB4C JUMP JUMPDEST DUP3 MSTORE POP POP JUMP JUMPDEST PUSH1 0x0 PUSH2 0x831 DUP3 PUSH2 0xAC2 JUMP JUMPDEST PUSH2 0x83B DUP2 DUP6 PUSH2 0xAE5 JUMP JUMPDEST SWAP4 POP DUP4 PUSH1 0x20 DUP3 MUL DUP6 ADD PUSH2 0x84D DUP6 PUSH2 0xAB2 JUMP JUMPDEST DUP1 PUSH1 0x0 JUMPDEST DUP6 DUP2 LT ISZERO PUSH2 0x889 JUMPI DUP5 DUP5 SUB DUP10 MSTORE DUP2 MLOAD PUSH2 0x86A DUP6 DUP3 PUSH2 0x803 JUMP JUMPDEST SWAP5 POP PUSH2 0x875 DUP4 PUSH2 0xAD8 JUMP JUMPDEST SWAP3 POP PUSH1 0x20 DUP11 ADD SWAP10 POP POP PUSH1 0x1 DUP2 ADD SWAP1 POP PUSH2 0x851 JUMP JUMPDEST POP DUP3 SWAP8 POP DUP8 SWAP6 POP POP POP POP POP POP SWAP3 SWAP2 POP POP JUMP JUMPDEST PUSH1 0x0 PUSH2 0x8A6 DUP3 PUSH2 0xACD JUMP JUMPDEST PUSH2 0x8B0 DUP2 DUP6 PUSH2 0xAF6 JUMP JUMPDEST SWAP4 POP PUSH2 0x8C0 DUP2 DUP6 PUSH1 0x20 DUP7 ADD PUSH2 0xB97 JUMP JUMPDEST PUSH2 0x8C9 DUP2 PUSH2 0xCFD JUMP JUMPDEST DUP5 ADD SWAP2 POP POP SWAP3 SWAP2 POP POP JUMP JUMPDEST PUSH1 0x0 PUSH2 0x8DF DUP3 PUSH2 0xACD JUMP JUMPDEST PUSH2 0x8E9 DUP2 DUP6 PUSH2 0xB07 JUMP JUMPDEST SWAP4 POP PUSH2 0x8F9 DUP2 DUP6 PUSH1 0x20 DUP7 ADD PUSH2 0xB97 JUMP JUMPDEST PUSH2 0x902 DUP2 PUSH2 0xCFD JUMP JUMPDEST DUP5 ADD SWAP2 POP POP SWAP3 SWAP2 POP POP JUMP JUMPDEST PUSH1 0x0 PUSH2 0x91A PUSH1 0x2D DUP4 PUSH2 0xB07 JUMP JUMPDEST SWAP2 POP PUSH2 0x925 DUP3 PUSH2 0xD0E JUMP JUMPDEST PUSH1 0x40 DUP3 ADD SWAP1 POP SWAP2 SWAP1 POP JUMP JUMPDEST PUSH1 0x0 PUSH1 0x60 DUP4 ADD PUSH1 0x0 DUP4 ADD MLOAD DUP5 DUP3 SUB PUSH1 0x0 DUP7 ADD MSTORE PUSH2 0x94D DUP3 DUP3 PUSH2 0x89B JUMP JUMPDEST SWAP2 POP POP PUSH1 0x20 DUP4 ADD MLOAD PUSH2 0x962 PUSH1 0x20 DUP7 ADD DUP3 PUSH2 0x817 JUMP JUMPDEST POP PUSH1 0x40 DUP4 ADD MLOAD PUSH2 0x975 PUSH1 0x40 DUP7 ADD DUP3 PUSH2 0x9AA JUMP JUMPDEST POP DUP1 SWAP2 POP POP SWAP3 SWAP2 POP POP JUMP JUMPDEST PUSH1 0x0 PUSH1 0x20 DUP4 ADD PUSH1 0x0 DUP4 ADD MLOAD DUP5 DUP3 SUB PUSH1 0x0 DUP7 ADD MSTORE PUSH2 0x99D DUP3 DUP3 PUSH2 0x826 JUMP JUMPDEST SWAP2 POP POP DUP1 SWAP2 POP POP SWAP3 SWAP2 POP POP JUMP JUMPDEST PUSH2 0x9B3 DUP2 PUSH2 0xB7E JUMP JUMPDEST DUP3 MSTORE POP POP JUMP JUMPDEST PUSH2 0x9C2 DUP2 PUSH2 0xB7E JUMP JUMPDEST DUP3 MSTORE POP POP JUMP JUMPDEST PUSH1 0x0 PUSH1 0x20 DUP3 ADD SWAP1 POP DUP2 DUP2 SUB PUSH1 0x0 DUP4 ADD MSTORE PUSH2 0x9E2 DUP2 DUP5 PUSH2 0x8D4 JUMP JUMPDEST SWAP1 POP SWAP3 SWAP2 POP POP JUMP JUMPDEST PUSH1 0x0 PUSH1 0x40 DUP3 ADD SWAP1 POP DUP2 DUP2 SUB PUSH1 0x0 DUP4 ADD MSTORE PUSH2 0xA04 DUP2 DUP6 PUSH2 0x8D4 JUMP JUMPDEST SWAP1 POP PUSH2 0xA13 PUSH1 0x20 DUP4 ADD DUP5 PUSH2 0x9B9 JUMP JUMPDEST SWAP4 SWAP3 POP POP POP JUMP JUMPDEST PUSH1 0x0 PUSH1 0x20 DUP3 ADD SWAP1 POP DUP2 DUP2 SUB PUSH1 0x0 DUP4 ADD MSTORE PUSH2 0xA33 DUP2 PUSH2 0x90D JUMP JUMPDEST SWAP1 POP SWAP2 SWAP1 POP JUMP JUMPDEST PUSH1 0x0 PUSH1 0x20 DUP3 ADD SWAP1 POP DUP2 DUP2 SUB PUSH1 0x0 DUP4 ADD MSTORE PUSH2 0xA54 DUP2 DUP5 PUSH2 0x980 JUMP JUMPDEST SWAP1 POP SWAP3 SWAP2 POP POP JUMP JUMPDEST PUSH1 0x0 PUSH2 0xA66 PUSH2 0xA77 JUMP JUMPDEST SWAP1 POP PUSH2 0xA72 DUP3 DUP3 PUSH2 0xBFC JUMP JUMPDEST SWAP2 SWAP1 POP JUMP JUMPDEST PUSH1 0x0 PUSH1 0x40 MLOAD SWAP1 POP SWAP1 JUMP JUMPDEST PUSH1 0x0 PUSH8 0xFFFFFFFFFFFFFFFF DUP3 GT ISZERO PUSH2 0xA9C JUMPI PUSH2 0xA9B PUSH2 0xCBA JUMP JUMPDEST JUMPDEST PUSH2 0xAA5 DUP3 PUSH2 0xCFD JUMP JUMPDEST SWAP1 POP PUSH1 0x20 DUP2 ADD SWAP1 POP SWAP2 SWAP1 POP JUMP JUMPDEST PUSH1 0x0 DUP2 SWAP1 POP PUSH1 0x20 DUP3 ADD SWAP1 POP SWAP2 SWAP1 POP JUMP JUMPDEST PUSH1 0x0 DUP2 MLOAD SWAP1 POP SWAP2 SWAP1 POP JUMP JUMPDEST PUSH1 0x0 DUP2 MLOAD SWAP1 POP SWAP2 SWAP1 POP JUMP JUMPDEST PUSH1 0x0 PUSH1 0x20 DUP3 ADD SWAP1 POP SWAP2 SWAP1 POP JUMP JUMPDEST PUSH1 0x0 DUP3 DUP3 MSTORE PUSH1 0x20 DUP3 ADD SWAP1 POP SWAP3 SWAP2 POP POP JUMP JUMPDEST PUSH1 0x0 DUP3 DUP3 MSTORE PUSH1 0x20 DUP3 ADD SWAP1 POP SWAP3 SWAP2 POP POP JUMP JUMPDEST PUSH1 0x0 DUP3 DUP3 MSTORE PUSH1 0x20 DUP3 ADD SWAP1 POP SWAP3 SWAP2 POP POP JUMP JUMPDEST PUSH1 0x0 PUSH2 0xB23 DUP3 PUSH2 0xB7E JUMP JUMPDEST SWAP2 POP PUSH2 0xB2E DUP4 PUSH2 0xB7E JUMP JUMPDEST SWAP3 POP DUP3 DUP3 LT ISZERO PUSH2 0xB41 JUMPI PUSH2 0xB40 PUSH2 0xC2D JUMP JUMPDEST JUMPDEST DUP3 DUP3 SUB SWAP1 POP SWAP3 SWAP2 POP POP JUMP JUMPDEST PUSH1 0x0 PUSH2 0xB57 DUP3 PUSH2 0xB5E JUMP JUMPDEST SWAP1 POP SWAP2 SWAP1 POP JUMP JUMPDEST PUSH1 0x0 PUSH20 0xFFFFFFFFFFFFFFFFFFFFFFFFFFFFFFFFFFFFFFFF DUP3 AND SWAP1 POP SWAP2 SWAP1 POP JUMP JUMPDEST PUSH1 0x0 DUP2 SWAP1 POP SWAP2 SWAP1 POP JUMP JUMPDEST DUP3 DUP2 DUP4 CALLDATACOPY PUSH1 0x0 DUP4 DUP4 ADD MSTORE POP POP POP JUMP JUMPDEST PUSH1 0x0 JUMPDEST DUP4 DUP2 LT ISZERO PUSH2 0xBB5 JUMPI DUP1 DUP3 ADD MLOAD DUP2 DUP5 ADD MSTORE PUSH1 0x20 DUP2 ADD SWAP1 POP PUSH2 0xB9A JUMP JUMPDEST DUP4 DUP2 GT ISZERO PUSH2 0xBC4 JUMPI PUSH1 0x0 DUP5 DUP5 ADD MSTORE JUMPDEST POP POP POP POP JUMP JUMPDEST PUSH1 0x0 PUSH1 0x2 DUP3 DIV SWAP1 POP PUSH1 0x1 DUP3 AND DUP1 PUSH2 0xBE2 JUMPI PUSH1 0x7F DUP3 AND SWAP2 POP JUMPDEST PUSH1 0x20 DUP3 LT DUP2 EQ ISZERO PUSH2 0xBF6 JUMPI PUSH2 0xBF5 PUSH2 0xC5C JUMP JUMPDEST JUMPDEST POP SWAP2 SWAP1 POP JUMP JUMPDEST PUSH2 0xC05 DUP3 PUSH2 0xCFD JUMP JUMPDEST DUP2 ADD DUP2 DUP2 LT PUSH8 0xFFFFFFFFFFFFFFFF DUP3 GT OR ISZERO PUSH2 0xC24 JUMPI PUSH2 0xC23 PUSH2 0xCBA JUMP JUMPDEST JUMPDEST DUP1 PUSH1 0x40 MSTORE POP POP POP JUMP JUMPDEST PUSH32 0x4E487B7100000000000000000000000000000000000000000000000000000000 PUSH1 0x0 MSTORE PUSH1 0x11 PUSH1 0x4 MSTORE PUSH1 0x24 PUSH1 0x0 REVERT JUMPDEST PUSH32 0x4E487B7100000000000000000000000000000000000000000000000000000000 PUSH1 0x0 MSTORE PUSH1 0x22 PUSH1 0x4 MSTORE PUSH1 0x24 PUSH1 0x0 REVERT JUMPDEST PUSH32 0x4E487B7100000000000000000000000000000000000000000000000000000000 PUSH1 0x0 MSTORE PUSH1 0x32 PUSH1 0x4 MSTORE PUSH1 0x24 PUSH1 0x0 REVERT JUMPDEST PUSH32 0x4E487B7100000000000000000000000000000000000000000000000000000000 PUSH1 0x0 MSTORE PUSH1 0x41 PUSH1 0x4 MSTORE PUSH1 0x24 PUSH1 0x0 REVERT JUMPDEST PUSH1 0x0 DUP1 REVERT JUMPDEST PUSH1 0x0 DUP1 REVERT JUMPDEST PUSH1 0x0 DUP1 REVERT JUMPDEST PUSH1 0x0 DUP1 REVERT JUMPDEST PUSH1 0x0 PUSH1 0x1F NOT PUSH1 0x1F DUP4 ADD AND SWAP1 POP SWAP2 SWAP1 POP JUMP JUMPDEST PUSH32 0x596F75206D7573742073656E642065786163746C79203120657468657220746F PUSH1 0x0 DUP3 ADD MSTORE PUSH32 0x2061646420616E206576656E7400000000000000000000000000000000000000 PUSH1 0x20 DUP3 ADD MSTORE POP JUMP JUMPDEST PUSH2 0xD66 DUP2 PUSH2 0xB4C JUMP JUMPDEST DUP2 EQ PUSH2 0xD71 JUMPI PUSH1 0x0 DUP1 REVERT JUMPDEST POP JUMP JUMPDEST PUSH2 0xD7D DUP2 PUSH2 0xB7E JUMP JUMPDEST DUP2 EQ PUSH2 0xD88 JUMPI PUSH1 0x0 DUP1 REVERT JUMPDEST POP JUMP INVALID LOG2 PUSH5 0x6970667358 0x22 SLT KECCAK256 SELFDESTRUCT 0x1E 0xE 0xA7 0xBD 0xB7 0xD3 SWAP15 0x4A 0xDD LOG3 0xE1 NUMBER PUSH31 0xF02F3236D29C1A1EC0CDD15ED04FD8BCE6CB64736F6C634300080700330000 "
				},
				"gasEstimates": {
					"creation": {
						"codeDepositCost": "704200",
						"executionCost": "741",
						"totalCost": "704941"
					},
					"external": {
						"addEvent(string,uint256)": "infinite",
						"getEventDetails(address)": "infinite",
						"getFullEvent(address)": "infinite"
					}
				},
				"methodIdentifiers": {
					"addEvent(string,uint256)": "f0e1691a",
					"getEventDetails(address)": "d43f036b",
					"getFullEvent(address)": "a64ee206"
				}
			},
			"storageLayout": {
				"storage": [
					{
						"astId": 18,
						"contract": "contracts/event_organization.sol:event_organization",
						"label": "events_map",
						"offset": 0,
						"slot": "0",
						"type": "t_mapping(t_address,t_struct(Event_Modal)13_storage)"
					}
				],
				"types": {
					"t_address": {
						"encoding": "inplace",
						"label": "address",
						"numberOfBytes": "20"
					},
					"t_array(t_struct(Event)8_storage)dyn_storage": {
						"base": "t_struct(Event)8_storage",
						"encoding": "dynamic_array",
						"label": "struct event_organization.Event[]",
						"numberOfBytes": "32"
					},
					"t_mapping(t_address,t_struct(Event_Modal)13_storage)": {
						"encoding": "mapping",
						"key": "t_address",
						"label": "mapping(address => struct event_organization.Event_Modal)",
						"numberOfBytes": "32",
						"value": "t_struct(Event_Modal)13_storage"
					},
					"t_string_storage": {
						"encoding": "bytes",
						"label": "string",
						"numberOfBytes": "32"
					},
					"t_struct(Event)8_storage": {
						"encoding": "inplace",
						"label": "struct event_organization.Event",
						"members": [
							{
								"astId": 3,
								"contract": "contracts/event_organization.sol:event_organization",
								"label": "name",
								"offset": 0,
								"slot": "0",
								"type": "t_string_storage"
							},
							{
								"astId": 5,
								"contract": "contracts/event_organization.sol:event_organization",
								"label": "organizer",
								"offset": 0,
								"slot": "1",
								"type": "t_address"
							},
							{
								"astId": 7,
								"contract": "contracts/event_organization.sol:event_organization",
								"label": "ticketPrice",
								"offset": 0,
								"slot": "2",
								"type": "t_uint256"
							}
						],
						"numberOfBytes": "96"
					},
					"t_struct(Event_Modal)13_storage": {
						"encoding": "inplace",
						"label": "struct event_organization.Event_Modal",
						"members": [
							{
								"astId": 12,
								"contract": "contracts/event_organization.sol:event_organization",
								"label": "EventsArray",
								"offset": 0,
								"slot": "0",
								"type": "t_array(t_struct(Event)8_storage)dyn_storage"
							}
						],
						"numberOfBytes": "32"
					},
					"t_uint256": {
						"encoding": "inplace",
						"label": "uint256",
						"numberOfBytes": "32"
					}
				}
			},
			"userdoc": {
				"kind": "user",
				"methods": {},
				"version": 1
			}
		}
	}
}