{
	"contracts/doctor.sol": {
		"practice": {
			"abi": [
				{
					"inputs": [
						{
							"internalType": "uint256",
							"name": "_doctorNo",
							"type": "uint256"
						},
						{
							"internalType": "string",
							"name": "_name",
							"type": "string"
						},
						{
							"internalType": "string",
							"name": "_speciality",
							"type": "string"
						},
						{
							"internalType": "uint256",
							"name": "_roomNo",
							"type": "uint256"
						}
					],
					"name": "add_doctor_data",
					"outputs": [],
					"stateMutability": "nonpayable",
					"type": "function"
				},
				{
					"inputs": [
						{
							"internalType": "uint256",
							"name": "_doctorNo",
							"type": "uint256"
						}
					],
					"name": "delete_doctor_data",
					"outputs": [],
					"stateMutability": "nonpayable",
					"type": "function"
				},
				{
					"inputs": [],
					"name": "get_balance_earn_from_patients",
					"outputs": [
						{
							"internalType": "uint256",
							"name": "",
							"type": "uint256"
						},
						{
							"internalType": "address",
							"name": "",
							"type": "address"
						}
					],
					"stateMutability": "view",
					"type": "function"
				},
				{
					"inputs": [
						{
							"internalType": "uint256",
							"name": "_doctorNo",
							"type": "uint256"
						}
					],
					"name": "get_doctor_data",
					"outputs": [
						{
							"components": [
								{
									"components": [
										{
											"internalType": "string",
											"name": "name",
											"type": "string"
										},
										{
											"internalType": "string",
											"name": "speciality",
											"type": "string"
										},
										{
											"internalType": "uint256",
											"name": "roomNo",
											"type": "uint256"
										}
									],
									"internalType": "struct practice.Doctor[]",
									"name": "DoctorsArray",
									"type": "tuple[]"
								}
							],
							"internalType": "struct practice.Doctor_Model",
							"name": "",
							"type": "tuple"
						}
					],
					"stateMutability": "view",
					"type": "function"
				},
				{
					"inputs": [],
					"name": "payment_from_patients",
					"outputs": [],
					"stateMutability": "payable",
					"type": "function"
				},
				{
					"inputs": [],
					"name": "withdraw_funds_to_owner_from_contract",
					"outputs": [],
					"stateMutability": "nonpayable",
					"type": "function"
				}
			],
			"devdoc": {
				"kind": "dev",
				"methods": {},
				"version": 1
			},
			"evm": {
				"assembly": "    /* \"contracts/doctor.sol\":62:1390  contract practice {... */\n  mstore(0x40, 0x80)\n    /* \"contracts/doctor.sol\":121:131  msg.sender */\n  caller\n    /* \"contracts/doctor.sol\":89:132  address payable owner = payable(msg.sender) */\n  0x00\n  dup1\n  0x0100\n  exp\n  dup2\n  sload\n  dup2\n  0xffffffffffffffffffffffffffffffffffffffff\n  mul\n  not\n  and\n  swap1\n  dup4\n  0xffffffffffffffffffffffffffffffffffffffff\n  and\n  mul\n  or\n  swap1\n  sstore\n  pop\n    /* \"contracts/doctor.sol\":62:1390  contract practice {... */\n  callvalue\n  dup1\n  iszero\n  tag_1\n  jumpi\n  0x00\n  dup1\n  revert\ntag_1:\n  pop\n  dataSize(sub_0)\n  dup1\n  dataOffset(sub_0)\n  0x00\n  codecopy\n  0x00\n  return\nstop\n\nsub_0: assembly {\n        /* \"contracts/doctor.sol\":62:1390  contract practice {... */\n      mstore(0x40, 0x80)\n      jumpi(tag_1, lt(calldatasize, 0x04))\n      shr(0xe0, calldataload(0x00))\n      dup1\n      0x05227c1b\n      eq\n      tag_2\n      jumpi\n      dup1\n      0x692e8201\n      eq\n      tag_3\n      jumpi\n      dup1\n      0x8ed20cbe\n      eq\n      tag_4\n      jumpi\n      dup1\n      0xa929ffe1\n      eq\n      tag_5\n      jumpi\n      dup1\n      0xdd1d97cb\n      eq\n      tag_6\n      jumpi\n      dup1\n      0xe16b2eef\n      eq\n      tag_7\n      jumpi\n    tag_1:\n      0x00\n      dup1\n      revert\n        /* \"contracts/doctor.sol\":363:620  function add_doctor_data(uint _doctorNo,string memory _name,string memory _speciality,uint _roomNo)... */\n    tag_2:\n      callvalue\n      dup1\n      iszero\n      tag_8\n      jumpi\n      0x00\n      dup1\n      revert\n    tag_8:\n      pop\n      tag_9\n      0x04\n      dup1\n      calldatasize\n      sub\n      dup2\n      add\n      swap1\n      tag_10\n      swap2\n      swap1\n      tag_11\n      jump\t// in\n    tag_10:\n      tag_12\n      jump\t// in\n    tag_9:\n      stop\n        /* \"contracts/doctor.sol\":628:816  function get_doctor_data(uint _doctorNo) view public returns(Doctor_Model memory)... */\n    tag_3:\n      callvalue\n      dup1\n      iszero\n      tag_13\n      jumpi\n      0x00\n      dup1\n      revert\n    tag_13:\n      pop\n      tag_14\n      0x04\n      dup1\n      calldatasize\n      sub\n      dup2\n      add\n      swap1\n      tag_15\n      swap2\n      swap1\n      tag_16\n      jump\t// in\n    tag_15:\n      tag_17\n      jump\t// in\n    tag_14:\n      mload(0x40)\n      tag_18\n      swap2\n      swap1\n      tag_19\n      jump\t// in\n    tag_18:\n      mload(0x40)\n      dup1\n      swap2\n      sub\n      swap1\n      return\n        /* \"contracts/doctor.sol\":1257:1385  function withdraw_funds_to_owner_from_contract() public ... */\n    tag_4:\n      callvalue\n      dup1\n      iszero\n      tag_20\n      jumpi\n      0x00\n      dup1\n      revert\n    tag_20:\n      pop\n      tag_21\n      tag_22\n      jump\t// in\n    tag_21:\n      stop\n        /* \"contracts/doctor.sol\":824:944  function delete_doctor_data(uint _doctorNo) public ... */\n    tag_5:\n      callvalue\n      dup1\n      iszero\n      tag_23\n      jumpi\n      0x00\n      dup1\n      revert\n    tag_23:\n      pop\n      tag_24\n      0x04\n      dup1\n      calldatasize\n      sub\n      dup2\n      add\n      swap1\n      tag_25\n      swap2\n      swap1\n      tag_16\n      jump\t// in\n    tag_25:\n      tag_26\n      jump\t// in\n    tag_24:\n      stop\n        /* \"contracts/doctor.sol\":1024:1249  function get_balance_earn_from_patients() public view returns(uint,address)... */\n    tag_6:\n      callvalue\n      dup1\n      iszero\n      tag_27\n      jumpi\n      0x00\n      dup1\n      revert\n    tag_27:\n      pop\n      tag_28\n      tag_29\n      jump\t// in\n    tag_28:\n      mload(0x40)\n      tag_30\n      swap3\n      swap2\n      swap1\n      tag_31\n      jump\t// in\n    tag_30:\n      mload(0x40)\n      dup1\n      swap2\n      sub\n      swap1\n      return\n        /* \"contracts/doctor.sol\":952:1016  function payment_from_patients() public payable ... */\n    tag_7:\n      tag_32\n      tag_33\n      jump\t// in\n    tag_32:\n      stop\n        /* \"contracts/doctor.sol\":363:620  function add_doctor_data(uint _doctorNo,string memory _name,string memory _speciality,uint _roomNo)... */\n    tag_12:\n        /* \"contracts/doctor.sol\":492:512  Doctor memory doctor */\n      0x00\n        /* \"contracts/doctor.sol\":515:548  Doctor(_name,_speciality,_roomNo) */\n      mload(0x40)\n      dup1\n      0x60\n      add\n      0x40\n      mstore\n      dup1\n        /* \"contracts/doctor.sol\":522:527  _name */\n      dup6\n        /* \"contracts/doctor.sol\":515:548  Doctor(_name,_speciality,_roomNo) */\n      dup2\n      mstore\n      0x20\n      add\n        /* \"contracts/doctor.sol\":528:539  _speciality */\n      dup5\n        /* \"contracts/doctor.sol\":515:548  Doctor(_name,_speciality,_roomNo) */\n      dup2\n      mstore\n      0x20\n      add\n        /* \"contracts/doctor.sol\":540:547  _roomNo */\n      dup4\n        /* \"contracts/doctor.sol\":515:548  Doctor(_name,_speciality,_roomNo) */\n      dup2\n      mstore\n      pop\n        /* \"contracts/doctor.sol\":492:548  Doctor memory doctor = Doctor(_name,_speciality,_roomNo) */\n      swap1\n      pop\n        /* \"contracts/doctor.sol\":559:573  doctor_mapping */\n      0x01\n        /* \"contracts/doctor.sol\":559:584  doctor_mapping[_doctorNo] */\n      0x00\n        /* \"contracts/doctor.sol\":574:583  _doctorNo */\n      dup7\n        /* \"contracts/doctor.sol\":559:584  doctor_mapping[_doctorNo] */\n      dup2\n      mstore\n      0x20\n      add\n      swap1\n      dup2\n      mstore\n      0x20\n      add\n      0x00\n      keccak256\n        /* \"contracts/doctor.sol\":559:597  doctor_mapping[_doctorNo].DoctorsArray */\n      0x00\n      add\n        /* \"contracts/doctor.sol\":603:609  doctor */\n      dup2\n        /* \"contracts/doctor.sol\":559:610  doctor_mapping[_doctorNo].DoctorsArray.push(doctor) */\n      swap1\n      dup1\n      0x01\n      dup2\n      sload\n      add\n      dup1\n      dup3\n      sstore\n      dup1\n      swap2\n      pop\n      pop\n      0x01\n      swap1\n      sub\n      swap1\n      0x00\n      mstore\n      keccak256(0x00, 0x20)\n      swap1\n      0x03\n      mul\n      add\n      0x00\n      swap1\n      swap2\n      swap1\n      swap2\n      swap1\n      swap2\n      pop\n      0x00\n      dup3\n      add\n      mload\n      dup2\n      0x00\n      add\n      swap1\n      dup2\n      tag_36\n      swap2\n      swap1\n      tag_37\n      jump\t// in\n    tag_36:\n      pop\n      0x20\n      dup3\n      add\n      mload\n      dup2\n      0x01\n      add\n      swap1\n      dup2\n      tag_38\n      swap2\n      swap1\n      tag_37\n      jump\t// in\n    tag_38:\n      pop\n      0x40\n      dup3\n      add\n      mload\n      dup2\n      0x02\n      add\n      sstore\n      pop\n      pop\n        /* \"contracts/doctor.sol\":481:620  {... */\n      pop\n        /* \"contracts/doctor.sol\":363:620  function add_doctor_data(uint _doctorNo,string memory _name,string memory _speciality,uint _roomNo)... */\n      pop\n      pop\n      pop\n      pop\n      jump\t// out\n        /* \"contracts/doctor.sol\":628:816  function get_doctor_data(uint _doctorNo) view public returns(Doctor_Model memory)... */\n    tag_17:\n        /* \"contracts/doctor.sol\":689:708  Doctor_Model memory */\n      tag_39\n      tag_40\n      jump\t// in\n    tag_39:\n        /* \"contracts/doctor.sol\":726:753  Doctor_Model memory doctors */\n      0x00\n        /* \"contracts/doctor.sol\":756:770  doctor_mapping */\n      0x01\n        /* \"contracts/doctor.sol\":756:781  doctor_mapping[_doctorNo] */\n      0x00\n        /* \"contracts/doctor.sol\":771:780  _doctorNo */\n      dup5\n        /* \"contracts/doctor.sol\":756:781  doctor_mapping[_doctorNo] */\n      dup2\n      mstore\n      0x20\n      add\n      swap1\n      dup2\n      mstore\n      0x20\n      add\n      0x00\n      keccak256\n        /* \"contracts/doctor.sol\":726:781  Doctor_Model memory doctors = doctor_mapping[_doctorNo] */\n      mload(0x40)\n      dup1\n      0x20\n      add\n      0x40\n      mstore\n      swap1\n      dup2\n      0x00\n      dup3\n      add\n      dup1\n      sload\n      dup1\n      0x20\n      mul\n      0x20\n      add\n      mload(0x40)\n      swap1\n      dup2\n      add\n      0x40\n      mstore\n      dup1\n      swap3\n      swap2\n      swap1\n      dup2\n      dup2\n      mstore\n      0x20\n      add\n      0x00\n      swap1\n    tag_42:\n      dup3\n      dup3\n      lt\n      iszero\n      tag_43\n      jumpi\n      dup4\n      dup3\n      swap1\n      0x00\n      mstore\n      keccak256(0x00, 0x20)\n      swap1\n      0x03\n      mul\n      add\n      mload(0x40)\n      dup1\n      0x60\n      add\n      0x40\n      mstore\n      swap1\n      dup2\n      0x00\n      dup3\n      add\n      dup1\n      sload\n      tag_45\n      swap1\n      tag_46\n      jump\t// in\n    tag_45:\n      dup1\n      0x1f\n      add\n      0x20\n      dup1\n      swap2\n      div\n      mul\n      0x20\n      add\n      mload(0x40)\n      swap1\n      dup2\n      add\n      0x40\n      mstore\n      dup1\n      swap3\n      swap2\n      swap1\n      dup2\n      dup2\n      mstore\n      0x20\n      add\n      dup3\n      dup1\n      sload\n      tag_47\n      swap1\n      tag_46\n      jump\t// in\n    tag_47:\n      dup1\n      iszero\n      tag_48\n      jumpi\n      dup1\n      0x1f\n      lt\n      tag_49\n      jumpi\n      0x0100\n      dup1\n      dup4\n      sload\n      div\n      mul\n      dup4\n      mstore\n      swap2\n      0x20\n      add\n      swap2\n      jump(tag_48)\n    tag_49:\n      dup3\n      add\n      swap2\n      swap1\n      0x00\n      mstore\n      keccak256(0x00, 0x20)\n      swap1\n    tag_50:\n      dup2\n      sload\n      dup2\n      mstore\n      swap1\n      0x01\n      add\n      swap1\n      0x20\n      add\n      dup1\n      dup4\n      gt\n      tag_50\n      jumpi\n      dup3\n      swap1\n      sub\n      0x1f\n      and\n      dup3\n      add\n      swap2\n    tag_48:\n      pop\n      pop\n      pop\n      pop\n      pop\n      dup2\n      mstore\n      0x20\n      add\n      0x01\n      dup3\n      add\n      dup1\n      sload\n      tag_51\n      swap1\n      tag_46\n      jump\t// in\n    tag_51:\n      dup1\n      0x1f\n      add\n      0x20\n      dup1\n      swap2\n      div\n      mul\n      0x20\n      add\n      mload(0x40)\n      swap1\n      dup2\n      add\n      0x40\n      mstore\n      dup1\n      swap3\n      swap2\n      swap1\n      dup2\n      dup2\n      mstore\n      0x20\n      add\n      dup3\n      dup1\n      sload\n      tag_52\n      swap1\n      tag_46\n      jump\t// in\n    tag_52:\n      dup1\n      iszero\n      tag_53\n      jumpi\n      dup1\n      0x1f\n      lt\n      tag_54\n      jumpi\n      0x0100\n      dup1\n      dup4\n      sload\n      div\n      mul\n      dup4\n      mstore\n      swap2\n      0x20\n      add\n      swap2\n      jump(tag_53)\n    tag_54:\n      dup3\n      add\n      swap2\n      swap1\n      0x00\n      mstore\n      keccak256(0x00, 0x20)\n      swap1\n    tag_55:\n      dup2\n      sload\n      dup2\n      mstore\n      swap1\n      0x01\n      add\n      swap1\n      0x20\n      add\n      dup1\n      dup4\n      gt\n      tag_55\n      jumpi\n      dup3\n      swap1\n      sub\n      0x1f\n      and\n      dup3\n      add\n      swap2\n    tag_53:\n      pop\n      pop\n      pop\n      pop\n      pop\n      dup2\n      mstore\n      0x20\n      add\n      0x02\n      dup3\n      add\n      sload\n      dup2\n      mstore\n      pop\n      pop\n      dup2\n      mstore\n      0x20\n      add\n      swap1\n      0x01\n      add\n      swap1\n      jump(tag_42)\n    tag_43:\n      pop\n      pop\n      pop\n      pop\n      dup2\n      mstore\n      pop\n      pop\n      swap1\n      pop\n        /* \"contracts/doctor.sol\":799:806  doctors */\n      dup1\n        /* \"contracts/doctor.sol\":792:806  return doctors */\n      swap2\n      pop\n      pop\n        /* \"contracts/doctor.sol\":628:816  function get_doctor_data(uint _doctorNo) view public returns(Doctor_Model memory)... */\n      swap2\n      swap1\n      pop\n      jump\t// out\n        /* \"contracts/doctor.sol\":1257:1385  function withdraw_funds_to_owner_from_contract() public ... */\n    tag_22:\n        /* \"contracts/doctor.sol\":1340:1345  owner */\n      0x00\n      dup1\n      sload\n      swap1\n      0x0100\n      exp\n      swap1\n      div\n      0xffffffffffffffffffffffffffffffffffffffff\n      and\n        /* \"contracts/doctor.sol\":1340:1354  owner.transfer */\n      0xffffffffffffffffffffffffffffffffffffffff\n      and\n        /* \"contracts/doctor.sol\":1340:1377  owner.transfer(address(this).balance) */\n      0x08fc\n        /* \"contracts/doctor.sol\":1355:1376  address(this).balance */\n      selfbalance\n        /* \"contracts/doctor.sol\":1340:1377  owner.transfer(address(this).balance) */\n      swap1\n      dup2\n      iszero\n      mul\n      swap1\n      mload(0x40)\n      0x00\n      mload(0x40)\n      dup1\n      dup4\n      sub\n      dup2\n      dup6\n      dup9\n      dup9\n      call\n      swap4\n      pop\n      pop\n      pop\n      pop\n      iszero\n      dup1\n      iszero\n      tag_58\n      jumpi\n      returndatasize\n      0x00\n      dup1\n      returndatacopy\n      revert(0x00, returndatasize)\n    tag_58:\n      pop\n        /* \"contracts/doctor.sol\":1257:1385  function withdraw_funds_to_owner_from_contract() public ... */\n      jump\t// out\n        /* \"contracts/doctor.sol\":824:944  function delete_doctor_data(uint _doctorNo) public ... */\n    tag_26:\n        /* \"contracts/doctor.sol\":892:906  doctor_mapping */\n      0x01\n        /* \"contracts/doctor.sol\":892:917  doctor_mapping[_doctorNo] */\n      0x00\n        /* \"contracts/doctor.sol\":907:916  _doctorNo */\n      dup3\n        /* \"contracts/doctor.sol\":892:917  doctor_mapping[_doctorNo] */\n      dup2\n      mstore\n      0x20\n      add\n      swap1\n      dup2\n      mstore\n      0x20\n      add\n      0x00\n      keccak256\n        /* \"contracts/doctor.sol\":892:930  doctor_mapping[_doctorNo].DoctorsArray */\n      0x00\n      add\n        /* \"contracts/doctor.sol\":892:936  doctor_mapping[_doctorNo].DoctorsArray.pop() */\n      dup1\n      sload\n      dup1\n      tag_60\n      jumpi\n      tag_61\n      tag_62\n      jump\t// in\n    tag_61:\n    tag_60:\n      0x01\n      swap1\n      sub\n      dup2\n      dup2\n      swap1\n      0x00\n      mstore\n      keccak256(0x00, 0x20)\n      swap1\n      0x03\n      mul\n      add\n      0x00\n      dup1\n      dup3\n      add\n      0x00\n      tag_64\n      swap2\n      swap1\n      tag_65\n      jump\t// in\n    tag_64:\n      0x01\n      dup3\n      add\n      0x00\n      tag_66\n      swap2\n      swap1\n      tag_65\n      jump\t// in\n    tag_66:\n      0x02\n      dup3\n      add\n      0x00\n      swap1\n      sstore\n      pop\n      pop\n      swap1\n      sstore\n        /* \"contracts/doctor.sol\":824:944  function delete_doctor_data(uint _doctorNo) public ... */\n      pop\n      jump\t// out\n        /* \"contracts/doctor.sol\":1024:1249  function get_balance_earn_from_patients() public view returns(uint,address)... */\n    tag_29:\n        /* \"contracts/doctor.sol\":1086:1090  uint */\n      0x00\n        /* \"contracts/doctor.sol\":1091:1098  address */\n      dup1\n        /* \"contracts/doctor.sol\":1133:1143  msg.sender */\n      caller\n        /* \"contracts/doctor.sol\":1124:1143  owner == msg.sender */\n      0xffffffffffffffffffffffffffffffffffffffff\n      and\n        /* \"contracts/doctor.sol\":1124:1129  owner */\n      0x00\n      dup1\n      sload\n      swap1\n      0x0100\n      exp\n      swap1\n      div\n      0xffffffffffffffffffffffffffffffffffffffff\n      and\n        /* \"contracts/doctor.sol\":1124:1143  owner == msg.sender */\n      0xffffffffffffffffffffffffffffffffffffffff\n      and\n      eq\n        /* \"contracts/doctor.sol\":1116:1185  require(owner == msg.sender,\"You cannot have access to read balance\") */\n      tag_68\n      jumpi\n      mload(0x40)\n      0x08c379a000000000000000000000000000000000000000000000000000000000\n      dup2\n      mstore\n      0x04\n      add\n      tag_69\n      swap1\n      tag_70\n      jump\t// in\n    tag_69:\n      mload(0x40)\n      dup1\n      swap2\n      sub\n      swap1\n      revert\n    tag_68:\n        /* \"contracts/doctor.sol\":1203:1224  address(this).balance */\n      selfbalance\n        /* \"contracts/doctor.sol\":1233:1237  this */\n      address\n        /* \"contracts/doctor.sol\":1196:1239  return(address(this).balance,address(this)) */\n      swap2\n      pop\n      swap2\n      pop\n        /* \"contracts/doctor.sol\":1024:1249  function get_balance_earn_from_patients() public view returns(uint,address)... */\n      swap1\n      swap2\n      jump\t// out\n        /* \"contracts/doctor.sol\":952:1016  function payment_from_patients() public payable ... */\n    tag_33:\n      jump\t// out\n    tag_40:\n      mload(0x40)\n      dup1\n      0x20\n      add\n      0x40\n      mstore\n      dup1\n      0x60\n      dup2\n      mstore\n      pop\n      swap1\n      jump\t// out\n    tag_65:\n      pop\n      dup1\n      sload\n      tag_72\n      swap1\n      tag_46\n      jump\t// in\n    tag_72:\n      0x00\n      dup3\n      sstore\n      dup1\n      0x1f\n      lt\n      tag_74\n      jumpi\n      pop\n      jump(tag_73)\n    tag_74:\n      0x1f\n      add\n      0x20\n      swap1\n      div\n      swap1\n      0x00\n      mstore\n      keccak256(0x00, 0x20)\n      swap1\n      dup2\n      add\n      swap1\n      tag_75\n      swap2\n      swap1\n      tag_76\n      jump\t// in\n    tag_75:\n    tag_73:\n      pop\n      jump\t// out\n    tag_76:\n    tag_77:\n      dup1\n      dup3\n      gt\n      iszero\n      tag_78\n      jumpi\n      0x00\n      dup2\n      0x00\n      swap1\n      sstore\n      pop\n      0x01\n      add\n      jump(tag_77)\n    tag_78:\n      pop\n      swap1\n      jump\t// out\n        /* \"#utility.yul\":7:82   */\n    tag_79:\n        /* \"#utility.yul\":40:46   */\n      0x00\n        /* \"#utility.yul\":73:75   */\n      0x40\n        /* \"#utility.yul\":67:76   */\n      mload\n        /* \"#utility.yul\":57:76   */\n      swap1\n      pop\n        /* \"#utility.yul\":7:82   */\n      swap1\n      jump\t// out\n        /* \"#utility.yul\":88:205   */\n    tag_80:\n        /* \"#utility.yul\":197:198   */\n      0x00\n        /* \"#utility.yul\":194:195   */\n      dup1\n        /* \"#utility.yul\":187:199   */\n      revert\n        /* \"#utility.yul\":211:328   */\n    tag_81:\n        /* \"#utility.yul\":320:321   */\n      0x00\n        /* \"#utility.yul\":317:318   */\n      dup1\n        /* \"#utility.yul\":310:322   */\n      revert\n        /* \"#utility.yul\":334:411   */\n    tag_82:\n        /* \"#utility.yul\":371:378   */\n      0x00\n        /* \"#utility.yul\":400:405   */\n      dup2\n        /* \"#utility.yul\":389:405   */\n      swap1\n      pop\n        /* \"#utility.yul\":334:411   */\n      swap2\n      swap1\n      pop\n      jump\t// out\n        /* \"#utility.yul\":417:539   */\n    tag_83:\n        /* \"#utility.yul\":490:514   */\n      tag_137\n        /* \"#utility.yul\":508:513   */\n      dup2\n        /* \"#utility.yul\":490:514   */\n      tag_82\n      jump\t// in\n    tag_137:\n        /* \"#utility.yul\":483:488   */\n      dup2\n        /* \"#utility.yul\":480:515   */\n      eq\n        /* \"#utility.yul\":470:533   */\n      tag_138\n      jumpi\n        /* \"#utility.yul\":529:530   */\n      0x00\n        /* \"#utility.yul\":526:527   */\n      dup1\n        /* \"#utility.yul\":519:531   */\n      revert\n        /* \"#utility.yul\":470:533   */\n    tag_138:\n        /* \"#utility.yul\":417:539   */\n      pop\n      jump\t// out\n        /* \"#utility.yul\":545:684   */\n    tag_84:\n        /* \"#utility.yul\":591:596   */\n      0x00\n        /* \"#utility.yul\":629:635   */\n      dup2\n        /* \"#utility.yul\":616:636   */\n      calldataload\n        /* \"#utility.yul\":607:636   */\n      swap1\n      pop\n        /* \"#utility.yul\":645:678   */\n      tag_140\n        /* \"#utility.yul\":672:677   */\n      dup2\n        /* \"#utility.yul\":645:678   */\n      tag_83\n      jump\t// in\n    tag_140:\n        /* \"#utility.yul\":545:684   */\n      swap3\n      swap2\n      pop\n      pop\n      jump\t// out\n        /* \"#utility.yul\":690:807   */\n    tag_85:\n        /* \"#utility.yul\":799:800   */\n      0x00\n        /* \"#utility.yul\":796:797   */\n      dup1\n        /* \"#utility.yul\":789:801   */\n      revert\n        /* \"#utility.yul\":813:930   */\n    tag_86:\n        /* \"#utility.yul\":922:923   */\n      0x00\n        /* \"#utility.yul\":919:920   */\n      dup1\n        /* \"#utility.yul\":912:924   */\n      revert\n        /* \"#utility.yul\":936:1038   */\n    tag_87:\n        /* \"#utility.yul\":977:983   */\n      0x00\n        /* \"#utility.yul\":1028:1030   */\n      0x1f\n        /* \"#utility.yul\":1024:1031   */\n      not\n        /* \"#utility.yul\":1019:1021   */\n      0x1f\n        /* \"#utility.yul\":1012:1017   */\n      dup4\n        /* \"#utility.yul\":1008:1022   */\n      add\n        /* \"#utility.yul\":1004:1032   */\n      and\n        /* \"#utility.yul\":994:1032   */\n      swap1\n      pop\n        /* \"#utility.yul\":936:1038   */\n      swap2\n      swap1\n      pop\n      jump\t// out\n        /* \"#utility.yul\":1044:1224   */\n    tag_88:\n        /* \"#utility.yul\":1092:1169   */\n      0x4e487b7100000000000000000000000000000000000000000000000000000000\n        /* \"#utility.yul\":1089:1090   */\n      0x00\n        /* \"#utility.yul\":1082:1170   */\n      mstore\n        /* \"#utility.yul\":1189:1193   */\n      0x41\n        /* \"#utility.yul\":1186:1187   */\n      0x04\n        /* \"#utility.yul\":1179:1194   */\n      mstore\n        /* \"#utility.yul\":1213:1217   */\n      0x24\n        /* \"#utility.yul\":1210:1211   */\n      0x00\n        /* \"#utility.yul\":1203:1218   */\n      revert\n        /* \"#utility.yul\":1230:1511   */\n    tag_89:\n        /* \"#utility.yul\":1313:1340   */\n      tag_146\n        /* \"#utility.yul\":1335:1339   */\n      dup3\n        /* \"#utility.yul\":1313:1340   */\n      tag_87\n      jump\t// in\n    tag_146:\n        /* \"#utility.yul\":1305:1311   */\n      dup2\n        /* \"#utility.yul\":1301:1341   */\n      add\n        /* \"#utility.yul\":1443:1449   */\n      dup2\n        /* \"#utility.yul\":1431:1441   */\n      dup2\n        /* \"#utility.yul\":1428:1450   */\n      lt\n        /* \"#utility.yul\":1407:1425   */\n      0xffffffffffffffff\n        /* \"#utility.yul\":1395:1405   */\n      dup3\n        /* \"#utility.yul\":1392:1426   */\n      gt\n        /* \"#utility.yul\":1389:1451   */\n      or\n        /* \"#utility.yul\":1386:1474   */\n      iszero\n      tag_147\n      jumpi\n        /* \"#utility.yul\":1454:1472   */\n      tag_148\n      tag_88\n      jump\t// in\n    tag_148:\n        /* \"#utility.yul\":1386:1474   */\n    tag_147:\n        /* \"#utility.yul\":1494:1504   */\n      dup1\n        /* \"#utility.yul\":1490:1492   */\n      0x40\n        /* \"#utility.yul\":1483:1505   */\n      mstore\n        /* \"#utility.yul\":1273:1511   */\n      pop\n        /* \"#utility.yul\":1230:1511   */\n      pop\n      pop\n      jump\t// out\n        /* \"#utility.yul\":1517:1646   */\n    tag_90:\n        /* \"#utility.yul\":1551:1557   */\n      0x00\n        /* \"#utility.yul\":1578:1598   */\n      tag_150\n      tag_79\n      jump\t// in\n    tag_150:\n        /* \"#utility.yul\":1568:1598   */\n      swap1\n      pop\n        /* \"#utility.yul\":1607:1640   */\n      tag_151\n        /* \"#utility.yul\":1635:1639   */\n      dup3\n        /* \"#utility.yul\":1627:1633   */\n      dup3\n        /* \"#utility.yul\":1607:1640   */\n      tag_89\n      jump\t// in\n    tag_151:\n        /* \"#utility.yul\":1517:1646   */\n      swap2\n      swap1\n      pop\n      jump\t// out\n        /* \"#utility.yul\":1652:1960   */\n    tag_91:\n        /* \"#utility.yul\":1714:1718   */\n      0x00\n        /* \"#utility.yul\":1804:1822   */\n      0xffffffffffffffff\n        /* \"#utility.yul\":1796:1802   */\n      dup3\n        /* \"#utility.yul\":1793:1823   */\n      gt\n        /* \"#utility.yul\":1790:1846   */\n      iszero\n      tag_153\n      jumpi\n        /* \"#utility.yul\":1826:1844   */\n      tag_154\n      tag_88\n      jump\t// in\n    tag_154:\n        /* \"#utility.yul\":1790:1846   */\n    tag_153:\n        /* \"#utility.yul\":1864:1893   */\n      tag_155\n        /* \"#utility.yul\":1886:1892   */\n      dup3\n        /* \"#utility.yul\":1864:1893   */\n      tag_87\n      jump\t// in\n    tag_155:\n        /* \"#utility.yul\":1856:1893   */\n      swap1\n      pop\n        /* \"#utility.yul\":1948:1952   */\n      0x20\n        /* \"#utility.yul\":1942:1946   */\n      dup2\n        /* \"#utility.yul\":1938:1953   */\n      add\n        /* \"#utility.yul\":1930:1953   */\n      swap1\n      pop\n        /* \"#utility.yul\":1652:1960   */\n      swap2\n      swap1\n      pop\n      jump\t// out\n        /* \"#utility.yul\":1966:2114   */\n    tag_92:\n        /* \"#utility.yul\":2064:2070   */\n      dup3\n        /* \"#utility.yul\":2059:2062   */\n      dup2\n        /* \"#utility.yul\":2054:2057   */\n      dup4\n        /* \"#utility.yul\":2041:2071   */\n      calldatacopy\n        /* \"#utility.yul\":2105:2106   */\n      0x00\n        /* \"#utility.yul\":2096:2102   */\n      dup4\n        /* \"#utility.yul\":2091:2094   */\n      dup4\n        /* \"#utility.yul\":2087:2103   */\n      add\n        /* \"#utility.yul\":2080:2107   */\n      mstore\n        /* \"#utility.yul\":1966:2114   */\n      pop\n      pop\n      pop\n      jump\t// out\n        /* \"#utility.yul\":2120:2545   */\n    tag_93:\n        /* \"#utility.yul\":2198:2203   */\n      0x00\n        /* \"#utility.yul\":2223:2289   */\n      tag_158\n        /* \"#utility.yul\":2239:2288   */\n      tag_159\n        /* \"#utility.yul\":2281:2287   */\n      dup5\n        /* \"#utility.yul\":2239:2288   */\n      tag_91\n      jump\t// in\n    tag_159:\n        /* \"#utility.yul\":2223:2289   */\n      tag_90\n      jump\t// in\n    tag_158:\n        /* \"#utility.yul\":2214:2289   */\n      swap1\n      pop\n        /* \"#utility.yul\":2312:2318   */\n      dup3\n        /* \"#utility.yul\":2305:2310   */\n      dup2\n        /* \"#utility.yul\":2298:2319   */\n      mstore\n        /* \"#utility.yul\":2350:2354   */\n      0x20\n        /* \"#utility.yul\":2343:2348   */\n      dup2\n        /* \"#utility.yul\":2339:2355   */\n      add\n        /* \"#utility.yul\":2388:2391   */\n      dup5\n        /* \"#utility.yul\":2379:2385   */\n      dup5\n        /* \"#utility.yul\":2374:2377   */\n      dup5\n        /* \"#utility.yul\":2370:2386   */\n      add\n        /* \"#utility.yul\":2367:2392   */\n      gt\n        /* \"#utility.yul\":2364:2476   */\n      iszero\n      tag_160\n      jumpi\n        /* \"#utility.yul\":2395:2474   */\n      tag_161\n      tag_86\n      jump\t// in\n    tag_161:\n        /* \"#utility.yul\":2364:2476   */\n    tag_160:\n        /* \"#utility.yul\":2485:2539   */\n      tag_162\n        /* \"#utility.yul\":2532:2538   */\n      dup5\n        /* \"#utility.yul\":2527:2530   */\n      dup3\n        /* \"#utility.yul\":2522:2525   */\n      dup6\n        /* \"#utility.yul\":2485:2539   */\n      tag_92\n      jump\t// in\n    tag_162:\n        /* \"#utility.yul\":2204:2545   */\n      pop\n        /* \"#utility.yul\":2120:2545   */\n      swap4\n      swap3\n      pop\n      pop\n      pop\n      jump\t// out\n        /* \"#utility.yul\":2565:2905   */\n    tag_94:\n        /* \"#utility.yul\":2621:2626   */\n      0x00\n        /* \"#utility.yul\":2670:2673   */\n      dup3\n        /* \"#utility.yul\":2663:2667   */\n      0x1f\n        /* \"#utility.yul\":2655:2661   */\n      dup4\n        /* \"#utility.yul\":2651:2668   */\n      add\n        /* \"#utility.yul\":2647:2674   */\n      slt\n        /* \"#utility.yul\":2637:2759   */\n      tag_164\n      jumpi\n        /* \"#utility.yul\":2678:2757   */\n      tag_165\n      tag_85\n      jump\t// in\n    tag_165:\n        /* \"#utility.yul\":2637:2759   */\n    tag_164:\n        /* \"#utility.yul\":2795:2801   */\n      dup2\n        /* \"#utility.yul\":2782:2802   */\n      calldataload\n        /* \"#utility.yul\":2820:2899   */\n      tag_166\n        /* \"#utility.yul\":2895:2898   */\n      dup5\n        /* \"#utility.yul\":2887:2893   */\n      dup3\n        /* \"#utility.yul\":2880:2884   */\n      0x20\n        /* \"#utility.yul\":2872:2878   */\n      dup7\n        /* \"#utility.yul\":2868:2885   */\n      add\n        /* \"#utility.yul\":2820:2899   */\n      tag_93\n      jump\t// in\n    tag_166:\n        /* \"#utility.yul\":2811:2899   */\n      swap2\n      pop\n        /* \"#utility.yul\":2627:2905   */\n      pop\n        /* \"#utility.yul\":2565:2905   */\n      swap3\n      swap2\n      pop\n      pop\n      jump\t// out\n        /* \"#utility.yul\":2911:4036   */\n    tag_11:\n        /* \"#utility.yul\":3017:3023   */\n      0x00\n        /* \"#utility.yul\":3025:3031   */\n      dup1\n        /* \"#utility.yul\":3033:3039   */\n      0x00\n        /* \"#utility.yul\":3041:3047   */\n      dup1\n        /* \"#utility.yul\":3090:3093   */\n      0x80\n        /* \"#utility.yul\":3078:3087   */\n      dup6\n        /* \"#utility.yul\":3069:3076   */\n      dup8\n        /* \"#utility.yul\":3065:3088   */\n      sub\n        /* \"#utility.yul\":3061:3094   */\n      slt\n        /* \"#utility.yul\":3058:3178   */\n      iszero\n      tag_168\n      jumpi\n        /* \"#utility.yul\":3097:3176   */\n      tag_169\n      tag_80\n      jump\t// in\n    tag_169:\n        /* \"#utility.yul\":3058:3178   */\n    tag_168:\n        /* \"#utility.yul\":3217:3218   */\n      0x00\n        /* \"#utility.yul\":3242:3295   */\n      tag_170\n        /* \"#utility.yul\":3287:3294   */\n      dup8\n        /* \"#utility.yul\":3278:3284   */\n      dup3\n        /* \"#utility.yul\":3267:3276   */\n      dup9\n        /* \"#utility.yul\":3263:3285   */\n      add\n        /* \"#utility.yul\":3242:3295   */\n      tag_84\n      jump\t// in\n    tag_170:\n        /* \"#utility.yul\":3232:3295   */\n      swap5\n      pop\n        /* \"#utility.yul\":3188:3305   */\n      pop\n        /* \"#utility.yul\":3372:3374   */\n      0x20\n        /* \"#utility.yul\":3361:3370   */\n      dup6\n        /* \"#utility.yul\":3357:3375   */\n      add\n        /* \"#utility.yul\":3344:3376   */\n      calldataload\n        /* \"#utility.yul\":3403:3421   */\n      0xffffffffffffffff\n        /* \"#utility.yul\":3395:3401   */\n      dup2\n        /* \"#utility.yul\":3392:3422   */\n      gt\n        /* \"#utility.yul\":3389:3506   */\n      iszero\n      tag_171\n      jumpi\n        /* \"#utility.yul\":3425:3504   */\n      tag_172\n      tag_81\n      jump\t// in\n    tag_172:\n        /* \"#utility.yul\":3389:3506   */\n    tag_171:\n        /* \"#utility.yul\":3530:3593   */\n      tag_173\n        /* \"#utility.yul\":3585:3592   */\n      dup8\n        /* \"#utility.yul\":3576:3582   */\n      dup3\n        /* \"#utility.yul\":3565:3574   */\n      dup9\n        /* \"#utility.yul\":3561:3583   */\n      add\n        /* \"#utility.yul\":3530:3593   */\n      tag_94\n      jump\t// in\n    tag_173:\n        /* \"#utility.yul\":3520:3593   */\n      swap4\n      pop\n        /* \"#utility.yul\":3315:3603   */\n      pop\n        /* \"#utility.yul\":3670:3672   */\n      0x40\n        /* \"#utility.yul\":3659:3668   */\n      dup6\n        /* \"#utility.yul\":3655:3673   */\n      add\n        /* \"#utility.yul\":3642:3674   */\n      calldataload\n        /* \"#utility.yul\":3701:3719   */\n      0xffffffffffffffff\n        /* \"#utility.yul\":3693:3699   */\n      dup2\n        /* \"#utility.yul\":3690:3720   */\n      gt\n        /* \"#utility.yul\":3687:3804   */\n      iszero\n      tag_174\n      jumpi\n        /* \"#utility.yul\":3723:3802   */\n      tag_175\n      tag_81\n      jump\t// in\n    tag_175:\n        /* \"#utility.yul\":3687:3804   */\n    tag_174:\n        /* \"#utility.yul\":3828:3891   */\n      tag_176\n        /* \"#utility.yul\":3883:3890   */\n      dup8\n        /* \"#utility.yul\":3874:3880   */\n      dup3\n        /* \"#utility.yul\":3863:3872   */\n      dup9\n        /* \"#utility.yul\":3859:3881   */\n      add\n        /* \"#utility.yul\":3828:3891   */\n      tag_94\n      jump\t// in\n    tag_176:\n        /* \"#utility.yul\":3818:3891   */\n      swap3\n      pop\n        /* \"#utility.yul\":3613:3901   */\n      pop\n        /* \"#utility.yul\":3940:3942   */\n      0x60\n        /* \"#utility.yul\":3966:4019   */\n      tag_177\n        /* \"#utility.yul\":4011:4018   */\n      dup8\n        /* \"#utility.yul\":4002:4008   */\n      dup3\n        /* \"#utility.yul\":3991:4000   */\n      dup9\n        /* \"#utility.yul\":3987:4009   */\n      add\n        /* \"#utility.yul\":3966:4019   */\n      tag_84\n      jump\t// in\n    tag_177:\n        /* \"#utility.yul\":3956:4019   */\n      swap2\n      pop\n        /* \"#utility.yul\":3911:4029   */\n      pop\n        /* \"#utility.yul\":2911:4036   */\n      swap3\n      swap6\n      swap2\n      swap5\n      pop\n      swap3\n      pop\n      jump\t// out\n        /* \"#utility.yul\":4042:4371   */\n    tag_16:\n        /* \"#utility.yul\":4101:4107   */\n      0x00\n        /* \"#utility.yul\":4150:4152   */\n      0x20\n        /* \"#utility.yul\":4138:4147   */\n      dup3\n        /* \"#utility.yul\":4129:4136   */\n      dup5\n        /* \"#utility.yul\":4125:4148   */\n      sub\n        /* \"#utility.yul\":4121:4153   */\n      slt\n        /* \"#utility.yul\":4118:4237   */\n      iszero\n      tag_179\n      jumpi\n        /* \"#utility.yul\":4156:4235   */\n      tag_180\n      tag_80\n      jump\t// in\n    tag_180:\n        /* \"#utility.yul\":4118:4237   */\n    tag_179:\n        /* \"#utility.yul\":4276:4277   */\n      0x00\n        /* \"#utility.yul\":4301:4354   */\n      tag_181\n        /* \"#utility.yul\":4346:4353   */\n      dup5\n        /* \"#utility.yul\":4337:4343   */\n      dup3\n        /* \"#utility.yul\":4326:4335   */\n      dup6\n        /* \"#utility.yul\":4322:4344   */\n      add\n        /* \"#utility.yul\":4301:4354   */\n      tag_84\n      jump\t// in\n    tag_181:\n        /* \"#utility.yul\":4291:4354   */\n      swap2\n      pop\n        /* \"#utility.yul\":4247:4364   */\n      pop\n        /* \"#utility.yul\":4042:4371   */\n      swap3\n      swap2\n      pop\n      pop\n      jump\t// out\n        /* \"#utility.yul\":4377:4513   */\n    tag_95:\n        /* \"#utility.yul\":4466:4472   */\n      0x00\n        /* \"#utility.yul\":4500:4505   */\n      dup2\n        /* \"#utility.yul\":4494:4506   */\n      mload\n        /* \"#utility.yul\":4484:4506   */\n      swap1\n      pop\n        /* \"#utility.yul\":4377:4513   */\n      swap2\n      swap1\n      pop\n      jump\t// out\n        /* \"#utility.yul\":4519:4715   */\n    tag_96:\n        /* \"#utility.yul\":4630:4641   */\n      0x00\n        /* \"#utility.yul\":4664:4670   */\n      dup3\n        /* \"#utility.yul\":4659:4662   */\n      dup3\n        /* \"#utility.yul\":4652:4671   */\n      mstore\n        /* \"#utility.yul\":4704:4708   */\n      0x20\n        /* \"#utility.yul\":4699:4702   */\n      dup3\n        /* \"#utility.yul\":4695:4709   */\n      add\n        /* \"#utility.yul\":4680:4709   */\n      swap1\n      pop\n        /* \"#utility.yul\":4519:4715   */\n      swap3\n      swap2\n      pop\n      pop\n      jump\t// out\n        /* \"#utility.yul\":4721:4875   */\n    tag_97:\n        /* \"#utility.yul\":4810:4814   */\n      0x00\n        /* \"#utility.yul\":4833:4836   */\n      dup2\n        /* \"#utility.yul\":4825:4836   */\n      swap1\n      pop\n        /* \"#utility.yul\":4863:4867   */\n      0x20\n        /* \"#utility.yul\":4858:4861   */\n      dup3\n        /* \"#utility.yul\":4854:4868   */\n      add\n        /* \"#utility.yul\":4846:4868   */\n      swap1\n      pop\n        /* \"#utility.yul\":4721:4875   */\n      swap2\n      swap1\n      pop\n      jump\t// out\n        /* \"#utility.yul\":4881:4980   */\n    tag_98:\n        /* \"#utility.yul\":4933:4939   */\n      0x00\n        /* \"#utility.yul\":4967:4972   */\n      dup2\n        /* \"#utility.yul\":4961:4973   */\n      mload\n        /* \"#utility.yul\":4951:4973   */\n      swap1\n      pop\n        /* \"#utility.yul\":4881:4980   */\n      swap2\n      swap1\n      pop\n      jump\t// out\n        /* \"#utility.yul\":4986:5145   */\n    tag_99:\n        /* \"#utility.yul\":5060:5071   */\n      0x00\n        /* \"#utility.yul\":5094:5100   */\n      dup3\n        /* \"#utility.yul\":5089:5092   */\n      dup3\n        /* \"#utility.yul\":5082:5101   */\n      mstore\n        /* \"#utility.yul\":5134:5138   */\n      0x20\n        /* \"#utility.yul\":5129:5132   */\n      dup3\n        /* \"#utility.yul\":5125:5139   */\n      add\n        /* \"#utility.yul\":5110:5139   */\n      swap1\n      pop\n        /* \"#utility.yul\":4986:5145   */\n      swap3\n      swap2\n      pop\n      pop\n      jump\t// out\n        /* \"#utility.yul\":5151:5290   */\n    tag_100:\n        /* \"#utility.yul\":5240:5246   */\n      dup3\n        /* \"#utility.yul\":5235:5238   */\n      dup2\n        /* \"#utility.yul\":5230:5233   */\n      dup4\n        /* \"#utility.yul\":5224:5247   */\n      mcopy\n        /* \"#utility.yul\":5281:5282   */\n      0x00\n        /* \"#utility.yul\":5272:5278   */\n      dup4\n        /* \"#utility.yul\":5267:5270   */\n      dup4\n        /* \"#utility.yul\":5263:5279   */\n      add\n        /* \"#utility.yul\":5256:5283   */\n      mstore\n        /* \"#utility.yul\":5151:5290   */\n      pop\n      pop\n      pop\n      jump\t// out\n        /* \"#utility.yul\":5296:5653   */\n    tag_101:\n        /* \"#utility.yul\":5374:5377   */\n      0x00\n        /* \"#utility.yul\":5402:5441   */\n      tag_189\n        /* \"#utility.yul\":5435:5440   */\n      dup3\n        /* \"#utility.yul\":5402:5441   */\n      tag_98\n      jump\t// in\n    tag_189:\n        /* \"#utility.yul\":5457:5518   */\n      tag_190\n        /* \"#utility.yul\":5511:5517   */\n      dup2\n        /* \"#utility.yul\":5506:5509   */\n      dup6\n        /* \"#utility.yul\":5457:5518   */\n      tag_99\n      jump\t// in\n    tag_190:\n        /* \"#utility.yul\":5450:5518   */\n      swap4\n      pop\n        /* \"#utility.yul\":5527:5592   */\n      tag_191\n        /* \"#utility.yul\":5585:5591   */\n      dup2\n        /* \"#utility.yul\":5580:5583   */\n      dup6\n        /* \"#utility.yul\":5573:5577   */\n      0x20\n        /* \"#utility.yul\":5566:5571   */\n      dup7\n        /* \"#utility.yul\":5562:5578   */\n      add\n        /* \"#utility.yul\":5527:5592   */\n      tag_100\n      jump\t// in\n    tag_191:\n        /* \"#utility.yul\":5617:5646   */\n      tag_192\n        /* \"#utility.yul\":5639:5645   */\n      dup2\n        /* \"#utility.yul\":5617:5646   */\n      tag_87\n      jump\t// in\n    tag_192:\n        /* \"#utility.yul\":5612:5615   */\n      dup5\n        /* \"#utility.yul\":5608:5647   */\n      add\n        /* \"#utility.yul\":5601:5647   */\n      swap2\n      pop\n        /* \"#utility.yul\":5378:5653   */\n      pop\n        /* \"#utility.yul\":5296:5653   */\n      swap3\n      swap2\n      pop\n      pop\n      jump\t// out\n        /* \"#utility.yul\":5659:5767   */\n    tag_102:\n        /* \"#utility.yul\":5736:5760   */\n      tag_194\n        /* \"#utility.yul\":5754:5759   */\n      dup2\n        /* \"#utility.yul\":5736:5760   */\n      tag_82\n      jump\t// in\n    tag_194:\n        /* \"#utility.yul\":5731:5734   */\n      dup3\n        /* \"#utility.yul\":5724:5761   */\n      mstore\n        /* \"#utility.yul\":5659:5767   */\n      pop\n      pop\n      jump\t// out\n        /* \"#utility.yul\":5829:6672   */\n    tag_103:\n        /* \"#utility.yul\":5932:5935   */\n      0x00\n        /* \"#utility.yul\":5968:5972   */\n      0x60\n        /* \"#utility.yul\":5963:5966   */\n      dup4\n        /* \"#utility.yul\":5959:5973   */\n      add\n        /* \"#utility.yul\":6055:6059   */\n      0x00\n        /* \"#utility.yul\":6048:6053   */\n      dup4\n        /* \"#utility.yul\":6044:6060   */\n      add\n        /* \"#utility.yul\":6038:6061   */\n      mload\n        /* \"#utility.yul\":6108:6111   */\n      dup5\n        /* \"#utility.yul\":6102:6106   */\n      dup3\n        /* \"#utility.yul\":6098:6112   */\n      sub\n        /* \"#utility.yul\":6091:6095   */\n      0x00\n        /* \"#utility.yul\":6086:6089   */\n      dup7\n        /* \"#utility.yul\":6082:6096   */\n      add\n        /* \"#utility.yul\":6075:6113   */\n      mstore\n        /* \"#utility.yul\":6134:6207   */\n      tag_196\n        /* \"#utility.yul\":6202:6206   */\n      dup3\n        /* \"#utility.yul\":6188:6200   */\n      dup3\n        /* \"#utility.yul\":6134:6207   */\n      tag_101\n      jump\t// in\n    tag_196:\n        /* \"#utility.yul\":6126:6207   */\n      swap2\n      pop\n        /* \"#utility.yul\":5983:6218   */\n      pop\n        /* \"#utility.yul\":6306:6310   */\n      0x20\n        /* \"#utility.yul\":6299:6304   */\n      dup4\n        /* \"#utility.yul\":6295:6311   */\n      add\n        /* \"#utility.yul\":6289:6312   */\n      mload\n        /* \"#utility.yul\":6359:6362   */\n      dup5\n        /* \"#utility.yul\":6353:6357   */\n      dup3\n        /* \"#utility.yul\":6349:6363   */\n      sub\n        /* \"#utility.yul\":6342:6346   */\n      0x20\n        /* \"#utility.yul\":6337:6340   */\n      dup7\n        /* \"#utility.yul\":6333:6347   */\n      add\n        /* \"#utility.yul\":6326:6364   */\n      mstore\n        /* \"#utility.yul\":6385:6458   */\n      tag_197\n        /* \"#utility.yul\":6453:6457   */\n      dup3\n        /* \"#utility.yul\":6439:6451   */\n      dup3\n        /* \"#utility.yul\":6385:6458   */\n      tag_101\n      jump\t// in\n    tag_197:\n        /* \"#utility.yul\":6377:6458   */\n      swap2\n      pop\n        /* \"#utility.yul\":6228:6469   */\n      pop\n        /* \"#utility.yul\":6553:6557   */\n      0x40\n        /* \"#utility.yul\":6546:6551   */\n      dup4\n        /* \"#utility.yul\":6542:6558   */\n      add\n        /* \"#utility.yul\":6536:6559   */\n      mload\n        /* \"#utility.yul\":6572:6635   */\n      tag_198\n        /* \"#utility.yul\":6629:6633   */\n      0x40\n        /* \"#utility.yul\":6624:6627   */\n      dup7\n        /* \"#utility.yul\":6620:6634   */\n      add\n        /* \"#utility.yul\":6606:6618   */\n      dup3\n        /* \"#utility.yul\":6572:6635   */\n      tag_102\n      jump\t// in\n    tag_198:\n        /* \"#utility.yul\":6479:6645   */\n      pop\n        /* \"#utility.yul\":6662:6666   */\n      dup1\n        /* \"#utility.yul\":6655:6666   */\n      swap2\n      pop\n        /* \"#utility.yul\":5937:6672   */\n      pop\n        /* \"#utility.yul\":5829:6672   */\n      swap3\n      swap2\n      pop\n      pop\n      jump\t// out\n        /* \"#utility.yul\":6678:6922   */\n    tag_104:\n        /* \"#utility.yul\":6791:6801   */\n      0x00\n        /* \"#utility.yul\":6826:6916   */\n      tag_200\n        /* \"#utility.yul\":6912:6915   */\n      dup4\n        /* \"#utility.yul\":6904:6910   */\n      dup4\n        /* \"#utility.yul\":6826:6916   */\n      tag_103\n      jump\t// in\n    tag_200:\n        /* \"#utility.yul\":6812:6916   */\n      swap1\n      pop\n        /* \"#utility.yul\":6678:6922   */\n      swap3\n      swap2\n      pop\n      pop\n      jump\t// out\n        /* \"#utility.yul\":6928:7063   */\n    tag_105:\n        /* \"#utility.yul\":7020:7024   */\n      0x00\n        /* \"#utility.yul\":7052:7056   */\n      0x20\n        /* \"#utility.yul\":7047:7050   */\n      dup3\n        /* \"#utility.yul\":7043:7057   */\n      add\n        /* \"#utility.yul\":7035:7057   */\n      swap1\n      pop\n        /* \"#utility.yul\":6928:7063   */\n      swap2\n      swap1\n      pop\n      jump\t// out\n        /* \"#utility.yul\":7129:8196   */\n    tag_106:\n        /* \"#utility.yul\":7282:7285   */\n      0x00\n        /* \"#utility.yul\":7311:7387   */\n      tag_203\n        /* \"#utility.yul\":7381:7386   */\n      dup3\n        /* \"#utility.yul\":7311:7387   */\n      tag_95\n      jump\t// in\n    tag_203:\n        /* \"#utility.yul\":7403:7501   */\n      tag_204\n        /* \"#utility.yul\":7494:7500   */\n      dup2\n        /* \"#utility.yul\":7489:7492   */\n      dup6\n        /* \"#utility.yul\":7403:7501   */\n      tag_96\n      jump\t// in\n    tag_204:\n        /* \"#utility.yul\":7396:7501   */\n      swap4\n      pop\n        /* \"#utility.yul\":7527:7530   */\n      dup4\n        /* \"#utility.yul\":7572:7576   */\n      0x20\n        /* \"#utility.yul\":7564:7570   */\n      dup3\n        /* \"#utility.yul\":7560:7577   */\n      mul\n        /* \"#utility.yul\":7555:7558   */\n      dup6\n        /* \"#utility.yul\":7551:7578   */\n      add\n        /* \"#utility.yul\":7602:7680   */\n      tag_205\n        /* \"#utility.yul\":7674:7679   */\n      dup6\n        /* \"#utility.yul\":7602:7680   */\n      tag_97\n      jump\t// in\n    tag_205:\n        /* \"#utility.yul\":7703:7710   */\n      dup1\n        /* \"#utility.yul\":7734:7735   */\n      0x00\n        /* \"#utility.yul\":7719:8151   */\n    tag_206:\n        /* \"#utility.yul\":7744:7750   */\n      dup6\n        /* \"#utility.yul\":7741:7742   */\n      dup2\n        /* \"#utility.yul\":7738:7751   */\n      lt\n        /* \"#utility.yul\":7719:8151   */\n      iszero\n      tag_208\n      jumpi\n        /* \"#utility.yul\":7815:7824   */\n      dup5\n        /* \"#utility.yul\":7809:7813   */\n      dup5\n        /* \"#utility.yul\":7805:7825   */\n      sub\n        /* \"#utility.yul\":7800:7803   */\n      dup10\n        /* \"#utility.yul\":7793:7826   */\n      mstore\n        /* \"#utility.yul\":7866:7872   */\n      dup2\n        /* \"#utility.yul\":7860:7873   */\n      mload\n        /* \"#utility.yul\":7894:8002   */\n      tag_209\n        /* \"#utility.yul\":7997:8001   */\n      dup6\n        /* \"#utility.yul\":7982:7995   */\n      dup3\n        /* \"#utility.yul\":7894:8002   */\n      tag_104\n      jump\t// in\n    tag_209:\n        /* \"#utility.yul\":7886:8002   */\n      swap5\n      pop\n        /* \"#utility.yul\":8025:8107   */\n      tag_210\n        /* \"#utility.yul\":8100:8106   */\n      dup4\n        /* \"#utility.yul\":8025:8107   */\n      tag_105\n      jump\t// in\n    tag_210:\n        /* \"#utility.yul\":8015:8107   */\n      swap3\n      pop\n        /* \"#utility.yul\":8136:8140   */\n      0x20\n        /* \"#utility.yul\":8131:8134   */\n      dup11\n        /* \"#utility.yul\":8127:8141   */\n      add\n        /* \"#utility.yul\":8120:8141   */\n      swap10\n      pop\n        /* \"#utility.yul\":7779:8151   */\n      pop\n        /* \"#utility.yul\":7766:7767   */\n      0x01\n        /* \"#utility.yul\":7763:7764   */\n      dup2\n        /* \"#utility.yul\":7759:7768   */\n      add\n        /* \"#utility.yul\":7754:7768   */\n      swap1\n      pop\n        /* \"#utility.yul\":7719:8151   */\n      jump(tag_206)\n    tag_208:\n        /* \"#utility.yul\":7723:7737   */\n      pop\n        /* \"#utility.yul\":8167:8171   */\n      dup3\n        /* \"#utility.yul\":8160:8171   */\n      swap8\n      pop\n        /* \"#utility.yul\":8187:8190   */\n      dup8\n        /* \"#utility.yul\":8180:8190   */\n      swap6\n      pop\n        /* \"#utility.yul\":7287:8196   */\n      pop\n      pop\n      pop\n      pop\n      pop\n        /* \"#utility.yul\":7129:8196   */\n      swap3\n      swap2\n      pop\n      pop\n      jump\t// out\n        /* \"#utility.yul\":8270:8790   */\n    tag_107:\n        /* \"#utility.yul\":8395:8398   */\n      0x00\n        /* \"#utility.yul\":8431:8435   */\n      0x20\n        /* \"#utility.yul\":8426:8429   */\n      dup4\n        /* \"#utility.yul\":8422:8436   */\n      add\n        /* \"#utility.yul\":8526:8530   */\n      0x00\n        /* \"#utility.yul\":8519:8524   */\n      dup4\n        /* \"#utility.yul\":8515:8531   */\n      add\n        /* \"#utility.yul\":8509:8532   */\n      mload\n        /* \"#utility.yul\":8579:8582   */\n      dup5\n        /* \"#utility.yul\":8573:8577   */\n      dup3\n        /* \"#utility.yul\":8569:8583   */\n      sub\n        /* \"#utility.yul\":8562:8566   */\n      0x00\n        /* \"#utility.yul\":8557:8560   */\n      dup7\n        /* \"#utility.yul\":8553:8567   */\n      add\n        /* \"#utility.yul\":8546:8584   */\n      mstore\n        /* \"#utility.yul\":8605:8752   */\n      tag_212\n        /* \"#utility.yul\":8747:8751   */\n      dup3\n        /* \"#utility.yul\":8733:8745   */\n      dup3\n        /* \"#utility.yul\":8605:8752   */\n      tag_106\n      jump\t// in\n    tag_212:\n        /* \"#utility.yul\":8597:8752   */\n      swap2\n      pop\n        /* \"#utility.yul\":8446:8763   */\n      pop\n        /* \"#utility.yul\":8780:8784   */\n      dup1\n        /* \"#utility.yul\":8773:8784   */\n      swap2\n      pop\n        /* \"#utility.yul\":8400:8790   */\n      pop\n        /* \"#utility.yul\":8270:8790   */\n      swap3\n      swap2\n      pop\n      pop\n      jump\t// out\n        /* \"#utility.yul\":8796:9181   */\n    tag_19:\n        /* \"#utility.yul\":8945:8949   */\n      0x00\n        /* \"#utility.yul\":8983:8985   */\n      0x20\n        /* \"#utility.yul\":8972:8981   */\n      dup3\n        /* \"#utility.yul\":8968:8986   */\n      add\n        /* \"#utility.yul\":8960:8986   */\n      swap1\n      pop\n        /* \"#utility.yul\":9032:9041   */\n      dup2\n        /* \"#utility.yul\":9026:9030   */\n      dup2\n        /* \"#utility.yul\":9022:9042   */\n      sub\n        /* \"#utility.yul\":9018:9019   */\n      0x00\n        /* \"#utility.yul\":9007:9016   */\n      dup4\n        /* \"#utility.yul\":9003:9020   */\n      add\n        /* \"#utility.yul\":8996:9043   */\n      mstore\n        /* \"#utility.yul\":9060:9174   */\n      tag_214\n        /* \"#utility.yul\":9169:9173   */\n      dup2\n        /* \"#utility.yul\":9160:9166   */\n      dup5\n        /* \"#utility.yul\":9060:9174   */\n      tag_107\n      jump\t// in\n    tag_214:\n        /* \"#utility.yul\":9052:9174   */\n      swap1\n      pop\n        /* \"#utility.yul\":8796:9181   */\n      swap3\n      swap2\n      pop\n      pop\n      jump\t// out\n        /* \"#utility.yul\":9187:9305   */\n    tag_108:\n        /* \"#utility.yul\":9274:9298   */\n      tag_216\n        /* \"#utility.yul\":9292:9297   */\n      dup2\n        /* \"#utility.yul\":9274:9298   */\n      tag_82\n      jump\t// in\n    tag_216:\n        /* \"#utility.yul\":9269:9272   */\n      dup3\n        /* \"#utility.yul\":9262:9299   */\n      mstore\n        /* \"#utility.yul\":9187:9305   */\n      pop\n      pop\n      jump\t// out\n        /* \"#utility.yul\":9311:9437   */\n    tag_109:\n        /* \"#utility.yul\":9348:9355   */\n      0x00\n        /* \"#utility.yul\":9388:9430   */\n      0xffffffffffffffffffffffffffffffffffffffff\n        /* \"#utility.yul\":9381:9386   */\n      dup3\n        /* \"#utility.yul\":9377:9431   */\n      and\n        /* \"#utility.yul\":9366:9431   */\n      swap1\n      pop\n        /* \"#utility.yul\":9311:9437   */\n      swap2\n      swap1\n      pop\n      jump\t// out\n        /* \"#utility.yul\":9443:9539   */\n    tag_110:\n        /* \"#utility.yul\":9480:9487   */\n      0x00\n        /* \"#utility.yul\":9509:9533   */\n      tag_219\n        /* \"#utility.yul\":9527:9532   */\n      dup3\n        /* \"#utility.yul\":9509:9533   */\n      tag_109\n      jump\t// in\n    tag_219:\n        /* \"#utility.yul\":9498:9533   */\n      swap1\n      pop\n        /* \"#utility.yul\":9443:9539   */\n      swap2\n      swap1\n      pop\n      jump\t// out\n        /* \"#utility.yul\":9545:9663   */\n    tag_111:\n        /* \"#utility.yul\":9632:9656   */\n      tag_221\n        /* \"#utility.yul\":9650:9655   */\n      dup2\n        /* \"#utility.yul\":9632:9656   */\n      tag_110\n      jump\t// in\n    tag_221:\n        /* \"#utility.yul\":9627:9630   */\n      dup3\n        /* \"#utility.yul\":9620:9657   */\n      mstore\n        /* \"#utility.yul\":9545:9663   */\n      pop\n      pop\n      jump\t// out\n        /* \"#utility.yul\":9669:10001   */\n    tag_31:\n        /* \"#utility.yul\":9790:9794   */\n      0x00\n        /* \"#utility.yul\":9828:9830   */\n      0x40\n        /* \"#utility.yul\":9817:9826   */\n      dup3\n        /* \"#utility.yul\":9813:9831   */\n      add\n        /* \"#utility.yul\":9805:9831   */\n      swap1\n      pop\n        /* \"#utility.yul\":9841:9912   */\n      tag_223\n        /* \"#utility.yul\":9909:9910   */\n      0x00\n        /* \"#utility.yul\":9898:9907   */\n      dup4\n        /* \"#utility.yul\":9894:9911   */\n      add\n        /* \"#utility.yul\":9885:9891   */\n      dup6\n        /* \"#utility.yul\":9841:9912   */\n      tag_108\n      jump\t// in\n    tag_223:\n        /* \"#utility.yul\":9922:9994   */\n      tag_224\n        /* \"#utility.yul\":9990:9992   */\n      0x20\n        /* \"#utility.yul\":9979:9988   */\n      dup4\n        /* \"#utility.yul\":9975:9993   */\n      add\n        /* \"#utility.yul\":9966:9972   */\n      dup5\n        /* \"#utility.yul\":9922:9994   */\n      tag_111\n      jump\t// in\n    tag_224:\n        /* \"#utility.yul\":9669:10001   */\n      swap4\n      swap3\n      pop\n      pop\n      pop\n      jump\t// out\n        /* \"#utility.yul\":10007:10187   */\n    tag_112:\n        /* \"#utility.yul\":10055:10132   */\n      0x4e487b7100000000000000000000000000000000000000000000000000000000\n        /* \"#utility.yul\":10052:10053   */\n      0x00\n        /* \"#utility.yul\":10045:10133   */\n      mstore\n        /* \"#utility.yul\":10152:10156   */\n      0x22\n        /* \"#utility.yul\":10149:10150   */\n      0x04\n        /* \"#utility.yul\":10142:10157   */\n      mstore\n        /* \"#utility.yul\":10176:10180   */\n      0x24\n        /* \"#utility.yul\":10173:10174   */\n      0x00\n        /* \"#utility.yul\":10166:10181   */\n      revert\n        /* \"#utility.yul\":10193:10513   */\n    tag_46:\n        /* \"#utility.yul\":10237:10243   */\n      0x00\n        /* \"#utility.yul\":10274:10275   */\n      0x02\n        /* \"#utility.yul\":10268:10272   */\n      dup3\n        /* \"#utility.yul\":10264:10276   */\n      div\n        /* \"#utility.yul\":10254:10276   */\n      swap1\n      pop\n        /* \"#utility.yul\":10321:10322   */\n      0x01\n        /* \"#utility.yul\":10315:10319   */\n      dup3\n        /* \"#utility.yul\":10311:10323   */\n      and\n        /* \"#utility.yul\":10342:10360   */\n      dup1\n        /* \"#utility.yul\":10332:10413   */\n      tag_227\n      jumpi\n        /* \"#utility.yul\":10398:10402   */\n      0x7f\n        /* \"#utility.yul\":10390:10396   */\n      dup3\n        /* \"#utility.yul\":10386:10403   */\n      and\n        /* \"#utility.yul\":10376:10403   */\n      swap2\n      pop\n        /* \"#utility.yul\":10332:10413   */\n    tag_227:\n        /* \"#utility.yul\":10460:10462   */\n      0x20\n        /* \"#utility.yul\":10452:10458   */\n      dup3\n        /* \"#utility.yul\":10449:10463   */\n      lt\n        /* \"#utility.yul\":10429:10447   */\n      dup2\n        /* \"#utility.yul\":10426:10464   */\n      sub\n        /* \"#utility.yul\":10423:10507   */\n      tag_228\n      jumpi\n        /* \"#utility.yul\":10479:10497   */\n      tag_229\n      tag_112\n      jump\t// in\n    tag_229:\n        /* \"#utility.yul\":10423:10507   */\n    tag_228:\n        /* \"#utility.yul\":10244:10513   */\n      pop\n        /* \"#utility.yul\":10193:10513   */\n      swap2\n      swap1\n      pop\n      jump\t// out\n        /* \"#utility.yul\":10519:10660   */\n    tag_113:\n        /* \"#utility.yul\":10568:10572   */\n      0x00\n        /* \"#utility.yul\":10591:10594   */\n      dup2\n        /* \"#utility.yul\":10583:10594   */\n      swap1\n      pop\n        /* \"#utility.yul\":10614:10617   */\n      dup2\n        /* \"#utility.yul\":10611:10612   */\n      0x00\n        /* \"#utility.yul\":10604:10618   */\n      mstore\n        /* \"#utility.yul\":10648:10652   */\n      0x20\n        /* \"#utility.yul\":10645:10646   */\n      0x00\n        /* \"#utility.yul\":10635:10653   */\n      keccak256\n        /* \"#utility.yul\":10627:10653   */\n      swap1\n      pop\n        /* \"#utility.yul\":10519:10660   */\n      swap2\n      swap1\n      pop\n      jump\t// out\n        /* \"#utility.yul\":10666:10759   */\n    tag_114:\n        /* \"#utility.yul\":10703:10709   */\n      0x00\n        /* \"#utility.yul\":10750:10752   */\n      0x20\n        /* \"#utility.yul\":10745:10747   */\n      0x1f\n        /* \"#utility.yul\":10738:10743   */\n      dup4\n        /* \"#utility.yul\":10734:10748   */\n      add\n        /* \"#utility.yul\":10730:10753   */\n      div\n        /* \"#utility.yul\":10720:10753   */\n      swap1\n      pop\n        /* \"#utility.yul\":10666:10759   */\n      swap2\n      swap1\n      pop\n      jump\t// out\n        /* \"#utility.yul\":10765:10872   */\n    tag_115:\n        /* \"#utility.yul\":10809:10817   */\n      0x00\n        /* \"#utility.yul\":10859:10864   */\n      dup3\n        /* \"#utility.yul\":10853:10857   */\n      dup3\n        /* \"#utility.yul\":10849:10865   */\n      shl\n        /* \"#utility.yul\":10828:10865   */\n      swap1\n      pop\n        /* \"#utility.yul\":10765:10872   */\n      swap3\n      swap2\n      pop\n      pop\n      jump\t// out\n        /* \"#utility.yul\":10878:11271   */\n    tag_116:\n        /* \"#utility.yul\":10947:10953   */\n      0x00\n        /* \"#utility.yul\":10997:10998   */\n      0x08\n        /* \"#utility.yul\":10985:10995   */\n      dup4\n        /* \"#utility.yul\":10981:10999   */\n      mul\n        /* \"#utility.yul\":11020:11117   */\n      tag_234\n        /* \"#utility.yul\":11050:11116   */\n      0xffffffffffffffffffffffffffffffffffffffffffffffffffffffffffffffff\n        /* \"#utility.yul\":11039:11048   */\n      dup3\n        /* \"#utility.yul\":11020:11117   */\n      tag_115\n      jump\t// in\n    tag_234:\n        /* \"#utility.yul\":11138:11177   */\n      tag_235\n        /* \"#utility.yul\":11168:11176   */\n      dup7\n        /* \"#utility.yul\":11157:11166   */\n      dup4\n        /* \"#utility.yul\":11138:11177   */\n      tag_115\n      jump\t// in\n    tag_235:\n        /* \"#utility.yul\":11126:11177   */\n      swap6\n      pop\n        /* \"#utility.yul\":11210:11214   */\n      dup1\n        /* \"#utility.yul\":11206:11215   */\n      not\n        /* \"#utility.yul\":11199:11204   */\n      dup5\n        /* \"#utility.yul\":11195:11216   */\n      and\n        /* \"#utility.yul\":11186:11216   */\n      swap4\n      pop\n        /* \"#utility.yul\":11259:11263   */\n      dup1\n        /* \"#utility.yul\":11249:11257   */\n      dup7\n        /* \"#utility.yul\":11245:11264   */\n      and\n        /* \"#utility.yul\":11238:11243   */\n      dup5\n        /* \"#utility.yul\":11235:11265   */\n      or\n        /* \"#utility.yul\":11225:11265   */\n      swap3\n      pop\n        /* \"#utility.yul\":10954:11271   */\n      pop\n      pop\n        /* \"#utility.yul\":10878:11271   */\n      swap4\n      swap3\n      pop\n      pop\n      pop\n      jump\t// out\n        /* \"#utility.yul\":11277:11337   */\n    tag_117:\n        /* \"#utility.yul\":11305:11308   */\n      0x00\n        /* \"#utility.yul\":11326:11331   */\n      dup2\n        /* \"#utility.yul\":11319:11331   */\n      swap1\n      pop\n        /* \"#utility.yul\":11277:11337   */\n      swap2\n      swap1\n      pop\n      jump\t// out\n        /* \"#utility.yul\":11343:11485   */\n    tag_118:\n        /* \"#utility.yul\":11393:11402   */\n      0x00\n        /* \"#utility.yul\":11426:11479   */\n      tag_238\n        /* \"#utility.yul\":11444:11478   */\n      tag_239\n        /* \"#utility.yul\":11453:11477   */\n      tag_240\n        /* \"#utility.yul\":11471:11476   */\n      dup5\n        /* \"#utility.yul\":11453:11477   */\n      tag_82\n      jump\t// in\n    tag_240:\n        /* \"#utility.yul\":11444:11478   */\n      tag_117\n      jump\t// in\n    tag_239:\n        /* \"#utility.yul\":11426:11479   */\n      tag_82\n      jump\t// in\n    tag_238:\n        /* \"#utility.yul\":11413:11479   */\n      swap1\n      pop\n        /* \"#utility.yul\":11343:11485   */\n      swap2\n      swap1\n      pop\n      jump\t// out\n        /* \"#utility.yul\":11491:11566   */\n    tag_119:\n        /* \"#utility.yul\":11534:11537   */\n      0x00\n        /* \"#utility.yul\":11555:11560   */\n      dup2\n        /* \"#utility.yul\":11548:11560   */\n      swap1\n      pop\n        /* \"#utility.yul\":11491:11566   */\n      swap2\n      swap1\n      pop\n      jump\t// out\n        /* \"#utility.yul\":11572:11841   */\n    tag_120:\n        /* \"#utility.yul\":11682:11721   */\n      tag_243\n        /* \"#utility.yul\":11713:11720   */\n      dup4\n        /* \"#utility.yul\":11682:11721   */\n      tag_118\n      jump\t// in\n    tag_243:\n        /* \"#utility.yul\":11743:11834   */\n      tag_244\n        /* \"#utility.yul\":11792:11833   */\n      tag_245\n        /* \"#utility.yul\":11816:11832   */\n      dup3\n        /* \"#utility.yul\":11792:11833   */\n      tag_119\n      jump\t// in\n    tag_245:\n        /* \"#utility.yul\":11784:11790   */\n      dup5\n        /* \"#utility.yul\":11777:11781   */\n      dup5\n        /* \"#utility.yul\":11771:11782   */\n      sload\n        /* \"#utility.yul\":11743:11834   */\n      tag_116\n      jump\t// in\n    tag_244:\n        /* \"#utility.yul\":11737:11741   */\n      dup3\n        /* \"#utility.yul\":11730:11835   */\n      sstore\n        /* \"#utility.yul\":11648:11841   */\n      pop\n        /* \"#utility.yul\":11572:11841   */\n      pop\n      pop\n      pop\n      jump\t// out\n        /* \"#utility.yul\":11847:11920   */\n    tag_121:\n        /* \"#utility.yul\":11892:11895   */\n      0x00\n        /* \"#utility.yul\":11847:11920   */\n      swap1\n      jump\t// out\n        /* \"#utility.yul\":11926:12115   */\n    tag_122:\n        /* \"#utility.yul\":12003:12035   */\n      tag_248\n      tag_121\n      jump\t// in\n    tag_248:\n        /* \"#utility.yul\":12044:12109   */\n      tag_249\n        /* \"#utility.yul\":12102:12108   */\n      dup2\n        /* \"#utility.yul\":12094:12100   */\n      dup5\n        /* \"#utility.yul\":12088:12092   */\n      dup5\n        /* \"#utility.yul\":12044:12109   */\n      tag_120\n      jump\t// in\n    tag_249:\n        /* \"#utility.yul\":11979:12115   */\n      pop\n        /* \"#utility.yul\":11926:12115   */\n      pop\n      pop\n      jump\t// out\n        /* \"#utility.yul\":12121:12307   */\n    tag_123:\n        /* \"#utility.yul\":12181:12301   */\n    tag_251:\n        /* \"#utility.yul\":12198:12201   */\n      dup2\n        /* \"#utility.yul\":12191:12196   */\n      dup2\n        /* \"#utility.yul\":12188:12202   */\n      lt\n        /* \"#utility.yul\":12181:12301   */\n      iszero\n      tag_253\n      jumpi\n        /* \"#utility.yul\":12252:12291   */\n      tag_254\n        /* \"#utility.yul\":12289:12290   */\n      0x00\n        /* \"#utility.yul\":12282:12287   */\n      dup3\n        /* \"#utility.yul\":12252:12291   */\n      tag_122\n      jump\t// in\n    tag_254:\n        /* \"#utility.yul\":12225:12226   */\n      0x01\n        /* \"#utility.yul\":12218:12223   */\n      dup2\n        /* \"#utility.yul\":12214:12227   */\n      add\n        /* \"#utility.yul\":12205:12227   */\n      swap1\n      pop\n        /* \"#utility.yul\":12181:12301   */\n      jump(tag_251)\n    tag_253:\n        /* \"#utility.yul\":12121:12307   */\n      pop\n      pop\n      jump\t// out\n        /* \"#utility.yul\":12313:12856   */\n    tag_124:\n        /* \"#utility.yul\":12414:12416   */\n      0x1f\n        /* \"#utility.yul\":12409:12412   */\n      dup3\n        /* \"#utility.yul\":12406:12417   */\n      gt\n        /* \"#utility.yul\":12403:12849   */\n      iszero\n      tag_256\n      jumpi\n        /* \"#utility.yul\":12448:12486   */\n      tag_257\n        /* \"#utility.yul\":12480:12485   */\n      dup2\n        /* \"#utility.yul\":12448:12486   */\n      tag_113\n      jump\t// in\n    tag_257:\n        /* \"#utility.yul\":12532:12561   */\n      tag_258\n        /* \"#utility.yul\":12550:12560   */\n      dup5\n        /* \"#utility.yul\":12532:12561   */\n      tag_114\n      jump\t// in\n    tag_258:\n        /* \"#utility.yul\":12522:12530   */\n      dup2\n        /* \"#utility.yul\":12518:12562   */\n      add\n        /* \"#utility.yul\":12715:12717   */\n      0x20\n        /* \"#utility.yul\":12703:12713   */\n      dup6\n        /* \"#utility.yul\":12700:12718   */\n      lt\n        /* \"#utility.yul\":12697:12746   */\n      iszero\n      tag_259\n      jumpi\n        /* \"#utility.yul\":12736:12744   */\n      dup2\n        /* \"#utility.yul\":12721:12744   */\n      swap1\n      pop\n        /* \"#utility.yul\":12697:12746   */\n    tag_259:\n        /* \"#utility.yul\":12759:12839   */\n      tag_260\n        /* \"#utility.yul\":12815:12837   */\n      tag_261\n        /* \"#utility.yul\":12833:12836   */\n      dup6\n        /* \"#utility.yul\":12815:12837   */\n      tag_114\n      jump\t// in\n    tag_261:\n        /* \"#utility.yul\":12805:12813   */\n      dup4\n        /* \"#utility.yul\":12801:12838   */\n      add\n        /* \"#utility.yul\":12788:12799   */\n      dup3\n        /* \"#utility.yul\":12759:12839   */\n      tag_123\n      jump\t// in\n    tag_260:\n        /* \"#utility.yul\":12418:12849   */\n      pop\n      pop\n        /* \"#utility.yul\":12403:12849   */\n    tag_256:\n        /* \"#utility.yul\":12313:12856   */\n      pop\n      pop\n      pop\n      jump\t// out\n        /* \"#utility.yul\":12862:12979   */\n    tag_125:\n        /* \"#utility.yul\":12916:12924   */\n      0x00\n        /* \"#utility.yul\":12966:12971   */\n      dup3\n        /* \"#utility.yul\":12960:12964   */\n      dup3\n        /* \"#utility.yul\":12956:12972   */\n      shr\n        /* \"#utility.yul\":12935:12972   */\n      swap1\n      pop\n        /* \"#utility.yul\":12862:12979   */\n      swap3\n      swap2\n      pop\n      pop\n      jump\t// out\n        /* \"#utility.yul\":12985:13154   */\n    tag_126:\n        /* \"#utility.yul\":13029:13035   */\n      0x00\n        /* \"#utility.yul\":13062:13113   */\n      tag_264\n        /* \"#utility.yul\":13110:13111   */\n      0x00\n        /* \"#utility.yul\":13106:13112   */\n      not\n        /* \"#utility.yul\":13098:13103   */\n      dup5\n        /* \"#utility.yul\":13095:13096   */\n      0x08\n        /* \"#utility.yul\":13091:13104   */\n      mul\n        /* \"#utility.yul\":13062:13113   */\n      tag_125\n      jump\t// in\n    tag_264:\n        /* \"#utility.yul\":13058:13114   */\n      not\n        /* \"#utility.yul\":13143:13147   */\n      dup1\n        /* \"#utility.yul\":13137:13141   */\n      dup4\n        /* \"#utility.yul\":13133:13148   */\n      and\n        /* \"#utility.yul\":13123:13148   */\n      swap2\n      pop\n        /* \"#utility.yul\":13036:13154   */\n      pop\n        /* \"#utility.yul\":12985:13154   */\n      swap3\n      swap2\n      pop\n      pop\n      jump\t// out\n        /* \"#utility.yul\":13159:13454   */\n    tag_127:\n        /* \"#utility.yul\":13235:13239   */\n      0x00\n        /* \"#utility.yul\":13381:13410   */\n      tag_266\n        /* \"#utility.yul\":13406:13409   */\n      dup4\n        /* \"#utility.yul\":13400:13404   */\n      dup4\n        /* \"#utility.yul\":13381:13410   */\n      tag_126\n      jump\t// in\n    tag_266:\n        /* \"#utility.yul\":13373:13410   */\n      swap2\n      pop\n        /* \"#utility.yul\":13443:13446   */\n      dup3\n        /* \"#utility.yul\":13440:13441   */\n      0x02\n        /* \"#utility.yul\":13436:13447   */\n      mul\n        /* \"#utility.yul\":13430:13434   */\n      dup3\n        /* \"#utility.yul\":13427:13448   */\n      or\n        /* \"#utility.yul\":13419:13448   */\n      swap1\n      pop\n        /* \"#utility.yul\":13159:13454   */\n      swap3\n      swap2\n      pop\n      pop\n      jump\t// out\n        /* \"#utility.yul\":13459:14854   */\n    tag_37:\n        /* \"#utility.yul\":13576:13613   */\n      tag_268\n        /* \"#utility.yul\":13609:13612   */\n      dup3\n        /* \"#utility.yul\":13576:13613   */\n      tag_98\n      jump\t// in\n    tag_268:\n        /* \"#utility.yul\":13678:13696   */\n      0xffffffffffffffff\n        /* \"#utility.yul\":13670:13676   */\n      dup2\n        /* \"#utility.yul\":13667:13697   */\n      gt\n        /* \"#utility.yul\":13664:13720   */\n      iszero\n      tag_269\n      jumpi\n        /* \"#utility.yul\":13700:13718   */\n      tag_270\n      tag_88\n      jump\t// in\n    tag_270:\n        /* \"#utility.yul\":13664:13720   */\n    tag_269:\n        /* \"#utility.yul\":13744:13782   */\n      tag_271\n        /* \"#utility.yul\":13776:13780   */\n      dup3\n        /* \"#utility.yul\":13770:13781   */\n      sload\n        /* \"#utility.yul\":13744:13782   */\n      tag_46\n      jump\t// in\n    tag_271:\n        /* \"#utility.yul\":13829:13896   */\n      tag_272\n        /* \"#utility.yul\":13889:13895   */\n      dup3\n        /* \"#utility.yul\":13881:13887   */\n      dup3\n        /* \"#utility.yul\":13875:13879   */\n      dup6\n        /* \"#utility.yul\":13829:13896   */\n      tag_124\n      jump\t// in\n    tag_272:\n        /* \"#utility.yul\":13923:13924   */\n      0x00\n        /* \"#utility.yul\":13947:13951   */\n      0x20\n        /* \"#utility.yul\":13934:13951   */\n      swap1\n      pop\n        /* \"#utility.yul\":13979:13981   */\n      0x1f\n        /* \"#utility.yul\":13971:13977   */\n      dup4\n        /* \"#utility.yul\":13968:13982   */\n      gt\n        /* \"#utility.yul\":13996:13997   */\n      0x01\n        /* \"#utility.yul\":13991:14609   */\n      dup2\n      eq\n      tag_274\n      jumpi\n        /* \"#utility.yul\":14653:14654   */\n      0x00\n        /* \"#utility.yul\":14670:14676   */\n      dup5\n        /* \"#utility.yul\":14667:14744   */\n      iszero\n      tag_275\n      jumpi\n        /* \"#utility.yul\":14719:14728   */\n      dup3\n        /* \"#utility.yul\":14714:14717   */\n      dup8\n        /* \"#utility.yul\":14710:14729   */\n      add\n        /* \"#utility.yul\":14704:14730   */\n      mload\n        /* \"#utility.yul\":14695:14730   */\n      swap1\n      pop\n        /* \"#utility.yul\":14667:14744   */\n    tag_275:\n        /* \"#utility.yul\":14770:14837   */\n      tag_276\n        /* \"#utility.yul\":14830:14836   */\n      dup6\n        /* \"#utility.yul\":14823:14828   */\n      dup3\n        /* \"#utility.yul\":14770:14837   */\n      tag_127\n      jump\t// in\n    tag_276:\n        /* \"#utility.yul\":14764:14768   */\n      dup7\n        /* \"#utility.yul\":14757:14838   */\n      sstore\n        /* \"#utility.yul\":14626:14848   */\n      pop\n        /* \"#utility.yul\":13961:14848   */\n      jump(tag_273)\n        /* \"#utility.yul\":13991:14609   */\n    tag_274:\n        /* \"#utility.yul\":14043:14047   */\n      0x1f\n        /* \"#utility.yul\":14039:14048   */\n      not\n        /* \"#utility.yul\":14031:14037   */\n      dup5\n        /* \"#utility.yul\":14027:14049   */\n      and\n        /* \"#utility.yul\":14077:14114   */\n      tag_277\n        /* \"#utility.yul\":14109:14113   */\n      dup7\n        /* \"#utility.yul\":14077:14114   */\n      tag_113\n      jump\t// in\n    tag_277:\n        /* \"#utility.yul\":14136:14137   */\n      0x00\n        /* \"#utility.yul\":14150:14358   */\n    tag_278:\n        /* \"#utility.yul\":14164:14171   */\n      dup3\n        /* \"#utility.yul\":14161:14162   */\n      dup2\n        /* \"#utility.yul\":14158:14172   */\n      lt\n        /* \"#utility.yul\":14150:14358   */\n      iszero\n      tag_280\n      jumpi\n        /* \"#utility.yul\":14243:14252   */\n      dup5\n        /* \"#utility.yul\":14238:14241   */\n      dup10\n        /* \"#utility.yul\":14234:14253   */\n      add\n        /* \"#utility.yul\":14228:14254   */\n      mload\n        /* \"#utility.yul\":14220:14226   */\n      dup3\n        /* \"#utility.yul\":14213:14255   */\n      sstore\n        /* \"#utility.yul\":14294:14295   */\n      0x01\n        /* \"#utility.yul\":14286:14292   */\n      dup3\n        /* \"#utility.yul\":14282:14296   */\n      add\n        /* \"#utility.yul\":14272:14296   */\n      swap2\n      pop\n        /* \"#utility.yul\":14341:14343   */\n      0x20\n        /* \"#utility.yul\":14330:14339   */\n      dup6\n        /* \"#utility.yul\":14326:14344   */\n      add\n        /* \"#utility.yul\":14313:14344   */\n      swap5\n      pop\n        /* \"#utility.yul\":14187:14191   */\n      0x20\n        /* \"#utility.yul\":14184:14185   */\n      dup2\n        /* \"#utility.yul\":14180:14192   */\n      add\n        /* \"#utility.yul\":14175:14192   */\n      swap1\n      pop\n        /* \"#utility.yul\":14150:14358   */\n      jump(tag_278)\n    tag_280:\n        /* \"#utility.yul\":14386:14392   */\n      dup7\n        /* \"#utility.yul\":14377:14384   */\n      dup4\n        /* \"#utility.yul\":14374:14393   */\n      lt\n        /* \"#utility.yul\":14371:14550   */\n      iszero\n      tag_281\n      jumpi\n        /* \"#utility.yul\":14444:14453   */\n      dup5\n        /* \"#utility.yul\":14439:14442   */\n      dup10\n        /* \"#utility.yul\":14435:14454   */\n      add\n        /* \"#utility.yul\":14429:14455   */\n      mload\n        /* \"#utility.yul\":14487:14535   */\n      tag_282\n        /* \"#utility.yul\":14529:14533   */\n      0x1f\n        /* \"#utility.yul\":14521:14527   */\n      dup10\n        /* \"#utility.yul\":14517:14534   */\n      and\n        /* \"#utility.yul\":14506:14515   */\n      dup3\n        /* \"#utility.yul\":14487:14535   */\n      tag_126\n      jump\t// in\n    tag_282:\n        /* \"#utility.yul\":14479:14485   */\n      dup4\n        /* \"#utility.yul\":14472:14536   */\n      sstore\n        /* \"#utility.yul\":14394:14550   */\n      pop\n        /* \"#utility.yul\":14371:14550   */\n    tag_281:\n        /* \"#utility.yul\":14596:14597   */\n      0x01\n        /* \"#utility.yul\":14592:14593   */\n      0x02\n        /* \"#utility.yul\":14584:14590   */\n      dup9\n        /* \"#utility.yul\":14580:14594   */\n      mul\n        /* \"#utility.yul\":14576:14598   */\n      add\n        /* \"#utility.yul\":14570:14574   */\n      dup9\n        /* \"#utility.yul\":14563:14599   */\n      sstore\n        /* \"#utility.yul\":13998:14609   */\n      pop\n      pop\n      pop\n        /* \"#utility.yul\":13961:14848   */\n    tag_273:\n      pop\n        /* \"#utility.yul\":13551:14854   */\n      pop\n      pop\n      pop\n        /* \"#utility.yul\":13459:14854   */\n      pop\n      pop\n      jump\t// out\n        /* \"#utility.yul\":14860:15040   */\n    tag_62:\n        /* \"#utility.yul\":14908:14985   */\n      0x4e487b7100000000000000000000000000000000000000000000000000000000\n        /* \"#utility.yul\":14905:14906   */\n      0x00\n        /* \"#utility.yul\":14898:14986   */\n      mstore\n        /* \"#utility.yul\":15005:15009   */\n      0x31\n        /* \"#utility.yul\":15002:15003   */\n      0x04\n        /* \"#utility.yul\":14995:15010   */\n      mstore\n        /* \"#utility.yul\":15029:15033   */\n      0x24\n        /* \"#utility.yul\":15026:15027   */\n      0x00\n        /* \"#utility.yul\":15019:15034   */\n      revert\n        /* \"#utility.yul\":15046:15215   */\n    tag_128:\n        /* \"#utility.yul\":15130:15141   */\n      0x00\n        /* \"#utility.yul\":15164:15170   */\n      dup3\n        /* \"#utility.yul\":15159:15162   */\n      dup3\n        /* \"#utility.yul\":15152:15171   */\n      mstore\n        /* \"#utility.yul\":15204:15208   */\n      0x20\n        /* \"#utility.yul\":15199:15202   */\n      dup3\n        /* \"#utility.yul\":15195:15209   */\n      add\n        /* \"#utility.yul\":15180:15209   */\n      swap1\n      pop\n        /* \"#utility.yul\":15046:15215   */\n      swap3\n      swap2\n      pop\n      pop\n      jump\t// out\n        /* \"#utility.yul\":15221:15446   */\n    tag_129:\n        /* \"#utility.yul\":15361:15395   */\n      0x596f752063616e6e6f7420686176652061636365737320746f20726561642062\n        /* \"#utility.yul\":15357:15358   */\n      0x00\n        /* \"#utility.yul\":15349:15355   */\n      dup3\n        /* \"#utility.yul\":15345:15359   */\n      add\n        /* \"#utility.yul\":15338:15396   */\n      mstore\n        /* \"#utility.yul\":15430:15438   */\n      0x616c616e63650000000000000000000000000000000000000000000000000000\n        /* \"#utility.yul\":15425:15427   */\n      0x20\n        /* \"#utility.yul\":15417:15423   */\n      dup3\n        /* \"#utility.yul\":15413:15428   */\n      add\n        /* \"#utility.yul\":15406:15439   */\n      mstore\n        /* \"#utility.yul\":15221:15446   */\n      pop\n      jump\t// out\n        /* \"#utility.yul\":15452:15818   */\n    tag_130:\n        /* \"#utility.yul\":15594:15597   */\n      0x00\n        /* \"#utility.yul\":15615:15682   */\n      tag_287\n        /* \"#utility.yul\":15679:15681   */\n      0x26\n        /* \"#utility.yul\":15674:15677   */\n      dup4\n        /* \"#utility.yul\":15615:15682   */\n      tag_128\n      jump\t// in\n    tag_287:\n        /* \"#utility.yul\":15608:15682   */\n      swap2\n      pop\n        /* \"#utility.yul\":15691:15784   */\n      tag_288\n        /* \"#utility.yul\":15780:15783   */\n      dup3\n        /* \"#utility.yul\":15691:15784   */\n      tag_129\n      jump\t// in\n    tag_288:\n        /* \"#utility.yul\":15809:15811   */\n      0x40\n        /* \"#utility.yul\":15804:15807   */\n      dup3\n        /* \"#utility.yul\":15800:15812   */\n      add\n        /* \"#utility.yul\":15793:15812   */\n      swap1\n      pop\n        /* \"#utility.yul\":15452:15818   */\n      swap2\n      swap1\n      pop\n      jump\t// out\n        /* \"#utility.yul\":15824:16243   */\n    tag_70:\n        /* \"#utility.yul\":15990:15994   */\n      0x00\n        /* \"#utility.yul\":16028:16030   */\n      0x20\n        /* \"#utility.yul\":16017:16026   */\n      dup3\n        /* \"#utility.yul\":16013:16031   */\n      add\n        /* \"#utility.yul\":16005:16031   */\n      swap1\n      pop\n        /* \"#utility.yul\":16077:16086   */\n      dup2\n        /* \"#utility.yul\":16071:16075   */\n      dup2\n        /* \"#utility.yul\":16067:16087   */\n      sub\n        /* \"#utility.yul\":16063:16064   */\n      0x00\n        /* \"#utility.yul\":16052:16061   */\n      dup4\n        /* \"#utility.yul\":16048:16065   */\n      add\n        /* \"#utility.yul\":16041:16088   */\n      mstore\n        /* \"#utility.yul\":16105:16236   */\n      tag_290\n        /* \"#utility.yul\":16231:16235   */\n      dup2\n        /* \"#utility.yul\":16105:16236   */\n      tag_130\n      jump\t// in\n    tag_290:\n        /* \"#utility.yul\":16097:16236   */\n      swap1\n      pop\n        /* \"#utility.yul\":15824:16243   */\n      swap2\n      swap1\n      pop\n      jump\t// out\n\n    auxdata: 0xa2646970667358221220faf395664adae03c086f6b249efe062476aba3878d7748196d53ed9e24384dd064736f6c634300081a0033\n}\n",
				"bytecode": {
					"linkReferences": {},
					"object": "6080604052335f806101000a81548173ffffffffffffffffffffffffffffffffffffffff021916908373ffffffffffffffffffffffffffffffffffffffff160217905550348015604d575f80fd5b50610d8f8061005b5f395ff3fe608060405260043610610054575f3560e01c806305227c1b14610058578063692e8201146100805780638ed20cbe146100bc578063a929ffe1146100d2578063dd1d97cb146100fa578063e16b2eef14610125575b5f80fd5b348015610063575f80fd5b5061007e600480360381019061007991906106c4565b61012f565b005b34801561008b575f80fd5b506100a660048036038101906100a19190610760565b6101c4565b6040516100b39190610930565b60405180910390f35b3480156100c7575f80fd5b506100d0610378565b005b3480156100dd575f80fd5b506100f860048036038101906100f39190610760565b6103dd565b005b348015610105575f80fd5b5061010e61043e565b60405161011c92919061099e565b60405180910390f35b61012d6104d7565b005b5f604051806060016040528085815260200184815260200183815250905060015f8681526020019081526020015f205f0181908060018154018082558091505060019003905f5260205f2090600302015f909190919091505f820151815f01908161019a9190610bbf565b5060208201518160010190816101b09190610bbf565b506040820151816002015550505050505050565b6101cc6104d9565b5f60015f8481526020019081526020015f206040518060200160405290815f8201805480602002602001604051908101604052809291908181526020015f905b82821015610365578382905f5260205f2090600302016040518060600160405290815f8201805461023c906109f2565b80601f0160208091040260200160405190810160405280929190818152602001828054610268906109f2565b80156102b35780601f1061028a576101008083540402835291602001916102b3565b820191905f5260205f20905b81548152906001019060200180831161029657829003601f168201915b505050505081526020016001820180546102cc906109f2565b80601f01602080910402602001604051908101604052809291908181526020018280546102f8906109f2565b80156103435780601f1061031a57610100808354040283529160200191610343565b820191905f5260205f20905b81548152906001019060200180831161032657829003601f168201915b505050505081526020016002820154815250508152602001906001019061020c565b5050505081525050905080915050919050565b5f8054906101000a900473ffffffffffffffffffffffffffffffffffffffff1673ffffffffffffffffffffffffffffffffffffffff166108fc4790811502906040515f60405180830381858888f193505050501580156103da573d5f803e3d5ffd5b50565b60015f8281526020019081526020015f205f01805480610400576103ff610c8e565b5b600190038181905f5260205f2090600302015f8082015f61042191906104ec565b600182015f61043091906104ec565b600282015f90555050905550565b5f803373ffffffffffffffffffffffffffffffffffffffff165f8054906101000a900473ffffffffffffffffffffffffffffffffffffffff1673ffffffffffffffffffffffffffffffffffffffff16146104cd576040517f08c379a00000000000000000000000000000000000000000000000000000000081526004016104c490610d3b565b60405180910390fd5b4730915091509091565b565b6040518060200160405280606081525090565b5080546104f8906109f2565b5f825580601f106105095750610526565b601f0160209004905f5260205f20908101906105259190610529565b5b50565b5b80821115610540575f815f90555060010161052a565b5090565b5f604051905090565b5f80fd5b5f80fd5b5f819050919050565b61056781610555565b8114610571575f80fd5b50565b5f813590506105828161055e565b92915050565b5f80fd5b5f80fd5b5f601f19601f8301169050919050565b7f4e487b71000000000000000000000000000000000000000000000000000000005f52604160045260245ffd5b6105d682610590565b810181811067ffffffffffffffff821117156105f5576105f46105a0565b5b80604052505050565b5f610607610544565b905061061382826105cd565b919050565b5f67ffffffffffffffff821115610632576106316105a0565b5b61063b82610590565b9050602081019050919050565b828183375f83830152505050565b5f61066861066384610618565b6105fe565b9050828152602081018484840111156106845761068361058c565b5b61068f848285610648565b509392505050565b5f82601f8301126106ab576106aa610588565b5b81356106bb848260208601610656565b91505092915050565b5f805f80608085870312156106dc576106db61054d565b5b5f6106e987828801610574565b945050602085013567ffffffffffffffff81111561070a57610709610551565b5b61071687828801610697565b935050604085013567ffffffffffffffff81111561073757610736610551565b5b61074387828801610697565b925050606061075487828801610574565b91505092959194509250565b5f602082840312156107755761077461054d565b5b5f61078284828501610574565b91505092915050565b5f81519050919050565b5f82825260208201905092915050565b5f819050602082019050919050565b5f81519050919050565b5f82825260208201905092915050565b8281835e5f83830152505050565b5f6107e6826107b4565b6107f081856107be565b93506108008185602086016107ce565b61080981610590565b840191505092915050565b61081d81610555565b82525050565b5f606083015f8301518482035f86015261083d82826107dc565b9150506020830151848203602086015261085782826107dc565b915050604083015161086c6040860182610814565b508091505092915050565b5f6108828383610823565b905092915050565b5f602082019050919050565b5f6108a08261078b565b6108aa8185610795565b9350836020820285016108bc856107a5565b805f5b858110156108f757848403895281516108d88582610877565b94506108e38361088a565b925060208a019950506001810190506108bf565b50829750879550505050505092915050565b5f602083015f8301518482035f8601526109238282610896565b9150508091505092915050565b5f6020820190508181035f8301526109488184610909565b905092915050565b61095981610555565b82525050565b5f73ffffffffffffffffffffffffffffffffffffffff82169050919050565b5f6109888261095f565b9050919050565b6109988161097e565b82525050565b5f6040820190506109b15f830185610950565b6109be602083018461098f565b9392505050565b7f4e487b71000000000000000000000000000000000000000000000000000000005f52602260045260245ffd5b5f6002820490506001821680610a0957607f821691505b602082108103610a1c57610a1b6109c5565b5b50919050565b5f819050815f5260205f209050919050565b5f6020601f8301049050919050565b5f82821b905092915050565b5f60088302610a7e7fffffffffffffffffffffffffffffffffffffffffffffffffffffffffffffffff82610a43565b610a888683610a43565b95508019841693508086168417925050509392505050565b5f819050919050565b5f610ac3610abe610ab984610555565b610aa0565b610555565b9050919050565b5f819050919050565b610adc83610aa9565b610af0610ae882610aca565b848454610a4f565b825550505050565b5f90565b610b04610af8565b610b0f818484610ad3565b505050565b5b81811015610b3257610b275f82610afc565b600181019050610b15565b5050565b601f821115610b7757610b4881610a22565b610b5184610a34565b81016020851015610b60578190505b610b74610b6c85610a34565b830182610b14565b50505b505050565b5f82821c905092915050565b5f610b975f1984600802610b7c565b1980831691505092915050565b5f610baf8383610b88565b9150826002028217905092915050565b610bc8826107b4565b67ffffffffffffffff811115610be157610be06105a0565b5b610beb82546109f2565b610bf6828285610b36565b5f60209050601f831160018114610c27575f8415610c15578287015190505b610c1f8582610ba4565b865550610c86565b601f198416610c3586610a22565b5f5b82811015610c5c57848901518255600182019150602085019450602081019050610c37565b86831015610c795784890151610c75601f891682610b88565b8355505b6001600288020188555050505b505050505050565b7f4e487b71000000000000000000000000000000000000000000000000000000005f52603160045260245ffd5b5f82825260208201905092915050565b7f596f752063616e6e6f7420686176652061636365737320746f207265616420625f8201527f616c616e63650000000000000000000000000000000000000000000000000000602082015250565b5f610d25602683610cbb565b9150610d3082610ccb565b604082019050919050565b5f6020820190508181035f830152610d5281610d19565b905091905056fea2646970667358221220faf395664adae03c086f6b249efe062476aba3878d7748196d53ed9e24384dd064736f6c634300081a0033",
					"opcodes": "PUSH1 0x80 PUSH1 0x40 MSTORE CALLER PUSH0 DUP1 PUSH2 0x100 EXP DUP2 SLOAD DUP2 PUSH20 0xFFFFFFFFFFFFFFFFFFFFFFFFFFFFFFFFFFFFFFFF MUL NOT AND SWAP1 DUP4 PUSH20 0xFFFFFFFFFFFFFFFFFFFFFFFFFFFFFFFFFFFFFFFF AND MUL OR SWAP1 SSTORE POP CALLVALUE DUP1 ISZERO PUSH1 0x4D JUMPI PUSH0 DUP1 REVERT JUMPDEST POP PUSH2 0xD8F DUP1 PUSH2 0x5B PUSH0 CODECOPY PUSH0 RETURN INVALID PUSH1 0x80 PUSH1 0x40 MSTORE PUSH1 0x4 CALLDATASIZE LT PUSH2 0x54 JUMPI PUSH0 CALLDATALOAD PUSH1 0xE0 SHR DUP1 PUSH4 0x5227C1B EQ PUSH2 0x58 JUMPI DUP1 PUSH4 0x692E8201 EQ PUSH2 0x80 JUMPI DUP1 PUSH4 0x8ED20CBE EQ PUSH2 0xBC JUMPI DUP1 PUSH4 0xA929FFE1 EQ PUSH2 0xD2 JUMPI DUP1 PUSH4 0xDD1D97CB EQ PUSH2 0xFA JUMPI DUP1 PUSH4 0xE16B2EEF EQ PUSH2 0x125 JUMPI JUMPDEST PUSH0 DUP1 REVERT JUMPDEST CALLVALUE DUP1 ISZERO PUSH2 0x63 JUMPI PUSH0 DUP1 REVERT JUMPDEST POP PUSH2 0x7E PUSH1 0x4 DUP1 CALLDATASIZE SUB DUP2 ADD SWAP1 PUSH2 0x79 SWAP2 SWAP1 PUSH2 0x6C4 JUMP JUMPDEST PUSH2 0x12F JUMP JUMPDEST STOP JUMPDEST CALLVALUE DUP1 ISZERO PUSH2 0x8B JUMPI PUSH0 DUP1 REVERT JUMPDEST POP PUSH2 0xA6 PUSH1 0x4 DUP1 CALLDATASIZE SUB DUP2 ADD SWAP1 PUSH2 0xA1 SWAP2 SWAP1 PUSH2 0x760 JUMP JUMPDEST PUSH2 0x1C4 JUMP JUMPDEST PUSH1 0x40 MLOAD PUSH2 0xB3 SWAP2 SWAP1 PUSH2 0x930 JUMP JUMPDEST PUSH1 0x40 MLOAD DUP1 SWAP2 SUB SWAP1 RETURN JUMPDEST CALLVALUE DUP1 ISZERO PUSH2 0xC7 JUMPI PUSH0 DUP1 REVERT JUMPDEST POP PUSH2 0xD0 PUSH2 0x378 JUMP JUMPDEST STOP JUMPDEST CALLVALUE DUP1 ISZERO PUSH2 0xDD JUMPI PUSH0 DUP1 REVERT JUMPDEST POP PUSH2 0xF8 PUSH1 0x4 DUP1 CALLDATASIZE SUB DUP2 ADD SWAP1 PUSH2 0xF3 SWAP2 SWAP1 PUSH2 0x760 JUMP JUMPDEST PUSH2 0x3DD JUMP JUMPDEST STOP JUMPDEST CALLVALUE DUP1 ISZERO PUSH2 0x105 JUMPI PUSH0 DUP1 REVERT JUMPDEST POP PUSH2 0x10E PUSH2 0x43E JUMP JUMPDEST PUSH1 0x40 MLOAD PUSH2 0x11C SWAP3 SWAP2 SWAP1 PUSH2 0x99E JUMP JUMPDEST PUSH1 0x40 MLOAD DUP1 SWAP2 SUB SWAP1 RETURN JUMPDEST PUSH2 0x12D PUSH2 0x4D7 JUMP JUMPDEST STOP JUMPDEST PUSH0 PUSH1 0x40 MLOAD DUP1 PUSH1 0x60 ADD PUSH1 0x40 MSTORE DUP1 DUP6 DUP2 MSTORE PUSH1 0x20 ADD DUP5 DUP2 MSTORE PUSH1 0x20 ADD DUP4 DUP2 MSTORE POP SWAP1 POP PUSH1 0x1 PUSH0 DUP7 DUP2 MSTORE PUSH1 0x20 ADD SWAP1 DUP2 MSTORE PUSH1 0x20 ADD PUSH0 KECCAK256 PUSH0 ADD DUP2 SWAP1 DUP1 PUSH1 0x1 DUP2 SLOAD ADD DUP1 DUP3 SSTORE DUP1 SWAP2 POP POP PUSH1 0x1 SWAP1 SUB SWAP1 PUSH0 MSTORE PUSH1 0x20 PUSH0 KECCAK256 SWAP1 PUSH1 0x3 MUL ADD PUSH0 SWAP1 SWAP2 SWAP1 SWAP2 SWAP1 SWAP2 POP PUSH0 DUP3 ADD MLOAD DUP2 PUSH0 ADD SWAP1 DUP2 PUSH2 0x19A SWAP2 SWAP1 PUSH2 0xBBF JUMP JUMPDEST POP PUSH1 0x20 DUP3 ADD MLOAD DUP2 PUSH1 0x1 ADD SWAP1 DUP2 PUSH2 0x1B0 SWAP2 SWAP1 PUSH2 0xBBF JUMP JUMPDEST POP PUSH1 0x40 DUP3 ADD MLOAD DUP2 PUSH1 0x2 ADD SSTORE POP POP POP POP POP POP POP JUMP JUMPDEST PUSH2 0x1CC PUSH2 0x4D9 JUMP JUMPDEST PUSH0 PUSH1 0x1 PUSH0 DUP5 DUP2 MSTORE PUSH1 0x20 ADD SWAP1 DUP2 MSTORE PUSH1 0x20 ADD PUSH0 KECCAK256 PUSH1 0x40 MLOAD DUP1 PUSH1 0x20 ADD PUSH1 0x40 MSTORE SWAP1 DUP2 PUSH0 DUP3 ADD DUP1 SLOAD DUP1 PUSH1 0x20 MUL PUSH1 0x20 ADD PUSH1 0x40 MLOAD SWAP1 DUP2 ADD PUSH1 0x40 MSTORE DUP1 SWAP3 SWAP2 SWAP1 DUP2 DUP2 MSTORE PUSH1 0x20 ADD PUSH0 SWAP1 JUMPDEST DUP3 DUP3 LT ISZERO PUSH2 0x365 JUMPI DUP4 DUP3 SWAP1 PUSH0 MSTORE PUSH1 0x20 PUSH0 KECCAK256 SWAP1 PUSH1 0x3 MUL ADD PUSH1 0x40 MLOAD DUP1 PUSH1 0x60 ADD PUSH1 0x40 MSTORE SWAP1 DUP2 PUSH0 DUP3 ADD DUP1 SLOAD PUSH2 0x23C SWAP1 PUSH2 0x9F2 JUMP JUMPDEST DUP1 PUSH1 0x1F ADD PUSH1 0x20 DUP1 SWAP2 DIV MUL PUSH1 0x20 ADD PUSH1 0x40 MLOAD SWAP1 DUP2 ADD PUSH1 0x40 MSTORE DUP1 SWAP3 SWAP2 SWAP1 DUP2 DUP2 MSTORE PUSH1 0x20 ADD DUP3 DUP1 SLOAD PUSH2 0x268 SWAP1 PUSH2 0x9F2 JUMP JUMPDEST DUP1 ISZERO PUSH2 0x2B3 JUMPI DUP1 PUSH1 0x1F LT PUSH2 0x28A JUMPI PUSH2 0x100 DUP1 DUP4 SLOAD DIV MUL DUP4 MSTORE SWAP2 PUSH1 0x20 ADD SWAP2 PUSH2 0x2B3 JUMP JUMPDEST DUP3 ADD SWAP2 SWAP1 PUSH0 MSTORE PUSH1 0x20 PUSH0 KECCAK256 SWAP1 JUMPDEST DUP2 SLOAD DUP2 MSTORE SWAP1 PUSH1 0x1 ADD SWAP1 PUSH1 0x20 ADD DUP1 DUP4 GT PUSH2 0x296 JUMPI DUP3 SWAP1 SUB PUSH1 0x1F AND DUP3 ADD SWAP2 JUMPDEST POP POP POP POP POP DUP2 MSTORE PUSH1 0x20 ADD PUSH1 0x1 DUP3 ADD DUP1 SLOAD PUSH2 0x2CC SWAP1 PUSH2 0x9F2 JUMP JUMPDEST DUP1 PUSH1 0x1F ADD PUSH1 0x20 DUP1 SWAP2 DIV MUL PUSH1 0x20 ADD PUSH1 0x40 MLOAD SWAP1 DUP2 ADD PUSH1 0x40 MSTORE DUP1 SWAP3 SWAP2 SWAP1 DUP2 DUP2 MSTORE PUSH1 0x20 ADD DUP3 DUP1 SLOAD PUSH2 0x2F8 SWAP1 PUSH2 0x9F2 JUMP JUMPDEST DUP1 ISZERO PUSH2 0x343 JUMPI DUP1 PUSH1 0x1F LT PUSH2 0x31A JUMPI PUSH2 0x100 DUP1 DUP4 SLOAD DIV MUL DUP4 MSTORE SWAP2 PUSH1 0x20 ADD SWAP2 PUSH2 0x343 JUMP JUMPDEST DUP3 ADD SWAP2 SWAP1 PUSH0 MSTORE PUSH1 0x20 PUSH0 KECCAK256 SWAP1 JUMPDEST DUP2 SLOAD DUP2 MSTORE SWAP1 PUSH1 0x1 ADD SWAP1 PUSH1 0x20 ADD DUP1 DUP4 GT PUSH2 0x326 JUMPI DUP3 SWAP1 SUB PUSH1 0x1F AND DUP3 ADD SWAP2 JUMPDEST POP POP POP POP POP DUP2 MSTORE PUSH1 0x20 ADD PUSH1 0x2 DUP3 ADD SLOAD DUP2 MSTORE POP POP DUP2 MSTORE PUSH1 0x20 ADD SWAP1 PUSH1 0x1 ADD SWAP1 PUSH2 0x20C JUMP JUMPDEST POP POP POP POP DUP2 MSTORE POP POP SWAP1 POP DUP1 SWAP2 POP POP SWAP2 SWAP1 POP JUMP JUMPDEST PUSH0 DUP1 SLOAD SWAP1 PUSH2 0x100 EXP SWAP1 DIV PUSH20 0xFFFFFFFFFFFFFFFFFFFFFFFFFFFFFFFFFFFFFFFF AND PUSH20 0xFFFFFFFFFFFFFFFFFFFFFFFFFFFFFFFFFFFFFFFF AND PUSH2 0x8FC SELFBALANCE SWAP1 DUP2 ISZERO MUL SWAP1 PUSH1 0x40 MLOAD PUSH0 PUSH1 0x40 MLOAD DUP1 DUP4 SUB DUP2 DUP6 DUP9 DUP9 CALL SWAP4 POP POP POP POP ISZERO DUP1 ISZERO PUSH2 0x3DA JUMPI RETURNDATASIZE PUSH0 DUP1 RETURNDATACOPY RETURNDATASIZE PUSH0 REVERT JUMPDEST POP JUMP JUMPDEST PUSH1 0x1 PUSH0 DUP3 DUP2 MSTORE PUSH1 0x20 ADD SWAP1 DUP2 MSTORE PUSH1 0x20 ADD PUSH0 KECCAK256 PUSH0 ADD DUP1 SLOAD DUP1 PUSH2 0x400 JUMPI PUSH2 0x3FF PUSH2 0xC8E JUMP JUMPDEST JUMPDEST PUSH1 0x1 SWAP1 SUB DUP2 DUP2 SWAP1 PUSH0 MSTORE PUSH1 0x20 PUSH0 KECCAK256 SWAP1 PUSH1 0x3 MUL ADD PUSH0 DUP1 DUP3 ADD PUSH0 PUSH2 0x421 SWAP2 SWAP1 PUSH2 0x4EC JUMP JUMPDEST PUSH1 0x1 DUP3 ADD PUSH0 PUSH2 0x430 SWAP2 SWAP1 PUSH2 0x4EC JUMP JUMPDEST PUSH1 0x2 DUP3 ADD PUSH0 SWAP1 SSTORE POP POP SWAP1 SSTORE POP JUMP JUMPDEST PUSH0 DUP1 CALLER PUSH20 0xFFFFFFFFFFFFFFFFFFFFFFFFFFFFFFFFFFFFFFFF AND PUSH0 DUP1 SLOAD SWAP1 PUSH2 0x100 EXP SWAP1 DIV PUSH20 0xFFFFFFFFFFFFFFFFFFFFFFFFFFFFFFFFFFFFFFFF AND PUSH20 0xFFFFFFFFFFFFFFFFFFFFFFFFFFFFFFFFFFFFFFFF AND EQ PUSH2 0x4CD JUMPI PUSH1 0x40 MLOAD PUSH32 0x8C379A000000000000000000000000000000000000000000000000000000000 DUP2 MSTORE PUSH1 0x4 ADD PUSH2 0x4C4 SWAP1 PUSH2 0xD3B JUMP JUMPDEST PUSH1 0x40 MLOAD DUP1 SWAP2 SUB SWAP1 REVERT JUMPDEST SELFBALANCE ADDRESS SWAP2 POP SWAP2 POP SWAP1 SWAP2 JUMP JUMPDEST JUMP JUMPDEST PUSH1 0x40 MLOAD DUP1 PUSH1 0x20 ADD PUSH1 0x40 MSTORE DUP1 PUSH1 0x60 DUP2 MSTORE POP SWAP1 JUMP JUMPDEST POP DUP1 SLOAD PUSH2 0x4F8 SWAP1 PUSH2 0x9F2 JUMP JUMPDEST PUSH0 DUP3 SSTORE DUP1 PUSH1 0x1F LT PUSH2 0x509 JUMPI POP PUSH2 0x526 JUMP JUMPDEST PUSH1 0x1F ADD PUSH1 0x20 SWAP1 DIV SWAP1 PUSH0 MSTORE PUSH1 0x20 PUSH0 KECCAK256 SWAP1 DUP2 ADD SWAP1 PUSH2 0x525 SWAP2 SWAP1 PUSH2 0x529 JUMP JUMPDEST JUMPDEST POP JUMP JUMPDEST JUMPDEST DUP1 DUP3 GT ISZERO PUSH2 0x540 JUMPI PUSH0 DUP2 PUSH0 SWAP1 SSTORE POP PUSH1 0x1 ADD PUSH2 0x52A JUMP JUMPDEST POP SWAP1 JUMP JUMPDEST PUSH0 PUSH1 0x40 MLOAD SWAP1 POP SWAP1 JUMP JUMPDEST PUSH0 DUP1 REVERT JUMPDEST PUSH0 DUP1 REVERT JUMPDEST PUSH0 DUP2 SWAP1 POP SWAP2 SWAP1 POP JUMP JUMPDEST PUSH2 0x567 DUP2 PUSH2 0x555 JUMP JUMPDEST DUP2 EQ PUSH2 0x571 JUMPI PUSH0 DUP1 REVERT JUMPDEST POP JUMP JUMPDEST PUSH0 DUP2 CALLDATALOAD SWAP1 POP PUSH2 0x582 DUP2 PUSH2 0x55E JUMP JUMPDEST SWAP3 SWAP2 POP POP JUMP JUMPDEST PUSH0 DUP1 REVERT JUMPDEST PUSH0 DUP1 REVERT JUMPDEST PUSH0 PUSH1 0x1F NOT PUSH1 0x1F DUP4 ADD AND SWAP1 POP SWAP2 SWAP1 POP JUMP JUMPDEST PUSH32 0x4E487B7100000000000000000000000000000000000000000000000000000000 PUSH0 MSTORE PUSH1 0x41 PUSH1 0x4 MSTORE PUSH1 0x24 PUSH0 REVERT JUMPDEST PUSH2 0x5D6 DUP3 PUSH2 0x590 JUMP JUMPDEST DUP2 ADD DUP2 DUP2 LT PUSH8 0xFFFFFFFFFFFFFFFF DUP3 GT OR ISZERO PUSH2 0x5F5 JUMPI PUSH2 0x5F4 PUSH2 0x5A0 JUMP JUMPDEST JUMPDEST DUP1 PUSH1 0x40 MSTORE POP POP POP JUMP JUMPDEST PUSH0 PUSH2 0x607 PUSH2 0x544 JUMP JUMPDEST SWAP1 POP PUSH2 0x613 DUP3 DUP3 PUSH2 0x5CD JUMP JUMPDEST SWAP2 SWAP1 POP JUMP JUMPDEST PUSH0 PUSH8 0xFFFFFFFFFFFFFFFF DUP3 GT ISZERO PUSH2 0x632 JUMPI PUSH2 0x631 PUSH2 0x5A0 JUMP JUMPDEST JUMPDEST PUSH2 0x63B DUP3 PUSH2 0x590 JUMP JUMPDEST SWAP1 POP PUSH1 0x20 DUP2 ADD SWAP1 POP SWAP2 SWAP1 POP JUMP JUMPDEST DUP3 DUP2 DUP4 CALLDATACOPY PUSH0 DUP4 DUP4 ADD MSTORE POP POP POP JUMP JUMPDEST PUSH0 PUSH2 0x668 PUSH2 0x663 DUP5 PUSH2 0x618 JUMP JUMPDEST PUSH2 0x5FE JUMP JUMPDEST SWAP1 POP DUP3 DUP2 MSTORE PUSH1 0x20 DUP2 ADD DUP5 DUP5 DUP5 ADD GT ISZERO PUSH2 0x684 JUMPI PUSH2 0x683 PUSH2 0x58C JUMP JUMPDEST JUMPDEST PUSH2 0x68F DUP5 DUP3 DUP6 PUSH2 0x648 JUMP JUMPDEST POP SWAP4 SWAP3 POP POP POP JUMP JUMPDEST PUSH0 DUP3 PUSH1 0x1F DUP4 ADD SLT PUSH2 0x6AB JUMPI PUSH2 0x6AA PUSH2 0x588 JUMP JUMPDEST JUMPDEST DUP2 CALLDATALOAD PUSH2 0x6BB DUP5 DUP3 PUSH1 0x20 DUP7 ADD PUSH2 0x656 JUMP JUMPDEST SWAP2 POP POP SWAP3 SWAP2 POP POP JUMP JUMPDEST PUSH0 DUP1 PUSH0 DUP1 PUSH1 0x80 DUP6 DUP8 SUB SLT ISZERO PUSH2 0x6DC JUMPI PUSH2 0x6DB PUSH2 0x54D JUMP JUMPDEST JUMPDEST PUSH0 PUSH2 0x6E9 DUP8 DUP3 DUP9 ADD PUSH2 0x574 JUMP JUMPDEST SWAP5 POP POP PUSH1 0x20 DUP6 ADD CALLDATALOAD PUSH8 0xFFFFFFFFFFFFFFFF DUP2 GT ISZERO PUSH2 0x70A JUMPI PUSH2 0x709 PUSH2 0x551 JUMP JUMPDEST JUMPDEST PUSH2 0x716 DUP8 DUP3 DUP9 ADD PUSH2 0x697 JUMP JUMPDEST SWAP4 POP POP PUSH1 0x40 DUP6 ADD CALLDATALOAD PUSH8 0xFFFFFFFFFFFFFFFF DUP2 GT ISZERO PUSH2 0x737 JUMPI PUSH2 0x736 PUSH2 0x551 JUMP JUMPDEST JUMPDEST PUSH2 0x743 DUP8 DUP3 DUP9 ADD PUSH2 0x697 JUMP JUMPDEST SWAP3 POP POP PUSH1 0x60 PUSH2 0x754 DUP8 DUP3 DUP9 ADD PUSH2 0x574 JUMP JUMPDEST SWAP2 POP POP SWAP3 SWAP6 SWAP2 SWAP5 POP SWAP3 POP JUMP JUMPDEST PUSH0 PUSH1 0x20 DUP3 DUP5 SUB SLT ISZERO PUSH2 0x775 JUMPI PUSH2 0x774 PUSH2 0x54D JUMP JUMPDEST JUMPDEST PUSH0 PUSH2 0x782 DUP5 DUP3 DUP6 ADD PUSH2 0x574 JUMP JUMPDEST SWAP2 POP POP SWAP3 SWAP2 POP POP JUMP JUMPDEST PUSH0 DUP2 MLOAD SWAP1 POP SWAP2 SWAP1 POP JUMP JUMPDEST PUSH0 DUP3 DUP3 MSTORE PUSH1 0x20 DUP3 ADD SWAP1 POP SWAP3 SWAP2 POP POP JUMP JUMPDEST PUSH0 DUP2 SWAP1 POP PUSH1 0x20 DUP3 ADD SWAP1 POP SWAP2 SWAP1 POP JUMP JUMPDEST PUSH0 DUP2 MLOAD SWAP1 POP SWAP2 SWAP1 POP JUMP JUMPDEST PUSH0 DUP3 DUP3 MSTORE PUSH1 0x20 DUP3 ADD SWAP1 POP SWAP3 SWAP2 POP POP JUMP JUMPDEST DUP3 DUP2 DUP4 MCOPY PUSH0 DUP4 DUP4 ADD MSTORE POP POP POP JUMP JUMPDEST PUSH0 PUSH2 0x7E6 DUP3 PUSH2 0x7B4 JUMP JUMPDEST PUSH2 0x7F0 DUP2 DUP6 PUSH2 0x7BE JUMP JUMPDEST SWAP4 POP PUSH2 0x800 DUP2 DUP6 PUSH1 0x20 DUP7 ADD PUSH2 0x7CE JUMP JUMPDEST PUSH2 0x809 DUP2 PUSH2 0x590 JUMP JUMPDEST DUP5 ADD SWAP2 POP POP SWAP3 SWAP2 POP POP JUMP JUMPDEST PUSH2 0x81D DUP2 PUSH2 0x555 JUMP JUMPDEST DUP3 MSTORE POP POP JUMP JUMPDEST PUSH0 PUSH1 0x60 DUP4 ADD PUSH0 DUP4 ADD MLOAD DUP5 DUP3 SUB PUSH0 DUP7 ADD MSTORE PUSH2 0x83D DUP3 DUP3 PUSH2 0x7DC JUMP JUMPDEST SWAP2 POP POP PUSH1 0x20 DUP4 ADD MLOAD DUP5 DUP3 SUB PUSH1 0x20 DUP7 ADD MSTORE PUSH2 0x857 DUP3 DUP3 PUSH2 0x7DC JUMP JUMPDEST SWAP2 POP POP PUSH1 0x40 DUP4 ADD MLOAD PUSH2 0x86C PUSH1 0x40 DUP7 ADD DUP3 PUSH2 0x814 JUMP JUMPDEST POP DUP1 SWAP2 POP POP SWAP3 SWAP2 POP POP JUMP JUMPDEST PUSH0 PUSH2 0x882 DUP4 DUP4 PUSH2 0x823 JUMP JUMPDEST SWAP1 POP SWAP3 SWAP2 POP POP JUMP JUMPDEST PUSH0 PUSH1 0x20 DUP3 ADD SWAP1 POP SWAP2 SWAP1 POP JUMP JUMPDEST PUSH0 PUSH2 0x8A0 DUP3 PUSH2 0x78B JUMP JUMPDEST PUSH2 0x8AA DUP2 DUP6 PUSH2 0x795 JUMP JUMPDEST SWAP4 POP DUP4 PUSH1 0x20 DUP3 MUL DUP6 ADD PUSH2 0x8BC DUP6 PUSH2 0x7A5 JUMP JUMPDEST DUP1 PUSH0 JUMPDEST DUP6 DUP2 LT ISZERO PUSH2 0x8F7 JUMPI DUP5 DUP5 SUB DUP10 MSTORE DUP2 MLOAD PUSH2 0x8D8 DUP6 DUP3 PUSH2 0x877 JUMP JUMPDEST SWAP5 POP PUSH2 0x8E3 DUP4 PUSH2 0x88A JUMP JUMPDEST SWAP3 POP PUSH1 0x20 DUP11 ADD SWAP10 POP POP PUSH1 0x1 DUP2 ADD SWAP1 POP PUSH2 0x8BF JUMP JUMPDEST POP DUP3 SWAP8 POP DUP8 SWAP6 POP POP POP POP POP POP SWAP3 SWAP2 POP POP JUMP JUMPDEST PUSH0 PUSH1 0x20 DUP4 ADD PUSH0 DUP4 ADD MLOAD DUP5 DUP3 SUB PUSH0 DUP7 ADD MSTORE PUSH2 0x923 DUP3 DUP3 PUSH2 0x896 JUMP JUMPDEST SWAP2 POP POP DUP1 SWAP2 POP POP SWAP3 SWAP2 POP POP JUMP JUMPDEST PUSH0 PUSH1 0x20 DUP3 ADD SWAP1 POP DUP2 DUP2 SUB PUSH0 DUP4 ADD MSTORE PUSH2 0x948 DUP2 DUP5 PUSH2 0x909 JUMP JUMPDEST SWAP1 POP SWAP3 SWAP2 POP POP JUMP JUMPDEST PUSH2 0x959 DUP2 PUSH2 0x555 JUMP JUMPDEST DUP3 MSTORE POP POP JUMP JUMPDEST PUSH0 PUSH20 0xFFFFFFFFFFFFFFFFFFFFFFFFFFFFFFFFFFFFFFFF DUP3 AND SWAP1 POP SWAP2 SWAP1 POP JUMP JUMPDEST PUSH0 PUSH2 0x988 DUP3 PUSH2 0x95F JUMP JUMPDEST SWAP1 POP SWAP2 SWAP1 POP JUMP JUMPDEST PUSH2 0x998 DUP2 PUSH2 0x97E JUMP JUMPDEST DUP3 MSTORE POP POP JUMP JUMPDEST PUSH0 PUSH1 0x40 DUP3 ADD SWAP1 POP PUSH2 0x9B1 PUSH0 DUP4 ADD DUP6 PUSH2 0x950 JUMP JUMPDEST PUSH2 0x9BE PUSH1 0x20 DUP4 ADD DUP5 PUSH2 0x98F JUMP JUMPDEST SWAP4 SWAP3 POP POP POP JUMP JUMPDEST PUSH32 0x4E487B7100000000000000000000000000000000000000000000000000000000 PUSH0 MSTORE PUSH1 0x22 PUSH1 0x4 MSTORE PUSH1 0x24 PUSH0 REVERT JUMPDEST PUSH0 PUSH1 0x2 DUP3 DIV SWAP1 POP PUSH1 0x1 DUP3 AND DUP1 PUSH2 0xA09 JUMPI PUSH1 0x7F DUP3 AND SWAP2 POP JUMPDEST PUSH1 0x20 DUP3 LT DUP2 SUB PUSH2 0xA1C JUMPI PUSH2 0xA1B PUSH2 0x9C5 JUMP JUMPDEST JUMPDEST POP SWAP2 SWAP1 POP JUMP JUMPDEST PUSH0 DUP2 SWAP1 POP DUP2 PUSH0 MSTORE PUSH1 0x20 PUSH0 KECCAK256 SWAP1 POP SWAP2 SWAP1 POP JUMP JUMPDEST PUSH0 PUSH1 0x20 PUSH1 0x1F DUP4 ADD DIV SWAP1 POP SWAP2 SWAP1 POP JUMP JUMPDEST PUSH0 DUP3 DUP3 SHL SWAP1 POP SWAP3 SWAP2 POP POP JUMP JUMPDEST PUSH0 PUSH1 0x8 DUP4 MUL PUSH2 0xA7E PUSH32 0xFFFFFFFFFFFFFFFFFFFFFFFFFFFFFFFFFFFFFFFFFFFFFFFFFFFFFFFFFFFFFFFF DUP3 PUSH2 0xA43 JUMP JUMPDEST PUSH2 0xA88 DUP7 DUP4 PUSH2 0xA43 JUMP JUMPDEST SWAP6 POP DUP1 NOT DUP5 AND SWAP4 POP DUP1 DUP7 AND DUP5 OR SWAP3 POP POP POP SWAP4 SWAP3 POP POP POP JUMP JUMPDEST PUSH0 DUP2 SWAP1 POP SWAP2 SWAP1 POP JUMP JUMPDEST PUSH0 PUSH2 0xAC3 PUSH2 0xABE PUSH2 0xAB9 DUP5 PUSH2 0x555 JUMP JUMPDEST PUSH2 0xAA0 JUMP JUMPDEST PUSH2 0x555 JUMP JUMPDEST SWAP1 POP SWAP2 SWAP1 POP JUMP JUMPDEST PUSH0 DUP2 SWAP1 POP SWAP2 SWAP1 POP JUMP JUMPDEST PUSH2 0xADC DUP4 PUSH2 0xAA9 JUMP JUMPDEST PUSH2 0xAF0 PUSH2 0xAE8 DUP3 PUSH2 0xACA JUMP JUMPDEST DUP5 DUP5 SLOAD PUSH2 0xA4F JUMP JUMPDEST DUP3 SSTORE POP POP POP POP JUMP JUMPDEST PUSH0 SWAP1 JUMP JUMPDEST PUSH2 0xB04 PUSH2 0xAF8 JUMP JUMPDEST PUSH2 0xB0F DUP2 DUP5 DUP5 PUSH2 0xAD3 JUMP JUMPDEST POP POP POP JUMP JUMPDEST JUMPDEST DUP2 DUP2 LT ISZERO PUSH2 0xB32 JUMPI PUSH2 0xB27 PUSH0 DUP3 PUSH2 0xAFC JUMP JUMPDEST PUSH1 0x1 DUP2 ADD SWAP1 POP PUSH2 0xB15 JUMP JUMPDEST POP POP JUMP JUMPDEST PUSH1 0x1F DUP3 GT ISZERO PUSH2 0xB77 JUMPI PUSH2 0xB48 DUP2 PUSH2 0xA22 JUMP JUMPDEST PUSH2 0xB51 DUP5 PUSH2 0xA34 JUMP JUMPDEST DUP2 ADD PUSH1 0x20 DUP6 LT ISZERO PUSH2 0xB60 JUMPI DUP2 SWAP1 POP JUMPDEST PUSH2 0xB74 PUSH2 0xB6C DUP6 PUSH2 0xA34 JUMP JUMPDEST DUP4 ADD DUP3 PUSH2 0xB14 JUMP JUMPDEST POP POP JUMPDEST POP POP POP JUMP JUMPDEST PUSH0 DUP3 DUP3 SHR SWAP1 POP SWAP3 SWAP2 POP POP JUMP JUMPDEST PUSH0 PUSH2 0xB97 PUSH0 NOT DUP5 PUSH1 0x8 MUL PUSH2 0xB7C JUMP JUMPDEST NOT DUP1 DUP4 AND SWAP2 POP POP SWAP3 SWAP2 POP POP JUMP JUMPDEST PUSH0 PUSH2 0xBAF DUP4 DUP4 PUSH2 0xB88 JUMP JUMPDEST SWAP2 POP DUP3 PUSH1 0x2 MUL DUP3 OR SWAP1 POP SWAP3 SWAP2 POP POP JUMP JUMPDEST PUSH2 0xBC8 DUP3 PUSH2 0x7B4 JUMP JUMPDEST PUSH8 0xFFFFFFFFFFFFFFFF DUP2 GT ISZERO PUSH2 0xBE1 JUMPI PUSH2 0xBE0 PUSH2 0x5A0 JUMP JUMPDEST JUMPDEST PUSH2 0xBEB DUP3 SLOAD PUSH2 0x9F2 JUMP JUMPDEST PUSH2 0xBF6 DUP3 DUP3 DUP6 PUSH2 0xB36 JUMP JUMPDEST PUSH0 PUSH1 0x20 SWAP1 POP PUSH1 0x1F DUP4 GT PUSH1 0x1 DUP2 EQ PUSH2 0xC27 JUMPI PUSH0 DUP5 ISZERO PUSH2 0xC15 JUMPI DUP3 DUP8 ADD MLOAD SWAP1 POP JUMPDEST PUSH2 0xC1F DUP6 DUP3 PUSH2 0xBA4 JUMP JUMPDEST DUP7 SSTORE POP PUSH2 0xC86 JUMP JUMPDEST PUSH1 0x1F NOT DUP5 AND PUSH2 0xC35 DUP7 PUSH2 0xA22 JUMP JUMPDEST PUSH0 JUMPDEST DUP3 DUP2 LT ISZERO PUSH2 0xC5C JUMPI DUP5 DUP10 ADD MLOAD DUP3 SSTORE PUSH1 0x1 DUP3 ADD SWAP2 POP PUSH1 0x20 DUP6 ADD SWAP5 POP PUSH1 0x20 DUP2 ADD SWAP1 POP PUSH2 0xC37 JUMP JUMPDEST DUP7 DUP4 LT ISZERO PUSH2 0xC79 JUMPI DUP5 DUP10 ADD MLOAD PUSH2 0xC75 PUSH1 0x1F DUP10 AND DUP3 PUSH2 0xB88 JUMP JUMPDEST DUP4 SSTORE POP JUMPDEST PUSH1 0x1 PUSH1 0x2 DUP9 MUL ADD DUP9 SSTORE POP POP POP JUMPDEST POP POP POP POP POP POP JUMP JUMPDEST PUSH32 0x4E487B7100000000000000000000000000000000000000000000000000000000 PUSH0 MSTORE PUSH1 0x31 PUSH1 0x4 MSTORE PUSH1 0x24 PUSH0 REVERT JUMPDEST PUSH0 DUP3 DUP3 MSTORE PUSH1 0x20 DUP3 ADD SWAP1 POP SWAP3 SWAP2 POP POP JUMP JUMPDEST PUSH32 0x596F752063616E6E6F7420686176652061636365737320746F20726561642062 PUSH0 DUP3 ADD MSTORE PUSH32 0x616C616E63650000000000000000000000000000000000000000000000000000 PUSH1 0x20 DUP3 ADD MSTORE POP JUMP JUMPDEST PUSH0 PUSH2 0xD25 PUSH1 0x26 DUP4 PUSH2 0xCBB JUMP JUMPDEST SWAP2 POP PUSH2 0xD30 DUP3 PUSH2 0xCCB JUMP JUMPDEST PUSH1 0x40 DUP3 ADD SWAP1 POP SWAP2 SWAP1 POP JUMP JUMPDEST PUSH0 PUSH1 0x20 DUP3 ADD SWAP1 POP DUP2 DUP2 SUB PUSH0 DUP4 ADD MSTORE PUSH2 0xD52 DUP2 PUSH2 0xD19 JUMP JUMPDEST SWAP1 POP SWAP2 SWAP1 POP JUMP INVALID LOG2 PUSH5 0x6970667358 0x22 SLT KECCAK256 STATICCALL RETURN SWAP6 PUSH7 0x4ADAE03C086F6B 0x24 SWAP15 INVALID MOD 0x24 PUSH23 0xABA3878D7748196D53ED9E24384DD064736F6C63430008 BYTE STOP CALLER "
				},
				"gasEstimates": {
					"creation": {
						"codeDepositCost": "694200",
						"executionCost": "24991",
						"totalCost": "719191"
					},
					"external": {
						"add_doctor_data(uint256,string,string,uint256)": "infinite",
						"delete_doctor_data(uint256)": "infinite",
						"get_balance_earn_from_patients()": "2726",
						"get_doctor_data(uint256)": "infinite",
						"payment_from_patients()": "207",
						"withdraw_funds_to_owner_from_contract()": "infinite"
					}
				},
				"methodIdentifiers": {
					"add_doctor_data(uint256,string,string,uint256)": "05227c1b",
					"delete_doctor_data(uint256)": "a929ffe1",
					"get_balance_earn_from_patients()": "dd1d97cb",
					"get_doctor_data(uint256)": "692e8201",
					"payment_from_patients()": "e16b2eef",
					"withdraw_funds_to_owner_from_contract()": "8ed20cbe"
				}
			},
			"storageLayout": {
				"storage": [
					{
						"astId": 8,
						"contract": "contracts/doctor.sol:practice",
						"label": "owner",
						"offset": 0,
						"slot": "0",
						"type": "t_address_payable"
					},
					{
						"astId": 25,
						"contract": "contracts/doctor.sol:practice",
						"label": "doctor_mapping",
						"offset": 0,
						"slot": "1",
						"type": "t_mapping(t_uint256,t_struct(Doctor_Model)20_storage)"
					}
				],
				"types": {
					"t_address_payable": {
						"encoding": "inplace",
						"label": "address payable",
						"numberOfBytes": "20"
					},
					"t_array(t_struct(Doctor)15_storage)dyn_storage": {
						"base": "t_struct(Doctor)15_storage",
						"encoding": "dynamic_array",
						"label": "struct practice.Doctor[]",
						"numberOfBytes": "32"
					},
					"t_mapping(t_uint256,t_struct(Doctor_Model)20_storage)": {
						"encoding": "mapping",
						"key": "t_uint256",
						"label": "mapping(uint256 => struct practice.Doctor_Model)",
						"numberOfBytes": "32",
						"value": "t_struct(Doctor_Model)20_storage"
					},
					"t_string_storage": {
						"encoding": "bytes",
						"label": "string",
						"numberOfBytes": "32"
					},
					"t_struct(Doctor)15_storage": {
						"encoding": "inplace",
						"label": "struct practice.Doctor",
						"members": [
							{
								"astId": 10,
								"contract": "contracts/doctor.sol:practice",
								"label": "name",
								"offset": 0,
								"slot": "0",
								"type": "t_string_storage"
							},
							{
								"astId": 12,
								"contract": "contracts/doctor.sol:practice",
								"label": "speciality",
								"offset": 0,
								"slot": "1",
								"type": "t_string_storage"
							},
							{
								"astId": 14,
								"contract": "contracts/doctor.sol:practice",
								"label": "roomNo",
								"offset": 0,
								"slot": "2",
								"type": "t_uint256"
							}
						],
						"numberOfBytes": "96"
					},
					"t_struct(Doctor_Model)20_storage": {
						"encoding": "inplace",
						"label": "struct practice.Doctor_Model",
						"members": [
							{
								"astId": 19,
								"contract": "contracts/doctor.sol:practice",
								"label": "DoctorsArray",
								"offset": 0,
								"slot": "0",
								"type": "t_array(t_struct(Doctor)15_storage)dyn_storage"
							}
						],
						"numberOfBytes": "32"
					},
					"t_uint256": {
						"encoding": "inplace",
						"label": "uint256",
						"numberOfBytes": "32"
					}
				}
			},
			"userdoc": {
				"kind": "user",
				"methods": {},
				"version": 1
			}
		}
	}
}