{
	"contracts/event_organization.sol": {
		"event_organization": {
			"abi": [
				{
					"inputs": [
						{
							"internalType": "string",
							"name": "_name",
							"type": "string"
						},
						{
							"internalType": "uint256",
							"name": "_ticketPrice",
							"type": "uint256"
						}
					],
					"name": "addEvent",
					"outputs": [
						{
							"internalType": "string",
							"name": "",
							"type": "string"
						}
					],
					"stateMutability": "payable",
					"type": "function"
				},
				{
					"inputs": [
						{
							"internalType": "address",
							"name": "_organizer",
							"type": "address"
						}
					],
					"name": "getEventDetails",
					"outputs": [
						{
							"internalType": "string",
							"name": "",
							"type": "string"
						},
						{
							"internalType": "uint256",
							"name": "",
							"type": "uint256"
						}
					],
					"stateMutability": "view",
					"type": "function"
				},
				{
					"inputs": [
						{
							"internalType": "address",
							"name": "_address",
							"type": "address"
						}
					],
					"name": "getFullEvent",
					"outputs": [
						{
							"components": [
								{
									"components": [
										{
											"internalType": "string",
											"name": "name",
											"type": "string"
										},
										{
											"internalType": "address",
											"name": "organizer",
											"type": "address"
										},
										{
											"internalType": "uint256",
											"name": "ticketPrice",
											"type": "uint256"
										}
									],
									"internalType": "struct event_organization.Event[]",
									"name": "EventsArray",
									"type": "tuple[]"
								}
							],
							"internalType": "struct event_organization.Event_Modal",
							"name": "",
							"type": "tuple"
						}
					],
					"stateMutability": "view",
					"type": "function"
				}
			],
			"devdoc": {
				"kind": "dev",
				"methods": {},
				"version": 1
			},
			"evm": {
				"assembly": "    /* \"contracts/event_organization.sol\":64:1161  contract event_organization {... */\n  mstore(0x40, 0x80)\n  callvalue\n  dup1\n  iszero\n  tag_1\n  jumpi\n  0x00\n  dup1\n  revert\ntag_1:\n  pop\n  dataSize(sub_0)\n  dup1\n  dataOffset(sub_0)\n  0x00\n  codecopy\n  0x00\n  return\nstop\n\nsub_0: assembly {\n        /* \"contracts/event_organization.sol\":64:1161  contract event_organization {... */\n      mstore(0x40, 0x80)\n      jumpi(tag_1, lt(calldatasize, 0x04))\n      shr(0xe0, calldataload(0x00))\n      dup1\n      0xa64ee206\n      eq\n      tag_2\n      jumpi\n      dup1\n      0xd43f036b\n      eq\n      tag_3\n      jumpi\n      dup1\n      0xf0e1691a\n      eq\n      tag_4\n      jumpi\n    tag_1:\n      0x00\n      dup1\n      revert\n        /* \"contracts/event_organization.sol\":703:829  function getFullEvent(address _address) public view returns(Event_Modal memory) {... */\n    tag_2:\n      callvalue\n      dup1\n      iszero\n      tag_5\n      jumpi\n      0x00\n      dup1\n      revert\n    tag_5:\n      pop\n      tag_6\n      0x04\n      dup1\n      calldatasize\n      sub\n      dup2\n      add\n      swap1\n      tag_7\n      swap2\n      swap1\n      tag_8\n      jump\t// in\n    tag_7:\n      tag_9\n      jump\t// in\n    tag_6:\n      mload(0x40)\n      tag_10\n      swap2\n      swap1\n      tag_11\n      jump\t// in\n    tag_10:\n      mload(0x40)\n      dup1\n      swap2\n      sub\n      swap1\n      return\n        /* \"contracts/event_organization.sol\":845:1156  function getEventDetails(address _organizer) view public returns(string memory,uint){... */\n    tag_3:\n      callvalue\n      dup1\n      iszero\n      tag_12\n      jumpi\n      0x00\n      dup1\n      revert\n    tag_12:\n      pop\n      tag_13\n      0x04\n      dup1\n      calldatasize\n      sub\n      dup2\n      add\n      swap1\n      tag_14\n      swap2\n      swap1\n      tag_8\n      jump\t// in\n    tag_14:\n      tag_15\n      jump\t// in\n    tag_13:\n      mload(0x40)\n      tag_16\n      swap3\n      swap2\n      swap1\n      tag_17\n      jump\t// in\n    tag_16:\n      mload(0x40)\n      dup1\n      swap2\n      sub\n      swap1\n      return\n        /* \"contracts/event_organization.sol\":321:695  function addEvent(string memory _name, uint256 _ticketPrice) public payable returns(string memory) {... */\n    tag_4:\n      tag_18\n      0x04\n      dup1\n      calldatasize\n      sub\n      dup2\n      add\n      swap1\n      tag_19\n      swap2\n      swap1\n      tag_20\n      jump\t// in\n    tag_19:\n      tag_21\n      jump\t// in\n    tag_18:\n      mload(0x40)\n      tag_22\n      swap2\n      swap1\n      tag_23\n      jump\t// in\n    tag_22:\n      mload(0x40)\n      dup1\n      swap2\n      sub\n      swap1\n      return\n        /* \"contracts/event_organization.sol\":703:829  function getFullEvent(address _address) public view returns(Event_Modal memory) {... */\n    tag_9:\n        /* \"contracts/event_organization.sol\":763:781  Event_Modal memory */\n      tag_24\n      tag_25\n      jump\t// in\n    tag_24:\n        /* \"contracts/event_organization.sol\":801:811  events_map */\n      0x00\n        /* \"contracts/event_organization.sol\":801:821  events_map[_address] */\n      dup1\n        /* \"contracts/event_organization.sol\":812:820  _address */\n      dup4\n        /* \"contracts/event_organization.sol\":801:821  events_map[_address] */\n      0xffffffffffffffffffffffffffffffffffffffff\n      and\n      0xffffffffffffffffffffffffffffffffffffffff\n      and\n      dup2\n      mstore\n      0x20\n      add\n      swap1\n      dup2\n      mstore\n      0x20\n      add\n      0x00\n      keccak256\n        /* \"contracts/event_organization.sol\":794:821  return events_map[_address] */\n      mload(0x40)\n      dup1\n      0x20\n      add\n      0x40\n      mstore\n      swap1\n      dup2\n      0x00\n      dup3\n      add\n      dup1\n      sload\n      dup1\n      0x20\n      mul\n      0x20\n      add\n      mload(0x40)\n      swap1\n      dup2\n      add\n      0x40\n      mstore\n      dup1\n      swap3\n      swap2\n      swap1\n      dup2\n      dup2\n      mstore\n      0x20\n      add\n      0x00\n      swap1\n    tag_27:\n      dup3\n      dup3\n      lt\n      iszero\n      tag_28\n      jumpi\n      dup4\n      dup3\n      swap1\n      0x00\n      mstore\n      keccak256(0x00, 0x20)\n      swap1\n      0x03\n      mul\n      add\n      mload(0x40)\n      dup1\n      0x60\n      add\n      0x40\n      mstore\n      swap1\n      dup2\n      0x00\n      dup3\n      add\n      dup1\n      sload\n      tag_30\n      swap1\n      tag_31\n      jump\t// in\n    tag_30:\n      dup1\n      0x1f\n      add\n      0x20\n      dup1\n      swap2\n      div\n      mul\n      0x20\n      add\n      mload(0x40)\n      swap1\n      dup2\n      add\n      0x40\n      mstore\n      dup1\n      swap3\n      swap2\n      swap1\n      dup2\n      dup2\n      mstore\n      0x20\n      add\n      dup3\n      dup1\n      sload\n      tag_32\n      swap1\n      tag_31\n      jump\t// in\n    tag_32:\n      dup1\n      iszero\n      tag_33\n      jumpi\n      dup1\n      0x1f\n      lt\n      tag_34\n      jumpi\n      0x0100\n      dup1\n      dup4\n      sload\n      div\n      mul\n      dup4\n      mstore\n      swap2\n      0x20\n      add\n      swap2\n      jump(tag_33)\n    tag_34:\n      dup3\n      add\n      swap2\n      swap1\n      0x00\n      mstore\n      keccak256(0x00, 0x20)\n      swap1\n    tag_35:\n      dup2\n      sload\n      dup2\n      mstore\n      swap1\n      0x01\n      add\n      swap1\n      0x20\n      add\n      dup1\n      dup4\n      gt\n      tag_35\n      jumpi\n      dup3\n      swap1\n      sub\n      0x1f\n      and\n      dup3\n      add\n      swap2\n    tag_33:\n      pop\n      pop\n      pop\n      pop\n      pop\n      dup2\n      mstore\n      0x20\n      add\n      0x01\n      dup3\n      add\n      0x00\n      swap1\n      sload\n      swap1\n      0x0100\n      exp\n      swap1\n      div\n      0xffffffffffffffffffffffffffffffffffffffff\n      and\n      0xffffffffffffffffffffffffffffffffffffffff\n      and\n      0xffffffffffffffffffffffffffffffffffffffff\n      and\n      dup2\n      mstore\n      0x20\n      add\n      0x02\n      dup3\n      add\n      sload\n      dup2\n      mstore\n      pop\n      pop\n      dup2\n      mstore\n      0x20\n      add\n      swap1\n      0x01\n      add\n      swap1\n      jump(tag_27)\n    tag_28:\n      pop\n      pop\n      pop\n      pop\n      dup2\n      mstore\n      pop\n      pop\n      swap1\n      pop\n        /* \"contracts/event_organization.sol\":703:829  function getFullEvent(address _address) public view returns(Event_Modal memory) {... */\n      swap2\n      swap1\n      pop\n      jump\t// out\n        /* \"contracts/event_organization.sol\":845:1156  function getEventDetails(address _organizer) view public returns(string memory,uint){... */\n    tag_15:\n        /* \"contracts/event_organization.sol\":910:923  string memory */\n      0x60\n        /* \"contracts/event_organization.sol\":924:928  uint */\n      0x00\n        /* \"contracts/event_organization.sol\":957:967  events_map */\n      dup1\n        /* \"contracts/event_organization.sol\":957:979  events_map[_organizer] */\n      0x00\n        /* \"contracts/event_organization.sol\":968:978  _organizer */\n      dup5\n        /* \"contracts/event_organization.sol\":957:979  events_map[_organizer] */\n      0xffffffffffffffffffffffffffffffffffffffff\n      and\n      0xffffffffffffffffffffffffffffffffffffffff\n      and\n      dup2\n      mstore\n      0x20\n      add\n      swap1\n      dup2\n      mstore\n      0x20\n      add\n      0x00\n      keccak256\n        /* \"contracts/event_organization.sol\":957:991  events_map[_organizer].EventsArray */\n      0x00\n      add\n        /* \"contracts/event_organization.sol\":1036:1037  1 */\n      0x01\n        /* \"contracts/event_organization.sol\":992:1002  events_map */\n      0x00\n        /* \"contracts/event_organization.sol\":992:1014  events_map[_organizer] */\n      dup1\n        /* \"contracts/event_organization.sol\":1003:1013  _organizer */\n      dup7\n        /* \"contracts/event_organization.sol\":992:1014  events_map[_organizer] */\n      0xffffffffffffffffffffffffffffffffffffffff\n      and\n      0xffffffffffffffffffffffffffffffffffffffff\n      and\n      dup2\n      mstore\n      0x20\n      add\n      swap1\n      dup2\n      mstore\n      0x20\n      add\n      0x00\n      keccak256\n        /* \"contracts/event_organization.sol\":992:1026  events_map[_organizer].EventsArray */\n      0x00\n      add\n        /* \"contracts/event_organization.sol\":992:1033  events_map[_organizer].EventsArray.length */\n      dup1\n      sload\n      swap1\n      pop\n        /* \"contracts/event_organization.sol\":992:1037  events_map[_organizer].EventsArray.length - 1 */\n      tag_37\n      swap2\n      swap1\n      tag_38\n      jump\t// in\n    tag_37:\n        /* \"contracts/event_organization.sol\":957:1038  events_map[_organizer].EventsArray[events_map[_organizer].EventsArray.length - 1] */\n      dup2\n      sload\n      dup2\n      lt\n      tag_39\n      jumpi\n      tag_40\n      tag_41\n      jump\t// in\n    tag_40:\n    tag_39:\n      swap1\n      0x00\n      mstore\n      keccak256(0x00, 0x20)\n      swap1\n      0x03\n      mul\n      add\n        /* \"contracts/event_organization.sol\":957:1043  events_map[_organizer].EventsArray[events_map[_organizer].EventsArray.length - 1].name */\n      0x00\n      add\n        /* \"contracts/event_organization.sol\":1044:1054  events_map */\n      0x00\n        /* \"contracts/event_organization.sol\":1044:1066  events_map[_organizer] */\n      dup1\n        /* \"contracts/event_organization.sol\":1055:1065  _organizer */\n      dup6\n        /* \"contracts/event_organization.sol\":1044:1066  events_map[_organizer] */\n      0xffffffffffffffffffffffffffffffffffffffff\n      and\n      0xffffffffffffffffffffffffffffffffffffffff\n      and\n      dup2\n      mstore\n      0x20\n      add\n      swap1\n      dup2\n      mstore\n      0x20\n      add\n      0x00\n      keccak256\n        /* \"contracts/event_organization.sol\":1044:1078  events_map[_organizer].EventsArray */\n      0x00\n      add\n        /* \"contracts/event_organization.sol\":1123:1124  1 */\n      0x01\n        /* \"contracts/event_organization.sol\":1079:1089  events_map */\n      0x00\n        /* \"contracts/event_organization.sol\":1079:1101  events_map[_organizer] */\n      dup1\n        /* \"contracts/event_organization.sol\":1090:1100  _organizer */\n      dup8\n        /* \"contracts/event_organization.sol\":1079:1101  events_map[_organizer] */\n      0xffffffffffffffffffffffffffffffffffffffff\n      and\n      0xffffffffffffffffffffffffffffffffffffffff\n      and\n      dup2\n      mstore\n      0x20\n      add\n      swap1\n      dup2\n      mstore\n      0x20\n      add\n      0x00\n      keccak256\n        /* \"contracts/event_organization.sol\":1079:1113  events_map[_organizer].EventsArray */\n      0x00\n      add\n        /* \"contracts/event_organization.sol\":1079:1120  events_map[_organizer].EventsArray.length */\n      dup1\n      sload\n      swap1\n      pop\n        /* \"contracts/event_organization.sol\":1079:1124  events_map[_organizer].EventsArray.length - 1 */\n      tag_43\n      swap2\n      swap1\n      tag_38\n      jump\t// in\n    tag_43:\n        /* \"contracts/event_organization.sol\":1044:1125  events_map[_organizer].EventsArray[events_map[_organizer].EventsArray.length - 1] */\n      dup2\n      sload\n      dup2\n      lt\n      tag_44\n      jumpi\n      tag_45\n      tag_41\n      jump\t// in\n    tag_45:\n    tag_44:\n      swap1\n      0x00\n      mstore\n      keccak256(0x00, 0x20)\n      swap1\n      0x03\n      mul\n      add\n        /* \"contracts/event_organization.sol\":1044:1137  events_map[_organizer].EventsArray[events_map[_organizer].EventsArray.length - 1].ticketPrice */\n      0x02\n      add\n      sload\n        /* \"contracts/event_organization.sol\":950:1138  return(events_map[_organizer].EventsArray[events_map[_organizer].EventsArray.length - 1].name,events_map[_organizer].EventsArray[events_map[_organizer].EventsArray.length - 1].ticketPrice) */\n      dup2\n      dup1\n      sload\n      tag_47\n      swap1\n      tag_31\n      jump\t// in\n    tag_47:\n      dup1\n      0x1f\n      add\n      0x20\n      dup1\n      swap2\n      div\n      mul\n      0x20\n      add\n      mload(0x40)\n      swap1\n      dup2\n      add\n      0x40\n      mstore\n      dup1\n      swap3\n      swap2\n      swap1\n      dup2\n      dup2\n      mstore\n      0x20\n      add\n      dup3\n      dup1\n      sload\n      tag_48\n      swap1\n      tag_31\n      jump\t// in\n    tag_48:\n      dup1\n      iszero\n      tag_49\n      jumpi\n      dup1\n      0x1f\n      lt\n      tag_50\n      jumpi\n      0x0100\n      dup1\n      dup4\n      sload\n      div\n      mul\n      dup4\n      mstore\n      swap2\n      0x20\n      add\n      swap2\n      jump(tag_49)\n    tag_50:\n      dup3\n      add\n      swap2\n      swap1\n      0x00\n      mstore\n      keccak256(0x00, 0x20)\n      swap1\n    tag_51:\n      dup2\n      sload\n      dup2\n      mstore\n      swap1\n      0x01\n      add\n      swap1\n      0x20\n      add\n      dup1\n      dup4\n      gt\n      tag_51\n      jumpi\n      dup3\n      swap1\n      sub\n      0x1f\n      and\n      dup3\n      add\n      swap2\n    tag_49:\n      pop\n      pop\n      pop\n      pop\n      pop\n      swap2\n      pop\n      swap2\n      pop\n      swap2\n      pop\n        /* \"contracts/event_organization.sol\":845:1156  function getEventDetails(address _organizer) view public returns(string memory,uint){... */\n      swap2\n      pop\n      swap2\n      jump\t// out\n        /* \"contracts/event_organization.sol\":321:695  function addEvent(string memory _name, uint256 _ticketPrice) public payable returns(string memory) {... */\n    tag_21:\n        /* \"contracts/event_organization.sol\":405:418  string memory */\n      0x60\n        /* \"contracts/event_organization.sol\":452:459  1 ether */\n      0x0de0b6b3a7640000\n        /* \"contracts/event_organization.sol\":439:448  msg.value */\n      callvalue\n        /* \"contracts/event_organization.sol\":439:459  msg.value == 1 ether */\n      eq\n        /* \"contracts/event_organization.sol\":431:509  require(msg.value == 1 ether, \"You must send exactly 1 ether to add an event\") */\n      tag_53\n      jumpi\n      mload(0x40)\n      0x08c379a000000000000000000000000000000000000000000000000000000000\n      dup2\n      mstore\n      0x04\n      add\n      tag_54\n      swap1\n      tag_55\n      jump\t// in\n    tag_54:\n      mload(0x40)\n      dup1\n      swap2\n      sub\n      swap1\n      revert\n    tag_53:\n        /* \"contracts/event_organization.sol\":520:541  Event memory newEvent */\n      0x00\n        /* \"contracts/event_organization.sol\":544:581  Event(_name, msg.sender,_ticketPrice) */\n      mload(0x40)\n      dup1\n      0x60\n      add\n      0x40\n      mstore\n      dup1\n        /* \"contracts/event_organization.sol\":550:555  _name */\n      dup6\n        /* \"contracts/event_organization.sol\":544:581  Event(_name, msg.sender,_ticketPrice) */\n      dup2\n      mstore\n      0x20\n      add\n        /* \"contracts/event_organization.sol\":557:567  msg.sender */\n      caller\n        /* \"contracts/event_organization.sol\":544:581  Event(_name, msg.sender,_ticketPrice) */\n      0xffffffffffffffffffffffffffffffffffffffff\n      and\n      dup2\n      mstore\n      0x20\n      add\n        /* \"contracts/event_organization.sol\":568:580  _ticketPrice */\n      dup5\n        /* \"contracts/event_organization.sol\":544:581  Event(_name, msg.sender,_ticketPrice) */\n      dup2\n      mstore\n      pop\n        /* \"contracts/event_organization.sol\":520:581  Event memory newEvent = Event(_name, msg.sender,_ticketPrice) */\n      swap1\n      pop\n        /* \"contracts/event_organization.sol\":592:602  events_map */\n      0x00\n        /* \"contracts/event_organization.sol\":592:614  events_map[msg.sender] */\n      dup1\n        /* \"contracts/event_organization.sol\":603:613  msg.sender */\n      caller\n        /* \"contracts/event_organization.sol\":592:614  events_map[msg.sender] */\n      0xffffffffffffffffffffffffffffffffffffffff\n      and\n      0xffffffffffffffffffffffffffffffffffffffff\n      and\n      dup2\n      mstore\n      0x20\n      add\n      swap1\n      dup2\n      mstore\n      0x20\n      add\n      0x00\n      keccak256\n        /* \"contracts/event_organization.sol\":592:626  events_map[msg.sender].EventsArray */\n      0x00\n      add\n        /* \"contracts/event_organization.sol\":632:640  newEvent */\n      dup2\n        /* \"contracts/event_organization.sol\":592:641  events_map[msg.sender].EventsArray.push(newEvent) */\n      swap1\n      dup1\n      0x01\n      dup2\n      sload\n      add\n      dup1\n      dup3\n      sstore\n      dup1\n      swap2\n      pop\n      pop\n      0x01\n      swap1\n      sub\n      swap1\n      0x00\n      mstore\n      keccak256(0x00, 0x20)\n      swap1\n      0x03\n      mul\n      add\n      0x00\n      swap1\n      swap2\n      swap1\n      swap2\n      swap1\n      swap2\n      pop\n      0x00\n      dup3\n      add\n      mload\n      dup2\n      0x00\n      add\n      swap1\n      dup2\n      tag_57\n      swap2\n      swap1\n      tag_58\n      jump\t// in\n    tag_57:\n      pop\n      0x20\n      dup3\n      add\n      mload\n      dup2\n      0x01\n      add\n      exp(0x0100, 0x00)\n      dup2\n      sload\n      dup2\n      0xffffffffffffffffffffffffffffffffffffffff\n      mul\n      not\n      and\n      swap1\n      dup4\n      0xffffffffffffffffffffffffffffffffffffffff\n      and\n      mul\n      or\n      swap1\n      sstore\n      pop\n      0x40\n      dup3\n      add\n      mload\n      dup2\n      0x02\n      add\n      sstore\n      pop\n      pop\n        /* \"contracts/event_organization.sol\":652:677  return \"Event Registered\" */\n      mload(0x40)\n      dup1\n      0x40\n      add\n      0x40\n      mstore\n      dup1\n      0x10\n      dup2\n      mstore\n      0x20\n      add\n      0x4576656e74205265676973746572656400000000000000000000000000000000\n      dup2\n      mstore\n      pop\n      swap2\n      pop\n      pop\n        /* \"contracts/event_organization.sol\":321:695  function addEvent(string memory _name, uint256 _ticketPrice) public payable returns(string memory) {... */\n      swap3\n      swap2\n      pop\n      pop\n      jump\t// out\n    tag_25:\n      mload(0x40)\n      dup1\n      0x20\n      add\n      0x40\n      mstore\n      dup1\n      0x60\n      dup2\n      mstore\n      pop\n      swap1\n      jump\t// out\n        /* \"#utility.yul\":7:82   */\n    tag_59:\n        /* \"#utility.yul\":40:46   */\n      0x00\n        /* \"#utility.yul\":73:75   */\n      0x40\n        /* \"#utility.yul\":67:76   */\n      mload\n        /* \"#utility.yul\":57:76   */\n      swap1\n      pop\n        /* \"#utility.yul\":7:82   */\n      swap1\n      jump\t// out\n        /* \"#utility.yul\":88:205   */\n    tag_60:\n        /* \"#utility.yul\":197:198   */\n      0x00\n        /* \"#utility.yul\":194:195   */\n      dup1\n        /* \"#utility.yul\":187:199   */\n      revert\n        /* \"#utility.yul\":211:328   */\n    tag_61:\n        /* \"#utility.yul\":320:321   */\n      0x00\n        /* \"#utility.yul\":317:318   */\n      dup1\n        /* \"#utility.yul\":310:322   */\n      revert\n        /* \"#utility.yul\":334:460   */\n    tag_62:\n        /* \"#utility.yul\":371:378   */\n      0x00\n        /* \"#utility.yul\":411:453   */\n      0xffffffffffffffffffffffffffffffffffffffff\n        /* \"#utility.yul\":404:409   */\n      dup3\n        /* \"#utility.yul\":400:454   */\n      and\n        /* \"#utility.yul\":389:454   */\n      swap1\n      pop\n        /* \"#utility.yul\":334:460   */\n      swap2\n      swap1\n      pop\n      jump\t// out\n        /* \"#utility.yul\":466:562   */\n    tag_63:\n        /* \"#utility.yul\":503:510   */\n      0x00\n        /* \"#utility.yul\":532:556   */\n      tag_121\n        /* \"#utility.yul\":550:555   */\n      dup3\n        /* \"#utility.yul\":532:556   */\n      tag_62\n      jump\t// in\n    tag_121:\n        /* \"#utility.yul\":521:556   */\n      swap1\n      pop\n        /* \"#utility.yul\":466:562   */\n      swap2\n      swap1\n      pop\n      jump\t// out\n        /* \"#utility.yul\":568:690   */\n    tag_64:\n        /* \"#utility.yul\":641:665   */\n      tag_123\n        /* \"#utility.yul\":659:664   */\n      dup2\n        /* \"#utility.yul\":641:665   */\n      tag_63\n      jump\t// in\n    tag_123:\n        /* \"#utility.yul\":634:639   */\n      dup2\n        /* \"#utility.yul\":631:666   */\n      eq\n        /* \"#utility.yul\":621:684   */\n      tag_124\n      jumpi\n        /* \"#utility.yul\":680:681   */\n      0x00\n        /* \"#utility.yul\":677:678   */\n      dup1\n        /* \"#utility.yul\":670:682   */\n      revert\n        /* \"#utility.yul\":621:684   */\n    tag_124:\n        /* \"#utility.yul\":568:690   */\n      pop\n      jump\t// out\n        /* \"#utility.yul\":696:835   */\n    tag_65:\n        /* \"#utility.yul\":742:747   */\n      0x00\n        /* \"#utility.yul\":780:786   */\n      dup2\n        /* \"#utility.yul\":767:787   */\n      calldataload\n        /* \"#utility.yul\":758:787   */\n      swap1\n      pop\n        /* \"#utility.yul\":796:829   */\n      tag_126\n        /* \"#utility.yul\":823:828   */\n      dup2\n        /* \"#utility.yul\":796:829   */\n      tag_64\n      jump\t// in\n    tag_126:\n        /* \"#utility.yul\":696:835   */\n      swap3\n      swap2\n      pop\n      pop\n      jump\t// out\n        /* \"#utility.yul\":841:1170   */\n    tag_8:\n        /* \"#utility.yul\":900:906   */\n      0x00\n        /* \"#utility.yul\":949:951   */\n      0x20\n        /* \"#utility.yul\":937:946   */\n      dup3\n        /* \"#utility.yul\":928:935   */\n      dup5\n        /* \"#utility.yul\":924:947   */\n      sub\n        /* \"#utility.yul\":920:952   */\n      slt\n        /* \"#utility.yul\":917:1036   */\n      iszero\n      tag_128\n      jumpi\n        /* \"#utility.yul\":955:1034   */\n      tag_129\n      tag_60\n      jump\t// in\n    tag_129:\n        /* \"#utility.yul\":917:1036   */\n    tag_128:\n        /* \"#utility.yul\":1075:1076   */\n      0x00\n        /* \"#utility.yul\":1100:1153   */\n      tag_130\n        /* \"#utility.yul\":1145:1152   */\n      dup5\n        /* \"#utility.yul\":1136:1142   */\n      dup3\n        /* \"#utility.yul\":1125:1134   */\n      dup6\n        /* \"#utility.yul\":1121:1143   */\n      add\n        /* \"#utility.yul\":1100:1153   */\n      tag_65\n      jump\t// in\n    tag_130:\n        /* \"#utility.yul\":1090:1153   */\n      swap2\n      pop\n        /* \"#utility.yul\":1046:1163   */\n      pop\n        /* \"#utility.yul\":841:1170   */\n      swap3\n      swap2\n      pop\n      pop\n      jump\t// out\n        /* \"#utility.yul\":1176:1310   */\n    tag_66:\n        /* \"#utility.yul\":1263:1269   */\n      0x00\n        /* \"#utility.yul\":1297:1302   */\n      dup2\n        /* \"#utility.yul\":1291:1303   */\n      mload\n        /* \"#utility.yul\":1281:1303   */\n      swap1\n      pop\n        /* \"#utility.yul\":1176:1310   */\n      swap2\n      swap1\n      pop\n      jump\t// out\n        /* \"#utility.yul\":1316:1510   */\n    tag_67:\n        /* \"#utility.yul\":1425:1436   */\n      0x00\n        /* \"#utility.yul\":1459:1465   */\n      dup3\n        /* \"#utility.yul\":1454:1457   */\n      dup3\n        /* \"#utility.yul\":1447:1466   */\n      mstore\n        /* \"#utility.yul\":1499:1503   */\n      0x20\n        /* \"#utility.yul\":1494:1497   */\n      dup3\n        /* \"#utility.yul\":1490:1504   */\n      add\n        /* \"#utility.yul\":1475:1504   */\n      swap1\n      pop\n        /* \"#utility.yul\":1316:1510   */\n      swap3\n      swap2\n      pop\n      pop\n      jump\t// out\n        /* \"#utility.yul\":1516:1668   */\n    tag_68:\n        /* \"#utility.yul\":1603:1607   */\n      0x00\n        /* \"#utility.yul\":1626:1629   */\n      dup2\n        /* \"#utility.yul\":1618:1629   */\n      swap1\n      pop\n        /* \"#utility.yul\":1656:1660   */\n      0x20\n        /* \"#utility.yul\":1651:1654   */\n      dup3\n        /* \"#utility.yul\":1647:1661   */\n      add\n        /* \"#utility.yul\":1639:1661   */\n      swap1\n      pop\n        /* \"#utility.yul\":1516:1668   */\n      swap2\n      swap1\n      pop\n      jump\t// out\n        /* \"#utility.yul\":1674:1773   */\n    tag_69:\n        /* \"#utility.yul\":1726:1732   */\n      0x00\n        /* \"#utility.yul\":1760:1765   */\n      dup2\n        /* \"#utility.yul\":1754:1766   */\n      mload\n        /* \"#utility.yul\":1744:1766   */\n      swap1\n      pop\n        /* \"#utility.yul\":1674:1773   */\n      swap2\n      swap1\n      pop\n      jump\t// out\n        /* \"#utility.yul\":1779:1938   */\n    tag_70:\n        /* \"#utility.yul\":1853:1864   */\n      0x00\n        /* \"#utility.yul\":1887:1893   */\n      dup3\n        /* \"#utility.yul\":1882:1885   */\n      dup3\n        /* \"#utility.yul\":1875:1894   */\n      mstore\n        /* \"#utility.yul\":1927:1931   */\n      0x20\n        /* \"#utility.yul\":1922:1925   */\n      dup3\n        /* \"#utility.yul\":1918:1932   */\n      add\n        /* \"#utility.yul\":1903:1932   */\n      swap1\n      pop\n        /* \"#utility.yul\":1779:1938   */\n      swap3\n      swap2\n      pop\n      pop\n      jump\t// out\n        /* \"#utility.yul\":1944:2083   */\n    tag_71:\n        /* \"#utility.yul\":2033:2039   */\n      dup3\n        /* \"#utility.yul\":2028:2031   */\n      dup2\n        /* \"#utility.yul\":2023:2026   */\n      dup4\n        /* \"#utility.yul\":2017:2040   */\n      mcopy\n        /* \"#utility.yul\":2074:2075   */\n      0x00\n        /* \"#utility.yul\":2065:2071   */\n      dup4\n        /* \"#utility.yul\":2060:2063   */\n      dup4\n        /* \"#utility.yul\":2056:2072   */\n      add\n        /* \"#utility.yul\":2049:2076   */\n      mstore\n        /* \"#utility.yul\":1944:2083   */\n      pop\n      pop\n      pop\n      jump\t// out\n        /* \"#utility.yul\":2089:2191   */\n    tag_72:\n        /* \"#utility.yul\":2130:2136   */\n      0x00\n        /* \"#utility.yul\":2181:2183   */\n      0x1f\n        /* \"#utility.yul\":2177:2184   */\n      not\n        /* \"#utility.yul\":2172:2174   */\n      0x1f\n        /* \"#utility.yul\":2165:2170   */\n      dup4\n        /* \"#utility.yul\":2161:2175   */\n      add\n        /* \"#utility.yul\":2157:2185   */\n      and\n        /* \"#utility.yul\":2147:2185   */\n      swap1\n      pop\n        /* \"#utility.yul\":2089:2191   */\n      swap2\n      swap1\n      pop\n      jump\t// out\n        /* \"#utility.yul\":2197:2554   */\n    tag_73:\n        /* \"#utility.yul\":2275:2278   */\n      0x00\n        /* \"#utility.yul\":2303:2342   */\n      tag_139\n        /* \"#utility.yul\":2336:2341   */\n      dup3\n        /* \"#utility.yul\":2303:2342   */\n      tag_69\n      jump\t// in\n    tag_139:\n        /* \"#utility.yul\":2358:2419   */\n      tag_140\n        /* \"#utility.yul\":2412:2418   */\n      dup2\n        /* \"#utility.yul\":2407:2410   */\n      dup6\n        /* \"#utility.yul\":2358:2419   */\n      tag_70\n      jump\t// in\n    tag_140:\n        /* \"#utility.yul\":2351:2419   */\n      swap4\n      pop\n        /* \"#utility.yul\":2428:2493   */\n      tag_141\n        /* \"#utility.yul\":2486:2492   */\n      dup2\n        /* \"#utility.yul\":2481:2484   */\n      dup6\n        /* \"#utility.yul\":2474:2478   */\n      0x20\n        /* \"#utility.yul\":2467:2472   */\n      dup7\n        /* \"#utility.yul\":2463:2479   */\n      add\n        /* \"#utility.yul\":2428:2493   */\n      tag_71\n      jump\t// in\n    tag_141:\n        /* \"#utility.yul\":2518:2547   */\n      tag_142\n        /* \"#utility.yul\":2540:2546   */\n      dup2\n        /* \"#utility.yul\":2518:2547   */\n      tag_72\n      jump\t// in\n    tag_142:\n        /* \"#utility.yul\":2513:2516   */\n      dup5\n        /* \"#utility.yul\":2509:2548   */\n      add\n        /* \"#utility.yul\":2502:2548   */\n      swap2\n      pop\n        /* \"#utility.yul\":2279:2554   */\n      pop\n        /* \"#utility.yul\":2197:2554   */\n      swap3\n      swap2\n      pop\n      pop\n      jump\t// out\n        /* \"#utility.yul\":2560:2668   */\n    tag_74:\n        /* \"#utility.yul\":2637:2661   */\n      tag_144\n        /* \"#utility.yul\":2655:2660   */\n      dup2\n        /* \"#utility.yul\":2637:2661   */\n      tag_63\n      jump\t// in\n    tag_144:\n        /* \"#utility.yul\":2632:2635   */\n      dup3\n        /* \"#utility.yul\":2625:2662   */\n      mstore\n        /* \"#utility.yul\":2560:2668   */\n      pop\n      pop\n      jump\t// out\n        /* \"#utility.yul\":2674:2751   */\n    tag_75:\n        /* \"#utility.yul\":2711:2718   */\n      0x00\n        /* \"#utility.yul\":2740:2745   */\n      dup2\n        /* \"#utility.yul\":2729:2745   */\n      swap1\n      pop\n        /* \"#utility.yul\":2674:2751   */\n      swap2\n      swap1\n      pop\n      jump\t// out\n        /* \"#utility.yul\":2757:2865   */\n    tag_76:\n        /* \"#utility.yul\":2834:2858   */\n      tag_147\n        /* \"#utility.yul\":2852:2857   */\n      dup2\n        /* \"#utility.yul\":2834:2858   */\n      tag_75\n      jump\t// in\n    tag_147:\n        /* \"#utility.yul\":2829:2832   */\n      dup3\n        /* \"#utility.yul\":2822:2859   */\n      mstore\n        /* \"#utility.yul\":2757:2865   */\n      pop\n      pop\n      jump\t// out\n        /* \"#utility.yul\":2945:3717   */\n    tag_77:\n        /* \"#utility.yul\":3044:3047   */\n      0x00\n        /* \"#utility.yul\":3080:3084   */\n      0x60\n        /* \"#utility.yul\":3075:3078   */\n      dup4\n        /* \"#utility.yul\":3071:3085   */\n      add\n        /* \"#utility.yul\":3167:3171   */\n      0x00\n        /* \"#utility.yul\":3160:3165   */\n      dup4\n        /* \"#utility.yul\":3156:3172   */\n      add\n        /* \"#utility.yul\":3150:3173   */\n      mload\n        /* \"#utility.yul\":3220:3223   */\n      dup5\n        /* \"#utility.yul\":3214:3218   */\n      dup3\n        /* \"#utility.yul\":3210:3224   */\n      sub\n        /* \"#utility.yul\":3203:3207   */\n      0x00\n        /* \"#utility.yul\":3198:3201   */\n      dup7\n        /* \"#utility.yul\":3194:3208   */\n      add\n        /* \"#utility.yul\":3187:3225   */\n      mstore\n        /* \"#utility.yul\":3246:3319   */\n      tag_149\n        /* \"#utility.yul\":3314:3318   */\n      dup3\n        /* \"#utility.yul\":3300:3312   */\n      dup3\n        /* \"#utility.yul\":3246:3319   */\n      tag_73\n      jump\t// in\n    tag_149:\n        /* \"#utility.yul\":3238:3319   */\n      swap2\n      pop\n        /* \"#utility.yul\":3095:3330   */\n      pop\n        /* \"#utility.yul\":3417:3421   */\n      0x20\n        /* \"#utility.yul\":3410:3415   */\n      dup4\n        /* \"#utility.yul\":3406:3422   */\n      add\n        /* \"#utility.yul\":3400:3423   */\n      mload\n        /* \"#utility.yul\":3436:3499   */\n      tag_150\n        /* \"#utility.yul\":3493:3497   */\n      0x20\n        /* \"#utility.yul\":3488:3491   */\n      dup7\n        /* \"#utility.yul\":3484:3498   */\n      add\n        /* \"#utility.yul\":3470:3482   */\n      dup3\n        /* \"#utility.yul\":3436:3499   */\n      tag_74\n      jump\t// in\n    tag_150:\n        /* \"#utility.yul\":3340:3509   */\n      pop\n        /* \"#utility.yul\":3598:3602   */\n      0x40\n        /* \"#utility.yul\":3591:3596   */\n      dup4\n        /* \"#utility.yul\":3587:3603   */\n      add\n        /* \"#utility.yul\":3581:3604   */\n      mload\n        /* \"#utility.yul\":3617:3680   */\n      tag_151\n        /* \"#utility.yul\":3674:3678   */\n      0x40\n        /* \"#utility.yul\":3669:3672   */\n      dup7\n        /* \"#utility.yul\":3665:3679   */\n      add\n        /* \"#utility.yul\":3651:3663   */\n      dup3\n        /* \"#utility.yul\":3617:3680   */\n      tag_76\n      jump\t// in\n    tag_151:\n        /* \"#utility.yul\":3519:3690   */\n      pop\n        /* \"#utility.yul\":3707:3711   */\n      dup1\n        /* \"#utility.yul\":3700:3711   */\n      swap2\n      pop\n        /* \"#utility.yul\":3049:3717   */\n      pop\n        /* \"#utility.yul\":2945:3717   */\n      swap3\n      swap2\n      pop\n      pop\n      jump\t// out\n        /* \"#utility.yul\":3723:3959   */\n    tag_78:\n        /* \"#utility.yul\":3832:3842   */\n      0x00\n        /* \"#utility.yul\":3867:3953   */\n      tag_153\n        /* \"#utility.yul\":3949:3952   */\n      dup4\n        /* \"#utility.yul\":3941:3947   */\n      dup4\n        /* \"#utility.yul\":3867:3953   */\n      tag_77\n      jump\t// in\n    tag_153:\n        /* \"#utility.yul\":3853:3953   */\n      swap1\n      pop\n        /* \"#utility.yul\":3723:3959   */\n      swap3\n      swap2\n      pop\n      pop\n      jump\t// out\n        /* \"#utility.yul\":3965:4098   */\n    tag_79:\n        /* \"#utility.yul\":4055:4059   */\n      0x00\n        /* \"#utility.yul\":4087:4091   */\n      0x20\n        /* \"#utility.yul\":4082:4085   */\n      dup3\n        /* \"#utility.yul\":4078:4092   */\n      add\n        /* \"#utility.yul\":4070:4092   */\n      swap1\n      pop\n        /* \"#utility.yul\":3965:4098   */\n      swap2\n      swap1\n      pop\n      jump\t// out\n        /* \"#utility.yul\":4182:5233   */\n    tag_80:\n        /* \"#utility.yul\":4331:4334   */\n      0x00\n        /* \"#utility.yul\":4360:4434   */\n      tag_156\n        /* \"#utility.yul\":4428:4433   */\n      dup3\n        /* \"#utility.yul\":4360:4434   */\n      tag_66\n      jump\t// in\n    tag_156:\n        /* \"#utility.yul\":4450:4546   */\n      tag_157\n        /* \"#utility.yul\":4539:4545   */\n      dup2\n        /* \"#utility.yul\":4534:4537   */\n      dup6\n        /* \"#utility.yul\":4450:4546   */\n      tag_67\n      jump\t// in\n    tag_157:\n        /* \"#utility.yul\":4443:4546   */\n      swap4\n      pop\n        /* \"#utility.yul\":4572:4575   */\n      dup4\n        /* \"#utility.yul\":4617:4621   */\n      0x20\n        /* \"#utility.yul\":4609:4615   */\n      dup3\n        /* \"#utility.yul\":4605:4622   */\n      mul\n        /* \"#utility.yul\":4600:4603   */\n      dup6\n        /* \"#utility.yul\":4596:4623   */\n      add\n        /* \"#utility.yul\":4647:4723   */\n      tag_158\n        /* \"#utility.yul\":4717:4722   */\n      dup6\n        /* \"#utility.yul\":4647:4723   */\n      tag_68\n      jump\t// in\n    tag_158:\n        /* \"#utility.yul\":4746:4753   */\n      dup1\n        /* \"#utility.yul\":4777:4778   */\n      0x00\n        /* \"#utility.yul\":4762:5188   */\n    tag_159:\n        /* \"#utility.yul\":4787:4793   */\n      dup6\n        /* \"#utility.yul\":4784:4785   */\n      dup2\n        /* \"#utility.yul\":4781:4794   */\n      lt\n        /* \"#utility.yul\":4762:5188   */\n      iszero\n      tag_161\n      jumpi\n        /* \"#utility.yul\":4858:4867   */\n      dup5\n        /* \"#utility.yul\":4852:4856   */\n      dup5\n        /* \"#utility.yul\":4848:4868   */\n      sub\n        /* \"#utility.yul\":4843:4846   */\n      dup10\n        /* \"#utility.yul\":4836:4869   */\n      mstore\n        /* \"#utility.yul\":4909:4915   */\n      dup2\n        /* \"#utility.yul\":4903:4916   */\n      mload\n        /* \"#utility.yul\":4937:5041   */\n      tag_162\n        /* \"#utility.yul\":5036:5040   */\n      dup6\n        /* \"#utility.yul\":5021:5034   */\n      dup3\n        /* \"#utility.yul\":4937:5041   */\n      tag_78\n      jump\t// in\n    tag_162:\n        /* \"#utility.yul\":4929:5041   */\n      swap5\n      pop\n        /* \"#utility.yul\":5064:5144   */\n      tag_163\n        /* \"#utility.yul\":5137:5143   */\n      dup4\n        /* \"#utility.yul\":5064:5144   */\n      tag_79\n      jump\t// in\n    tag_163:\n        /* \"#utility.yul\":5054:5144   */\n      swap3\n      pop\n        /* \"#utility.yul\":5173:5177   */\n      0x20\n        /* \"#utility.yul\":5168:5171   */\n      dup11\n        /* \"#utility.yul\":5164:5178   */\n      add\n        /* \"#utility.yul\":5157:5178   */\n      swap10\n      pop\n        /* \"#utility.yul\":4822:5188   */\n      pop\n        /* \"#utility.yul\":4809:4810   */\n      0x01\n        /* \"#utility.yul\":4806:4807   */\n      dup2\n        /* \"#utility.yul\":4802:4811   */\n      add\n        /* \"#utility.yul\":4797:4811   */\n      swap1\n      pop\n        /* \"#utility.yul\":4762:5188   */\n      jump(tag_159)\n    tag_161:\n        /* \"#utility.yul\":4766:4780   */\n      pop\n        /* \"#utility.yul\":5204:5208   */\n      dup3\n        /* \"#utility.yul\":5197:5208   */\n      swap8\n      pop\n        /* \"#utility.yul\":5224:5227   */\n      dup8\n        /* \"#utility.yul\":5217:5227   */\n      swap6\n      pop\n        /* \"#utility.yul\":4336:5233   */\n      pop\n      pop\n      pop\n      pop\n      pop\n        /* \"#utility.yul\":4182:5233   */\n      swap3\n      swap2\n      pop\n      pop\n      jump\t// out\n        /* \"#utility.yul\":5325:5838   */\n    tag_81:\n        /* \"#utility.yul\":5448:5451   */\n      0x00\n        /* \"#utility.yul\":5484:5488   */\n      0x20\n        /* \"#utility.yul\":5479:5482   */\n      dup4\n        /* \"#utility.yul\":5475:5489   */\n      add\n        /* \"#utility.yul\":5578:5582   */\n      0x00\n        /* \"#utility.yul\":5571:5576   */\n      dup4\n        /* \"#utility.yul\":5567:5583   */\n      add\n        /* \"#utility.yul\":5561:5584   */\n      mload\n        /* \"#utility.yul\":5631:5634   */\n      dup5\n        /* \"#utility.yul\":5625:5629   */\n      dup3\n        /* \"#utility.yul\":5621:5635   */\n      sub\n        /* \"#utility.yul\":5614:5618   */\n      0x00\n        /* \"#utility.yul\":5609:5612   */\n      dup7\n        /* \"#utility.yul\":5605:5619   */\n      add\n        /* \"#utility.yul\":5598:5636   */\n      mstore\n        /* \"#utility.yul\":5657:5800   */\n      tag_165\n        /* \"#utility.yul\":5795:5799   */\n      dup3\n        /* \"#utility.yul\":5781:5793   */\n      dup3\n        /* \"#utility.yul\":5657:5800   */\n      tag_80\n      jump\t// in\n    tag_165:\n        /* \"#utility.yul\":5649:5800   */\n      swap2\n      pop\n        /* \"#utility.yul\":5499:5811   */\n      pop\n        /* \"#utility.yul\":5828:5832   */\n      dup1\n        /* \"#utility.yul\":5821:5832   */\n      swap2\n      pop\n        /* \"#utility.yul\":5453:5838   */\n      pop\n        /* \"#utility.yul\":5325:5838   */\n      swap3\n      swap2\n      pop\n      pop\n      jump\t// out\n        /* \"#utility.yul\":5844:6225   */\n    tag_11:\n        /* \"#utility.yul\":5991:5995   */\n      0x00\n        /* \"#utility.yul\":6029:6031   */\n      0x20\n        /* \"#utility.yul\":6018:6027   */\n      dup3\n        /* \"#utility.yul\":6014:6032   */\n      add\n        /* \"#utility.yul\":6006:6032   */\n      swap1\n      pop\n        /* \"#utility.yul\":6078:6087   */\n      dup2\n        /* \"#utility.yul\":6072:6076   */\n      dup2\n        /* \"#utility.yul\":6068:6088   */\n      sub\n        /* \"#utility.yul\":6064:6065   */\n      0x00\n        /* \"#utility.yul\":6053:6062   */\n      dup4\n        /* \"#utility.yul\":6049:6066   */\n      add\n        /* \"#utility.yul\":6042:6089   */\n      mstore\n        /* \"#utility.yul\":6106:6218   */\n      tag_167\n        /* \"#utility.yul\":6213:6217   */\n      dup2\n        /* \"#utility.yul\":6204:6210   */\n      dup5\n        /* \"#utility.yul\":6106:6218   */\n      tag_81\n      jump\t// in\n    tag_167:\n        /* \"#utility.yul\":6098:6218   */\n      swap1\n      pop\n        /* \"#utility.yul\":5844:6225   */\n      swap3\n      swap2\n      pop\n      pop\n      jump\t// out\n        /* \"#utility.yul\":6231:6400   */\n    tag_82:\n        /* \"#utility.yul\":6315:6326   */\n      0x00\n        /* \"#utility.yul\":6349:6355   */\n      dup3\n        /* \"#utility.yul\":6344:6347   */\n      dup3\n        /* \"#utility.yul\":6337:6356   */\n      mstore\n        /* \"#utility.yul\":6389:6393   */\n      0x20\n        /* \"#utility.yul\":6384:6387   */\n      dup3\n        /* \"#utility.yul\":6380:6394   */\n      add\n        /* \"#utility.yul\":6365:6394   */\n      swap1\n      pop\n        /* \"#utility.yul\":6231:6400   */\n      swap3\n      swap2\n      pop\n      pop\n      jump\t// out\n        /* \"#utility.yul\":6406:6783   */\n    tag_83:\n        /* \"#utility.yul\":6494:6497   */\n      0x00\n        /* \"#utility.yul\":6522:6561   */\n      tag_170\n        /* \"#utility.yul\":6555:6560   */\n      dup3\n        /* \"#utility.yul\":6522:6561   */\n      tag_69\n      jump\t// in\n    tag_170:\n        /* \"#utility.yul\":6577:6648   */\n      tag_171\n        /* \"#utility.yul\":6641:6647   */\n      dup2\n        /* \"#utility.yul\":6636:6639   */\n      dup6\n        /* \"#utility.yul\":6577:6648   */\n      tag_82\n      jump\t// in\n    tag_171:\n        /* \"#utility.yul\":6570:6648   */\n      swap4\n      pop\n        /* \"#utility.yul\":6657:6722   */\n      tag_172\n        /* \"#utility.yul\":6715:6721   */\n      dup2\n        /* \"#utility.yul\":6710:6713   */\n      dup6\n        /* \"#utility.yul\":6703:6707   */\n      0x20\n        /* \"#utility.yul\":6696:6701   */\n      dup7\n        /* \"#utility.yul\":6692:6708   */\n      add\n        /* \"#utility.yul\":6657:6722   */\n      tag_71\n      jump\t// in\n    tag_172:\n        /* \"#utility.yul\":6747:6776   */\n      tag_173\n        /* \"#utility.yul\":6769:6775   */\n      dup2\n        /* \"#utility.yul\":6747:6776   */\n      tag_72\n      jump\t// in\n    tag_173:\n        /* \"#utility.yul\":6742:6745   */\n      dup5\n        /* \"#utility.yul\":6738:6777   */\n      add\n        /* \"#utility.yul\":6731:6777   */\n      swap2\n      pop\n        /* \"#utility.yul\":6498:6783   */\n      pop\n        /* \"#utility.yul\":6406:6783   */\n      swap3\n      swap2\n      pop\n      pop\n      jump\t// out\n        /* \"#utility.yul\":6789:6907   */\n    tag_84:\n        /* \"#utility.yul\":6876:6900   */\n      tag_175\n        /* \"#utility.yul\":6894:6899   */\n      dup2\n        /* \"#utility.yul\":6876:6900   */\n      tag_75\n      jump\t// in\n    tag_175:\n        /* \"#utility.yul\":6871:6874   */\n      dup3\n        /* \"#utility.yul\":6864:6901   */\n      mstore\n        /* \"#utility.yul\":6789:6907   */\n      pop\n      pop\n      jump\t// out\n        /* \"#utility.yul\":6913:7336   */\n    tag_17:\n        /* \"#utility.yul\":7054:7058   */\n      0x00\n        /* \"#utility.yul\":7092:7094   */\n      0x40\n        /* \"#utility.yul\":7081:7090   */\n      dup3\n        /* \"#utility.yul\":7077:7095   */\n      add\n        /* \"#utility.yul\":7069:7095   */\n      swap1\n      pop\n        /* \"#utility.yul\":7141:7150   */\n      dup2\n        /* \"#utility.yul\":7135:7139   */\n      dup2\n        /* \"#utility.yul\":7131:7151   */\n      sub\n        /* \"#utility.yul\":7127:7128   */\n      0x00\n        /* \"#utility.yul\":7116:7125   */\n      dup4\n        /* \"#utility.yul\":7112:7129   */\n      add\n        /* \"#utility.yul\":7105:7152   */\n      mstore\n        /* \"#utility.yul\":7169:7247   */\n      tag_177\n        /* \"#utility.yul\":7242:7246   */\n      dup2\n        /* \"#utility.yul\":7233:7239   */\n      dup6\n        /* \"#utility.yul\":7169:7247   */\n      tag_83\n      jump\t// in\n    tag_177:\n        /* \"#utility.yul\":7161:7247   */\n      swap1\n      pop\n        /* \"#utility.yul\":7257:7329   */\n      tag_178\n        /* \"#utility.yul\":7325:7327   */\n      0x20\n        /* \"#utility.yul\":7314:7323   */\n      dup4\n        /* \"#utility.yul\":7310:7328   */\n      add\n        /* \"#utility.yul\":7301:7307   */\n      dup5\n        /* \"#utility.yul\":7257:7329   */\n      tag_84\n      jump\t// in\n    tag_178:\n        /* \"#utility.yul\":6913:7336   */\n      swap4\n      swap3\n      pop\n      pop\n      pop\n      jump\t// out\n        /* \"#utility.yul\":7342:7459   */\n    tag_85:\n        /* \"#utility.yul\":7451:7452   */\n      0x00\n        /* \"#utility.yul\":7448:7449   */\n      dup1\n        /* \"#utility.yul\":7441:7453   */\n      revert\n        /* \"#utility.yul\":7465:7582   */\n    tag_86:\n        /* \"#utility.yul\":7574:7575   */\n      0x00\n        /* \"#utility.yul\":7571:7572   */\n      dup1\n        /* \"#utility.yul\":7564:7576   */\n      revert\n        /* \"#utility.yul\":7588:7768   */\n    tag_87:\n        /* \"#utility.yul\":7636:7713   */\n      0x4e487b7100000000000000000000000000000000000000000000000000000000\n        /* \"#utility.yul\":7633:7634   */\n      0x00\n        /* \"#utility.yul\":7626:7714   */\n      mstore\n        /* \"#utility.yul\":7733:7737   */\n      0x41\n        /* \"#utility.yul\":7730:7731   */\n      0x04\n        /* \"#utility.yul\":7723:7738   */\n      mstore\n        /* \"#utility.yul\":7757:7761   */\n      0x24\n        /* \"#utility.yul\":7754:7755   */\n      0x00\n        /* \"#utility.yul\":7747:7762   */\n      revert\n        /* \"#utility.yul\":7774:8055   */\n    tag_88:\n        /* \"#utility.yul\":7857:7884   */\n      tag_183\n        /* \"#utility.yul\":7879:7883   */\n      dup3\n        /* \"#utility.yul\":7857:7884   */\n      tag_72\n      jump\t// in\n    tag_183:\n        /* \"#utility.yul\":7849:7855   */\n      dup2\n        /* \"#utility.yul\":7845:7885   */\n      add\n        /* \"#utility.yul\":7987:7993   */\n      dup2\n        /* \"#utility.yul\":7975:7985   */\n      dup2\n        /* \"#utility.yul\":7972:7994   */\n      lt\n        /* \"#utility.yul\":7951:7969   */\n      0xffffffffffffffff\n        /* \"#utility.yul\":7939:7949   */\n      dup3\n        /* \"#utility.yul\":7936:7970   */\n      gt\n        /* \"#utility.yul\":7933:7995   */\n      or\n        /* \"#utility.yul\":7930:8018   */\n      iszero\n      tag_184\n      jumpi\n        /* \"#utility.yul\":7998:8016   */\n      tag_185\n      tag_87\n      jump\t// in\n    tag_185:\n        /* \"#utility.yul\":7930:8018   */\n    tag_184:\n        /* \"#utility.yul\":8038:8048   */\n      dup1\n        /* \"#utility.yul\":8034:8036   */\n      0x40\n        /* \"#utility.yul\":8027:8049   */\n      mstore\n        /* \"#utility.yul\":7817:8055   */\n      pop\n        /* \"#utility.yul\":7774:8055   */\n      pop\n      pop\n      jump\t// out\n        /* \"#utility.yul\":8061:8190   */\n    tag_89:\n        /* \"#utility.yul\":8095:8101   */\n      0x00\n        /* \"#utility.yul\":8122:8142   */\n      tag_187\n      tag_59\n      jump\t// in\n    tag_187:\n        /* \"#utility.yul\":8112:8142   */\n      swap1\n      pop\n        /* \"#utility.yul\":8151:8184   */\n      tag_188\n        /* \"#utility.yul\":8179:8183   */\n      dup3\n        /* \"#utility.yul\":8171:8177   */\n      dup3\n        /* \"#utility.yul\":8151:8184   */\n      tag_88\n      jump\t// in\n    tag_188:\n        /* \"#utility.yul\":8061:8190   */\n      swap2\n      swap1\n      pop\n      jump\t// out\n        /* \"#utility.yul\":8196:8504   */\n    tag_90:\n        /* \"#utility.yul\":8258:8262   */\n      0x00\n        /* \"#utility.yul\":8348:8366   */\n      0xffffffffffffffff\n        /* \"#utility.yul\":8340:8346   */\n      dup3\n        /* \"#utility.yul\":8337:8367   */\n      gt\n        /* \"#utility.yul\":8334:8390   */\n      iszero\n      tag_190\n      jumpi\n        /* \"#utility.yul\":8370:8388   */\n      tag_191\n      tag_87\n      jump\t// in\n    tag_191:\n        /* \"#utility.yul\":8334:8390   */\n    tag_190:\n        /* \"#utility.yul\":8408:8437   */\n      tag_192\n        /* \"#utility.yul\":8430:8436   */\n      dup3\n        /* \"#utility.yul\":8408:8437   */\n      tag_72\n      jump\t// in\n    tag_192:\n        /* \"#utility.yul\":8400:8437   */\n      swap1\n      pop\n        /* \"#utility.yul\":8492:8496   */\n      0x20\n        /* \"#utility.yul\":8486:8490   */\n      dup2\n        /* \"#utility.yul\":8482:8497   */\n      add\n        /* \"#utility.yul\":8474:8497   */\n      swap1\n      pop\n        /* \"#utility.yul\":8196:8504   */\n      swap2\n      swap1\n      pop\n      jump\t// out\n        /* \"#utility.yul\":8510:8658   */\n    tag_91:\n        /* \"#utility.yul\":8608:8614   */\n      dup3\n        /* \"#utility.yul\":8603:8606   */\n      dup2\n        /* \"#utility.yul\":8598:8601   */\n      dup4\n        /* \"#utility.yul\":8585:8615   */\n      calldatacopy\n        /* \"#utility.yul\":8649:8650   */\n      0x00\n        /* \"#utility.yul\":8640:8646   */\n      dup4\n        /* \"#utility.yul\":8635:8638   */\n      dup4\n        /* \"#utility.yul\":8631:8647   */\n      add\n        /* \"#utility.yul\":8624:8651   */\n      mstore\n        /* \"#utility.yul\":8510:8658   */\n      pop\n      pop\n      pop\n      jump\t// out\n        /* \"#utility.yul\":8664:9089   */\n    tag_92:\n        /* \"#utility.yul\":8742:8747   */\n      0x00\n        /* \"#utility.yul\":8767:8833   */\n      tag_195\n        /* \"#utility.yul\":8783:8832   */\n      tag_196\n        /* \"#utility.yul\":8825:8831   */\n      dup5\n        /* \"#utility.yul\":8783:8832   */\n      tag_90\n      jump\t// in\n    tag_196:\n        /* \"#utility.yul\":8767:8833   */\n      tag_89\n      jump\t// in\n    tag_195:\n        /* \"#utility.yul\":8758:8833   */\n      swap1\n      pop\n        /* \"#utility.yul\":8856:8862   */\n      dup3\n        /* \"#utility.yul\":8849:8854   */\n      dup2\n        /* \"#utility.yul\":8842:8863   */\n      mstore\n        /* \"#utility.yul\":8894:8898   */\n      0x20\n        /* \"#utility.yul\":8887:8892   */\n      dup2\n        /* \"#utility.yul\":8883:8899   */\n      add\n        /* \"#utility.yul\":8932:8935   */\n      dup5\n        /* \"#utility.yul\":8923:8929   */\n      dup5\n        /* \"#utility.yul\":8918:8921   */\n      dup5\n        /* \"#utility.yul\":8914:8930   */\n      add\n        /* \"#utility.yul\":8911:8936   */\n      gt\n        /* \"#utility.yul\":8908:9020   */\n      iszero\n      tag_197\n      jumpi\n        /* \"#utility.yul\":8939:9018   */\n      tag_198\n      tag_86\n      jump\t// in\n    tag_198:\n        /* \"#utility.yul\":8908:9020   */\n    tag_197:\n        /* \"#utility.yul\":9029:9083   */\n      tag_199\n        /* \"#utility.yul\":9076:9082   */\n      dup5\n        /* \"#utility.yul\":9071:9074   */\n      dup3\n        /* \"#utility.yul\":9066:9069   */\n      dup6\n        /* \"#utility.yul\":9029:9083   */\n      tag_91\n      jump\t// in\n    tag_199:\n        /* \"#utility.yul\":8748:9089   */\n      pop\n        /* \"#utility.yul\":8664:9089   */\n      swap4\n      swap3\n      pop\n      pop\n      pop\n      jump\t// out\n        /* \"#utility.yul\":9109:9449   */\n    tag_93:\n        /* \"#utility.yul\":9165:9170   */\n      0x00\n        /* \"#utility.yul\":9214:9217   */\n      dup3\n        /* \"#utility.yul\":9207:9211   */\n      0x1f\n        /* \"#utility.yul\":9199:9205   */\n      dup4\n        /* \"#utility.yul\":9195:9212   */\n      add\n        /* \"#utility.yul\":9191:9218   */\n      slt\n        /* \"#utility.yul\":9181:9303   */\n      tag_201\n      jumpi\n        /* \"#utility.yul\":9222:9301   */\n      tag_202\n      tag_85\n      jump\t// in\n    tag_202:\n        /* \"#utility.yul\":9181:9303   */\n    tag_201:\n        /* \"#utility.yul\":9339:9345   */\n      dup2\n        /* \"#utility.yul\":9326:9346   */\n      calldataload\n        /* \"#utility.yul\":9364:9443   */\n      tag_203\n        /* \"#utility.yul\":9439:9442   */\n      dup5\n        /* \"#utility.yul\":9431:9437   */\n      dup3\n        /* \"#utility.yul\":9424:9428   */\n      0x20\n        /* \"#utility.yul\":9416:9422   */\n      dup7\n        /* \"#utility.yul\":9412:9429   */\n      add\n        /* \"#utility.yul\":9364:9443   */\n      tag_92\n      jump\t// in\n    tag_203:\n        /* \"#utility.yul\":9355:9443   */\n      swap2\n      pop\n        /* \"#utility.yul\":9171:9449   */\n      pop\n        /* \"#utility.yul\":9109:9449   */\n      swap3\n      swap2\n      pop\n      pop\n      jump\t// out\n        /* \"#utility.yul\":9455:9577   */\n    tag_94:\n        /* \"#utility.yul\":9528:9552   */\n      tag_205\n        /* \"#utility.yul\":9546:9551   */\n      dup2\n        /* \"#utility.yul\":9528:9552   */\n      tag_75\n      jump\t// in\n    tag_205:\n        /* \"#utility.yul\":9521:9526   */\n      dup2\n        /* \"#utility.yul\":9518:9553   */\n      eq\n        /* \"#utility.yul\":9508:9571   */\n      tag_206\n      jumpi\n        /* \"#utility.yul\":9567:9568   */\n      0x00\n        /* \"#utility.yul\":9564:9565   */\n      dup1\n        /* \"#utility.yul\":9557:9569   */\n      revert\n        /* \"#utility.yul\":9508:9571   */\n    tag_206:\n        /* \"#utility.yul\":9455:9577   */\n      pop\n      jump\t// out\n        /* \"#utility.yul\":9583:9722   */\n    tag_95:\n        /* \"#utility.yul\":9629:9634   */\n      0x00\n        /* \"#utility.yul\":9667:9673   */\n      dup2\n        /* \"#utility.yul\":9654:9674   */\n      calldataload\n        /* \"#utility.yul\":9645:9674   */\n      swap1\n      pop\n        /* \"#utility.yul\":9683:9716   */\n      tag_208\n        /* \"#utility.yul\":9710:9715   */\n      dup2\n        /* \"#utility.yul\":9683:9716   */\n      tag_94\n      jump\t// in\n    tag_208:\n        /* \"#utility.yul\":9583:9722   */\n      swap3\n      swap2\n      pop\n      pop\n      jump\t// out\n        /* \"#utility.yul\":9728:10382   */\n    tag_20:\n        /* \"#utility.yul\":9806:9812   */\n      0x00\n        /* \"#utility.yul\":9814:9820   */\n      dup1\n        /* \"#utility.yul\":9863:9865   */\n      0x40\n        /* \"#utility.yul\":9851:9860   */\n      dup4\n        /* \"#utility.yul\":9842:9849   */\n      dup6\n        /* \"#utility.yul\":9838:9861   */\n      sub\n        /* \"#utility.yul\":9834:9866   */\n      slt\n        /* \"#utility.yul\":9831:9950   */\n      iszero\n      tag_210\n      jumpi\n        /* \"#utility.yul\":9869:9948   */\n      tag_211\n      tag_60\n      jump\t// in\n    tag_211:\n        /* \"#utility.yul\":9831:9950   */\n    tag_210:\n        /* \"#utility.yul\":10017:10018   */\n      0x00\n        /* \"#utility.yul\":10006:10015   */\n      dup4\n        /* \"#utility.yul\":10002:10019   */\n      add\n        /* \"#utility.yul\":9989:10020   */\n      calldataload\n        /* \"#utility.yul\":10047:10065   */\n      0xffffffffffffffff\n        /* \"#utility.yul\":10039:10045   */\n      dup2\n        /* \"#utility.yul\":10036:10066   */\n      gt\n        /* \"#utility.yul\":10033:10150   */\n      iszero\n      tag_212\n      jumpi\n        /* \"#utility.yul\":10069:10148   */\n      tag_213\n      tag_61\n      jump\t// in\n    tag_213:\n        /* \"#utility.yul\":10033:10150   */\n    tag_212:\n        /* \"#utility.yul\":10174:10237   */\n      tag_214\n        /* \"#utility.yul\":10229:10236   */\n      dup6\n        /* \"#utility.yul\":10220:10226   */\n      dup3\n        /* \"#utility.yul\":10209:10218   */\n      dup7\n        /* \"#utility.yul\":10205:10227   */\n      add\n        /* \"#utility.yul\":10174:10237   */\n      tag_93\n      jump\t// in\n    tag_214:\n        /* \"#utility.yul\":10164:10237   */\n      swap3\n      pop\n        /* \"#utility.yul\":9960:10247   */\n      pop\n        /* \"#utility.yul\":10286:10288   */\n      0x20\n        /* \"#utility.yul\":10312:10365   */\n      tag_215\n        /* \"#utility.yul\":10357:10364   */\n      dup6\n        /* \"#utility.yul\":10348:10354   */\n      dup3\n        /* \"#utility.yul\":10337:10346   */\n      dup7\n        /* \"#utility.yul\":10333:10355   */\n      add\n        /* \"#utility.yul\":10312:10365   */\n      tag_95\n      jump\t// in\n    tag_215:\n        /* \"#utility.yul\":10302:10365   */\n      swap2\n      pop\n        /* \"#utility.yul\":10257:10375   */\n      pop\n        /* \"#utility.yul\":9728:10382   */\n      swap3\n      pop\n      swap3\n      swap1\n      pop\n      jump\t// out\n        /* \"#utility.yul\":10388:10701   */\n    tag_23:\n        /* \"#utility.yul\":10501:10505   */\n      0x00\n        /* \"#utility.yul\":10539:10541   */\n      0x20\n        /* \"#utility.yul\":10528:10537   */\n      dup3\n        /* \"#utility.yul\":10524:10542   */\n      add\n        /* \"#utility.yul\":10516:10542   */\n      swap1\n      pop\n        /* \"#utility.yul\":10588:10597   */\n      dup2\n        /* \"#utility.yul\":10582:10586   */\n      dup2\n        /* \"#utility.yul\":10578:10598   */\n      sub\n        /* \"#utility.yul\":10574:10575   */\n      0x00\n        /* \"#utility.yul\":10563:10572   */\n      dup4\n        /* \"#utility.yul\":10559:10576   */\n      add\n        /* \"#utility.yul\":10552:10599   */\n      mstore\n        /* \"#utility.yul\":10616:10694   */\n      tag_217\n        /* \"#utility.yul\":10689:10693   */\n      dup2\n        /* \"#utility.yul\":10680:10686   */\n      dup5\n        /* \"#utility.yul\":10616:10694   */\n      tag_83\n      jump\t// in\n    tag_217:\n        /* \"#utility.yul\":10608:10694   */\n      swap1\n      pop\n        /* \"#utility.yul\":10388:10701   */\n      swap3\n      swap2\n      pop\n      pop\n      jump\t// out\n        /* \"#utility.yul\":10707:10887   */\n    tag_96:\n        /* \"#utility.yul\":10755:10832   */\n      0x4e487b7100000000000000000000000000000000000000000000000000000000\n        /* \"#utility.yul\":10752:10753   */\n      0x00\n        /* \"#utility.yul\":10745:10833   */\n      mstore\n        /* \"#utility.yul\":10852:10856   */\n      0x22\n        /* \"#utility.yul\":10849:10850   */\n      0x04\n        /* \"#utility.yul\":10842:10857   */\n      mstore\n        /* \"#utility.yul\":10876:10880   */\n      0x24\n        /* \"#utility.yul\":10873:10874   */\n      0x00\n        /* \"#utility.yul\":10866:10881   */\n      revert\n        /* \"#utility.yul\":10893:11213   */\n    tag_31:\n        /* \"#utility.yul\":10937:10943   */\n      0x00\n        /* \"#utility.yul\":10974:10975   */\n      0x02\n        /* \"#utility.yul\":10968:10972   */\n      dup3\n        /* \"#utility.yul\":10964:10976   */\n      div\n        /* \"#utility.yul\":10954:10976   */\n      swap1\n      pop\n        /* \"#utility.yul\":11021:11022   */\n      0x01\n        /* \"#utility.yul\":11015:11019   */\n      dup3\n        /* \"#utility.yul\":11011:11023   */\n      and\n        /* \"#utility.yul\":11042:11060   */\n      dup1\n        /* \"#utility.yul\":11032:11113   */\n      tag_220\n      jumpi\n        /* \"#utility.yul\":11098:11102   */\n      0x7f\n        /* \"#utility.yul\":11090:11096   */\n      dup3\n        /* \"#utility.yul\":11086:11103   */\n      and\n        /* \"#utility.yul\":11076:11103   */\n      swap2\n      pop\n        /* \"#utility.yul\":11032:11113   */\n    tag_220:\n        /* \"#utility.yul\":11160:11162   */\n      0x20\n        /* \"#utility.yul\":11152:11158   */\n      dup3\n        /* \"#utility.yul\":11149:11163   */\n      lt\n        /* \"#utility.yul\":11129:11147   */\n      dup2\n        /* \"#utility.yul\":11126:11164   */\n      sub\n        /* \"#utility.yul\":11123:11207   */\n      tag_221\n      jumpi\n        /* \"#utility.yul\":11179:11197   */\n      tag_222\n      tag_96\n      jump\t// in\n    tag_222:\n        /* \"#utility.yul\":11123:11207   */\n    tag_221:\n        /* \"#utility.yul\":10944:11213   */\n      pop\n        /* \"#utility.yul\":10893:11213   */\n      swap2\n      swap1\n      pop\n      jump\t// out\n        /* \"#utility.yul\":11219:11399   */\n    tag_97:\n        /* \"#utility.yul\":11267:11344   */\n      0x4e487b7100000000000000000000000000000000000000000000000000000000\n        /* \"#utility.yul\":11264:11265   */\n      0x00\n        /* \"#utility.yul\":11257:11345   */\n      mstore\n        /* \"#utility.yul\":11364:11368   */\n      0x11\n        /* \"#utility.yul\":11361:11362   */\n      0x04\n        /* \"#utility.yul\":11354:11369   */\n      mstore\n        /* \"#utility.yul\":11388:11392   */\n      0x24\n        /* \"#utility.yul\":11385:11386   */\n      0x00\n        /* \"#utility.yul\":11378:11393   */\n      revert\n        /* \"#utility.yul\":11405:11599   */\n    tag_38:\n        /* \"#utility.yul\":11445:11449   */\n      0x00\n        /* \"#utility.yul\":11465:11485   */\n      tag_225\n        /* \"#utility.yul\":11483:11484   */\n      dup3\n        /* \"#utility.yul\":11465:11485   */\n      tag_75\n      jump\t// in\n    tag_225:\n        /* \"#utility.yul\":11460:11485   */\n      swap2\n      pop\n        /* \"#utility.yul\":11499:11519   */\n      tag_226\n        /* \"#utility.yul\":11517:11518   */\n      dup4\n        /* \"#utility.yul\":11499:11519   */\n      tag_75\n      jump\t// in\n    tag_226:\n        /* \"#utility.yul\":11494:11519   */\n      swap3\n      pop\n        /* \"#utility.yul\":11543:11544   */\n      dup3\n        /* \"#utility.yul\":11540:11541   */\n      dup3\n        /* \"#utility.yul\":11536:11545   */\n      sub\n        /* \"#utility.yul\":11528:11545   */\n      swap1\n      pop\n        /* \"#utility.yul\":11567:11568   */\n      dup2\n        /* \"#utility.yul\":11561:11565   */\n      dup2\n        /* \"#utility.yul\":11558:11569   */\n      gt\n        /* \"#utility.yul\":11555:11592   */\n      iszero\n      tag_227\n      jumpi\n        /* \"#utility.yul\":11572:11590   */\n      tag_228\n      tag_97\n      jump\t// in\n    tag_228:\n        /* \"#utility.yul\":11555:11592   */\n    tag_227:\n        /* \"#utility.yul\":11405:11599   */\n      swap3\n      swap2\n      pop\n      pop\n      jump\t// out\n        /* \"#utility.yul\":11605:11785   */\n    tag_41:\n        /* \"#utility.yul\":11653:11730   */\n      0x4e487b7100000000000000000000000000000000000000000000000000000000\n        /* \"#utility.yul\":11650:11651   */\n      0x00\n        /* \"#utility.yul\":11643:11731   */\n      mstore\n        /* \"#utility.yul\":11750:11754   */\n      0x32\n        /* \"#utility.yul\":11747:11748   */\n      0x04\n        /* \"#utility.yul\":11740:11755   */\n      mstore\n        /* \"#utility.yul\":11774:11778   */\n      0x24\n        /* \"#utility.yul\":11771:11772   */\n      0x00\n        /* \"#utility.yul\":11764:11779   */\n      revert\n        /* \"#utility.yul\":11791:12023   */\n    tag_98:\n        /* \"#utility.yul\":11931:11965   */\n      0x596f75206d7573742073656e642065786163746c79203120657468657220746f\n        /* \"#utility.yul\":11927:11928   */\n      0x00\n        /* \"#utility.yul\":11919:11925   */\n      dup3\n        /* \"#utility.yul\":11915:11929   */\n      add\n        /* \"#utility.yul\":11908:11966   */\n      mstore\n        /* \"#utility.yul\":12000:12015   */\n      0x2061646420616e206576656e7400000000000000000000000000000000000000\n        /* \"#utility.yul\":11995:11997   */\n      0x20\n        /* \"#utility.yul\":11987:11993   */\n      dup3\n        /* \"#utility.yul\":11983:11998   */\n      add\n        /* \"#utility.yul\":11976:12016   */\n      mstore\n        /* \"#utility.yul\":11791:12023   */\n      pop\n      jump\t// out\n        /* \"#utility.yul\":12029:12395   */\n    tag_99:\n        /* \"#utility.yul\":12171:12174   */\n      0x00\n        /* \"#utility.yul\":12192:12259   */\n      tag_232\n        /* \"#utility.yul\":12256:12258   */\n      0x2d\n        /* \"#utility.yul\":12251:12254   */\n      dup4\n        /* \"#utility.yul\":12192:12259   */\n      tag_82\n      jump\t// in\n    tag_232:\n        /* \"#utility.yul\":12185:12259   */\n      swap2\n      pop\n        /* \"#utility.yul\":12268:12361   */\n      tag_233\n        /* \"#utility.yul\":12357:12360   */\n      dup3\n        /* \"#utility.yul\":12268:12361   */\n      tag_98\n      jump\t// in\n    tag_233:\n        /* \"#utility.yul\":12386:12388   */\n      0x40\n        /* \"#utility.yul\":12381:12384   */\n      dup3\n        /* \"#utility.yul\":12377:12389   */\n      add\n        /* \"#utility.yul\":12370:12389   */\n      swap1\n      pop\n        /* \"#utility.yul\":12029:12395   */\n      swap2\n      swap1\n      pop\n      jump\t// out\n        /* \"#utility.yul\":12401:12820   */\n    tag_55:\n        /* \"#utility.yul\":12567:12571   */\n      0x00\n        /* \"#utility.yul\":12605:12607   */\n      0x20\n        /* \"#utility.yul\":12594:12603   */\n      dup3\n        /* \"#utility.yul\":12590:12608   */\n      add\n        /* \"#utility.yul\":12582:12608   */\n      swap1\n      pop\n        /* \"#utility.yul\":12654:12663   */\n      dup2\n        /* \"#utility.yul\":12648:12652   */\n      dup2\n        /* \"#utility.yul\":12644:12664   */\n      sub\n        /* \"#utility.yul\":12640:12641   */\n      0x00\n        /* \"#utility.yul\":12629:12638   */\n      dup4\n        /* \"#utility.yul\":12625:12642   */\n      add\n        /* \"#utility.yul\":12618:12665   */\n      mstore\n        /* \"#utility.yul\":12682:12813   */\n      tag_235\n        /* \"#utility.yul\":12808:12812   */\n      dup2\n        /* \"#utility.yul\":12682:12813   */\n      tag_99\n      jump\t// in\n    tag_235:\n        /* \"#utility.yul\":12674:12813   */\n      swap1\n      pop\n        /* \"#utility.yul\":12401:12820   */\n      swap2\n      swap1\n      pop\n      jump\t// out\n        /* \"#utility.yul\":12826:12967   */\n    tag_100:\n        /* \"#utility.yul\":12875:12879   */\n      0x00\n        /* \"#utility.yul\":12898:12901   */\n      dup2\n        /* \"#utility.yul\":12890:12901   */\n      swap1\n      pop\n        /* \"#utility.yul\":12921:12924   */\n      dup2\n        /* \"#utility.yul\":12918:12919   */\n      0x00\n        /* \"#utility.yul\":12911:12925   */\n      mstore\n        /* \"#utility.yul\":12955:12959   */\n      0x20\n        /* \"#utility.yul\":12952:12953   */\n      0x00\n        /* \"#utility.yul\":12942:12960   */\n      keccak256\n        /* \"#utility.yul\":12934:12960   */\n      swap1\n      pop\n        /* \"#utility.yul\":12826:12967   */\n      swap2\n      swap1\n      pop\n      jump\t// out\n        /* \"#utility.yul\":12973:13066   */\n    tag_101:\n        /* \"#utility.yul\":13010:13016   */\n      0x00\n        /* \"#utility.yul\":13057:13059   */\n      0x20\n        /* \"#utility.yul\":13052:13054   */\n      0x1f\n        /* \"#utility.yul\":13045:13050   */\n      dup4\n        /* \"#utility.yul\":13041:13055   */\n      add\n        /* \"#utility.yul\":13037:13060   */\n      div\n        /* \"#utility.yul\":13027:13060   */\n      swap1\n      pop\n        /* \"#utility.yul\":12973:13066   */\n      swap2\n      swap1\n      pop\n      jump\t// out\n        /* \"#utility.yul\":13072:13179   */\n    tag_102:\n        /* \"#utility.yul\":13116:13124   */\n      0x00\n        /* \"#utility.yul\":13166:13171   */\n      dup3\n        /* \"#utility.yul\":13160:13164   */\n      dup3\n        /* \"#utility.yul\":13156:13172   */\n      shl\n        /* \"#utility.yul\":13135:13172   */\n      swap1\n      pop\n        /* \"#utility.yul\":13072:13179   */\n      swap3\n      swap2\n      pop\n      pop\n      jump\t// out\n        /* \"#utility.yul\":13185:13578   */\n    tag_103:\n        /* \"#utility.yul\":13254:13260   */\n      0x00\n        /* \"#utility.yul\":13304:13305   */\n      0x08\n        /* \"#utility.yul\":13292:13302   */\n      dup4\n        /* \"#utility.yul\":13288:13306   */\n      mul\n        /* \"#utility.yul\":13327:13424   */\n      tag_240\n        /* \"#utility.yul\":13357:13423   */\n      0xffffffffffffffffffffffffffffffffffffffffffffffffffffffffffffffff\n        /* \"#utility.yul\":13346:13355   */\n      dup3\n        /* \"#utility.yul\":13327:13424   */\n      tag_102\n      jump\t// in\n    tag_240:\n        /* \"#utility.yul\":13445:13484   */\n      tag_241\n        /* \"#utility.yul\":13475:13483   */\n      dup7\n        /* \"#utility.yul\":13464:13473   */\n      dup4\n        /* \"#utility.yul\":13445:13484   */\n      tag_102\n      jump\t// in\n    tag_241:\n        /* \"#utility.yul\":13433:13484   */\n      swap6\n      pop\n        /* \"#utility.yul\":13517:13521   */\n      dup1\n        /* \"#utility.yul\":13513:13522   */\n      not\n        /* \"#utility.yul\":13506:13511   */\n      dup5\n        /* \"#utility.yul\":13502:13523   */\n      and\n        /* \"#utility.yul\":13493:13523   */\n      swap4\n      pop\n        /* \"#utility.yul\":13566:13570   */\n      dup1\n        /* \"#utility.yul\":13556:13564   */\n      dup7\n        /* \"#utility.yul\":13552:13571   */\n      and\n        /* \"#utility.yul\":13545:13550   */\n      dup5\n        /* \"#utility.yul\":13542:13572   */\n      or\n        /* \"#utility.yul\":13532:13572   */\n      swap3\n      pop\n        /* \"#utility.yul\":13261:13578   */\n      pop\n      pop\n        /* \"#utility.yul\":13185:13578   */\n      swap4\n      swap3\n      pop\n      pop\n      pop\n      jump\t// out\n        /* \"#utility.yul\":13584:13644   */\n    tag_104:\n        /* \"#utility.yul\":13612:13615   */\n      0x00\n        /* \"#utility.yul\":13633:13638   */\n      dup2\n        /* \"#utility.yul\":13626:13638   */\n      swap1\n      pop\n        /* \"#utility.yul\":13584:13644   */\n      swap2\n      swap1\n      pop\n      jump\t// out\n        /* \"#utility.yul\":13650:13792   */\n    tag_105:\n        /* \"#utility.yul\":13700:13709   */\n      0x00\n        /* \"#utility.yul\":13733:13786   */\n      tag_244\n        /* \"#utility.yul\":13751:13785   */\n      tag_245\n        /* \"#utility.yul\":13760:13784   */\n      tag_246\n        /* \"#utility.yul\":13778:13783   */\n      dup5\n        /* \"#utility.yul\":13760:13784   */\n      tag_75\n      jump\t// in\n    tag_246:\n        /* \"#utility.yul\":13751:13785   */\n      tag_104\n      jump\t// in\n    tag_245:\n        /* \"#utility.yul\":13733:13786   */\n      tag_75\n      jump\t// in\n    tag_244:\n        /* \"#utility.yul\":13720:13786   */\n      swap1\n      pop\n        /* \"#utility.yul\":13650:13792   */\n      swap2\n      swap1\n      pop\n      jump\t// out\n        /* \"#utility.yul\":13798:13873   */\n    tag_106:\n        /* \"#utility.yul\":13841:13844   */\n      0x00\n        /* \"#utility.yul\":13862:13867   */\n      dup2\n        /* \"#utility.yul\":13855:13867   */\n      swap1\n      pop\n        /* \"#utility.yul\":13798:13873   */\n      swap2\n      swap1\n      pop\n      jump\t// out\n        /* \"#utility.yul\":13879:14148   */\n    tag_107:\n        /* \"#utility.yul\":13989:14028   */\n      tag_249\n        /* \"#utility.yul\":14020:14027   */\n      dup4\n        /* \"#utility.yul\":13989:14028   */\n      tag_105\n      jump\t// in\n    tag_249:\n        /* \"#utility.yul\":14050:14141   */\n      tag_250\n        /* \"#utility.yul\":14099:14140   */\n      tag_251\n        /* \"#utility.yul\":14123:14139   */\n      dup3\n        /* \"#utility.yul\":14099:14140   */\n      tag_106\n      jump\t// in\n    tag_251:\n        /* \"#utility.yul\":14091:14097   */\n      dup5\n        /* \"#utility.yul\":14084:14088   */\n      dup5\n        /* \"#utility.yul\":14078:14089   */\n      sload\n        /* \"#utility.yul\":14050:14141   */\n      tag_103\n      jump\t// in\n    tag_250:\n        /* \"#utility.yul\":14044:14048   */\n      dup3\n        /* \"#utility.yul\":14037:14142   */\n      sstore\n        /* \"#utility.yul\":13955:14148   */\n      pop\n        /* \"#utility.yul\":13879:14148   */\n      pop\n      pop\n      pop\n      jump\t// out\n        /* \"#utility.yul\":14154:14227   */\n    tag_108:\n        /* \"#utility.yul\":14199:14202   */\n      0x00\n        /* \"#utility.yul\":14154:14227   */\n      swap1\n      jump\t// out\n        /* \"#utility.yul\":14233:14422   */\n    tag_109:\n        /* \"#utility.yul\":14310:14342   */\n      tag_254\n      tag_108\n      jump\t// in\n    tag_254:\n        /* \"#utility.yul\":14351:14416   */\n      tag_255\n        /* \"#utility.yul\":14409:14415   */\n      dup2\n        /* \"#utility.yul\":14401:14407   */\n      dup5\n        /* \"#utility.yul\":14395:14399   */\n      dup5\n        /* \"#utility.yul\":14351:14416   */\n      tag_107\n      jump\t// in\n    tag_255:\n        /* \"#utility.yul\":14286:14422   */\n      pop\n        /* \"#utility.yul\":14233:14422   */\n      pop\n      pop\n      jump\t// out\n        /* \"#utility.yul\":14428:14614   */\n    tag_110:\n        /* \"#utility.yul\":14488:14608   */\n    tag_257:\n        /* \"#utility.yul\":14505:14508   */\n      dup2\n        /* \"#utility.yul\":14498:14503   */\n      dup2\n        /* \"#utility.yul\":14495:14509   */\n      lt\n        /* \"#utility.yul\":14488:14608   */\n      iszero\n      tag_259\n      jumpi\n        /* \"#utility.yul\":14559:14598   */\n      tag_260\n        /* \"#utility.yul\":14596:14597   */\n      0x00\n        /* \"#utility.yul\":14589:14594   */\n      dup3\n        /* \"#utility.yul\":14559:14598   */\n      tag_109\n      jump\t// in\n    tag_260:\n        /* \"#utility.yul\":14532:14533   */\n      0x01\n        /* \"#utility.yul\":14525:14530   */\n      dup2\n        /* \"#utility.yul\":14521:14534   */\n      add\n        /* \"#utility.yul\":14512:14534   */\n      swap1\n      pop\n        /* \"#utility.yul\":14488:14608   */\n      jump(tag_257)\n    tag_259:\n        /* \"#utility.yul\":14428:14614   */\n      pop\n      pop\n      jump\t// out\n        /* \"#utility.yul\":14620:15163   */\n    tag_111:\n        /* \"#utility.yul\":14721:14723   */\n      0x1f\n        /* \"#utility.yul\":14716:14719   */\n      dup3\n        /* \"#utility.yul\":14713:14724   */\n      gt\n        /* \"#utility.yul\":14710:15156   */\n      iszero\n      tag_262\n      jumpi\n        /* \"#utility.yul\":14755:14793   */\n      tag_263\n        /* \"#utility.yul\":14787:14792   */\n      dup2\n        /* \"#utility.yul\":14755:14793   */\n      tag_100\n      jump\t// in\n    tag_263:\n        /* \"#utility.yul\":14839:14868   */\n      tag_264\n        /* \"#utility.yul\":14857:14867   */\n      dup5\n        /* \"#utility.yul\":14839:14868   */\n      tag_101\n      jump\t// in\n    tag_264:\n        /* \"#utility.yul\":14829:14837   */\n      dup2\n        /* \"#utility.yul\":14825:14869   */\n      add\n        /* \"#utility.yul\":15022:15024   */\n      0x20\n        /* \"#utility.yul\":15010:15020   */\n      dup6\n        /* \"#utility.yul\":15007:15025   */\n      lt\n        /* \"#utility.yul\":15004:15053   */\n      iszero\n      tag_265\n      jumpi\n        /* \"#utility.yul\":15043:15051   */\n      dup2\n        /* \"#utility.yul\":15028:15051   */\n      swap1\n      pop\n        /* \"#utility.yul\":15004:15053   */\n    tag_265:\n        /* \"#utility.yul\":15066:15146   */\n      tag_266\n        /* \"#utility.yul\":15122:15144   */\n      tag_267\n        /* \"#utility.yul\":15140:15143   */\n      dup6\n        /* \"#utility.yul\":15122:15144   */\n      tag_101\n      jump\t// in\n    tag_267:\n        /* \"#utility.yul\":15112:15120   */\n      dup4\n        /* \"#utility.yul\":15108:15145   */\n      add\n        /* \"#utility.yul\":15095:15106   */\n      dup3\n        /* \"#utility.yul\":15066:15146   */\n      tag_110\n      jump\t// in\n    tag_266:\n        /* \"#utility.yul\":14725:15156   */\n      pop\n      pop\n        /* \"#utility.yul\":14710:15156   */\n    tag_262:\n        /* \"#utility.yul\":14620:15163   */\n      pop\n      pop\n      pop\n      jump\t// out\n        /* \"#utility.yul\":15169:15286   */\n    tag_112:\n        /* \"#utility.yul\":15223:15231   */\n      0x00\n        /* \"#utility.yul\":15273:15278   */\n      dup3\n        /* \"#utility.yul\":15267:15271   */\n      dup3\n        /* \"#utility.yul\":15263:15279   */\n      shr\n        /* \"#utility.yul\":15242:15279   */\n      swap1\n      pop\n        /* \"#utility.yul\":15169:15286   */\n      swap3\n      swap2\n      pop\n      pop\n      jump\t// out\n        /* \"#utility.yul\":15292:15461   */\n    tag_113:\n        /* \"#utility.yul\":15336:15342   */\n      0x00\n        /* \"#utility.yul\":15369:15420   */\n      tag_270\n        /* \"#utility.yul\":15417:15418   */\n      0x00\n        /* \"#utility.yul\":15413:15419   */\n      not\n        /* \"#utility.yul\":15405:15410   */\n      dup5\n        /* \"#utility.yul\":15402:15403   */\n      0x08\n        /* \"#utility.yul\":15398:15411   */\n      mul\n        /* \"#utility.yul\":15369:15420   */\n      tag_112\n      jump\t// in\n    tag_270:\n        /* \"#utility.yul\":15365:15421   */\n      not\n        /* \"#utility.yul\":15450:15454   */\n      dup1\n        /* \"#utility.yul\":15444:15448   */\n      dup4\n        /* \"#utility.yul\":15440:15455   */\n      and\n        /* \"#utility.yul\":15430:15455   */\n      swap2\n      pop\n        /* \"#utility.yul\":15343:15461   */\n      pop\n        /* \"#utility.yul\":15292:15461   */\n      swap3\n      swap2\n      pop\n      pop\n      jump\t// out\n        /* \"#utility.yul\":15466:15761   */\n    tag_114:\n        /* \"#utility.yul\":15542:15546   */\n      0x00\n        /* \"#utility.yul\":15688:15717   */\n      tag_272\n        /* \"#utility.yul\":15713:15716   */\n      dup4\n        /* \"#utility.yul\":15707:15711   */\n      dup4\n        /* \"#utility.yul\":15688:15717   */\n      tag_113\n      jump\t// in\n    tag_272:\n        /* \"#utility.yul\":15680:15717   */\n      swap2\n      pop\n        /* \"#utility.yul\":15750:15753   */\n      dup3\n        /* \"#utility.yul\":15747:15748   */\n      0x02\n        /* \"#utility.yul\":15743:15754   */\n      mul\n        /* \"#utility.yul\":15737:15741   */\n      dup3\n        /* \"#utility.yul\":15734:15755   */\n      or\n        /* \"#utility.yul\":15726:15755   */\n      swap1\n      pop\n        /* \"#utility.yul\":15466:15761   */\n      swap3\n      swap2\n      pop\n      pop\n      jump\t// out\n        /* \"#utility.yul\":15766:17161   */\n    tag_58:\n        /* \"#utility.yul\":15883:15920   */\n      tag_274\n        /* \"#utility.yul\":15916:15919   */\n      dup3\n        /* \"#utility.yul\":15883:15920   */\n      tag_69\n      jump\t// in\n    tag_274:\n        /* \"#utility.yul\":15985:16003   */\n      0xffffffffffffffff\n        /* \"#utility.yul\":15977:15983   */\n      dup2\n        /* \"#utility.yul\":15974:16004   */\n      gt\n        /* \"#utility.yul\":15971:16027   */\n      iszero\n      tag_275\n      jumpi\n        /* \"#utility.yul\":16007:16025   */\n      tag_276\n      tag_87\n      jump\t// in\n    tag_276:\n        /* \"#utility.yul\":15971:16027   */\n    tag_275:\n        /* \"#utility.yul\":16051:16089   */\n      tag_277\n        /* \"#utility.yul\":16083:16087   */\n      dup3\n        /* \"#utility.yul\":16077:16088   */\n      sload\n        /* \"#utility.yul\":16051:16089   */\n      tag_31\n      jump\t// in\n    tag_277:\n        /* \"#utility.yul\":16136:16203   */\n      tag_278\n        /* \"#utility.yul\":16196:16202   */\n      dup3\n        /* \"#utility.yul\":16188:16194   */\n      dup3\n        /* \"#utility.yul\":16182:16186   */\n      dup6\n        /* \"#utility.yul\":16136:16203   */\n      tag_111\n      jump\t// in\n    tag_278:\n        /* \"#utility.yul\":16230:16231   */\n      0x00\n        /* \"#utility.yul\":16254:16258   */\n      0x20\n        /* \"#utility.yul\":16241:16258   */\n      swap1\n      pop\n        /* \"#utility.yul\":16286:16288   */\n      0x1f\n        /* \"#utility.yul\":16278:16284   */\n      dup4\n        /* \"#utility.yul\":16275:16289   */\n      gt\n        /* \"#utility.yul\":16303:16304   */\n      0x01\n        /* \"#utility.yul\":16298:16916   */\n      dup2\n      eq\n      tag_280\n      jumpi\n        /* \"#utility.yul\":16960:16961   */\n      0x00\n        /* \"#utility.yul\":16977:16983   */\n      dup5\n        /* \"#utility.yul\":16974:17051   */\n      iszero\n      tag_281\n      jumpi\n        /* \"#utility.yul\":17026:17035   */\n      dup3\n        /* \"#utility.yul\":17021:17024   */\n      dup8\n        /* \"#utility.yul\":17017:17036   */\n      add\n        /* \"#utility.yul\":17011:17037   */\n      mload\n        /* \"#utility.yul\":17002:17037   */\n      swap1\n      pop\n        /* \"#utility.yul\":16974:17051   */\n    tag_281:\n        /* \"#utility.yul\":17077:17144   */\n      tag_282\n        /* \"#utility.yul\":17137:17143   */\n      dup6\n        /* \"#utility.yul\":17130:17135   */\n      dup3\n        /* \"#utility.yul\":17077:17144   */\n      tag_114\n      jump\t// in\n    tag_282:\n        /* \"#utility.yul\":17071:17075   */\n      dup7\n        /* \"#utility.yul\":17064:17145   */\n      sstore\n        /* \"#utility.yul\":16933:17155   */\n      pop\n        /* \"#utility.yul\":16268:17155   */\n      jump(tag_279)\n        /* \"#utility.yul\":16298:16916   */\n    tag_280:\n        /* \"#utility.yul\":16350:16354   */\n      0x1f\n        /* \"#utility.yul\":16346:16355   */\n      not\n        /* \"#utility.yul\":16338:16344   */\n      dup5\n        /* \"#utility.yul\":16334:16356   */\n      and\n        /* \"#utility.yul\":16384:16421   */\n      tag_283\n        /* \"#utility.yul\":16416:16420   */\n      dup7\n        /* \"#utility.yul\":16384:16421   */\n      tag_100\n      jump\t// in\n    tag_283:\n        /* \"#utility.yul\":16443:16444   */\n      0x00\n        /* \"#utility.yul\":16457:16665   */\n    tag_284:\n        /* \"#utility.yul\":16471:16478   */\n      dup3\n        /* \"#utility.yul\":16468:16469   */\n      dup2\n        /* \"#utility.yul\":16465:16479   */\n      lt\n        /* \"#utility.yul\":16457:16665   */\n      iszero\n      tag_286\n      jumpi\n        /* \"#utility.yul\":16550:16559   */\n      dup5\n        /* \"#utility.yul\":16545:16548   */\n      dup10\n        /* \"#utility.yul\":16541:16560   */\n      add\n        /* \"#utility.yul\":16535:16561   */\n      mload\n        /* \"#utility.yul\":16527:16533   */\n      dup3\n        /* \"#utility.yul\":16520:16562   */\n      sstore\n        /* \"#utility.yul\":16601:16602   */\n      0x01\n        /* \"#utility.yul\":16593:16599   */\n      dup3\n        /* \"#utility.yul\":16589:16603   */\n      add\n        /* \"#utility.yul\":16579:16603   */\n      swap2\n      pop\n        /* \"#utility.yul\":16648:16650   */\n      0x20\n        /* \"#utility.yul\":16637:16646   */\n      dup6\n        /* \"#utility.yul\":16633:16651   */\n      add\n        /* \"#utility.yul\":16620:16651   */\n      swap5\n      pop\n        /* \"#utility.yul\":16494:16498   */\n      0x20\n        /* \"#utility.yul\":16491:16492   */\n      dup2\n        /* \"#utility.yul\":16487:16499   */\n      add\n        /* \"#utility.yul\":16482:16499   */\n      swap1\n      pop\n        /* \"#utility.yul\":16457:16665   */\n      jump(tag_284)\n    tag_286:\n        /* \"#utility.yul\":16693:16699   */\n      dup7\n        /* \"#utility.yul\":16684:16691   */\n      dup4\n        /* \"#utility.yul\":16681:16700   */\n      lt\n        /* \"#utility.yul\":16678:16857   */\n      iszero\n      tag_287\n      jumpi\n        /* \"#utility.yul\":16751:16760   */\n      dup5\n        /* \"#utility.yul\":16746:16749   */\n      dup10\n        /* \"#utility.yul\":16742:16761   */\n      add\n        /* \"#utility.yul\":16736:16762   */\n      mload\n        /* \"#utility.yul\":16794:16842   */\n      tag_288\n        /* \"#utility.yul\":16836:16840   */\n      0x1f\n        /* \"#utility.yul\":16828:16834   */\n      dup10\n        /* \"#utility.yul\":16824:16841   */\n      and\n        /* \"#utility.yul\":16813:16822   */\n      dup3\n        /* \"#utility.yul\":16794:16842   */\n      tag_113\n      jump\t// in\n    tag_288:\n        /* \"#utility.yul\":16786:16792   */\n      dup4\n        /* \"#utility.yul\":16779:16843   */\n      sstore\n        /* \"#utility.yul\":16701:16857   */\n      pop\n        /* \"#utility.yul\":16678:16857   */\n    tag_287:\n        /* \"#utility.yul\":16903:16904   */\n      0x01\n        /* \"#utility.yul\":16899:16900   */\n      0x02\n        /* \"#utility.yul\":16891:16897   */\n      dup9\n        /* \"#utility.yul\":16887:16901   */\n      mul\n        /* \"#utility.yul\":16883:16905   */\n      add\n        /* \"#utility.yul\":16877:16881   */\n      dup9\n        /* \"#utility.yul\":16870:16906   */\n      sstore\n        /* \"#utility.yul\":16305:16916   */\n      pop\n      pop\n      pop\n        /* \"#utility.yul\":16268:17155   */\n    tag_279:\n      pop\n        /* \"#utility.yul\":15858:17161   */\n      pop\n      pop\n      pop\n        /* \"#utility.yul\":15766:17161   */\n      pop\n      pop\n      jump\t// out\n\n    auxdata: 0xa264697066735822122081a68c7618464d6e07277d85d0820be0a1c51ab5759e397bab1e1978b1fe2a4164736f6c634300081a0033\n}\n",
				"bytecode": {
					"linkReferences": {},
					"object": "6080604052348015600e575f80fd5b50610ef58061001c5f395ff3fe608060405260043610610033575f3560e01c8063a64ee20614610037578063d43f036b14610073578063f0e1691a146100b0575b5f80fd5b348015610042575f80fd5b5061005d60048036038101906100589190610675565b6100e0565b60405161006a9190610866565b60405180910390f35b34801561007e575f80fd5b5061009960048036038101906100949190610675565b61027f565b6040516100a79291906108dd565b60405180910390f35b6100ca60048036038101906100c59190610a61565b61046d565b6040516100d79190610abb565b60405180910390f35b6100e86105f7565b5f808373ffffffffffffffffffffffffffffffffffffffff1673ffffffffffffffffffffffffffffffffffffffff1681526020019081526020015f206040518060200160405290815f8201805480602002602001604051908101604052809291908181526020015f905b82821015610270578382905f5260205f2090600302016040518060600160405290815f8201805461018290610b08565b80601f01602080910402602001604051908101604052809291908181526020018280546101ae90610b08565b80156101f95780601f106101d0576101008083540402835291602001916101f9565b820191905f5260205f20905b8154815290600101906020018083116101dc57829003601f168201915b50505050508152602001600182015f9054906101000a900473ffffffffffffffffffffffffffffffffffffffff1673ffffffffffffffffffffffffffffffffffffffff1673ffffffffffffffffffffffffffffffffffffffff16815260200160028201548152505081526020019060010190610152565b50505050815250509050919050565b60605f805f8473ffffffffffffffffffffffffffffffffffffffff1673ffffffffffffffffffffffffffffffffffffffff1681526020019081526020015f205f0160015f808673ffffffffffffffffffffffffffffffffffffffff1673ffffffffffffffffffffffffffffffffffffffff1681526020019081526020015f205f018054905061030e9190610b65565b8154811061031f5761031e610b98565b5b905f5260205f2090600302015f015f808573ffffffffffffffffffffffffffffffffffffffff1673ffffffffffffffffffffffffffffffffffffffff1681526020019081526020015f205f0160015f808773ffffffffffffffffffffffffffffffffffffffff1673ffffffffffffffffffffffffffffffffffffffff1681526020019081526020015f205f01805490506103b99190610b65565b815481106103ca576103c9610b98565b5b905f5260205f209060030201600201548180546103e690610b08565b80601f016020809104026020016040519081016040528092919081815260200182805461041290610b08565b801561045d5780601f106104345761010080835404028352916020019161045d565b820191905f5260205f20905b81548152906001019060200180831161044057829003601f168201915b5050505050915091509150915091565b6060670de0b6b3a764000034146104b9576040517f08c379a00000000000000000000000000000000000000000000000000000000081526004016104b090610c35565b60405180910390fd5b5f60405180606001604052808581526020013373ffffffffffffffffffffffffffffffffffffffff1681526020018481525090505f803373ffffffffffffffffffffffffffffffffffffffff1673ffffffffffffffffffffffffffffffffffffffff1681526020019081526020015f205f0181908060018154018082558091505060019003905f5260205f2090600302015f909190919091505f820151815f0190816105659190610df0565b506020820151816001015f6101000a81548173ffffffffffffffffffffffffffffffffffffffff021916908373ffffffffffffffffffffffffffffffffffffffff1602179055506040820151816002015550506040518060400160405280601081526020017f4576656e7420526567697374657265640000000000000000000000000000000081525091505092915050565b6040518060200160405280606081525090565b5f604051905090565b5f80fd5b5f80fd5b5f73ffffffffffffffffffffffffffffffffffffffff82169050919050565b5f6106448261061b565b9050919050565b6106548161063a565b811461065e575f80fd5b50565b5f8135905061066f8161064b565b92915050565b5f6020828403121561068a57610689610613565b5b5f61069784828501610661565b91505092915050565b5f81519050919050565b5f82825260208201905092915050565b5f819050602082019050919050565b5f81519050919050565b5f82825260208201905092915050565b8281835e5f83830152505050565b5f601f19601f8301169050919050565b5f61070b826106c9565b61071581856106d3565b93506107258185602086016106e3565b61072e816106f1565b840191505092915050565b6107428161063a565b82525050565b5f819050919050565b61075a81610748565b82525050565b5f606083015f8301518482035f86015261077a8282610701565b915050602083015161078f6020860182610739565b5060408301516107a26040860182610751565b508091505092915050565b5f6107b88383610760565b905092915050565b5f602082019050919050565b5f6107d6826106a0565b6107e081856106aa565b9350836020820285016107f2856106ba565b805f5b8581101561082d578484038952815161080e85826107ad565b9450610819836107c0565b925060208a019950506001810190506107f5565b50829750879550505050505092915050565b5f602083015f8301518482035f86015261085982826107cc565b9150508091505092915050565b5f6020820190508181035f83015261087e818461083f565b905092915050565b5f82825260208201905092915050565b5f6108a0826106c9565b6108aa8185610886565b93506108ba8185602086016106e3565b6108c3816106f1565b840191505092915050565b6108d781610748565b82525050565b5f6040820190508181035f8301526108f58185610896565b905061090460208301846108ce565b9392505050565b5f80fd5b5f80fd5b7f4e487b71000000000000000000000000000000000000000000000000000000005f52604160045260245ffd5b610949826106f1565b810181811067ffffffffffffffff8211171561096857610967610913565b5b80604052505050565b5f61097a61060a565b90506109868282610940565b919050565b5f67ffffffffffffffff8211156109a5576109a4610913565b5b6109ae826106f1565b9050602081019050919050565b828183375f83830152505050565b5f6109db6109d68461098b565b610971565b9050828152602081018484840111156109f7576109f661090f565b5b610a028482856109bb565b509392505050565b5f82601f830112610a1e57610a1d61090b565b5b8135610a2e8482602086016109c9565b91505092915050565b610a4081610748565b8114610a4a575f80fd5b50565b5f81359050610a5b81610a37565b92915050565b5f8060408385031215610a7757610a76610613565b5b5f83013567ffffffffffffffff811115610a9457610a93610617565b5b610aa085828601610a0a565b9250506020610ab185828601610a4d565b9150509250929050565b5f6020820190508181035f830152610ad38184610896565b905092915050565b7f4e487b71000000000000000000000000000000000000000000000000000000005f52602260045260245ffd5b5f6002820490506001821680610b1f57607f821691505b602082108103610b3257610b31610adb565b5b50919050565b7f4e487b71000000000000000000000000000000000000000000000000000000005f52601160045260245ffd5b5f610b6f82610748565b9150610b7a83610748565b9250828203905081811115610b9257610b91610b38565b5b92915050565b7f4e487b71000000000000000000000000000000000000000000000000000000005f52603260045260245ffd5b7f596f75206d7573742073656e642065786163746c79203120657468657220746f5f8201527f2061646420616e206576656e7400000000000000000000000000000000000000602082015250565b5f610c1f602d83610886565b9150610c2a82610bc5565b604082019050919050565b5f6020820190508181035f830152610c4c81610c13565b9050919050565b5f819050815f5260205f209050919050565b5f6020601f8301049050919050565b5f82821b905092915050565b5f60088302610caf7fffffffffffffffffffffffffffffffffffffffffffffffffffffffffffffffff82610c74565b610cb98683610c74565b95508019841693508086168417925050509392505050565b5f819050919050565b5f610cf4610cef610cea84610748565b610cd1565b610748565b9050919050565b5f819050919050565b610d0d83610cda565b610d21610d1982610cfb565b848454610c80565b825550505050565b5f90565b610d35610d29565b610d40818484610d04565b505050565b5b81811015610d6357610d585f82610d2d565b600181019050610d46565b5050565b601f821115610da857610d7981610c53565b610d8284610c65565b81016020851015610d91578190505b610da5610d9d85610c65565b830182610d45565b50505b505050565b5f82821c905092915050565b5f610dc85f1984600802610dad565b1980831691505092915050565b5f610de08383610db9565b9150826002028217905092915050565b610df9826106c9565b67ffffffffffffffff811115610e1257610e11610913565b5b610e1c8254610b08565b610e27828285610d67565b5f60209050601f831160018114610e58575f8415610e46578287015190505b610e508582610dd5565b865550610eb7565b601f198416610e6686610c53565b5f5b82811015610e8d57848901518255600182019150602085019450602081019050610e68565b86831015610eaa5784890151610ea6601f891682610db9565b8355505b6001600288020188555050505b50505050505056fea264697066735822122081a68c7618464d6e07277d85d0820be0a1c51ab5759e397bab1e1978b1fe2a4164736f6c634300081a0033",
					"opcodes": "PUSH1 0x80 PUSH1 0x40 MSTORE CALLVALUE DUP1 ISZERO PUSH1 0xE JUMPI PUSH0 DUP1 REVERT JUMPDEST POP PUSH2 0xEF5 DUP1 PUSH2 0x1C PUSH0 CODECOPY PUSH0 RETURN INVALID PUSH1 0x80 PUSH1 0x40 MSTORE PUSH1 0x4 CALLDATASIZE LT PUSH2 0x33 JUMPI PUSH0 CALLDATALOAD PUSH1 0xE0 SHR DUP1 PUSH4 0xA64EE206 EQ PUSH2 0x37 JUMPI DUP1 PUSH4 0xD43F036B EQ PUSH2 0x73 JUMPI DUP1 PUSH4 0xF0E1691A EQ PUSH2 0xB0 JUMPI JUMPDEST PUSH0 DUP1 REVERT JUMPDEST CALLVALUE DUP1 ISZERO PUSH2 0x42 JUMPI PUSH0 DUP1 REVERT JUMPDEST POP PUSH2 0x5D PUSH1 0x4 DUP1 CALLDATASIZE SUB DUP2 ADD SWAP1 PUSH2 0x58 SWAP2 SWAP1 PUSH2 0x675 JUMP JUMPDEST PUSH2 0xE0 JUMP JUMPDEST PUSH1 0x40 MLOAD PUSH2 0x6A SWAP2 SWAP1 PUSH2 0x866 JUMP JUMPDEST PUSH1 0x40 MLOAD DUP1 SWAP2 SUB SWAP1 RETURN JUMPDEST CALLVALUE DUP1 ISZERO PUSH2 0x7E JUMPI PUSH0 DUP1 REVERT JUMPDEST POP PUSH2 0x99 PUSH1 0x4 DUP1 CALLDATASIZE SUB DUP2 ADD SWAP1 PUSH2 0x94 SWAP2 SWAP1 PUSH2 0x675 JUMP JUMPDEST PUSH2 0x27F JUMP JUMPDEST PUSH1 0x40 MLOAD PUSH2 0xA7 SWAP3 SWAP2 SWAP1 PUSH2 0x8DD JUMP JUMPDEST PUSH1 0x40 MLOAD DUP1 SWAP2 SUB SWAP1 RETURN JUMPDEST PUSH2 0xCA PUSH1 0x4 DUP1 CALLDATASIZE SUB DUP2 ADD SWAP1 PUSH2 0xC5 SWAP2 SWAP1 PUSH2 0xA61 JUMP JUMPDEST PUSH2 0x46D JUMP JUMPDEST PUSH1 0x40 MLOAD PUSH2 0xD7 SWAP2 SWAP1 PUSH2 0xABB JUMP JUMPDEST PUSH1 0x40 MLOAD DUP1 SWAP2 SUB SWAP1 RETURN JUMPDEST PUSH2 0xE8 PUSH2 0x5F7 JUMP JUMPDEST PUSH0 DUP1 DUP4 PUSH20 0xFFFFFFFFFFFFFFFFFFFFFFFFFFFFFFFFFFFFFFFF AND PUSH20 0xFFFFFFFFFFFFFFFFFFFFFFFFFFFFFFFFFFFFFFFF AND DUP2 MSTORE PUSH1 0x20 ADD SWAP1 DUP2 MSTORE PUSH1 0x20 ADD PUSH0 KECCAK256 PUSH1 0x40 MLOAD DUP1 PUSH1 0x20 ADD PUSH1 0x40 MSTORE SWAP1 DUP2 PUSH0 DUP3 ADD DUP1 SLOAD DUP1 PUSH1 0x20 MUL PUSH1 0x20 ADD PUSH1 0x40 MLOAD SWAP1 DUP2 ADD PUSH1 0x40 MSTORE DUP1 SWAP3 SWAP2 SWAP1 DUP2 DUP2 MSTORE PUSH1 0x20 ADD PUSH0 SWAP1 JUMPDEST DUP3 DUP3 LT ISZERO PUSH2 0x270 JUMPI DUP4 DUP3 SWAP1 PUSH0 MSTORE PUSH1 0x20 PUSH0 KECCAK256 SWAP1 PUSH1 0x3 MUL ADD PUSH1 0x40 MLOAD DUP1 PUSH1 0x60 ADD PUSH1 0x40 MSTORE SWAP1 DUP2 PUSH0 DUP3 ADD DUP1 SLOAD PUSH2 0x182 SWAP1 PUSH2 0xB08 JUMP JUMPDEST DUP1 PUSH1 0x1F ADD PUSH1 0x20 DUP1 SWAP2 DIV MUL PUSH1 0x20 ADD PUSH1 0x40 MLOAD SWAP1 DUP2 ADD PUSH1 0x40 MSTORE DUP1 SWAP3 SWAP2 SWAP1 DUP2 DUP2 MSTORE PUSH1 0x20 ADD DUP3 DUP1 SLOAD PUSH2 0x1AE SWAP1 PUSH2 0xB08 JUMP JUMPDEST DUP1 ISZERO PUSH2 0x1F9 JUMPI DUP1 PUSH1 0x1F LT PUSH2 0x1D0 JUMPI PUSH2 0x100 DUP1 DUP4 SLOAD DIV MUL DUP4 MSTORE SWAP2 PUSH1 0x20 ADD SWAP2 PUSH2 0x1F9 JUMP JUMPDEST DUP3 ADD SWAP2 SWAP1 PUSH0 MSTORE PUSH1 0x20 PUSH0 KECCAK256 SWAP1 JUMPDEST DUP2 SLOAD DUP2 MSTORE SWAP1 PUSH1 0x1 ADD SWAP1 PUSH1 0x20 ADD DUP1 DUP4 GT PUSH2 0x1DC JUMPI DUP3 SWAP1 SUB PUSH1 0x1F AND DUP3 ADD SWAP2 JUMPDEST POP POP POP POP POP DUP2 MSTORE PUSH1 0x20 ADD PUSH1 0x1 DUP3 ADD PUSH0 SWAP1 SLOAD SWAP1 PUSH2 0x100 EXP SWAP1 DIV PUSH20 0xFFFFFFFFFFFFFFFFFFFFFFFFFFFFFFFFFFFFFFFF AND PUSH20 0xFFFFFFFFFFFFFFFFFFFFFFFFFFFFFFFFFFFFFFFF AND PUSH20 0xFFFFFFFFFFFFFFFFFFFFFFFFFFFFFFFFFFFFFFFF AND DUP2 MSTORE PUSH1 0x20 ADD PUSH1 0x2 DUP3 ADD SLOAD DUP2 MSTORE POP POP DUP2 MSTORE PUSH1 0x20 ADD SWAP1 PUSH1 0x1 ADD SWAP1 PUSH2 0x152 JUMP JUMPDEST POP POP POP POP DUP2 MSTORE POP POP SWAP1 POP SWAP2 SWAP1 POP JUMP JUMPDEST PUSH1 0x60 PUSH0 DUP1 PUSH0 DUP5 PUSH20 0xFFFFFFFFFFFFFFFFFFFFFFFFFFFFFFFFFFFFFFFF AND PUSH20 0xFFFFFFFFFFFFFFFFFFFFFFFFFFFFFFFFFFFFFFFF AND DUP2 MSTORE PUSH1 0x20 ADD SWAP1 DUP2 MSTORE PUSH1 0x20 ADD PUSH0 KECCAK256 PUSH0 ADD PUSH1 0x1 PUSH0 DUP1 DUP7 PUSH20 0xFFFFFFFFFFFFFFFFFFFFFFFFFFFFFFFFFFFFFFFF AND PUSH20 0xFFFFFFFFFFFFFFFFFFFFFFFFFFFFFFFFFFFFFFFF AND DUP2 MSTORE PUSH1 0x20 ADD SWAP1 DUP2 MSTORE PUSH1 0x20 ADD PUSH0 KECCAK256 PUSH0 ADD DUP1 SLOAD SWAP1 POP PUSH2 0x30E SWAP2 SWAP1 PUSH2 0xB65 JUMP JUMPDEST DUP2 SLOAD DUP2 LT PUSH2 0x31F JUMPI PUSH2 0x31E PUSH2 0xB98 JUMP JUMPDEST JUMPDEST SWAP1 PUSH0 MSTORE PUSH1 0x20 PUSH0 KECCAK256 SWAP1 PUSH1 0x3 MUL ADD PUSH0 ADD PUSH0 DUP1 DUP6 PUSH20 0xFFFFFFFFFFFFFFFFFFFFFFFFFFFFFFFFFFFFFFFF AND PUSH20 0xFFFFFFFFFFFFFFFFFFFFFFFFFFFFFFFFFFFFFFFF AND DUP2 MSTORE PUSH1 0x20 ADD SWAP1 DUP2 MSTORE PUSH1 0x20 ADD PUSH0 KECCAK256 PUSH0 ADD PUSH1 0x1 PUSH0 DUP1 DUP8 PUSH20 0xFFFFFFFFFFFFFFFFFFFFFFFFFFFFFFFFFFFFFFFF AND PUSH20 0xFFFFFFFFFFFFFFFFFFFFFFFFFFFFFFFFFFFFFFFF AND DUP2 MSTORE PUSH1 0x20 ADD SWAP1 DUP2 MSTORE PUSH1 0x20 ADD PUSH0 KECCAK256 PUSH0 ADD DUP1 SLOAD SWAP1 POP PUSH2 0x3B9 SWAP2 SWAP1 PUSH2 0xB65 JUMP JUMPDEST DUP2 SLOAD DUP2 LT PUSH2 0x3CA JUMPI PUSH2 0x3C9 PUSH2 0xB98 JUMP JUMPDEST JUMPDEST SWAP1 PUSH0 MSTORE PUSH1 0x20 PUSH0 KECCAK256 SWAP1 PUSH1 0x3 MUL ADD PUSH1 0x2 ADD SLOAD DUP2 DUP1 SLOAD PUSH2 0x3E6 SWAP1 PUSH2 0xB08 JUMP JUMPDEST DUP1 PUSH1 0x1F ADD PUSH1 0x20 DUP1 SWAP2 DIV MUL PUSH1 0x20 ADD PUSH1 0x40 MLOAD SWAP1 DUP2 ADD PUSH1 0x40 MSTORE DUP1 SWAP3 SWAP2 SWAP1 DUP2 DUP2 MSTORE PUSH1 0x20 ADD DUP3 DUP1 SLOAD PUSH2 0x412 SWAP1 PUSH2 0xB08 JUMP JUMPDEST DUP1 ISZERO PUSH2 0x45D JUMPI DUP1 PUSH1 0x1F LT PUSH2 0x434 JUMPI PUSH2 0x100 DUP1 DUP4 SLOAD DIV MUL DUP4 MSTORE SWAP2 PUSH1 0x20 ADD SWAP2 PUSH2 0x45D JUMP JUMPDEST DUP3 ADD SWAP2 SWAP1 PUSH0 MSTORE PUSH1 0x20 PUSH0 KECCAK256 SWAP1 JUMPDEST DUP2 SLOAD DUP2 MSTORE SWAP1 PUSH1 0x1 ADD SWAP1 PUSH1 0x20 ADD DUP1 DUP4 GT PUSH2 0x440 JUMPI DUP3 SWAP1 SUB PUSH1 0x1F AND DUP3 ADD SWAP2 JUMPDEST POP POP POP POP POP SWAP2 POP SWAP2 POP SWAP2 POP SWAP2 POP SWAP2 JUMP JUMPDEST PUSH1 0x60 PUSH8 0xDE0B6B3A7640000 CALLVALUE EQ PUSH2 0x4B9 JUMPI PUSH1 0x40 MLOAD PUSH32 0x8C379A000000000000000000000000000000000000000000000000000000000 DUP2 MSTORE PUSH1 0x4 ADD PUSH2 0x4B0 SWAP1 PUSH2 0xC35 JUMP JUMPDEST PUSH1 0x40 MLOAD DUP1 SWAP2 SUB SWAP1 REVERT JUMPDEST PUSH0 PUSH1 0x40 MLOAD DUP1 PUSH1 0x60 ADD PUSH1 0x40 MSTORE DUP1 DUP6 DUP2 MSTORE PUSH1 0x20 ADD CALLER PUSH20 0xFFFFFFFFFFFFFFFFFFFFFFFFFFFFFFFFFFFFFFFF AND DUP2 MSTORE PUSH1 0x20 ADD DUP5 DUP2 MSTORE POP SWAP1 POP PUSH0 DUP1 CALLER PUSH20 0xFFFFFFFFFFFFFFFFFFFFFFFFFFFFFFFFFFFFFFFF AND PUSH20 0xFFFFFFFFFFFFFFFFFFFFFFFFFFFFFFFFFFFFFFFF AND DUP2 MSTORE PUSH1 0x20 ADD SWAP1 DUP2 MSTORE PUSH1 0x20 ADD PUSH0 KECCAK256 PUSH0 ADD DUP2 SWAP1 DUP1 PUSH1 0x1 DUP2 SLOAD ADD DUP1 DUP3 SSTORE DUP1 SWAP2 POP POP PUSH1 0x1 SWAP1 SUB SWAP1 PUSH0 MSTORE PUSH1 0x20 PUSH0 KECCAK256 SWAP1 PUSH1 0x3 MUL ADD PUSH0 SWAP1 SWAP2 SWAP1 SWAP2 SWAP1 SWAP2 POP PUSH0 DUP3 ADD MLOAD DUP2 PUSH0 ADD SWAP1 DUP2 PUSH2 0x565 SWAP2 SWAP1 PUSH2 0xDF0 JUMP JUMPDEST POP PUSH1 0x20 DUP3 ADD MLOAD DUP2 PUSH1 0x1 ADD PUSH0 PUSH2 0x100 EXP DUP2 SLOAD DUP2 PUSH20 0xFFFFFFFFFFFFFFFFFFFFFFFFFFFFFFFFFFFFFFFF MUL NOT AND SWAP1 DUP4 PUSH20 0xFFFFFFFFFFFFFFFFFFFFFFFFFFFFFFFFFFFFFFFF AND MUL OR SWAP1 SSTORE POP PUSH1 0x40 DUP3 ADD MLOAD DUP2 PUSH1 0x2 ADD SSTORE POP POP PUSH1 0x40 MLOAD DUP1 PUSH1 0x40 ADD PUSH1 0x40 MSTORE DUP1 PUSH1 0x10 DUP2 MSTORE PUSH1 0x20 ADD PUSH32 0x4576656E74205265676973746572656400000000000000000000000000000000 DUP2 MSTORE POP SWAP2 POP POP SWAP3 SWAP2 POP POP JUMP JUMPDEST PUSH1 0x40 MLOAD DUP1 PUSH1 0x20 ADD PUSH1 0x40 MSTORE DUP1 PUSH1 0x60 DUP2 MSTORE POP SWAP1 JUMP JUMPDEST PUSH0 PUSH1 0x40 MLOAD SWAP1 POP SWAP1 JUMP JUMPDEST PUSH0 DUP1 REVERT JUMPDEST PUSH0 DUP1 REVERT JUMPDEST PUSH0 PUSH20 0xFFFFFFFFFFFFFFFFFFFFFFFFFFFFFFFFFFFFFFFF DUP3 AND SWAP1 POP SWAP2 SWAP1 POP JUMP JUMPDEST PUSH0 PUSH2 0x644 DUP3 PUSH2 0x61B JUMP JUMPDEST SWAP1 POP SWAP2 SWAP1 POP JUMP JUMPDEST PUSH2 0x654 DUP2 PUSH2 0x63A JUMP JUMPDEST DUP2 EQ PUSH2 0x65E JUMPI PUSH0 DUP1 REVERT JUMPDEST POP JUMP JUMPDEST PUSH0 DUP2 CALLDATALOAD SWAP1 POP PUSH2 0x66F DUP2 PUSH2 0x64B JUMP JUMPDEST SWAP3 SWAP2 POP POP JUMP JUMPDEST PUSH0 PUSH1 0x20 DUP3 DUP5 SUB SLT ISZERO PUSH2 0x68A JUMPI PUSH2 0x689 PUSH2 0x613 JUMP JUMPDEST JUMPDEST PUSH0 PUSH2 0x697 DUP5 DUP3 DUP6 ADD PUSH2 0x661 JUMP JUMPDEST SWAP2 POP POP SWAP3 SWAP2 POP POP JUMP JUMPDEST PUSH0 DUP2 MLOAD SWAP1 POP SWAP2 SWAP1 POP JUMP JUMPDEST PUSH0 DUP3 DUP3 MSTORE PUSH1 0x20 DUP3 ADD SWAP1 POP SWAP3 SWAP2 POP POP JUMP JUMPDEST PUSH0 DUP2 SWAP1 POP PUSH1 0x20 DUP3 ADD SWAP1 POP SWAP2 SWAP1 POP JUMP JUMPDEST PUSH0 DUP2 MLOAD SWAP1 POP SWAP2 SWAP1 POP JUMP JUMPDEST PUSH0 DUP3 DUP3 MSTORE PUSH1 0x20 DUP3 ADD SWAP1 POP SWAP3 SWAP2 POP POP JUMP JUMPDEST DUP3 DUP2 DUP4 MCOPY PUSH0 DUP4 DUP4 ADD MSTORE POP POP POP JUMP JUMPDEST PUSH0 PUSH1 0x1F NOT PUSH1 0x1F DUP4 ADD AND SWAP1 POP SWAP2 SWAP1 POP JUMP JUMPDEST PUSH0 PUSH2 0x70B DUP3 PUSH2 0x6C9 JUMP JUMPDEST PUSH2 0x715 DUP2 DUP6 PUSH2 0x6D3 JUMP JUMPDEST SWAP4 POP PUSH2 0x725 DUP2 DUP6 PUSH1 0x20 DUP7 ADD PUSH2 0x6E3 JUMP JUMPDEST PUSH2 0x72E DUP2 PUSH2 0x6F1 JUMP JUMPDEST DUP5 ADD SWAP2 POP POP SWAP3 SWAP2 POP POP JUMP JUMPDEST PUSH2 0x742 DUP2 PUSH2 0x63A JUMP JUMPDEST DUP3 MSTORE POP POP JUMP JUMPDEST PUSH0 DUP2 SWAP1 POP SWAP2 SWAP1 POP JUMP JUMPDEST PUSH2 0x75A DUP2 PUSH2 0x748 JUMP JUMPDEST DUP3 MSTORE POP POP JUMP JUMPDEST PUSH0 PUSH1 0x60 DUP4 ADD PUSH0 DUP4 ADD MLOAD DUP5 DUP3 SUB PUSH0 DUP7 ADD MSTORE PUSH2 0x77A DUP3 DUP3 PUSH2 0x701 JUMP JUMPDEST SWAP2 POP POP PUSH1 0x20 DUP4 ADD MLOAD PUSH2 0x78F PUSH1 0x20 DUP7 ADD DUP3 PUSH2 0x739 JUMP JUMPDEST POP PUSH1 0x40 DUP4 ADD MLOAD PUSH2 0x7A2 PUSH1 0x40 DUP7 ADD DUP3 PUSH2 0x751 JUMP JUMPDEST POP DUP1 SWAP2 POP POP SWAP3 SWAP2 POP POP JUMP JUMPDEST PUSH0 PUSH2 0x7B8 DUP4 DUP4 PUSH2 0x760 JUMP JUMPDEST SWAP1 POP SWAP3 SWAP2 POP POP JUMP JUMPDEST PUSH0 PUSH1 0x20 DUP3 ADD SWAP1 POP SWAP2 SWAP1 POP JUMP JUMPDEST PUSH0 PUSH2 0x7D6 DUP3 PUSH2 0x6A0 JUMP JUMPDEST PUSH2 0x7E0 DUP2 DUP6 PUSH2 0x6AA JUMP JUMPDEST SWAP4 POP DUP4 PUSH1 0x20 DUP3 MUL DUP6 ADD PUSH2 0x7F2 DUP6 PUSH2 0x6BA JUMP JUMPDEST DUP1 PUSH0 JUMPDEST DUP6 DUP2 LT ISZERO PUSH2 0x82D JUMPI DUP5 DUP5 SUB DUP10 MSTORE DUP2 MLOAD PUSH2 0x80E DUP6 DUP3 PUSH2 0x7AD JUMP JUMPDEST SWAP5 POP PUSH2 0x819 DUP4 PUSH2 0x7C0 JUMP JUMPDEST SWAP3 POP PUSH1 0x20 DUP11 ADD SWAP10 POP POP PUSH1 0x1 DUP2 ADD SWAP1 POP PUSH2 0x7F5 JUMP JUMPDEST POP DUP3 SWAP8 POP DUP8 SWAP6 POP POP POP POP POP POP SWAP3 SWAP2 POP POP JUMP JUMPDEST PUSH0 PUSH1 0x20 DUP4 ADD PUSH0 DUP4 ADD MLOAD DUP5 DUP3 SUB PUSH0 DUP7 ADD MSTORE PUSH2 0x859 DUP3 DUP3 PUSH2 0x7CC JUMP JUMPDEST SWAP2 POP POP DUP1 SWAP2 POP POP SWAP3 SWAP2 POP POP JUMP JUMPDEST PUSH0 PUSH1 0x20 DUP3 ADD SWAP1 POP DUP2 DUP2 SUB PUSH0 DUP4 ADD MSTORE PUSH2 0x87E DUP2 DUP5 PUSH2 0x83F JUMP JUMPDEST SWAP1 POP SWAP3 SWAP2 POP POP JUMP JUMPDEST PUSH0 DUP3 DUP3 MSTORE PUSH1 0x20 DUP3 ADD SWAP1 POP SWAP3 SWAP2 POP POP JUMP JUMPDEST PUSH0 PUSH2 0x8A0 DUP3 PUSH2 0x6C9 JUMP JUMPDEST PUSH2 0x8AA DUP2 DUP6 PUSH2 0x886 JUMP JUMPDEST SWAP4 POP PUSH2 0x8BA DUP2 DUP6 PUSH1 0x20 DUP7 ADD PUSH2 0x6E3 JUMP JUMPDEST PUSH2 0x8C3 DUP2 PUSH2 0x6F1 JUMP JUMPDEST DUP5 ADD SWAP2 POP POP SWAP3 SWAP2 POP POP JUMP JUMPDEST PUSH2 0x8D7 DUP2 PUSH2 0x748 JUMP JUMPDEST DUP3 MSTORE POP POP JUMP JUMPDEST PUSH0 PUSH1 0x40 DUP3 ADD SWAP1 POP DUP2 DUP2 SUB PUSH0 DUP4 ADD MSTORE PUSH2 0x8F5 DUP2 DUP6 PUSH2 0x896 JUMP JUMPDEST SWAP1 POP PUSH2 0x904 PUSH1 0x20 DUP4 ADD DUP5 PUSH2 0x8CE JUMP JUMPDEST SWAP4 SWAP3 POP POP POP JUMP JUMPDEST PUSH0 DUP1 REVERT JUMPDEST PUSH0 DUP1 REVERT JUMPDEST PUSH32 0x4E487B7100000000000000000000000000000000000000000000000000000000 PUSH0 MSTORE PUSH1 0x41 PUSH1 0x4 MSTORE PUSH1 0x24 PUSH0 REVERT JUMPDEST PUSH2 0x949 DUP3 PUSH2 0x6F1 JUMP JUMPDEST DUP2 ADD DUP2 DUP2 LT PUSH8 0xFFFFFFFFFFFFFFFF DUP3 GT OR ISZERO PUSH2 0x968 JUMPI PUSH2 0x967 PUSH2 0x913 JUMP JUMPDEST JUMPDEST DUP1 PUSH1 0x40 MSTORE POP POP POP JUMP JUMPDEST PUSH0 PUSH2 0x97A PUSH2 0x60A JUMP JUMPDEST SWAP1 POP PUSH2 0x986 DUP3 DUP3 PUSH2 0x940 JUMP JUMPDEST SWAP2 SWAP1 POP JUMP JUMPDEST PUSH0 PUSH8 0xFFFFFFFFFFFFFFFF DUP3 GT ISZERO PUSH2 0x9A5 JUMPI PUSH2 0x9A4 PUSH2 0x913 JUMP JUMPDEST JUMPDEST PUSH2 0x9AE DUP3 PUSH2 0x6F1 JUMP JUMPDEST SWAP1 POP PUSH1 0x20 DUP2 ADD SWAP1 POP SWAP2 SWAP1 POP JUMP JUMPDEST DUP3 DUP2 DUP4 CALLDATACOPY PUSH0 DUP4 DUP4 ADD MSTORE POP POP POP JUMP JUMPDEST PUSH0 PUSH2 0x9DB PUSH2 0x9D6 DUP5 PUSH2 0x98B JUMP JUMPDEST PUSH2 0x971 JUMP JUMPDEST SWAP1 POP DUP3 DUP2 MSTORE PUSH1 0x20 DUP2 ADD DUP5 DUP5 DUP5 ADD GT ISZERO PUSH2 0x9F7 JUMPI PUSH2 0x9F6 PUSH2 0x90F JUMP JUMPDEST JUMPDEST PUSH2 0xA02 DUP5 DUP3 DUP6 PUSH2 0x9BB JUMP JUMPDEST POP SWAP4 SWAP3 POP POP POP JUMP JUMPDEST PUSH0 DUP3 PUSH1 0x1F DUP4 ADD SLT PUSH2 0xA1E JUMPI PUSH2 0xA1D PUSH2 0x90B JUMP JUMPDEST JUMPDEST DUP2 CALLDATALOAD PUSH2 0xA2E DUP5 DUP3 PUSH1 0x20 DUP7 ADD PUSH2 0x9C9 JUMP JUMPDEST SWAP2 POP POP SWAP3 SWAP2 POP POP JUMP JUMPDEST PUSH2 0xA40 DUP2 PUSH2 0x748 JUMP JUMPDEST DUP2 EQ PUSH2 0xA4A JUMPI PUSH0 DUP1 REVERT JUMPDEST POP JUMP JUMPDEST PUSH0 DUP2 CALLDATALOAD SWAP1 POP PUSH2 0xA5B DUP2 PUSH2 0xA37 JUMP JUMPDEST SWAP3 SWAP2 POP POP JUMP JUMPDEST PUSH0 DUP1 PUSH1 0x40 DUP4 DUP6 SUB SLT ISZERO PUSH2 0xA77 JUMPI PUSH2 0xA76 PUSH2 0x613 JUMP JUMPDEST JUMPDEST PUSH0 DUP4 ADD CALLDATALOAD PUSH8 0xFFFFFFFFFFFFFFFF DUP2 GT ISZERO PUSH2 0xA94 JUMPI PUSH2 0xA93 PUSH2 0x617 JUMP JUMPDEST JUMPDEST PUSH2 0xAA0 DUP6 DUP3 DUP7 ADD PUSH2 0xA0A JUMP JUMPDEST SWAP3 POP POP PUSH1 0x20 PUSH2 0xAB1 DUP6 DUP3 DUP7 ADD PUSH2 0xA4D JUMP JUMPDEST SWAP2 POP POP SWAP3 POP SWAP3 SWAP1 POP JUMP JUMPDEST PUSH0 PUSH1 0x20 DUP3 ADD SWAP1 POP DUP2 DUP2 SUB PUSH0 DUP4 ADD MSTORE PUSH2 0xAD3 DUP2 DUP5 PUSH2 0x896 JUMP JUMPDEST SWAP1 POP SWAP3 SWAP2 POP POP JUMP JUMPDEST PUSH32 0x4E487B7100000000000000000000000000000000000000000000000000000000 PUSH0 MSTORE PUSH1 0x22 PUSH1 0x4 MSTORE PUSH1 0x24 PUSH0 REVERT JUMPDEST PUSH0 PUSH1 0x2 DUP3 DIV SWAP1 POP PUSH1 0x1 DUP3 AND DUP1 PUSH2 0xB1F JUMPI PUSH1 0x7F DUP3 AND SWAP2 POP JUMPDEST PUSH1 0x20 DUP3 LT DUP2 SUB PUSH2 0xB32 JUMPI PUSH2 0xB31 PUSH2 0xADB JUMP JUMPDEST JUMPDEST POP SWAP2 SWAP1 POP JUMP JUMPDEST PUSH32 0x4E487B7100000000000000000000000000000000000000000000000000000000 PUSH0 MSTORE PUSH1 0x11 PUSH1 0x4 MSTORE PUSH1 0x24 PUSH0 REVERT JUMPDEST PUSH0 PUSH2 0xB6F DUP3 PUSH2 0x748 JUMP JUMPDEST SWAP2 POP PUSH2 0xB7A DUP4 PUSH2 0x748 JUMP JUMPDEST SWAP3 POP DUP3 DUP3 SUB SWAP1 POP DUP2 DUP2 GT ISZERO PUSH2 0xB92 JUMPI PUSH2 0xB91 PUSH2 0xB38 JUMP JUMPDEST JUMPDEST SWAP3 SWAP2 POP POP JUMP JUMPDEST PUSH32 0x4E487B7100000000000000000000000000000000000000000000000000000000 PUSH0 MSTORE PUSH1 0x32 PUSH1 0x4 MSTORE PUSH1 0x24 PUSH0 REVERT JUMPDEST PUSH32 0x596F75206D7573742073656E642065786163746C79203120657468657220746F PUSH0 DUP3 ADD MSTORE PUSH32 0x2061646420616E206576656E7400000000000000000000000000000000000000 PUSH1 0x20 DUP3 ADD MSTORE POP JUMP JUMPDEST PUSH0 PUSH2 0xC1F PUSH1 0x2D DUP4 PUSH2 0x886 JUMP JUMPDEST SWAP2 POP PUSH2 0xC2A DUP3 PUSH2 0xBC5 JUMP JUMPDEST PUSH1 0x40 DUP3 ADD SWAP1 POP SWAP2 SWAP1 POP JUMP JUMPDEST PUSH0 PUSH1 0x20 DUP3 ADD SWAP1 POP DUP2 DUP2 SUB PUSH0 DUP4 ADD MSTORE PUSH2 0xC4C DUP2 PUSH2 0xC13 JUMP JUMPDEST SWAP1 POP SWAP2 SWAP1 POP JUMP JUMPDEST PUSH0 DUP2 SWAP1 POP DUP2 PUSH0 MSTORE PUSH1 0x20 PUSH0 KECCAK256 SWAP1 POP SWAP2 SWAP1 POP JUMP JUMPDEST PUSH0 PUSH1 0x20 PUSH1 0x1F DUP4 ADD DIV SWAP1 POP SWAP2 SWAP1 POP JUMP JUMPDEST PUSH0 DUP3 DUP3 SHL SWAP1 POP SWAP3 SWAP2 POP POP JUMP JUMPDEST PUSH0 PUSH1 0x8 DUP4 MUL PUSH2 0xCAF PUSH32 0xFFFFFFFFFFFFFFFFFFFFFFFFFFFFFFFFFFFFFFFFFFFFFFFFFFFFFFFFFFFFFFFF DUP3 PUSH2 0xC74 JUMP JUMPDEST PUSH2 0xCB9 DUP7 DUP4 PUSH2 0xC74 JUMP JUMPDEST SWAP6 POP DUP1 NOT DUP5 AND SWAP4 POP DUP1 DUP7 AND DUP5 OR SWAP3 POP POP POP SWAP4 SWAP3 POP POP POP JUMP JUMPDEST PUSH0 DUP2 SWAP1 POP SWAP2 SWAP1 POP JUMP JUMPDEST PUSH0 PUSH2 0xCF4 PUSH2 0xCEF PUSH2 0xCEA DUP5 PUSH2 0x748 JUMP JUMPDEST PUSH2 0xCD1 JUMP JUMPDEST PUSH2 0x748 JUMP JUMPDEST SWAP1 POP SWAP2 SWAP1 POP JUMP JUMPDEST PUSH0 DUP2 SWAP1 POP SWAP2 SWAP1 POP JUMP JUMPDEST PUSH2 0xD0D DUP4 PUSH2 0xCDA JUMP JUMPDEST PUSH2 0xD21 PUSH2 0xD19 DUP3 PUSH2 0xCFB JUMP JUMPDEST DUP5 DUP5 SLOAD PUSH2 0xC80 JUMP JUMPDEST DUP3 SSTORE POP POP POP POP JUMP JUMPDEST PUSH0 SWAP1 JUMP JUMPDEST PUSH2 0xD35 PUSH2 0xD29 JUMP JUMPDEST PUSH2 0xD40 DUP2 DUP5 DUP5 PUSH2 0xD04 JUMP JUMPDEST POP POP POP JUMP JUMPDEST JUMPDEST DUP2 DUP2 LT ISZERO PUSH2 0xD63 JUMPI PUSH2 0xD58 PUSH0 DUP3 PUSH2 0xD2D JUMP JUMPDEST PUSH1 0x1 DUP2 ADD SWAP1 POP PUSH2 0xD46 JUMP JUMPDEST POP POP JUMP JUMPDEST PUSH1 0x1F DUP3 GT ISZERO PUSH2 0xDA8 JUMPI PUSH2 0xD79 DUP2 PUSH2 0xC53 JUMP JUMPDEST PUSH2 0xD82 DUP5 PUSH2 0xC65 JUMP JUMPDEST DUP2 ADD PUSH1 0x20 DUP6 LT ISZERO PUSH2 0xD91 JUMPI DUP2 SWAP1 POP JUMPDEST PUSH2 0xDA5 PUSH2 0xD9D DUP6 PUSH2 0xC65 JUMP JUMPDEST DUP4 ADD DUP3 PUSH2 0xD45 JUMP JUMPDEST POP POP JUMPDEST POP POP POP JUMP JUMPDEST PUSH0 DUP3 DUP3 SHR SWAP1 POP SWAP3 SWAP2 POP POP JUMP JUMPDEST PUSH0 PUSH2 0xDC8 PUSH0 NOT DUP5 PUSH1 0x8 MUL PUSH2 0xDAD JUMP JUMPDEST NOT DUP1 DUP4 AND SWAP2 POP POP SWAP3 SWAP2 POP POP JUMP JUMPDEST PUSH0 PUSH2 0xDE0 DUP4 DUP4 PUSH2 0xDB9 JUMP JUMPDEST SWAP2 POP DUP3 PUSH1 0x2 MUL DUP3 OR SWAP1 POP SWAP3 SWAP2 POP POP JUMP JUMPDEST PUSH2 0xDF9 DUP3 PUSH2 0x6C9 JUMP JUMPDEST PUSH8 0xFFFFFFFFFFFFFFFF DUP2 GT ISZERO PUSH2 0xE12 JUMPI PUSH2 0xE11 PUSH2 0x913 JUMP JUMPDEST JUMPDEST PUSH2 0xE1C DUP3 SLOAD PUSH2 0xB08 JUMP JUMPDEST PUSH2 0xE27 DUP3 DUP3 DUP6 PUSH2 0xD67 JUMP JUMPDEST PUSH0 PUSH1 0x20 SWAP1 POP PUSH1 0x1F DUP4 GT PUSH1 0x1 DUP2 EQ PUSH2 0xE58 JUMPI PUSH0 DUP5 ISZERO PUSH2 0xE46 JUMPI DUP3 DUP8 ADD MLOAD SWAP1 POP JUMPDEST PUSH2 0xE50 DUP6 DUP3 PUSH2 0xDD5 JUMP JUMPDEST DUP7 SSTORE POP PUSH2 0xEB7 JUMP JUMPDEST PUSH1 0x1F NOT DUP5 AND PUSH2 0xE66 DUP7 PUSH2 0xC53 JUMP JUMPDEST PUSH0 JUMPDEST DUP3 DUP2 LT ISZERO PUSH2 0xE8D JUMPI DUP5 DUP10 ADD MLOAD DUP3 SSTORE PUSH1 0x1 DUP3 ADD SWAP2 POP PUSH1 0x20 DUP6 ADD SWAP5 POP PUSH1 0x20 DUP2 ADD SWAP1 POP PUSH2 0xE68 JUMP JUMPDEST DUP7 DUP4 LT ISZERO PUSH2 0xEAA JUMPI DUP5 DUP10 ADD MLOAD PUSH2 0xEA6 PUSH1 0x1F DUP10 AND DUP3 PUSH2 0xDB9 JUMP JUMPDEST DUP4 SSTORE POP JUMPDEST PUSH1 0x1 PUSH1 0x2 DUP9 MUL ADD DUP9 SSTORE POP POP POP JUMPDEST POP POP POP POP POP POP JUMP INVALID LOG2 PUSH5 0x6970667358 0x22 SLT KECCAK256 DUP2 0xA6 DUP13 PUSH23 0x18464D6E07277D85D0820BE0A1C51AB5759E397BAB1E19 PUSH25 0xB1FE2A4164736F6C634300081A003300000000000000000000 "
				},
				"gasEstimates": {
					"creation": {
						"codeDepositCost": "765800",
						"executionCost": "797",
						"totalCost": "766597"
					},
					"external": {
						"addEvent(string,uint256)": "infinite",
						"getEventDetails(address)": "infinite",
						"getFullEvent(address)": "infinite"
					}
				},
				"methodIdentifiers": {
					"addEvent(string,uint256)": "f0e1691a",
					"getEventDetails(address)": "d43f036b",
					"getFullEvent(address)": "a64ee206"
				}
			},
			"storageLayout": {
				"storage": [
					{
						"astId": 18,
						"contract": "contracts/event_organization.sol:event_organization",
						"label": "events_map",
						"offset": 0,
						"slot": "0",
						"type": "t_mapping(t_address,t_struct(Event_Modal)13_storage)"
					}
				],
				"types": {
					"t_address": {
						"encoding": "inplace",
						"label": "address",
						"numberOfBytes": "20"
					},
					"t_array(t_struct(Event)8_storage)dyn_storage": {
						"base": "t_struct(Event)8_storage",
						"encoding": "dynamic_array",
						"label": "struct event_organization.Event[]",
						"numberOfBytes": "32"
					},
					"t_mapping(t_address,t_struct(Event_Modal)13_storage)": {
						"encoding": "mapping",
						"key": "t_address",
						"label": "mapping(address => struct event_organization.Event_Modal)",
						"numberOfBytes": "32",
						"value": "t_struct(Event_Modal)13_storage"
					},
					"t_string_storage": {
						"encoding": "bytes",
						"label": "string",
						"numberOfBytes": "32"
					},
					"t_struct(Event)8_storage": {
						"encoding": "inplace",
						"label": "struct event_organization.Event",
						"members": [
							{
								"astId": 3,
								"contract": "contracts/event_organization.sol:event_organization",
								"label": "name",
								"offset": 0,
								"slot": "0",
								"type": "t_string_storage"
							},
							{
								"astId": 5,
								"contract": "contracts/event_organization.sol:event_organization",
								"label": "organizer",
								"offset": 0,
								"slot": "1",
								"type": "t_address"
							},
							{
								"astId": 7,
								"contract": "contracts/event_organization.sol:event_organization",
								"label": "ticketPrice",
								"offset": 0,
								"slot": "2",
								"type": "t_uint256"
							}
						],
						"numberOfBytes": "96"
					},
					"t_struct(Event_Modal)13_storage": {
						"encoding": "inplace",
						"label": "struct event_organization.Event_Modal",
						"members": [
							{
								"astId": 12,
								"contract": "contracts/event_organization.sol:event_organization",
								"label": "EventsArray",
								"offset": 0,
								"slot": "0",
								"type": "t_array(t_struct(Event)8_storage)dyn_storage"
							}
						],
						"numberOfBytes": "32"
					},
					"t_uint256": {
						"encoding": "inplace",
						"label": "uint256",
						"numberOfBytes": "32"
					}
				}
			},
			"userdoc": {
				"kind": "user",
				"methods": {},
				"version": 1
			}
		}
	}
}