{
	"contracts/patient_database-management_Contract.sol": {
		"Patient_data_base": {
			"abi": [
				{
					"inputs": [
						{
							"internalType": "string",
							"name": "_Patient_Name",
							"type": "string"
						},
						{
							"internalType": "uint256",
							"name": "_Patient_Age",
							"type": "uint256"
						},
						{
							"internalType": "string",
							"name": "_Patient_appointment_type",
							"type": "string"
						}
					],
					"name": "addd_patient_data",
					"outputs": [],
					"stateMutability": "nonpayable",
					"type": "function"
				},
				{
					"inputs": [],
					"name": "getPatientData",
					"outputs": [
						{
							"components": [
								{
									"components": [
										{
											"internalType": "string",
											"name": "Patient_Name",
											"type": "string"
										},
										{
											"internalType": "uint256",
											"name": "Patient_Age",
											"type": "uint256"
										},
										{
											"internalType": "string",
											"name": "Patient_patient_appointment_type",
											"type": "string"
										}
									],
									"internalType": "struct Patient_data_base.PatientModel[]",
									"name": "patientData",
									"type": "tuple[]"
								}
							],
							"internalType": "struct Patient_data_base.MainpatientModel",
							"name": "",
							"type": "tuple"
						}
					],
					"stateMutability": "view",
					"type": "function"
				}
			],
			"devdoc": {
				"kind": "dev",
				"methods": {},
				"version": 1
			},
			"evm": {
				"assembly": "    /* \"contracts/patient_database-management_Contract.sol\":67:966  contract Patient_data_base{... */\n  mstore(0x40, 0x80)\n    /* \"contracts/patient_database-management_Contract.sol\":116:126  msg.sender */\n  caller\n    /* \"contracts/patient_database-management_Contract.sol\":100:126  address owner = msg.sender */\n  0x00\n  dup1\n  0x0100\n  exp\n  dup2\n  sload\n  dup2\n  0xffffffffffffffffffffffffffffffffffffffff\n  mul\n  not\n  and\n  swap1\n  dup4\n  0xffffffffffffffffffffffffffffffffffffffff\n  and\n  mul\n  or\n  swap1\n  sstore\n  pop\n    /* \"contracts/patient_database-management_Contract.sol\":67:966  contract Patient_data_base{... */\n  callvalue\n  dup1\n  iszero\n  tag_1\n  jumpi\n  0x00\n  dup1\n  revert\ntag_1:\n  pop\n  dataSize(sub_0)\n  dup1\n  dataOffset(sub_0)\n  0x00\n  codecopy\n  0x00\n  return\nstop\n\nsub_0: assembly {\n        /* \"contracts/patient_database-management_Contract.sol\":67:966  contract Patient_data_base{... */\n      mstore(0x40, 0x80)\n      callvalue\n      dup1\n      iszero\n      tag_1\n      jumpi\n      0x00\n      dup1\n      revert\n    tag_1:\n      pop\n      jumpi(tag_2, lt(calldatasize, 0x04))\n      shr(0xe0, calldataload(0x00))\n      dup1\n      0x4344b743\n      eq\n      tag_3\n      jumpi\n      dup1\n      0x60b659d5\n      eq\n      tag_4\n      jumpi\n    tag_2:\n      0x00\n      dup1\n      revert\n        /* \"contracts/patient_database-management_Contract.sol\":759:963  function getPatientData() public view returns(MainpatientModel memory){... */\n    tag_3:\n      tag_5\n      tag_6\n      jump\t// in\n    tag_5:\n      mload(0x40)\n      tag_7\n      swap2\n      swap1\n      tag_8\n      jump\t// in\n    tag_7:\n      mload(0x40)\n      dup1\n      swap2\n      sub\n      swap1\n      return\n        /* \"contracts/patient_database-management_Contract.sol\":445:751  function addd_patient_data(string memory _Patient_Name,uint _Patient_Age,string memory _Patient_appointment_type) public {... */\n    tag_4:\n      tag_9\n      0x04\n      dup1\n      calldatasize\n      sub\n      dup2\n      add\n      swap1\n      tag_10\n      swap2\n      swap1\n      tag_11\n      jump\t// in\n    tag_10:\n      tag_12\n      jump\t// in\n    tag_9:\n      stop\n        /* \"contracts/patient_database-management_Contract.sol\":759:963  function getPatientData() public view returns(MainpatientModel memory){... */\n    tag_6:\n        /* \"contracts/patient_database-management_Contract.sol\":805:828  MainpatientModel memory */\n      tag_13\n      tag_14\n      jump\t// in\n    tag_13:\n        /* \"contracts/patient_database-management_Contract.sol\":866:876  msg.sender */\n      caller\n        /* \"contracts/patient_database-management_Contract.sol\":857:876  owner == msg.sender */\n      0xffffffffffffffffffffffffffffffffffffffff\n      and\n        /* \"contracts/patient_database-management_Contract.sol\":857:862  owner */\n      0x00\n      dup1\n      sload\n      swap1\n      0x0100\n      exp\n      swap1\n      div\n      0xffffffffffffffffffffffffffffffffffffffff\n      and\n        /* \"contracts/patient_database-management_Contract.sol\":857:876  owner == msg.sender */\n      0xffffffffffffffffffffffffffffffffffffffff\n      and\n      eq\n        /* \"contracts/patient_database-management_Contract.sol\":849:911  require(owner == msg.sender ,\"You cannot access patient data\") */\n      tag_16\n      jumpi\n      mload(0x40)\n      0x08c379a000000000000000000000000000000000000000000000000000000000\n      dup2\n      mstore\n      0x04\n      add\n      tag_17\n      swap1\n      tag_18\n      jump\t// in\n    tag_17:\n      mload(0x40)\n      dup1\n      swap2\n      sub\n      swap1\n      revert\n    tag_16:\n        /* \"contracts/patient_database-management_Contract.sol\":933:943  patientMap */\n      0x01\n        /* \"contracts/patient_database-management_Contract.sol\":933:955  patientMap[msg.sender] */\n      0x00\n        /* \"contracts/patient_database-management_Contract.sol\":944:954  msg.sender */\n      caller\n        /* \"contracts/patient_database-management_Contract.sol\":933:955  patientMap[msg.sender] */\n      0xffffffffffffffffffffffffffffffffffffffff\n      and\n      0xffffffffffffffffffffffffffffffffffffffff\n      and\n      dup2\n      mstore\n      0x20\n      add\n      swap1\n      dup2\n      mstore\n      0x20\n      add\n      0x00\n      keccak256\n        /* \"contracts/patient_database-management_Contract.sol\":926:955  return patientMap[msg.sender] */\n      mload(0x40)\n      dup1\n      0x20\n      add\n      0x40\n      mstore\n      swap1\n      dup2\n      0x00\n      dup3\n      add\n      dup1\n      sload\n      dup1\n      0x20\n      mul\n      0x20\n      add\n      mload(0x40)\n      swap1\n      dup2\n      add\n      0x40\n      mstore\n      dup1\n      swap3\n      swap2\n      swap1\n      dup2\n      dup2\n      mstore\n      0x20\n      add\n      0x00\n      swap1\n    tag_19:\n      dup3\n      dup3\n      lt\n      iszero\n      tag_20\n      jumpi\n      dup4\n      dup3\n      swap1\n      0x00\n      mstore\n      keccak256(0x00, 0x20)\n      swap1\n      0x03\n      mul\n      add\n      mload(0x40)\n      dup1\n      0x60\n      add\n      0x40\n      mstore\n      swap1\n      dup2\n      0x00\n      dup3\n      add\n      dup1\n      sload\n      tag_22\n      swap1\n      tag_23\n      jump\t// in\n    tag_22:\n      dup1\n      0x1f\n      add\n      0x20\n      dup1\n      swap2\n      div\n      mul\n      0x20\n      add\n      mload(0x40)\n      swap1\n      dup2\n      add\n      0x40\n      mstore\n      dup1\n      swap3\n      swap2\n      swap1\n      dup2\n      dup2\n      mstore\n      0x20\n      add\n      dup3\n      dup1\n      sload\n      tag_24\n      swap1\n      tag_23\n      jump\t// in\n    tag_24:\n      dup1\n      iszero\n      tag_25\n      jumpi\n      dup1\n      0x1f\n      lt\n      tag_26\n      jumpi\n      0x0100\n      dup1\n      dup4\n      sload\n      div\n      mul\n      dup4\n      mstore\n      swap2\n      0x20\n      add\n      swap2\n      jump(tag_25)\n    tag_26:\n      dup3\n      add\n      swap2\n      swap1\n      0x00\n      mstore\n      keccak256(0x00, 0x20)\n      swap1\n    tag_27:\n      dup2\n      sload\n      dup2\n      mstore\n      swap1\n      0x01\n      add\n      swap1\n      0x20\n      add\n      dup1\n      dup4\n      gt\n      tag_27\n      jumpi\n      dup3\n      swap1\n      sub\n      0x1f\n      and\n      dup3\n      add\n      swap2\n    tag_25:\n      pop\n      pop\n      pop\n      pop\n      pop\n      dup2\n      mstore\n      0x20\n      add\n      0x01\n      dup3\n      add\n      sload\n      dup2\n      mstore\n      0x20\n      add\n      0x02\n      dup3\n      add\n      dup1\n      sload\n      tag_28\n      swap1\n      tag_23\n      jump\t// in\n    tag_28:\n      dup1\n      0x1f\n      add\n      0x20\n      dup1\n      swap2\n      div\n      mul\n      0x20\n      add\n      mload(0x40)\n      swap1\n      dup2\n      add\n      0x40\n      mstore\n      dup1\n      swap3\n      swap2\n      swap1\n      dup2\n      dup2\n      mstore\n      0x20\n      add\n      dup3\n      dup1\n      sload\n      tag_29\n      swap1\n      tag_23\n      jump\t// in\n    tag_29:\n      dup1\n      iszero\n      tag_30\n      jumpi\n      dup1\n      0x1f\n      lt\n      tag_31\n      jumpi\n      0x0100\n      dup1\n      dup4\n      sload\n      div\n      mul\n      dup4\n      mstore\n      swap2\n      0x20\n      add\n      swap2\n      jump(tag_30)\n    tag_31:\n      dup3\n      add\n      swap2\n      swap1\n      0x00\n      mstore\n      keccak256(0x00, 0x20)\n      swap1\n    tag_32:\n      dup2\n      sload\n      dup2\n      mstore\n      swap1\n      0x01\n      add\n      swap1\n      0x20\n      add\n      dup1\n      dup4\n      gt\n      tag_32\n      jumpi\n      dup3\n      swap1\n      sub\n      0x1f\n      and\n      dup3\n      add\n      swap2\n    tag_30:\n      pop\n      pop\n      pop\n      pop\n      pop\n      dup2\n      mstore\n      pop\n      pop\n      dup2\n      mstore\n      0x20\n      add\n      swap1\n      0x01\n      add\n      swap1\n      jump(tag_19)\n    tag_20:\n      pop\n      pop\n      pop\n      pop\n      dup2\n      mstore\n      pop\n      pop\n      swap1\n      pop\n        /* \"contracts/patient_database-management_Contract.sol\":759:963  function getPatientData() public view returns(MainpatientModel memory){... */\n      swap1\n      jump\t// out\n        /* \"contracts/patient_database-management_Contract.sol\":445:751  function addd_patient_data(string memory _Patient_Name,uint _Patient_Age,string memory _Patient_appointment_type) public {... */\n    tag_12:\n        /* \"contracts/patient_database-management_Contract.sol\":577:609  PatientModel memory patientModel */\n      0x00\n        /* \"contracts/patient_database-management_Contract.sol\":612:679  PatientModel(_Patient_Name, _Patient_Age,_Patient_appointment_type) */\n      mload(0x40)\n      dup1\n      0x60\n      add\n      0x40\n      mstore\n      dup1\n        /* \"contracts/patient_database-management_Contract.sol\":625:638  _Patient_Name */\n      dup6\n        /* \"contracts/patient_database-management_Contract.sol\":612:679  PatientModel(_Patient_Name, _Patient_Age,_Patient_appointment_type) */\n      dup2\n      mstore\n      0x20\n      add\n        /* \"contracts/patient_database-management_Contract.sol\":640:652  _Patient_Age */\n      dup5\n        /* \"contracts/patient_database-management_Contract.sol\":612:679  PatientModel(_Patient_Name, _Patient_Age,_Patient_appointment_type) */\n      dup2\n      mstore\n      0x20\n      add\n        /* \"contracts/patient_database-management_Contract.sol\":653:678  _Patient_appointment_type */\n      dup4\n        /* \"contracts/patient_database-management_Contract.sol\":612:679  PatientModel(_Patient_Name, _Patient_Age,_Patient_appointment_type) */\n      dup2\n      mstore\n      pop\n        /* \"contracts/patient_database-management_Contract.sol\":577:679  PatientModel memory patientModel = PatientModel(_Patient_Name, _Patient_Age,_Patient_appointment_type) */\n      swap1\n      pop\n        /* \"contracts/patient_database-management_Contract.sol\":690:700  patientMap */\n      0x01\n        /* \"contracts/patient_database-management_Contract.sol\":690:712  patientMap[msg.sender] */\n      0x00\n        /* \"contracts/patient_database-management_Contract.sol\":701:711  msg.sender */\n      caller\n        /* \"contracts/patient_database-management_Contract.sol\":690:712  patientMap[msg.sender] */\n      0xffffffffffffffffffffffffffffffffffffffff\n      and\n      0xffffffffffffffffffffffffffffffffffffffff\n      and\n      dup2\n      mstore\n      0x20\n      add\n      swap1\n      dup2\n      mstore\n      0x20\n      add\n      0x00\n      keccak256\n        /* \"contracts/patient_database-management_Contract.sol\":690:724  patientMap[msg.sender].patientData */\n      0x00\n      add\n        /* \"contracts/patient_database-management_Contract.sol\":730:742  patientModel */\n      dup2\n        /* \"contracts/patient_database-management_Contract.sol\":690:743  patientMap[msg.sender].patientData.push(patientModel) */\n      swap1\n      dup1\n      0x01\n      dup2\n      sload\n      add\n      dup1\n      dup3\n      sstore\n      dup1\n      swap2\n      pop\n      pop\n      0x01\n      swap1\n      sub\n      swap1\n      0x00\n      mstore\n      keccak256(0x00, 0x20)\n      swap1\n      0x03\n      mul\n      add\n      0x00\n      swap1\n      swap2\n      swap1\n      swap2\n      swap1\n      swap2\n      pop\n      0x00\n      dup3\n      add\n      mload\n      dup2\n      0x00\n      add\n      swap1\n      dup2\n      tag_35\n      swap2\n      swap1\n      tag_36\n      jump\t// in\n    tag_35:\n      pop\n      0x20\n      dup3\n      add\n      mload\n      dup2\n      0x01\n      add\n      sstore\n      0x40\n      dup3\n      add\n      mload\n      dup2\n      0x02\n      add\n      swap1\n      dup2\n      tag_37\n      swap2\n      swap1\n      tag_36\n      jump\t// in\n    tag_37:\n      pop\n      pop\n      pop\n        /* \"contracts/patient_database-management_Contract.sol\":566:751  {... */\n      pop\n        /* \"contracts/patient_database-management_Contract.sol\":445:751  function addd_patient_data(string memory _Patient_Name,uint _Patient_Age,string memory _Patient_appointment_type) public {... */\n      pop\n      pop\n      pop\n      jump\t// out\n    tag_14:\n      mload(0x40)\n      dup1\n      0x20\n      add\n      0x40\n      mstore\n      dup1\n      0x60\n      dup2\n      mstore\n      pop\n      swap1\n      jump\t// out\n        /* \"#utility.yul\":7:149   */\n    tag_38:\n        /* \"#utility.yul\":102:108   */\n      0x00\n        /* \"#utility.yul\":136:141   */\n      dup2\n        /* \"#utility.yul\":130:142   */\n      mload\n        /* \"#utility.yul\":120:142   */\n      swap1\n      pop\n        /* \"#utility.yul\":7:149   */\n      swap2\n      swap1\n      pop\n      jump\t// out\n        /* \"#utility.yul\":155:357   */\n    tag_39:\n        /* \"#utility.yul\":272:283   */\n      0x00\n        /* \"#utility.yul\":306:312   */\n      dup3\n        /* \"#utility.yul\":301:304   */\n      dup3\n        /* \"#utility.yul\":294:313   */\n      mstore\n        /* \"#utility.yul\":346:350   */\n      0x20\n        /* \"#utility.yul\":341:344   */\n      dup3\n        /* \"#utility.yul\":337:351   */\n      add\n        /* \"#utility.yul\":322:351   */\n      swap1\n      pop\n        /* \"#utility.yul\":155:357   */\n      swap3\n      swap2\n      pop\n      pop\n      jump\t// out\n        /* \"#utility.yul\":363:523   */\n    tag_40:\n        /* \"#utility.yul\":458:462   */\n      0x00\n        /* \"#utility.yul\":481:484   */\n      dup2\n        /* \"#utility.yul\":473:484   */\n      swap1\n      pop\n        /* \"#utility.yul\":511:515   */\n      0x20\n        /* \"#utility.yul\":506:509   */\n      dup3\n        /* \"#utility.yul\":502:516   */\n      add\n        /* \"#utility.yul\":494:516   */\n      swap1\n      pop\n        /* \"#utility.yul\":363:523   */\n      swap2\n      swap1\n      pop\n      jump\t// out\n        /* \"#utility.yul\":529:628   */\n    tag_41:\n        /* \"#utility.yul\":581:587   */\n      0x00\n        /* \"#utility.yul\":615:620   */\n      dup2\n        /* \"#utility.yul\":609:621   */\n      mload\n        /* \"#utility.yul\":599:621   */\n      swap1\n      pop\n        /* \"#utility.yul\":529:628   */\n      swap2\n      swap1\n      pop\n      jump\t// out\n        /* \"#utility.yul\":634:793   */\n    tag_42:\n        /* \"#utility.yul\":708:719   */\n      0x00\n        /* \"#utility.yul\":742:748   */\n      dup3\n        /* \"#utility.yul\":737:740   */\n      dup3\n        /* \"#utility.yul\":730:749   */\n      mstore\n        /* \"#utility.yul\":782:786   */\n      0x20\n        /* \"#utility.yul\":777:780   */\n      dup3\n        /* \"#utility.yul\":773:787   */\n      add\n        /* \"#utility.yul\":758:787   */\n      swap1\n      pop\n        /* \"#utility.yul\":634:793   */\n      swap3\n      swap2\n      pop\n      pop\n      jump\t// out\n        /* \"#utility.yul\":799:938   */\n    tag_43:\n        /* \"#utility.yul\":888:894   */\n      dup3\n        /* \"#utility.yul\":883:886   */\n      dup2\n        /* \"#utility.yul\":878:881   */\n      dup4\n        /* \"#utility.yul\":872:895   */\n      mcopy\n        /* \"#utility.yul\":929:930   */\n      0x00\n        /* \"#utility.yul\":920:926   */\n      dup4\n        /* \"#utility.yul\":915:918   */\n      dup4\n        /* \"#utility.yul\":911:927   */\n      add\n        /* \"#utility.yul\":904:931   */\n      mstore\n        /* \"#utility.yul\":799:938   */\n      pop\n      pop\n      pop\n      jump\t// out\n        /* \"#utility.yul\":944:1046   */\n    tag_44:\n        /* \"#utility.yul\":985:991   */\n      0x00\n        /* \"#utility.yul\":1036:1038   */\n      0x1f\n        /* \"#utility.yul\":1032:1039   */\n      not\n        /* \"#utility.yul\":1027:1029   */\n      0x1f\n        /* \"#utility.yul\":1020:1025   */\n      dup4\n        /* \"#utility.yul\":1016:1030   */\n      add\n        /* \"#utility.yul\":1012:1040   */\n      and\n        /* \"#utility.yul\":1002:1040   */\n      swap1\n      pop\n        /* \"#utility.yul\":944:1046   */\n      swap2\n      swap1\n      pop\n      jump\t// out\n        /* \"#utility.yul\":1052:1409   */\n    tag_45:\n        /* \"#utility.yul\":1130:1133   */\n      0x00\n        /* \"#utility.yul\":1158:1197   */\n      tag_95\n        /* \"#utility.yul\":1191:1196   */\n      dup3\n        /* \"#utility.yul\":1158:1197   */\n      tag_41\n      jump\t// in\n    tag_95:\n        /* \"#utility.yul\":1213:1274   */\n      tag_96\n        /* \"#utility.yul\":1267:1273   */\n      dup2\n        /* \"#utility.yul\":1262:1265   */\n      dup6\n        /* \"#utility.yul\":1213:1274   */\n      tag_42\n      jump\t// in\n    tag_96:\n        /* \"#utility.yul\":1206:1274   */\n      swap4\n      pop\n        /* \"#utility.yul\":1283:1348   */\n      tag_97\n        /* \"#utility.yul\":1341:1347   */\n      dup2\n        /* \"#utility.yul\":1336:1339   */\n      dup6\n        /* \"#utility.yul\":1329:1333   */\n      0x20\n        /* \"#utility.yul\":1322:1327   */\n      dup7\n        /* \"#utility.yul\":1318:1334   */\n      add\n        /* \"#utility.yul\":1283:1348   */\n      tag_43\n      jump\t// in\n    tag_97:\n        /* \"#utility.yul\":1373:1402   */\n      tag_98\n        /* \"#utility.yul\":1395:1401   */\n      dup2\n        /* \"#utility.yul\":1373:1402   */\n      tag_44\n      jump\t// in\n    tag_98:\n        /* \"#utility.yul\":1368:1371   */\n      dup5\n        /* \"#utility.yul\":1364:1403   */\n      add\n        /* \"#utility.yul\":1357:1403   */\n      swap2\n      pop\n        /* \"#utility.yul\":1134:1409   */\n      pop\n        /* \"#utility.yul\":1052:1409   */\n      swap3\n      swap2\n      pop\n      pop\n      jump\t// out\n        /* \"#utility.yul\":1415:1492   */\n    tag_46:\n        /* \"#utility.yul\":1452:1459   */\n      0x00\n        /* \"#utility.yul\":1481:1486   */\n      dup2\n        /* \"#utility.yul\":1470:1486   */\n      swap1\n      pop\n        /* \"#utility.yul\":1415:1492   */\n      swap2\n      swap1\n      pop\n      jump\t// out\n        /* \"#utility.yul\":1498:1606   */\n    tag_47:\n        /* \"#utility.yul\":1575:1599   */\n      tag_101\n        /* \"#utility.yul\":1593:1598   */\n      dup2\n        /* \"#utility.yul\":1575:1599   */\n      tag_46\n      jump\t// in\n    tag_101:\n        /* \"#utility.yul\":1570:1573   */\n      dup3\n        /* \"#utility.yul\":1563:1600   */\n      mstore\n        /* \"#utility.yul\":1498:1606   */\n      pop\n      pop\n      jump\t// out\n        /* \"#utility.yul\":1698:2588   */\n    tag_48:\n        /* \"#utility.yul\":1813:1816   */\n      0x00\n        /* \"#utility.yul\":1849:1853   */\n      0x60\n        /* \"#utility.yul\":1844:1847   */\n      dup4\n        /* \"#utility.yul\":1840:1854   */\n      add\n        /* \"#utility.yul\":1944:1948   */\n      0x00\n        /* \"#utility.yul\":1937:1942   */\n      dup4\n        /* \"#utility.yul\":1933:1949   */\n      add\n        /* \"#utility.yul\":1927:1950   */\n      mload\n        /* \"#utility.yul\":1997:2000   */\n      dup5\n        /* \"#utility.yul\":1991:1995   */\n      dup3\n        /* \"#utility.yul\":1987:2001   */\n      sub\n        /* \"#utility.yul\":1980:1984   */\n      0x00\n        /* \"#utility.yul\":1975:1978   */\n      dup7\n        /* \"#utility.yul\":1971:1985   */\n      add\n        /* \"#utility.yul\":1964:2002   */\n      mstore\n        /* \"#utility.yul\":2023:2096   */\n      tag_103\n        /* \"#utility.yul\":2091:2095   */\n      dup3\n        /* \"#utility.yul\":2077:2089   */\n      dup3\n        /* \"#utility.yul\":2023:2096   */\n      tag_45\n      jump\t// in\n    tag_103:\n        /* \"#utility.yul\":2015:2096   */\n      swap2\n      pop\n        /* \"#utility.yul\":1864:2107   */\n      pop\n        /* \"#utility.yul\":2196:2200   */\n      0x20\n        /* \"#utility.yul\":2189:2194   */\n      dup4\n        /* \"#utility.yul\":2185:2201   */\n      add\n        /* \"#utility.yul\":2179:2202   */\n      mload\n        /* \"#utility.yul\":2215:2278   */\n      tag_104\n        /* \"#utility.yul\":2272:2276   */\n      0x20\n        /* \"#utility.yul\":2267:2270   */\n      dup7\n        /* \"#utility.yul\":2263:2277   */\n      add\n        /* \"#utility.yul\":2249:2261   */\n      dup3\n        /* \"#utility.yul\":2215:2278   */\n      tag_47\n      jump\t// in\n    tag_104:\n        /* \"#utility.yul\":2117:2288   */\n      pop\n        /* \"#utility.yul\":2398:2402   */\n      0x40\n        /* \"#utility.yul\":2391:2396   */\n      dup4\n        /* \"#utility.yul\":2387:2403   */\n      add\n        /* \"#utility.yul\":2381:2404   */\n      mload\n        /* \"#utility.yul\":2451:2454   */\n      dup5\n        /* \"#utility.yul\":2445:2449   */\n      dup3\n        /* \"#utility.yul\":2441:2455   */\n      sub\n        /* \"#utility.yul\":2434:2438   */\n      0x40\n        /* \"#utility.yul\":2429:2432   */\n      dup7\n        /* \"#utility.yul\":2425:2439   */\n      add\n        /* \"#utility.yul\":2418:2456   */\n      mstore\n        /* \"#utility.yul\":2477:2550   */\n      tag_105\n        /* \"#utility.yul\":2545:2549   */\n      dup3\n        /* \"#utility.yul\":2531:2543   */\n      dup3\n        /* \"#utility.yul\":2477:2550   */\n      tag_45\n      jump\t// in\n    tag_105:\n        /* \"#utility.yul\":2469:2550   */\n      swap2\n      pop\n        /* \"#utility.yul\":2298:2561   */\n      pop\n        /* \"#utility.yul\":2578:2582   */\n      dup1\n        /* \"#utility.yul\":2571:2582   */\n      swap2\n      pop\n        /* \"#utility.yul\":1818:2588   */\n      pop\n        /* \"#utility.yul\":1698:2588   */\n      swap3\n      swap2\n      pop\n      pop\n      jump\t// out\n        /* \"#utility.yul\":2594:2862   */\n    tag_49:\n        /* \"#utility.yul\":2719:2729   */\n      0x00\n        /* \"#utility.yul\":2754:2856   */\n      tag_107\n        /* \"#utility.yul\":2852:2855   */\n      dup4\n        /* \"#utility.yul\":2844:2850   */\n      dup4\n        /* \"#utility.yul\":2754:2856   */\n      tag_48\n      jump\t// in\n    tag_107:\n        /* \"#utility.yul\":2740:2856   */\n      swap1\n      pop\n        /* \"#utility.yul\":2594:2862   */\n      swap3\n      swap2\n      pop\n      pop\n      jump\t// out\n        /* \"#utility.yul\":2868:3009   */\n    tag_50:\n        /* \"#utility.yul\":2966:2970   */\n      0x00\n        /* \"#utility.yul\":2998:3002   */\n      0x20\n        /* \"#utility.yul\":2993:2996   */\n      dup3\n        /* \"#utility.yul\":2989:3003   */\n      add\n        /* \"#utility.yul\":2981:3003   */\n      swap1\n      pop\n        /* \"#utility.yul\":2868:3009   */\n      swap2\n      swap1\n      pop\n      jump\t// out\n        /* \"#utility.yul\":3105:4220   */\n    tag_51:\n        /* \"#utility.yul\":3270:3273   */\n      0x00\n        /* \"#utility.yul\":3299:3381   */\n      tag_110\n        /* \"#utility.yul\":3375:3380   */\n      dup3\n        /* \"#utility.yul\":3299:3381   */\n      tag_38\n      jump\t// in\n    tag_110:\n        /* \"#utility.yul\":3397:3501   */\n      tag_111\n        /* \"#utility.yul\":3494:3500   */\n      dup2\n        /* \"#utility.yul\":3489:3492   */\n      dup6\n        /* \"#utility.yul\":3397:3501   */\n      tag_39\n      jump\t// in\n    tag_111:\n        /* \"#utility.yul\":3390:3501   */\n      swap4\n      pop\n        /* \"#utility.yul\":3527:3530   */\n      dup4\n        /* \"#utility.yul\":3572:3576   */\n      0x20\n        /* \"#utility.yul\":3564:3570   */\n      dup3\n        /* \"#utility.yul\":3560:3577   */\n      mul\n        /* \"#utility.yul\":3555:3558   */\n      dup6\n        /* \"#utility.yul\":3551:3578   */\n      add\n        /* \"#utility.yul\":3602:3686   */\n      tag_112\n        /* \"#utility.yul\":3680:3685   */\n      dup6\n        /* \"#utility.yul\":3602:3686   */\n      tag_40\n      jump\t// in\n    tag_112:\n        /* \"#utility.yul\":3709:3716   */\n      dup1\n        /* \"#utility.yul\":3740:3741   */\n      0x00\n        /* \"#utility.yul\":3725:4175   */\n    tag_113:\n        /* \"#utility.yul\":3750:3756   */\n      dup6\n        /* \"#utility.yul\":3747:3748   */\n      dup2\n        /* \"#utility.yul\":3744:3757   */\n      lt\n        /* \"#utility.yul\":3725:4175   */\n      iszero\n      tag_115\n      jumpi\n        /* \"#utility.yul\":3821:3830   */\n      dup5\n        /* \"#utility.yul\":3815:3819   */\n      dup5\n        /* \"#utility.yul\":3811:3831   */\n      sub\n        /* \"#utility.yul\":3806:3809   */\n      dup10\n        /* \"#utility.yul\":3799:3832   */\n      mstore\n        /* \"#utility.yul\":3872:3878   */\n      dup2\n        /* \"#utility.yul\":3866:3879   */\n      mload\n        /* \"#utility.yul\":3900:4020   */\n      tag_116\n        /* \"#utility.yul\":4015:4019   */\n      dup6\n        /* \"#utility.yul\":4000:4013   */\n      dup3\n        /* \"#utility.yul\":3900:4020   */\n      tag_49\n      jump\t// in\n    tag_116:\n        /* \"#utility.yul\":3892:4020   */\n      swap5\n      pop\n        /* \"#utility.yul\":4043:4131   */\n      tag_117\n        /* \"#utility.yul\":4124:4130   */\n      dup4\n        /* \"#utility.yul\":4043:4131   */\n      tag_50\n      jump\t// in\n    tag_117:\n        /* \"#utility.yul\":4033:4131   */\n      swap3\n      pop\n        /* \"#utility.yul\":4160:4164   */\n      0x20\n        /* \"#utility.yul\":4155:4158   */\n      dup11\n        /* \"#utility.yul\":4151:4165   */\n      add\n        /* \"#utility.yul\":4144:4165   */\n      swap10\n      pop\n        /* \"#utility.yul\":3785:4175   */\n      pop\n        /* \"#utility.yul\":3772:3773   */\n      0x01\n        /* \"#utility.yul\":3769:3770   */\n      dup2\n        /* \"#utility.yul\":3765:3774   */\n      add\n        /* \"#utility.yul\":3760:3774   */\n      swap1\n      pop\n        /* \"#utility.yul\":3725:4175   */\n      jump(tag_113)\n    tag_115:\n        /* \"#utility.yul\":3729:3743   */\n      pop\n        /* \"#utility.yul\":4191:4195   */\n      dup3\n        /* \"#utility.yul\":4184:4195   */\n      swap8\n      pop\n        /* \"#utility.yul\":4211:4214   */\n      dup8\n        /* \"#utility.yul\":4204:4214   */\n      swap6\n      pop\n        /* \"#utility.yul\":3275:4220   */\n      pop\n      pop\n      pop\n      pop\n      pop\n        /* \"#utility.yul\":3105:4220   */\n      swap3\n      swap2\n      pop\n      pop\n      jump\t// out\n        /* \"#utility.yul\":4320:4859   */\n    tag_52:\n        /* \"#utility.yul\":4453:4456   */\n      0x00\n        /* \"#utility.yul\":4489:4493   */\n      0x20\n        /* \"#utility.yul\":4484:4487   */\n      dup4\n        /* \"#utility.yul\":4480:4494   */\n      add\n        /* \"#utility.yul\":4583:4587   */\n      0x00\n        /* \"#utility.yul\":4576:4581   */\n      dup4\n        /* \"#utility.yul\":4572:4588   */\n      add\n        /* \"#utility.yul\":4566:4589   */\n      mload\n        /* \"#utility.yul\":4636:4639   */\n      dup5\n        /* \"#utility.yul\":4630:4634   */\n      dup3\n        /* \"#utility.yul\":4626:4640   */\n      sub\n        /* \"#utility.yul\":4619:4623   */\n      0x00\n        /* \"#utility.yul\":4614:4617   */\n      dup7\n        /* \"#utility.yul\":4610:4624   */\n      add\n        /* \"#utility.yul\":4603:4641   */\n      mstore\n        /* \"#utility.yul\":4662:4821   */\n      tag_119\n        /* \"#utility.yul\":4816:4820   */\n      dup3\n        /* \"#utility.yul\":4802:4814   */\n      dup3\n        /* \"#utility.yul\":4662:4821   */\n      tag_51\n      jump\t// in\n    tag_119:\n        /* \"#utility.yul\":4654:4821   */\n      swap2\n      pop\n        /* \"#utility.yul\":4504:4832   */\n      pop\n        /* \"#utility.yul\":4849:4853   */\n      dup1\n        /* \"#utility.yul\":4842:4853   */\n      swap2\n      pop\n        /* \"#utility.yul\":4458:4859   */\n      pop\n        /* \"#utility.yul\":4320:4859   */\n      swap3\n      swap2\n      pop\n      pop\n      jump\t// out\n        /* \"#utility.yul\":4865:5266   */\n    tag_8:\n        /* \"#utility.yul\":5022:5026   */\n      0x00\n        /* \"#utility.yul\":5060:5062   */\n      0x20\n        /* \"#utility.yul\":5049:5058   */\n      dup3\n        /* \"#utility.yul\":5045:5063   */\n      add\n        /* \"#utility.yul\":5037:5063   */\n      swap1\n      pop\n        /* \"#utility.yul\":5109:5118   */\n      dup2\n        /* \"#utility.yul\":5103:5107   */\n      dup2\n        /* \"#utility.yul\":5099:5119   */\n      sub\n        /* \"#utility.yul\":5095:5096   */\n      0x00\n        /* \"#utility.yul\":5084:5093   */\n      dup4\n        /* \"#utility.yul\":5080:5097   */\n      add\n        /* \"#utility.yul\":5073:5120   */\n      mstore\n        /* \"#utility.yul\":5137:5259   */\n      tag_121\n        /* \"#utility.yul\":5254:5258   */\n      dup2\n        /* \"#utility.yul\":5245:5251   */\n      dup5\n        /* \"#utility.yul\":5137:5259   */\n      tag_52\n      jump\t// in\n    tag_121:\n        /* \"#utility.yul\":5129:5259   */\n      swap1\n      pop\n        /* \"#utility.yul\":4865:5266   */\n      swap3\n      swap2\n      pop\n      pop\n      jump\t// out\n        /* \"#utility.yul\":5272:5347   */\n    tag_53:\n        /* \"#utility.yul\":5305:5311   */\n      0x00\n        /* \"#utility.yul\":5338:5340   */\n      0x40\n        /* \"#utility.yul\":5332:5341   */\n      mload\n        /* \"#utility.yul\":5322:5341   */\n      swap1\n      pop\n        /* \"#utility.yul\":5272:5347   */\n      swap1\n      jump\t// out\n        /* \"#utility.yul\":5353:5470   */\n    tag_54:\n        /* \"#utility.yul\":5462:5463   */\n      0x00\n        /* \"#utility.yul\":5459:5460   */\n      dup1\n        /* \"#utility.yul\":5452:5464   */\n      revert\n        /* \"#utility.yul\":5476:5593   */\n    tag_55:\n        /* \"#utility.yul\":5585:5586   */\n      0x00\n        /* \"#utility.yul\":5582:5583   */\n      dup1\n        /* \"#utility.yul\":5575:5587   */\n      revert\n        /* \"#utility.yul\":5599:5716   */\n    tag_56:\n        /* \"#utility.yul\":5708:5709   */\n      0x00\n        /* \"#utility.yul\":5705:5706   */\n      dup1\n        /* \"#utility.yul\":5698:5710   */\n      revert\n        /* \"#utility.yul\":5722:5839   */\n    tag_57:\n        /* \"#utility.yul\":5831:5832   */\n      0x00\n        /* \"#utility.yul\":5828:5829   */\n      dup1\n        /* \"#utility.yul\":5821:5833   */\n      revert\n        /* \"#utility.yul\":5845:6025   */\n    tag_58:\n        /* \"#utility.yul\":5893:5970   */\n      0x4e487b7100000000000000000000000000000000000000000000000000000000\n        /* \"#utility.yul\":5890:5891   */\n      0x00\n        /* \"#utility.yul\":5883:5971   */\n      mstore\n        /* \"#utility.yul\":5990:5994   */\n      0x41\n        /* \"#utility.yul\":5987:5988   */\n      0x04\n        /* \"#utility.yul\":5980:5995   */\n      mstore\n        /* \"#utility.yul\":6014:6018   */\n      0x24\n        /* \"#utility.yul\":6011:6012   */\n      0x00\n        /* \"#utility.yul\":6004:6019   */\n      revert\n        /* \"#utility.yul\":6031:6312   */\n    tag_59:\n        /* \"#utility.yul\":6114:6141   */\n      tag_129\n        /* \"#utility.yul\":6136:6140   */\n      dup3\n        /* \"#utility.yul\":6114:6141   */\n      tag_44\n      jump\t// in\n    tag_129:\n        /* \"#utility.yul\":6106:6112   */\n      dup2\n        /* \"#utility.yul\":6102:6142   */\n      add\n        /* \"#utility.yul\":6244:6250   */\n      dup2\n        /* \"#utility.yul\":6232:6242   */\n      dup2\n        /* \"#utility.yul\":6229:6251   */\n      lt\n        /* \"#utility.yul\":6208:6226   */\n      0xffffffffffffffff\n        /* \"#utility.yul\":6196:6206   */\n      dup3\n        /* \"#utility.yul\":6193:6227   */\n      gt\n        /* \"#utility.yul\":6190:6252   */\n      or\n        /* \"#utility.yul\":6187:6275   */\n      iszero\n      tag_130\n      jumpi\n        /* \"#utility.yul\":6255:6273   */\n      tag_131\n      tag_58\n      jump\t// in\n    tag_131:\n        /* \"#utility.yul\":6187:6275   */\n    tag_130:\n        /* \"#utility.yul\":6295:6305   */\n      dup1\n        /* \"#utility.yul\":6291:6293   */\n      0x40\n        /* \"#utility.yul\":6284:6306   */\n      mstore\n        /* \"#utility.yul\":6074:6312   */\n      pop\n        /* \"#utility.yul\":6031:6312   */\n      pop\n      pop\n      jump\t// out\n        /* \"#utility.yul\":6318:6447   */\n    tag_60:\n        /* \"#utility.yul\":6352:6358   */\n      0x00\n        /* \"#utility.yul\":6379:6399   */\n      tag_133\n      tag_53\n      jump\t// in\n    tag_133:\n        /* \"#utility.yul\":6369:6399   */\n      swap1\n      pop\n        /* \"#utility.yul\":6408:6441   */\n      tag_134\n        /* \"#utility.yul\":6436:6440   */\n      dup3\n        /* \"#utility.yul\":6428:6434   */\n      dup3\n        /* \"#utility.yul\":6408:6441   */\n      tag_59\n      jump\t// in\n    tag_134:\n        /* \"#utility.yul\":6318:6447   */\n      swap2\n      swap1\n      pop\n      jump\t// out\n        /* \"#utility.yul\":6453:6761   */\n    tag_61:\n        /* \"#utility.yul\":6515:6519   */\n      0x00\n        /* \"#utility.yul\":6605:6623   */\n      0xffffffffffffffff\n        /* \"#utility.yul\":6597:6603   */\n      dup3\n        /* \"#utility.yul\":6594:6624   */\n      gt\n        /* \"#utility.yul\":6591:6647   */\n      iszero\n      tag_136\n      jumpi\n        /* \"#utility.yul\":6627:6645   */\n      tag_137\n      tag_58\n      jump\t// in\n    tag_137:\n        /* \"#utility.yul\":6591:6647   */\n    tag_136:\n        /* \"#utility.yul\":6665:6694   */\n      tag_138\n        /* \"#utility.yul\":6687:6693   */\n      dup3\n        /* \"#utility.yul\":6665:6694   */\n      tag_44\n      jump\t// in\n    tag_138:\n        /* \"#utility.yul\":6657:6694   */\n      swap1\n      pop\n        /* \"#utility.yul\":6749:6753   */\n      0x20\n        /* \"#utility.yul\":6743:6747   */\n      dup2\n        /* \"#utility.yul\":6739:6754   */\n      add\n        /* \"#utility.yul\":6731:6754   */\n      swap1\n      pop\n        /* \"#utility.yul\":6453:6761   */\n      swap2\n      swap1\n      pop\n      jump\t// out\n        /* \"#utility.yul\":6767:6915   */\n    tag_62:\n        /* \"#utility.yul\":6865:6871   */\n      dup3\n        /* \"#utility.yul\":6860:6863   */\n      dup2\n        /* \"#utility.yul\":6855:6858   */\n      dup4\n        /* \"#utility.yul\":6842:6872   */\n      calldatacopy\n        /* \"#utility.yul\":6906:6907   */\n      0x00\n        /* \"#utility.yul\":6897:6903   */\n      dup4\n        /* \"#utility.yul\":6892:6895   */\n      dup4\n        /* \"#utility.yul\":6888:6904   */\n      add\n        /* \"#utility.yul\":6881:6908   */\n      mstore\n        /* \"#utility.yul\":6767:6915   */\n      pop\n      pop\n      pop\n      jump\t// out\n        /* \"#utility.yul\":6921:7346   */\n    tag_63:\n        /* \"#utility.yul\":6999:7004   */\n      0x00\n        /* \"#utility.yul\":7024:7090   */\n      tag_141\n        /* \"#utility.yul\":7040:7089   */\n      tag_142\n        /* \"#utility.yul\":7082:7088   */\n      dup5\n        /* \"#utility.yul\":7040:7089   */\n      tag_61\n      jump\t// in\n    tag_142:\n        /* \"#utility.yul\":7024:7090   */\n      tag_60\n      jump\t// in\n    tag_141:\n        /* \"#utility.yul\":7015:7090   */\n      swap1\n      pop\n        /* \"#utility.yul\":7113:7119   */\n      dup3\n        /* \"#utility.yul\":7106:7111   */\n      dup2\n        /* \"#utility.yul\":7099:7120   */\n      mstore\n        /* \"#utility.yul\":7151:7155   */\n      0x20\n        /* \"#utility.yul\":7144:7149   */\n      dup2\n        /* \"#utility.yul\":7140:7156   */\n      add\n        /* \"#utility.yul\":7189:7192   */\n      dup5\n        /* \"#utility.yul\":7180:7186   */\n      dup5\n        /* \"#utility.yul\":7175:7178   */\n      dup5\n        /* \"#utility.yul\":7171:7187   */\n      add\n        /* \"#utility.yul\":7168:7193   */\n      gt\n        /* \"#utility.yul\":7165:7277   */\n      iszero\n      tag_143\n      jumpi\n        /* \"#utility.yul\":7196:7275   */\n      tag_144\n      tag_57\n      jump\t// in\n    tag_144:\n        /* \"#utility.yul\":7165:7277   */\n    tag_143:\n        /* \"#utility.yul\":7286:7340   */\n      tag_145\n        /* \"#utility.yul\":7333:7339   */\n      dup5\n        /* \"#utility.yul\":7328:7331   */\n      dup3\n        /* \"#utility.yul\":7323:7326   */\n      dup6\n        /* \"#utility.yul\":7286:7340   */\n      tag_62\n      jump\t// in\n    tag_145:\n        /* \"#utility.yul\":7005:7346   */\n      pop\n        /* \"#utility.yul\":6921:7346   */\n      swap4\n      swap3\n      pop\n      pop\n      pop\n      jump\t// out\n        /* \"#utility.yul\":7366:7706   */\n    tag_64:\n        /* \"#utility.yul\":7422:7427   */\n      0x00\n        /* \"#utility.yul\":7471:7474   */\n      dup3\n        /* \"#utility.yul\":7464:7468   */\n      0x1f\n        /* \"#utility.yul\":7456:7462   */\n      dup4\n        /* \"#utility.yul\":7452:7469   */\n      add\n        /* \"#utility.yul\":7448:7475   */\n      slt\n        /* \"#utility.yul\":7438:7560   */\n      tag_147\n      jumpi\n        /* \"#utility.yul\":7479:7558   */\n      tag_148\n      tag_56\n      jump\t// in\n    tag_148:\n        /* \"#utility.yul\":7438:7560   */\n    tag_147:\n        /* \"#utility.yul\":7596:7602   */\n      dup2\n        /* \"#utility.yul\":7583:7603   */\n      calldataload\n        /* \"#utility.yul\":7621:7700   */\n      tag_149\n        /* \"#utility.yul\":7696:7699   */\n      dup5\n        /* \"#utility.yul\":7688:7694   */\n      dup3\n        /* \"#utility.yul\":7681:7685   */\n      0x20\n        /* \"#utility.yul\":7673:7679   */\n      dup7\n        /* \"#utility.yul\":7669:7686   */\n      add\n        /* \"#utility.yul\":7621:7700   */\n      tag_63\n      jump\t// in\n    tag_149:\n        /* \"#utility.yul\":7612:7700   */\n      swap2\n      pop\n        /* \"#utility.yul\":7428:7706   */\n      pop\n        /* \"#utility.yul\":7366:7706   */\n      swap3\n      swap2\n      pop\n      pop\n      jump\t// out\n        /* \"#utility.yul\":7712:7834   */\n    tag_65:\n        /* \"#utility.yul\":7785:7809   */\n      tag_151\n        /* \"#utility.yul\":7803:7808   */\n      dup2\n        /* \"#utility.yul\":7785:7809   */\n      tag_46\n      jump\t// in\n    tag_151:\n        /* \"#utility.yul\":7778:7783   */\n      dup2\n        /* \"#utility.yul\":7775:7810   */\n      eq\n        /* \"#utility.yul\":7765:7828   */\n      tag_152\n      jumpi\n        /* \"#utility.yul\":7824:7825   */\n      0x00\n        /* \"#utility.yul\":7821:7822   */\n      dup1\n        /* \"#utility.yul\":7814:7826   */\n      revert\n        /* \"#utility.yul\":7765:7828   */\n    tag_152:\n        /* \"#utility.yul\":7712:7834   */\n      pop\n      jump\t// out\n        /* \"#utility.yul\":7840:7979   */\n    tag_66:\n        /* \"#utility.yul\":7886:7891   */\n      0x00\n        /* \"#utility.yul\":7924:7930   */\n      dup2\n        /* \"#utility.yul\":7911:7931   */\n      calldataload\n        /* \"#utility.yul\":7902:7931   */\n      swap1\n      pop\n        /* \"#utility.yul\":7940:7973   */\n      tag_154\n        /* \"#utility.yul\":7967:7972   */\n      dup2\n        /* \"#utility.yul\":7940:7973   */\n      tag_65\n      jump\t// in\n    tag_154:\n        /* \"#utility.yul\":7840:7979   */\n      swap3\n      swap2\n      pop\n      pop\n      jump\t// out\n        /* \"#utility.yul\":7985:8964   */\n    tag_11:\n        /* \"#utility.yul\":8082:8088   */\n      0x00\n        /* \"#utility.yul\":8090:8096   */\n      dup1\n        /* \"#utility.yul\":8098:8104   */\n      0x00\n        /* \"#utility.yul\":8147:8149   */\n      0x60\n        /* \"#utility.yul\":8135:8144   */\n      dup5\n        /* \"#utility.yul\":8126:8133   */\n      dup7\n        /* \"#utility.yul\":8122:8145   */\n      sub\n        /* \"#utility.yul\":8118:8150   */\n      slt\n        /* \"#utility.yul\":8115:8234   */\n      iszero\n      tag_156\n      jumpi\n        /* \"#utility.yul\":8153:8232   */\n      tag_157\n      tag_54\n      jump\t// in\n    tag_157:\n        /* \"#utility.yul\":8115:8234   */\n    tag_156:\n        /* \"#utility.yul\":8301:8302   */\n      0x00\n        /* \"#utility.yul\":8290:8299   */\n      dup5\n        /* \"#utility.yul\":8286:8303   */\n      add\n        /* \"#utility.yul\":8273:8304   */\n      calldataload\n        /* \"#utility.yul\":8331:8349   */\n      0xffffffffffffffff\n        /* \"#utility.yul\":8323:8329   */\n      dup2\n        /* \"#utility.yul\":8320:8350   */\n      gt\n        /* \"#utility.yul\":8317:8434   */\n      iszero\n      tag_158\n      jumpi\n        /* \"#utility.yul\":8353:8432   */\n      tag_159\n      tag_55\n      jump\t// in\n    tag_159:\n        /* \"#utility.yul\":8317:8434   */\n    tag_158:\n        /* \"#utility.yul\":8458:8521   */\n      tag_160\n        /* \"#utility.yul\":8513:8520   */\n      dup7\n        /* \"#utility.yul\":8504:8510   */\n      dup3\n        /* \"#utility.yul\":8493:8502   */\n      dup8\n        /* \"#utility.yul\":8489:8511   */\n      add\n        /* \"#utility.yul\":8458:8521   */\n      tag_64\n      jump\t// in\n    tag_160:\n        /* \"#utility.yul\":8448:8521   */\n      swap4\n      pop\n        /* \"#utility.yul\":8244:8531   */\n      pop\n        /* \"#utility.yul\":8570:8572   */\n      0x20\n        /* \"#utility.yul\":8596:8649   */\n      tag_161\n        /* \"#utility.yul\":8641:8648   */\n      dup7\n        /* \"#utility.yul\":8632:8638   */\n      dup3\n        /* \"#utility.yul\":8621:8630   */\n      dup8\n        /* \"#utility.yul\":8617:8639   */\n      add\n        /* \"#utility.yul\":8596:8649   */\n      tag_66\n      jump\t// in\n    tag_161:\n        /* \"#utility.yul\":8586:8649   */\n      swap3\n      pop\n        /* \"#utility.yul\":8541:8659   */\n      pop\n        /* \"#utility.yul\":8726:8728   */\n      0x40\n        /* \"#utility.yul\":8715:8724   */\n      dup5\n        /* \"#utility.yul\":8711:8729   */\n      add\n        /* \"#utility.yul\":8698:8730   */\n      calldataload\n        /* \"#utility.yul\":8757:8775   */\n      0xffffffffffffffff\n        /* \"#utility.yul\":8749:8755   */\n      dup2\n        /* \"#utility.yul\":8746:8776   */\n      gt\n        /* \"#utility.yul\":8743:8860   */\n      iszero\n      tag_162\n      jumpi\n        /* \"#utility.yul\":8779:8858   */\n      tag_163\n      tag_55\n      jump\t// in\n    tag_163:\n        /* \"#utility.yul\":8743:8860   */\n    tag_162:\n        /* \"#utility.yul\":8884:8947   */\n      tag_164\n        /* \"#utility.yul\":8939:8946   */\n      dup7\n        /* \"#utility.yul\":8930:8936   */\n      dup3\n        /* \"#utility.yul\":8919:8928   */\n      dup8\n        /* \"#utility.yul\":8915:8937   */\n      add\n        /* \"#utility.yul\":8884:8947   */\n      tag_64\n      jump\t// in\n    tag_164:\n        /* \"#utility.yul\":8874:8947   */\n      swap2\n      pop\n        /* \"#utility.yul\":8669:8957   */\n      pop\n        /* \"#utility.yul\":7985:8964   */\n      swap3\n      pop\n      swap3\n      pop\n      swap3\n      jump\t// out\n        /* \"#utility.yul\":8970:9139   */\n    tag_67:\n        /* \"#utility.yul\":9054:9065   */\n      0x00\n        /* \"#utility.yul\":9088:9094   */\n      dup3\n        /* \"#utility.yul\":9083:9086   */\n      dup3\n        /* \"#utility.yul\":9076:9095   */\n      mstore\n        /* \"#utility.yul\":9128:9132   */\n      0x20\n        /* \"#utility.yul\":9123:9126   */\n      dup3\n        /* \"#utility.yul\":9119:9133   */\n      add\n        /* \"#utility.yul\":9104:9133   */\n      swap1\n      pop\n        /* \"#utility.yul\":8970:9139   */\n      swap3\n      swap2\n      pop\n      pop\n      jump\t// out\n        /* \"#utility.yul\":9145:9325   */\n    tag_68:\n        /* \"#utility.yul\":9285:9317   */\n      0x596f752063616e6e6f74206163636573732070617469656e7420646174610000\n        /* \"#utility.yul\":9281:9282   */\n      0x00\n        /* \"#utility.yul\":9273:9279   */\n      dup3\n        /* \"#utility.yul\":9269:9283   */\n      add\n        /* \"#utility.yul\":9262:9318   */\n      mstore\n        /* \"#utility.yul\":9145:9325   */\n      pop\n      jump\t// out\n        /* \"#utility.yul\":9331:9697   */\n    tag_69:\n        /* \"#utility.yul\":9473:9476   */\n      0x00\n        /* \"#utility.yul\":9494:9561   */\n      tag_168\n        /* \"#utility.yul\":9558:9560   */\n      0x1e\n        /* \"#utility.yul\":9553:9556   */\n      dup4\n        /* \"#utility.yul\":9494:9561   */\n      tag_67\n      jump\t// in\n    tag_168:\n        /* \"#utility.yul\":9487:9561   */\n      swap2\n      pop\n        /* \"#utility.yul\":9570:9663   */\n      tag_169\n        /* \"#utility.yul\":9659:9662   */\n      dup3\n        /* \"#utility.yul\":9570:9663   */\n      tag_68\n      jump\t// in\n    tag_169:\n        /* \"#utility.yul\":9688:9690   */\n      0x20\n        /* \"#utility.yul\":9683:9686   */\n      dup3\n        /* \"#utility.yul\":9679:9691   */\n      add\n        /* \"#utility.yul\":9672:9691   */\n      swap1\n      pop\n        /* \"#utility.yul\":9331:9697   */\n      swap2\n      swap1\n      pop\n      jump\t// out\n        /* \"#utility.yul\":9703:10122   */\n    tag_18:\n        /* \"#utility.yul\":9869:9873   */\n      0x00\n        /* \"#utility.yul\":9907:9909   */\n      0x20\n        /* \"#utility.yul\":9896:9905   */\n      dup3\n        /* \"#utility.yul\":9892:9910   */\n      add\n        /* \"#utility.yul\":9884:9910   */\n      swap1\n      pop\n        /* \"#utility.yul\":9956:9965   */\n      dup2\n        /* \"#utility.yul\":9950:9954   */\n      dup2\n        /* \"#utility.yul\":9946:9966   */\n      sub\n        /* \"#utility.yul\":9942:9943   */\n      0x00\n        /* \"#utility.yul\":9931:9940   */\n      dup4\n        /* \"#utility.yul\":9927:9944   */\n      add\n        /* \"#utility.yul\":9920:9967   */\n      mstore\n        /* \"#utility.yul\":9984:10115   */\n      tag_171\n        /* \"#utility.yul\":10110:10114   */\n      dup2\n        /* \"#utility.yul\":9984:10115   */\n      tag_69\n      jump\t// in\n    tag_171:\n        /* \"#utility.yul\":9976:10115   */\n      swap1\n      pop\n        /* \"#utility.yul\":9703:10122   */\n      swap2\n      swap1\n      pop\n      jump\t// out\n        /* \"#utility.yul\":10128:10308   */\n    tag_70:\n        /* \"#utility.yul\":10176:10253   */\n      0x4e487b7100000000000000000000000000000000000000000000000000000000\n        /* \"#utility.yul\":10173:10174   */\n      0x00\n        /* \"#utility.yul\":10166:10254   */\n      mstore\n        /* \"#utility.yul\":10273:10277   */\n      0x22\n        /* \"#utility.yul\":10270:10271   */\n      0x04\n        /* \"#utility.yul\":10263:10278   */\n      mstore\n        /* \"#utility.yul\":10297:10301   */\n      0x24\n        /* \"#utility.yul\":10294:10295   */\n      0x00\n        /* \"#utility.yul\":10287:10302   */\n      revert\n        /* \"#utility.yul\":10314:10634   */\n    tag_23:\n        /* \"#utility.yul\":10358:10364   */\n      0x00\n        /* \"#utility.yul\":10395:10396   */\n      0x02\n        /* \"#utility.yul\":10389:10393   */\n      dup3\n        /* \"#utility.yul\":10385:10397   */\n      div\n        /* \"#utility.yul\":10375:10397   */\n      swap1\n      pop\n        /* \"#utility.yul\":10442:10443   */\n      0x01\n        /* \"#utility.yul\":10436:10440   */\n      dup3\n        /* \"#utility.yul\":10432:10444   */\n      and\n        /* \"#utility.yul\":10463:10481   */\n      dup1\n        /* \"#utility.yul\":10453:10534   */\n      tag_174\n      jumpi\n        /* \"#utility.yul\":10519:10523   */\n      0x7f\n        /* \"#utility.yul\":10511:10517   */\n      dup3\n        /* \"#utility.yul\":10507:10524   */\n      and\n        /* \"#utility.yul\":10497:10524   */\n      swap2\n      pop\n        /* \"#utility.yul\":10453:10534   */\n    tag_174:\n        /* \"#utility.yul\":10581:10583   */\n      0x20\n        /* \"#utility.yul\":10573:10579   */\n      dup3\n        /* \"#utility.yul\":10570:10584   */\n      lt\n        /* \"#utility.yul\":10550:10568   */\n      dup2\n        /* \"#utility.yul\":10547:10585   */\n      sub\n        /* \"#utility.yul\":10544:10628   */\n      tag_175\n      jumpi\n        /* \"#utility.yul\":10600:10618   */\n      tag_176\n      tag_70\n      jump\t// in\n    tag_176:\n        /* \"#utility.yul\":10544:10628   */\n    tag_175:\n        /* \"#utility.yul\":10365:10634   */\n      pop\n        /* \"#utility.yul\":10314:10634   */\n      swap2\n      swap1\n      pop\n      jump\t// out\n        /* \"#utility.yul\":10640:10781   */\n    tag_71:\n        /* \"#utility.yul\":10689:10693   */\n      0x00\n        /* \"#utility.yul\":10712:10715   */\n      dup2\n        /* \"#utility.yul\":10704:10715   */\n      swap1\n      pop\n        /* \"#utility.yul\":10735:10738   */\n      dup2\n        /* \"#utility.yul\":10732:10733   */\n      0x00\n        /* \"#utility.yul\":10725:10739   */\n      mstore\n        /* \"#utility.yul\":10769:10773   */\n      0x20\n        /* \"#utility.yul\":10766:10767   */\n      0x00\n        /* \"#utility.yul\":10756:10774   */\n      keccak256\n        /* \"#utility.yul\":10748:10774   */\n      swap1\n      pop\n        /* \"#utility.yul\":10640:10781   */\n      swap2\n      swap1\n      pop\n      jump\t// out\n        /* \"#utility.yul\":10787:10880   */\n    tag_72:\n        /* \"#utility.yul\":10824:10830   */\n      0x00\n        /* \"#utility.yul\":10871:10873   */\n      0x20\n        /* \"#utility.yul\":10866:10868   */\n      0x1f\n        /* \"#utility.yul\":10859:10864   */\n      dup4\n        /* \"#utility.yul\":10855:10869   */\n      add\n        /* \"#utility.yul\":10851:10874   */\n      div\n        /* \"#utility.yul\":10841:10874   */\n      swap1\n      pop\n        /* \"#utility.yul\":10787:10880   */\n      swap2\n      swap1\n      pop\n      jump\t// out\n        /* \"#utility.yul\":10886:10993   */\n    tag_73:\n        /* \"#utility.yul\":10930:10938   */\n      0x00\n        /* \"#utility.yul\":10980:10985   */\n      dup3\n        /* \"#utility.yul\":10974:10978   */\n      dup3\n        /* \"#utility.yul\":10970:10986   */\n      shl\n        /* \"#utility.yul\":10949:10986   */\n      swap1\n      pop\n        /* \"#utility.yul\":10886:10993   */\n      swap3\n      swap2\n      pop\n      pop\n      jump\t// out\n        /* \"#utility.yul\":10999:11392   */\n    tag_74:\n        /* \"#utility.yul\":11068:11074   */\n      0x00\n        /* \"#utility.yul\":11118:11119   */\n      0x08\n        /* \"#utility.yul\":11106:11116   */\n      dup4\n        /* \"#utility.yul\":11102:11120   */\n      mul\n        /* \"#utility.yul\":11141:11238   */\n      tag_181\n        /* \"#utility.yul\":11171:11237   */\n      0xffffffffffffffffffffffffffffffffffffffffffffffffffffffffffffffff\n        /* \"#utility.yul\":11160:11169   */\n      dup3\n        /* \"#utility.yul\":11141:11238   */\n      tag_73\n      jump\t// in\n    tag_181:\n        /* \"#utility.yul\":11259:11298   */\n      tag_182\n        /* \"#utility.yul\":11289:11297   */\n      dup7\n        /* \"#utility.yul\":11278:11287   */\n      dup4\n        /* \"#utility.yul\":11259:11298   */\n      tag_73\n      jump\t// in\n    tag_182:\n        /* \"#utility.yul\":11247:11298   */\n      swap6\n      pop\n        /* \"#utility.yul\":11331:11335   */\n      dup1\n        /* \"#utility.yul\":11327:11336   */\n      not\n        /* \"#utility.yul\":11320:11325   */\n      dup5\n        /* \"#utility.yul\":11316:11337   */\n      and\n        /* \"#utility.yul\":11307:11337   */\n      swap4\n      pop\n        /* \"#utility.yul\":11380:11384   */\n      dup1\n        /* \"#utility.yul\":11370:11378   */\n      dup7\n        /* \"#utility.yul\":11366:11385   */\n      and\n        /* \"#utility.yul\":11359:11364   */\n      dup5\n        /* \"#utility.yul\":11356:11386   */\n      or\n        /* \"#utility.yul\":11346:11386   */\n      swap3\n      pop\n        /* \"#utility.yul\":11075:11392   */\n      pop\n      pop\n        /* \"#utility.yul\":10999:11392   */\n      swap4\n      swap3\n      pop\n      pop\n      pop\n      jump\t// out\n        /* \"#utility.yul\":11398:11458   */\n    tag_75:\n        /* \"#utility.yul\":11426:11429   */\n      0x00\n        /* \"#utility.yul\":11447:11452   */\n      dup2\n        /* \"#utility.yul\":11440:11452   */\n      swap1\n      pop\n        /* \"#utility.yul\":11398:11458   */\n      swap2\n      swap1\n      pop\n      jump\t// out\n        /* \"#utility.yul\":11464:11606   */\n    tag_76:\n        /* \"#utility.yul\":11514:11523   */\n      0x00\n        /* \"#utility.yul\":11547:11600   */\n      tag_185\n        /* \"#utility.yul\":11565:11599   */\n      tag_186\n        /* \"#utility.yul\":11574:11598   */\n      tag_187\n        /* \"#utility.yul\":11592:11597   */\n      dup5\n        /* \"#utility.yul\":11574:11598   */\n      tag_46\n      jump\t// in\n    tag_187:\n        /* \"#utility.yul\":11565:11599   */\n      tag_75\n      jump\t// in\n    tag_186:\n        /* \"#utility.yul\":11547:11600   */\n      tag_46\n      jump\t// in\n    tag_185:\n        /* \"#utility.yul\":11534:11600   */\n      swap1\n      pop\n        /* \"#utility.yul\":11464:11606   */\n      swap2\n      swap1\n      pop\n      jump\t// out\n        /* \"#utility.yul\":11612:11687   */\n    tag_77:\n        /* \"#utility.yul\":11655:11658   */\n      0x00\n        /* \"#utility.yul\":11676:11681   */\n      dup2\n        /* \"#utility.yul\":11669:11681   */\n      swap1\n      pop\n        /* \"#utility.yul\":11612:11687   */\n      swap2\n      swap1\n      pop\n      jump\t// out\n        /* \"#utility.yul\":11693:11962   */\n    tag_78:\n        /* \"#utility.yul\":11803:11842   */\n      tag_190\n        /* \"#utility.yul\":11834:11841   */\n      dup4\n        /* \"#utility.yul\":11803:11842   */\n      tag_76\n      jump\t// in\n    tag_190:\n        /* \"#utility.yul\":11864:11955   */\n      tag_191\n        /* \"#utility.yul\":11913:11954   */\n      tag_192\n        /* \"#utility.yul\":11937:11953   */\n      dup3\n        /* \"#utility.yul\":11913:11954   */\n      tag_77\n      jump\t// in\n    tag_192:\n        /* \"#utility.yul\":11905:11911   */\n      dup5\n        /* \"#utility.yul\":11898:11902   */\n      dup5\n        /* \"#utility.yul\":11892:11903   */\n      sload\n        /* \"#utility.yul\":11864:11955   */\n      tag_74\n      jump\t// in\n    tag_191:\n        /* \"#utility.yul\":11858:11862   */\n      dup3\n        /* \"#utility.yul\":11851:11956   */\n      sstore\n        /* \"#utility.yul\":11769:11962   */\n      pop\n        /* \"#utility.yul\":11693:11962   */\n      pop\n      pop\n      pop\n      jump\t// out\n        /* \"#utility.yul\":11968:12041   */\n    tag_79:\n        /* \"#utility.yul\":12013:12016   */\n      0x00\n        /* \"#utility.yul\":11968:12041   */\n      swap1\n      jump\t// out\n        /* \"#utility.yul\":12047:12236   */\n    tag_80:\n        /* \"#utility.yul\":12124:12156   */\n      tag_195\n      tag_79\n      jump\t// in\n    tag_195:\n        /* \"#utility.yul\":12165:12230   */\n      tag_196\n        /* \"#utility.yul\":12223:12229   */\n      dup2\n        /* \"#utility.yul\":12215:12221   */\n      dup5\n        /* \"#utility.yul\":12209:12213   */\n      dup5\n        /* \"#utility.yul\":12165:12230   */\n      tag_78\n      jump\t// in\n    tag_196:\n        /* \"#utility.yul\":12100:12236   */\n      pop\n        /* \"#utility.yul\":12047:12236   */\n      pop\n      pop\n      jump\t// out\n        /* \"#utility.yul\":12242:12428   */\n    tag_81:\n        /* \"#utility.yul\":12302:12422   */\n    tag_198:\n        /* \"#utility.yul\":12319:12322   */\n      dup2\n        /* \"#utility.yul\":12312:12317   */\n      dup2\n        /* \"#utility.yul\":12309:12323   */\n      lt\n        /* \"#utility.yul\":12302:12422   */\n      iszero\n      tag_200\n      jumpi\n        /* \"#utility.yul\":12373:12412   */\n      tag_201\n        /* \"#utility.yul\":12410:12411   */\n      0x00\n        /* \"#utility.yul\":12403:12408   */\n      dup3\n        /* \"#utility.yul\":12373:12412   */\n      tag_80\n      jump\t// in\n    tag_201:\n        /* \"#utility.yul\":12346:12347   */\n      0x01\n        /* \"#utility.yul\":12339:12344   */\n      dup2\n        /* \"#utility.yul\":12335:12348   */\n      add\n        /* \"#utility.yul\":12326:12348   */\n      swap1\n      pop\n        /* \"#utility.yul\":12302:12422   */\n      jump(tag_198)\n    tag_200:\n        /* \"#utility.yul\":12242:12428   */\n      pop\n      pop\n      jump\t// out\n        /* \"#utility.yul\":12434:12977   */\n    tag_82:\n        /* \"#utility.yul\":12535:12537   */\n      0x1f\n        /* \"#utility.yul\":12530:12533   */\n      dup3\n        /* \"#utility.yul\":12527:12538   */\n      gt\n        /* \"#utility.yul\":12524:12970   */\n      iszero\n      tag_203\n      jumpi\n        /* \"#utility.yul\":12569:12607   */\n      tag_204\n        /* \"#utility.yul\":12601:12606   */\n      dup2\n        /* \"#utility.yul\":12569:12607   */\n      tag_71\n      jump\t// in\n    tag_204:\n        /* \"#utility.yul\":12653:12682   */\n      tag_205\n        /* \"#utility.yul\":12671:12681   */\n      dup5\n        /* \"#utility.yul\":12653:12682   */\n      tag_72\n      jump\t// in\n    tag_205:\n        /* \"#utility.yul\":12643:12651   */\n      dup2\n        /* \"#utility.yul\":12639:12683   */\n      add\n        /* \"#utility.yul\":12836:12838   */\n      0x20\n        /* \"#utility.yul\":12824:12834   */\n      dup6\n        /* \"#utility.yul\":12821:12839   */\n      lt\n        /* \"#utility.yul\":12818:12867   */\n      iszero\n      tag_206\n      jumpi\n        /* \"#utility.yul\":12857:12865   */\n      dup2\n        /* \"#utility.yul\":12842:12865   */\n      swap1\n      pop\n        /* \"#utility.yul\":12818:12867   */\n    tag_206:\n        /* \"#utility.yul\":12880:12960   */\n      tag_207\n        /* \"#utility.yul\":12936:12958   */\n      tag_208\n        /* \"#utility.yul\":12954:12957   */\n      dup6\n        /* \"#utility.yul\":12936:12958   */\n      tag_72\n      jump\t// in\n    tag_208:\n        /* \"#utility.yul\":12926:12934   */\n      dup4\n        /* \"#utility.yul\":12922:12959   */\n      add\n        /* \"#utility.yul\":12909:12920   */\n      dup3\n        /* \"#utility.yul\":12880:12960   */\n      tag_81\n      jump\t// in\n    tag_207:\n        /* \"#utility.yul\":12539:12970   */\n      pop\n      pop\n        /* \"#utility.yul\":12524:12970   */\n    tag_203:\n        /* \"#utility.yul\":12434:12977   */\n      pop\n      pop\n      pop\n      jump\t// out\n        /* \"#utility.yul\":12983:13100   */\n    tag_83:\n        /* \"#utility.yul\":13037:13045   */\n      0x00\n        /* \"#utility.yul\":13087:13092   */\n      dup3\n        /* \"#utility.yul\":13081:13085   */\n      dup3\n        /* \"#utility.yul\":13077:13093   */\n      shr\n        /* \"#utility.yul\":13056:13093   */\n      swap1\n      pop\n        /* \"#utility.yul\":12983:13100   */\n      swap3\n      swap2\n      pop\n      pop\n      jump\t// out\n        /* \"#utility.yul\":13106:13275   */\n    tag_84:\n        /* \"#utility.yul\":13150:13156   */\n      0x00\n        /* \"#utility.yul\":13183:13234   */\n      tag_211\n        /* \"#utility.yul\":13231:13232   */\n      0x00\n        /* \"#utility.yul\":13227:13233   */\n      not\n        /* \"#utility.yul\":13219:13224   */\n      dup5\n        /* \"#utility.yul\":13216:13217   */\n      0x08\n        /* \"#utility.yul\":13212:13225   */\n      mul\n        /* \"#utility.yul\":13183:13234   */\n      tag_83\n      jump\t// in\n    tag_211:\n        /* \"#utility.yul\":13179:13235   */\n      not\n        /* \"#utility.yul\":13264:13268   */\n      dup1\n        /* \"#utility.yul\":13258:13262   */\n      dup4\n        /* \"#utility.yul\":13254:13269   */\n      and\n        /* \"#utility.yul\":13244:13269   */\n      swap2\n      pop\n        /* \"#utility.yul\":13157:13275   */\n      pop\n        /* \"#utility.yul\":13106:13275   */\n      swap3\n      swap2\n      pop\n      pop\n      jump\t// out\n        /* \"#utility.yul\":13280:13575   */\n    tag_85:\n        /* \"#utility.yul\":13356:13360   */\n      0x00\n        /* \"#utility.yul\":13502:13531   */\n      tag_213\n        /* \"#utility.yul\":13527:13530   */\n      dup4\n        /* \"#utility.yul\":13521:13525   */\n      dup4\n        /* \"#utility.yul\":13502:13531   */\n      tag_84\n      jump\t// in\n    tag_213:\n        /* \"#utility.yul\":13494:13531   */\n      swap2\n      pop\n        /* \"#utility.yul\":13564:13567   */\n      dup3\n        /* \"#utility.yul\":13561:13562   */\n      0x02\n        /* \"#utility.yul\":13557:13568   */\n      mul\n        /* \"#utility.yul\":13551:13555   */\n      dup3\n        /* \"#utility.yul\":13548:13569   */\n      or\n        /* \"#utility.yul\":13540:13569   */\n      swap1\n      pop\n        /* \"#utility.yul\":13280:13575   */\n      swap3\n      swap2\n      pop\n      pop\n      jump\t// out\n        /* \"#utility.yul\":13580:14975   */\n    tag_36:\n        /* \"#utility.yul\":13697:13734   */\n      tag_215\n        /* \"#utility.yul\":13730:13733   */\n      dup3\n        /* \"#utility.yul\":13697:13734   */\n      tag_41\n      jump\t// in\n    tag_215:\n        /* \"#utility.yul\":13799:13817   */\n      0xffffffffffffffff\n        /* \"#utility.yul\":13791:13797   */\n      dup2\n        /* \"#utility.yul\":13788:13818   */\n      gt\n        /* \"#utility.yul\":13785:13841   */\n      iszero\n      tag_216\n      jumpi\n        /* \"#utility.yul\":13821:13839   */\n      tag_217\n      tag_58\n      jump\t// in\n    tag_217:\n        /* \"#utility.yul\":13785:13841   */\n    tag_216:\n        /* \"#utility.yul\":13865:13903   */\n      tag_218\n        /* \"#utility.yul\":13897:13901   */\n      dup3\n        /* \"#utility.yul\":13891:13902   */\n      sload\n        /* \"#utility.yul\":13865:13903   */\n      tag_23\n      jump\t// in\n    tag_218:\n        /* \"#utility.yul\":13950:14017   */\n      tag_219\n        /* \"#utility.yul\":14010:14016   */\n      dup3\n        /* \"#utility.yul\":14002:14008   */\n      dup3\n        /* \"#utility.yul\":13996:14000   */\n      dup6\n        /* \"#utility.yul\":13950:14017   */\n      tag_82\n      jump\t// in\n    tag_219:\n        /* \"#utility.yul\":14044:14045   */\n      0x00\n        /* \"#utility.yul\":14068:14072   */\n      0x20\n        /* \"#utility.yul\":14055:14072   */\n      swap1\n      pop\n        /* \"#utility.yul\":14100:14102   */\n      0x1f\n        /* \"#utility.yul\":14092:14098   */\n      dup4\n        /* \"#utility.yul\":14089:14103   */\n      gt\n        /* \"#utility.yul\":14117:14118   */\n      0x01\n        /* \"#utility.yul\":14112:14730   */\n      dup2\n      eq\n      tag_221\n      jumpi\n        /* \"#utility.yul\":14774:14775   */\n      0x00\n        /* \"#utility.yul\":14791:14797   */\n      dup5\n        /* \"#utility.yul\":14788:14865   */\n      iszero\n      tag_222\n      jumpi\n        /* \"#utility.yul\":14840:14849   */\n      dup3\n        /* \"#utility.yul\":14835:14838   */\n      dup8\n        /* \"#utility.yul\":14831:14850   */\n      add\n        /* \"#utility.yul\":14825:14851   */\n      mload\n        /* \"#utility.yul\":14816:14851   */\n      swap1\n      pop\n        /* \"#utility.yul\":14788:14865   */\n    tag_222:\n        /* \"#utility.yul\":14891:14958   */\n      tag_223\n        /* \"#utility.yul\":14951:14957   */\n      dup6\n        /* \"#utility.yul\":14944:14949   */\n      dup3\n        /* \"#utility.yul\":14891:14958   */\n      tag_85\n      jump\t// in\n    tag_223:\n        /* \"#utility.yul\":14885:14889   */\n      dup7\n        /* \"#utility.yul\":14878:14959   */\n      sstore\n        /* \"#utility.yul\":14747:14969   */\n      pop\n        /* \"#utility.yul\":14082:14969   */\n      jump(tag_220)\n        /* \"#utility.yul\":14112:14730   */\n    tag_221:\n        /* \"#utility.yul\":14164:14168   */\n      0x1f\n        /* \"#utility.yul\":14160:14169   */\n      not\n        /* \"#utility.yul\":14152:14158   */\n      dup5\n        /* \"#utility.yul\":14148:14170   */\n      and\n        /* \"#utility.yul\":14198:14235   */\n      tag_224\n        /* \"#utility.yul\":14230:14234   */\n      dup7\n        /* \"#utility.yul\":14198:14235   */\n      tag_71\n      jump\t// in\n    tag_224:\n        /* \"#utility.yul\":14257:14258   */\n      0x00\n        /* \"#utility.yul\":14271:14479   */\n    tag_225:\n        /* \"#utility.yul\":14285:14292   */\n      dup3\n        /* \"#utility.yul\":14282:14283   */\n      dup2\n        /* \"#utility.yul\":14279:14293   */\n      lt\n        /* \"#utility.yul\":14271:14479   */\n      iszero\n      tag_227\n      jumpi\n        /* \"#utility.yul\":14364:14373   */\n      dup5\n        /* \"#utility.yul\":14359:14362   */\n      dup10\n        /* \"#utility.yul\":14355:14374   */\n      add\n        /* \"#utility.yul\":14349:14375   */\n      mload\n        /* \"#utility.yul\":14341:14347   */\n      dup3\n        /* \"#utility.yul\":14334:14376   */\n      sstore\n        /* \"#utility.yul\":14415:14416   */\n      0x01\n        /* \"#utility.yul\":14407:14413   */\n      dup3\n        /* \"#utility.yul\":14403:14417   */\n      add\n        /* \"#utility.yul\":14393:14417   */\n      swap2\n      pop\n        /* \"#utility.yul\":14462:14464   */\n      0x20\n        /* \"#utility.yul\":14451:14460   */\n      dup6\n        /* \"#utility.yul\":14447:14465   */\n      add\n        /* \"#utility.yul\":14434:14465   */\n      swap5\n      pop\n        /* \"#utility.yul\":14308:14312   */\n      0x20\n        /* \"#utility.yul\":14305:14306   */\n      dup2\n        /* \"#utility.yul\":14301:14313   */\n      add\n        /* \"#utility.yul\":14296:14313   */\n      swap1\n      pop\n        /* \"#utility.yul\":14271:14479   */\n      jump(tag_225)\n    tag_227:\n        /* \"#utility.yul\":14507:14513   */\n      dup7\n        /* \"#utility.yul\":14498:14505   */\n      dup4\n        /* \"#utility.yul\":14495:14514   */\n      lt\n        /* \"#utility.yul\":14492:14671   */\n      iszero\n      tag_228\n      jumpi\n        /* \"#utility.yul\":14565:14574   */\n      dup5\n        /* \"#utility.yul\":14560:14563   */\n      dup10\n        /* \"#utility.yul\":14556:14575   */\n      add\n        /* \"#utility.yul\":14550:14576   */\n      mload\n        /* \"#utility.yul\":14608:14656   */\n      tag_229\n        /* \"#utility.yul\":14650:14654   */\n      0x1f\n        /* \"#utility.yul\":14642:14648   */\n      dup10\n        /* \"#utility.yul\":14638:14655   */\n      and\n        /* \"#utility.yul\":14627:14636   */\n      dup3\n        /* \"#utility.yul\":14608:14656   */\n      tag_84\n      jump\t// in\n    tag_229:\n        /* \"#utility.yul\":14600:14606   */\n      dup4\n        /* \"#utility.yul\":14593:14657   */\n      sstore\n        /* \"#utility.yul\":14515:14671   */\n      pop\n        /* \"#utility.yul\":14492:14671   */\n    tag_228:\n        /* \"#utility.yul\":14717:14718   */\n      0x01\n        /* \"#utility.yul\":14713:14714   */\n      0x02\n        /* \"#utility.yul\":14705:14711   */\n      dup9\n        /* \"#utility.yul\":14701:14715   */\n      mul\n        /* \"#utility.yul\":14697:14719   */\n      add\n        /* \"#utility.yul\":14691:14695   */\n      dup9\n        /* \"#utility.yul\":14684:14720   */\n      sstore\n        /* \"#utility.yul\":14119:14730   */\n      pop\n      pop\n      pop\n        /* \"#utility.yul\":14082:14969   */\n    tag_220:\n      pop\n        /* \"#utility.yul\":13672:14975   */\n      pop\n      pop\n      pop\n        /* \"#utility.yul\":13580:14975   */\n      pop\n      pop\n      jump\t// out\n\n    auxdata: 0xa2646970667358221220f3d9d8b276fbde6b8f06f9909a25e14c51097871646f2fccef462ba90642fae564736f6c634300081a0033\n}\n",
				"bytecode": {
					"linkReferences": {},
					"object": "6080604052335f806101000a81548173ffffffffffffffffffffffffffffffffffffffff021916908373ffffffffffffffffffffffffffffffffffffffff160217905550348015604d575f80fd5b50610aef8061005b5f395ff3fe608060405234801561000f575f80fd5b5060043610610034575f3560e01c80634344b7431461003857806360b659d514610056575b5f80fd5b610040610072565b60405161004d9190610569565b60405180910390f35b610070600480360381019061006b91906106f0565b6102d8565b005b61007a610398565b3373ffffffffffffffffffffffffffffffffffffffff165f8054906101000a900473ffffffffffffffffffffffffffffffffffffffff1673ffffffffffffffffffffffffffffffffffffffff1614610107576040517f08c379a00000000000000000000000000000000000000000000000000000000081526004016100fe906107d2565b60405180910390fd5b60015f3373ffffffffffffffffffffffffffffffffffffffff1673ffffffffffffffffffffffffffffffffffffffff1681526020019081526020015f206040518060200160405290815f8201805480602002602001604051908101604052809291908181526020015f905b828210156102cb578382905f5260205f2090600302016040518060600160405290815f820180546101a29061081d565b80601f01602080910402602001604051908101604052809291908181526020018280546101ce9061081d565b80156102195780601f106101f057610100808354040283529160200191610219565b820191905f5260205f20905b8154815290600101906020018083116101fc57829003601f168201915b505050505081526020016001820154815260200160028201805461023c9061081d565b80601f01602080910402602001604051908101604052809291908181526020018280546102689061081d565b80156102b35780601f1061028a576101008083540402835291602001916102b3565b820191905f5260205f20905b81548152906001019060200180831161029657829003601f168201915b50505050508152505081526020019060010190610172565b5050505081525050905090565b5f604051806060016040528085815260200184815260200183815250905060015f3373ffffffffffffffffffffffffffffffffffffffff1673ffffffffffffffffffffffffffffffffffffffff1681526020019081526020015f205f0181908060018154018082558091505060019003905f5260205f2090600302015f909190919091505f820151815f01908161036f91906109ea565b5060208201518160010155604082015181600201908161038f91906109ea565b50505050505050565b6040518060200160405280606081525090565b5f81519050919050565b5f82825260208201905092915050565b5f819050602082019050919050565b5f81519050919050565b5f82825260208201905092915050565b8281835e5f83830152505050565b5f601f19601f8301169050919050565b5f610416826103d4565b61042081856103de565b93506104308185602086016103ee565b610439816103fc565b840191505092915050565b5f819050919050565b61045681610444565b82525050565b5f606083015f8301518482035f860152610476828261040c565b915050602083015161048b602086018261044d565b50604083015184820360408601526104a3828261040c565b9150508091505092915050565b5f6104bb838361045c565b905092915050565b5f602082019050919050565b5f6104d9826103ab565b6104e381856103b5565b9350836020820285016104f5856103c5565b805f5b85811015610530578484038952815161051185826104b0565b945061051c836104c3565b925060208a019950506001810190506104f8565b50829750879550505050505092915050565b5f602083015f8301518482035f86015261055c82826104cf565b9150508091505092915050565b5f6020820190508181035f8301526105818184610542565b905092915050565b5f604051905090565b5f80fd5b5f80fd5b5f80fd5b5f80fd5b7f4e487b71000000000000000000000000000000000000000000000000000000005f52604160045260245ffd5b6105d8826103fc565b810181811067ffffffffffffffff821117156105f7576105f66105a2565b5b80604052505050565b5f610609610589565b905061061582826105cf565b919050565b5f67ffffffffffffffff821115610634576106336105a2565b5b61063d826103fc565b9050602081019050919050565b828183375f83830152505050565b5f61066a6106658461061a565b610600565b9050828152602081018484840111156106865761068561059e565b5b61069184828561064a565b509392505050565b5f82601f8301126106ad576106ac61059a565b5b81356106bd848260208601610658565b91505092915050565b6106cf81610444565b81146106d9575f80fd5b50565b5f813590506106ea816106c6565b92915050565b5f805f6060848603121561070757610706610592565b5b5f84013567ffffffffffffffff81111561072457610723610596565b5b61073086828701610699565b9350506020610741868287016106dc565b925050604084013567ffffffffffffffff81111561076257610761610596565b5b61076e86828701610699565b9150509250925092565b5f82825260208201905092915050565b7f596f752063616e6e6f74206163636573732070617469656e74206461746100005f82015250565b5f6107bc601e83610778565b91506107c782610788565b602082019050919050565b5f6020820190508181035f8301526107e9816107b0565b9050919050565b7f4e487b71000000000000000000000000000000000000000000000000000000005f52602260045260245ffd5b5f600282049050600182168061083457607f821691505b602082108103610847576108466107f0565b5b50919050565b5f819050815f5260205f209050919050565b5f6020601f8301049050919050565b5f82821b905092915050565b5f600883026108a97fffffffffffffffffffffffffffffffffffffffffffffffffffffffffffffffff8261086e565b6108b3868361086e565b95508019841693508086168417925050509392505050565b5f819050919050565b5f6108ee6108e96108e484610444565b6108cb565b610444565b9050919050565b5f819050919050565b610907836108d4565b61091b610913826108f5565b84845461087a565b825550505050565b5f90565b61092f610923565b61093a8184846108fe565b505050565b5b8181101561095d576109525f82610927565b600181019050610940565b5050565b601f8211156109a2576109738161084d565b61097c8461085f565b8101602085101561098b578190505b61099f6109978561085f565b83018261093f565b50505b505050565b5f82821c905092915050565b5f6109c25f19846008026109a7565b1980831691505092915050565b5f6109da83836109b3565b9150826002028217905092915050565b6109f3826103d4565b67ffffffffffffffff811115610a0c57610a0b6105a2565b5b610a16825461081d565b610a21828285610961565b5f60209050601f831160018114610a52575f8415610a40578287015190505b610a4a85826109cf565b865550610ab1565b601f198416610a608661084d565b5f5b82811015610a8757848901518255600182019150602085019450602081019050610a62565b86831015610aa45784890151610aa0601f8916826109b3565b8355505b6001600288020188555050505b50505050505056fea2646970667358221220f3d9d8b276fbde6b8f06f9909a25e14c51097871646f2fccef462ba90642fae564736f6c634300081a0033",
					"opcodes": "PUSH1 0x80 PUSH1 0x40 MSTORE CALLER PUSH0 DUP1 PUSH2 0x100 EXP DUP2 SLOAD DUP2 PUSH20 0xFFFFFFFFFFFFFFFFFFFFFFFFFFFFFFFFFFFFFFFF MUL NOT AND SWAP1 DUP4 PUSH20 0xFFFFFFFFFFFFFFFFFFFFFFFFFFFFFFFFFFFFFFFF AND MUL OR SWAP1 SSTORE POP CALLVALUE DUP1 ISZERO PUSH1 0x4D JUMPI PUSH0 DUP1 REVERT JUMPDEST POP PUSH2 0xAEF DUP1 PUSH2 0x5B PUSH0 CODECOPY PUSH0 RETURN INVALID PUSH1 0x80 PUSH1 0x40 MSTORE CALLVALUE DUP1 ISZERO PUSH2 0xF JUMPI PUSH0 DUP1 REVERT JUMPDEST POP PUSH1 0x4 CALLDATASIZE LT PUSH2 0x34 JUMPI PUSH0 CALLDATALOAD PUSH1 0xE0 SHR DUP1 PUSH4 0x4344B743 EQ PUSH2 0x38 JUMPI DUP1 PUSH4 0x60B659D5 EQ PUSH2 0x56 JUMPI JUMPDEST PUSH0 DUP1 REVERT JUMPDEST PUSH2 0x40 PUSH2 0x72 JUMP JUMPDEST PUSH1 0x40 MLOAD PUSH2 0x4D SWAP2 SWAP1 PUSH2 0x569 JUMP JUMPDEST PUSH1 0x40 MLOAD DUP1 SWAP2 SUB SWAP1 RETURN JUMPDEST PUSH2 0x70 PUSH1 0x4 DUP1 CALLDATASIZE SUB DUP2 ADD SWAP1 PUSH2 0x6B SWAP2 SWAP1 PUSH2 0x6F0 JUMP JUMPDEST PUSH2 0x2D8 JUMP JUMPDEST STOP JUMPDEST PUSH2 0x7A PUSH2 0x398 JUMP JUMPDEST CALLER PUSH20 0xFFFFFFFFFFFFFFFFFFFFFFFFFFFFFFFFFFFFFFFF AND PUSH0 DUP1 SLOAD SWAP1 PUSH2 0x100 EXP SWAP1 DIV PUSH20 0xFFFFFFFFFFFFFFFFFFFFFFFFFFFFFFFFFFFFFFFF AND PUSH20 0xFFFFFFFFFFFFFFFFFFFFFFFFFFFFFFFFFFFFFFFF AND EQ PUSH2 0x107 JUMPI PUSH1 0x40 MLOAD PUSH32 0x8C379A000000000000000000000000000000000000000000000000000000000 DUP2 MSTORE PUSH1 0x4 ADD PUSH2 0xFE SWAP1 PUSH2 0x7D2 JUMP JUMPDEST PUSH1 0x40 MLOAD DUP1 SWAP2 SUB SWAP1 REVERT JUMPDEST PUSH1 0x1 PUSH0 CALLER PUSH20 0xFFFFFFFFFFFFFFFFFFFFFFFFFFFFFFFFFFFFFFFF AND PUSH20 0xFFFFFFFFFFFFFFFFFFFFFFFFFFFFFFFFFFFFFFFF AND DUP2 MSTORE PUSH1 0x20 ADD SWAP1 DUP2 MSTORE PUSH1 0x20 ADD PUSH0 KECCAK256 PUSH1 0x40 MLOAD DUP1 PUSH1 0x20 ADD PUSH1 0x40 MSTORE SWAP1 DUP2 PUSH0 DUP3 ADD DUP1 SLOAD DUP1 PUSH1 0x20 MUL PUSH1 0x20 ADD PUSH1 0x40 MLOAD SWAP1 DUP2 ADD PUSH1 0x40 MSTORE DUP1 SWAP3 SWAP2 SWAP1 DUP2 DUP2 MSTORE PUSH1 0x20 ADD PUSH0 SWAP1 JUMPDEST DUP3 DUP3 LT ISZERO PUSH2 0x2CB JUMPI DUP4 DUP3 SWAP1 PUSH0 MSTORE PUSH1 0x20 PUSH0 KECCAK256 SWAP1 PUSH1 0x3 MUL ADD PUSH1 0x40 MLOAD DUP1 PUSH1 0x60 ADD PUSH1 0x40 MSTORE SWAP1 DUP2 PUSH0 DUP3 ADD DUP1 SLOAD PUSH2 0x1A2 SWAP1 PUSH2 0x81D JUMP JUMPDEST DUP1 PUSH1 0x1F ADD PUSH1 0x20 DUP1 SWAP2 DIV MUL PUSH1 0x20 ADD PUSH1 0x40 MLOAD SWAP1 DUP2 ADD PUSH1 0x40 MSTORE DUP1 SWAP3 SWAP2 SWAP1 DUP2 DUP2 MSTORE PUSH1 0x20 ADD DUP3 DUP1 SLOAD PUSH2 0x1CE SWAP1 PUSH2 0x81D JUMP JUMPDEST DUP1 ISZERO PUSH2 0x219 JUMPI DUP1 PUSH1 0x1F LT PUSH2 0x1F0 JUMPI PUSH2 0x100 DUP1 DUP4 SLOAD DIV MUL DUP4 MSTORE SWAP2 PUSH1 0x20 ADD SWAP2 PUSH2 0x219 JUMP JUMPDEST DUP3 ADD SWAP2 SWAP1 PUSH0 MSTORE PUSH1 0x20 PUSH0 KECCAK256 SWAP1 JUMPDEST DUP2 SLOAD DUP2 MSTORE SWAP1 PUSH1 0x1 ADD SWAP1 PUSH1 0x20 ADD DUP1 DUP4 GT PUSH2 0x1FC JUMPI DUP3 SWAP1 SUB PUSH1 0x1F AND DUP3 ADD SWAP2 JUMPDEST POP POP POP POP POP DUP2 MSTORE PUSH1 0x20 ADD PUSH1 0x1 DUP3 ADD SLOAD DUP2 MSTORE PUSH1 0x20 ADD PUSH1 0x2 DUP3 ADD DUP1 SLOAD PUSH2 0x23C SWAP1 PUSH2 0x81D JUMP JUMPDEST DUP1 PUSH1 0x1F ADD PUSH1 0x20 DUP1 SWAP2 DIV MUL PUSH1 0x20 ADD PUSH1 0x40 MLOAD SWAP1 DUP2 ADD PUSH1 0x40 MSTORE DUP1 SWAP3 SWAP2 SWAP1 DUP2 DUP2 MSTORE PUSH1 0x20 ADD DUP3 DUP1 SLOAD PUSH2 0x268 SWAP1 PUSH2 0x81D JUMP JUMPDEST DUP1 ISZERO PUSH2 0x2B3 JUMPI DUP1 PUSH1 0x1F LT PUSH2 0x28A JUMPI PUSH2 0x100 DUP1 DUP4 SLOAD DIV MUL DUP4 MSTORE SWAP2 PUSH1 0x20 ADD SWAP2 PUSH2 0x2B3 JUMP JUMPDEST DUP3 ADD SWAP2 SWAP1 PUSH0 MSTORE PUSH1 0x20 PUSH0 KECCAK256 SWAP1 JUMPDEST DUP2 SLOAD DUP2 MSTORE SWAP1 PUSH1 0x1 ADD SWAP1 PUSH1 0x20 ADD DUP1 DUP4 GT PUSH2 0x296 JUMPI DUP3 SWAP1 SUB PUSH1 0x1F AND DUP3 ADD SWAP2 JUMPDEST POP POP POP POP POP DUP2 MSTORE POP POP DUP2 MSTORE PUSH1 0x20 ADD SWAP1 PUSH1 0x1 ADD SWAP1 PUSH2 0x172 JUMP JUMPDEST POP POP POP POP DUP2 MSTORE POP POP SWAP1 POP SWAP1 JUMP JUMPDEST PUSH0 PUSH1 0x40 MLOAD DUP1 PUSH1 0x60 ADD PUSH1 0x40 MSTORE DUP1 DUP6 DUP2 MSTORE PUSH1 0x20 ADD DUP5 DUP2 MSTORE PUSH1 0x20 ADD DUP4 DUP2 MSTORE POP SWAP1 POP PUSH1 0x1 PUSH0 CALLER PUSH20 0xFFFFFFFFFFFFFFFFFFFFFFFFFFFFFFFFFFFFFFFF AND PUSH20 0xFFFFFFFFFFFFFFFFFFFFFFFFFFFFFFFFFFFFFFFF AND DUP2 MSTORE PUSH1 0x20 ADD SWAP1 DUP2 MSTORE PUSH1 0x20 ADD PUSH0 KECCAK256 PUSH0 ADD DUP2 SWAP1 DUP1 PUSH1 0x1 DUP2 SLOAD ADD DUP1 DUP3 SSTORE DUP1 SWAP2 POP POP PUSH1 0x1 SWAP1 SUB SWAP1 PUSH0 MSTORE PUSH1 0x20 PUSH0 KECCAK256 SWAP1 PUSH1 0x3 MUL ADD PUSH0 SWAP1 SWAP2 SWAP1 SWAP2 SWAP1 SWAP2 POP PUSH0 DUP3 ADD MLOAD DUP2 PUSH0 ADD SWAP1 DUP2 PUSH2 0x36F SWAP2 SWAP1 PUSH2 0x9EA JUMP JUMPDEST POP PUSH1 0x20 DUP3 ADD MLOAD DUP2 PUSH1 0x1 ADD SSTORE PUSH1 0x40 DUP3 ADD MLOAD DUP2 PUSH1 0x2 ADD SWAP1 DUP2 PUSH2 0x38F SWAP2 SWAP1 PUSH2 0x9EA JUMP JUMPDEST POP POP POP POP POP POP POP JUMP JUMPDEST PUSH1 0x40 MLOAD DUP1 PUSH1 0x20 ADD PUSH1 0x40 MSTORE DUP1 PUSH1 0x60 DUP2 MSTORE POP SWAP1 JUMP JUMPDEST PUSH0 DUP2 MLOAD SWAP1 POP SWAP2 SWAP1 POP JUMP JUMPDEST PUSH0 DUP3 DUP3 MSTORE PUSH1 0x20 DUP3 ADD SWAP1 POP SWAP3 SWAP2 POP POP JUMP JUMPDEST PUSH0 DUP2 SWAP1 POP PUSH1 0x20 DUP3 ADD SWAP1 POP SWAP2 SWAP1 POP JUMP JUMPDEST PUSH0 DUP2 MLOAD SWAP1 POP SWAP2 SWAP1 POP JUMP JUMPDEST PUSH0 DUP3 DUP3 MSTORE PUSH1 0x20 DUP3 ADD SWAP1 POP SWAP3 SWAP2 POP POP JUMP JUMPDEST DUP3 DUP2 DUP4 MCOPY PUSH0 DUP4 DUP4 ADD MSTORE POP POP POP JUMP JUMPDEST PUSH0 PUSH1 0x1F NOT PUSH1 0x1F DUP4 ADD AND SWAP1 POP SWAP2 SWAP1 POP JUMP JUMPDEST PUSH0 PUSH2 0x416 DUP3 PUSH2 0x3D4 JUMP JUMPDEST PUSH2 0x420 DUP2 DUP6 PUSH2 0x3DE JUMP JUMPDEST SWAP4 POP PUSH2 0x430 DUP2 DUP6 PUSH1 0x20 DUP7 ADD PUSH2 0x3EE JUMP JUMPDEST PUSH2 0x439 DUP2 PUSH2 0x3FC JUMP JUMPDEST DUP5 ADD SWAP2 POP POP SWAP3 SWAP2 POP POP JUMP JUMPDEST PUSH0 DUP2 SWAP1 POP SWAP2 SWAP1 POP JUMP JUMPDEST PUSH2 0x456 DUP2 PUSH2 0x444 JUMP JUMPDEST DUP3 MSTORE POP POP JUMP JUMPDEST PUSH0 PUSH1 0x60 DUP4 ADD PUSH0 DUP4 ADD MLOAD DUP5 DUP3 SUB PUSH0 DUP7 ADD MSTORE PUSH2 0x476 DUP3 DUP3 PUSH2 0x40C JUMP JUMPDEST SWAP2 POP POP PUSH1 0x20 DUP4 ADD MLOAD PUSH2 0x48B PUSH1 0x20 DUP7 ADD DUP3 PUSH2 0x44D JUMP JUMPDEST POP PUSH1 0x40 DUP4 ADD MLOAD DUP5 DUP3 SUB PUSH1 0x40 DUP7 ADD MSTORE PUSH2 0x4A3 DUP3 DUP3 PUSH2 0x40C JUMP JUMPDEST SWAP2 POP POP DUP1 SWAP2 POP POP SWAP3 SWAP2 POP POP JUMP JUMPDEST PUSH0 PUSH2 0x4BB DUP4 DUP4 PUSH2 0x45C JUMP JUMPDEST SWAP1 POP SWAP3 SWAP2 POP POP JUMP JUMPDEST PUSH0 PUSH1 0x20 DUP3 ADD SWAP1 POP SWAP2 SWAP1 POP JUMP JUMPDEST PUSH0 PUSH2 0x4D9 DUP3 PUSH2 0x3AB JUMP JUMPDEST PUSH2 0x4E3 DUP2 DUP6 PUSH2 0x3B5 JUMP JUMPDEST SWAP4 POP DUP4 PUSH1 0x20 DUP3 MUL DUP6 ADD PUSH2 0x4F5 DUP6 PUSH2 0x3C5 JUMP JUMPDEST DUP1 PUSH0 JUMPDEST DUP6 DUP2 LT ISZERO PUSH2 0x530 JUMPI DUP5 DUP5 SUB DUP10 MSTORE DUP2 MLOAD PUSH2 0x511 DUP6 DUP3 PUSH2 0x4B0 JUMP JUMPDEST SWAP5 POP PUSH2 0x51C DUP4 PUSH2 0x4C3 JUMP JUMPDEST SWAP3 POP PUSH1 0x20 DUP11 ADD SWAP10 POP POP PUSH1 0x1 DUP2 ADD SWAP1 POP PUSH2 0x4F8 JUMP JUMPDEST POP DUP3 SWAP8 POP DUP8 SWAP6 POP POP POP POP POP POP SWAP3 SWAP2 POP POP JUMP JUMPDEST PUSH0 PUSH1 0x20 DUP4 ADD PUSH0 DUP4 ADD MLOAD DUP5 DUP3 SUB PUSH0 DUP7 ADD MSTORE PUSH2 0x55C DUP3 DUP3 PUSH2 0x4CF JUMP JUMPDEST SWAP2 POP POP DUP1 SWAP2 POP POP SWAP3 SWAP2 POP POP JUMP JUMPDEST PUSH0 PUSH1 0x20 DUP3 ADD SWAP1 POP DUP2 DUP2 SUB PUSH0 DUP4 ADD MSTORE PUSH2 0x581 DUP2 DUP5 PUSH2 0x542 JUMP JUMPDEST SWAP1 POP SWAP3 SWAP2 POP POP JUMP JUMPDEST PUSH0 PUSH1 0x40 MLOAD SWAP1 POP SWAP1 JUMP JUMPDEST PUSH0 DUP1 REVERT JUMPDEST PUSH0 DUP1 REVERT JUMPDEST PUSH0 DUP1 REVERT JUMPDEST PUSH0 DUP1 REVERT JUMPDEST PUSH32 0x4E487B7100000000000000000000000000000000000000000000000000000000 PUSH0 MSTORE PUSH1 0x41 PUSH1 0x4 MSTORE PUSH1 0x24 PUSH0 REVERT JUMPDEST PUSH2 0x5D8 DUP3 PUSH2 0x3FC JUMP JUMPDEST DUP2 ADD DUP2 DUP2 LT PUSH8 0xFFFFFFFFFFFFFFFF DUP3 GT OR ISZERO PUSH2 0x5F7 JUMPI PUSH2 0x5F6 PUSH2 0x5A2 JUMP JUMPDEST JUMPDEST DUP1 PUSH1 0x40 MSTORE POP POP POP JUMP JUMPDEST PUSH0 PUSH2 0x609 PUSH2 0x589 JUMP JUMPDEST SWAP1 POP PUSH2 0x615 DUP3 DUP3 PUSH2 0x5CF JUMP JUMPDEST SWAP2 SWAP1 POP JUMP JUMPDEST PUSH0 PUSH8 0xFFFFFFFFFFFFFFFF DUP3 GT ISZERO PUSH2 0x634 JUMPI PUSH2 0x633 PUSH2 0x5A2 JUMP JUMPDEST JUMPDEST PUSH2 0x63D DUP3 PUSH2 0x3FC JUMP JUMPDEST SWAP1 POP PUSH1 0x20 DUP2 ADD SWAP1 POP SWAP2 SWAP1 POP JUMP JUMPDEST DUP3 DUP2 DUP4 CALLDATACOPY PUSH0 DUP4 DUP4 ADD MSTORE POP POP POP JUMP JUMPDEST PUSH0 PUSH2 0x66A PUSH2 0x665 DUP5 PUSH2 0x61A JUMP JUMPDEST PUSH2 0x600 JUMP JUMPDEST SWAP1 POP DUP3 DUP2 MSTORE PUSH1 0x20 DUP2 ADD DUP5 DUP5 DUP5 ADD GT ISZERO PUSH2 0x686 JUMPI PUSH2 0x685 PUSH2 0x59E JUMP JUMPDEST JUMPDEST PUSH2 0x691 DUP5 DUP3 DUP6 PUSH2 0x64A JUMP JUMPDEST POP SWAP4 SWAP3 POP POP POP JUMP JUMPDEST PUSH0 DUP3 PUSH1 0x1F DUP4 ADD SLT PUSH2 0x6AD JUMPI PUSH2 0x6AC PUSH2 0x59A JUMP JUMPDEST JUMPDEST DUP2 CALLDATALOAD PUSH2 0x6BD DUP5 DUP3 PUSH1 0x20 DUP7 ADD PUSH2 0x658 JUMP JUMPDEST SWAP2 POP POP SWAP3 SWAP2 POP POP JUMP JUMPDEST PUSH2 0x6CF DUP2 PUSH2 0x444 JUMP JUMPDEST DUP2 EQ PUSH2 0x6D9 JUMPI PUSH0 DUP1 REVERT JUMPDEST POP JUMP JUMPDEST PUSH0 DUP2 CALLDATALOAD SWAP1 POP PUSH2 0x6EA DUP2 PUSH2 0x6C6 JUMP JUMPDEST SWAP3 SWAP2 POP POP JUMP JUMPDEST PUSH0 DUP1 PUSH0 PUSH1 0x60 DUP5 DUP7 SUB SLT ISZERO PUSH2 0x707 JUMPI PUSH2 0x706 PUSH2 0x592 JUMP JUMPDEST JUMPDEST PUSH0 DUP5 ADD CALLDATALOAD PUSH8 0xFFFFFFFFFFFFFFFF DUP2 GT ISZERO PUSH2 0x724 JUMPI PUSH2 0x723 PUSH2 0x596 JUMP JUMPDEST JUMPDEST PUSH2 0x730 DUP7 DUP3 DUP8 ADD PUSH2 0x699 JUMP JUMPDEST SWAP4 POP POP PUSH1 0x20 PUSH2 0x741 DUP7 DUP3 DUP8 ADD PUSH2 0x6DC JUMP JUMPDEST SWAP3 POP POP PUSH1 0x40 DUP5 ADD CALLDATALOAD PUSH8 0xFFFFFFFFFFFFFFFF DUP2 GT ISZERO PUSH2 0x762 JUMPI PUSH2 0x761 PUSH2 0x596 JUMP JUMPDEST JUMPDEST PUSH2 0x76E DUP7 DUP3 DUP8 ADD PUSH2 0x699 JUMP JUMPDEST SWAP2 POP POP SWAP3 POP SWAP3 POP SWAP3 JUMP JUMPDEST PUSH0 DUP3 DUP3 MSTORE PUSH1 0x20 DUP3 ADD SWAP1 POP SWAP3 SWAP2 POP POP JUMP JUMPDEST PUSH32 0x596F752063616E6E6F74206163636573732070617469656E7420646174610000 PUSH0 DUP3 ADD MSTORE POP JUMP JUMPDEST PUSH0 PUSH2 0x7BC PUSH1 0x1E DUP4 PUSH2 0x778 JUMP JUMPDEST SWAP2 POP PUSH2 0x7C7 DUP3 PUSH2 0x788 JUMP JUMPDEST PUSH1 0x20 DUP3 ADD SWAP1 POP SWAP2 SWAP1 POP JUMP JUMPDEST PUSH0 PUSH1 0x20 DUP3 ADD SWAP1 POP DUP2 DUP2 SUB PUSH0 DUP4 ADD MSTORE PUSH2 0x7E9 DUP2 PUSH2 0x7B0 JUMP JUMPDEST SWAP1 POP SWAP2 SWAP1 POP JUMP JUMPDEST PUSH32 0x4E487B7100000000000000000000000000000000000000000000000000000000 PUSH0 MSTORE PUSH1 0x22 PUSH1 0x4 MSTORE PUSH1 0x24 PUSH0 REVERT JUMPDEST PUSH0 PUSH1 0x2 DUP3 DIV SWAP1 POP PUSH1 0x1 DUP3 AND DUP1 PUSH2 0x834 JUMPI PUSH1 0x7F DUP3 AND SWAP2 POP JUMPDEST PUSH1 0x20 DUP3 LT DUP2 SUB PUSH2 0x847 JUMPI PUSH2 0x846 PUSH2 0x7F0 JUMP JUMPDEST JUMPDEST POP SWAP2 SWAP1 POP JUMP JUMPDEST PUSH0 DUP2 SWAP1 POP DUP2 PUSH0 MSTORE PUSH1 0x20 PUSH0 KECCAK256 SWAP1 POP SWAP2 SWAP1 POP JUMP JUMPDEST PUSH0 PUSH1 0x20 PUSH1 0x1F DUP4 ADD DIV SWAP1 POP SWAP2 SWAP1 POP JUMP JUMPDEST PUSH0 DUP3 DUP3 SHL SWAP1 POP SWAP3 SWAP2 POP POP JUMP JUMPDEST PUSH0 PUSH1 0x8 DUP4 MUL PUSH2 0x8A9 PUSH32 0xFFFFFFFFFFFFFFFFFFFFFFFFFFFFFFFFFFFFFFFFFFFFFFFFFFFFFFFFFFFFFFFF DUP3 PUSH2 0x86E JUMP JUMPDEST PUSH2 0x8B3 DUP7 DUP4 PUSH2 0x86E JUMP JUMPDEST SWAP6 POP DUP1 NOT DUP5 AND SWAP4 POP DUP1 DUP7 AND DUP5 OR SWAP3 POP POP POP SWAP4 SWAP3 POP POP POP JUMP JUMPDEST PUSH0 DUP2 SWAP1 POP SWAP2 SWAP1 POP JUMP JUMPDEST PUSH0 PUSH2 0x8EE PUSH2 0x8E9 PUSH2 0x8E4 DUP5 PUSH2 0x444 JUMP JUMPDEST PUSH2 0x8CB JUMP JUMPDEST PUSH2 0x444 JUMP JUMPDEST SWAP1 POP SWAP2 SWAP1 POP JUMP JUMPDEST PUSH0 DUP2 SWAP1 POP SWAP2 SWAP1 POP JUMP JUMPDEST PUSH2 0x907 DUP4 PUSH2 0x8D4 JUMP JUMPDEST PUSH2 0x91B PUSH2 0x913 DUP3 PUSH2 0x8F5 JUMP JUMPDEST DUP5 DUP5 SLOAD PUSH2 0x87A JUMP JUMPDEST DUP3 SSTORE POP POP POP POP JUMP JUMPDEST PUSH0 SWAP1 JUMP JUMPDEST PUSH2 0x92F PUSH2 0x923 JUMP JUMPDEST PUSH2 0x93A DUP2 DUP5 DUP5 PUSH2 0x8FE JUMP JUMPDEST POP POP POP JUMP JUMPDEST JUMPDEST DUP2 DUP2 LT ISZERO PUSH2 0x95D JUMPI PUSH2 0x952 PUSH0 DUP3 PUSH2 0x927 JUMP JUMPDEST PUSH1 0x1 DUP2 ADD SWAP1 POP PUSH2 0x940 JUMP JUMPDEST POP POP JUMP JUMPDEST PUSH1 0x1F DUP3 GT ISZERO PUSH2 0x9A2 JUMPI PUSH2 0x973 DUP2 PUSH2 0x84D JUMP JUMPDEST PUSH2 0x97C DUP5 PUSH2 0x85F JUMP JUMPDEST DUP2 ADD PUSH1 0x20 DUP6 LT ISZERO PUSH2 0x98B JUMPI DUP2 SWAP1 POP JUMPDEST PUSH2 0x99F PUSH2 0x997 DUP6 PUSH2 0x85F JUMP JUMPDEST DUP4 ADD DUP3 PUSH2 0x93F JUMP JUMPDEST POP POP JUMPDEST POP POP POP JUMP JUMPDEST PUSH0 DUP3 DUP3 SHR SWAP1 POP SWAP3 SWAP2 POP POP JUMP JUMPDEST PUSH0 PUSH2 0x9C2 PUSH0 NOT DUP5 PUSH1 0x8 MUL PUSH2 0x9A7 JUMP JUMPDEST NOT DUP1 DUP4 AND SWAP2 POP POP SWAP3 SWAP2 POP POP JUMP JUMPDEST PUSH0 PUSH2 0x9DA DUP4 DUP4 PUSH2 0x9B3 JUMP JUMPDEST SWAP2 POP DUP3 PUSH1 0x2 MUL DUP3 OR SWAP1 POP SWAP3 SWAP2 POP POP JUMP JUMPDEST PUSH2 0x9F3 DUP3 PUSH2 0x3D4 JUMP JUMPDEST PUSH8 0xFFFFFFFFFFFFFFFF DUP2 GT ISZERO PUSH2 0xA0C JUMPI PUSH2 0xA0B PUSH2 0x5A2 JUMP JUMPDEST JUMPDEST PUSH2 0xA16 DUP3 SLOAD PUSH2 0x81D JUMP JUMPDEST PUSH2 0xA21 DUP3 DUP3 DUP6 PUSH2 0x961 JUMP JUMPDEST PUSH0 PUSH1 0x20 SWAP1 POP PUSH1 0x1F DUP4 GT PUSH1 0x1 DUP2 EQ PUSH2 0xA52 JUMPI PUSH0 DUP5 ISZERO PUSH2 0xA40 JUMPI DUP3 DUP8 ADD MLOAD SWAP1 POP JUMPDEST PUSH2 0xA4A DUP6 DUP3 PUSH2 0x9CF JUMP JUMPDEST DUP7 SSTORE POP PUSH2 0xAB1 JUMP JUMPDEST PUSH1 0x1F NOT DUP5 AND PUSH2 0xA60 DUP7 PUSH2 0x84D JUMP JUMPDEST PUSH0 JUMPDEST DUP3 DUP2 LT ISZERO PUSH2 0xA87 JUMPI DUP5 DUP10 ADD MLOAD DUP3 SSTORE PUSH1 0x1 DUP3 ADD SWAP2 POP PUSH1 0x20 DUP6 ADD SWAP5 POP PUSH1 0x20 DUP2 ADD SWAP1 POP PUSH2 0xA62 JUMP JUMPDEST DUP7 DUP4 LT ISZERO PUSH2 0xAA4 JUMPI DUP5 DUP10 ADD MLOAD PUSH2 0xAA0 PUSH1 0x1F DUP10 AND DUP3 PUSH2 0x9B3 JUMP JUMPDEST DUP4 SSTORE POP JUMPDEST PUSH1 0x1 PUSH1 0x2 DUP9 MUL ADD DUP9 SSTORE POP POP POP JUMPDEST POP POP POP POP POP POP JUMP INVALID LOG2 PUSH5 0x6970667358 0x22 SLT KECCAK256 RETURN 0xD9 0xD8 0xB2 PUSH23 0xFBDE6B8F06F9909A25E14C51097871646F2FCCEF462BA9 MOD TIMESTAMP STATICCALL 0xE5 PUSH5 0x736F6C6343 STOP ADDMOD BYTE STOP CALLER "
				},
				"gasEstimates": {
					"creation": {
						"codeDepositCost": "559800",
						"executionCost": "24857",
						"totalCost": "584657"
					},
					"external": {
						"addd_patient_data(string,uint256,string)": "infinite",
						"getPatientData()": "infinite"
					}
				},
				"methodIdentifiers": {
					"addd_patient_data(string,uint256,string)": "60b659d5",
					"getPatientData()": "4344b743"
				}
			},
			"storageLayout": {
				"storage": [
					{
						"astId": 5,
						"contract": "contracts/patient_database-management_Contract.sol:Patient_data_base",
						"label": "owner",
						"offset": 0,
						"slot": "0",
						"type": "t_address"
					},
					{
						"astId": 22,
						"contract": "contracts/patient_database-management_Contract.sol:Patient_data_base",
						"label": "patientMap",
						"offset": 0,
						"slot": "1",
						"type": "t_mapping(t_address,t_struct(MainpatientModel)17_storage)"
					}
				],
				"types": {
					"t_address": {
						"encoding": "inplace",
						"label": "address",
						"numberOfBytes": "20"
					},
					"t_array(t_struct(PatientModel)12_storage)dyn_storage": {
						"base": "t_struct(PatientModel)12_storage",
						"encoding": "dynamic_array",
						"label": "struct Patient_data_base.PatientModel[]",
						"numberOfBytes": "32"
					},
					"t_mapping(t_address,t_struct(MainpatientModel)17_storage)": {
						"encoding": "mapping",
						"key": "t_address",
						"label": "mapping(address => struct Patient_data_base.MainpatientModel)",
						"numberOfBytes": "32",
						"value": "t_struct(MainpatientModel)17_storage"
					},
					"t_string_storage": {
						"encoding": "bytes",
						"label": "string",
						"numberOfBytes": "32"
					},
					"t_struct(MainpatientModel)17_storage": {
						"encoding": "inplace",
						"label": "struct Patient_data_base.MainpatientModel",
						"members": [
							{
								"astId": 16,
								"contract": "contracts/patient_database-management_Contract.sol:Patient_data_base",
								"label": "patientData",
								"offset": 0,
								"slot": "0",
								"type": "t_array(t_struct(PatientModel)12_storage)dyn_storage"
							}
						],
						"numberOfBytes": "32"
					},
					"t_struct(PatientModel)12_storage": {
						"encoding": "inplace",
						"label": "struct Patient_data_base.PatientModel",
						"members": [
							{
								"astId": 7,
								"contract": "contracts/patient_database-management_Contract.sol:Patient_data_base",
								"label": "Patient_Name",
								"offset": 0,
								"slot": "0",
								"type": "t_string_storage"
							},
							{
								"astId": 9,
								"contract": "contracts/patient_database-management_Contract.sol:Patient_data_base",
								"label": "Patient_Age",
								"offset": 0,
								"slot": "1",
								"type": "t_uint256"
							},
							{
								"astId": 11,
								"contract": "contracts/patient_database-management_Contract.sol:Patient_data_base",
								"label": "Patient_patient_appointment_type",
								"offset": 0,
								"slot": "2",
								"type": "t_string_storage"
							}
						],
						"numberOfBytes": "96"
					},
					"t_uint256": {
						"encoding": "inplace",
						"label": "uint256",
						"numberOfBytes": "32"
					}
				}
			},
			"userdoc": {
				"kind": "user",
				"methods": {},
				"version": 1
			}
		}
	}
}