{
	"contracts/doctor.sol": {
		"practice": {
			"abi": [
				{
					"inputs": [
						{
							"internalType": "uint256",
							"name": "_doctorNo",
							"type": "uint256"
						},
						{
							"internalType": "string",
							"name": "_name",
							"type": "string"
						},
						{
							"internalType": "string",
							"name": "_speciality",
							"type": "string"
						},
						{
							"internalType": "uint256",
							"name": "_roomNo",
							"type": "uint256"
						}
					],
					"name": "add_doctor_data",
					"outputs": [],
					"stateMutability": "nonpayable",
					"type": "function"
				},
				{
					"inputs": [
						{
							"internalType": "uint256",
							"name": "_doctorNo",
							"type": "uint256"
						}
					],
					"name": "delete_doctor_data",
					"outputs": [],
					"stateMutability": "nonpayable",
					"type": "function"
				},
				{
					"inputs": [],
					"name": "get_balance_earn_from_patients",
					"outputs": [
						{
							"internalType": "uint256",
							"name": "",
							"type": "uint256"
						},
						{
							"internalType": "address",
							"name": "",
							"type": "address"
						}
					],
					"stateMutability": "view",
					"type": "function"
				},
				{
					"inputs": [
						{
							"internalType": "uint256",
							"name": "_doctorNo",
							"type": "uint256"
						}
					],
					"name": "get_doctor_data",
					"outputs": [
						{
							"components": [
								{
									"components": [
										{
											"internalType": "string",
											"name": "name",
											"type": "string"
										},
										{
											"internalType": "string",
											"name": "speciality",
											"type": "string"
										},
										{
											"internalType": "uint256",
											"name": "roomNo",
											"type": "uint256"
										}
									],
									"internalType": "struct practice.Doctor[]",
									"name": "DoctorsArray",
									"type": "tuple[]"
								}
							],
							"internalType": "struct practice.Doctor_Model",
							"name": "",
							"type": "tuple"
						}
					],
					"stateMutability": "view",
					"type": "function"
				},
				{
					"inputs": [],
					"name": "payment_from_patients",
					"outputs": [],
					"stateMutability": "payable",
					"type": "function"
				},
				{
					"inputs": [],
					"name": "withdraw_funds_to_owner_from_contract",
					"outputs": [],
					"stateMutability": "nonpayable",
					"type": "function"
				}
			],
			"devdoc": {
				"kind": "dev",
				"methods": {},
				"version": 1
			},
			"evm": {
				"assembly": "    /* \"contracts/doctor.sol\":62:1390  contract practice {\r... */\n  mstore(0x40, 0x80)\n    /* \"contracts/doctor.sol\":121:131  msg.sender */\n  caller\n    /* \"contracts/doctor.sol\":89:132  address payable owner = payable(msg.sender) */\n  0x00\n  dup1\n  0x0100\n  exp\n  dup2\n  sload\n  dup2\n  0xffffffffffffffffffffffffffffffffffffffff\n  mul\n  not\n  and\n  swap1\n  dup4\n  0xffffffffffffffffffffffffffffffffffffffff\n  and\n  mul\n  or\n  swap1\n  sstore\n  pop\n    /* \"contracts/doctor.sol\":62:1390  contract practice {\r... */\n  callvalue\n  dup1\n  iszero\n  tag_1\n  jumpi\n  0x00\n  dup1\n  revert\ntag_1:\n  pop\n  dataSize(sub_0)\n  dup1\n  dataOffset(sub_0)\n  0x00\n  codecopy\n  0x00\n  return\nstop\n\nsub_0: assembly {\n        /* \"contracts/doctor.sol\":62:1390  contract practice {\r... */\n      mstore(0x40, 0x80)\n      jumpi(tag_1, lt(calldatasize, 0x04))\n      shr(0xe0, calldataload(0x00))\n      dup1\n      0x05227c1b\n      eq\n      tag_2\n      jumpi\n      dup1\n      0x692e8201\n      eq\n      tag_3\n      jumpi\n      dup1\n      0x8ed20cbe\n      eq\n      tag_4\n      jumpi\n      dup1\n      0xa929ffe1\n      eq\n      tag_5\n      jumpi\n      dup1\n      0xdd1d97cb\n      eq\n      tag_6\n      jumpi\n      dup1\n      0xe16b2eef\n      eq\n      tag_7\n      jumpi\n    tag_1:\n      0x00\n      dup1\n      revert\n        /* \"contracts/doctor.sol\":363:620  function add_doctor_data(uint _doctorNo,string memory _name,string memory _speciality,uint _roomNo)\r... */\n    tag_2:\n      callvalue\n      dup1\n      iszero\n      tag_8\n      jumpi\n      0x00\n      dup1\n      revert\n    tag_8:\n      pop\n      tag_9\n      0x04\n      dup1\n      calldatasize\n      sub\n      dup2\n      add\n      swap1\n      tag_10\n      swap2\n      swap1\n      tag_11\n      jump\t// in\n    tag_10:\n      tag_12\n      jump\t// in\n    tag_9:\n      stop\n        /* \"contracts/doctor.sol\":628:816  function get_doctor_data(uint _doctorNo) view public returns(Doctor_Model memory)\r... */\n    tag_3:\n      callvalue\n      dup1\n      iszero\n      tag_13\n      jumpi\n      0x00\n      dup1\n      revert\n    tag_13:\n      pop\n      tag_14\n      0x04\n      dup1\n      calldatasize\n      sub\n      dup2\n      add\n      swap1\n      tag_15\n      swap2\n      swap1\n      tag_16\n      jump\t// in\n    tag_15:\n      tag_17\n      jump\t// in\n    tag_14:\n      mload(0x40)\n      tag_18\n      swap2\n      swap1\n      tag_19\n      jump\t// in\n    tag_18:\n      mload(0x40)\n      dup1\n      swap2\n      sub\n      swap1\n      return\n        /* \"contracts/doctor.sol\":1257:1385  function withdraw_funds_to_owner_from_contract() public \r... */\n    tag_4:\n      callvalue\n      dup1\n      iszero\n      tag_20\n      jumpi\n      0x00\n      dup1\n      revert\n    tag_20:\n      pop\n      tag_21\n      tag_22\n      jump\t// in\n    tag_21:\n      stop\n        /* \"contracts/doctor.sol\":824:944  function delete_doctor_data(uint _doctorNo) public \r... */\n    tag_5:\n      callvalue\n      dup1\n      iszero\n      tag_23\n      jumpi\n      0x00\n      dup1\n      revert\n    tag_23:\n      pop\n      tag_24\n      0x04\n      dup1\n      calldatasize\n      sub\n      dup2\n      add\n      swap1\n      tag_25\n      swap2\n      swap1\n      tag_16\n      jump\t// in\n    tag_25:\n      tag_26\n      jump\t// in\n    tag_24:\n      stop\n        /* \"contracts/doctor.sol\":1024:1249  function get_balance_earn_from_patients() public view returns(uint,address)\r... */\n    tag_6:\n      callvalue\n      dup1\n      iszero\n      tag_27\n      jumpi\n      0x00\n      dup1\n      revert\n    tag_27:\n      pop\n      tag_28\n      tag_29\n      jump\t// in\n    tag_28:\n      mload(0x40)\n      tag_30\n      swap3\n      swap2\n      swap1\n      tag_31\n      jump\t// in\n    tag_30:\n      mload(0x40)\n      dup1\n      swap2\n      sub\n      swap1\n      return\n        /* \"contracts/doctor.sol\":952:1016  function payment_from_patients() public payable \r... */\n    tag_7:\n      tag_32\n      tag_33\n      jump\t// in\n    tag_32:\n      stop\n        /* \"contracts/doctor.sol\":363:620  function add_doctor_data(uint _doctorNo,string memory _name,string memory _speciality,uint _roomNo)\r... */\n    tag_12:\n        /* \"contracts/doctor.sol\":492:512  Doctor memory doctor */\n      0x00\n        /* \"contracts/doctor.sol\":515:548  Doctor(_name,_speciality,_roomNo) */\n      mload(0x40)\n      dup1\n      0x60\n      add\n      0x40\n      mstore\n      dup1\n        /* \"contracts/doctor.sol\":522:527  _name */\n      dup6\n        /* \"contracts/doctor.sol\":515:548  Doctor(_name,_speciality,_roomNo) */\n      dup2\n      mstore\n      0x20\n      add\n        /* \"contracts/doctor.sol\":528:539  _speciality */\n      dup5\n        /* \"contracts/doctor.sol\":515:548  Doctor(_name,_speciality,_roomNo) */\n      dup2\n      mstore\n      0x20\n      add\n        /* \"contracts/doctor.sol\":540:547  _roomNo */\n      dup4\n        /* \"contracts/doctor.sol\":515:548  Doctor(_name,_speciality,_roomNo) */\n      dup2\n      mstore\n      pop\n        /* \"contracts/doctor.sol\":492:548  Doctor memory doctor = Doctor(_name,_speciality,_roomNo) */\n      swap1\n      pop\n        /* \"contracts/doctor.sol\":559:573  doctor_mapping */\n      0x01\n        /* \"contracts/doctor.sol\":559:584  doctor_mapping[_doctorNo] */\n      0x00\n        /* \"contracts/doctor.sol\":574:583  _doctorNo */\n      dup7\n        /* \"contracts/doctor.sol\":559:584  doctor_mapping[_doctorNo] */\n      dup2\n      mstore\n      0x20\n      add\n      swap1\n      dup2\n      mstore\n      0x20\n      add\n      0x00\n      keccak256\n        /* \"contracts/doctor.sol\":559:597  doctor_mapping[_doctorNo].DoctorsArray */\n      0x00\n      add\n        /* \"contracts/doctor.sol\":603:609  doctor */\n      dup2\n        /* \"contracts/doctor.sol\":559:610  doctor_mapping[_doctorNo].DoctorsArray.push(doctor) */\n      swap1\n      dup1\n      0x01\n      dup2\n      sload\n      add\n      dup1\n      dup3\n      sstore\n      dup1\n      swap2\n      pop\n      pop\n      0x01\n      swap1\n      sub\n      swap1\n      0x00\n      mstore\n      keccak256(0x00, 0x20)\n      swap1\n      0x03\n      mul\n      add\n      0x00\n      swap1\n      swap2\n      swap1\n      swap2\n      swap1\n      swap2\n      pop\n      0x00\n      dup3\n      add\n      mload\n      dup2\n      0x00\n      add\n      swap1\n      dup1\n      mload\n      swap1\n      0x20\n      add\n      swap1\n      tag_36\n      swap3\n      swap2\n      swap1\n      tag_37\n      jump\t// in\n    tag_36:\n      pop\n      0x20\n      dup3\n      add\n      mload\n      dup2\n      0x01\n      add\n      swap1\n      dup1\n      mload\n      swap1\n      0x20\n      add\n      swap1\n      tag_38\n      swap3\n      swap2\n      swap1\n      tag_37\n      jump\t// in\n    tag_38:\n      pop\n      0x40\n      dup3\n      add\n      mload\n      dup2\n      0x02\n      add\n      sstore\n      pop\n      pop\n        /* \"contracts/doctor.sol\":481:620  {\r... */\n      pop\n        /* \"contracts/doctor.sol\":363:620  function add_doctor_data(uint _doctorNo,string memory _name,string memory _speciality,uint _roomNo)\r... */\n      pop\n      pop\n      pop\n      pop\n      jump\t// out\n        /* \"contracts/doctor.sol\":628:816  function get_doctor_data(uint _doctorNo) view public returns(Doctor_Model memory)\r... */\n    tag_17:\n        /* \"contracts/doctor.sol\":689:708  Doctor_Model memory */\n      tag_39\n      tag_40\n      jump\t// in\n    tag_39:\n        /* \"contracts/doctor.sol\":726:753  Doctor_Model memory doctors */\n      0x00\n        /* \"contracts/doctor.sol\":756:770  doctor_mapping */\n      0x01\n        /* \"contracts/doctor.sol\":756:781  doctor_mapping[_doctorNo] */\n      0x00\n        /* \"contracts/doctor.sol\":771:780  _doctorNo */\n      dup5\n        /* \"contracts/doctor.sol\":756:781  doctor_mapping[_doctorNo] */\n      dup2\n      mstore\n      0x20\n      add\n      swap1\n      dup2\n      mstore\n      0x20\n      add\n      0x00\n      keccak256\n        /* \"contracts/doctor.sol\":726:781  Doctor_Model memory doctors = doctor_mapping[_doctorNo] */\n      mload(0x40)\n      dup1\n      0x20\n      add\n      0x40\n      mstore\n      swap1\n      dup2\n      0x00\n      dup3\n      add\n      dup1\n      sload\n      dup1\n      0x20\n      mul\n      0x20\n      add\n      mload(0x40)\n      swap1\n      dup2\n      add\n      0x40\n      mstore\n      dup1\n      swap3\n      swap2\n      swap1\n      dup2\n      dup2\n      mstore\n      0x20\n      add\n      0x00\n      swap1\n    tag_42:\n      dup3\n      dup3\n      lt\n      iszero\n      tag_43\n      jumpi\n      dup4\n      dup3\n      swap1\n      0x00\n      mstore\n      keccak256(0x00, 0x20)\n      swap1\n      0x03\n      mul\n      add\n      mload(0x40)\n      dup1\n      0x60\n      add\n      0x40\n      mstore\n      swap1\n      dup2\n      0x00\n      dup3\n      add\n      dup1\n      sload\n      tag_45\n      swap1\n      tag_46\n      jump\t// in\n    tag_45:\n      dup1\n      0x1f\n      add\n      0x20\n      dup1\n      swap2\n      div\n      mul\n      0x20\n      add\n      mload(0x40)\n      swap1\n      dup2\n      add\n      0x40\n      mstore\n      dup1\n      swap3\n      swap2\n      swap1\n      dup2\n      dup2\n      mstore\n      0x20\n      add\n      dup3\n      dup1\n      sload\n      tag_47\n      swap1\n      tag_46\n      jump\t// in\n    tag_47:\n      dup1\n      iszero\n      tag_48\n      jumpi\n      dup1\n      0x1f\n      lt\n      tag_49\n      jumpi\n      0x0100\n      dup1\n      dup4\n      sload\n      div\n      mul\n      dup4\n      mstore\n      swap2\n      0x20\n      add\n      swap2\n      jump(tag_48)\n    tag_49:\n      dup3\n      add\n      swap2\n      swap1\n      0x00\n      mstore\n      keccak256(0x00, 0x20)\n      swap1\n    tag_50:\n      dup2\n      sload\n      dup2\n      mstore\n      swap1\n      0x01\n      add\n      swap1\n      0x20\n      add\n      dup1\n      dup4\n      gt\n      tag_50\n      jumpi\n      dup3\n      swap1\n      sub\n      0x1f\n      and\n      dup3\n      add\n      swap2\n    tag_48:\n      pop\n      pop\n      pop\n      pop\n      pop\n      dup2\n      mstore\n      0x20\n      add\n      0x01\n      dup3\n      add\n      dup1\n      sload\n      tag_51\n      swap1\n      tag_46\n      jump\t// in\n    tag_51:\n      dup1\n      0x1f\n      add\n      0x20\n      dup1\n      swap2\n      div\n      mul\n      0x20\n      add\n      mload(0x40)\n      swap1\n      dup2\n      add\n      0x40\n      mstore\n      dup1\n      swap3\n      swap2\n      swap1\n      dup2\n      dup2\n      mstore\n      0x20\n      add\n      dup3\n      dup1\n      sload\n      tag_52\n      swap1\n      tag_46\n      jump\t// in\n    tag_52:\n      dup1\n      iszero\n      tag_53\n      jumpi\n      dup1\n      0x1f\n      lt\n      tag_54\n      jumpi\n      0x0100\n      dup1\n      dup4\n      sload\n      div\n      mul\n      dup4\n      mstore\n      swap2\n      0x20\n      add\n      swap2\n      jump(tag_53)\n    tag_54:\n      dup3\n      add\n      swap2\n      swap1\n      0x00\n      mstore\n      keccak256(0x00, 0x20)\n      swap1\n    tag_55:\n      dup2\n      sload\n      dup2\n      mstore\n      swap1\n      0x01\n      add\n      swap1\n      0x20\n      add\n      dup1\n      dup4\n      gt\n      tag_55\n      jumpi\n      dup3\n      swap1\n      sub\n      0x1f\n      and\n      dup3\n      add\n      swap2\n    tag_53:\n      pop\n      pop\n      pop\n      pop\n      pop\n      dup2\n      mstore\n      0x20\n      add\n      0x02\n      dup3\n      add\n      sload\n      dup2\n      mstore\n      pop\n      pop\n      dup2\n      mstore\n      0x20\n      add\n      swap1\n      0x01\n      add\n      swap1\n      jump(tag_42)\n    tag_43:\n      pop\n      pop\n      pop\n      pop\n      dup2\n      mstore\n      pop\n      pop\n      swap1\n      pop\n        /* \"contracts/doctor.sol\":799:806  doctors */\n      dup1\n        /* \"contracts/doctor.sol\":792:806  return doctors */\n      swap2\n      pop\n      pop\n        /* \"contracts/doctor.sol\":628:816  function get_doctor_data(uint _doctorNo) view public returns(Doctor_Model memory)\r... */\n      swap2\n      swap1\n      pop\n      jump\t// out\n        /* \"contracts/doctor.sol\":1257:1385  function withdraw_funds_to_owner_from_contract() public \r... */\n    tag_22:\n        /* \"contracts/doctor.sol\":1340:1345  owner */\n      0x00\n      dup1\n      sload\n      swap1\n      0x0100\n      exp\n      swap1\n      div\n      0xffffffffffffffffffffffffffffffffffffffff\n      and\n        /* \"contracts/doctor.sol\":1340:1354  owner.transfer */\n      0xffffffffffffffffffffffffffffffffffffffff\n      and\n        /* \"contracts/doctor.sol\":1340:1377  owner.transfer(address(this).balance) */\n      0x08fc\n        /* \"contracts/doctor.sol\":1355:1376  address(this).balance */\n      selfbalance\n        /* \"contracts/doctor.sol\":1340:1377  owner.transfer(address(this).balance) */\n      swap1\n      dup2\n      iszero\n      mul\n      swap1\n      mload(0x40)\n      0x00\n      mload(0x40)\n      dup1\n      dup4\n      sub\n      dup2\n      dup6\n      dup9\n      dup9\n      call\n      swap4\n      pop\n      pop\n      pop\n      pop\n      iszero\n      dup1\n      iszero\n      tag_58\n      jumpi\n      returndatasize\n      0x00\n      dup1\n      returndatacopy\n      revert(0x00, returndatasize)\n    tag_58:\n      pop\n        /* \"contracts/doctor.sol\":1257:1385  function withdraw_funds_to_owner_from_contract() public \r... */\n      jump\t// out\n        /* \"contracts/doctor.sol\":824:944  function delete_doctor_data(uint _doctorNo) public \r... */\n    tag_26:\n        /* \"contracts/doctor.sol\":892:906  doctor_mapping */\n      0x01\n        /* \"contracts/doctor.sol\":892:917  doctor_mapping[_doctorNo] */\n      0x00\n        /* \"contracts/doctor.sol\":907:916  _doctorNo */\n      dup3\n        /* \"contracts/doctor.sol\":892:917  doctor_mapping[_doctorNo] */\n      dup2\n      mstore\n      0x20\n      add\n      swap1\n      dup2\n      mstore\n      0x20\n      add\n      0x00\n      keccak256\n        /* \"contracts/doctor.sol\":892:930  doctor_mapping[_doctorNo].DoctorsArray */\n      0x00\n      add\n        /* \"contracts/doctor.sol\":892:936  doctor_mapping[_doctorNo].DoctorsArray.pop() */\n      dup1\n      sload\n      dup1\n      tag_60\n      jumpi\n      tag_61\n      tag_62\n      jump\t// in\n    tag_61:\n    tag_60:\n      0x01\n      swap1\n      sub\n      dup2\n      dup2\n      swap1\n      0x00\n      mstore\n      keccak256(0x00, 0x20)\n      swap1\n      0x03\n      mul\n      add\n      0x00\n      dup1\n      dup3\n      add\n      0x00\n      tag_64\n      swap2\n      swap1\n      tag_65\n      jump\t// in\n    tag_64:\n      0x01\n      dup3\n      add\n      0x00\n      tag_66\n      swap2\n      swap1\n      tag_65\n      jump\t// in\n    tag_66:\n      0x02\n      dup3\n      add\n      0x00\n      swap1\n      sstore\n      pop\n      pop\n      swap1\n      sstore\n        /* \"contracts/doctor.sol\":824:944  function delete_doctor_data(uint _doctorNo) public \r... */\n      pop\n      jump\t// out\n        /* \"contracts/doctor.sol\":1024:1249  function get_balance_earn_from_patients() public view returns(uint,address)\r... */\n    tag_29:\n        /* \"contracts/doctor.sol\":1086:1090  uint */\n      0x00\n        /* \"contracts/doctor.sol\":1091:1098  address */\n      dup1\n        /* \"contracts/doctor.sol\":1133:1143  msg.sender */\n      caller\n        /* \"contracts/doctor.sol\":1124:1143  owner == msg.sender */\n      0xffffffffffffffffffffffffffffffffffffffff\n      and\n        /* \"contracts/doctor.sol\":1124:1129  owner */\n      0x00\n      dup1\n      sload\n      swap1\n      0x0100\n      exp\n      swap1\n      div\n      0xffffffffffffffffffffffffffffffffffffffff\n      and\n        /* \"contracts/doctor.sol\":1124:1143  owner == msg.sender */\n      0xffffffffffffffffffffffffffffffffffffffff\n      and\n      eq\n        /* \"contracts/doctor.sol\":1116:1185  require(owner == msg.sender,\"You cannot have access to read balance\") */\n      tag_68\n      jumpi\n      mload(0x40)\n      0x08c379a000000000000000000000000000000000000000000000000000000000\n      dup2\n      mstore\n      0x04\n      add\n      tag_69\n      swap1\n      tag_70\n      jump\t// in\n    tag_69:\n      mload(0x40)\n      dup1\n      swap2\n      sub\n      swap1\n      revert\n    tag_68:\n        /* \"contracts/doctor.sol\":1203:1224  address(this).balance */\n      selfbalance\n        /* \"contracts/doctor.sol\":1233:1237  this */\n      address\n        /* \"contracts/doctor.sol\":1196:1239  return(address(this).balance,address(this)) */\n      swap2\n      pop\n      swap2\n      pop\n        /* \"contracts/doctor.sol\":1024:1249  function get_balance_earn_from_patients() public view returns(uint,address)\r... */\n      swap1\n      swap2\n      jump\t// out\n        /* \"contracts/doctor.sol\":952:1016  function payment_from_patients() public payable \r... */\n    tag_33:\n      jump\t// out\n    tag_37:\n      dup3\n      dup1\n      sload\n      tag_72\n      swap1\n      tag_46\n      jump\t// in\n    tag_72:\n      swap1\n      0x00\n      mstore\n      keccak256(0x00, 0x20)\n      swap1\n      0x1f\n      add\n      0x20\n      swap1\n      div\n      dup2\n      add\n      swap3\n      dup3\n      tag_74\n      jumpi\n      0x00\n      dup6\n      sstore\n      jump(tag_73)\n    tag_74:\n      dup3\n      0x1f\n      lt\n      tag_75\n      jumpi\n      dup1\n      mload\n      not(0xff)\n      and\n      dup4\n      dup1\n      add\n      or\n      dup6\n      sstore\n      jump(tag_73)\n    tag_75:\n      dup3\n      dup1\n      add\n      0x01\n      add\n      dup6\n      sstore\n      dup3\n      iszero\n      tag_73\n      jumpi\n      swap2\n      dup3\n      add\n    tag_76:\n      dup3\n      dup2\n      gt\n      iszero\n      tag_77\n      jumpi\n      dup3\n      mload\n      dup3\n      sstore\n      swap2\n      0x20\n      add\n      swap2\n      swap1\n      0x01\n      add\n      swap1\n      jump(tag_76)\n    tag_77:\n    tag_73:\n      pop\n      swap1\n      pop\n      tag_78\n      swap2\n      swap1\n      tag_79\n      jump\t// in\n    tag_78:\n      pop\n      swap1\n      jump\t// out\n    tag_40:\n      mload(0x40)\n      dup1\n      0x20\n      add\n      0x40\n      mstore\n      dup1\n      0x60\n      dup2\n      mstore\n      pop\n      swap1\n      jump\t// out\n    tag_65:\n      pop\n      dup1\n      sload\n      tag_80\n      swap1\n      tag_46\n      jump\t// in\n    tag_80:\n      0x00\n      dup3\n      sstore\n      dup1\n      0x1f\n      lt\n      tag_82\n      jumpi\n      pop\n      jump(tag_81)\n    tag_82:\n      0x1f\n      add\n      0x20\n      swap1\n      div\n      swap1\n      0x00\n      mstore\n      keccak256(0x00, 0x20)\n      swap1\n      dup2\n      add\n      swap1\n      tag_83\n      swap2\n      swap1\n      tag_79\n      jump\t// in\n    tag_83:\n    tag_81:\n      pop\n      jump\t// out\n    tag_79:\n    tag_84:\n      dup1\n      dup3\n      gt\n      iszero\n      tag_85\n      jumpi\n      0x00\n      dup2\n      0x00\n      swap1\n      sstore\n      pop\n      0x01\n      add\n      jump(tag_84)\n    tag_85:\n      pop\n      swap1\n      jump\t// out\n        /* \"#utility.yul\":7:419   */\n    tag_87:\n        /* \"#utility.yul\":85:90   */\n      0x00\n        /* \"#utility.yul\":110:176   */\n      tag_89\n        /* \"#utility.yul\":126:175   */\n      tag_90\n        /* \"#utility.yul\":168:174   */\n      dup5\n        /* \"#utility.yul\":126:175   */\n      tag_91\n      jump\t// in\n    tag_90:\n        /* \"#utility.yul\":110:176   */\n      tag_92\n      jump\t// in\n    tag_89:\n        /* \"#utility.yul\":101:176   */\n      swap1\n      pop\n        /* \"#utility.yul\":199:205   */\n      dup3\n        /* \"#utility.yul\":192:197   */\n      dup2\n        /* \"#utility.yul\":185:206   */\n      mstore\n        /* \"#utility.yul\":237:241   */\n      0x20\n        /* \"#utility.yul\":230:235   */\n      dup2\n        /* \"#utility.yul\":226:242   */\n      add\n        /* \"#utility.yul\":275:278   */\n      dup5\n        /* \"#utility.yul\":266:272   */\n      dup5\n        /* \"#utility.yul\":261:264   */\n      dup5\n        /* \"#utility.yul\":257:273   */\n      add\n        /* \"#utility.yul\":254:279   */\n      gt\n        /* \"#utility.yul\":251:363   */\n      iszero\n      tag_93\n      jumpi\n        /* \"#utility.yul\":282:361   */\n      tag_94\n      tag_95\n      jump\t// in\n    tag_94:\n        /* \"#utility.yul\":251:363   */\n    tag_93:\n        /* \"#utility.yul\":372:413   */\n      tag_96\n        /* \"#utility.yul\":406:412   */\n      dup5\n        /* \"#utility.yul\":401:404   */\n      dup3\n        /* \"#utility.yul\":396:399   */\n      dup6\n        /* \"#utility.yul\":372:413   */\n      tag_97\n      jump\t// in\n    tag_96:\n        /* \"#utility.yul\":91:419   */\n      pop\n        /* \"#utility.yul\":7:419   */\n      swap4\n      swap3\n      pop\n      pop\n      pop\n      jump\t// out\n        /* \"#utility.yul\":439:779   */\n    tag_98:\n        /* \"#utility.yul\":495:500   */\n      0x00\n        /* \"#utility.yul\":544:547   */\n      dup3\n        /* \"#utility.yul\":537:541   */\n      0x1f\n        /* \"#utility.yul\":529:535   */\n      dup4\n        /* \"#utility.yul\":525:542   */\n      add\n        /* \"#utility.yul\":521:548   */\n      slt\n        /* \"#utility.yul\":511:633   */\n      tag_100\n      jumpi\n        /* \"#utility.yul\":552:631   */\n      tag_101\n      tag_102\n      jump\t// in\n    tag_101:\n        /* \"#utility.yul\":511:633   */\n    tag_100:\n        /* \"#utility.yul\":669:675   */\n      dup2\n        /* \"#utility.yul\":656:676   */\n      calldataload\n        /* \"#utility.yul\":694:773   */\n      tag_103\n        /* \"#utility.yul\":769:772   */\n      dup5\n        /* \"#utility.yul\":761:767   */\n      dup3\n        /* \"#utility.yul\":754:758   */\n      0x20\n        /* \"#utility.yul\":746:752   */\n      dup7\n        /* \"#utility.yul\":742:759   */\n      add\n        /* \"#utility.yul\":694:773   */\n      tag_87\n      jump\t// in\n    tag_103:\n        /* \"#utility.yul\":685:773   */\n      swap2\n      pop\n        /* \"#utility.yul\":501:779   */\n      pop\n        /* \"#utility.yul\":439:779   */\n      swap3\n      swap2\n      pop\n      pop\n      jump\t// out\n        /* \"#utility.yul\":785:924   */\n    tag_104:\n        /* \"#utility.yul\":831:836   */\n      0x00\n        /* \"#utility.yul\":869:875   */\n      dup2\n        /* \"#utility.yul\":856:876   */\n      calldataload\n        /* \"#utility.yul\":847:876   */\n      swap1\n      pop\n        /* \"#utility.yul\":885:918   */\n      tag_106\n        /* \"#utility.yul\":912:917   */\n      dup2\n        /* \"#utility.yul\":885:918   */\n      tag_107\n      jump\t// in\n    tag_106:\n        /* \"#utility.yul\":785:924   */\n      swap3\n      swap2\n      pop\n      pop\n      jump\t// out\n        /* \"#utility.yul\":930:1259   */\n    tag_16:\n        /* \"#utility.yul\":989:995   */\n      0x00\n        /* \"#utility.yul\":1038:1040   */\n      0x20\n        /* \"#utility.yul\":1026:1035   */\n      dup3\n        /* \"#utility.yul\":1017:1024   */\n      dup5\n        /* \"#utility.yul\":1013:1036   */\n      sub\n        /* \"#utility.yul\":1009:1041   */\n      slt\n        /* \"#utility.yul\":1006:1125   */\n      iszero\n      tag_109\n      jumpi\n        /* \"#utility.yul\":1044:1123   */\n      tag_110\n      tag_111\n      jump\t// in\n    tag_110:\n        /* \"#utility.yul\":1006:1125   */\n    tag_109:\n        /* \"#utility.yul\":1164:1165   */\n      0x00\n        /* \"#utility.yul\":1189:1242   */\n      tag_112\n        /* \"#utility.yul\":1234:1241   */\n      dup5\n        /* \"#utility.yul\":1225:1231   */\n      dup3\n        /* \"#utility.yul\":1214:1223   */\n      dup6\n        /* \"#utility.yul\":1210:1232   */\n      add\n        /* \"#utility.yul\":1189:1242   */\n      tag_104\n      jump\t// in\n    tag_112:\n        /* \"#utility.yul\":1179:1242   */\n      swap2\n      pop\n        /* \"#utility.yul\":1135:1252   */\n      pop\n        /* \"#utility.yul\":930:1259   */\n      swap3\n      swap2\n      pop\n      pop\n      jump\t// out\n        /* \"#utility.yul\":1265:2390   */\n    tag_11:\n        /* \"#utility.yul\":1371:1377   */\n      0x00\n        /* \"#utility.yul\":1379:1385   */\n      dup1\n        /* \"#utility.yul\":1387:1393   */\n      0x00\n        /* \"#utility.yul\":1395:1401   */\n      dup1\n        /* \"#utility.yul\":1444:1447   */\n      0x80\n        /* \"#utility.yul\":1432:1441   */\n      dup6\n        /* \"#utility.yul\":1423:1430   */\n      dup8\n        /* \"#utility.yul\":1419:1442   */\n      sub\n        /* \"#utility.yul\":1415:1448   */\n      slt\n        /* \"#utility.yul\":1412:1532   */\n      iszero\n      tag_114\n      jumpi\n        /* \"#utility.yul\":1451:1530   */\n      tag_115\n      tag_111\n      jump\t// in\n    tag_115:\n        /* \"#utility.yul\":1412:1532   */\n    tag_114:\n        /* \"#utility.yul\":1571:1572   */\n      0x00\n        /* \"#utility.yul\":1596:1649   */\n      tag_116\n        /* \"#utility.yul\":1641:1648   */\n      dup8\n        /* \"#utility.yul\":1632:1638   */\n      dup3\n        /* \"#utility.yul\":1621:1630   */\n      dup9\n        /* \"#utility.yul\":1617:1639   */\n      add\n        /* \"#utility.yul\":1596:1649   */\n      tag_104\n      jump\t// in\n    tag_116:\n        /* \"#utility.yul\":1586:1649   */\n      swap5\n      pop\n        /* \"#utility.yul\":1542:1659   */\n      pop\n        /* \"#utility.yul\":1726:1728   */\n      0x20\n        /* \"#utility.yul\":1715:1724   */\n      dup6\n        /* \"#utility.yul\":1711:1729   */\n      add\n        /* \"#utility.yul\":1698:1730   */\n      calldataload\n        /* \"#utility.yul\":1757:1775   */\n      0xffffffffffffffff\n        /* \"#utility.yul\":1749:1755   */\n      dup2\n        /* \"#utility.yul\":1746:1776   */\n      gt\n        /* \"#utility.yul\":1743:1860   */\n      iszero\n      tag_117\n      jumpi\n        /* \"#utility.yul\":1779:1858   */\n      tag_118\n      tag_119\n      jump\t// in\n    tag_118:\n        /* \"#utility.yul\":1743:1860   */\n    tag_117:\n        /* \"#utility.yul\":1884:1947   */\n      tag_120\n        /* \"#utility.yul\":1939:1946   */\n      dup8\n        /* \"#utility.yul\":1930:1936   */\n      dup3\n        /* \"#utility.yul\":1919:1928   */\n      dup9\n        /* \"#utility.yul\":1915:1937   */\n      add\n        /* \"#utility.yul\":1884:1947   */\n      tag_98\n      jump\t// in\n    tag_120:\n        /* \"#utility.yul\":1874:1947   */\n      swap4\n      pop\n        /* \"#utility.yul\":1669:1957   */\n      pop\n        /* \"#utility.yul\":2024:2026   */\n      0x40\n        /* \"#utility.yul\":2013:2022   */\n      dup6\n        /* \"#utility.yul\":2009:2027   */\n      add\n        /* \"#utility.yul\":1996:2028   */\n      calldataload\n        /* \"#utility.yul\":2055:2073   */\n      0xffffffffffffffff\n        /* \"#utility.yul\":2047:2053   */\n      dup2\n        /* \"#utility.yul\":2044:2074   */\n      gt\n        /* \"#utility.yul\":2041:2158   */\n      iszero\n      tag_121\n      jumpi\n        /* \"#utility.yul\":2077:2156   */\n      tag_122\n      tag_119\n      jump\t// in\n    tag_122:\n        /* \"#utility.yul\":2041:2158   */\n    tag_121:\n        /* \"#utility.yul\":2182:2245   */\n      tag_123\n        /* \"#utility.yul\":2237:2244   */\n      dup8\n        /* \"#utility.yul\":2228:2234   */\n      dup3\n        /* \"#utility.yul\":2217:2226   */\n      dup9\n        /* \"#utility.yul\":2213:2235   */\n      add\n        /* \"#utility.yul\":2182:2245   */\n      tag_98\n      jump\t// in\n    tag_123:\n        /* \"#utility.yul\":2172:2245   */\n      swap3\n      pop\n        /* \"#utility.yul\":1967:2255   */\n      pop\n        /* \"#utility.yul\":2294:2296   */\n      0x60\n        /* \"#utility.yul\":2320:2373   */\n      tag_124\n        /* \"#utility.yul\":2365:2372   */\n      dup8\n        /* \"#utility.yul\":2356:2362   */\n      dup3\n        /* \"#utility.yul\":2345:2354   */\n      dup9\n        /* \"#utility.yul\":2341:2363   */\n      add\n        /* \"#utility.yul\":2320:2373   */\n      tag_104\n      jump\t// in\n    tag_124:\n        /* \"#utility.yul\":2310:2373   */\n      swap2\n      pop\n        /* \"#utility.yul\":2265:2383   */\n      pop\n        /* \"#utility.yul\":1265:2390   */\n      swap3\n      swap6\n      swap2\n      swap5\n      pop\n      swap3\n      pop\n      jump\t// out\n        /* \"#utility.yul\":2396:2640   */\n    tag_125:\n        /* \"#utility.yul\":2509:2519   */\n      0x00\n        /* \"#utility.yul\":2544:2634   */\n      tag_127\n        /* \"#utility.yul\":2630:2633   */\n      dup4\n        /* \"#utility.yul\":2622:2628   */\n      dup4\n        /* \"#utility.yul\":2544:2634   */\n      tag_128\n      jump\t// in\n    tag_127:\n        /* \"#utility.yul\":2530:2634   */\n      swap1\n      pop\n        /* \"#utility.yul\":2396:2640   */\n      swap3\n      swap2\n      pop\n      pop\n      jump\t// out\n        /* \"#utility.yul\":2646:2764   */\n    tag_129:\n        /* \"#utility.yul\":2733:2757   */\n      tag_131\n        /* \"#utility.yul\":2751:2756   */\n      dup2\n        /* \"#utility.yul\":2733:2757   */\n      tag_132\n      jump\t// in\n    tag_131:\n        /* \"#utility.yul\":2728:2731   */\n      dup3\n        /* \"#utility.yul\":2721:2758   */\n      mstore\n        /* \"#utility.yul\":2646:2764   */\n      pop\n      pop\n      jump\t// out\n        /* \"#utility.yul\":2830:3897   */\n    tag_133:\n        /* \"#utility.yul\":2983:2986   */\n      0x00\n        /* \"#utility.yul\":3012:3088   */\n      tag_135\n        /* \"#utility.yul\":3082:3087   */\n      dup3\n        /* \"#utility.yul\":3012:3088   */\n      tag_136\n      jump\t// in\n    tag_135:\n        /* \"#utility.yul\":3104:3202   */\n      tag_137\n        /* \"#utility.yul\":3195:3201   */\n      dup2\n        /* \"#utility.yul\":3190:3193   */\n      dup6\n        /* \"#utility.yul\":3104:3202   */\n      tag_138\n      jump\t// in\n    tag_137:\n        /* \"#utility.yul\":3097:3202   */\n      swap4\n      pop\n        /* \"#utility.yul\":3228:3231   */\n      dup4\n        /* \"#utility.yul\":3273:3277   */\n      0x20\n        /* \"#utility.yul\":3265:3271   */\n      dup3\n        /* \"#utility.yul\":3261:3278   */\n      mul\n        /* \"#utility.yul\":3256:3259   */\n      dup6\n        /* \"#utility.yul\":3252:3279   */\n      add\n        /* \"#utility.yul\":3303:3381   */\n      tag_139\n        /* \"#utility.yul\":3375:3380   */\n      dup6\n        /* \"#utility.yul\":3303:3381   */\n      tag_140\n      jump\t// in\n    tag_139:\n        /* \"#utility.yul\":3404:3411   */\n      dup1\n        /* \"#utility.yul\":3435:3436   */\n      0x00\n        /* \"#utility.yul\":3420:3852   */\n    tag_141:\n        /* \"#utility.yul\":3445:3451   */\n      dup6\n        /* \"#utility.yul\":3442:3443   */\n      dup2\n        /* \"#utility.yul\":3439:3452   */\n      lt\n        /* \"#utility.yul\":3420:3852   */\n      iszero\n      tag_143\n      jumpi\n        /* \"#utility.yul\":3516:3525   */\n      dup5\n        /* \"#utility.yul\":3510:3514   */\n      dup5\n        /* \"#utility.yul\":3506:3526   */\n      sub\n        /* \"#utility.yul\":3501:3504   */\n      dup10\n        /* \"#utility.yul\":3494:3527   */\n      mstore\n        /* \"#utility.yul\":3567:3573   */\n      dup2\n        /* \"#utility.yul\":3561:3574   */\n      mload\n        /* \"#utility.yul\":3595:3703   */\n      tag_144\n        /* \"#utility.yul\":3698:3702   */\n      dup6\n        /* \"#utility.yul\":3683:3696   */\n      dup3\n        /* \"#utility.yul\":3595:3703   */\n      tag_125\n      jump\t// in\n    tag_144:\n        /* \"#utility.yul\":3587:3703   */\n      swap5\n      pop\n        /* \"#utility.yul\":3726:3808   */\n      tag_145\n        /* \"#utility.yul\":3801:3807   */\n      dup4\n        /* \"#utility.yul\":3726:3808   */\n      tag_146\n      jump\t// in\n    tag_145:\n        /* \"#utility.yul\":3716:3808   */\n      swap3\n      pop\n        /* \"#utility.yul\":3837:3841   */\n      0x20\n        /* \"#utility.yul\":3832:3835   */\n      dup11\n        /* \"#utility.yul\":3828:3842   */\n      add\n        /* \"#utility.yul\":3821:3842   */\n      swap10\n      pop\n        /* \"#utility.yul\":3480:3852   */\n      pop\n        /* \"#utility.yul\":3467:3468   */\n      0x01\n        /* \"#utility.yul\":3464:3465   */\n      dup2\n        /* \"#utility.yul\":3460:3469   */\n      add\n        /* \"#utility.yul\":3455:3469   */\n      swap1\n      pop\n        /* \"#utility.yul\":3420:3852   */\n      jump(tag_141)\n    tag_143:\n        /* \"#utility.yul\":3424:3438   */\n      pop\n        /* \"#utility.yul\":3868:3872   */\n      dup3\n        /* \"#utility.yul\":3861:3872   */\n      swap8\n      pop\n        /* \"#utility.yul\":3888:3891   */\n      dup8\n        /* \"#utility.yul\":3881:3891   */\n      swap6\n      pop\n        /* \"#utility.yul\":2988:3897   */\n      pop\n      pop\n      pop\n      pop\n      pop\n        /* \"#utility.yul\":2830:3897   */\n      swap3\n      swap2\n      pop\n      pop\n      jump\t// out\n        /* \"#utility.yul\":3903:4247   */\n    tag_147:\n        /* \"#utility.yul\":3981:3984   */\n      0x00\n        /* \"#utility.yul\":4009:4048   */\n      tag_149\n        /* \"#utility.yul\":4042:4047   */\n      dup3\n        /* \"#utility.yul\":4009:4048   */\n      tag_150\n      jump\t// in\n    tag_149:\n        /* \"#utility.yul\":4064:4125   */\n      tag_151\n        /* \"#utility.yul\":4118:4124   */\n      dup2\n        /* \"#utility.yul\":4113:4116   */\n      dup6\n        /* \"#utility.yul\":4064:4125   */\n      tag_152\n      jump\t// in\n    tag_151:\n        /* \"#utility.yul\":4057:4125   */\n      swap4\n      pop\n        /* \"#utility.yul\":4134:4186   */\n      tag_153\n        /* \"#utility.yul\":4179:4185   */\n      dup2\n        /* \"#utility.yul\":4174:4177   */\n      dup6\n        /* \"#utility.yul\":4167:4171   */\n      0x20\n        /* \"#utility.yul\":4160:4165   */\n      dup7\n        /* \"#utility.yul\":4156:4172   */\n      add\n        /* \"#utility.yul\":4134:4186   */\n      tag_154\n      jump\t// in\n    tag_153:\n        /* \"#utility.yul\":4211:4240   */\n      tag_155\n        /* \"#utility.yul\":4233:4239   */\n      dup2\n        /* \"#utility.yul\":4211:4240   */\n      tag_156\n      jump\t// in\n    tag_155:\n        /* \"#utility.yul\":4206:4209   */\n      dup5\n        /* \"#utility.yul\":4202:4241   */\n      add\n        /* \"#utility.yul\":4195:4241   */\n      swap2\n      pop\n        /* \"#utility.yul\":3985:4247   */\n      pop\n        /* \"#utility.yul\":3903:4247   */\n      swap3\n      swap2\n      pop\n      pop\n      jump\t// out\n        /* \"#utility.yul\":4253:4619   */\n    tag_157:\n        /* \"#utility.yul\":4395:4398   */\n      0x00\n        /* \"#utility.yul\":4416:4483   */\n      tag_159\n        /* \"#utility.yul\":4480:4482   */\n      0x26\n        /* \"#utility.yul\":4475:4478   */\n      dup4\n        /* \"#utility.yul\":4416:4483   */\n      tag_160\n      jump\t// in\n    tag_159:\n        /* \"#utility.yul\":4409:4483   */\n      swap2\n      pop\n        /* \"#utility.yul\":4492:4585   */\n      tag_161\n        /* \"#utility.yul\":4581:4584   */\n      dup3\n        /* \"#utility.yul\":4492:4585   */\n      tag_162\n      jump\t// in\n    tag_161:\n        /* \"#utility.yul\":4610:4612   */\n      0x40\n        /* \"#utility.yul\":4605:4608   */\n      dup3\n        /* \"#utility.yul\":4601:4613   */\n      add\n        /* \"#utility.yul\":4594:4613   */\n      swap1\n      pop\n        /* \"#utility.yul\":4253:4619   */\n      swap2\n      swap1\n      pop\n      jump\t// out\n        /* \"#utility.yul\":4681:5524   */\n    tag_128:\n        /* \"#utility.yul\":4784:4787   */\n      0x00\n        /* \"#utility.yul\":4820:4824   */\n      0x60\n        /* \"#utility.yul\":4815:4818   */\n      dup4\n        /* \"#utility.yul\":4811:4825   */\n      add\n        /* \"#utility.yul\":4907:4911   */\n      0x00\n        /* \"#utility.yul\":4900:4905   */\n      dup4\n        /* \"#utility.yul\":4896:4912   */\n      add\n        /* \"#utility.yul\":4890:4913   */\n      mload\n        /* \"#utility.yul\":4960:4963   */\n      dup5\n        /* \"#utility.yul\":4954:4958   */\n      dup3\n        /* \"#utility.yul\":4950:4964   */\n      sub\n        /* \"#utility.yul\":4943:4947   */\n      0x00\n        /* \"#utility.yul\":4938:4941   */\n      dup7\n        /* \"#utility.yul\":4934:4948   */\n      add\n        /* \"#utility.yul\":4927:4965   */\n      mstore\n        /* \"#utility.yul\":4986:5059   */\n      tag_164\n        /* \"#utility.yul\":5054:5058   */\n      dup3\n        /* \"#utility.yul\":5040:5052   */\n      dup3\n        /* \"#utility.yul\":4986:5059   */\n      tag_147\n      jump\t// in\n    tag_164:\n        /* \"#utility.yul\":4978:5059   */\n      swap2\n      pop\n        /* \"#utility.yul\":4835:5070   */\n      pop\n        /* \"#utility.yul\":5158:5162   */\n      0x20\n        /* \"#utility.yul\":5151:5156   */\n      dup4\n        /* \"#utility.yul\":5147:5163   */\n      add\n        /* \"#utility.yul\":5141:5164   */\n      mload\n        /* \"#utility.yul\":5211:5214   */\n      dup5\n        /* \"#utility.yul\":5205:5209   */\n      dup3\n        /* \"#utility.yul\":5201:5215   */\n      sub\n        /* \"#utility.yul\":5194:5198   */\n      0x20\n        /* \"#utility.yul\":5189:5192   */\n      dup7\n        /* \"#utility.yul\":5185:5199   */\n      add\n        /* \"#utility.yul\":5178:5216   */\n      mstore\n        /* \"#utility.yul\":5237:5310   */\n      tag_165\n        /* \"#utility.yul\":5305:5309   */\n      dup3\n        /* \"#utility.yul\":5291:5303   */\n      dup3\n        /* \"#utility.yul\":5237:5310   */\n      tag_147\n      jump\t// in\n    tag_165:\n        /* \"#utility.yul\":5229:5310   */\n      swap2\n      pop\n        /* \"#utility.yul\":5080:5321   */\n      pop\n        /* \"#utility.yul\":5405:5409   */\n      0x40\n        /* \"#utility.yul\":5398:5403   */\n      dup4\n        /* \"#utility.yul\":5394:5410   */\n      add\n        /* \"#utility.yul\":5388:5411   */\n      mload\n        /* \"#utility.yul\":5424:5487   */\n      tag_166\n        /* \"#utility.yul\":5481:5485   */\n      0x40\n        /* \"#utility.yul\":5476:5479   */\n      dup7\n        /* \"#utility.yul\":5472:5486   */\n      add\n        /* \"#utility.yul\":5458:5470   */\n      dup3\n        /* \"#utility.yul\":5424:5487   */\n      tag_167\n      jump\t// in\n    tag_166:\n        /* \"#utility.yul\":5331:5497   */\n      pop\n        /* \"#utility.yul\":5514:5518   */\n      dup1\n        /* \"#utility.yul\":5507:5518   */\n      swap2\n      pop\n        /* \"#utility.yul\":4789:5524   */\n      pop\n        /* \"#utility.yul\":4681:5524   */\n      swap3\n      swap2\n      pop\n      pop\n      jump\t// out\n        /* \"#utility.yul\":5598:6118   */\n    tag_168:\n        /* \"#utility.yul\":5723:5726   */\n      0x00\n        /* \"#utility.yul\":5759:5763   */\n      0x20\n        /* \"#utility.yul\":5754:5757   */\n      dup4\n        /* \"#utility.yul\":5750:5764   */\n      add\n        /* \"#utility.yul\":5854:5858   */\n      0x00\n        /* \"#utility.yul\":5847:5852   */\n      dup4\n        /* \"#utility.yul\":5843:5859   */\n      add\n        /* \"#utility.yul\":5837:5860   */\n      mload\n        /* \"#utility.yul\":5907:5910   */\n      dup5\n        /* \"#utility.yul\":5901:5905   */\n      dup3\n        /* \"#utility.yul\":5897:5911   */\n      sub\n        /* \"#utility.yul\":5890:5894   */\n      0x00\n        /* \"#utility.yul\":5885:5888   */\n      dup7\n        /* \"#utility.yul\":5881:5895   */\n      add\n        /* \"#utility.yul\":5874:5912   */\n      mstore\n        /* \"#utility.yul\":5933:6080   */\n      tag_170\n        /* \"#utility.yul\":6075:6079   */\n      dup3\n        /* \"#utility.yul\":6061:6073   */\n      dup3\n        /* \"#utility.yul\":5933:6080   */\n      tag_133\n      jump\t// in\n    tag_170:\n        /* \"#utility.yul\":5925:6080   */\n      swap2\n      pop\n        /* \"#utility.yul\":5774:6091   */\n      pop\n        /* \"#utility.yul\":6108:6112   */\n      dup1\n        /* \"#utility.yul\":6101:6112   */\n      swap2\n      pop\n        /* \"#utility.yul\":5728:6118   */\n      pop\n        /* \"#utility.yul\":5598:6118   */\n      swap3\n      swap2\n      pop\n      pop\n      jump\t// out\n        /* \"#utility.yul\":6124:6232   */\n    tag_167:\n        /* \"#utility.yul\":6201:6225   */\n      tag_172\n        /* \"#utility.yul\":6219:6224   */\n      dup2\n        /* \"#utility.yul\":6201:6225   */\n      tag_173\n      jump\t// in\n    tag_172:\n        /* \"#utility.yul\":6196:6199   */\n      dup3\n        /* \"#utility.yul\":6189:6226   */\n      mstore\n        /* \"#utility.yul\":6124:6232   */\n      pop\n      pop\n      jump\t// out\n        /* \"#utility.yul\":6238:6356   */\n    tag_174:\n        /* \"#utility.yul\":6325:6349   */\n      tag_176\n        /* \"#utility.yul\":6343:6348   */\n      dup2\n        /* \"#utility.yul\":6325:6349   */\n      tag_173\n      jump\t// in\n    tag_176:\n        /* \"#utility.yul\":6320:6323   */\n      dup3\n        /* \"#utility.yul\":6313:6350   */\n      mstore\n        /* \"#utility.yul\":6238:6356   */\n      pop\n      pop\n      jump\t// out\n        /* \"#utility.yul\":6362:6781   */\n    tag_70:\n        /* \"#utility.yul\":6528:6532   */\n      0x00\n        /* \"#utility.yul\":6566:6568   */\n      0x20\n        /* \"#utility.yul\":6555:6564   */\n      dup3\n        /* \"#utility.yul\":6551:6569   */\n      add\n        /* \"#utility.yul\":6543:6569   */\n      swap1\n      pop\n        /* \"#utility.yul\":6615:6624   */\n      dup2\n        /* \"#utility.yul\":6609:6613   */\n      dup2\n        /* \"#utility.yul\":6605:6625   */\n      sub\n        /* \"#utility.yul\":6601:6602   */\n      0x00\n        /* \"#utility.yul\":6590:6599   */\n      dup4\n        /* \"#utility.yul\":6586:6603   */\n      add\n        /* \"#utility.yul\":6579:6626   */\n      mstore\n        /* \"#utility.yul\":6643:6774   */\n      tag_178\n        /* \"#utility.yul\":6769:6773   */\n      dup2\n        /* \"#utility.yul\":6643:6774   */\n      tag_157\n      jump\t// in\n    tag_178:\n        /* \"#utility.yul\":6635:6774   */\n      swap1\n      pop\n        /* \"#utility.yul\":6362:6781   */\n      swap2\n      swap1\n      pop\n      jump\t// out\n        /* \"#utility.yul\":6787:7172   */\n    tag_19:\n        /* \"#utility.yul\":6936:6940   */\n      0x00\n        /* \"#utility.yul\":6974:6976   */\n      0x20\n        /* \"#utility.yul\":6963:6972   */\n      dup3\n        /* \"#utility.yul\":6959:6977   */\n      add\n        /* \"#utility.yul\":6951:6977   */\n      swap1\n      pop\n        /* \"#utility.yul\":7023:7032   */\n      dup2\n        /* \"#utility.yul\":7017:7021   */\n      dup2\n        /* \"#utility.yul\":7013:7033   */\n      sub\n        /* \"#utility.yul\":7009:7010   */\n      0x00\n        /* \"#utility.yul\":6998:7007   */\n      dup4\n        /* \"#utility.yul\":6994:7011   */\n      add\n        /* \"#utility.yul\":6987:7034   */\n      mstore\n        /* \"#utility.yul\":7051:7165   */\n      tag_180\n        /* \"#utility.yul\":7160:7164   */\n      dup2\n        /* \"#utility.yul\":7151:7157   */\n      dup5\n        /* \"#utility.yul\":7051:7165   */\n      tag_168\n      jump\t// in\n    tag_180:\n        /* \"#utility.yul\":7043:7165   */\n      swap1\n      pop\n        /* \"#utility.yul\":6787:7172   */\n      swap3\n      swap2\n      pop\n      pop\n      jump\t// out\n        /* \"#utility.yul\":7178:7510   */\n    tag_31:\n        /* \"#utility.yul\":7299:7303   */\n      0x00\n        /* \"#utility.yul\":7337:7339   */\n      0x40\n        /* \"#utility.yul\":7326:7335   */\n      dup3\n        /* \"#utility.yul\":7322:7340   */\n      add\n        /* \"#utility.yul\":7314:7340   */\n      swap1\n      pop\n        /* \"#utility.yul\":7350:7421   */\n      tag_182\n        /* \"#utility.yul\":7418:7419   */\n      0x00\n        /* \"#utility.yul\":7407:7416   */\n      dup4\n        /* \"#utility.yul\":7403:7420   */\n      add\n        /* \"#utility.yul\":7394:7400   */\n      dup6\n        /* \"#utility.yul\":7350:7421   */\n      tag_174\n      jump\t// in\n    tag_182:\n        /* \"#utility.yul\":7431:7503   */\n      tag_183\n        /* \"#utility.yul\":7499:7501   */\n      0x20\n        /* \"#utility.yul\":7488:7497   */\n      dup4\n        /* \"#utility.yul\":7484:7502   */\n      add\n        /* \"#utility.yul\":7475:7481   */\n      dup5\n        /* \"#utility.yul\":7431:7503   */\n      tag_129\n      jump\t// in\n    tag_183:\n        /* \"#utility.yul\":7178:7510   */\n      swap4\n      swap3\n      pop\n      pop\n      pop\n      jump\t// out\n        /* \"#utility.yul\":7516:7645   */\n    tag_92:\n        /* \"#utility.yul\":7550:7556   */\n      0x00\n        /* \"#utility.yul\":7577:7597   */\n      tag_185\n      tag_186\n      jump\t// in\n    tag_185:\n        /* \"#utility.yul\":7567:7597   */\n      swap1\n      pop\n        /* \"#utility.yul\":7606:7639   */\n      tag_187\n        /* \"#utility.yul\":7634:7638   */\n      dup3\n        /* \"#utility.yul\":7626:7632   */\n      dup3\n        /* \"#utility.yul\":7606:7639   */\n      tag_188\n      jump\t// in\n    tag_187:\n        /* \"#utility.yul\":7516:7645   */\n      swap2\n      swap1\n      pop\n      jump\t// out\n        /* \"#utility.yul\":7651:7726   */\n    tag_186:\n        /* \"#utility.yul\":7684:7690   */\n      0x00\n        /* \"#utility.yul\":7717:7719   */\n      0x40\n        /* \"#utility.yul\":7711:7720   */\n      mload\n        /* \"#utility.yul\":7701:7720   */\n      swap1\n      pop\n        /* \"#utility.yul\":7651:7726   */\n      swap1\n      jump\t// out\n        /* \"#utility.yul\":7732:8040   */\n    tag_91:\n        /* \"#utility.yul\":7794:7798   */\n      0x00\n        /* \"#utility.yul\":7884:7902   */\n      0xffffffffffffffff\n        /* \"#utility.yul\":7876:7882   */\n      dup3\n        /* \"#utility.yul\":7873:7903   */\n      gt\n        /* \"#utility.yul\":7870:7926   */\n      iszero\n      tag_191\n      jumpi\n        /* \"#utility.yul\":7906:7924   */\n      tag_192\n      tag_193\n      jump\t// in\n    tag_192:\n        /* \"#utility.yul\":7870:7926   */\n    tag_191:\n        /* \"#utility.yul\":7944:7973   */\n      tag_194\n        /* \"#utility.yul\":7966:7972   */\n      dup3\n        /* \"#utility.yul\":7944:7973   */\n      tag_156\n      jump\t// in\n    tag_194:\n        /* \"#utility.yul\":7936:7973   */\n      swap1\n      pop\n        /* \"#utility.yul\":8028:8032   */\n      0x20\n        /* \"#utility.yul\":8022:8026   */\n      dup2\n        /* \"#utility.yul\":8018:8033   */\n      add\n        /* \"#utility.yul\":8010:8033   */\n      swap1\n      pop\n        /* \"#utility.yul\":7732:8040   */\n      swap2\n      swap1\n      pop\n      jump\t// out\n        /* \"#utility.yul\":8046:8200   */\n    tag_140:\n        /* \"#utility.yul\":8135:8139   */\n      0x00\n        /* \"#utility.yul\":8158:8161   */\n      dup2\n        /* \"#utility.yul\":8150:8161   */\n      swap1\n      pop\n        /* \"#utility.yul\":8188:8192   */\n      0x20\n        /* \"#utility.yul\":8183:8186   */\n      dup3\n        /* \"#utility.yul\":8179:8193   */\n      add\n        /* \"#utility.yul\":8171:8193   */\n      swap1\n      pop\n        /* \"#utility.yul\":8046:8200   */\n      swap2\n      swap1\n      pop\n      jump\t// out\n        /* \"#utility.yul\":8206:8342   */\n    tag_136:\n        /* \"#utility.yul\":8295:8301   */\n      0x00\n        /* \"#utility.yul\":8329:8334   */\n      dup2\n        /* \"#utility.yul\":8323:8335   */\n      mload\n        /* \"#utility.yul\":8313:8335   */\n      swap1\n      pop\n        /* \"#utility.yul\":8206:8342   */\n      swap2\n      swap1\n      pop\n      jump\t// out\n        /* \"#utility.yul\":8348:8447   */\n    tag_150:\n        /* \"#utility.yul\":8400:8406   */\n      0x00\n        /* \"#utility.yul\":8434:8439   */\n      dup2\n        /* \"#utility.yul\":8428:8440   */\n      mload\n        /* \"#utility.yul\":8418:8440   */\n      swap1\n      pop\n        /* \"#utility.yul\":8348:8447   */\n      swap2\n      swap1\n      pop\n      jump\t// out\n        /* \"#utility.yul\":8453:8588   */\n    tag_146:\n        /* \"#utility.yul\":8545:8549   */\n      0x00\n        /* \"#utility.yul\":8577:8581   */\n      0x20\n        /* \"#utility.yul\":8572:8575   */\n      dup3\n        /* \"#utility.yul\":8568:8582   */\n      add\n        /* \"#utility.yul\":8560:8582   */\n      swap1\n      pop\n        /* \"#utility.yul\":8453:8588   */\n      swap2\n      swap1\n      pop\n      jump\t// out\n        /* \"#utility.yul\":8594:8790   */\n    tag_138:\n        /* \"#utility.yul\":8705:8716   */\n      0x00\n        /* \"#utility.yul\":8739:8745   */\n      dup3\n        /* \"#utility.yul\":8734:8737   */\n      dup3\n        /* \"#utility.yul\":8727:8746   */\n      mstore\n        /* \"#utility.yul\":8779:8783   */\n      0x20\n        /* \"#utility.yul\":8774:8777   */\n      dup3\n        /* \"#utility.yul\":8770:8784   */\n      add\n        /* \"#utility.yul\":8755:8784   */\n      swap1\n      pop\n        /* \"#utility.yul\":8594:8790   */\n      swap3\n      swap2\n      pop\n      pop\n      jump\t// out\n        /* \"#utility.yul\":8796:8955   */\n    tag_152:\n        /* \"#utility.yul\":8870:8881   */\n      0x00\n        /* \"#utility.yul\":8904:8910   */\n      dup3\n        /* \"#utility.yul\":8899:8902   */\n      dup3\n        /* \"#utility.yul\":8892:8911   */\n      mstore\n        /* \"#utility.yul\":8944:8948   */\n      0x20\n        /* \"#utility.yul\":8939:8942   */\n      dup3\n        /* \"#utility.yul\":8935:8949   */\n      add\n        /* \"#utility.yul\":8920:8949   */\n      swap1\n      pop\n        /* \"#utility.yul\":8796:8955   */\n      swap3\n      swap2\n      pop\n      pop\n      jump\t// out\n        /* \"#utility.yul\":8961:9130   */\n    tag_160:\n        /* \"#utility.yul\":9045:9056   */\n      0x00\n        /* \"#utility.yul\":9079:9085   */\n      dup3\n        /* \"#utility.yul\":9074:9077   */\n      dup3\n        /* \"#utility.yul\":9067:9086   */\n      mstore\n        /* \"#utility.yul\":9119:9123   */\n      0x20\n        /* \"#utility.yul\":9114:9117   */\n      dup3\n        /* \"#utility.yul\":9110:9124   */\n      add\n        /* \"#utility.yul\":9095:9124   */\n      swap1\n      pop\n        /* \"#utility.yul\":8961:9130   */\n      swap3\n      swap2\n      pop\n      pop\n      jump\t// out\n        /* \"#utility.yul\":9136:9232   */\n    tag_132:\n        /* \"#utility.yul\":9173:9180   */\n      0x00\n        /* \"#utility.yul\":9202:9226   */\n      tag_203\n        /* \"#utility.yul\":9220:9225   */\n      dup3\n        /* \"#utility.yul\":9202:9226   */\n      tag_204\n      jump\t// in\n    tag_203:\n        /* \"#utility.yul\":9191:9226   */\n      swap1\n      pop\n        /* \"#utility.yul\":9136:9232   */\n      swap2\n      swap1\n      pop\n      jump\t// out\n        /* \"#utility.yul\":9238:9364   */\n    tag_204:\n        /* \"#utility.yul\":9275:9282   */\n      0x00\n        /* \"#utility.yul\":9315:9357   */\n      0xffffffffffffffffffffffffffffffffffffffff\n        /* \"#utility.yul\":9308:9313   */\n      dup3\n        /* \"#utility.yul\":9304:9358   */\n      and\n        /* \"#utility.yul\":9293:9358   */\n      swap1\n      pop\n        /* \"#utility.yul\":9238:9364   */\n      swap2\n      swap1\n      pop\n      jump\t// out\n        /* \"#utility.yul\":9370:9447   */\n    tag_173:\n        /* \"#utility.yul\":9407:9414   */\n      0x00\n        /* \"#utility.yul\":9436:9441   */\n      dup2\n        /* \"#utility.yul\":9425:9441   */\n      swap1\n      pop\n        /* \"#utility.yul\":9370:9447   */\n      swap2\n      swap1\n      pop\n      jump\t// out\n        /* \"#utility.yul\":9453:9607   */\n    tag_97:\n        /* \"#utility.yul\":9537:9543   */\n      dup3\n        /* \"#utility.yul\":9532:9535   */\n      dup2\n        /* \"#utility.yul\":9527:9530   */\n      dup4\n        /* \"#utility.yul\":9514:9544   */\n      calldatacopy\n        /* \"#utility.yul\":9599:9600   */\n      0x00\n        /* \"#utility.yul\":9590:9596   */\n      dup4\n        /* \"#utility.yul\":9585:9588   */\n      dup4\n        /* \"#utility.yul\":9581:9597   */\n      add\n        /* \"#utility.yul\":9574:9601   */\n      mstore\n        /* \"#utility.yul\":9453:9607   */\n      pop\n      pop\n      pop\n      jump\t// out\n        /* \"#utility.yul\":9613:9920   */\n    tag_154:\n        /* \"#utility.yul\":9681:9682   */\n      0x00\n        /* \"#utility.yul\":9691:9804   */\n    tag_209:\n        /* \"#utility.yul\":9705:9711   */\n      dup4\n        /* \"#utility.yul\":9702:9703   */\n      dup2\n        /* \"#utility.yul\":9699:9712   */\n      lt\n        /* \"#utility.yul\":9691:9804   */\n      iszero\n      tag_211\n      jumpi\n        /* \"#utility.yul\":9790:9791   */\n      dup1\n        /* \"#utility.yul\":9785:9788   */\n      dup3\n        /* \"#utility.yul\":9781:9792   */\n      add\n        /* \"#utility.yul\":9775:9793   */\n      mload\n        /* \"#utility.yul\":9771:9772   */\n      dup2\n        /* \"#utility.yul\":9766:9769   */\n      dup5\n        /* \"#utility.yul\":9762:9773   */\n      add\n        /* \"#utility.yul\":9755:9794   */\n      mstore\n        /* \"#utility.yul\":9727:9729   */\n      0x20\n        /* \"#utility.yul\":9724:9725   */\n      dup2\n        /* \"#utility.yul\":9720:9730   */\n      add\n        /* \"#utility.yul\":9715:9730   */\n      swap1\n      pop\n        /* \"#utility.yul\":9691:9804   */\n      jump(tag_209)\n    tag_211:\n        /* \"#utility.yul\":9822:9828   */\n      dup4\n        /* \"#utility.yul\":9819:9820   */\n      dup2\n        /* \"#utility.yul\":9816:9829   */\n      gt\n        /* \"#utility.yul\":9813:9914   */\n      iszero\n      tag_212\n      jumpi\n        /* \"#utility.yul\":9902:9903   */\n      0x00\n        /* \"#utility.yul\":9893:9899   */\n      dup5\n        /* \"#utility.yul\":9888:9891   */\n      dup5\n        /* \"#utility.yul\":9884:9900   */\n      add\n        /* \"#utility.yul\":9877:9904   */\n      mstore\n        /* \"#utility.yul\":9813:9914   */\n    tag_212:\n        /* \"#utility.yul\":9662:9920   */\n      pop\n        /* \"#utility.yul\":9613:9920   */\n      pop\n      pop\n      pop\n      jump\t// out\n        /* \"#utility.yul\":9926:10246   */\n    tag_46:\n        /* \"#utility.yul\":9970:9976   */\n      0x00\n        /* \"#utility.yul\":10007:10008   */\n      0x02\n        /* \"#utility.yul\":10001:10005   */\n      dup3\n        /* \"#utility.yul\":9997:10009   */\n      div\n        /* \"#utility.yul\":9987:10009   */\n      swap1\n      pop\n        /* \"#utility.yul\":10054:10055   */\n      0x01\n        /* \"#utility.yul\":10048:10052   */\n      dup3\n        /* \"#utility.yul\":10044:10056   */\n      and\n        /* \"#utility.yul\":10075:10093   */\n      dup1\n        /* \"#utility.yul\":10065:10146   */\n      tag_214\n      jumpi\n        /* \"#utility.yul\":10131:10135   */\n      0x7f\n        /* \"#utility.yul\":10123:10129   */\n      dup3\n        /* \"#utility.yul\":10119:10136   */\n      and\n        /* \"#utility.yul\":10109:10136   */\n      swap2\n      pop\n        /* \"#utility.yul\":10065:10146   */\n    tag_214:\n        /* \"#utility.yul\":10193:10195   */\n      0x20\n        /* \"#utility.yul\":10185:10191   */\n      dup3\n        /* \"#utility.yul\":10182:10196   */\n      lt\n        /* \"#utility.yul\":10162:10180   */\n      dup2\n        /* \"#utility.yul\":10159:10197   */\n      eq\n        /* \"#utility.yul\":10156:10240   */\n      iszero\n      tag_215\n      jumpi\n        /* \"#utility.yul\":10212:10230   */\n      tag_216\n      tag_217\n      jump\t// in\n    tag_216:\n        /* \"#utility.yul\":10156:10240   */\n    tag_215:\n        /* \"#utility.yul\":9977:10246   */\n      pop\n        /* \"#utility.yul\":9926:10246   */\n      swap2\n      swap1\n      pop\n      jump\t// out\n        /* \"#utility.yul\":10252:10533   */\n    tag_188:\n        /* \"#utility.yul\":10335:10362   */\n      tag_219\n        /* \"#utility.yul\":10357:10361   */\n      dup3\n        /* \"#utility.yul\":10335:10362   */\n      tag_156\n      jump\t// in\n    tag_219:\n        /* \"#utility.yul\":10327:10333   */\n      dup2\n        /* \"#utility.yul\":10323:10363   */\n      add\n        /* \"#utility.yul\":10465:10471   */\n      dup2\n        /* \"#utility.yul\":10453:10463   */\n      dup2\n        /* \"#utility.yul\":10450:10472   */\n      lt\n        /* \"#utility.yul\":10429:10447   */\n      0xffffffffffffffff\n        /* \"#utility.yul\":10417:10427   */\n      dup3\n        /* \"#utility.yul\":10414:10448   */\n      gt\n        /* \"#utility.yul\":10411:10473   */\n      or\n        /* \"#utility.yul\":10408:10496   */\n      iszero\n      tag_220\n      jumpi\n        /* \"#utility.yul\":10476:10494   */\n      tag_221\n      tag_193\n      jump\t// in\n    tag_221:\n        /* \"#utility.yul\":10408:10496   */\n    tag_220:\n        /* \"#utility.yul\":10516:10526   */\n      dup1\n        /* \"#utility.yul\":10512:10514   */\n      0x40\n        /* \"#utility.yul\":10505:10527   */\n      mstore\n        /* \"#utility.yul\":10295:10533   */\n      pop\n        /* \"#utility.yul\":10252:10533   */\n      pop\n      pop\n      jump\t// out\n        /* \"#utility.yul\":10539:10719   */\n    tag_217:\n        /* \"#utility.yul\":10587:10664   */\n      0x4e487b7100000000000000000000000000000000000000000000000000000000\n        /* \"#utility.yul\":10584:10585   */\n      0x00\n        /* \"#utility.yul\":10577:10665   */\n      mstore\n        /* \"#utility.yul\":10684:10688   */\n      0x22\n        /* \"#utility.yul\":10681:10682   */\n      0x04\n        /* \"#utility.yul\":10674:10689   */\n      mstore\n        /* \"#utility.yul\":10708:10712   */\n      0x24\n        /* \"#utility.yul\":10705:10706   */\n      0x00\n        /* \"#utility.yul\":10698:10713   */\n      revert\n        /* \"#utility.yul\":10725:10905   */\n    tag_62:\n        /* \"#utility.yul\":10773:10850   */\n      0x4e487b7100000000000000000000000000000000000000000000000000000000\n        /* \"#utility.yul\":10770:10771   */\n      0x00\n        /* \"#utility.yul\":10763:10851   */\n      mstore\n        /* \"#utility.yul\":10870:10874   */\n      0x31\n        /* \"#utility.yul\":10867:10868   */\n      0x04\n        /* \"#utility.yul\":10860:10875   */\n      mstore\n        /* \"#utility.yul\":10894:10898   */\n      0x24\n        /* \"#utility.yul\":10891:10892   */\n      0x00\n        /* \"#utility.yul\":10884:10899   */\n      revert\n        /* \"#utility.yul\":10911:11091   */\n    tag_193:\n        /* \"#utility.yul\":10959:11036   */\n      0x4e487b7100000000000000000000000000000000000000000000000000000000\n        /* \"#utility.yul\":10956:10957   */\n      0x00\n        /* \"#utility.yul\":10949:11037   */\n      mstore\n        /* \"#utility.yul\":11056:11060   */\n      0x41\n        /* \"#utility.yul\":11053:11054   */\n      0x04\n        /* \"#utility.yul\":11046:11061   */\n      mstore\n        /* \"#utility.yul\":11080:11084   */\n      0x24\n        /* \"#utility.yul\":11077:11078   */\n      0x00\n        /* \"#utility.yul\":11070:11085   */\n      revert\n        /* \"#utility.yul\":11097:11214   */\n    tag_102:\n        /* \"#utility.yul\":11206:11207   */\n      0x00\n        /* \"#utility.yul\":11203:11204   */\n      dup1\n        /* \"#utility.yul\":11196:11208   */\n      revert\n        /* \"#utility.yul\":11220:11337   */\n    tag_95:\n        /* \"#utility.yul\":11329:11330   */\n      0x00\n        /* \"#utility.yul\":11326:11327   */\n      dup1\n        /* \"#utility.yul\":11319:11331   */\n      revert\n        /* \"#utility.yul\":11343:11460   */\n    tag_119:\n        /* \"#utility.yul\":11452:11453   */\n      0x00\n        /* \"#utility.yul\":11449:11450   */\n      dup1\n        /* \"#utility.yul\":11442:11454   */\n      revert\n        /* \"#utility.yul\":11466:11583   */\n    tag_111:\n        /* \"#utility.yul\":11575:11576   */\n      0x00\n        /* \"#utility.yul\":11572:11573   */\n      dup1\n        /* \"#utility.yul\":11565:11577   */\n      revert\n        /* \"#utility.yul\":11589:11691   */\n    tag_156:\n        /* \"#utility.yul\":11630:11636   */\n      0x00\n        /* \"#utility.yul\":11681:11683   */\n      0x1f\n        /* \"#utility.yul\":11677:11684   */\n      not\n        /* \"#utility.yul\":11672:11674   */\n      0x1f\n        /* \"#utility.yul\":11665:11670   */\n      dup4\n        /* \"#utility.yul\":11661:11675   */\n      add\n        /* \"#utility.yul\":11657:11685   */\n      and\n        /* \"#utility.yul\":11647:11685   */\n      swap1\n      pop\n        /* \"#utility.yul\":11589:11691   */\n      swap2\n      swap1\n      pop\n      jump\t// out\n        /* \"#utility.yul\":11697:11922   */\n    tag_162:\n        /* \"#utility.yul\":11837:11871   */\n      0x596f752063616e6e6f7420686176652061636365737320746f20726561642062\n        /* \"#utility.yul\":11833:11834   */\n      0x00\n        /* \"#utility.yul\":11825:11831   */\n      dup3\n        /* \"#utility.yul\":11821:11835   */\n      add\n        /* \"#utility.yul\":11814:11872   */\n      mstore\n        /* \"#utility.yul\":11906:11914   */\n      0x616c616e63650000000000000000000000000000000000000000000000000000\n        /* \"#utility.yul\":11901:11903   */\n      0x20\n        /* \"#utility.yul\":11893:11899   */\n      dup3\n        /* \"#utility.yul\":11889:11904   */\n      add\n        /* \"#utility.yul\":11882:11915   */\n      mstore\n        /* \"#utility.yul\":11697:11922   */\n      pop\n      jump\t// out\n        /* \"#utility.yul\":11928:12050   */\n    tag_107:\n        /* \"#utility.yul\":12001:12025   */\n      tag_232\n        /* \"#utility.yul\":12019:12024   */\n      dup2\n        /* \"#utility.yul\":12001:12025   */\n      tag_173\n      jump\t// in\n    tag_232:\n        /* \"#utility.yul\":11994:11999   */\n      dup2\n        /* \"#utility.yul\":11991:12026   */\n      eq\n        /* \"#utility.yul\":11981:12044   */\n      tag_233\n      jumpi\n        /* \"#utility.yul\":12040:12041   */\n      0x00\n        /* \"#utility.yul\":12037:12038   */\n      dup1\n        /* \"#utility.yul\":12030:12042   */\n      revert\n        /* \"#utility.yul\":11981:12044   */\n    tag_233:\n        /* \"#utility.yul\":11928:12050   */\n      pop\n      jump\t// out\n\n    auxdata: 0xa2646970667358221220375437877817bbed8ee940ea6aae2a3b88d81a61db1a47d07a2670c6e5803dc664736f6c63430008070033\n}\n",
				"bytecode": {
					"linkReferences": {},
					"object": "6080604052336000806101000a81548173ffffffffffffffffffffffffffffffffffffffff021916908373ffffffffffffffffffffffffffffffffffffffff16021790555034801561005057600080fd5b50610c42806100606000396000f3fe6080604052600436106100555760003560e01c806305227c1b1461005a578063692e8201146100835780638ed20cbe146100c0578063a929ffe1146100d7578063dd1d97cb14610100578063e16b2eef1461012c575b600080fd5b34801561006657600080fd5b50610081600480360381019061007c91906106ba565b610136565b005b34801561008f57600080fd5b506100aa60048036038101906100a5919061068d565b6101e2565b6040516100b7919061090c565b60405180910390f35b3480156100cc57600080fd5b506100d56103a2565b005b3480156100e357600080fd5b506100fe60048036038101906100f9919061068d565b61040b565b005b34801561010c57600080fd5b50610115610475565b60405161012392919061092e565b60405180910390f35b610134610510565b005b600060405180606001604052808581526020018481526020018381525090506001600086815260200190815260200160002060000181908060018154018082558091505060019003906000526020600020906003020160009091909190915060008201518160000190805190602001906101b1929190610512565b5060208201518160010190805190602001906101ce929190610512565b506040820151816002015550505050505050565b6101ea610598565b60006001600084815260200190815260200160002060405180602001604052908160008201805480602002602001604051908101604052809291908181526020016000905b8282101561038f578382906000526020600020906003020160405180606001604052908160008201805461026290610a91565b80601f016020809104026020016040519081016040528092919081815260200182805461028e90610a91565b80156102db5780601f106102b0576101008083540402835291602001916102db565b820191906000526020600020905b8154815290600101906020018083116102be57829003601f168201915b505050505081526020016001820180546102f490610a91565b80601f016020809104026020016040519081016040528092919081815260200182805461032090610a91565b801561036d5780601f106103425761010080835404028352916020019161036d565b820191906000526020600020905b81548152906001019060200180831161035057829003601f168201915b505050505081526020016002820154815250508152602001906001019061022f565b5050505081525050905080915050919050565b60008054906101000a900473ffffffffffffffffffffffffffffffffffffffff1673ffffffffffffffffffffffffffffffffffffffff166108fc479081150290604051600060405180830381858888f19350505050158015610408573d6000803e3d6000fd5b50565b6001600082815260200190815260200160002060000180548061043157610430610b23565b5b60019003818190600052602060002090600302016000808201600061045691906105ab565b60018201600061046691906105ab565b60028201600090555050905550565b6000803373ffffffffffffffffffffffffffffffffffffffff1660008054906101000a900473ffffffffffffffffffffffffffffffffffffffff1673ffffffffffffffffffffffffffffffffffffffff1614610506576040517f08c379a00000000000000000000000000000000000000000000000000000000081526004016104fd906108ec565b60405180910390fd5b4730915091509091565b565b82805461051e90610a91565b90600052602060002090601f0160209004810192826105405760008555610587565b82601f1061055957805160ff1916838001178555610587565b82800160010185558215610587579182015b8281111561058657825182559160200191906001019061056b565b5b50905061059491906105eb565b5090565b6040518060200160405280606081525090565b5080546105b790610a91565b6000825580601f106105c957506105e8565b601f0160209004906000526020600020908101906105e791906105eb565b5b50565b5b808211156106045760008160009055506001016105ec565b5090565b600061061b6106168461097c565b610957565b90508281526020810184848401111561063757610636610b86565b5b610642848285610a4f565b509392505050565b600082601f83011261065f5761065e610b81565b5b813561066f848260208601610608565b91505092915050565b60008135905061068781610bf5565b92915050565b6000602082840312156106a3576106a2610b90565b5b60006106b184828501610678565b91505092915050565b600080600080608085870312156106d4576106d3610b90565b5b60006106e287828801610678565b945050602085013567ffffffffffffffff81111561070357610702610b8b565b5b61070f8782880161064a565b935050604085013567ffffffffffffffff8111156107305761072f610b8b565b5b61073c8782880161064a565b925050606061074d87828801610678565b91505092959194509250565b6000610765838361084d565b905092915050565b61077681610a13565b82525050565b6000610787826109bd565b61079181856109e0565b9350836020820285016107a3856109ad565b8060005b858110156107df57848403895281516107c08582610759565b94506107cb836109d3565b925060208a019950506001810190506107a7565b50829750879550505050505092915050565b60006107fc826109c8565b61080681856109f1565b9350610816818560208601610a5e565b61081f81610b95565b840191505092915050565b6000610837602683610a02565b915061084282610ba6565b604082019050919050565b6000606083016000830151848203600086015261086a82826107f1565b9150506020830151848203602086015261088482826107f1565b915050604083015161089960408601826108ce565b508091505092915050565b600060208301600083015184820360008601526108c1828261077c565b9150508091505092915050565b6108d781610a45565b82525050565b6108e681610a45565b82525050565b600060208201905081810360008301526109058161082a565b9050919050565b6000602082019050818103600083015261092681846108a4565b905092915050565b600060408201905061094360008301856108dd565b610950602083018461076d565b9392505050565b6000610961610972565b905061096d8282610ac3565b919050565b6000604051905090565b600067ffffffffffffffff82111561099757610996610b52565b5b6109a082610b95565b9050602081019050919050565b6000819050602082019050919050565b600081519050919050565b600081519050919050565b6000602082019050919050565b600082825260208201905092915050565b600082825260208201905092915050565b600082825260208201905092915050565b6000610a1e82610a25565b9050919050565b600073ffffffffffffffffffffffffffffffffffffffff82169050919050565b6000819050919050565b82818337600083830152505050565b60005b83811015610a7c578082015181840152602081019050610a61565b83811115610a8b576000848401525b50505050565b60006002820490506001821680610aa957607f821691505b60208210811415610abd57610abc610af4565b5b50919050565b610acc82610b95565b810181811067ffffffffffffffff82111715610aeb57610aea610b52565b5b80604052505050565b7f4e487b7100000000000000000000000000000000000000000000000000000000600052602260045260246000fd5b7f4e487b7100000000000000000000000000000000000000000000000000000000600052603160045260246000fd5b7f4e487b7100000000000000000000000000000000000000000000000000000000600052604160045260246000fd5b600080fd5b600080fd5b600080fd5b600080fd5b6000601f19601f8301169050919050565b7f596f752063616e6e6f7420686176652061636365737320746f2072656164206260008201527f616c616e63650000000000000000000000000000000000000000000000000000602082015250565b610bfe81610a45565b8114610c0957600080fd5b5056fea2646970667358221220375437877817bbed8ee940ea6aae2a3b88d81a61db1a47d07a2670c6e5803dc664736f6c63430008070033",
					"opcodes": "PUSH1 0x80 PUSH1 0x40 MSTORE CALLER PUSH1 0x0 DUP1 PUSH2 0x100 EXP DUP2 SLOAD DUP2 PUSH20 0xFFFFFFFFFFFFFFFFFFFFFFFFFFFFFFFFFFFFFFFF MUL NOT AND SWAP1 DUP4 PUSH20 0xFFFFFFFFFFFFFFFFFFFFFFFFFFFFFFFFFFFFFFFF AND MUL OR SWAP1 SSTORE POP CALLVALUE DUP1 ISZERO PUSH2 0x50 JUMPI PUSH1 0x0 DUP1 REVERT JUMPDEST POP PUSH2 0xC42 DUP1 PUSH2 0x60 PUSH1 0x0 CODECOPY PUSH1 0x0 RETURN INVALID PUSH1 0x80 PUSH1 0x40 MSTORE PUSH1 0x4 CALLDATASIZE LT PUSH2 0x55 JUMPI PUSH1 0x0 CALLDATALOAD PUSH1 0xE0 SHR DUP1 PUSH4 0x5227C1B EQ PUSH2 0x5A JUMPI DUP1 PUSH4 0x692E8201 EQ PUSH2 0x83 JUMPI DUP1 PUSH4 0x8ED20CBE EQ PUSH2 0xC0 JUMPI DUP1 PUSH4 0xA929FFE1 EQ PUSH2 0xD7 JUMPI DUP1 PUSH4 0xDD1D97CB EQ PUSH2 0x100 JUMPI DUP1 PUSH4 0xE16B2EEF EQ PUSH2 0x12C JUMPI JUMPDEST PUSH1 0x0 DUP1 REVERT JUMPDEST CALLVALUE DUP1 ISZERO PUSH2 0x66 JUMPI PUSH1 0x0 DUP1 REVERT JUMPDEST POP PUSH2 0x81 PUSH1 0x4 DUP1 CALLDATASIZE SUB DUP2 ADD SWAP1 PUSH2 0x7C SWAP2 SWAP1 PUSH2 0x6BA JUMP JUMPDEST PUSH2 0x136 JUMP JUMPDEST STOP JUMPDEST CALLVALUE DUP1 ISZERO PUSH2 0x8F JUMPI PUSH1 0x0 DUP1 REVERT JUMPDEST POP PUSH2 0xAA PUSH1 0x4 DUP1 CALLDATASIZE SUB DUP2 ADD SWAP1 PUSH2 0xA5 SWAP2 SWAP1 PUSH2 0x68D JUMP JUMPDEST PUSH2 0x1E2 JUMP JUMPDEST PUSH1 0x40 MLOAD PUSH2 0xB7 SWAP2 SWAP1 PUSH2 0x90C JUMP JUMPDEST PUSH1 0x40 MLOAD DUP1 SWAP2 SUB SWAP1 RETURN JUMPDEST CALLVALUE DUP1 ISZERO PUSH2 0xCC JUMPI PUSH1 0x0 DUP1 REVERT JUMPDEST POP PUSH2 0xD5 PUSH2 0x3A2 JUMP JUMPDEST STOP JUMPDEST CALLVALUE DUP1 ISZERO PUSH2 0xE3 JUMPI PUSH1 0x0 DUP1 REVERT JUMPDEST POP PUSH2 0xFE PUSH1 0x4 DUP1 CALLDATASIZE SUB DUP2 ADD SWAP1 PUSH2 0xF9 SWAP2 SWAP1 PUSH2 0x68D JUMP JUMPDEST PUSH2 0x40B JUMP JUMPDEST STOP JUMPDEST CALLVALUE DUP1 ISZERO PUSH2 0x10C JUMPI PUSH1 0x0 DUP1 REVERT JUMPDEST POP PUSH2 0x115 PUSH2 0x475 JUMP JUMPDEST PUSH1 0x40 MLOAD PUSH2 0x123 SWAP3 SWAP2 SWAP1 PUSH2 0x92E JUMP JUMPDEST PUSH1 0x40 MLOAD DUP1 SWAP2 SUB SWAP1 RETURN JUMPDEST PUSH2 0x134 PUSH2 0x510 JUMP JUMPDEST STOP JUMPDEST PUSH1 0x0 PUSH1 0x40 MLOAD DUP1 PUSH1 0x60 ADD PUSH1 0x40 MSTORE DUP1 DUP6 DUP2 MSTORE PUSH1 0x20 ADD DUP5 DUP2 MSTORE PUSH1 0x20 ADD DUP4 DUP2 MSTORE POP SWAP1 POP PUSH1 0x1 PUSH1 0x0 DUP7 DUP2 MSTORE PUSH1 0x20 ADD SWAP1 DUP2 MSTORE PUSH1 0x20 ADD PUSH1 0x0 KECCAK256 PUSH1 0x0 ADD DUP2 SWAP1 DUP1 PUSH1 0x1 DUP2 SLOAD ADD DUP1 DUP3 SSTORE DUP1 SWAP2 POP POP PUSH1 0x1 SWAP1 SUB SWAP1 PUSH1 0x0 MSTORE PUSH1 0x20 PUSH1 0x0 KECCAK256 SWAP1 PUSH1 0x3 MUL ADD PUSH1 0x0 SWAP1 SWAP2 SWAP1 SWAP2 SWAP1 SWAP2 POP PUSH1 0x0 DUP3 ADD MLOAD DUP2 PUSH1 0x0 ADD SWAP1 DUP1 MLOAD SWAP1 PUSH1 0x20 ADD SWAP1 PUSH2 0x1B1 SWAP3 SWAP2 SWAP1 PUSH2 0x512 JUMP JUMPDEST POP PUSH1 0x20 DUP3 ADD MLOAD DUP2 PUSH1 0x1 ADD SWAP1 DUP1 MLOAD SWAP1 PUSH1 0x20 ADD SWAP1 PUSH2 0x1CE SWAP3 SWAP2 SWAP1 PUSH2 0x512 JUMP JUMPDEST POP PUSH1 0x40 DUP3 ADD MLOAD DUP2 PUSH1 0x2 ADD SSTORE POP POP POP POP POP POP POP JUMP JUMPDEST PUSH2 0x1EA PUSH2 0x598 JUMP JUMPDEST PUSH1 0x0 PUSH1 0x1 PUSH1 0x0 DUP5 DUP2 MSTORE PUSH1 0x20 ADD SWAP1 DUP2 MSTORE PUSH1 0x20 ADD PUSH1 0x0 KECCAK256 PUSH1 0x40 MLOAD DUP1 PUSH1 0x20 ADD PUSH1 0x40 MSTORE SWAP1 DUP2 PUSH1 0x0 DUP3 ADD DUP1 SLOAD DUP1 PUSH1 0x20 MUL PUSH1 0x20 ADD PUSH1 0x40 MLOAD SWAP1 DUP2 ADD PUSH1 0x40 MSTORE DUP1 SWAP3 SWAP2 SWAP1 DUP2 DUP2 MSTORE PUSH1 0x20 ADD PUSH1 0x0 SWAP1 JUMPDEST DUP3 DUP3 LT ISZERO PUSH2 0x38F JUMPI DUP4 DUP3 SWAP1 PUSH1 0x0 MSTORE PUSH1 0x20 PUSH1 0x0 KECCAK256 SWAP1 PUSH1 0x3 MUL ADD PUSH1 0x40 MLOAD DUP1 PUSH1 0x60 ADD PUSH1 0x40 MSTORE SWAP1 DUP2 PUSH1 0x0 DUP3 ADD DUP1 SLOAD PUSH2 0x262 SWAP1 PUSH2 0xA91 JUMP JUMPDEST DUP1 PUSH1 0x1F ADD PUSH1 0x20 DUP1 SWAP2 DIV MUL PUSH1 0x20 ADD PUSH1 0x40 MLOAD SWAP1 DUP2 ADD PUSH1 0x40 MSTORE DUP1 SWAP3 SWAP2 SWAP1 DUP2 DUP2 MSTORE PUSH1 0x20 ADD DUP3 DUP1 SLOAD PUSH2 0x28E SWAP1 PUSH2 0xA91 JUMP JUMPDEST DUP1 ISZERO PUSH2 0x2DB JUMPI DUP1 PUSH1 0x1F LT PUSH2 0x2B0 JUMPI PUSH2 0x100 DUP1 DUP4 SLOAD DIV MUL DUP4 MSTORE SWAP2 PUSH1 0x20 ADD SWAP2 PUSH2 0x2DB JUMP JUMPDEST DUP3 ADD SWAP2 SWAP1 PUSH1 0x0 MSTORE PUSH1 0x20 PUSH1 0x0 KECCAK256 SWAP1 JUMPDEST DUP2 SLOAD DUP2 MSTORE SWAP1 PUSH1 0x1 ADD SWAP1 PUSH1 0x20 ADD DUP1 DUP4 GT PUSH2 0x2BE JUMPI DUP3 SWAP1 SUB PUSH1 0x1F AND DUP3 ADD SWAP2 JUMPDEST POP POP POP POP POP DUP2 MSTORE PUSH1 0x20 ADD PUSH1 0x1 DUP3 ADD DUP1 SLOAD PUSH2 0x2F4 SWAP1 PUSH2 0xA91 JUMP JUMPDEST DUP1 PUSH1 0x1F ADD PUSH1 0x20 DUP1 SWAP2 DIV MUL PUSH1 0x20 ADD PUSH1 0x40 MLOAD SWAP1 DUP2 ADD PUSH1 0x40 MSTORE DUP1 SWAP3 SWAP2 SWAP1 DUP2 DUP2 MSTORE PUSH1 0x20 ADD DUP3 DUP1 SLOAD PUSH2 0x320 SWAP1 PUSH2 0xA91 JUMP JUMPDEST DUP1 ISZERO PUSH2 0x36D JUMPI DUP1 PUSH1 0x1F LT PUSH2 0x342 JUMPI PUSH2 0x100 DUP1 DUP4 SLOAD DIV MUL DUP4 MSTORE SWAP2 PUSH1 0x20 ADD SWAP2 PUSH2 0x36D JUMP JUMPDEST DUP3 ADD SWAP2 SWAP1 PUSH1 0x0 MSTORE PUSH1 0x20 PUSH1 0x0 KECCAK256 SWAP1 JUMPDEST DUP2 SLOAD DUP2 MSTORE SWAP1 PUSH1 0x1 ADD SWAP1 PUSH1 0x20 ADD DUP1 DUP4 GT PUSH2 0x350 JUMPI DUP3 SWAP1 SUB PUSH1 0x1F AND DUP3 ADD SWAP2 JUMPDEST POP POP POP POP POP DUP2 MSTORE PUSH1 0x20 ADD PUSH1 0x2 DUP3 ADD SLOAD DUP2 MSTORE POP POP DUP2 MSTORE PUSH1 0x20 ADD SWAP1 PUSH1 0x1 ADD SWAP1 PUSH2 0x22F JUMP JUMPDEST POP POP POP POP DUP2 MSTORE POP POP SWAP1 POP DUP1 SWAP2 POP POP SWAP2 SWAP1 POP JUMP JUMPDEST PUSH1 0x0 DUP1 SLOAD SWAP1 PUSH2 0x100 EXP SWAP1 DIV PUSH20 0xFFFFFFFFFFFFFFFFFFFFFFFFFFFFFFFFFFFFFFFF AND PUSH20 0xFFFFFFFFFFFFFFFFFFFFFFFFFFFFFFFFFFFFFFFF AND PUSH2 0x8FC SELFBALANCE SWAP1 DUP2 ISZERO MUL SWAP1 PUSH1 0x40 MLOAD PUSH1 0x0 PUSH1 0x40 MLOAD DUP1 DUP4 SUB DUP2 DUP6 DUP9 DUP9 CALL SWAP4 POP POP POP POP ISZERO DUP1 ISZERO PUSH2 0x408 JUMPI RETURNDATASIZE PUSH1 0x0 DUP1 RETURNDATACOPY RETURNDATASIZE PUSH1 0x0 REVERT JUMPDEST POP JUMP JUMPDEST PUSH1 0x1 PUSH1 0x0 DUP3 DUP2 MSTORE PUSH1 0x20 ADD SWAP1 DUP2 MSTORE PUSH1 0x20 ADD PUSH1 0x0 KECCAK256 PUSH1 0x0 ADD DUP1 SLOAD DUP1 PUSH2 0x431 JUMPI PUSH2 0x430 PUSH2 0xB23 JUMP JUMPDEST JUMPDEST PUSH1 0x1 SWAP1 SUB DUP2 DUP2 SWAP1 PUSH1 0x0 MSTORE PUSH1 0x20 PUSH1 0x0 KECCAK256 SWAP1 PUSH1 0x3 MUL ADD PUSH1 0x0 DUP1 DUP3 ADD PUSH1 0x0 PUSH2 0x456 SWAP2 SWAP1 PUSH2 0x5AB JUMP JUMPDEST PUSH1 0x1 DUP3 ADD PUSH1 0x0 PUSH2 0x466 SWAP2 SWAP1 PUSH2 0x5AB JUMP JUMPDEST PUSH1 0x2 DUP3 ADD PUSH1 0x0 SWAP1 SSTORE POP POP SWAP1 SSTORE POP JUMP JUMPDEST PUSH1 0x0 DUP1 CALLER PUSH20 0xFFFFFFFFFFFFFFFFFFFFFFFFFFFFFFFFFFFFFFFF AND PUSH1 0x0 DUP1 SLOAD SWAP1 PUSH2 0x100 EXP SWAP1 DIV PUSH20 0xFFFFFFFFFFFFFFFFFFFFFFFFFFFFFFFFFFFFFFFF AND PUSH20 0xFFFFFFFFFFFFFFFFFFFFFFFFFFFFFFFFFFFFFFFF AND EQ PUSH2 0x506 JUMPI PUSH1 0x40 MLOAD PUSH32 0x8C379A000000000000000000000000000000000000000000000000000000000 DUP2 MSTORE PUSH1 0x4 ADD PUSH2 0x4FD SWAP1 PUSH2 0x8EC JUMP JUMPDEST PUSH1 0x40 MLOAD DUP1 SWAP2 SUB SWAP1 REVERT JUMPDEST SELFBALANCE ADDRESS SWAP2 POP SWAP2 POP SWAP1 SWAP2 JUMP JUMPDEST JUMP JUMPDEST DUP3 DUP1 SLOAD PUSH2 0x51E SWAP1 PUSH2 0xA91 JUMP JUMPDEST SWAP1 PUSH1 0x0 MSTORE PUSH1 0x20 PUSH1 0x0 KECCAK256 SWAP1 PUSH1 0x1F ADD PUSH1 0x20 SWAP1 DIV DUP2 ADD SWAP3 DUP3 PUSH2 0x540 JUMPI PUSH1 0x0 DUP6 SSTORE PUSH2 0x587 JUMP JUMPDEST DUP3 PUSH1 0x1F LT PUSH2 0x559 JUMPI DUP1 MLOAD PUSH1 0xFF NOT AND DUP4 DUP1 ADD OR DUP6 SSTORE PUSH2 0x587 JUMP JUMPDEST DUP3 DUP1 ADD PUSH1 0x1 ADD DUP6 SSTORE DUP3 ISZERO PUSH2 0x587 JUMPI SWAP2 DUP3 ADD JUMPDEST DUP3 DUP2 GT ISZERO PUSH2 0x586 JUMPI DUP3 MLOAD DUP3 SSTORE SWAP2 PUSH1 0x20 ADD SWAP2 SWAP1 PUSH1 0x1 ADD SWAP1 PUSH2 0x56B JUMP JUMPDEST JUMPDEST POP SWAP1 POP PUSH2 0x594 SWAP2 SWAP1 PUSH2 0x5EB JUMP JUMPDEST POP SWAP1 JUMP JUMPDEST PUSH1 0x40 MLOAD DUP1 PUSH1 0x20 ADD PUSH1 0x40 MSTORE DUP1 PUSH1 0x60 DUP2 MSTORE POP SWAP1 JUMP JUMPDEST POP DUP1 SLOAD PUSH2 0x5B7 SWAP1 PUSH2 0xA91 JUMP JUMPDEST PUSH1 0x0 DUP3 SSTORE DUP1 PUSH1 0x1F LT PUSH2 0x5C9 JUMPI POP PUSH2 0x5E8 JUMP JUMPDEST PUSH1 0x1F ADD PUSH1 0x20 SWAP1 DIV SWAP1 PUSH1 0x0 MSTORE PUSH1 0x20 PUSH1 0x0 KECCAK256 SWAP1 DUP2 ADD SWAP1 PUSH2 0x5E7 SWAP2 SWAP1 PUSH2 0x5EB JUMP JUMPDEST JUMPDEST POP JUMP JUMPDEST JUMPDEST DUP1 DUP3 GT ISZERO PUSH2 0x604 JUMPI PUSH1 0x0 DUP2 PUSH1 0x0 SWAP1 SSTORE POP PUSH1 0x1 ADD PUSH2 0x5EC JUMP JUMPDEST POP SWAP1 JUMP JUMPDEST PUSH1 0x0 PUSH2 0x61B PUSH2 0x616 DUP5 PUSH2 0x97C JUMP JUMPDEST PUSH2 0x957 JUMP JUMPDEST SWAP1 POP DUP3 DUP2 MSTORE PUSH1 0x20 DUP2 ADD DUP5 DUP5 DUP5 ADD GT ISZERO PUSH2 0x637 JUMPI PUSH2 0x636 PUSH2 0xB86 JUMP JUMPDEST JUMPDEST PUSH2 0x642 DUP5 DUP3 DUP6 PUSH2 0xA4F JUMP JUMPDEST POP SWAP4 SWAP3 POP POP POP JUMP JUMPDEST PUSH1 0x0 DUP3 PUSH1 0x1F DUP4 ADD SLT PUSH2 0x65F JUMPI PUSH2 0x65E PUSH2 0xB81 JUMP JUMPDEST JUMPDEST DUP2 CALLDATALOAD PUSH2 0x66F DUP5 DUP3 PUSH1 0x20 DUP7 ADD PUSH2 0x608 JUMP JUMPDEST SWAP2 POP POP SWAP3 SWAP2 POP POP JUMP JUMPDEST PUSH1 0x0 DUP2 CALLDATALOAD SWAP1 POP PUSH2 0x687 DUP2 PUSH2 0xBF5 JUMP JUMPDEST SWAP3 SWAP2 POP POP JUMP JUMPDEST PUSH1 0x0 PUSH1 0x20 DUP3 DUP5 SUB SLT ISZERO PUSH2 0x6A3 JUMPI PUSH2 0x6A2 PUSH2 0xB90 JUMP JUMPDEST JUMPDEST PUSH1 0x0 PUSH2 0x6B1 DUP5 DUP3 DUP6 ADD PUSH2 0x678 JUMP JUMPDEST SWAP2 POP POP SWAP3 SWAP2 POP POP JUMP JUMPDEST PUSH1 0x0 DUP1 PUSH1 0x0 DUP1 PUSH1 0x80 DUP6 DUP8 SUB SLT ISZERO PUSH2 0x6D4 JUMPI PUSH2 0x6D3 PUSH2 0xB90 JUMP JUMPDEST JUMPDEST PUSH1 0x0 PUSH2 0x6E2 DUP8 DUP3 DUP9 ADD PUSH2 0x678 JUMP JUMPDEST SWAP5 POP POP PUSH1 0x20 DUP6 ADD CALLDATALOAD PUSH8 0xFFFFFFFFFFFFFFFF DUP2 GT ISZERO PUSH2 0x703 JUMPI PUSH2 0x702 PUSH2 0xB8B JUMP JUMPDEST JUMPDEST PUSH2 0x70F DUP8 DUP3 DUP9 ADD PUSH2 0x64A JUMP JUMPDEST SWAP4 POP POP PUSH1 0x40 DUP6 ADD CALLDATALOAD PUSH8 0xFFFFFFFFFFFFFFFF DUP2 GT ISZERO PUSH2 0x730 JUMPI PUSH2 0x72F PUSH2 0xB8B JUMP JUMPDEST JUMPDEST PUSH2 0x73C DUP8 DUP3 DUP9 ADD PUSH2 0x64A JUMP JUMPDEST SWAP3 POP POP PUSH1 0x60 PUSH2 0x74D DUP8 DUP3 DUP9 ADD PUSH2 0x678 JUMP JUMPDEST SWAP2 POP POP SWAP3 SWAP6 SWAP2 SWAP5 POP SWAP3 POP JUMP JUMPDEST PUSH1 0x0 PUSH2 0x765 DUP4 DUP4 PUSH2 0x84D JUMP JUMPDEST SWAP1 POP SWAP3 SWAP2 POP POP JUMP JUMPDEST PUSH2 0x776 DUP2 PUSH2 0xA13 JUMP JUMPDEST DUP3 MSTORE POP POP JUMP JUMPDEST PUSH1 0x0 PUSH2 0x787 DUP3 PUSH2 0x9BD JUMP JUMPDEST PUSH2 0x791 DUP2 DUP6 PUSH2 0x9E0 JUMP JUMPDEST SWAP4 POP DUP4 PUSH1 0x20 DUP3 MUL DUP6 ADD PUSH2 0x7A3 DUP6 PUSH2 0x9AD JUMP JUMPDEST DUP1 PUSH1 0x0 JUMPDEST DUP6 DUP2 LT ISZERO PUSH2 0x7DF JUMPI DUP5 DUP5 SUB DUP10 MSTORE DUP2 MLOAD PUSH2 0x7C0 DUP6 DUP3 PUSH2 0x759 JUMP JUMPDEST SWAP5 POP PUSH2 0x7CB DUP4 PUSH2 0x9D3 JUMP JUMPDEST SWAP3 POP PUSH1 0x20 DUP11 ADD SWAP10 POP POP PUSH1 0x1 DUP2 ADD SWAP1 POP PUSH2 0x7A7 JUMP JUMPDEST POP DUP3 SWAP8 POP DUP8 SWAP6 POP POP POP POP POP POP SWAP3 SWAP2 POP POP JUMP JUMPDEST PUSH1 0x0 PUSH2 0x7FC DUP3 PUSH2 0x9C8 JUMP JUMPDEST PUSH2 0x806 DUP2 DUP6 PUSH2 0x9F1 JUMP JUMPDEST SWAP4 POP PUSH2 0x816 DUP2 DUP6 PUSH1 0x20 DUP7 ADD PUSH2 0xA5E JUMP JUMPDEST PUSH2 0x81F DUP2 PUSH2 0xB95 JUMP JUMPDEST DUP5 ADD SWAP2 POP POP SWAP3 SWAP2 POP POP JUMP JUMPDEST PUSH1 0x0 PUSH2 0x837 PUSH1 0x26 DUP4 PUSH2 0xA02 JUMP JUMPDEST SWAP2 POP PUSH2 0x842 DUP3 PUSH2 0xBA6 JUMP JUMPDEST PUSH1 0x40 DUP3 ADD SWAP1 POP SWAP2 SWAP1 POP JUMP JUMPDEST PUSH1 0x0 PUSH1 0x60 DUP4 ADD PUSH1 0x0 DUP4 ADD MLOAD DUP5 DUP3 SUB PUSH1 0x0 DUP7 ADD MSTORE PUSH2 0x86A DUP3 DUP3 PUSH2 0x7F1 JUMP JUMPDEST SWAP2 POP POP PUSH1 0x20 DUP4 ADD MLOAD DUP5 DUP3 SUB PUSH1 0x20 DUP7 ADD MSTORE PUSH2 0x884 DUP3 DUP3 PUSH2 0x7F1 JUMP JUMPDEST SWAP2 POP POP PUSH1 0x40 DUP4 ADD MLOAD PUSH2 0x899 PUSH1 0x40 DUP7 ADD DUP3 PUSH2 0x8CE JUMP JUMPDEST POP DUP1 SWAP2 POP POP SWAP3 SWAP2 POP POP JUMP JUMPDEST PUSH1 0x0 PUSH1 0x20 DUP4 ADD PUSH1 0x0 DUP4 ADD MLOAD DUP5 DUP3 SUB PUSH1 0x0 DUP7 ADD MSTORE PUSH2 0x8C1 DUP3 DUP3 PUSH2 0x77C JUMP JUMPDEST SWAP2 POP POP DUP1 SWAP2 POP POP SWAP3 SWAP2 POP POP JUMP JUMPDEST PUSH2 0x8D7 DUP2 PUSH2 0xA45 JUMP JUMPDEST DUP3 MSTORE POP POP JUMP JUMPDEST PUSH2 0x8E6 DUP2 PUSH2 0xA45 JUMP JUMPDEST DUP3 MSTORE POP POP JUMP JUMPDEST PUSH1 0x0 PUSH1 0x20 DUP3 ADD SWAP1 POP DUP2 DUP2 SUB PUSH1 0x0 DUP4 ADD MSTORE PUSH2 0x905 DUP2 PUSH2 0x82A JUMP JUMPDEST SWAP1 POP SWAP2 SWAP1 POP JUMP JUMPDEST PUSH1 0x0 PUSH1 0x20 DUP3 ADD SWAP1 POP DUP2 DUP2 SUB PUSH1 0x0 DUP4 ADD MSTORE PUSH2 0x926 DUP2 DUP5 PUSH2 0x8A4 JUMP JUMPDEST SWAP1 POP SWAP3 SWAP2 POP POP JUMP JUMPDEST PUSH1 0x0 PUSH1 0x40 DUP3 ADD SWAP1 POP PUSH2 0x943 PUSH1 0x0 DUP4 ADD DUP6 PUSH2 0x8DD JUMP JUMPDEST PUSH2 0x950 PUSH1 0x20 DUP4 ADD DUP5 PUSH2 0x76D JUMP JUMPDEST SWAP4 SWAP3 POP POP POP JUMP JUMPDEST PUSH1 0x0 PUSH2 0x961 PUSH2 0x972 JUMP JUMPDEST SWAP1 POP PUSH2 0x96D DUP3 DUP3 PUSH2 0xAC3 JUMP JUMPDEST SWAP2 SWAP1 POP JUMP JUMPDEST PUSH1 0x0 PUSH1 0x40 MLOAD SWAP1 POP SWAP1 JUMP JUMPDEST PUSH1 0x0 PUSH8 0xFFFFFFFFFFFFFFFF DUP3 GT ISZERO PUSH2 0x997 JUMPI PUSH2 0x996 PUSH2 0xB52 JUMP JUMPDEST JUMPDEST PUSH2 0x9A0 DUP3 PUSH2 0xB95 JUMP JUMPDEST SWAP1 POP PUSH1 0x20 DUP2 ADD SWAP1 POP SWAP2 SWAP1 POP JUMP JUMPDEST PUSH1 0x0 DUP2 SWAP1 POP PUSH1 0x20 DUP3 ADD SWAP1 POP SWAP2 SWAP1 POP JUMP JUMPDEST PUSH1 0x0 DUP2 MLOAD SWAP1 POP SWAP2 SWAP1 POP JUMP JUMPDEST PUSH1 0x0 DUP2 MLOAD SWAP1 POP SWAP2 SWAP1 POP JUMP JUMPDEST PUSH1 0x0 PUSH1 0x20 DUP3 ADD SWAP1 POP SWAP2 SWAP1 POP JUMP JUMPDEST PUSH1 0x0 DUP3 DUP3 MSTORE PUSH1 0x20 DUP3 ADD SWAP1 POP SWAP3 SWAP2 POP POP JUMP JUMPDEST PUSH1 0x0 DUP3 DUP3 MSTORE PUSH1 0x20 DUP3 ADD SWAP1 POP SWAP3 SWAP2 POP POP JUMP JUMPDEST PUSH1 0x0 DUP3 DUP3 MSTORE PUSH1 0x20 DUP3 ADD SWAP1 POP SWAP3 SWAP2 POP POP JUMP JUMPDEST PUSH1 0x0 PUSH2 0xA1E DUP3 PUSH2 0xA25 JUMP JUMPDEST SWAP1 POP SWAP2 SWAP1 POP JUMP JUMPDEST PUSH1 0x0 PUSH20 0xFFFFFFFFFFFFFFFFFFFFFFFFFFFFFFFFFFFFFFFF DUP3 AND SWAP1 POP SWAP2 SWAP1 POP JUMP JUMPDEST PUSH1 0x0 DUP2 SWAP1 POP SWAP2 SWAP1 POP JUMP JUMPDEST DUP3 DUP2 DUP4 CALLDATACOPY PUSH1 0x0 DUP4 DUP4 ADD MSTORE POP POP POP JUMP JUMPDEST PUSH1 0x0 JUMPDEST DUP4 DUP2 LT ISZERO PUSH2 0xA7C JUMPI DUP1 DUP3 ADD MLOAD DUP2 DUP5 ADD MSTORE PUSH1 0x20 DUP2 ADD SWAP1 POP PUSH2 0xA61 JUMP JUMPDEST DUP4 DUP2 GT ISZERO PUSH2 0xA8B JUMPI PUSH1 0x0 DUP5 DUP5 ADD MSTORE JUMPDEST POP POP POP POP JUMP JUMPDEST PUSH1 0x0 PUSH1 0x2 DUP3 DIV SWAP1 POP PUSH1 0x1 DUP3 AND DUP1 PUSH2 0xAA9 JUMPI PUSH1 0x7F DUP3 AND SWAP2 POP JUMPDEST PUSH1 0x20 DUP3 LT DUP2 EQ ISZERO PUSH2 0xABD JUMPI PUSH2 0xABC PUSH2 0xAF4 JUMP JUMPDEST JUMPDEST POP SWAP2 SWAP1 POP JUMP JUMPDEST PUSH2 0xACC DUP3 PUSH2 0xB95 JUMP JUMPDEST DUP2 ADD DUP2 DUP2 LT PUSH8 0xFFFFFFFFFFFFFFFF DUP3 GT OR ISZERO PUSH2 0xAEB JUMPI PUSH2 0xAEA PUSH2 0xB52 JUMP JUMPDEST JUMPDEST DUP1 PUSH1 0x40 MSTORE POP POP POP JUMP JUMPDEST PUSH32 0x4E487B7100000000000000000000000000000000000000000000000000000000 PUSH1 0x0 MSTORE PUSH1 0x22 PUSH1 0x4 MSTORE PUSH1 0x24 PUSH1 0x0 REVERT JUMPDEST PUSH32 0x4E487B7100000000000000000000000000000000000000000000000000000000 PUSH1 0x0 MSTORE PUSH1 0x31 PUSH1 0x4 MSTORE PUSH1 0x24 PUSH1 0x0 REVERT JUMPDEST PUSH32 0x4E487B7100000000000000000000000000000000000000000000000000000000 PUSH1 0x0 MSTORE PUSH1 0x41 PUSH1 0x4 MSTORE PUSH1 0x24 PUSH1 0x0 REVERT JUMPDEST PUSH1 0x0 DUP1 REVERT JUMPDEST PUSH1 0x0 DUP1 REVERT JUMPDEST PUSH1 0x0 DUP1 REVERT JUMPDEST PUSH1 0x0 DUP1 REVERT JUMPDEST PUSH1 0x0 PUSH1 0x1F NOT PUSH1 0x1F DUP4 ADD AND SWAP1 POP SWAP2 SWAP1 POP JUMP JUMPDEST PUSH32 0x596F752063616E6E6F7420686176652061636365737320746F20726561642062 PUSH1 0x0 DUP3 ADD MSTORE PUSH32 0x616C616E63650000000000000000000000000000000000000000000000000000 PUSH1 0x20 DUP3 ADD MSTORE POP JUMP JUMPDEST PUSH2 0xBFE DUP2 PUSH2 0xA45 JUMP JUMPDEST DUP2 EQ PUSH2 0xC09 JUMPI PUSH1 0x0 DUP1 REVERT JUMPDEST POP JUMP INVALID LOG2 PUSH5 0x6970667358 0x22 SLT KECCAK256 CALLDATACOPY SLOAD CALLDATACOPY DUP8 PUSH25 0x17BBED8EE940EA6AAE2A3B88D81A61DB1A47D07A2670C6E580 RETURNDATASIZE 0xC6 PUSH5 0x736F6C6343 STOP ADDMOD SMOD STOP CALLER "
				},
				"gasEstimates": {
					"creation": {
						"codeDepositCost": "627600",
						"executionCost": "24930",
						"totalCost": "652530"
					},
					"external": {
						"add_doctor_data(uint256,string,string,uint256)": "infinite",
						"delete_doctor_data(uint256)": "infinite",
						"get_balance_earn_from_patients()": "2734",
						"get_doctor_data(uint256)": "infinite",
						"payment_from_patients()": "208",
						"withdraw_funds_to_owner_from_contract()": "infinite"
					}
				},
				"methodIdentifiers": {
					"add_doctor_data(uint256,string,string,uint256)": "05227c1b",
					"delete_doctor_data(uint256)": "a929ffe1",
					"get_balance_earn_from_patients()": "dd1d97cb",
					"get_doctor_data(uint256)": "692e8201",
					"payment_from_patients()": "e16b2eef",
					"withdraw_funds_to_owner_from_contract()": "8ed20cbe"
				}
			},
			"storageLayout": {
				"storage": [
					{
						"astId": 8,
						"contract": "contracts/doctor.sol:practice",
						"label": "owner",
						"offset": 0,
						"slot": "0",
						"type": "t_address_payable"
					},
					{
						"astId": 25,
						"contract": "contracts/doctor.sol:practice",
						"label": "doctor_mapping",
						"offset": 0,
						"slot": "1",
						"type": "t_mapping(t_uint256,t_struct(Doctor_Model)20_storage)"
					}
				],
				"types": {
					"t_address_payable": {
						"encoding": "inplace",
						"label": "address payable",
						"numberOfBytes": "20"
					},
					"t_array(t_struct(Doctor)15_storage)dyn_storage": {
						"base": "t_struct(Doctor)15_storage",
						"encoding": "dynamic_array",
						"label": "struct practice.Doctor[]",
						"numberOfBytes": "32"
					},
					"t_mapping(t_uint256,t_struct(Doctor_Model)20_storage)": {
						"encoding": "mapping",
						"key": "t_uint256",
						"label": "mapping(uint256 => struct practice.Doctor_Model)",
						"numberOfBytes": "32",
						"value": "t_struct(Doctor_Model)20_storage"
					},
					"t_string_storage": {
						"encoding": "bytes",
						"label": "string",
						"numberOfBytes": "32"
					},
					"t_struct(Doctor)15_storage": {
						"encoding": "inplace",
						"label": "struct practice.Doctor",
						"members": [
							{
								"astId": 10,
								"contract": "contracts/doctor.sol:practice",
								"label": "name",
								"offset": 0,
								"slot": "0",
								"type": "t_string_storage"
							},
							{
								"astId": 12,
								"contract": "contracts/doctor.sol:practice",
								"label": "speciality",
								"offset": 0,
								"slot": "1",
								"type": "t_string_storage"
							},
							{
								"astId": 14,
								"contract": "contracts/doctor.sol:practice",
								"label": "roomNo",
								"offset": 0,
								"slot": "2",
								"type": "t_uint256"
							}
						],
						"numberOfBytes": "96"
					},
					"t_struct(Doctor_Model)20_storage": {
						"encoding": "inplace",
						"label": "struct practice.Doctor_Model",
						"members": [
							{
								"astId": 19,
								"contract": "contracts/doctor.sol:practice",
								"label": "DoctorsArray",
								"offset": 0,
								"slot": "0",
								"type": "t_array(t_struct(Doctor)15_storage)dyn_storage"
							}
						],
						"numberOfBytes": "32"
					},
					"t_uint256": {
						"encoding": "inplace",
						"label": "uint256",
						"numberOfBytes": "32"
					}
				}
			},
			"userdoc": {
				"kind": "user",
				"methods": {},
				"version": 1
			}
		}
	}
}