{
	"contracts/reverse.sol": {
		"reverse_num": {
			"abi": [
				{
					"inputs": [
						{
							"internalType": "uint256",
							"name": "num",
							"type": "uint256"
						}
					],
					"name": "reverse",
					"outputs": [
						{
							"internalType": "uint256",
							"name": "",
							"type": "uint256"
						}
					],
					"stateMutability": "pure",
					"type": "function"
				}
			],
			"devdoc": {
				"kind": "dev",
				"methods": {},
				"version": 1
			},
			"evm": {
				"assembly": "    /* \"contracts/reverse.sol\":68:378  contract reverse_num {... */\n  mstore(0x40, 0x80)\n  callvalue\n  dup1\n  iszero\n  tag_1\n  jumpi\n  0x00\n  dup1\n  revert\ntag_1:\n  pop\n  dataSize(sub_0)\n  dup1\n  dataOffset(sub_0)\n  0x00\n  codecopy\n  0x00\n  return\nstop\n\nsub_0: assembly {\n        /* \"contracts/reverse.sol\":68:378  contract reverse_num {... */\n      mstore(0x40, 0x80)\n      callvalue\n      dup1\n      iszero\n      tag_1\n      jumpi\n      0x00\n      dup1\n      revert\n    tag_1:\n      pop\n      jumpi(tag_2, lt(calldatasize, 0x04))\n      shr(0xe0, calldataload(0x00))\n      dup1\n      0x97d15425\n      eq\n      tag_3\n      jumpi\n    tag_2:\n      0x00\n      dup1\n      revert\n        /* \"contracts/reverse.sol\":96:375  function reverse(uint num) public pure returns(uint){... */\n    tag_3:\n      tag_4\n      0x04\n      dup1\n      calldatasize\n      sub\n      dup2\n      add\n      swap1\n      tag_5\n      swap2\n      swap1\n      tag_6\n      jump\t// in\n    tag_5:\n      tag_7\n      jump\t// in\n    tag_4:\n      mload(0x40)\n      tag_8\n      swap2\n      swap1\n      tag_9\n      jump\t// in\n    tag_8:\n      mload(0x40)\n      dup1\n      swap2\n      sub\n      swap1\n      return\n    tag_7:\n        /* \"contracts/reverse.sol\":143:147  uint */\n      0x00\n        /* \"contracts/reverse.sol\":159:168  uint num1 */\n      dup1\n        /* \"contracts/reverse.sol\":179:188  uint num2 */\n      0x00\n        /* \"contracts/reverse.sol\":203:328  while(num > 0){... */\n    tag_11:\n        /* \"contracts/reverse.sol\":215:216  0 */\n      0x00\n        /* \"contracts/reverse.sol\":209:212  num */\n      dup5\n        /* \"contracts/reverse.sol\":209:216  num > 0 */\n      gt\n        /* \"contracts/reverse.sol\":203:328  while(num > 0){... */\n      iszero\n      tag_12\n      jumpi\n        /* \"contracts/reverse.sol\":245:247  10 */\n      0x0a\n        /* \"contracts/reverse.sol\":239:242  num */\n      dup5\n        /* \"contracts/reverse.sol\":239:247  num % 10 */\n      tag_13\n      swap2\n      swap1\n      tag_14\n      jump\t// in\n    tag_13:\n        /* \"contracts/reverse.sol\":232:247  num1 = num % 10 */\n      swap2\n      pop\n        /* \"contracts/reverse.sol\":283:287  num1 */\n      dup2\n        /* \"contracts/reverse.sol\":277:279  10 */\n      0x0a\n        /* \"contracts/reverse.sol\":270:274  num2 */\n      dup3\n        /* \"contracts/reverse.sol\":270:279  num2 * 10 */\n      tag_15\n      swap2\n      swap1\n      tag_16\n      jump\t// in\n    tag_15:\n        /* \"contracts/reverse.sol\":269:287  (num2 * 10) + num1 */\n      tag_17\n      swap2\n      swap1\n      tag_18\n      jump\t// in\n    tag_17:\n        /* \"contracts/reverse.sol\":262:287  num2 = (num2 * 10) + num1 */\n      swap1\n      pop\n        /* \"contracts/reverse.sol\":314:316  10 */\n      0x0a\n        /* \"contracts/reverse.sol\":308:311  num */\n      dup5\n        /* \"contracts/reverse.sol\":308:316  num / 10 */\n      tag_19\n      swap2\n      swap1\n      tag_20\n      jump\t// in\n    tag_19:\n        /* \"contracts/reverse.sol\":302:316  num = num / 10 */\n      swap4\n      pop\n        /* \"contracts/reverse.sol\":203:328  while(num > 0){... */\n      jump(tag_11)\n    tag_12:\n        /* \"contracts/reverse.sol\":357:361  num2 */\n      dup1\n        /* \"contracts/reverse.sol\":350:361  return num2 */\n      swap3\n      pop\n      pop\n      pop\n        /* \"contracts/reverse.sol\":96:375  function reverse(uint num) public pure returns(uint){... */\n      swap2\n      swap1\n      pop\n      jump\t// out\n        /* \"#utility.yul\":88:205   */\n    tag_22:\n        /* \"#utility.yul\":197:198   */\n      0x00\n        /* \"#utility.yul\":194:195   */\n      dup1\n        /* \"#utility.yul\":187:199   */\n      revert\n        /* \"#utility.yul\":334:411   */\n    tag_24:\n        /* \"#utility.yul\":371:378   */\n      0x00\n        /* \"#utility.yul\":400:405   */\n      dup2\n        /* \"#utility.yul\":389:405   */\n      swap1\n      pop\n        /* \"#utility.yul\":334:411   */\n      swap2\n      swap1\n      pop\n      jump\t// out\n        /* \"#utility.yul\":417:539   */\n    tag_25:\n        /* \"#utility.yul\":490:514   */\n      tag_36\n        /* \"#utility.yul\":508:513   */\n      dup2\n        /* \"#utility.yul\":490:514   */\n      tag_24\n      jump\t// in\n    tag_36:\n        /* \"#utility.yul\":483:488   */\n      dup2\n        /* \"#utility.yul\":480:515   */\n      eq\n        /* \"#utility.yul\":470:533   */\n      tag_37\n      jumpi\n        /* \"#utility.yul\":529:530   */\n      0x00\n        /* \"#utility.yul\":526:527   */\n      dup1\n        /* \"#utility.yul\":519:531   */\n      revert\n        /* \"#utility.yul\":470:533   */\n    tag_37:\n        /* \"#utility.yul\":417:539   */\n      pop\n      jump\t// out\n        /* \"#utility.yul\":545:684   */\n    tag_26:\n        /* \"#utility.yul\":591:596   */\n      0x00\n        /* \"#utility.yul\":629:635   */\n      dup2\n        /* \"#utility.yul\":616:636   */\n      calldataload\n        /* \"#utility.yul\":607:636   */\n      swap1\n      pop\n        /* \"#utility.yul\":645:678   */\n      tag_39\n        /* \"#utility.yul\":672:677   */\n      dup2\n        /* \"#utility.yul\":645:678   */\n      tag_25\n      jump\t// in\n    tag_39:\n        /* \"#utility.yul\":545:684   */\n      swap3\n      swap2\n      pop\n      pop\n      jump\t// out\n        /* \"#utility.yul\":690:1019   */\n    tag_6:\n        /* \"#utility.yul\":749:755   */\n      0x00\n        /* \"#utility.yul\":798:800   */\n      0x20\n        /* \"#utility.yul\":786:795   */\n      dup3\n        /* \"#utility.yul\":777:784   */\n      dup5\n        /* \"#utility.yul\":773:796   */\n      sub\n        /* \"#utility.yul\":769:801   */\n      slt\n        /* \"#utility.yul\":766:885   */\n      iszero\n      tag_41\n      jumpi\n        /* \"#utility.yul\":804:883   */\n      tag_42\n      tag_22\n      jump\t// in\n    tag_42:\n        /* \"#utility.yul\":766:885   */\n    tag_41:\n        /* \"#utility.yul\":924:925   */\n      0x00\n        /* \"#utility.yul\":949:1002   */\n      tag_43\n        /* \"#utility.yul\":994:1001   */\n      dup5\n        /* \"#utility.yul\":985:991   */\n      dup3\n        /* \"#utility.yul\":974:983   */\n      dup6\n        /* \"#utility.yul\":970:992   */\n      add\n        /* \"#utility.yul\":949:1002   */\n      tag_26\n      jump\t// in\n    tag_43:\n        /* \"#utility.yul\":939:1002   */\n      swap2\n      pop\n        /* \"#utility.yul\":895:1012   */\n      pop\n        /* \"#utility.yul\":690:1019   */\n      swap3\n      swap2\n      pop\n      pop\n      jump\t// out\n        /* \"#utility.yul\":1025:1143   */\n    tag_27:\n        /* \"#utility.yul\":1112:1136   */\n      tag_45\n        /* \"#utility.yul\":1130:1135   */\n      dup2\n        /* \"#utility.yul\":1112:1136   */\n      tag_24\n      jump\t// in\n    tag_45:\n        /* \"#utility.yul\":1107:1110   */\n      dup3\n        /* \"#utility.yul\":1100:1137   */\n      mstore\n        /* \"#utility.yul\":1025:1143   */\n      pop\n      pop\n      jump\t// out\n        /* \"#utility.yul\":1149:1371   */\n    tag_9:\n        /* \"#utility.yul\":1242:1246   */\n      0x00\n        /* \"#utility.yul\":1280:1282   */\n      0x20\n        /* \"#utility.yul\":1269:1278   */\n      dup3\n        /* \"#utility.yul\":1265:1283   */\n      add\n        /* \"#utility.yul\":1257:1283   */\n      swap1\n      pop\n        /* \"#utility.yul\":1293:1364   */\n      tag_47\n        /* \"#utility.yul\":1361:1362   */\n      0x00\n        /* \"#utility.yul\":1350:1359   */\n      dup4\n        /* \"#utility.yul\":1346:1363   */\n      add\n        /* \"#utility.yul\":1337:1343   */\n      dup5\n        /* \"#utility.yul\":1293:1364   */\n      tag_27\n      jump\t// in\n    tag_47:\n        /* \"#utility.yul\":1149:1371   */\n      swap3\n      swap2\n      pop\n      pop\n      jump\t// out\n        /* \"#utility.yul\":1377:1557   */\n    tag_28:\n        /* \"#utility.yul\":1425:1502   */\n      0x4e487b7100000000000000000000000000000000000000000000000000000000\n        /* \"#utility.yul\":1422:1423   */\n      0x00\n        /* \"#utility.yul\":1415:1503   */\n      mstore\n        /* \"#utility.yul\":1522:1526   */\n      0x12\n        /* \"#utility.yul\":1519:1520   */\n      0x04\n        /* \"#utility.yul\":1512:1527   */\n      mstore\n        /* \"#utility.yul\":1546:1550   */\n      0x24\n        /* \"#utility.yul\":1543:1544   */\n      0x00\n        /* \"#utility.yul\":1536:1551   */\n      revert\n        /* \"#utility.yul\":1563:1739   */\n    tag_14:\n        /* \"#utility.yul\":1595:1596   */\n      0x00\n        /* \"#utility.yul\":1612:1632   */\n      tag_50\n        /* \"#utility.yul\":1630:1631   */\n      dup3\n        /* \"#utility.yul\":1612:1632   */\n      tag_24\n      jump\t// in\n    tag_50:\n        /* \"#utility.yul\":1607:1632   */\n      swap2\n      pop\n        /* \"#utility.yul\":1646:1666   */\n      tag_51\n        /* \"#utility.yul\":1664:1665   */\n      dup4\n        /* \"#utility.yul\":1646:1666   */\n      tag_24\n      jump\t// in\n    tag_51:\n        /* \"#utility.yul\":1641:1666   */\n      swap3\n      pop\n        /* \"#utility.yul\":1685:1686   */\n      dup3\n        /* \"#utility.yul\":1675:1710   */\n      tag_52\n      jumpi\n        /* \"#utility.yul\":1690:1708   */\n      tag_53\n      tag_28\n      jump\t// in\n    tag_53:\n        /* \"#utility.yul\":1675:1710   */\n    tag_52:\n        /* \"#utility.yul\":1731:1732   */\n      dup3\n        /* \"#utility.yul\":1728:1729   */\n      dup3\n        /* \"#utility.yul\":1724:1733   */\n      mod\n        /* \"#utility.yul\":1719:1733   */\n      swap1\n      pop\n        /* \"#utility.yul\":1563:1739   */\n      swap3\n      swap2\n      pop\n      pop\n      jump\t// out\n        /* \"#utility.yul\":1745:1925   */\n    tag_29:\n        /* \"#utility.yul\":1793:1870   */\n      0x4e487b7100000000000000000000000000000000000000000000000000000000\n        /* \"#utility.yul\":1790:1791   */\n      0x00\n        /* \"#utility.yul\":1783:1871   */\n      mstore\n        /* \"#utility.yul\":1890:1894   */\n      0x11\n        /* \"#utility.yul\":1887:1888   */\n      0x04\n        /* \"#utility.yul\":1880:1895   */\n      mstore\n        /* \"#utility.yul\":1914:1918   */\n      0x24\n        /* \"#utility.yul\":1911:1912   */\n      0x00\n        /* \"#utility.yul\":1904:1919   */\n      revert\n        /* \"#utility.yul\":1931:2341   */\n    tag_16:\n        /* \"#utility.yul\":1971:1978   */\n      0x00\n        /* \"#utility.yul\":1994:2014   */\n      tag_56\n        /* \"#utility.yul\":2012:2013   */\n      dup3\n        /* \"#utility.yul\":1994:2014   */\n      tag_24\n      jump\t// in\n    tag_56:\n        /* \"#utility.yul\":1989:2014   */\n      swap2\n      pop\n        /* \"#utility.yul\":2028:2048   */\n      tag_57\n        /* \"#utility.yul\":2046:2047   */\n      dup4\n        /* \"#utility.yul\":2028:2048   */\n      tag_24\n      jump\t// in\n    tag_57:\n        /* \"#utility.yul\":2023:2048   */\n      swap3\n      pop\n        /* \"#utility.yul\":2083:2084   */\n      dup3\n        /* \"#utility.yul\":2080:2081   */\n      dup3\n        /* \"#utility.yul\":2076:2085   */\n      mul\n        /* \"#utility.yul\":2105:2135   */\n      tag_58\n        /* \"#utility.yul\":2123:2134   */\n      dup2\n        /* \"#utility.yul\":2105:2135   */\n      tag_24\n      jump\t// in\n    tag_58:\n        /* \"#utility.yul\":2094:2135   */\n      swap2\n      pop\n        /* \"#utility.yul\":2284:2285   */\n      dup3\n        /* \"#utility.yul\":2275:2282   */\n      dup3\n        /* \"#utility.yul\":2271:2286   */\n      div\n        /* \"#utility.yul\":2268:2269   */\n      dup5\n        /* \"#utility.yul\":2265:2287   */\n      eq\n        /* \"#utility.yul\":2245:2246   */\n      dup4\n        /* \"#utility.yul\":2238:2247   */\n      iszero\n        /* \"#utility.yul\":2218:2301   */\n      or\n        /* \"#utility.yul\":2195:2334   */\n      tag_59\n      jumpi\n        /* \"#utility.yul\":2314:2332   */\n      tag_60\n      tag_29\n      jump\t// in\n    tag_60:\n        /* \"#utility.yul\":2195:2334   */\n    tag_59:\n        /* \"#utility.yul\":1979:2341   */\n      pop\n        /* \"#utility.yul\":1931:2341   */\n      swap3\n      swap2\n      pop\n      pop\n      jump\t// out\n        /* \"#utility.yul\":2347:2538   */\n    tag_18:\n        /* \"#utility.yul\":2387:2390   */\n      0x00\n        /* \"#utility.yul\":2406:2426   */\n      tag_62\n        /* \"#utility.yul\":2424:2425   */\n      dup3\n        /* \"#utility.yul\":2406:2426   */\n      tag_24\n      jump\t// in\n    tag_62:\n        /* \"#utility.yul\":2401:2426   */\n      swap2\n      pop\n        /* \"#utility.yul\":2440:2460   */\n      tag_63\n        /* \"#utility.yul\":2458:2459   */\n      dup4\n        /* \"#utility.yul\":2440:2460   */\n      tag_24\n      jump\t// in\n    tag_63:\n        /* \"#utility.yul\":2435:2460   */\n      swap3\n      pop\n        /* \"#utility.yul\":2483:2484   */\n      dup3\n        /* \"#utility.yul\":2480:2481   */\n      dup3\n        /* \"#utility.yul\":2476:2485   */\n      add\n        /* \"#utility.yul\":2469:2485   */\n      swap1\n      pop\n        /* \"#utility.yul\":2504:2507   */\n      dup1\n        /* \"#utility.yul\":2501:2502   */\n      dup3\n        /* \"#utility.yul\":2498:2508   */\n      gt\n        /* \"#utility.yul\":2495:2531   */\n      iszero\n      tag_64\n      jumpi\n        /* \"#utility.yul\":2511:2529   */\n      tag_65\n      tag_29\n      jump\t// in\n    tag_65:\n        /* \"#utility.yul\":2495:2531   */\n    tag_64:\n        /* \"#utility.yul\":2347:2538   */\n      swap3\n      swap2\n      pop\n      pop\n      jump\t// out\n        /* \"#utility.yul\":2544:2729   */\n    tag_20:\n        /* \"#utility.yul\":2584:2585   */\n      0x00\n        /* \"#utility.yul\":2601:2621   */\n      tag_67\n        /* \"#utility.yul\":2619:2620   */\n      dup3\n        /* \"#utility.yul\":2601:2621   */\n      tag_24\n      jump\t// in\n    tag_67:\n        /* \"#utility.yul\":2596:2621   */\n      swap2\n      pop\n        /* \"#utility.yul\":2635:2655   */\n      tag_68\n        /* \"#utility.yul\":2653:2654   */\n      dup4\n        /* \"#utility.yul\":2635:2655   */\n      tag_24\n      jump\t// in\n    tag_68:\n        /* \"#utility.yul\":2630:2655   */\n      swap3\n      pop\n        /* \"#utility.yul\":2674:2675   */\n      dup3\n        /* \"#utility.yul\":2664:2699   */\n      tag_69\n      jumpi\n        /* \"#utility.yul\":2679:2697   */\n      tag_70\n      tag_28\n      jump\t// in\n    tag_70:\n        /* \"#utility.yul\":2664:2699   */\n    tag_69:\n        /* \"#utility.yul\":2721:2722   */\n      dup3\n        /* \"#utility.yul\":2718:2719   */\n      dup3\n        /* \"#utility.yul\":2714:2723   */\n      div\n        /* \"#utility.yul\":2709:2723   */\n      swap1\n      pop\n        /* \"#utility.yul\":2544:2729   */\n      swap3\n      swap2\n      pop\n      pop\n      jump\t// out\n\n    auxdata: 0xa2646970667358221220a38307fc743ca43d10ccdeb072816b20e4ba0f0b349655d712e5f705b65418bf64736f6c634300081a0033\n}\n",
				"bytecode": {
					"linkReferences": {},
					"object": "6080604052348015600e575f80fd5b5061029e8061001c5f395ff3fe608060405234801561000f575f80fd5b5060043610610029575f3560e01c806397d154251461002d575b5f80fd5b610047600480360381019061004291906100e7565b61005d565b6040516100549190610121565b60405180910390f35b5f805f5b5f8411156100a657600a846100769190610167565b915081600a8261008691906101c4565b6100909190610205565b9050600a8461009f9190610238565b9350610061565b8092505050919050565b5f80fd5b5f819050919050565b6100c6816100b4565b81146100d0575f80fd5b50565b5f813590506100e1816100bd565b92915050565b5f602082840312156100fc576100fb6100b0565b5b5f610109848285016100d3565b91505092915050565b61011b816100b4565b82525050565b5f6020820190506101345f830184610112565b92915050565b7f4e487b71000000000000000000000000000000000000000000000000000000005f52601260045260245ffd5b5f610171826100b4565b915061017c836100b4565b92508261018c5761018b61013a565b5b828206905092915050565b7f4e487b71000000000000000000000000000000000000000000000000000000005f52601160045260245ffd5b5f6101ce826100b4565b91506101d9836100b4565b92508282026101e7816100b4565b915082820484148315176101fe576101fd610197565b5b5092915050565b5f61020f826100b4565b915061021a836100b4565b925082820190508082111561023257610231610197565b5b92915050565b5f610242826100b4565b915061024d836100b4565b92508261025d5761025c61013a565b5b82820490509291505056fea2646970667358221220a38307fc743ca43d10ccdeb072816b20e4ba0f0b349655d712e5f705b65418bf64736f6c634300081a0033",
					"opcodes": "PUSH1 0x80 PUSH1 0x40 MSTORE CALLVALUE DUP1 ISZERO PUSH1 0xE JUMPI PUSH0 DUP1 REVERT JUMPDEST POP PUSH2 0x29E DUP1 PUSH2 0x1C PUSH0 CODECOPY PUSH0 RETURN INVALID PUSH1 0x80 PUSH1 0x40 MSTORE CALLVALUE DUP1 ISZERO PUSH2 0xF JUMPI PUSH0 DUP1 REVERT JUMPDEST POP PUSH1 0x4 CALLDATASIZE LT PUSH2 0x29 JUMPI PUSH0 CALLDATALOAD PUSH1 0xE0 SHR DUP1 PUSH4 0x97D15425 EQ PUSH2 0x2D JUMPI JUMPDEST PUSH0 DUP1 REVERT JUMPDEST PUSH2 0x47 PUSH1 0x4 DUP1 CALLDATASIZE SUB DUP2 ADD SWAP1 PUSH2 0x42 SWAP2 SWAP1 PUSH2 0xE7 JUMP JUMPDEST PUSH2 0x5D JUMP JUMPDEST PUSH1 0x40 MLOAD PUSH2 0x54 SWAP2 SWAP1 PUSH2 0x121 JUMP JUMPDEST PUSH1 0x40 MLOAD DUP1 SWAP2 SUB SWAP1 RETURN JUMPDEST PUSH0 DUP1 PUSH0 JUMPDEST PUSH0 DUP5 GT ISZERO PUSH2 0xA6 JUMPI PUSH1 0xA DUP5 PUSH2 0x76 SWAP2 SWAP1 PUSH2 0x167 JUMP JUMPDEST SWAP2 POP DUP2 PUSH1 0xA DUP3 PUSH2 0x86 SWAP2 SWAP1 PUSH2 0x1C4 JUMP JUMPDEST PUSH2 0x90 SWAP2 SWAP1 PUSH2 0x205 JUMP JUMPDEST SWAP1 POP PUSH1 0xA DUP5 PUSH2 0x9F SWAP2 SWAP1 PUSH2 0x238 JUMP JUMPDEST SWAP4 POP PUSH2 0x61 JUMP JUMPDEST DUP1 SWAP3 POP POP POP SWAP2 SWAP1 POP JUMP JUMPDEST PUSH0 DUP1 REVERT JUMPDEST PUSH0 DUP2 SWAP1 POP SWAP2 SWAP1 POP JUMP JUMPDEST PUSH2 0xC6 DUP2 PUSH2 0xB4 JUMP JUMPDEST DUP2 EQ PUSH2 0xD0 JUMPI PUSH0 DUP1 REVERT JUMPDEST POP JUMP JUMPDEST PUSH0 DUP2 CALLDATALOAD SWAP1 POP PUSH2 0xE1 DUP2 PUSH2 0xBD JUMP JUMPDEST SWAP3 SWAP2 POP POP JUMP JUMPDEST PUSH0 PUSH1 0x20 DUP3 DUP5 SUB SLT ISZERO PUSH2 0xFC JUMPI PUSH2 0xFB PUSH2 0xB0 JUMP JUMPDEST JUMPDEST PUSH0 PUSH2 0x109 DUP5 DUP3 DUP6 ADD PUSH2 0xD3 JUMP JUMPDEST SWAP2 POP POP SWAP3 SWAP2 POP POP JUMP JUMPDEST PUSH2 0x11B DUP2 PUSH2 0xB4 JUMP JUMPDEST DUP3 MSTORE POP POP JUMP JUMPDEST PUSH0 PUSH1 0x20 DUP3 ADD SWAP1 POP PUSH2 0x134 PUSH0 DUP4 ADD DUP5 PUSH2 0x112 JUMP JUMPDEST SWAP3 SWAP2 POP POP JUMP JUMPDEST PUSH32 0x4E487B7100000000000000000000000000000000000000000000000000000000 PUSH0 MSTORE PUSH1 0x12 PUSH1 0x4 MSTORE PUSH1 0x24 PUSH0 REVERT JUMPDEST PUSH0 PUSH2 0x171 DUP3 PUSH2 0xB4 JUMP JUMPDEST SWAP2 POP PUSH2 0x17C DUP4 PUSH2 0xB4 JUMP JUMPDEST SWAP3 POP DUP3 PUSH2 0x18C JUMPI PUSH2 0x18B PUSH2 0x13A JUMP JUMPDEST JUMPDEST DUP3 DUP3 MOD SWAP1 POP SWAP3 SWAP2 POP POP JUMP JUMPDEST PUSH32 0x4E487B7100000000000000000000000000000000000000000000000000000000 PUSH0 MSTORE PUSH1 0x11 PUSH1 0x4 MSTORE PUSH1 0x24 PUSH0 REVERT JUMPDEST PUSH0 PUSH2 0x1CE DUP3 PUSH2 0xB4 JUMP JUMPDEST SWAP2 POP PUSH2 0x1D9 DUP4 PUSH2 0xB4 JUMP JUMPDEST SWAP3 POP DUP3 DUP3 MUL PUSH2 0x1E7 DUP2 PUSH2 0xB4 JUMP JUMPDEST SWAP2 POP DUP3 DUP3 DIV DUP5 EQ DUP4 ISZERO OR PUSH2 0x1FE JUMPI PUSH2 0x1FD PUSH2 0x197 JUMP JUMPDEST JUMPDEST POP SWAP3 SWAP2 POP POP JUMP JUMPDEST PUSH0 PUSH2 0x20F DUP3 PUSH2 0xB4 JUMP JUMPDEST SWAP2 POP PUSH2 0x21A DUP4 PUSH2 0xB4 JUMP JUMPDEST SWAP3 POP DUP3 DUP3 ADD SWAP1 POP DUP1 DUP3 GT ISZERO PUSH2 0x232 JUMPI PUSH2 0x231 PUSH2 0x197 JUMP JUMPDEST JUMPDEST SWAP3 SWAP2 POP POP JUMP JUMPDEST PUSH0 PUSH2 0x242 DUP3 PUSH2 0xB4 JUMP JUMPDEST SWAP2 POP PUSH2 0x24D DUP4 PUSH2 0xB4 JUMP JUMPDEST SWAP3 POP DUP3 PUSH2 0x25D JUMPI PUSH2 0x25C PUSH2 0x13A JUMP JUMPDEST JUMPDEST DUP3 DUP3 DIV SWAP1 POP SWAP3 SWAP2 POP POP JUMP INVALID LOG2 PUSH5 0x6970667358 0x22 SLT KECCAK256 LOG3 DUP4 SMOD 0xFC PUSH21 0x3CA43D10CCDEB072816B20E4BA0F0B349655D712E5 0xF7 SDIV 0xB6 SLOAD XOR 0xBF PUSH5 0x736F6C6343 STOP ADDMOD BYTE STOP CALLER "
				},
				"gasEstimates": {
					"creation": {
						"codeDepositCost": "134000",
						"executionCost": "175",
						"totalCost": "134175"
					},
					"external": {
						"reverse(uint256)": "infinite"
					}
				},
				"methodIdentifiers": {
					"reverse(uint256)": "97d15425"
				}
			},
			"storageLayout": {
				"storage": [],
				"types": null
			},
			"userdoc": {
				"kind": "user",
				"methods": {},
				"version": 1
			}
		}
	}
}