{
	"contracts/reverse.sol": {
		"Sort": {
			"abi": [
				{
					"inputs": [
						{
							"internalType": "int256[]",
							"name": "array",
							"type": "int256[]"
						},
						{
							"internalType": "uint256",
							"name": "size",
							"type": "uint256"
						}
					],
					"name": "sort",
					"outputs": [
						{
							"internalType": "int256[]",
							"name": "",
							"type": "int256[]"
						}
					],
					"stateMutability": "pure",
					"type": "function"
				}
			],
			"devdoc": {
				"kind": "dev",
				"methods": {},
				"version": 1
			},
			"evm": {
				"assembly": "    /* \"contracts/reverse.sol\":1033:1727  contract Sort {... */\n  mstore(0x40, 0x80)\n  callvalue\n  dup1\n  iszero\n  tag_1\n  jumpi\n  0x00\n  dup1\n  revert\ntag_1:\n  pop\n  dataSize(sub_0)\n  dup1\n  dataOffset(sub_0)\n  0x00\n  codecopy\n  0x00\n  return\nstop\n\nsub_0: assembly {\n        /* \"contracts/reverse.sol\":1033:1727  contract Sort {... */\n      mstore(0x40, 0x80)\n      callvalue\n      dup1\n      iszero\n      tag_1\n      jumpi\n      0x00\n      dup1\n      revert\n    tag_1:\n      pop\n      jumpi(tag_2, lt(calldatasize, 0x04))\n      shr(0xe0, calldataload(0x00))\n      dup1\n      0xab8f20c0\n      eq\n      tag_3\n      jumpi\n    tag_2:\n      0x00\n      dup1\n      revert\n        /* \"contracts/reverse.sol\":1054:1724  function sort(int256[] memory array, uint256 size)... */\n    tag_3:\n      tag_4\n      0x04\n      dup1\n      calldatasize\n      sub\n      dup2\n      add\n      swap1\n      tag_5\n      swap2\n      swap1\n      tag_6\n      jump\t// in\n    tag_5:\n      tag_7\n      jump\t// in\n    tag_4:\n      mload(0x40)\n      tag_8\n      swap2\n      swap1\n      tag_9\n      jump\t// in\n    tag_8:\n      mload(0x40)\n      dup1\n      swap2\n      sub\n      swap1\n      return\n    tag_7:\n        /* \"contracts/reverse.sol\":1153:1168  int256[] memory */\n      0x60\n        /* \"contracts/reverse.sol\":1191:1203  uint256 step */\n      0x00\n        /* \"contracts/reverse.sol\":1186:1694  for (uint256 step = 0; step < size - 1; ++step) {... */\n    tag_11:\n        /* \"contracts/reverse.sol\":1223:1224  1 */\n      0x01\n        /* \"contracts/reverse.sol\":1216:1220  size */\n      dup4\n        /* \"contracts/reverse.sol\":1216:1224  size - 1 */\n      tag_14\n      swap2\n      swap1\n      tag_15\n      jump\t// in\n    tag_14:\n        /* \"contracts/reverse.sol\":1209:1213  step */\n      dup2\n        /* \"contracts/reverse.sol\":1209:1224  step < size - 1 */\n      lt\n        /* \"contracts/reverse.sol\":1186:1694  for (uint256 step = 0; step < size - 1; ++step) {... */\n      iszero\n      tag_12\n      jumpi\n        /* \"contracts/reverse.sol\":1249:1263  int256 swapped */\n      0x00\n        /* \"contracts/reverse.sol\":1289:1298  uint256 i */\n      dup1\n        /* \"contracts/reverse.sol\":1284:1609  for (uint256 i = 0; i < size - step - 1; ++i) {... */\n    tag_16:\n        /* \"contracts/reverse.sol\":1322:1323  1 */\n      0x01\n        /* \"contracts/reverse.sol\":1315:1319  step */\n      dup4\n        /* \"contracts/reverse.sol\":1308:1312  size */\n      dup7\n        /* \"contracts/reverse.sol\":1308:1319  size - step */\n      tag_19\n      swap2\n      swap1\n      tag_15\n      jump\t// in\n    tag_19:\n        /* \"contracts/reverse.sol\":1308:1323  size - step - 1 */\n      tag_20\n      swap2\n      swap1\n      tag_15\n      jump\t// in\n    tag_20:\n        /* \"contracts/reverse.sol\":1304:1305  i */\n      dup2\n        /* \"contracts/reverse.sol\":1304:1323  i < size - step - 1 */\n      lt\n        /* \"contracts/reverse.sol\":1284:1609  for (uint256 i = 0; i < size - step - 1; ++i) {... */\n      iszero\n      tag_17\n      jumpi\n        /* \"contracts/reverse.sol\":1364:1369  array */\n      dup6\n        /* \"contracts/reverse.sol\":1374:1375  1 */\n      0x01\n        /* \"contracts/reverse.sol\":1370:1371  i */\n      dup3\n        /* \"contracts/reverse.sol\":1370:1375  i + 1 */\n      tag_21\n      swap2\n      swap1\n      tag_22\n      jump\t// in\n    tag_21:\n        /* \"contracts/reverse.sol\":1364:1376  array[i + 1] */\n      dup2\n      mload\n      dup2\n      lt\n      tag_23\n      jumpi\n      tag_24\n      tag_25\n      jump\t// in\n    tag_24:\n    tag_23:\n      0x20\n      mul\n      0x20\n      add\n      add\n      mload\n        /* \"contracts/reverse.sol\":1353:1358  array */\n      dup7\n        /* \"contracts/reverse.sol\":1359:1360  i */\n      dup3\n        /* \"contracts/reverse.sol\":1353:1361  array[i] */\n      dup2\n      mload\n      dup2\n      lt\n      tag_26\n      jumpi\n      tag_27\n      tag_25\n      jump\t// in\n    tag_27:\n    tag_26:\n      0x20\n      mul\n      0x20\n      add\n      add\n      mload\n        /* \"contracts/reverse.sol\":1353:1376  array[i] > array[i + 1] */\n      sgt\n        /* \"contracts/reverse.sol\":1349:1594  if (array[i] > array[i + 1]) {... */\n      iszero\n      tag_28\n      jumpi\n        /* \"contracts/reverse.sol\":1401:1412  int256 temp */\n      0x00\n        /* \"contracts/reverse.sol\":1442:1447  array */\n      dup7\n        /* \"contracts/reverse.sol\":1448:1449  i */\n      dup3\n        /* \"contracts/reverse.sol\":1442:1450  array[i] */\n      dup2\n      mload\n      dup2\n      lt\n      tag_29\n      jumpi\n      tag_30\n      tag_25\n      jump\t// in\n    tag_30:\n    tag_29:\n      0x20\n      mul\n      0x20\n      add\n      add\n      mload\n        /* \"contracts/reverse.sol\":1435:1450  temp = array[i] */\n      swap1\n      pop\n        /* \"contracts/reverse.sol\":1484:1489  array */\n      dup7\n        /* \"contracts/reverse.sol\":1494:1495  1 */\n      0x01\n        /* \"contracts/reverse.sol\":1490:1491  i */\n      dup4\n        /* \"contracts/reverse.sol\":1490:1495  i + 1 */\n      tag_31\n      swap2\n      swap1\n      tag_22\n      jump\t// in\n    tag_31:\n        /* \"contracts/reverse.sol\":1484:1496  array[i + 1] */\n      dup2\n      mload\n      dup2\n      lt\n      tag_32\n      jumpi\n      tag_33\n      tag_25\n      jump\t// in\n    tag_33:\n    tag_32:\n      0x20\n      mul\n      0x20\n      add\n      add\n      mload\n        /* \"contracts/reverse.sol\":1473:1478  array */\n      dup8\n        /* \"contracts/reverse.sol\":1479:1480  i */\n      dup4\n        /* \"contracts/reverse.sol\":1473:1481  array[i] */\n      dup2\n      mload\n      dup2\n      lt\n      tag_34\n      jumpi\n      tag_35\n      tag_25\n      jump\t// in\n    tag_35:\n    tag_34:\n      0x20\n      mul\n      0x20\n      add\n      add\n        /* \"contracts/reverse.sol\":1473:1496  array[i] = array[i + 1] */\n      dup2\n      dup2\n      mstore\n      pop\n      pop\n        /* \"contracts/reverse.sol\":1534:1538  temp */\n      dup1\n        /* \"contracts/reverse.sol\":1519:1524  array */\n      dup8\n        /* \"contracts/reverse.sol\":1529:1530  1 */\n      0x01\n        /* \"contracts/reverse.sol\":1525:1526  i */\n      dup5\n        /* \"contracts/reverse.sol\":1525:1530  i + 1 */\n      tag_36\n      swap2\n      swap1\n      tag_22\n      jump\t// in\n    tag_36:\n        /* \"contracts/reverse.sol\":1519:1531  array[i + 1] */\n      dup2\n      mload\n      dup2\n      lt\n      tag_37\n      jumpi\n      tag_38\n      tag_25\n      jump\t// in\n    tag_38:\n    tag_37:\n      0x20\n      mul\n      0x20\n      add\n      add\n        /* \"contracts/reverse.sol\":1519:1538  array[i + 1] = temp */\n      dup2\n      dup2\n      mstore\n      pop\n      pop\n        /* \"contracts/reverse.sol\":1573:1574  1 */\n      0x01\n        /* \"contracts/reverse.sol\":1563:1574  swapped = 1 */\n      swap3\n      pop\n        /* \"contracts/reverse.sol\":1378:1594  {... */\n      pop\n        /* \"contracts/reverse.sol\":1349:1594  if (array[i] > array[i + 1]) {... */\n    tag_28:\n        /* \"contracts/reverse.sol\":1325:1328  ++i */\n      dup1\n      0x01\n      add\n      swap1\n      pop\n        /* \"contracts/reverse.sol\":1284:1609  for (uint256 i = 0; i < size - step - 1; ++i) {... */\n      jump(tag_16)\n    tag_17:\n      pop\n        /* \"contracts/reverse.sol\":1640:1641  0 */\n      0x00\n        /* \"contracts/reverse.sol\":1629:1636  swapped */\n      dup2\n        /* \"contracts/reverse.sol\":1629:1641  swapped == 0 */\n      sub\n        /* \"contracts/reverse.sol\":1625:1683  if (swapped == 0) {... */\n      tag_39\n      jumpi\n        /* \"contracts/reverse.sol\":1662:1667  break */\n      pop\n      jump(tag_12)\n        /* \"contracts/reverse.sol\":1625:1683  if (swapped == 0) {... */\n    tag_39:\n        /* \"contracts/reverse.sol\":1234:1694  {... */\n      pop\n        /* \"contracts/reverse.sol\":1226:1232  ++step */\n      dup1\n      0x01\n      add\n      swap1\n      pop\n        /* \"contracts/reverse.sol\":1186:1694  for (uint256 step = 0; step < size - 1; ++step) {... */\n      jump(tag_11)\n    tag_12:\n      pop\n        /* \"contracts/reverse.sol\":1711:1716  array */\n      dup3\n        /* \"contracts/reverse.sol\":1704:1716  return array */\n      swap1\n      pop\n        /* \"contracts/reverse.sol\":1054:1724  function sort(int256[] memory array, uint256 size)... */\n      swap3\n      swap2\n      pop\n      pop\n      jump\t// out\n        /* \"#utility.yul\":7:82   */\n    tag_40:\n        /* \"#utility.yul\":40:46   */\n      0x00\n        /* \"#utility.yul\":73:75   */\n      0x40\n        /* \"#utility.yul\":67:76   */\n      mload\n        /* \"#utility.yul\":57:76   */\n      swap1\n      pop\n        /* \"#utility.yul\":7:82   */\n      swap1\n      jump\t// out\n        /* \"#utility.yul\":88:205   */\n    tag_41:\n        /* \"#utility.yul\":197:198   */\n      0x00\n        /* \"#utility.yul\":194:195   */\n      dup1\n        /* \"#utility.yul\":187:199   */\n      revert\n        /* \"#utility.yul\":211:328   */\n    tag_42:\n        /* \"#utility.yul\":320:321   */\n      0x00\n        /* \"#utility.yul\":317:318   */\n      dup1\n        /* \"#utility.yul\":310:322   */\n      revert\n        /* \"#utility.yul\":334:451   */\n    tag_43:\n        /* \"#utility.yul\":443:444   */\n      0x00\n        /* \"#utility.yul\":440:441   */\n      dup1\n        /* \"#utility.yul\":433:445   */\n      revert\n        /* \"#utility.yul\":457:559   */\n    tag_44:\n        /* \"#utility.yul\":498:504   */\n      0x00\n        /* \"#utility.yul\":549:551   */\n      0x1f\n        /* \"#utility.yul\":545:552   */\n      not\n        /* \"#utility.yul\":540:542   */\n      0x1f\n        /* \"#utility.yul\":533:538   */\n      dup4\n        /* \"#utility.yul\":529:543   */\n      add\n        /* \"#utility.yul\":525:553   */\n      and\n        /* \"#utility.yul\":515:553   */\n      swap1\n      pop\n        /* \"#utility.yul\":457:559   */\n      swap2\n      swap1\n      pop\n      jump\t// out\n        /* \"#utility.yul\":565:745   */\n    tag_45:\n        /* \"#utility.yul\":613:690   */\n      0x4e487b7100000000000000000000000000000000000000000000000000000000\n        /* \"#utility.yul\":610:611   */\n      0x00\n        /* \"#utility.yul\":603:691   */\n      mstore\n        /* \"#utility.yul\":710:714   */\n      0x41\n        /* \"#utility.yul\":707:708   */\n      0x04\n        /* \"#utility.yul\":700:715   */\n      mstore\n        /* \"#utility.yul\":734:738   */\n      0x24\n        /* \"#utility.yul\":731:732   */\n      0x00\n        /* \"#utility.yul\":724:739   */\n      revert\n        /* \"#utility.yul\":751:1032   */\n    tag_46:\n        /* \"#utility.yul\":834:861   */\n      tag_74\n        /* \"#utility.yul\":856:860   */\n      dup3\n        /* \"#utility.yul\":834:861   */\n      tag_44\n      jump\t// in\n    tag_74:\n        /* \"#utility.yul\":826:832   */\n      dup2\n        /* \"#utility.yul\":822:862   */\n      add\n        /* \"#utility.yul\":964:970   */\n      dup2\n        /* \"#utility.yul\":952:962   */\n      dup2\n        /* \"#utility.yul\":949:971   */\n      lt\n        /* \"#utility.yul\":928:946   */\n      0xffffffffffffffff\n        /* \"#utility.yul\":916:926   */\n      dup3\n        /* \"#utility.yul\":913:947   */\n      gt\n        /* \"#utility.yul\":910:972   */\n      or\n        /* \"#utility.yul\":907:995   */\n      iszero\n      tag_75\n      jumpi\n        /* \"#utility.yul\":975:993   */\n      tag_76\n      tag_45\n      jump\t// in\n    tag_76:\n        /* \"#utility.yul\":907:995   */\n    tag_75:\n        /* \"#utility.yul\":1015:1025   */\n      dup1\n        /* \"#utility.yul\":1011:1013   */\n      0x40\n        /* \"#utility.yul\":1004:1026   */\n      mstore\n        /* \"#utility.yul\":794:1032   */\n      pop\n        /* \"#utility.yul\":751:1032   */\n      pop\n      pop\n      jump\t// out\n        /* \"#utility.yul\":1038:1167   */\n    tag_47:\n        /* \"#utility.yul\":1072:1078   */\n      0x00\n        /* \"#utility.yul\":1099:1119   */\n      tag_78\n      tag_40\n      jump\t// in\n    tag_78:\n        /* \"#utility.yul\":1089:1119   */\n      swap1\n      pop\n        /* \"#utility.yul\":1128:1161   */\n      tag_79\n        /* \"#utility.yul\":1156:1160   */\n      dup3\n        /* \"#utility.yul\":1148:1154   */\n      dup3\n        /* \"#utility.yul\":1128:1161   */\n      tag_46\n      jump\t// in\n    tag_79:\n        /* \"#utility.yul\":1038:1167   */\n      swap2\n      swap1\n      pop\n      jump\t// out\n        /* \"#utility.yul\":1173:1483   */\n    tag_48:\n        /* \"#utility.yul\":1249:1253   */\n      0x00\n        /* \"#utility.yul\":1339:1357   */\n      0xffffffffffffffff\n        /* \"#utility.yul\":1331:1337   */\n      dup3\n        /* \"#utility.yul\":1328:1358   */\n      gt\n        /* \"#utility.yul\":1325:1381   */\n      iszero\n      tag_81\n      jumpi\n        /* \"#utility.yul\":1361:1379   */\n      tag_82\n      tag_45\n      jump\t// in\n    tag_82:\n        /* \"#utility.yul\":1325:1381   */\n    tag_81:\n        /* \"#utility.yul\":1411:1415   */\n      0x20\n        /* \"#utility.yul\":1403:1409   */\n      dup3\n        /* \"#utility.yul\":1399:1416   */\n      mul\n        /* \"#utility.yul\":1391:1416   */\n      swap1\n      pop\n        /* \"#utility.yul\":1471:1475   */\n      0x20\n        /* \"#utility.yul\":1465:1469   */\n      dup2\n        /* \"#utility.yul\":1461:1476   */\n      add\n        /* \"#utility.yul\":1453:1476   */\n      swap1\n      pop\n        /* \"#utility.yul\":1173:1483   */\n      swap2\n      swap1\n      pop\n      jump\t// out\n        /* \"#utility.yul\":1489:1606   */\n    tag_49:\n        /* \"#utility.yul\":1598:1599   */\n      0x00\n        /* \"#utility.yul\":1595:1596   */\n      dup1\n        /* \"#utility.yul\":1588:1600   */\n      revert\n        /* \"#utility.yul\":1612:1688   */\n    tag_50:\n        /* \"#utility.yul\":1648:1655   */\n      0x00\n        /* \"#utility.yul\":1677:1682   */\n      dup2\n        /* \"#utility.yul\":1666:1682   */\n      swap1\n      pop\n        /* \"#utility.yul\":1612:1688   */\n      swap2\n      swap1\n      pop\n      jump\t// out\n        /* \"#utility.yul\":1694:1814   */\n    tag_51:\n        /* \"#utility.yul\":1766:1789   */\n      tag_86\n        /* \"#utility.yul\":1783:1788   */\n      dup2\n        /* \"#utility.yul\":1766:1789   */\n      tag_50\n      jump\t// in\n    tag_86:\n        /* \"#utility.yul\":1759:1764   */\n      dup2\n        /* \"#utility.yul\":1756:1790   */\n      eq\n        /* \"#utility.yul\":1746:1808   */\n      tag_87\n      jumpi\n        /* \"#utility.yul\":1804:1805   */\n      0x00\n        /* \"#utility.yul\":1801:1802   */\n      dup1\n        /* \"#utility.yul\":1794:1806   */\n      revert\n        /* \"#utility.yul\":1746:1808   */\n    tag_87:\n        /* \"#utility.yul\":1694:1814   */\n      pop\n      jump\t// out\n        /* \"#utility.yul\":1820:1957   */\n    tag_52:\n        /* \"#utility.yul\":1865:1870   */\n      0x00\n        /* \"#utility.yul\":1903:1909   */\n      dup2\n        /* \"#utility.yul\":1890:1910   */\n      calldataload\n        /* \"#utility.yul\":1881:1910   */\n      swap1\n      pop\n        /* \"#utility.yul\":1919:1951   */\n      tag_89\n        /* \"#utility.yul\":1945:1950   */\n      dup2\n        /* \"#utility.yul\":1919:1951   */\n      tag_51\n      jump\t// in\n    tag_89:\n        /* \"#utility.yul\":1820:1957   */\n      swap3\n      swap2\n      pop\n      pop\n      jump\t// out\n        /* \"#utility.yul\":1979:2686   */\n    tag_53:\n        /* \"#utility.yul\":2074:2079   */\n      0x00\n        /* \"#utility.yul\":2099:2179   */\n      tag_91\n        /* \"#utility.yul\":2115:2178   */\n      tag_92\n        /* \"#utility.yul\":2171:2177   */\n      dup5\n        /* \"#utility.yul\":2115:2178   */\n      tag_48\n      jump\t// in\n    tag_92:\n        /* \"#utility.yul\":2099:2179   */\n      tag_47\n      jump\t// in\n    tag_91:\n        /* \"#utility.yul\":2090:2179   */\n      swap1\n      pop\n        /* \"#utility.yul\":2199:2204   */\n      dup1\n        /* \"#utility.yul\":2228:2234   */\n      dup4\n        /* \"#utility.yul\":2221:2226   */\n      dup3\n        /* \"#utility.yul\":2214:2235   */\n      mstore\n        /* \"#utility.yul\":2262:2266   */\n      0x20\n        /* \"#utility.yul\":2255:2260   */\n      dup3\n        /* \"#utility.yul\":2251:2267   */\n      add\n        /* \"#utility.yul\":2244:2267   */\n      swap1\n      pop\n        /* \"#utility.yul\":2315:2319   */\n      0x20\n        /* \"#utility.yul\":2307:2313   */\n      dup5\n        /* \"#utility.yul\":2303:2320   */\n      mul\n        /* \"#utility.yul\":2295:2301   */\n      dup4\n        /* \"#utility.yul\":2291:2321   */\n      add\n        /* \"#utility.yul\":2344:2347   */\n      dup6\n        /* \"#utility.yul\":2336:2342   */\n      dup2\n        /* \"#utility.yul\":2333:2348   */\n      gt\n        /* \"#utility.yul\":2330:2452   */\n      iszero\n      tag_93\n      jumpi\n        /* \"#utility.yul\":2363:2442   */\n      tag_94\n      tag_49\n      jump\t// in\n    tag_94:\n        /* \"#utility.yul\":2330:2452   */\n    tag_93:\n        /* \"#utility.yul\":2478:2484   */\n      dup4\n        /* \"#utility.yul\":2461:2680   */\n    tag_95:\n        /* \"#utility.yul\":2495:2501   */\n      dup2\n        /* \"#utility.yul\":2490:2493   */\n      dup2\n        /* \"#utility.yul\":2487:2502   */\n      lt\n        /* \"#utility.yul\":2461:2680   */\n      iszero\n      tag_97\n      jumpi\n        /* \"#utility.yul\":2570:2573   */\n      dup1\n        /* \"#utility.yul\":2599:2635   */\n      tag_98\n        /* \"#utility.yul\":2631:2634   */\n      dup9\n        /* \"#utility.yul\":2619:2629   */\n      dup3\n        /* \"#utility.yul\":2599:2635   */\n      tag_52\n      jump\t// in\n    tag_98:\n        /* \"#utility.yul\":2594:2597   */\n      dup5\n        /* \"#utility.yul\":2587:2636   */\n      mstore\n        /* \"#utility.yul\":2665:2669   */\n      0x20\n        /* \"#utility.yul\":2660:2663   */\n      dup5\n        /* \"#utility.yul\":2656:2670   */\n      add\n        /* \"#utility.yul\":2649:2670   */\n      swap4\n      pop\n        /* \"#utility.yul\":2537:2680   */\n      pop\n        /* \"#utility.yul\":2521:2525   */\n      0x20\n        /* \"#utility.yul\":2516:2519   */\n      dup2\n        /* \"#utility.yul\":2512:2526   */\n      add\n        /* \"#utility.yul\":2505:2526   */\n      swap1\n      pop\n        /* \"#utility.yul\":2461:2680   */\n      jump(tag_95)\n    tag_97:\n        /* \"#utility.yul\":2465:2486   */\n      pop\n        /* \"#utility.yul\":2080:2686   */\n      pop\n      pop\n        /* \"#utility.yul\":1979:2686   */\n      swap4\n      swap3\n      pop\n      pop\n      pop\n      jump\t// out\n        /* \"#utility.yul\":2708:3076   */\n    tag_54:\n        /* \"#utility.yul\":2778:2783   */\n      0x00\n        /* \"#utility.yul\":2827:2830   */\n      dup3\n        /* \"#utility.yul\":2820:2824   */\n      0x1f\n        /* \"#utility.yul\":2812:2818   */\n      dup4\n        /* \"#utility.yul\":2808:2825   */\n      add\n        /* \"#utility.yul\":2804:2831   */\n      slt\n        /* \"#utility.yul\":2794:2916   */\n      tag_100\n      jumpi\n        /* \"#utility.yul\":2835:2914   */\n      tag_101\n      tag_43\n      jump\t// in\n    tag_101:\n        /* \"#utility.yul\":2794:2916   */\n    tag_100:\n        /* \"#utility.yul\":2952:2958   */\n      dup2\n        /* \"#utility.yul\":2939:2959   */\n      calldataload\n        /* \"#utility.yul\":2977:3070   */\n      tag_102\n        /* \"#utility.yul\":3066:3069   */\n      dup5\n        /* \"#utility.yul\":3058:3064   */\n      dup3\n        /* \"#utility.yul\":3051:3055   */\n      0x20\n        /* \"#utility.yul\":3043:3049   */\n      dup7\n        /* \"#utility.yul\":3039:3056   */\n      add\n        /* \"#utility.yul\":2977:3070   */\n      tag_53\n      jump\t// in\n    tag_102:\n        /* \"#utility.yul\":2968:3070   */\n      swap2\n      pop\n        /* \"#utility.yul\":2784:3076   */\n      pop\n        /* \"#utility.yul\":2708:3076   */\n      swap3\n      swap2\n      pop\n      pop\n      jump\t// out\n        /* \"#utility.yul\":3082:3159   */\n    tag_55:\n        /* \"#utility.yul\":3119:3126   */\n      0x00\n        /* \"#utility.yul\":3148:3153   */\n      dup2\n        /* \"#utility.yul\":3137:3153   */\n      swap1\n      pop\n        /* \"#utility.yul\":3082:3159   */\n      swap2\n      swap1\n      pop\n      jump\t// out\n        /* \"#utility.yul\":3165:3287   */\n    tag_56:\n        /* \"#utility.yul\":3238:3262   */\n      tag_105\n        /* \"#utility.yul\":3256:3261   */\n      dup2\n        /* \"#utility.yul\":3238:3262   */\n      tag_55\n      jump\t// in\n    tag_105:\n        /* \"#utility.yul\":3231:3236   */\n      dup2\n        /* \"#utility.yul\":3228:3263   */\n      eq\n        /* \"#utility.yul\":3218:3281   */\n      tag_106\n      jumpi\n        /* \"#utility.yul\":3277:3278   */\n      0x00\n        /* \"#utility.yul\":3274:3275   */\n      dup1\n        /* \"#utility.yul\":3267:3279   */\n      revert\n        /* \"#utility.yul\":3218:3281   */\n    tag_106:\n        /* \"#utility.yul\":3165:3287   */\n      pop\n      jump\t// out\n        /* \"#utility.yul\":3293:3432   */\n    tag_57:\n        /* \"#utility.yul\":3339:3344   */\n      0x00\n        /* \"#utility.yul\":3377:3383   */\n      dup2\n        /* \"#utility.yul\":3364:3384   */\n      calldataload\n        /* \"#utility.yul\":3355:3384   */\n      swap1\n      pop\n        /* \"#utility.yul\":3393:3426   */\n      tag_108\n        /* \"#utility.yul\":3420:3425   */\n      dup2\n        /* \"#utility.yul\":3393:3426   */\n      tag_56\n      jump\t// in\n    tag_108:\n        /* \"#utility.yul\":3293:3432   */\n      swap3\n      swap2\n      pop\n      pop\n      jump\t// out\n        /* \"#utility.yul\":3438:4120   */\n    tag_6:\n        /* \"#utility.yul\":3530:3536   */\n      0x00\n        /* \"#utility.yul\":3538:3544   */\n      dup1\n        /* \"#utility.yul\":3587:3589   */\n      0x40\n        /* \"#utility.yul\":3575:3584   */\n      dup4\n        /* \"#utility.yul\":3566:3573   */\n      dup6\n        /* \"#utility.yul\":3562:3585   */\n      sub\n        /* \"#utility.yul\":3558:3590   */\n      slt\n        /* \"#utility.yul\":3555:3674   */\n      iszero\n      tag_110\n      jumpi\n        /* \"#utility.yul\":3593:3672   */\n      tag_111\n      tag_41\n      jump\t// in\n    tag_111:\n        /* \"#utility.yul\":3555:3674   */\n    tag_110:\n        /* \"#utility.yul\":3741:3742   */\n      0x00\n        /* \"#utility.yul\":3730:3739   */\n      dup4\n        /* \"#utility.yul\":3726:3743   */\n      add\n        /* \"#utility.yul\":3713:3744   */\n      calldataload\n        /* \"#utility.yul\":3771:3789   */\n      0xffffffffffffffff\n        /* \"#utility.yul\":3763:3769   */\n      dup2\n        /* \"#utility.yul\":3760:3790   */\n      gt\n        /* \"#utility.yul\":3757:3874   */\n      iszero\n      tag_112\n      jumpi\n        /* \"#utility.yul\":3793:3872   */\n      tag_113\n      tag_42\n      jump\t// in\n    tag_113:\n        /* \"#utility.yul\":3757:3874   */\n    tag_112:\n        /* \"#utility.yul\":3898:3975   */\n      tag_114\n        /* \"#utility.yul\":3967:3974   */\n      dup6\n        /* \"#utility.yul\":3958:3964   */\n      dup3\n        /* \"#utility.yul\":3947:3956   */\n      dup7\n        /* \"#utility.yul\":3943:3965   */\n      add\n        /* \"#utility.yul\":3898:3975   */\n      tag_54\n      jump\t// in\n    tag_114:\n        /* \"#utility.yul\":3888:3975   */\n      swap3\n      pop\n        /* \"#utility.yul\":3684:3985   */\n      pop\n        /* \"#utility.yul\":4024:4026   */\n      0x20\n        /* \"#utility.yul\":4050:4103   */\n      tag_115\n        /* \"#utility.yul\":4095:4102   */\n      dup6\n        /* \"#utility.yul\":4086:4092   */\n      dup3\n        /* \"#utility.yul\":4075:4084   */\n      dup7\n        /* \"#utility.yul\":4071:4093   */\n      add\n        /* \"#utility.yul\":4050:4103   */\n      tag_57\n      jump\t// in\n    tag_115:\n        /* \"#utility.yul\":4040:4103   */\n      swap2\n      pop\n        /* \"#utility.yul\":3995:4113   */\n      pop\n        /* \"#utility.yul\":3438:4120   */\n      swap3\n      pop\n      swap3\n      swap1\n      pop\n      jump\t// out\n        /* \"#utility.yul\":4126:4239   */\n    tag_58:\n        /* \"#utility.yul\":4192:4198   */\n      0x00\n        /* \"#utility.yul\":4226:4231   */\n      dup2\n        /* \"#utility.yul\":4220:4232   */\n      mload\n        /* \"#utility.yul\":4210:4232   */\n      swap1\n      pop\n        /* \"#utility.yul\":4126:4239   */\n      swap2\n      swap1\n      pop\n      jump\t// out\n        /* \"#utility.yul\":4245:4428   */\n    tag_59:\n        /* \"#utility.yul\":4343:4354   */\n      0x00\n        /* \"#utility.yul\":4377:4383   */\n      dup3\n        /* \"#utility.yul\":4372:4375   */\n      dup3\n        /* \"#utility.yul\":4365:4384   */\n      mstore\n        /* \"#utility.yul\":4417:4421   */\n      0x20\n        /* \"#utility.yul\":4412:4415   */\n      dup3\n        /* \"#utility.yul\":4408:4422   */\n      add\n        /* \"#utility.yul\":4393:4422   */\n      swap1\n      pop\n        /* \"#utility.yul\":4245:4428   */\n      swap3\n      swap2\n      pop\n      pop\n      jump\t// out\n        /* \"#utility.yul\":4434:4565   */\n    tag_60:\n        /* \"#utility.yul\":4500:4504   */\n      0x00\n        /* \"#utility.yul\":4523:4526   */\n      dup2\n        /* \"#utility.yul\":4515:4526   */\n      swap1\n      pop\n        /* \"#utility.yul\":4553:4557   */\n      0x20\n        /* \"#utility.yul\":4548:4551   */\n      dup3\n        /* \"#utility.yul\":4544:4558   */\n      add\n        /* \"#utility.yul\":4536:4558   */\n      swap1\n      pop\n        /* \"#utility.yul\":4434:4565   */\n      swap2\n      swap1\n      pop\n      jump\t// out\n        /* \"#utility.yul\":4571:4676   */\n    tag_61:\n        /* \"#utility.yul\":4646:4669   */\n      tag_120\n        /* \"#utility.yul\":4663:4668   */\n      dup2\n        /* \"#utility.yul\":4646:4669   */\n      tag_50\n      jump\t// in\n    tag_120:\n        /* \"#utility.yul\":4641:4644   */\n      dup3\n        /* \"#utility.yul\":4634:4670   */\n      mstore\n        /* \"#utility.yul\":4571:4676   */\n      pop\n      pop\n      jump\t// out\n        /* \"#utility.yul\":4682:4857   */\n    tag_62:\n        /* \"#utility.yul\":4749:4759   */\n      0x00\n        /* \"#utility.yul\":4770:4814   */\n      tag_122\n        /* \"#utility.yul\":4810:4813   */\n      dup4\n        /* \"#utility.yul\":4802:4808   */\n      dup4\n        /* \"#utility.yul\":4770:4814   */\n      tag_61\n      jump\t// in\n    tag_122:\n        /* \"#utility.yul\":4846:4850   */\n      0x20\n        /* \"#utility.yul\":4841:4844   */\n      dup4\n        /* \"#utility.yul\":4837:4851   */\n      add\n        /* \"#utility.yul\":4823:4851   */\n      swap1\n      pop\n        /* \"#utility.yul\":4682:4857   */\n      swap3\n      swap2\n      pop\n      pop\n      jump\t// out\n        /* \"#utility.yul\":4863:4975   */\n    tag_63:\n        /* \"#utility.yul\":4932:4936   */\n      0x00\n        /* \"#utility.yul\":4964:4968   */\n      0x20\n        /* \"#utility.yul\":4959:4962   */\n      dup3\n        /* \"#utility.yul\":4955:4969   */\n      add\n        /* \"#utility.yul\":4947:4969   */\n      swap1\n      pop\n        /* \"#utility.yul\":4863:4975   */\n      swap2\n      swap1\n      pop\n      jump\t// out\n        /* \"#utility.yul\":5009:5733   */\n    tag_64:\n        /* \"#utility.yul\":5126:5129   */\n      0x00\n        /* \"#utility.yul\":5155:5208   */\n      tag_125\n        /* \"#utility.yul\":5202:5207   */\n      dup3\n        /* \"#utility.yul\":5155:5208   */\n      tag_58\n      jump\t// in\n    tag_125:\n        /* \"#utility.yul\":5224:5309   */\n      tag_126\n        /* \"#utility.yul\":5302:5308   */\n      dup2\n        /* \"#utility.yul\":5297:5300   */\n      dup6\n        /* \"#utility.yul\":5224:5309   */\n      tag_59\n      jump\t// in\n    tag_126:\n        /* \"#utility.yul\":5217:5309   */\n      swap4\n      pop\n        /* \"#utility.yul\":5333:5388   */\n      tag_127\n        /* \"#utility.yul\":5382:5387   */\n      dup4\n        /* \"#utility.yul\":5333:5388   */\n      tag_60\n      jump\t// in\n    tag_127:\n        /* \"#utility.yul\":5411:5418   */\n      dup1\n        /* \"#utility.yul\":5442:5443   */\n      0x00\n        /* \"#utility.yul\":5427:5708   */\n    tag_128:\n        /* \"#utility.yul\":5452:5458   */\n      dup4\n        /* \"#utility.yul\":5449:5450   */\n      dup2\n        /* \"#utility.yul\":5446:5459   */\n      lt\n        /* \"#utility.yul\":5427:5708   */\n      iszero\n      tag_130\n      jumpi\n        /* \"#utility.yul\":5528:5534   */\n      dup2\n        /* \"#utility.yul\":5522:5535   */\n      mload\n        /* \"#utility.yul\":5555:5616   */\n      tag_131\n        /* \"#utility.yul\":5612:5615   */\n      dup9\n        /* \"#utility.yul\":5597:5610   */\n      dup3\n        /* \"#utility.yul\":5555:5616   */\n      tag_62\n      jump\t// in\n    tag_131:\n        /* \"#utility.yul\":5548:5616   */\n      swap8\n      pop\n        /* \"#utility.yul\":5639:5698   */\n      tag_132\n        /* \"#utility.yul\":5691:5697   */\n      dup4\n        /* \"#utility.yul\":5639:5698   */\n      tag_63\n      jump\t// in\n    tag_132:\n        /* \"#utility.yul\":5629:5698   */\n      swap3\n      pop\n        /* \"#utility.yul\":5487:5708   */\n      pop\n        /* \"#utility.yul\":5474:5475   */\n      0x01\n        /* \"#utility.yul\":5471:5472   */\n      dup2\n        /* \"#utility.yul\":5467:5476   */\n      add\n        /* \"#utility.yul\":5462:5476   */\n      swap1\n      pop\n        /* \"#utility.yul\":5427:5708   */\n      jump(tag_128)\n    tag_130:\n        /* \"#utility.yul\":5431:5445   */\n      pop\n        /* \"#utility.yul\":5724:5727   */\n      dup6\n        /* \"#utility.yul\":5717:5727   */\n      swap4\n      pop\n        /* \"#utility.yul\":5131:5733   */\n      pop\n      pop\n      pop\n        /* \"#utility.yul\":5009:5733   */\n      swap3\n      swap2\n      pop\n      pop\n      jump\t// out\n        /* \"#utility.yul\":5739:6108   */\n    tag_9:\n        /* \"#utility.yul\":5880:5884   */\n      0x00\n        /* \"#utility.yul\":5918:5920   */\n      0x20\n        /* \"#utility.yul\":5907:5916   */\n      dup3\n        /* \"#utility.yul\":5903:5921   */\n      add\n        /* \"#utility.yul\":5895:5921   */\n      swap1\n      pop\n        /* \"#utility.yul\":5967:5976   */\n      dup2\n        /* \"#utility.yul\":5961:5965   */\n      dup2\n        /* \"#utility.yul\":5957:5977   */\n      sub\n        /* \"#utility.yul\":5953:5954   */\n      0x00\n        /* \"#utility.yul\":5942:5951   */\n      dup4\n        /* \"#utility.yul\":5938:5955   */\n      add\n        /* \"#utility.yul\":5931:5978   */\n      mstore\n        /* \"#utility.yul\":5995:6101   */\n      tag_134\n        /* \"#utility.yul\":6096:6100   */\n      dup2\n        /* \"#utility.yul\":6087:6093   */\n      dup5\n        /* \"#utility.yul\":5995:6101   */\n      tag_64\n      jump\t// in\n    tag_134:\n        /* \"#utility.yul\":5987:6101   */\n      swap1\n      pop\n        /* \"#utility.yul\":5739:6108   */\n      swap3\n      swap2\n      pop\n      pop\n      jump\t// out\n        /* \"#utility.yul\":6114:6294   */\n    tag_65:\n        /* \"#utility.yul\":6162:6239   */\n      0x4e487b7100000000000000000000000000000000000000000000000000000000\n        /* \"#utility.yul\":6159:6160   */\n      0x00\n        /* \"#utility.yul\":6152:6240   */\n      mstore\n        /* \"#utility.yul\":6259:6263   */\n      0x11\n        /* \"#utility.yul\":6256:6257   */\n      0x04\n        /* \"#utility.yul\":6249:6264   */\n      mstore\n        /* \"#utility.yul\":6283:6287   */\n      0x24\n        /* \"#utility.yul\":6280:6281   */\n      0x00\n        /* \"#utility.yul\":6273:6288   */\n      revert\n        /* \"#utility.yul\":6300:6494   */\n    tag_15:\n        /* \"#utility.yul\":6340:6344   */\n      0x00\n        /* \"#utility.yul\":6360:6380   */\n      tag_137\n        /* \"#utility.yul\":6378:6379   */\n      dup3\n        /* \"#utility.yul\":6360:6380   */\n      tag_55\n      jump\t// in\n    tag_137:\n        /* \"#utility.yul\":6355:6380   */\n      swap2\n      pop\n        /* \"#utility.yul\":6394:6414   */\n      tag_138\n        /* \"#utility.yul\":6412:6413   */\n      dup4\n        /* \"#utility.yul\":6394:6414   */\n      tag_55\n      jump\t// in\n    tag_138:\n        /* \"#utility.yul\":6389:6414   */\n      swap3\n      pop\n        /* \"#utility.yul\":6438:6439   */\n      dup3\n        /* \"#utility.yul\":6435:6436   */\n      dup3\n        /* \"#utility.yul\":6431:6440   */\n      sub\n        /* \"#utility.yul\":6423:6440   */\n      swap1\n      pop\n        /* \"#utility.yul\":6462:6463   */\n      dup2\n        /* \"#utility.yul\":6456:6460   */\n      dup2\n        /* \"#utility.yul\":6453:6464   */\n      gt\n        /* \"#utility.yul\":6450:6487   */\n      iszero\n      tag_139\n      jumpi\n        /* \"#utility.yul\":6467:6485   */\n      tag_140\n      tag_65\n      jump\t// in\n    tag_140:\n        /* \"#utility.yul\":6450:6487   */\n    tag_139:\n        /* \"#utility.yul\":6300:6494   */\n      swap3\n      swap2\n      pop\n      pop\n      jump\t// out\n        /* \"#utility.yul\":6500:6691   */\n    tag_22:\n        /* \"#utility.yul\":6540:6543   */\n      0x00\n        /* \"#utility.yul\":6559:6579   */\n      tag_142\n        /* \"#utility.yul\":6577:6578   */\n      dup3\n        /* \"#utility.yul\":6559:6579   */\n      tag_55\n      jump\t// in\n    tag_142:\n        /* \"#utility.yul\":6554:6579   */\n      swap2\n      pop\n        /* \"#utility.yul\":6593:6613   */\n      tag_143\n        /* \"#utility.yul\":6611:6612   */\n      dup4\n        /* \"#utility.yul\":6593:6613   */\n      tag_55\n      jump\t// in\n    tag_143:\n        /* \"#utility.yul\":6588:6613   */\n      swap3\n      pop\n        /* \"#utility.yul\":6636:6637   */\n      dup3\n        /* \"#utility.yul\":6633:6634   */\n      dup3\n        /* \"#utility.yul\":6629:6638   */\n      add\n        /* \"#utility.yul\":6622:6638   */\n      swap1\n      pop\n        /* \"#utility.yul\":6657:6660   */\n      dup1\n        /* \"#utility.yul\":6654:6655   */\n      dup3\n        /* \"#utility.yul\":6651:6661   */\n      gt\n        /* \"#utility.yul\":6648:6684   */\n      iszero\n      tag_144\n      jumpi\n        /* \"#utility.yul\":6664:6682   */\n      tag_145\n      tag_65\n      jump\t// in\n    tag_145:\n        /* \"#utility.yul\":6648:6684   */\n    tag_144:\n        /* \"#utility.yul\":6500:6691   */\n      swap3\n      swap2\n      pop\n      pop\n      jump\t// out\n        /* \"#utility.yul\":6697:6877   */\n    tag_25:\n        /* \"#utility.yul\":6745:6822   */\n      0x4e487b7100000000000000000000000000000000000000000000000000000000\n        /* \"#utility.yul\":6742:6743   */\n      0x00\n        /* \"#utility.yul\":6735:6823   */\n      mstore\n        /* \"#utility.yul\":6842:6846   */\n      0x32\n        /* \"#utility.yul\":6839:6840   */\n      0x04\n        /* \"#utility.yul\":6832:6847   */\n      mstore\n        /* \"#utility.yul\":6866:6870   */\n      0x24\n        /* \"#utility.yul\":6863:6864   */\n      0x00\n        /* \"#utility.yul\":6856:6871   */\n      revert\n\n    auxdata: 0xa2646970667358221220ac70b3f171336125165ad4aeda7be672ab1515ef528bf8f53a8685f3dfa915f364736f6c634300081a0033\n}\n",
				"bytecode": {
					"linkReferences": {},
					"object": "6080604052348015600e575f80fd5b506105928061001c5f395ff3fe608060405234801561000f575f80fd5b5060043610610029575f3560e01c8063ab8f20c01461002d575b5f80fd5b6100476004803603810190610042919061036b565b61005d565b604051610054919061047c565b60405180910390f35b60605f5b60018361006e91906104c9565b81101561019a575f805b6001838661008691906104c9565b61009091906104c9565b81101561018057856001826100a591906104fc565b815181106100b6576100b561052f565b5b60200260200101518682815181106100d1576100d061052f565b5b60200260200101511315610175575f8682815181106100f3576100f261052f565b5b602002602001015190508660018361010b91906104fc565b8151811061011c5761011b61052f565b5b60200260200101518783815181106101375761013661052f565b5b602002602001018181525050808760018461015291906104fc565b815181106101635761016261052f565b5b60200260200101818152505060019250505b806001019050610078565b505f810361018e575061019a565b50806001019050610061565b5082905092915050565b5f604051905090565b5f80fd5b5f80fd5b5f80fd5b5f601f19601f8301169050919050565b7f4e487b71000000000000000000000000000000000000000000000000000000005f52604160045260245ffd5b6101ff826101b9565b810181811067ffffffffffffffff8211171561021e5761021d6101c9565b5b80604052505050565b5f6102306101a4565b905061023c82826101f6565b919050565b5f67ffffffffffffffff82111561025b5761025a6101c9565b5b602082029050602081019050919050565b5f80fd5b5f819050919050565b61028281610270565b811461028c575f80fd5b50565b5f8135905061029d81610279565b92915050565b5f6102b56102b084610241565b610227565b905080838252602082019050602084028301858111156102d8576102d761026c565b5b835b8181101561030157806102ed888261028f565b8452602084019350506020810190506102da565b5050509392505050565b5f82601f83011261031f5761031e6101b5565b5b813561032f8482602086016102a3565b91505092915050565b5f819050919050565b61034a81610338565b8114610354575f80fd5b50565b5f8135905061036581610341565b92915050565b5f8060408385031215610381576103806101ad565b5b5f83013567ffffffffffffffff81111561039e5761039d6101b1565b5b6103aa8582860161030b565b92505060206103bb85828601610357565b9150509250929050565b5f81519050919050565b5f82825260208201905092915050565b5f819050602082019050919050565b6103f781610270565b82525050565b5f61040883836103ee565b60208301905092915050565b5f602082019050919050565b5f61042a826103c5565b61043481856103cf565b935061043f836103df565b805f5b8381101561046f57815161045688826103fd565b975061046183610414565b925050600181019050610442565b5085935050505092915050565b5f6020820190508181035f8301526104948184610420565b905092915050565b7f4e487b71000000000000000000000000000000000000000000000000000000005f52601160045260245ffd5b5f6104d382610338565b91506104de83610338565b92508282039050818111156104f6576104f561049c565b5b92915050565b5f61050682610338565b915061051183610338565b92508282019050808211156105295761052861049c565b5b92915050565b7f4e487b71000000000000000000000000000000000000000000000000000000005f52603260045260245ffdfea2646970667358221220ac70b3f171336125165ad4aeda7be672ab1515ef528bf8f53a8685f3dfa915f364736f6c634300081a0033",
					"opcodes": "PUSH1 0x80 PUSH1 0x40 MSTORE CALLVALUE DUP1 ISZERO PUSH1 0xE JUMPI PUSH0 DUP1 REVERT JUMPDEST POP PUSH2 0x592 DUP1 PUSH2 0x1C PUSH0 CODECOPY PUSH0 RETURN INVALID PUSH1 0x80 PUSH1 0x40 MSTORE CALLVALUE DUP1 ISZERO PUSH2 0xF JUMPI PUSH0 DUP1 REVERT JUMPDEST POP PUSH1 0x4 CALLDATASIZE LT PUSH2 0x29 JUMPI PUSH0 CALLDATALOAD PUSH1 0xE0 SHR DUP1 PUSH4 0xAB8F20C0 EQ PUSH2 0x2D JUMPI JUMPDEST PUSH0 DUP1 REVERT JUMPDEST PUSH2 0x47 PUSH1 0x4 DUP1 CALLDATASIZE SUB DUP2 ADD SWAP1 PUSH2 0x42 SWAP2 SWAP1 PUSH2 0x36B JUMP JUMPDEST PUSH2 0x5D JUMP JUMPDEST PUSH1 0x40 MLOAD PUSH2 0x54 SWAP2 SWAP1 PUSH2 0x47C JUMP JUMPDEST PUSH1 0x40 MLOAD DUP1 SWAP2 SUB SWAP1 RETURN JUMPDEST PUSH1 0x60 PUSH0 JUMPDEST PUSH1 0x1 DUP4 PUSH2 0x6E SWAP2 SWAP1 PUSH2 0x4C9 JUMP JUMPDEST DUP2 LT ISZERO PUSH2 0x19A JUMPI PUSH0 DUP1 JUMPDEST PUSH1 0x1 DUP4 DUP7 PUSH2 0x86 SWAP2 SWAP1 PUSH2 0x4C9 JUMP JUMPDEST PUSH2 0x90 SWAP2 SWAP1 PUSH2 0x4C9 JUMP JUMPDEST DUP2 LT ISZERO PUSH2 0x180 JUMPI DUP6 PUSH1 0x1 DUP3 PUSH2 0xA5 SWAP2 SWAP1 PUSH2 0x4FC JUMP JUMPDEST DUP2 MLOAD DUP2 LT PUSH2 0xB6 JUMPI PUSH2 0xB5 PUSH2 0x52F JUMP JUMPDEST JUMPDEST PUSH1 0x20 MUL PUSH1 0x20 ADD ADD MLOAD DUP7 DUP3 DUP2 MLOAD DUP2 LT PUSH2 0xD1 JUMPI PUSH2 0xD0 PUSH2 0x52F JUMP JUMPDEST JUMPDEST PUSH1 0x20 MUL PUSH1 0x20 ADD ADD MLOAD SGT ISZERO PUSH2 0x175 JUMPI PUSH0 DUP7 DUP3 DUP2 MLOAD DUP2 LT PUSH2 0xF3 JUMPI PUSH2 0xF2 PUSH2 0x52F JUMP JUMPDEST JUMPDEST PUSH1 0x20 MUL PUSH1 0x20 ADD ADD MLOAD SWAP1 POP DUP7 PUSH1 0x1 DUP4 PUSH2 0x10B SWAP2 SWAP1 PUSH2 0x4FC JUMP JUMPDEST DUP2 MLOAD DUP2 LT PUSH2 0x11C JUMPI PUSH2 0x11B PUSH2 0x52F JUMP JUMPDEST JUMPDEST PUSH1 0x20 MUL PUSH1 0x20 ADD ADD MLOAD DUP8 DUP4 DUP2 MLOAD DUP2 LT PUSH2 0x137 JUMPI PUSH2 0x136 PUSH2 0x52F JUMP JUMPDEST JUMPDEST PUSH1 0x20 MUL PUSH1 0x20 ADD ADD DUP2 DUP2 MSTORE POP POP DUP1 DUP8 PUSH1 0x1 DUP5 PUSH2 0x152 SWAP2 SWAP1 PUSH2 0x4FC JUMP JUMPDEST DUP2 MLOAD DUP2 LT PUSH2 0x163 JUMPI PUSH2 0x162 PUSH2 0x52F JUMP JUMPDEST JUMPDEST PUSH1 0x20 MUL PUSH1 0x20 ADD ADD DUP2 DUP2 MSTORE POP POP PUSH1 0x1 SWAP3 POP POP JUMPDEST DUP1 PUSH1 0x1 ADD SWAP1 POP PUSH2 0x78 JUMP JUMPDEST POP PUSH0 DUP2 SUB PUSH2 0x18E JUMPI POP PUSH2 0x19A JUMP JUMPDEST POP DUP1 PUSH1 0x1 ADD SWAP1 POP PUSH2 0x61 JUMP JUMPDEST POP DUP3 SWAP1 POP SWAP3 SWAP2 POP POP JUMP JUMPDEST PUSH0 PUSH1 0x40 MLOAD SWAP1 POP SWAP1 JUMP JUMPDEST PUSH0 DUP1 REVERT JUMPDEST PUSH0 DUP1 REVERT JUMPDEST PUSH0 DUP1 REVERT JUMPDEST PUSH0 PUSH1 0x1F NOT PUSH1 0x1F DUP4 ADD AND SWAP1 POP SWAP2 SWAP1 POP JUMP JUMPDEST PUSH32 0x4E487B7100000000000000000000000000000000000000000000000000000000 PUSH0 MSTORE PUSH1 0x41 PUSH1 0x4 MSTORE PUSH1 0x24 PUSH0 REVERT JUMPDEST PUSH2 0x1FF DUP3 PUSH2 0x1B9 JUMP JUMPDEST DUP2 ADD DUP2 DUP2 LT PUSH8 0xFFFFFFFFFFFFFFFF DUP3 GT OR ISZERO PUSH2 0x21E JUMPI PUSH2 0x21D PUSH2 0x1C9 JUMP JUMPDEST JUMPDEST DUP1 PUSH1 0x40 MSTORE POP POP POP JUMP JUMPDEST PUSH0 PUSH2 0x230 PUSH2 0x1A4 JUMP JUMPDEST SWAP1 POP PUSH2 0x23C DUP3 DUP3 PUSH2 0x1F6 JUMP JUMPDEST SWAP2 SWAP1 POP JUMP JUMPDEST PUSH0 PUSH8 0xFFFFFFFFFFFFFFFF DUP3 GT ISZERO PUSH2 0x25B JUMPI PUSH2 0x25A PUSH2 0x1C9 JUMP JUMPDEST JUMPDEST PUSH1 0x20 DUP3 MUL SWAP1 POP PUSH1 0x20 DUP2 ADD SWAP1 POP SWAP2 SWAP1 POP JUMP JUMPDEST PUSH0 DUP1 REVERT JUMPDEST PUSH0 DUP2 SWAP1 POP SWAP2 SWAP1 POP JUMP JUMPDEST PUSH2 0x282 DUP2 PUSH2 0x270 JUMP JUMPDEST DUP2 EQ PUSH2 0x28C JUMPI PUSH0 DUP1 REVERT JUMPDEST POP JUMP JUMPDEST PUSH0 DUP2 CALLDATALOAD SWAP1 POP PUSH2 0x29D DUP2 PUSH2 0x279 JUMP JUMPDEST SWAP3 SWAP2 POP POP JUMP JUMPDEST PUSH0 PUSH2 0x2B5 PUSH2 0x2B0 DUP5 PUSH2 0x241 JUMP JUMPDEST PUSH2 0x227 JUMP JUMPDEST SWAP1 POP DUP1 DUP4 DUP3 MSTORE PUSH1 0x20 DUP3 ADD SWAP1 POP PUSH1 0x20 DUP5 MUL DUP4 ADD DUP6 DUP2 GT ISZERO PUSH2 0x2D8 JUMPI PUSH2 0x2D7 PUSH2 0x26C JUMP JUMPDEST JUMPDEST DUP4 JUMPDEST DUP2 DUP2 LT ISZERO PUSH2 0x301 JUMPI DUP1 PUSH2 0x2ED DUP9 DUP3 PUSH2 0x28F JUMP JUMPDEST DUP5 MSTORE PUSH1 0x20 DUP5 ADD SWAP4 POP POP PUSH1 0x20 DUP2 ADD SWAP1 POP PUSH2 0x2DA JUMP JUMPDEST POP POP POP SWAP4 SWAP3 POP POP POP JUMP JUMPDEST PUSH0 DUP3 PUSH1 0x1F DUP4 ADD SLT PUSH2 0x31F JUMPI PUSH2 0x31E PUSH2 0x1B5 JUMP JUMPDEST JUMPDEST DUP2 CALLDATALOAD PUSH2 0x32F DUP5 DUP3 PUSH1 0x20 DUP7 ADD PUSH2 0x2A3 JUMP JUMPDEST SWAP2 POP POP SWAP3 SWAP2 POP POP JUMP JUMPDEST PUSH0 DUP2 SWAP1 POP SWAP2 SWAP1 POP JUMP JUMPDEST PUSH2 0x34A DUP2 PUSH2 0x338 JUMP JUMPDEST DUP2 EQ PUSH2 0x354 JUMPI PUSH0 DUP1 REVERT JUMPDEST POP JUMP JUMPDEST PUSH0 DUP2 CALLDATALOAD SWAP1 POP PUSH2 0x365 DUP2 PUSH2 0x341 JUMP JUMPDEST SWAP3 SWAP2 POP POP JUMP JUMPDEST PUSH0 DUP1 PUSH1 0x40 DUP4 DUP6 SUB SLT ISZERO PUSH2 0x381 JUMPI PUSH2 0x380 PUSH2 0x1AD JUMP JUMPDEST JUMPDEST PUSH0 DUP4 ADD CALLDATALOAD PUSH8 0xFFFFFFFFFFFFFFFF DUP2 GT ISZERO PUSH2 0x39E JUMPI PUSH2 0x39D PUSH2 0x1B1 JUMP JUMPDEST JUMPDEST PUSH2 0x3AA DUP6 DUP3 DUP7 ADD PUSH2 0x30B JUMP JUMPDEST SWAP3 POP POP PUSH1 0x20 PUSH2 0x3BB DUP6 DUP3 DUP7 ADD PUSH2 0x357 JUMP JUMPDEST SWAP2 POP POP SWAP3 POP SWAP3 SWAP1 POP JUMP JUMPDEST PUSH0 DUP2 MLOAD SWAP1 POP SWAP2 SWAP1 POP JUMP JUMPDEST PUSH0 DUP3 DUP3 MSTORE PUSH1 0x20 DUP3 ADD SWAP1 POP SWAP3 SWAP2 POP POP JUMP JUMPDEST PUSH0 DUP2 SWAP1 POP PUSH1 0x20 DUP3 ADD SWAP1 POP SWAP2 SWAP1 POP JUMP JUMPDEST PUSH2 0x3F7 DUP2 PUSH2 0x270 JUMP JUMPDEST DUP3 MSTORE POP POP JUMP JUMPDEST PUSH0 PUSH2 0x408 DUP4 DUP4 PUSH2 0x3EE JUMP JUMPDEST PUSH1 0x20 DUP4 ADD SWAP1 POP SWAP3 SWAP2 POP POP JUMP JUMPDEST PUSH0 PUSH1 0x20 DUP3 ADD SWAP1 POP SWAP2 SWAP1 POP JUMP JUMPDEST PUSH0 PUSH2 0x42A DUP3 PUSH2 0x3C5 JUMP JUMPDEST PUSH2 0x434 DUP2 DUP6 PUSH2 0x3CF JUMP JUMPDEST SWAP4 POP PUSH2 0x43F DUP4 PUSH2 0x3DF JUMP JUMPDEST DUP1 PUSH0 JUMPDEST DUP4 DUP2 LT ISZERO PUSH2 0x46F JUMPI DUP2 MLOAD PUSH2 0x456 DUP9 DUP3 PUSH2 0x3FD JUMP JUMPDEST SWAP8 POP PUSH2 0x461 DUP4 PUSH2 0x414 JUMP JUMPDEST SWAP3 POP POP PUSH1 0x1 DUP2 ADD SWAP1 POP PUSH2 0x442 JUMP JUMPDEST POP DUP6 SWAP4 POP POP POP POP SWAP3 SWAP2 POP POP JUMP JUMPDEST PUSH0 PUSH1 0x20 DUP3 ADD SWAP1 POP DUP2 DUP2 SUB PUSH0 DUP4 ADD MSTORE PUSH2 0x494 DUP2 DUP5 PUSH2 0x420 JUMP JUMPDEST SWAP1 POP SWAP3 SWAP2 POP POP JUMP JUMPDEST PUSH32 0x4E487B7100000000000000000000000000000000000000000000000000000000 PUSH0 MSTORE PUSH1 0x11 PUSH1 0x4 MSTORE PUSH1 0x24 PUSH0 REVERT JUMPDEST PUSH0 PUSH2 0x4D3 DUP3 PUSH2 0x338 JUMP JUMPDEST SWAP2 POP PUSH2 0x4DE DUP4 PUSH2 0x338 JUMP JUMPDEST SWAP3 POP DUP3 DUP3 SUB SWAP1 POP DUP2 DUP2 GT ISZERO PUSH2 0x4F6 JUMPI PUSH2 0x4F5 PUSH2 0x49C JUMP JUMPDEST JUMPDEST SWAP3 SWAP2 POP POP JUMP JUMPDEST PUSH0 PUSH2 0x506 DUP3 PUSH2 0x338 JUMP JUMPDEST SWAP2 POP PUSH2 0x511 DUP4 PUSH2 0x338 JUMP JUMPDEST SWAP3 POP DUP3 DUP3 ADD SWAP1 POP DUP1 DUP3 GT ISZERO PUSH2 0x529 JUMPI PUSH2 0x528 PUSH2 0x49C JUMP JUMPDEST JUMPDEST SWAP3 SWAP2 POP POP JUMP JUMPDEST PUSH32 0x4E487B7100000000000000000000000000000000000000000000000000000000 PUSH0 MSTORE PUSH1 0x32 PUSH1 0x4 MSTORE PUSH1 0x24 PUSH0 REVERT INVALID LOG2 PUSH5 0x6970667358 0x22 SLT KECCAK256 0xAC PUSH17 0xB3F171336125165AD4AEDA7BE672AB1515 0xEF MSTORE DUP12 0xF8 CREATE2 GASPRICE DUP7 DUP6 RETURN 0xDF 0xA9 ISZERO RETURN PUSH5 0x736F6C6343 STOP ADDMOD BYTE STOP CALLER "
				},
				"gasEstimates": {
					"creation": {
						"codeDepositCost": "285200",
						"executionCost": "322",
						"totalCost": "285522"
					},
					"external": {
						"sort(int256[],uint256)": "infinite"
					}
				},
				"methodIdentifiers": {
					"sort(int256[],uint256)": "ab8f20c0"
				}
			},
			"storageLayout": {
				"storage": [],
				"types": null
			},
			"userdoc": {
				"kind": "user",
				"methods": {},
				"version": 1
			}
		}
	}
}