{
	"data": {
		"bytecode": {
			"linkReferences": {},
			"object": "6080604052348015600e575f80fd5b5061051b8061001c5f395ff3fe608060405234801561000f575f80fd5b5060043610610029575f3560e01c80637949d61a1461002d575b5f80fd5b610047600480360381019061004291906102ca565b61005d565b60405161005491906103db565b60405180910390f35b60605f805f90505b6002846100729190610455565b81101561012b5784818151811061008c5761008b610485565b5b6020026020010151915084600182866100a591906104b2565b6100af91906104b2565b815181106100c0576100bf610485565b5b60200260200101518582815181106100db576100da610485565b5b6020026020010181815250508185600183876100f791906104b2565b61010191906104b2565b8151811061011257610111610485565b5b6020026020010181815250508080600101915050610065565b508391505092915050565b5f604051905090565b5f80fd5b5f80fd5b5f80fd5b5f601f19601f8301169050919050565b7f4e487b71000000000000000000000000000000000000000000000000000000005f52604160045260245ffd5b6101918261014b565b810181811067ffffffffffffffff821117156101b0576101af61015b565b5b80604052505050565b5f6101c2610136565b90506101ce8282610188565b919050565b5f67ffffffffffffffff8211156101ed576101ec61015b565b5b602082029050602081019050919050565b5f80fd5b5f819050919050565b61021481610202565b811461021e575f80fd5b50565b5f8135905061022f8161020b565b92915050565b5f610247610242846101d3565b6101b9565b9050808382526020820190506020840283018581111561026a576102696101fe565b5b835b81811015610293578061027f8882610221565b84526020840193505060208101905061026c565b5050509392505050565b5f82601f8301126102b1576102b0610147565b5b81356102c1848260208601610235565b91505092915050565b5f80604083850312156102e0576102df61013f565b5b5f83013567ffffffffffffffff8111156102fd576102fc610143565b5b6103098582860161029d565b925050602061031a85828601610221565b9150509250929050565b5f81519050919050565b5f82825260208201905092915050565b5f819050602082019050919050565b61035681610202565b82525050565b5f610367838361034d565b60208301905092915050565b5f602082019050919050565b5f61038982610324565b610393818561032e565b935061039e8361033e565b805f5b838110156103ce5781516103b5888261035c565b97506103c083610373565b9250506001810190506103a1565b5085935050505092915050565b5f6020820190508181035f8301526103f3818461037f565b905092915050565b7f4e487b71000000000000000000000000000000000000000000000000000000005f52601260045260245ffd5b7f4e487b71000000000000000000000000000000000000000000000000000000005f52601160045260245ffd5b5f61045f82610202565b915061046a83610202565b92508261047a576104796103fb565b5b828204905092915050565b7f4e487b71000000000000000000000000000000000000000000000000000000005f52603260045260245ffd5b5f6104bc82610202565b91506104c783610202565b92508282039050818111156104df576104de610428565b5b9291505056fea2646970667358221220abc533330d744aecf441779794e601f0add21b81458cf6a962282e4eea83183c64736f6c634300081a0033",
			"opcodes": "PUSH1 0x80 PUSH1 0x40 MSTORE CALLVALUE DUP1 ISZERO PUSH1 0xE JUMPI PUSH0 DUP1 REVERT JUMPDEST POP PUSH2 0x51B DUP1 PUSH2 0x1C PUSH0 CODECOPY PUSH0 RETURN INVALID PUSH1 0x80 PUSH1 0x40 MSTORE CALLVALUE DUP1 ISZERO PUSH2 0xF JUMPI PUSH0 DUP1 REVERT JUMPDEST POP PUSH1 0x4 CALLDATASIZE LT PUSH2 0x29 JUMPI PUSH0 CALLDATALOAD PUSH1 0xE0 SHR DUP1 PUSH4 0x7949D61A EQ PUSH2 0x2D JUMPI JUMPDEST PUSH0 DUP1 REVERT JUMPDEST PUSH2 0x47 PUSH1 0x4 DUP1 CALLDATASIZE SUB DUP2 ADD SWAP1 PUSH2 0x42 SWAP2 SWAP1 PUSH2 0x2CA JUMP JUMPDEST PUSH2 0x5D JUMP JUMPDEST PUSH1 0x40 MLOAD PUSH2 0x54 SWAP2 SWAP1 PUSH2 0x3DB JUMP JUMPDEST PUSH1 0x40 MLOAD DUP1 SWAP2 SUB SWAP1 RETURN JUMPDEST PUSH1 0x60 PUSH0 DUP1 PUSH0 SWAP1 POP JUMPDEST PUSH1 0x2 DUP5 PUSH2 0x72 SWAP2 SWAP1 PUSH2 0x455 JUMP JUMPDEST DUP2 LT ISZERO PUSH2 0x12B JUMPI DUP5 DUP2 DUP2 MLOAD DUP2 LT PUSH2 0x8C JUMPI PUSH2 0x8B PUSH2 0x485 JUMP JUMPDEST JUMPDEST PUSH1 0x20 MUL PUSH1 0x20 ADD ADD MLOAD SWAP2 POP DUP5 PUSH1 0x1 DUP3 DUP7 PUSH2 0xA5 SWAP2 SWAP1 PUSH2 0x4B2 JUMP JUMPDEST PUSH2 0xAF SWAP2 SWAP1 PUSH2 0x4B2 JUMP JUMPDEST DUP2 MLOAD DUP2 LT PUSH2 0xC0 JUMPI PUSH2 0xBF PUSH2 0x485 JUMP JUMPDEST JUMPDEST PUSH1 0x20 MUL PUSH1 0x20 ADD ADD MLOAD DUP6 DUP3 DUP2 MLOAD DUP2 LT PUSH2 0xDB JUMPI PUSH2 0xDA PUSH2 0x485 JUMP JUMPDEST JUMPDEST PUSH1 0x20 MUL PUSH1 0x20 ADD ADD DUP2 DUP2 MSTORE POP POP DUP2 DUP6 PUSH1 0x1 DUP4 DUP8 PUSH2 0xF7 SWAP2 SWAP1 PUSH2 0x4B2 JUMP JUMPDEST PUSH2 0x101 SWAP2 SWAP1 PUSH2 0x4B2 JUMP JUMPDEST DUP2 MLOAD DUP2 LT PUSH2 0x112 JUMPI PUSH2 0x111 PUSH2 0x485 JUMP JUMPDEST JUMPDEST PUSH1 0x20 MUL PUSH1 0x20 ADD ADD DUP2 DUP2 MSTORE POP POP DUP1 DUP1 PUSH1 0x1 ADD SWAP2 POP POP PUSH2 0x65 JUMP JUMPDEST POP DUP4 SWAP2 POP POP SWAP3 SWAP2 POP POP JUMP JUMPDEST PUSH0 PUSH1 0x40 MLOAD SWAP1 POP SWAP1 JUMP JUMPDEST PUSH0 DUP1 REVERT JUMPDEST PUSH0 DUP1 REVERT JUMPDEST PUSH0 DUP1 REVERT JUMPDEST PUSH0 PUSH1 0x1F NOT PUSH1 0x1F DUP4 ADD AND SWAP1 POP SWAP2 SWAP1 POP JUMP JUMPDEST PUSH32 0x4E487B7100000000000000000000000000000000000000000000000000000000 PUSH0 MSTORE PUSH1 0x41 PUSH1 0x4 MSTORE PUSH1 0x24 PUSH0 REVERT JUMPDEST PUSH2 0x191 DUP3 PUSH2 0x14B JUMP JUMPDEST DUP2 ADD DUP2 DUP2 LT PUSH8 0xFFFFFFFFFFFFFFFF DUP3 GT OR ISZERO PUSH2 0x1B0 JUMPI PUSH2 0x1AF PUSH2 0x15B JUMP JUMPDEST JUMPDEST DUP1 PUSH1 0x40 MSTORE POP POP POP JUMP JUMPDEST PUSH0 PUSH2 0x1C2 PUSH2 0x136 JUMP JUMPDEST SWAP1 POP PUSH2 0x1CE DUP3 DUP3 PUSH2 0x188 JUMP JUMPDEST SWAP2 SWAP1 POP JUMP JUMPDEST PUSH0 PUSH8 0xFFFFFFFFFFFFFFFF DUP3 GT ISZERO PUSH2 0x1ED JUMPI PUSH2 0x1EC PUSH2 0x15B JUMP JUMPDEST JUMPDEST PUSH1 0x20 DUP3 MUL SWAP1 POP PUSH1 0x20 DUP2 ADD SWAP1 POP SWAP2 SWAP1 POP JUMP JUMPDEST PUSH0 DUP1 REVERT JUMPDEST PUSH0 DUP2 SWAP1 POP SWAP2 SWAP1 POP JUMP JUMPDEST PUSH2 0x214 DUP2 PUSH2 0x202 JUMP JUMPDEST DUP2 EQ PUSH2 0x21E JUMPI PUSH0 DUP1 REVERT JUMPDEST POP JUMP JUMPDEST PUSH0 DUP2 CALLDATALOAD SWAP1 POP PUSH2 0x22F DUP2 PUSH2 0x20B JUMP JUMPDEST SWAP3 SWAP2 POP POP JUMP JUMPDEST PUSH0 PUSH2 0x247 PUSH2 0x242 DUP5 PUSH2 0x1D3 JUMP JUMPDEST PUSH2 0x1B9 JUMP JUMPDEST SWAP1 POP DUP1 DUP4 DUP3 MSTORE PUSH1 0x20 DUP3 ADD SWAP1 POP PUSH1 0x20 DUP5 MUL DUP4 ADD DUP6 DUP2 GT ISZERO PUSH2 0x26A JUMPI PUSH2 0x269 PUSH2 0x1FE JUMP JUMPDEST JUMPDEST DUP4 JUMPDEST DUP2 DUP2 LT ISZERO PUSH2 0x293 JUMPI DUP1 PUSH2 0x27F DUP9 DUP3 PUSH2 0x221 JUMP JUMPDEST DUP5 MSTORE PUSH1 0x20 DUP5 ADD SWAP4 POP POP PUSH1 0x20 DUP2 ADD SWAP1 POP PUSH2 0x26C JUMP JUMPDEST POP POP POP SWAP4 SWAP3 POP POP POP JUMP JUMPDEST PUSH0 DUP3 PUSH1 0x1F DUP4 ADD SLT PUSH2 0x2B1 JUMPI PUSH2 0x2B0 PUSH2 0x147 JUMP JUMPDEST JUMPDEST DUP2 CALLDATALOAD PUSH2 0x2C1 DUP5 DUP3 PUSH1 0x20 DUP7 ADD PUSH2 0x235 JUMP JUMPDEST SWAP2 POP POP SWAP3 SWAP2 POP POP JUMP JUMPDEST PUSH0 DUP1 PUSH1 0x40 DUP4 DUP6 SUB SLT ISZERO PUSH2 0x2E0 JUMPI PUSH2 0x2DF PUSH2 0x13F JUMP JUMPDEST JUMPDEST PUSH0 DUP4 ADD CALLDATALOAD PUSH8 0xFFFFFFFFFFFFFFFF DUP2 GT ISZERO PUSH2 0x2FD JUMPI PUSH2 0x2FC PUSH2 0x143 JUMP JUMPDEST JUMPDEST PUSH2 0x309 DUP6 DUP3 DUP7 ADD PUSH2 0x29D JUMP JUMPDEST SWAP3 POP POP PUSH1 0x20 PUSH2 0x31A DUP6 DUP3 DUP7 ADD PUSH2 0x221 JUMP JUMPDEST SWAP2 POP POP SWAP3 POP SWAP3 SWAP1 POP JUMP JUMPDEST PUSH0 DUP2 MLOAD SWAP1 POP SWAP2 SWAP1 POP JUMP JUMPDEST PUSH0 DUP3 DUP3 MSTORE PUSH1 0x20 DUP3 ADD SWAP1 POP SWAP3 SWAP2 POP POP JUMP JUMPDEST PUSH0 DUP2 SWAP1 POP PUSH1 0x20 DUP3 ADD SWAP1 POP SWAP2 SWAP1 POP JUMP JUMPDEST PUSH2 0x356 DUP2 PUSH2 0x202 JUMP JUMPDEST DUP3 MSTORE POP POP JUMP JUMPDEST PUSH0 PUSH2 0x367 DUP4 DUP4 PUSH2 0x34D JUMP JUMPDEST PUSH1 0x20 DUP4 ADD SWAP1 POP SWAP3 SWAP2 POP POP JUMP JUMPDEST PUSH0 PUSH1 0x20 DUP3 ADD SWAP1 POP SWAP2 SWAP1 POP JUMP JUMPDEST PUSH0 PUSH2 0x389 DUP3 PUSH2 0x324 JUMP JUMPDEST PUSH2 0x393 DUP2 DUP6 PUSH2 0x32E JUMP JUMPDEST SWAP4 POP PUSH2 0x39E DUP4 PUSH2 0x33E JUMP JUMPDEST DUP1 PUSH0 JUMPDEST DUP4 DUP2 LT ISZERO PUSH2 0x3CE JUMPI DUP2 MLOAD PUSH2 0x3B5 DUP9 DUP3 PUSH2 0x35C JUMP JUMPDEST SWAP8 POP PUSH2 0x3C0 DUP4 PUSH2 0x373 JUMP JUMPDEST SWAP3 POP POP PUSH1 0x1 DUP2 ADD SWAP1 POP PUSH2 0x3A1 JUMP JUMPDEST POP DUP6 SWAP4 POP POP POP POP SWAP3 SWAP2 POP POP JUMP JUMPDEST PUSH0 PUSH1 0x20 DUP3 ADD SWAP1 POP DUP2 DUP2 SUB PUSH0 DUP4 ADD MSTORE PUSH2 0x3F3 DUP2 DUP5 PUSH2 0x37F JUMP JUMPDEST SWAP1 POP SWAP3 SWAP2 POP POP JUMP JUMPDEST PUSH32 0x4E487B7100000000000000000000000000000000000000000000000000000000 PUSH0 MSTORE PUSH1 0x12 PUSH1 0x4 MSTORE PUSH1 0x24 PUSH0 REVERT JUMPDEST PUSH32 0x4E487B7100000000000000000000000000000000000000000000000000000000 PUSH0 MSTORE PUSH1 0x11 PUSH1 0x4 MSTORE PUSH1 0x24 PUSH0 REVERT JUMPDEST PUSH0 PUSH2 0x45F DUP3 PUSH2 0x202 JUMP JUMPDEST SWAP2 POP PUSH2 0x46A DUP4 PUSH2 0x202 JUMP JUMPDEST SWAP3 POP DUP3 PUSH2 0x47A JUMPI PUSH2 0x479 PUSH2 0x3FB JUMP JUMPDEST JUMPDEST DUP3 DUP3 DIV SWAP1 POP SWAP3 SWAP2 POP POP JUMP JUMPDEST PUSH32 0x4E487B7100000000000000000000000000000000000000000000000000000000 PUSH0 MSTORE PUSH1 0x32 PUSH1 0x4 MSTORE PUSH1 0x24 PUSH0 REVERT JUMPDEST PUSH0 PUSH2 0x4BC DUP3 PUSH2 0x202 JUMP JUMPDEST SWAP2 POP PUSH2 0x4C7 DUP4 PUSH2 0x202 JUMP JUMPDEST SWAP3 POP DUP3 DUP3 SUB SWAP1 POP DUP2 DUP2 GT ISZERO PUSH2 0x4DF JUMPI PUSH2 0x4DE PUSH2 0x428 JUMP JUMPDEST JUMPDEST SWAP3 SWAP2 POP POP JUMP INVALID LOG2 PUSH5 0x6970667358 0x22 SLT KECCAK256 0xAB 0xC5 CALLER CALLER 0xD PUSH21 0x4AECF441779794E601F0ADD21B81458CF6A962282E 0x4E 0xEA DUP4 XOR EXTCODECOPY PUSH5 0x736F6C6343 STOP ADDMOD BYTE STOP CALLER "
		},
		"gasEstimates": {
			"creation": {
				"codeDepositCost": "261400",
				"executionCost": "298",
				"totalCost": "261698"
			},
			"external": {
				"reverseArray(uint256[],uint256)": "infinite"
			}
		},
		"methodIdentifiers": {
			"reverseArray(uint256[],uint256)": "7949d61a"
		}
	},
	"abi": [
		{
			"inputs": [
				{
					"internalType": "uint256[]",
					"name": "arr",
					"type": "uint256[]"
				},
				{
					"internalType": "uint256",
					"name": "len",
					"type": "uint256"
				}
			],
			"name": "reverseArray",
			"outputs": [
				{
					"internalType": "uint256[]",
					"name": "",
					"type": "uint256[]"
				}
			],
			"stateMutability": "pure",
			"type": "function"
		}
	]
}